MATHPK FOR BASIC MCS 8080  GATES/ALLEN/DAVIDOFF MACRO 47(113) 06:09 27-AUG-75 PAGE 1
C       23-AUG-64 06:08         COMMON FILE

     1                                  00100   SEARCH  MCS808                  ;THE UNIVERSAL FILE
     2                                  00200   SUBTTL  COMMON FILE
     3                                  00300   SALL
     4                  000001          00400   LENGTH==1                       ; 0 MEANS 4K, 1 MEANS 8K, 2 MEANS 12K
     5                  000001          00500   REALIO==1
     6                  000001          00600   CASSW==1                        ;CASSETTE SWITCH (CSAVE,CLOAD)
     7                  000000          00700   LPTSW==0
     8                  000000          00800   DSKFUN==0                       ;ON TO READ/WRITE
     9                  000000          00900   CONSSW==0
    10
    11                  000001          01100   CONTRW==1                       ;ALLOW ^O
    12                                  01200   IFE     REALIO,<
    13                                  01300           LPTSW==0                ;SIMULATOR DEFAULTS
    14                                  01400           CASSW==0
    15                                  01500           CONSSW==0
    16                                  01600           DSKFUN==0
    17                                  01700           CONTRW==0>
    18
    19                                  01900   IFE     LENGTH,<
    20                                  02000           EXTFNC==0               ;ON MEANS EXTENDED FUNCTIONS
    21                                  02100           MULDIM==0               ;ON MEANS MULTIPLE DIMENSIONED ARRAYS ALLOWED
    22                                  02200           STRING==0               ;ON MEANS STRINGS ALLOWED
    23                                  02300           CASSW==0
    24                                  02400           LPTSW==0
    25                                  02500           DSFFUN==0
    26                                  02600           CONSSW==0
    27                                  02700           CONTRW==0>
    28
    29                                  02900   IFE     LENGTH-1,<
    30                  000001          03000           EXTFNC==1
    31                  000001          03100           MULDIM==1
    32                  000001          03200           STRING==1>
    33
    34                                  03400   IFE     LENGTH-2,<
    35                                  03500           EXTFNC==1
    36                                  03600           MULDIM==1
    37                                  03700           STRING==1>
    38
    39                                  03900   DEFINE  SYNCHK(A),<RST  1
    40                                  04000                   A>
    41                                  04100   DEFINE  CHRGET,<RST     2>
    42                                  04200   DEFINE  OUTCHR,<RST     3>
    43                                  04300   DEFINE  COMPAR,<RST     4>
    44                                  04400   DEFINE  FSIGN,<RST      5>
    45                                  04500   DEFINE  PUSHM,<RST      6>
    46                                  04600   DEFINE  PUSHFM,<PUSHM
    47                                  04700                   PUSHM>
    48                                  04800   DEFINE  ACRLF,<
    49                                  04900           ^D13
    50                                  05000   IFN     STRING,<^D10>>
    51                                  05100   DEFINE  PUSHR,<
    52                                  05200           PUSH    D
    53                                  05300           PUSH    B>


-- PAGE 200 --------------------------------------------------------------


MATHPK FOR BASIC MCS 8080  GATES/ALLEN/DAVIDOFF MACRO 47(113) 06:09 27-AUG-75 PAGE 1-1
C       23-AUG-64 06:08         COMMON FILE

    54                                  05400   DEFINE  POPR,<
    55                                  05500           POP     B
    56                                  05600           POP     D>
    57                                  05700   DEFINE  MOVRI(B,C,D,E),<
    58                                  05800           XWD     ^O1000,^O001    ;; "LXI B"
    59                                  05900           EXP     C
    60                                  06000           EXP     B
    61                                  06100           XWD     ^O1000,^O021    ;; "LXI D"
    62                                  06200           EXP     E
    63                                  06300           EXP     D>
    64
    65                                  06500   IF1,<
    66                                  06600   IFE     LENGTH,<PRINTX  /SMALL/>
    67                                  06700   IFE     LENGTH-1,<PRINTX        /MEDIUM/>
    68                                  06800   IFE     LENGTH-2,<PRINTX        /BIG/>
    69                                  06900   IFE     REALIO,<PRINTX  /SIMULATE/>
    70                                  07000   IFN     REALIO,<PRINTX  /ON MACHINE/>
    71                                  07100   IFN     CASSW,<PRINTX   /CASSETTE/>
    72                                  07200   IFN     LPTSW,<PRINTX   /LPT/>
    73                                  07300   IFN     DSKFUN,<PRINTX  /DISK/>
    74                                  07400   IFN     CONSSW,<PRINTX  /CONSOLE/>>
    75                                  07500   PAGE


-- PAGE 201 --------------------------------------------------------------


MATHPK FOR BASIC MCS 8080  GATES/ALLEN/DAVIDOFF MACRO 47(113) 06:09 27-AUG-75 PAGE 1
F4      MAC     23-AUG-64 06:08         FLOATING POINT MATH PACKAGE CONFIGURATION

    76                                  00100   SUBTTL  FLOATING POINT MATH PACKAGE CONFIGURATION
    77                                  00120   TITLE   MATHPK FOR BASIC MCS 8080  GATES/ALLEN/DAVIDOFF
    78
    79                                  00160   IFNDEF  LENGTH,<
    80                                  00180           PRINTX  !!! MUST HAVE COM !!!
    81                                  00200           END>
    82
    83                                  00240   RADIX   8                       ;!!!! ALERT !!!!
    84                                  00260                                   ;THROUGHOUT THE MATHPACKAGE!!
    85
    86                  000000          00300           ,P==0
    87
    88                                  00340   INTERNAL        ZERO,FLOAT,FLOATR,MOVE,FADD,FADDS,FSUB,FMULT,FDIV,FUN,FOUT
    89                                  00360   INTERNAL        PUSHF,ABS,INT,QINT,SGN,SQR,RND,SIN,FCOMP,SIGNC,OVERR
    90                                  00380   INTERNAL        INPRT,LINPRT,MOVFM,MOVMF,MOVFR,MOVRF,MOVRM,NEG,INRART,INXHRT
    91                                  00400   IFN     EXTFNC,<
    92                                  00420   INTERNAL        FPWR,EXP,LOG,COS,TAN,ATN,FONE>
    93                                  00440   IFN     MULDIM&<LENGTH-2>,<
    94                                  00460   INTERNAL        DMULT>
    95                                  00480   IFN     STRING,<
    96                                  00500   INTERNAL        SIGNS>
    97                                  00520   IFN     LENGTH-2,<
    98                                  00540   INTERNAL        FADDT,FSUBT,FMULTT,FDIVT>
    99                                  00560   IFE     LENGTH-1,<
   100                                  00580   INTERNAL        FPWRT>
   101                                  00600   IFE     LENGTH-2,<
   102                                  00620   INTERNAL        VMOVMF,VMOVFM,FRCINT,FRCSNG,FRCDBL,VNEG,PUFOUT,DCXBRT,IADD
   103                                  00640   INTERNAL        ISUB,IMULT,IDIV,ICOMP,INET,DADD,DSUB,DMULT,DDIV,DCOMP,INTFNC>
   104
   105
   106                                  00700   EXTERNAL        FAC,FACLO,FBUFFR,MINUTK,PLUSTK,ERROR,DV0ERR,ERROV,FCERR,SIGN
   107                                  00720   EXTERNAL        $CODE
   108                                  00740   IFE     LENGTH-2,<
   109                                  00760   EXTERNAL        DFACLO,ARG,ARGLO,VALTYP,TMERR,TEMP2,TEMP3>
   110
   111
   112                                  00820   COMMENT %
   113                                  00840           EXTERNAL LOCATIONS USED BY THE MATH-PACKAGE
   114                                  00860           ;THE FLOATING ACCUMULATOR
   115                                  00880   IFE     LENGTH-2,<
   116                                  00900           BLOCK   1               ;[TEMPORARY LEAST SIGNIFICANT BYTE]
   117                                  00920   DFACLO: BLOCK   4>              ;[FOUR LOWEST ORDERS FOR DOUBLE PRECISION]
   118                                  00940   FACLO:  BLOCK   3               ;[LOW ORDER OF MANTISSA (LO)]
   119                                  00960                                   ;[MIDDLE ORDER OF MANTISSA (MO)]
   120                                  00980                                   ;[HIGH ORDER OF MANTISSA (HO)]
   121                                  01000   FAC:    BLOCK   2               ;[EXPONENT]
   122                                  01020                                   ;[TEMPORARY COMPLEMENT OF SIGN IN MSG]
   123                                  01040   IFE     LENGTH-2,<
   124                                  01060   ARGLO:  BLOCK   7               ;[LOCATION OF SECOND ARGUMENT FOR DOUBLE
   125                                  01080   ARG:    BLOCK   1>              ; PRECISION]
   126                                  01100   FBUFFR: BLOCK   ^D13            ;BUFFER FOR FOUT
   127                                  01120   IFE     LENGTH-2,<BLOCK ^D<35-13>>
   128


-- PAGE 202 --------------------------------------------------------------


MATHPK FOR BASIC MCS 8080  GATES/ALLEN/DAVIDOFF MACRO 47(113) 06:09 27-AUG-75 PAGE 1-1
F4      MAC     23-AUG-64 06:08         FLOATING POINT MATH PACKAGE CONFIGUATION

   129
   130                                  01180   THE FLOATING POINT FORMAT IS AS FOLLOWS:
   131
   132                                  01220   THE SIGN IS THE FIRST BIT OF THE MANTISSA
   133                                  01240   THE MANTISSA IS 24 BITS LONG    ;;
   134                                  01260   THE BINARY POINT IS TO THE LEFT OF THE MSB
   135                                  01280   NUMBER = MANTISSA * 2 ^ EXPONENT
   136                                  01300   THE MANTISSA IS POSITIVE, WITH A ONE ASSUMED TO BE WHERE THE SIGN BIT IS
   137                                  01320   THE SIGN OF THE EXPONENT IS THE FIRST BIT OF THE EXPONENT
   138                                  01340   THE EXPONENT IS STORED IN EXCESS 200 I.E. WITH A BIAS OF 200
   139                                  01360   SO, THE EXPONENT IS A SIGNED 8-BIT NUMBER WITH 200 ADDED TO IT
   140                                  01380   AN EXPONENT OF ZERO MEANS THE NUMBER IS ZERO. THE OTHER BYTES ARE IGNORED
   141                                  01400   TO KEEP THE SAME NUMBER IN THE FAC WHILE SHIFTING:
   142                                  01420           TO SHIFT RIGHT, EXP:=EXP+1
   143                                  01440           TO SHIFT LEFT,  EXP:=EXP-1
   144
   145                                  01480   SO, IN MEMORY THE NUMBER LOOKS LIKE THIS:
   146                                  01500           (BITS 17-24 OF THE MANTISSA)
   147                                  01520           (BITS 9-16 OF THE MANTISSA)
   148                                  01540           (THE SIGN IN BIT 7, BITS 2-8 OF THE MANTISSA ARE IN BITS 6-0)
   149                                  01560           (THE EXPONENT AS A SIGNED NUMBER + 200
   150                                  01580   (REMEMBER THAT BIT 1 OF THE MANTISSA IS ALWAYS A ONE)
   151
   152                                  01620   ARITHMETIC ROUTINE CALLING CONVENTIONS:
   153
   154                                  01660   FOR ONE ARGUMENT FUNCTIONS:
   155                                  01680           THE ARGUMENT IS IN THE FAC, THE RESULT IS LEFT IN THE FAC
   156                                  01700   FOR TWO ARGUMENT OPERATIONS:
   157                                  01720           THE FIRST ARGUMENT IS IN B,C,D,E I.E. THE "REGISTERS"
   158                                  01740           THE SECOND ARGUMENT IS IN THE FAC
   159                                  01760           THE RESULT IS LEFT IN THE FAC
   160
   161                                  01800   THE "S" ENTRY POINTS TO THE TWO ARGUMENT OPERATIONS HAVE (HL) POINTING TO
   162                                  01820   THE FIRST ARGUMENT INSTEAD OF THE FIRST ARGUMENT BEING IN THE REGISTERS.
   163                                  01840   MOVRM IS CALLED TO GET THE ARGUMENT IN THE REGISTERS.
   164                                  01860   THE "T" ENTRY POINTS ASSUME THE FIRST ARGUMENT IS ON THE STACK.
   165                                  01880   POPR IS USED TO GET THE ARGUMENT IN THE REGISTERS.
   166                                  01900   NOTE: THE "T" ENTRY POINTS SHOULD ALWAYS BE JUMPED TO AND NEVER CALLED
   167                                  01920   BECAUSE THE RETURN ADDRESS ON THE STACK WILL BE CONFUSED WITH THE NUMBER.
   168
   169                                  01960   ON THE STACK, THE TWO LO'S ARE PUSHED ON FIRST AND THEN THE HO AND SIGN.
   170                                  01980   THIS IS DONE SO IF A NUMBER OF STORED IN MEMORY, IT CAN BE PUSHED ON THE
   171                                  02000   STACK WITH TWO PUSHM'S.  THE LOWER BYTE OF EACH PART IS IN THE LOWER
   172                                  02020   MEMORY ADDRESS SO WHEN THE NUMBER IS POPPED INTO THE REGISTERS, THE HIGHER
   173                                  02040   ORDER BYTE WILL BE IN THE HIGHER ORDER REGISTER OF THE REGISTER PAIR, I.E.
   174                                  02060   THE HIGHER ORDER BYTE WILL BE POPPED INTO B, D OR H.
   175                                  02080   %
   176                                  02100   PAGE


-- PAGE 203 --------------------------------------------------------------


MATHPK FOR BASIC MCS 8080  GATES/ALLEN/DAVIDOFF MACRO 47(113) 06:09 27-AUG-75 PAGE 2
F4      MAC     23-AUG-64 06:08         FLOATING POINT ADDITION AND SUBTRACTION

   177                                  02120   SUBTTL FLOATING POINT ADDITION AND SUBTRACTION
   178                                  02140           ;ENTRY TO FADD WITH POINTER TO ARG IN (HL)
   179  000000' 001000  000041          02160   FADDH:  LXI     H,FHALF         ;ENTRY TO ADD 1/2
   180  000001' 000000  002312'
   181  000002' 000000  000000
   182  000003' 001000  000315          02180   FADDS:  CALL    MOVRM           ;GET ARGUMENT INTO THE REGISTERS
   183  000004' 000000  001243'
   184  000005' 000000  000001'
   185  000006' 001000  000303          02200           JMP     FADD            ;DO THE ADDITION
   186  000007' 000000  000025'
   187  000010' 000000  000004'
   188
   189
   190                                  02320           ;SUBTRACTION    FAC:=ARG-FAC
   191                                  02280   IFN     EXTFNC,<
   192  000011' 001000  000315          02300   FSUBS:  CALL    MOVRM>          ;ENTRY IF POINTER TO ARG IS IN (HL)
   193  000012' 000000  001243'
   194  000013' 000000  000007'
   195                                  02320   IFE     LENGTH-1,<
   196  000014' 001000  000041          02340           XWD     1000,041>       ;"LXI   H" AROUND NEXT 2 BYTES
   197                                  02360   IFN     LENGTH-2,<
   198  000015' 001000  000301          02380   FSUBT:  POPR>                   ;ENTRY IF ARGUMENT IS ON THE STACK
   199  000016' 001000  000321
   200  000017' 001000  000315          02400   FSUB:   CALL    NEG             ;NEGATE SECOND ARGUMENT
   201  000020' 000000  001175'
   202  000021' 000000  000012'
   203                                  02420                                   ;FALL INTO FADD
   204
   205
   206                                  02480           ;ADDITION       FAC:=ARG+FAC
   207                                  02500           ;ALTERS A,B,C,D,E,H,L
   208                                  02520   IFN     LENGTH-2,<
   209  000022' 001000  000041          02540           XWD     1000,041        ;"LXI   H" AROUND NEXT 2 BYTES
   210  000023' 001000  000301          02560   FADDT:  POPR>                   ;ENTRY IF ARGUMENT IS ON THE STACK
   211  000024' 001000  000321
   212  000025' 001000  000170          02580   FADD:   MOV     A,B             ;CHECK IF FIRST ARGUMENT IS ZERO
   213  000026' 001000  000267          02600           ORA     A               ;GET EXPONENT
   214  000027' 001000  000310          02620           RZ                      ;IT IS, RESULT IS NUMBER IN FAC
   215  000030' 001000  000072          02640           LDA     FAC             ;GET EXPONENT
   216  000031' 000000  000000*
   217  000032' 000000  000020'
   218  000033' 001000  000267          02660           ORA     A               ;SEE IF THE NUMBER IS ZERO
   219  000034' 001000  000312          02680           JZ      MOVFR           ;IT IS, ANSWER IS IN REGISTERS
   220  000035' 000000  001225'
   221  000036' 000000  000031'
   222
   223                                  02720   ;WE WANT TO GET THE SMALLER NUMBER IN THE REGISTERS SO WE CAN SHIFT IT RIGHT
   224                                  02740   ;AND ALIGN THE BINARY POINTS OF THE TWO NUMBERS.  THEN WE CAN JUST ADD OR
   225                                  02760   ;SUBTRACT THEM (DEPENDING ON THEIR SIGNS) BYTEWISE.
   226  000037' 001000  000220          02780           SUB     B               ;CHECK RELATIVE SIZES
   227  000040' 001000  000322          02800           JNC     FADD1           ;IS FAC SMALLER?
   228  000041' 000000  000057'
   229  000042' 000000  000035'


-- PAGE 204 --------------------------------------------------------------


MATHPK FOR BASIC MCS 8080  GATES/ALLEN/DAVIDOFF MACRO 47(113) 06:09 27-AUG-75 PAGE 2-1
F4      MAC     23-AUG-64 06:08         FLOATING POINT ADDITION AND SUBTRACTION

   230  000043' 001000  000057          02820           CMA                     ;YES, NEGATE SHIFT COUNT
   231  000044' 001000  000074          02840           INR     A
   232  000045' 001000  000353          02860           XCHG                    ;SWITCH FAC AND REIGSTERS, SAVE (DE)
   233  000046' 001000  000315          02880           CALL    PUSHF           ;PUT FAC ON STACK
   234  000047' 000000  001205'
   235  000050' 000000  000041'
   236  000051' 001000  000353          02900           XCHG                    ;GET (DE) BACK WHERE IT BELONDS
   237  000052' 001000  000315          02920           CALL    MOVFR           ;PUT REGISTERS IN THE FAC
   238  000053' 000000  001225'
   239  000054' 000000  000047'
   240  000055' 001000  000301          02940           POPR                    ;GET THE OLD FAC IN THE REGISTERS
   241  000056' 001000  000321
   242  000057'                         02960   FADD1:
   243                                  02980   IFN     LENGTH,<
   244  000057' 001000  000376          03060           CPI     31              ;ARE WE WITHIN 24 BITS?
   245  000060' 000000  000031
   246  000061' 001000  000320          03080           RNC>                    ;NO, ALL DONE
   247  000062' 001000  000365          03100           PUSH    PSW             ;SAVE SHIFT COUNT
   248  000063' 001000  000315          03120           CALL    UNPACK          ;UNPACK THE NUMBERS
   249  000064' 000000  001272'
   250  000065' 000000  000053'
   251  000066' 001000  000147          03080           MOV     H,A             ;SAVE SUBTRACTION FLAG
   252  000067' 001000  000361          03100           POP     PSW             ;GET SHIFT COUNT BACK
   253  000070' 001000  000315          03120           CALL    SHIFTR          ;SHIFT REGISTERS RIGHT THE RIGHT AMOUNT
   254  000071' 000000  000334'
   255  000072' 000000  000064'
   256
   257                                  03160   ;IF THE NUMBERS HAVE THE SAME SIGN, THEN WE ADD THEM.  IF THE SIGNS ARE
   258                                  03180   ;DIFFERENT, THEN WE AHVE TO SUBTRACT THEM.  WE HAVE TO DO THIS BECAUSE THE
   259                                  03200   ;MANTISSAS ARE POSITIVE.  JUDGING BY THE EXPONENTS, THE LARGER NUMBER IS IN
   260                                  03220   ;THE FAC, SO IF WE SUBTRACT, THE SIGN OF THE RESULT SHOULD BE THE SIGN OF THE
   261                                  03240   ;FAC; HOWEVER, IF THE EXPONENTS ARE THE SAME, THE NUMBER IN THE REGISTERS
   262                                  03260   ;COULD BE BIGGER, SO AFTER WE SUBTRACT THEM, WE HAVE TO CHECK IF THE RESULT
   263                                  03280   ;WAS NEGATIVE.  IF IT WAS, WE NEGATE THE NUMBER IN THE REGISTERS AND
   264                                  03300   ;COMPLEMENT THE SIGN OF THE FAC.  (HERE THE FAC IS UNPACKED)
   265                                  03320   ;IF WE HAVE TO ADD THE NUMBERS, THE SIGN OF THE RESULT IS THE SIGN OF THE
   266                                  03340   ;FAC.  SO, IN EITHER CASE, WHEN WE ARE ALL DONE, THE SIGN OF THE RESULT
   267                                  03360   ;WILL BE THE SIGN OF THE FAC.
   268  000073' 001000  000264          03380           ORA     H               ;GET SUBTRACTION FLAG
   269  000074' 001000  000041          03400           LXI     H,FACLO         ;SET POINTER TO LO'S
   270  000075' 000000  000000*
   271  000076' 000000  000071'
   272  000077' 001000  000362          03420           JP      FADD3           ;SUBTRACT IF THE SIGNS WERE DIFFERENT
   273  000100' 000000  000125'
   274  000101' 000000  000075'
   275  000102' 001000  000315          03440           CALL    FADDA           ;ADD THE NUMBERS
   276  000103' 000000  000274'
   277  000104' 000000  000100'
   278  000105' 001000  000322          03460           JNC     ROUND           ;ROUND RESULT IF THERE WAS NO OVERFLOW
   279  000106' 000000  000233'
   280  000107' 000000  000103'
   281                                  03480                                   ;THE MOST IT CAN OVERFLOW IS ONE BIT
   282  000110' 001000  000043          03500           INX     H               ;THERE WAS OVERFLOW


-- PAGE 205 --------------------------------------------------------------


MATHPK FOR BASIC MCS 8080  GATES/ALLEN/DAVIDOFF MACRO 47(113) 06:09 27-AUG-75 PAGE 2-2
F4      MAC     23-AUG-64 06:08         FLOATING POINT ADDITION AND SUBTRACTION

   283  000111' 001000  000064          03520           INR     M               ;INCREMENT EXPONENT
   284  000112' 001000  000312          03540           JZ      OVERR           ;CHECK FOR OVERFLOW
   285  000113' 000000  000267'
   286  000114' 000000  000106'
   287                                  03560   IFE     LENGTH,<
   288                                  03580           CALL    SHFTRO>         ;SHIFT RESULT RIGHT ONE, SHIFT CARRY IN
   289                                  03600   IFN     LENGTH,<
   290  000115' 001000  000056          03620           MVI     L,1             ;SHIFT RESULT RIGHT ONE, SHIFT CARRY IN
   291  000116' 000000  000001
   292  000117' 001000  000315          03640           CALL    SHRADD>
   293  000120' 000000  000362'
   294  000121' 000000  000113'
   295  000122' 001000  000303          03660           JMP     ROUND           ;ROUND RESULT AND WE ARE DONE
   296  000123' 000000  000233'
   297  000124' 000000  000120'
   298                                  03680           ;HERE TO SUBTRACT C,D,E,B FROM ((HL)+0,1,2),0
   299  000125' 001000  000257          03700   FADD3:  XRA     A               ;SBUBTRACT NUBMERS, NEGATE UNDERFLOW BYTE
   300  000126' 001000  000220          03720           SUB     B
   301  000127' 001000  000107          03740           MOV     B,A             ;SAVE IT
   302  000130' 001000  000176          03760           MOV     A,M             ;SUBTRACT LOW ORDERS
   303  000131' 001000  000233          03780           SBB     E
   304  000132' 001000  000137          03800           MOV     E,A
   305  000133' 001000  000043          03820           INX     H               ;UPDATE POINTER TO NEXT BYTE
   306  000134' 001000  000176          03840           MOV     A,M             ;SUBTRACT MIDDLE ORDERS
   307  000135' 001000  000232          03860           SBB     D
   308  000136' 001000  000127          03880           MOV     D,A
   309  000137' 001000  000043          03900           INX     H               ;UPDATE POINTER TO HIGH ORDERS
   310  000140' 001000  000176          03920           MOV     A,M             ;SUBTRACT HIGH ORDERS
   311  000141' 001000  000231          03940           SBB     C
   312  000142' 001000  000117          03960           MOV     C,A
   313                                  03980           ;BECAUSE WE WANT A POSITIVE MANTISSA, CHECK IF WE HAVE TO NEGATE THE
   314                                  04000           ; NUMBER
   315  000143' 001000  000334          04020   FADFLT: CC      NEGR            ;ENTRY FROM FLOATR, INT: NEGATE NUMBER IF IT
   316  000144' 000000  000310'
   317  000145' 000000  000123'
   318                                  04040                                   ; WAS NEGATIVE, FALL INTO NORMALIZE
   319
   320
   321                                  04100           ;NORMALIZE C,D,E,B
   322                                  04120           ;ALTERS A,B,C,D,E,M,L
   323                                  04140           ;HERE WE SHIFT THE MANTISSA LEFT UNTIL THE MSB IS A ONE.
   324                                  04160           ;EXCEPT IN 4K, THE IDEA IS TO SHIFT LEFT BY 8 AS MANY TIMES AS
   325                                  04180           ;POSSIBLE.
   326  000146'                         04200   NORMAL:
   327                                  04220   IFE     LENGTH,<
   328                                  04240           MVI     H,0             ;CLEAR SHIFT COUNT
   329                                  04260           MOV     A,C             ;IS THE NUMBER NORMALIZED?
   330                                  04280           ORA     A
   331                                  04300           JM      ROUND           ;YES, WE ARE DONE
   332                                  04320   NORM2:  CPI     340             ;IS THE RESULT ZERO?
   333                                  04340           JZ      ZERO            ;YES, ZERO THE FAC
   334                                  04360           DCR     H               ;NO, DECREMENT SHIFT COUNT
   335                                  04380           MOV     A,B             ;SHIFT THE LO LEFT


-- PAGE 206 --------------------------------------------------------------


MATHPK FOR BASIC MCS 8080  GATES/ALLEN/DAVIDOFF MACRO 47(113) 06:09 27-AUG-75 PAGE 2-3
F4      MAC     23-AUG-64 06:08         FLOATING POINT ADDITION AND SUBTRACTION

   336                                  04400           ADD     A               ;SHIFT IN A ZERO
   337                                  04420           MOV     B,A
   338                                  04440           CALL    SHFTLO          ;SHIFT THE REST OF THE NUMBER LEFT ONE
   339                                  04460           MOV     A,H             ;GET THE SHIFT COUNT
   340                                  04480           JP      NORM2>          ;CONTINUE IF NUMBER IS NOT NORMALIZED
   341                                  04500   IFN     LENGTH,<
   342  000146' 001000  000150          04520           MOV     L,B             ;PUT LOWEST 2 BYTES IN (HL)
   343  000147' 001000  000143          04540           MOV     H,E
   344  000150' 001000  000257          04560           XRA     A               ;ZERO SHIFT COUNT
   345  000151' 001000  000107          04580   NORM1:  MOV     B,A             ;SAVE SHIFT COUNT
   346  000152' 001000  000171          04600           MOV     A,C             ;DO WE HAVE 1 BYTE OF ZEROS
   347  000153' 001000  000267          04620           ORA     A
   348  000154' 001000  000302          04640           JNZ     NORM3           ;NO, SHIFT ONE PLACE AT A TIME
   349  000155' 000000  000210'
   350  000156' 000000  000144'
   351                                  04660           ;THIS LOOP SPEEDS THINGS UP BY SHIFTING 8 PLACES AT ONE TIME
   352  000157' 001000  000112          04680           MOV     C,D             ;YES, SHIFT OVER 1 BYTE
   353  000160' 001000  000124          04700           MOV     D,H
   354  000161' 001000  000145          04720           MOV     H,L
   355  000162' 001000  000157          04740           MOV     L,A             ;SHIFT IN 8 ZEROS FOR THE LOW ORDER
   356  000163' 001000  000170          04760           MOV     A,B             ;UPDATE SHIFT COUNT
   357  000164' 001000  000326          04780           SUI     10
   358  000165' 000000  000010
   359  000166' 001000  000376          04800           CPI     340             ;DID WE SHIFT IN 4 BYTES OF ZEROS?
   360  000167' 000000  000340
   361  000170' 001000  000302          04820           JNZ     NORM1           ;NO, TRY TO SHIFT OVER 8 MORE
   362  000171' 000000  000151'
   363  000172' 000000  000155'
   364                                  04840                                   ;YES, NUMBER WAS ZERO.  FALL INTO ZERO
   365
   366
   367                                  04900           ;ZERO FAC
   368                                  04920           ;ALTERS A ONLY
   369                                  04940           ;EXITS WITH A=0
   370                                  04960           ;BY OUR FLOATING POINT FORMAT, THE NUMBER IS ZERO IF THE EXPONENT IS
   371                                  04980           ; ZERO
   372  000173' 001000  000257          05000   ZERO:   XRA     A               ;ZERO A
   373  000174' 001000  000062          05020   ZERO0:  STA     FAC             ;ZERO THE FAC'S EXPONENT, ENTRY IF A=0
   374  000175' 000000  000031*
   375  000176' 000000  000171'
   376  000177' 001000  000311          05040           RET                     ;ALL DONE
   377
   378
   379  000200' 001000  000005          05100   NORM2:  DCR     B               ;DECREMENT SHIFT COUNT
   380  000201' 001000  000051          05120           DAD     H               ;ROTATE (HL) LEFT ONE, SHIFT IN A ZERO
   381  000202' 001000  000172          05140           MOV     A,D             ;ROTATE NEXT HIGHER ORDER LEFT ONE
   382  000203' 001000  000027          05160           RAL
   383  000204' 001000  000127          05180           MOV     D,A
   384  000205' 001000  000171          05200           MOV     A,C             ;ROTATE HIGH ORDER LEFT ONE
   385  000206' 001000  000217          05220           ADC     A               ;SET CONDITION CODES
   386  000207' 001000  000117          05240           MOV     C,A
   387  000210' 001000  000362          05260   NORM3:  JP      NORM2           ;WE HAVE MORE NORMALIZATION TO DO
   388  000211' 000000  000200'


-- PAGE 207 --------------------------------------------------------------


MATHPK FOR BASIC MCS 8080  GATES/ALLEN/DAVIDOFF MACRO 47(113) 06:09 27-AUG-75 PAGE 2-4
F4      MAC     23-AUG-64 06:08         FLOATING POINT ADDITION AND SUBTRACTION

   389  000212' 000000  000175'
   390  000213' 001000  000170          05280           MOV     A,B             ;ALL NORMALIZED, GET SHIFT COUNT
   391  000214' 001000  000134          05300           MOV     E,H             ;PUT LO'S BACK IN E,B
   392  000215' 001000  000105          05320           MOV     B,L
   393  000216' 001000  000267          05340           ORA     A               ;CHECK IF WE DID NO SHIFTING
   394  000217' 001000  000312          05360           JZ      ROUND>
   395  000220' 000000  000233'
   396  000221' 000000  000211'
   397  000222' 001000  000041          05380           LXI     H,FAC           ;LOOK AT FAC'S EXPONENT
   398  000223' 000000  000175*
   399  000224' 000000  000220'
   400  000225' 001000  000206          05400           ADD     M               ;UPDATE EXPONENT
   401  000226' 001000  000167          05420           MOV     M,A
   402  000227' 001000  000322          05440           JNC     ZERO            ;CHECK FOR UNDERFLOW
   403  000230' 000000  000173'
   404  000231' 000000  000223'
   405  000232' 001000  000310          05460           RZ                      ;NUMBER IS ZERO, ALL DONE
   406                                  05480                                   ;FALL INTO ROUND AND WE ARE DONE
   407
   408
   409                                  05540           ;ROUND RESULT IN C,D,E,B AND PUT NUMBER IN THE FAC
   410                                  05560           ;ALTERS A,B,C,D,E,H,L
   411                                  05580           ;WE ROUND C,D,E UP OR DOWN DEPENDING UPON THE MSB OF B
   412  000233' 001000  000170          05600   ROUND:  MOV     A,B             ;SEE IF WE SHOULD ROUND UP
   413  000234' 001000  000041          05620   ROUNDB: LXI     H,FAC           ;ENTRY FROM FDIV, GET POINTER TO EXPONENT
   414  000235' 000000  000223*
   415  000236' 000000  000230'
   416  000237' 001000  000267          05640           ORA     A
   417  000240' 001000  000374          05660           CM      ROUNDA          ;DO IT IF NECESSARY
   418  000241' 000000  000255'
   419  000242' 000000  000235'
   420  000243' 001000  000106          05680           MOV     B,M             ;PUT EXPONENT IN B
   421                                  05700           ;HERE WE PACK THE HO AND SIGN
   422  000244' 001000  000043          05720           INX     H               ;POINT TO SIGN
   423  000245' 001000  000176          05740           MOV     A,M             ;GET SIGN
   424  000246' 001000  000346          05760           ANI     200             ;GET RID OF UNWANTED BITS
   425  000247' 000000  000200
   426  000250' 001000  000251          05780           XRA     C               ;PACK SIGN AND HO
   427  000251' 001000  000117          05800           MOV     C,A             ;SAVE IT IN C
   428  000252' 001000  000303          05820           JMP     MOVFR           ;SAVE NUMBER IN FAC
   429  000253' 000000  001225'
   430  000254' 000000  000241'
   431
   432
   433                                  05880   IFE     LENGTH,<
   434                                  05900           ;SHIFT C,D,E LEFT ONE
   435                                  05920           ;THIS IS USED BY NORMAL, FDIV
   436                                  05940           ;ALTERS A,C,D,E
   437                                  05960   SHFTLO: MOV     A,E             ;GET THE LO
   438                                  05980           RAL                     ;SHIFT IT
   439                                  06000           MOV     E,A             ;SAVE IT
   440                                  06020           MOV     A,D             ;SHIFT THE NEXT HIGHER ORDER
   441                                  06040           RAL


-- PAGE 208 --------------------------------------------------------------


MATHPK FOR BASIC MCS 8080  GATES/ALLEN/DAVIDOFF MACRO 47(113) 06:09 27-AUG-75 PAGE 2-5
F4      MAC     23-AUG-64 06:08         FLOATING POINT ADDITION AND SUBTRACTION

   442                                  06060           MOV     D,A
   443                                  06080           MOV     A,C             ;SHIFT THE HIGHEST ORDER
   444                                  06100           ADC     A               ;ROTATE A LEFT AND SET CONDITION CODES
   445                                  06120           MOV     C,A
   446                                  06140           RET>                    ;ALL DONE
   447
   448
   449                                  06200           ;SUBROUTINE FOR ROUND:  ADD ONE TO C,D,E
   450  000255' 001000  000034          06220   ROUNDA: INR     E               ;ADD ONE TO THE LOW ORDER, ENTRY FROM QINT
   451  000256' 001000  000300          06240           RNZ                     ;ALL DONE IF IT IS NOT ZERO
   452  000257' 001000  000024          06260           INR     D               ;ADD ONE TO NEXT HIGHER ORDER
   453  000260' 001000  000300          06280           RNZ                     ;ALL DONE IF NO OVERFLOW
   454  000261' 001000  000014          06300           INR     C               ;ADD ONE TO THE HIGHEST ORDER
   455  000262' 001000  000300          06320           RNZ                     ;RETURN IF NO OVERFLOW
   456  000263' 001000  000016          06340           MVI     C,200           ;THE NUMBER OVERFLOWED, SET NEW HIGH ORDER
   457  000264' 000000  000200
   458  000265' 001000  000064          06360           INR     M               ;UPDATE EXPONENT
   459  000266' 001000  000300          06380           RNZ                     ;RETURN IF IT DID NOT OVERFLOW
   460                                  06400                                   ;IT DID, FALL INTO OVERR
   461
   462                                  06440           ;OVERFLOW ERROR
   463  000267' 001000  000036          06460   OVERR:  MVI     E,ERROV         ;SET OVERFLOW ERROR CODE
   464  000270' 000000  000000*
   465  000271' 001000  000303          06480           JMP     ERROR           ;GO TO IT!!
   466  000272' 000000  000000*
   467  000273' 000000  000253'
   468
   469
   470                                  06540           ;ADD (HL)+2,1,0 TO C,D,E
   471                                  06560           ;THIS CODE IS USED BY FADD, FOUT
   472  000274' 001000  000176          06580   FADDA:  MOV     A,M             ;GET LOWEST ORDER
   473  000275' 001000  000203          06600           ADD     E               ;ADD IN OTHER LOWEST ORDER
   474  000276' 001000  000137          06620           MOV     E,A             ;SAVE IT
   475  000277' 001000  000043          06640           INX     H               ;UPDATE POINTER TO NEXT BYTE
   476  000300' 001000  000176          06660           MOV     A,M             ;ADD MIDDLE ORDERS
   477  000301' 001000  000212          06680           ADC     D
   478  000302' 001000  000127          06700           MOV     D,A
   479  000303' 001000  000043          06720           INX     H               ;UPDATE POINTER TO HIGH ORDER
   480  000304' 001000  000176          06740           MOV     A,M             ;ADD HIGH ORDERS
   481  000305' 001000  000211          06760           ADC     C
   482  000306' 001000  000117          06780           MOV     C,A
   483  000307' 001000  000311          06800           RET                     ;ALL DONE
   484
   485
   486                                  06860           ;NEGATE NUMBER IN C,D,E,B
   487                                  06880           ;THIS CODE IS USED BY FADD, QINT
   488                                  06900           ;ALTERS A,B,C,D,E,L
   489  000310' 001000  000041          06920   NEGR:   LXI     H,FAC+1         ;NEGATE FAC
   490  000311' 000000  000001*
   491  000312' 000000  000272'
   492  000313' 001000  000176          06940           MOV     A,M             ;GET SIGN
   493  000314' 001000  000057          06960           CMA                     ;COMPLEMENT IT
   494  000315' 001000  000167          06980           MOV     M,A             ;SAVE IT AGAIN


-- PAGE 209 --------------------------------------------------------------


MATHPK FOR BASIC MCS 8080  GATES/ALLEN/DAVIDOFF MACRO 47(113) 06:09 27-AUG-75 PAGE 2-6
F4      MAC     23-AUG-64 06:08         FLOATING POINT ADDITION AND SUBTRACTION

   495  000316' 001000  000257          07000           XRA     A               ;ZERO A
   496  000317' 001000  000157          07020           MOV     L,A             ;SAVE ZERO IN L
   497  000320' 001000  000220          07040           SUB     B               ;NEGATE LOWEST ORDER
   498  000321' 001000  000107          07060           MOV     B,A             ;SAVE IT
   499  000322' 001000  000175          07080           MOV     A,L             ;GET A ZERO
   500  000323' 001000  000233          07100           SBB     E               ;NEGATE NEXT HIGHEST ORDER
   501  000324' 001000  000137          07120           MOV     E,A             ;SAVE IT
   502  000325' 001000  000175          07140           MOV     A,L             ;GET A ZERO
   503  000326' 001000  000232          07160           SBB     D               ;NEGATE NEXT HIGHEST ORDER
   504  000327' 001000  000127          07180           MOV     D,A             ;SAVE IT
   505  000330' 001000  000175          07200           MOV     A,L             ;GET ZERO BACK
   506  000331' 001000  000231          07220           SBB     C               ;NEGATE HIGHEST ORDER
   507  000332' 001000  000117          07240           MOV     C,A             ;SAVE IT
   508  000333' 001000  000311          07260           RET                     ;ALL DONE
   509
   510
   511                                  07320           ;SHIFT C,D,E RIGHT
   512                                  07340           ;A = SHIFT COUNT
   513                                  07360           ;ALTERS A,B,C,D,E,L
   514                                  07380           ;THE IDEA (EXCEPT IN 4K) IS TO SHIFT RIGHT 8 PLACES
   515                                  07400           ; POSSIBLE
   516  000334' 001000  000006          07420   SHIFTR: MVI     B,0             ;ZERO OVERFLOW BYTE
   517  000335' 000000  000000
   518                                  07440   IFE     LENGTH,<
   519                                  07460           INR     A>              ;ADD ONE TO SHIFT COUNT
   520                                  07580   IFN     LENGTH,<
   521  000336' 001000  000326          07500   SHFTR1: SUI     10              ;CAN WE SHIFT IT 8 RIGHT?
   522  000337' 000000  000010
   523  000340' 001000  000332          07520           JC      SHFTR2          ;NO, SHIFT IT ONE PLACE AT A TIME
   524  000341' 000000  000353'
   525  000342' 000000  000311'
   526                                  07540           ;THIS LOOP SPEEDS THINGS UP BY SHIFTING 8 PLACES AT ONE TIME
   527  000343' 001000  000103          07560           MOV     B,E             ;SHIFT NUMBER 1 BYTE RIGHT
   528  000344' 001000  000132          07580           MOV     E,D
   529  000345' 001000  000121          07600           MOV     D,C
   530  000346' 001000  000016          07620           MVI     C,0             ;PUT 0 IN HO
   531  000347' 000000  000000
   532  000350' 001000  000303          07640           JMP     SHFTR1          ;TRY TO SHIFT 8 RIGHT AGAIN
   533  000351' 000000  000336'
   534  000352' 000000  000341'
   535  000353' 001000  000306          07660   SHFTR2: ADI     11>             ;CORRECT SHIFT COUNT
   536  000354' 000000  000011
   537  000355' 001000  000157          07680           MOV     L,A             ;SAVE SHIFT COUNT
   538  000356' 001000  000257          07700   SHFTR3: XRA     A               ;CLEAR CARRY
   539  000357' 001000  000055          07720           DCR     L               ;ARE WE DONE SHIFTING?
   540  000360' 001000  000310          07740           RZ                      ;RETURN IF WE ARE
   541                                  07760   IFE     LENGTH,<
   542                                  07780   SHRADD: CALL    SHFTRO>         ;SHIFT THE NUMBER RIGHT ONE
   543                                  07800   IFN     LENGTH,<
   544  000361' 001000  000171          07820           MOV     A,C             ;GET HO
   545  000362' 001000  000037          07840   SHRADD: RAR                     ;ENTRY FROM FADD, SHIFT IT RIGHT
   546  000363' 001000  000117          07860           MOV     C,A             ;SAVE IT
   547  000364' 001000  000172          07880           MOV     A,D             ;SHIFT NEXT BYTE RIGHT


-- PAGE 210 --------------------------------------------------------------


MATHPK FOR BASIC MCS 8080  GATES/ALLEN/DAVIDOFF MACRO 47(113) 06:09 27-AUG-75 PAGE 2-7
F4      MAC     23-AUG-64 06:08         FLOATING POINT ADDITION AND SUBTRACTION

   548  000365' 001000  000037          07900           RAR
   549  000366' 001000  000127          07920           MOV     D,A
   550  000367' 001000  000173          07940           MOV     A,E             ;SHIFT LOW ORDER RIGHT
   551  000370' 001000  000037          07960           RAR
   552  000371' 001000  000137          07980           MOV     E,A
   553  000372' 001000  000170          08000           MOV     A,B             ;SHIFT OVERFLOW BYTE RIGHT
   554  000373' 001000  000037          08020           RAR
   555  000374' 001000  000107          08040           MOV     B,A>
   556  000375' 001000  000303          08060           JMP     SHFTR3          ;SEE IF WE ARE DONE
   557  000376' 000000  000356'
   558  000377' 000000  000351'
   559
   560
   561                                  08120   IFE     LENGTH,<
   562                                  08140           ;SHIFT C,D,E,B RIGHT ONE
   563                                  08160           ;THIS IS USED BY SHIFTR, FMULT, FADD
   564                                  08180           ;ALTERS A,B,C,D,E
   565                                  08200   SHFTRO: MOV     A,C             ;GET THE HO
   566                                  08220   SHFROA: RAR                     ;SHIFT IS RIGHT, ENTRY FROM FMULT
   567                                  08240           MOV     C,A
   568                                  08260           MOV     A,D             ;SHIFT THE MO RIGHT
   569                                  08280           RAR
   570                                  08300           MOV     D,A
   571                                  08320           MOV     A,E             ;SHIFT THE LO
   572                                  08340           RAR
   573                                  08360           MOV     E,A
   574                                  08380           MOV     A,B             ;SHIFT THE EXTRA LO BYTE
   575                                  08400           RAR
   576                                  08420           MOV     B,A
   577                                  08440           RET>                    ;ALL DONE
   578                                  08460   PAGE


-- PAGE 211 --------------------------------------------------------------


MATHPK FOR BASIC MCS 8080  GATES/ALLEN/DAVIDOFF MACRO 47(113) 06:09 27-AUG-75 PAGE 3
F4      MAC     23-AUG-64 06:08         NATURAL LOG FUNCTION

   579                                  08480   SUBTTL  NATURAL LOG FUNCTION
   580                                  08500   IFN     EXTFNC,<
   581                                  08520           ;CALCULATION IS BY:
   582                                  08540           ; LN(F*2^N)=(N+LOG2(F))*LN(2)
   583                                  08560           ;AN APPROXIMATION POLYNOMIAL IS USED TO CALCULATE LOG2(F)
   584
   585                                  08600           ;CONSTANTS USED BY LOG
   586  000400' 000000  000000          08620   FONE:   000     ; 1
   587  000401' 000000  000000          08640           000
   588  000402' 000000  000000          08660           000
   589  000403' 000000  000201          08680           201
   590  000404' 000000  000003          08700   LOGCN2: 3       ;DEGREE+1
   591  000405' 000000  000252          08720           252     ; 0.598978650
   592  000406' 000000  000126          08740           126
   593  000407' 000000  000031          08760           031
   594  000410' 000000  000200          08780           200
   595  000411' 000000  000361          08800           361     ; 0.961470632
   596  000412' 000000  000042          08820           042
   597  000413' 000000  000166          08840           166
   598  000414' 000000  000200          08860           200
   599  000415' 000000  000105          08880           105     ; 2.88539129
   600  000416' 000000  000252          08900           252     ; NOTE: THE REFERENCE FOR THIS CONSTANT HAS 100 NOT 105
   601  000417' 000000  000070          08920           070     ; IN THE LOW ORDER BYTE.
   602  000420' 000000  000202          08940           202
   603
   604  000421' 001000  000357          08980   LOG:    FSIGN                   ;CHECK FOR A NEGATIVE OR ZERO ARGUMENT
   605  000422' 001000  000253          09000           JPE     FCERR           ;FAC .LE. 0, BLOW HIM OUT OF THE WATER
   606  000423' 000000  000000*
   607  000424' 000000  000376'
   608                                  09020                                   ;FSIGN ONLY RETURNS 0,1 OR 377 IN A
   609                                  09040                                   ;THE PARITY WILL BE EVEN IF A HAS 0 OR 377
   610  000425' 001000  000041          09060           LXI     H,FAC           ;GET POINTER TO EXPONENT
   611  000426' 000000  000235*
   612  000427' 000000  000423'
   613  000430' 001000  000176          09080           MOV     A,M             ;GET EXPONENT IN A
   614  000431' 001000  000001          09100           MOVRI   200,065,004,363 ;GET SQR(.5)
   615  000432' 000000  000065
   616  000433' 000000  000200
   617  000434' 001000  000021
   618  000435' 000000  000363
   619  000436' 000000  000004
   620  000437' 001000  000220          09120           SUB     B               ;REMOVE EXCESS 200
   621  000440' 001000  000365          09140           PUSH    PSW             ;SAVE EXPONENT FOR LATER
   622  000441' 001000  000160          09160           MOV     M,B             ;SET EXP TO 200, RESULT IS NUM IN (.5,1)
   623  000442' 001000  000325          09180           PUSHR                   ;SAVE SQR(.5)
   624  000443' 001000  000305
   625  000444' 001000  000315          09200           CALL    FADD            ;CALCULATE (F-SQR(.0))/(F+SQR(.5))
   626  000445' 000000  000025'
   627  000446' 000000  000426'
   628  000447' 001000  000301          09220           POPR                    ;GET SQR(.5) BACK
   629  000450' 001000  000321
   630  000451' 001000  000004          09240           INR     B               ;GET SQR(2)
   631  000452' 001000  000315          09260           CALL    FDIV            ;WHERE F=NUMBER LEFT IN FAC


-- PAGE 212 --------------------------------------------------------------


MATHPK FOR BASIC MCS 8080  GATES/ALLEN/DAVIDOFF MACRO 47(113) 06:09 27-AUG-75 PAGE 3-1
F4      MAC     23-AUG-64 06:08         NATURAL LOG FUNCTION

   632  000453' 000000  000655'
   633  000454' 000000  000445'
   634  000455' 001000  000041          09280           LXI     H,FONE          ;THE CALCULATION IS EQUIVALENT TO THE ABOVE
   635  000456' 000000  000400'
   636  000457' 000000  000453'
   637  000460' 001000  000315          09300           CALL    FSUBS           ; BUT DONE IN A DIFFERENT ORDER
   638  000461' 000000  000011'
   639  000462' 000000  000456'
   640  000463' 001000  000041          09320           LXI     H,LOGCN2        ;EVALUATE APPROXIMATION POLYNOMIAL
   641  000464' 000000  000404'
   642  000465' 000000  000461'
   643  000466' 001000  000315          09340           CALL    POLYX
   644  000467' 000000  002613'
   645  000470' 000000  000464'
   646  000471' 001000  000001          09360           MOVRI   200,200,000,000 ;GET -1/2
   647  000472' 000000  000200
   648  000473' 000000  000200
   649  000474' 001000  000021
   650  000475' 000000  000000
   651  000476' 000000  000000
   652  000477' 001000  000315          09380           CALL    FADD            ;ADD IN LAST CONSTANT
   653  000500' 000000  000025'
   654  000501' 000000  000467'
   655  000502' 001000  000361          09400           POP     PSW             ;RETRIEVE ORIGINAL EXPONENT
   656  000503' 001000  000315          09420           CALL    FINLOG          ;ADD IT TO ORIGINAL NUMBER
   657  000504' 000000  001731'
   658  000505' 000000  000500'
   659  000506' 001000  000001          09440   MULLN2: MOVRI   200,061,162,030>CMT
   660  000507' 000000  000061
   661  000510' 000000  000200
   662  000511' 001000  000021
   663  000512' 000000  000030
   664  000513' 000000  000162
   665                                  09460   ;       JMP     FMULT           ;MULTIPLY BY LN(2)
   666                                  09480   PAGE


-- PAGE 213 --------------------------------------------------------------


MATHPK FOR BASIC MCS 8080  GATES/ALLEN/DAVIDOFF MACRO 47(113) 06:09 27-AUG-75 PAGE 4
F4      MAC     23-AUG-64 06:08         FLOATING MULTIPLICATION AND DIVISION

   667                                  09500   SUBTTL  FLOATING MULTIPLICATION AND DIVISION
   668                                  09520           ;MULTIPLICATION         FAC:=ARC*FAC
   669                                  09540           ;ALTERS A,B,C,D,E,H,L
   670                                  09560   IFE     EXTFNC,<
   671                                  09580   FMULTS: CALL    MOVRM>          ;ENTRY WITH POINTER TO ARG IN (HL)
   672                                  09600   IFN     LENGTH-2,<
   673  000514' 001000  000041          09620           XWD     1000,041        ;"LXI   H" AROUND NEXT 2 BYTES
   674  000515' 001000  000301          09640   FMULTT: POPR>                   ;ENTRY IF ARGUMENT IS ON THE STACK
   675  000516' 001000  000321
   676  000517' 001000  000357          09660   FMULT:  FSIGN                   ;CHECK IF FAC IS ZERO
   677  000520' 001000  000310          09680           RZ                      ;IF IT IS, RESULT IS ZERO
   678  000521' 001000  000056          09700           MVI     L,0             ;ADD THE TWO EXPONENTS, L IS A FLAG
   679  000522' 000000  000000
   680  000523' 001000  000315          09720           CALL    MULDIV          ;FIX UP THE EXPONENTS
   681  000524' 000000  001035'
   682  000525' 000000  000504'
   683                                  09740           ;SAVE THE NUMBER IN THE REGISTERS SO WE CAN ADD IT FAST
   684  000526' 001000  000171          09760           MOV     A,C             ;GET HO
   685  000527' 001000  000062          09780           STA     FMULTA+1        ;STORE HO OF REGISTERS
   686  000530' 000000  000606'
   687  000531' 000000  000524'
   688  000532' 001000  000353          09800           XCHG                    ;STORE THE TWO LO'S OF THE REGISTERS
   689  000533' 001000  000042          09820           SHLD    FMULTB+1
   690  000534' 000000  000601'
   691  000535' 000000  000530'
   692  000536' 001000  000001          09840           LXI     B,$CODE         ;ZERO THE PRODUCT REGISTERS
   693  000537' 000000  000000*
   694  000540' 000000  000534'
   695  000541' 001000  000120          09860           MOV     D,B
   696  000542' 001000  000130          09880           MOV     E,B
   697  000543' 001000  000041          09900           LXI     H,NORMAL        ;PUT ADDRESS OF NORMAL, WHERE WE FINISH UP,
   698  000544' 000000  000146'
   699  000545' 000000  000537'
   700  000546' 001000  000345          09920           PUSH    H               ; ON THE STACK
   701  000547' 001000  000041          09940           LXI     H,FMULT2        ;PUT FMULT2 ON THE STACK TWICE, SO AFTER
   702  000550' 000000  000557'
   703  000551' 000000  000544'
   704  000552' 001000  000345          09960           PUSH    H               ; WE MULTIPLY BY THE LO BYTE, WE WILL
   705  000553' 001000  000345          09980           PUSH    H               ; MULTIPLY BY THE MO AND HO
   706  000554' 001000  000041          10000           LXI     H,FACLO         ;GET ADDRESS OF LO OF FAC
   707  000555' 000000  000075*
   708  000556' 000000  000550'
   709  000557' 001000  000176          10020   FMULT2: MOV     A,M             ;GET BYTE TO MULTIPLY BY
   710  000560' 001000  000043          10040           INX     H               ;MOVE POINTER TO NEXT BYTE
   711                                  10060   IFN     LENGTH,<
   712  000561' 001000  000267          10080           ORA     A
   713  000562' 001000  000312          10100           JZ      FMULT3>         ;ARE WE MULTPLYING BY ZERO?
   714  000563' 000000  000632'
   715  000564' 000000  000555'
   716  000565' 001000  000345          10120           PUSH    H               ;SAVE POINTER
   717                                  10140   IFE     LENGTH,<
   718                                  10160           MVI     L,10>           ;SET UP A COUNT
   719                                  10180   IFN     LENGTH,<


-- PAGE 214 --------------------------------------------------------------


MATHPK FOR BASIC MCS 8080  GATES/ALLEN/DAVIDOFF MACRO 47(113) 06:09 27-AUG-75 PAGE 4-1
F4      MAC     23-AUG-64 06:08         FLOATING MULTIPLICATION AND DIVISION

   720  000566' 001000  000353          10200           XCHG                    ;GET LO'S IN (HL)
   721  000567' 001000  000036          10220           MVI     E,10>           ;SET UP A COUNT
   722  000570' 000000  000010
   723
   724                                  10260   ;THE PRODUCT WILL BE FORMED IN C,D,E,B. THIS WILL BE IN C,H,L,B PART OF THE
   725                                  10280   ;TIME IN ORDER TO USE THE "DAD" INSTRUCTION.  AT FMULT2, WE GET THE NEXT
   726                                  10300   ;BYTE OF THE MANTISSA IN THE FAC TO MULTIPLY BY.  ((HL) POINTS TO IT)
   727                                  10320   ;(THE FMULT2 SUBROUTINE PRESERVED (HL))  IN 8K, IF THE BYTE IS ZERO, WE JUST
   728                                  10340   ;SHIFT THE PRODUCT 8 RIGHT.  THIS BYTE IS THEN SHIFTED RIGHT AND SAVED IN D
   729                                  10360   ;(H IN 4K).  THE CARRY DETERMINES IF WE SHOULD ADD IN THE SECOND FACTOR
   730                                  10380   ;IF WE DO, WE ADD IT TO C,H,L.  B IS ONLY USED TO DETERMINE WHICH WAY WE
   731                                  10400   ;ROUND.  WE THEN SHIFT C,H,L,B (C,D,E,B) IN 4K RIGHT ONE TO GET READY FOR THE
   732                                  10420   ;NEXT TIME THROUGH THE LOOP.  NOTE THAT THE CARRY IS SHIFTED INTO THE MSB OF
   733                                  10440   ;C.  E HAS A COUNT (L IN 4K) TO DETERMINE WHEN WE HAVE LOOKED AT ALL THE BITS
   734                                  10460   ;OF D (H IN 4K).
   735  000571' 001000  000037          10480   FMULT4: RAR                     ;ROTATE BYTE RIGHT
   736                                  10500   IFE     LENGTH,<
   737                                  10520           MOV     H,A>            ;SAVE THE COUNT
   738                                  10540   IFN     LENGTH,<
   739  000572' 001000  000127          10560           MOV     D,A>            ;SAVE IT
   740  000573' 001000  000171          10580           MOV     A,C             ;GET HO
   741  000574' 001000  000322          10600           JNC     FMULTS          ;DON'T ADD IN NUMBER IF BIT WAS ZERO
   742  000575' 000000  000607'
   743  000576' 000000  000563'
   744                                  10620   IFE     LENGTH,<
   745                                  10640           XCHG>                   ;PUT THE LO'S IN (HL)
   746  000577' 001000  000325          10660           PUSH    D               ;SAVE COUNTERS
   747  000600' 001000  000021          10680   FMULTB: LXI     D,$CODE         ;GET LO'S OF NUMBER TO ADD, THIS IS SET ABOVE
   748  000601' 000000  000537*
   749  000602' 000000  000575'
   750  000603' 001000  000031          10700           DAD     D               ;ADD THEM IN
   751  000604' 001000  000321          10720           POP     D               ;GET COUNTERS BACK
   752  000605' 001000  000316          10740   FMULTA: ACI     0               ;ADD IN HO, THIS IS SET UP ABOVE
   753  000606' 000000  000000
   754                                  10760   IFE     LENGTH,<
   755                                  10780           XCHG                    ;PUT THE LO'S BACK IN (DE)
   756                                  10800   FMULT5: CALL    SHFROA          ;SHIFT THE RESULT RIGHT ONE
   757                                  10820           DCR     L               ;ARE WE DONE?
   758                                  10840           MOV     A,H>            ;GET NUMBER WE ARE MULTIPLYING BY
   759                                  10860   IFN     LENGTH,<
   760  000607' 001000  000037          10880   FMULT5: RAR                     ;ROTATE RESULT RIGHT ONE
   761  000610' 001000  000117          10900           MOV     C,A
   762  000611' 001000  000174          10920           MOV     A,H             ;ROTATE NEXT BYTE
   763  000612' 001000  000037          10940           RAR
   764  000613' 001000  000147          10960           MOV     H,A
   765  000614' 001000  000175          10980           MOV     A,L             ;ROTATE NEXT LOWER ORDER
   766  000615' 001000  000037          11000           RAR
   767  000616' 001000  000157          11020           MOV     L,A
   768  000617' 001000  000170          11040           MOV     A,B             ;ROTATE LO
   769  000620' 001000  000037          11060           RAR
   770  000621' 001000  000107          11080           MOV     B,A
   771  000622' 001000  000035          11100           DCR     E               ;ARE WE DONE?
   772  000623' 001000  000172          11120           MOV     A,D>            ;GET NUMBER WE ARE MULTIPLYING BY


-- PAGE 215 --------------------------------------------------------------


MATHPK FOR BASIC MCS 8080  GATES/ALLEN/DAVIDOFF MACRO 47(113) 06:09 27-AUG-75 PAGE 4-2
F4      MAC     23-AUG-64 06:08         FLOATING MULTIPLICATION AND DIVISION

   773  000624' 001000  000302          11140           JNZ     FMULT4          ;MULTIPLY AGAIN IF WE ARE NOT DONE
   774  000625' 000000  000571'
   775  000626' 000000  000601'
   776                                  11160   IFN     LENGTH,<
   777  000627' 001000  000353          11180           XCHG>                   ;GET LO'S IN (HL)
   778  000630' 001000  000341          11200   POPHRT: POP     H               ;GET POINTER TO NUMBER TO MULTIPLY BY
   779  000631' 001000  000311          11220           RET                     ;ALL DONE
   780                                  11240   IFN     LENGTH,<
   781  000632' 001000  000103          11260   FMULT3: MOV     B,E             ;MULTIPLY BY ZERO: SHIFT EVERYTHING 8 RIGHT
   782  000633' 001000  000132          11280           MOV     E,D
   783  000634' 001000  000121          11300           MOV     D,C
   784  000635' 001000  000117          11320           MOV     C,A             ;SHIFT IN 8 ZEROS ON THE LEFT
   785  000636' 001000  000311          11340           RET>                    ;ALL DONE
   786
   787
   788                                  11400           ;DIVIDE FAC BY 10
   789                                  11420           ;ALTERS A,B,C,D,E,H,L
   790  000637' 001000  000315          11440   DIV10:  CALL    PUSHF           ;SAVE NUMBER
   791  000640' 000000  001205'
   792  000641' 000000  000625'
   793                                  11460   IFN     LENGTH-2,<
   794  000642' 001000  000001          11480           MOVRI   204,040,000,000 ;LOAD CONSTANT '10' INTO REGISTERS
   795  000643' 000000  000040
   796  000644' 000000  000204
   797  000645' 001000  000021
   798  000646' 000000  000000
   799  000647' 000000  000000
   800  000650' 001000  000315          11500           CALL    MOVFR>          ;MOVE THE CONSTANT TO THE FAC
   801  000651' 000000  001225'
   802  000652' 000000  000640'
   803                                  11520   IFE     LENGTH-2,<
   804                                  11540           LXI     H,FTEN          ;GET POINTER TO THE CONSTANT '10'
   805                                  11560           CALL    MOVFM>          ;MOVE TEN INTO THE FAC
   806  000653' 001000  000301          11580   FDIVT:  POPR                    ;GET NUMBER BACK IN REGISTERS
   807  000654' 001000  000321
   808                                  11600                                   ;FALL INTO DIVIDE AND WE ARE DONE
   809
   810
   811                                  11660           ;DIVISION       FAC:=ARG/FAC
   812                                  11680           ;ALTERS A,B,C,D,E,H,L
   813  000655' 001000  000357          11700   FDIV:   FSIGN                   ;CHECK FOR DIVISION BY ZERO
   814  000656' 001000  000312          11720           JZ      DV0ERR          ;HE IS TRYING TO GET AWAY WITH IT
   815  000657' 000000  000000*
   816  000660' 000000  000651'
   817  000661' 001000  000056          11740           MVI     L,377           ;SUBTRACT THE TWO EXPONENTS, L IS A FLAG
   818  000662' 000000  000377
   819  000663' 001000  000315          11760           CALL    MULDIV          ;FIX UP THE EXPONENTS AND THINGS
   820  000664' 000000  001035'
   821  000665' 000000  000657'
   822  000666' 001000  000064          11780           INR     M               ;ADD 2 TO EXPONENT TO CORRECT SCALING
   823  000667' 001000  000064          11800           INR     M
   824                                  11820           ;HERE WE SAVE THE FAC IN MEMORY SO WE CAN SUBTRACT IT FROM THE NUMBER
   825                                  11840           ;IN THE REGISTERS QUICKLY.


-- PAGE 216 --------------------------------------------------------------


MATHPK FOR BASIC MCS 8080  GATES/ALLEN/DAVIDOFF MACRO 47(113) 06:09 27-AUG-75 PAGE 4-3
F4      MAC     23-AUG-64 06:08         FLOATING MULTIPLICATION AND DIVISION

   826  000670' 001000  000053          11860           DCX     H               ;POINT TO HO
   827  000671' 001000  000176          11880           MOV     A,M             ;GET HO
   828  000672' 001000  000062          11900           STA     FDIVA+1         ;SAVE IT
   829  000673' 000000  000734'
   830  000674' 000000  000064'
   831  000675' 001000  000053          11920           DCX     H               ;SAVE MIDDLE ORDER
   832  000676' 001000  000176          11940           MOV     A,M
   833  000677' 001000  000062          11960           STA     FDIVB+1         ;PUT IT WHERE NOTHING WILL HURT IT
   834  000700' 000000  000730'
   835  000701' 000000  000673'
   836  000702' 001000  000053          11960           DCX     H               ;SAVE LO
   837  000703' 001000  000176          12000           MOV     A,M
   838  000704' 001000  000062          12020           STA     FDIVC+1
   839  000705' 000000  000724'
   840  000706' 000000  000700'
   841
   842                                  12060   ;THE NUMERATOR WILL BE KEPT IN B,H,L.  THE QUOTIENT WILL BE FORMED IN C,D,E.
   843                                  12080   ;TO GET A BIT OF THE QUOTIENT, WE FIRST SAVE B,H,L ON THE STACK, THEN
   844                                  12100   ;SUBTRACT THE DENOMINATOR THAT WE SAVED IN MEMORY.  THE CARRY INDICATES
   845                                  12120   ;WHETHER OR NOT B,H,L WAS BIGGER THAN THE DENOMINATOR.  IF B,H,L WAS BIGGER,
   846                                  12140   ;THE NEXT BIT OF THE QUOTIENT IS A ONE.  TO GET THE OLD B,H,L OFF THE STACK,
   847                                  12160   ;WE POP THEM INTO THE PSW.  IF THE DENOMINATOR WAS BIGGER, THE NEXT BIT OF
   848                                  12180   ;THE QUOTIENT IS ZERO, AND WE GET THE OLD B,H,L BACK BY POPPING IT OFF THE
   849                                  12200   ;STACK.  WE HAVE TO KEEP AN EXTRA BIT OF THE QUOTIENT IN FDIVG+1 IN CASE THE
   850                                  12220   ;DENOMINATOR WAS BIGGER,  THEN B,H,L WILL GET SHIFTED LEFT.  IF THE MSB  OF
   851                                  12240   ;B WAS ONE, IT HAS TO BE STORED SOMEWHERE, SO WE STORE IT IN FDIVG+1.  THEN
   852                                  12260   ;THE NEXT TIME THROUGH THE LOOP B,H,L WILL LOOK BIGGER BECAUSE IT HAS AN
   853                                  12280   ;EXTRA HO BIT IN FDIVG+1. WE ARE DONE DIVIDING WHEN THE MSB OF C IS A ONE.
   854                                  12300   ;THIS OCCURS WHEN WE HAVE CALCULATED 24 BITS OF THE QUOTIENT.  WHEN WE JUMP
   855                                  12320   ;TO ROUND, THE 25TH BIT OF THE QUOTIENT DETERMINES WHETHER WE ROUND OR NOT.
   856                                  12340   ;IT IS IN THE MSB OF A.  IF INITIALLY THE DENOMINATOR IS BIGGER THAN THE
   857                                  12360   ;NUMERATOR, THE FIRST BIT OF THE QUOTIENT WILL BE ZERO.  THIS MEANS WE
   858                                  12380   ;WILL GO THROUGH THE DIVIDE LOOP 26 TIMES, SINCE IT STOPS ON THE 25TH BIT
   859                                  12400   ;AFTER THE FIRST NON-ZERO BIT OF THE EXPONENT.  SO, THIS QUOTIENT WILL LOOK
   860                                  12420   ;SHIFTED LEFT ONE FROM THE QUOTIENT OF TWO NUMBERS IN WHICH THE NUMERATOR IS
   861                                  12440   ;BIGGER.  THIS CAN ONLY OCCUR ON THE FIRST TIME THROUGH THE LOOP, SO C,D,E
   862                                  12460   ;ARE ALL ZERO.  SO, IF WE FINISH THE LOOP AND C,D,E ARE ALL ZERO, THEN WE
   863                                  12480   ;MUST DECREMENT THE EXPONENT TO CORRECT FOR THIS.
   864  000707' 001000  000101          12500           MOV     B,C             ;GET NUMBER IN B,H,L
   865  000710' 001000  000353          12520           XCHG
   866  000711' 001000  000257          12540           XRA     A               ;ZERO C,D,E AND HIGHEST ORDER
   867  000712' 001000  000117          12560           MOV     C,A
   868  000713' 001000  000127          12580           MOV     D,A
   869  000714' 001000  000137          12600           MOV     E,A
   870  000715' 001000  000062          12620           STA     FDIVG+1
   871  000716' 000000  000737'
   872  000717' 000000  000705'
   873  000720' 001000  000345          12640   FDIV1:  PUSH    H               ;SAVE LO'S OF NUMBER
   874  000721' 001000  000305          12660           PUSH    B               ;SAVE HO OF NUMBER
   875  000722' 001000  000175          12680           MOV     A,L             ;SUBTRACT NUMBER THAT WAS IN FAC
   876  000723' 001000  000326          12700   FDIVC:  SUI     0               ;SUBTRACT LO
   877  000724' 000000  000000
   878  000725' 001000  000157          12720           MOV     L,A             ;SAVE IT


-- PAGE 217 --------------------------------------------------------------


MATHPK FOR BASIC MCS 8080  GATES/ALLEN/DAVIDOFF MACRO 47(113) 06:09 27-AUG-75 PAGE 4-4
F4      MAC     23-AUG-64 06:08         FLOATING MULTIPLICATION AND DIVISION

   879  000726' 001000  000174          12740           MOV     A,H             ;SUBTRACT MIDDLE ORDER
   880  000727' 001000  000336          12760   FDIVB:  SBI     0
   881  000730' 000000  000000
   882  000731' 001000  000147          12780           MOV     H,A
   883  000732' 001000  000170          12800           MOV     A,B             ;SUBTRACT HO
   884  000733' 001000  000336          12820   FDIVA:  SBI     0
   885  000734' 000000  000000
   886  000735' 001000  000107          12840           MOV     B,A
   887  000736' 001000  000076          12860   FDIVG:  MVI     A,0             ;GET HIGHEST ORDER
   888  000737' 000000  000000
   889  000740' 001000  000336          12880           SBI     0               ;SUBTRACT THE CARRY FROM IT
   890  000741' 000000  000000
   891  000742' 001000  000077          12900           CMC                     ;SET CARRY TO CORESPOND TO NEXT QUOTIENT BIT
   892  000743' 001000  000322          12920           JNC     FDIV2           ;GET OLD NUMBER BACK IF WE SUBTRACTED TOO MUCH
   893  000744' 000000  000755'
   894  000745' 000000  000716'
   895  000746' 001000  000062          12940           STA     FDIVG+1         ;UDPATE HIGHEST ORDER
   896  000747' 000000  000737'
   897  000750' 000000  000744'
   898  000751' 001000  000361          12960           POP     PSW             ;THE SUBTRACTION WAS GOOD
   899  000752' 001000  000361          12980           POP     PSW             ;GET PREVIOUS NUMBER OFF STACK
   900  000753' 001000  000067          13000           STC                     ;NEXT BIT IN QUOTIENT IS A ONE
   901  000754' 001000  000322          13020           XWD     1000,322        ;"JNC" AROUND NEXT 2 BYTES
   902  000755' 001000  000301          13040   FDIV2:  POP     B               ;WE SUBTRACTED TOO MUCH
   903  000756' 001000  000341          13060           POP     H               ;GET OLD NUMBER BACK
   904  000757' 001000  000171          13080           MOV     A,C             ;ARE WE DONE?
   905  000760' 001000  000074          13100           INR     A               ;SET SIGN FLAG WITHOUT AFFECTING CARRY
   906  000761' 001000  000075          13120           DCR     A
   907  000762' 001000  000037          13140           RAR                     ;PUT CARRY IN MSB
   908  000763' 001000  000372          13160           JM      ROUNDB          ;WE ARE DONE
   909  000764' 000000  000234'
   910  000765' 000000  000747'
   911  000766' 001000  000027          13180           RAL                     ;WE AREN'T, GET OLD CARRY BACK
   912                                  13200   IFE     LENGTH,<
   913                                  13220           CALL    SHFTLO>         ;ROTATE EVERYTHING LEFT ONE
   914                                  13240   IFN     LENGTH,<
   915  000767' 001000  000173          13260           MOV     A,E             ;ROTATE EVERYTHING LEFT ONE
   916  000770' 001000  000027          13280           RAL                     ;ROTATE NEXT BIT OF QUOTIENT IN
   917  000771' 001000  000137          13300           MOV     E,A
   918  000772' 001000  000172          13320           MOV     A,D
   919  000773' 001000  000027          13340           RAL
   920  000774' 001000  000127          13360           MOV     D,A
   921  000775' 001000  000171          13380           MOV     A,C
   922  000776' 001000  000027          13400           RAL
   923  000777' 001000  000117          13420           MOV     C,A>
   924  001000' 001000  000051          13440           DAD     H               ;ROTATE A ZERO INTO RIGHT END OF NUMBER
   925  001001' 001000  000170          13460           MOV     A,B             ;THE HO BYTE, FINALLY!
   926  001002' 001000  000027          13480           RAL
   927  001003' 001000  000107          13500           MOV     B,A
   928  001004' 001000  000072          13520           LDA     FDIVG+1         ;ROTATE THE HIGHEST ORDER
   929  001005' 000000  000737'
   930  001006' 000000  000764'
   931  001007' 001000  000027          13540           RAL


-- PAGE 218 --------------------------------------------------------------


MATHPK FOR BASIC MCS 8080  GATES/ALLEN/DAVIDOFF MACRO 47(113) 06:09 27-AUG-75 PAGE 4-5
F4      MAC     23-AUG-64 06:08         FLOATING MULTIPLICATION AND DIVISION

   932  001010' 001000  000062          13560           STA     FDIVG+1
   933  001011' 000000  000737'
   934  001012' 000000  001005'
   935  001013' 001000  000171          13580           MOV     A,C             ;ADD ONE TO EXPONENT IF THE FIRST SUBTRACTION
   936  001014' 001000  000262          13600           ORA     D               ; DID NOT WORK
   937  001015' 001000  000263          13620           ORA     E
   938  001016' 001000  000302          13640           JNZ     FDIV1           ;THIS ISN'T THE CASE
   939  001017' 000000  000720'
   940  001020' 000000  001011'
   941  001021' 001000  000345          13660           PUSH    H               ;SAVE PART OF NUMBER
   942  001022' 001000  000041          13680           LXI     H,FAC           ;GET POINTER TO FAC
   943  001023' 000000  000426*
   944  001024' 000000  001017'
   945  001025' 001000  000065          13720           DCR     M               ;DECREMENT EXPONENT
   946  001026' 001000  000341          13740           POP     H               ;GET NUMBER BACK
   947  001027' 001000  000302          13760           JNZ     FDIV1           ;DIVIDE MORE IF NO OVERFLOW OCCURED
   948  001030' 000000  000720'
   949  001031' 000000  001023'
   950  001032' 001000  000303          13760           JMP     OVERR           ;OVERFLOW!!
   951  001033' 000000  000267'
   952  001034' 000000  001030'
   953
   954
   955                                  13820           ;CHECK SPECIAL CASES AND ADD EXPONENTS FOR FMULT, FDIV
   956                                  13840           ;ALTERS A,B,H,L
   957                                  13860   IFE     LENGTH-2,<
   958                                  13880   MULDVS: MVI     A,377           ;ENTRY FROM DDIV, SUBTRACT EXPONENTS
   959                                  13900           XWD     1000,056        ;"MVI   L" AROUND NEXT BYTE
   960                                  13920   MULDVA: XRA     A               ;ENTRY FROM DMULT, ADD EXPONENTS
   961                                  13940           LXI     H,ARG-1         ;GET POINTER TO SIGN AND HO OF ARG
   962                                  13960           MOV     C,M             ;GET HO AND SIGN FOR UNPACKING
   963                                  13980           INX     H               ;INCREMENT POINTER TO EXPONENT
   964                                  14000           MOV     B,M             ;GET EXPONENT FOR BELOW
   965                                  14020           MOV     L,A>            ;SAVE ADD OR SUBTRACT FLAG
   966  001035' 001000  000170          14040   MULDIV: MOV     A,B             ;IS NUMBER IN REGISTERS ZERO?
   967  001036' 001000  000267          14060           ORA     A
   968  001037' 001000  000312          14080           JZ      MULDV2          ;IT IS, ZERO FAC AND WE ARE DONE
   969  001040' 000000  001077'
   970  001041' 000000  001033'
   971  001042' 001000  000175          14100           MOV     A,L             ;GET ADD OR SUBTRACT FLAG
   972  001043' 001000  000041          14120           LXI     H,FAC           ;GET POINTER TO EXPONENT
   973  001044' 000000  001023*
   974  001045' 000000  001040'
   975  001046' 001000  000256          14140           XRA     M               ;GET EXPONENT
   976  001047' 001000  000200          14160           ADD     B               ;ADD IN REGISTER EXPONENT
   977  001050' 001000  000107          14180           MOV     B,A             ;SAVE IT
   978  001051' 001000  000037          14200           RAR                     ;CHECK FOR OVERFLOW
   979  001052' 001000  000250          14220           XRA     B               ;OVERFLOW IF SIGN IS THE SAME AS CARRY
   980  001053' 001000  000170          14240           MOV     A,B             ;GET SUM
   981  001054' 001000  000362          14260           JP      MULDV1          ;WE HAVE OVERFLOW!!
   982  001055' 000000  001076'
   983  001056' 000000  001044'
   984  001057' 001000  000306          14280           ADI     200             ;PUT EXPONENT IN EXCESS 200


-- PAGE 219 --------------------------------------------------------------


MATHPK FOR BASIC MCS 8080  GATES/ALLEN/DAVIDOFF MACRO 47(113) 06:09 27-AUG-75 PAGE 4-6
F4      MAC     23-AUG-64 06:08         FLOATING MULTIPLICATION AND DIVISION

   985  001060' 000000  000200
   986  001061' 001000  000167          14300           MOV     M,A             ;SAVE IT IN THE FAC
   987  001062' 001000  000312          14320           JZ      POPHRT          ;WE HAVE UNDERFLOW!! RETURN.
   988  001063' 000000  000630'
   989  001064' 000000  001055'
   990  001065' 001000  000315          14340           CALL    UNPACK          ;UNPACK THE ARGUMENTS
   991  001066' 000000  001272'
   992  001067' 000000  001063'
   993  001070' 001000  000167          14360           MOV     M,A             ;SAVE THE NEW SIGN
   994  001071' 001000  000053          14380           DCX     H               ;POINT TO EXPONENT
   995  001072' 001000  000311          14400           RET                     ;ALL DONE, ELAVE HO IN A
   996                                  14420   IFN     EXTFNC,<
   997  001073' 001000  000357          14440   MLDVEX: FSIGN                   ;ENTRY FROM EXP, PICK UNDERFLOW IF NEGATIVE
   998  001074' 001000  000057          14460           CMA                     ;PICK OVERFLOW IF POSITIVE
   999  001075' 001000  000341          14480           POP     H>              ;DON'T SCREW UP STACK
  1000  001076' 001000  000267          14500   MULDV1: ORA     A               ;IS ERROR OVERFLOW OR UNDERFLOW?
  1001  001077' 001000  000341          14520   MULDV2: POP     H               ;GET OLD RETURN ADDRESS OFF STACK
  1002                                  14540   IFE     LENGTH,<
  1003                                  14560           JM      OVERR           ;OVERFLOW
  1004                                  14580                                   ;UNDERFLOW -- FALL INTO ZERO
  1005                                  14600
  1006                                  14620
  1007                                  14640           ;ZERO FAC
  1008                                  14660           ;ALTERS A ONLY
  1009                                  14680           ;EXITS WITH A=0
  1010                                  14700   ZERO:   XRA     A               ;ZERO A
  1011                                  14720           STA     FAC             ;ZERO FAC
  1012                                  14740           RET>                    ;ALL DONE
  1013
  1014
  1015                                  14800   IFN     LENGTH,<
  1016  001100' 001000  000362          14820           JP      ZERO            ;UNDERFLOW
  1017  001101' 000000  000173'
  1018  001102' 000000  001066'
  1019  001103' 001000  000303          14840           JMP     OVERR>          ;OVERFLOW
  1020  001104' 000000  000267'
  1021  001105' 000000  001101'
  1022
  1023
  1024                                  14900           ;MULTIPLY FAC BY 10
  1025                                  14920           ;ALTERS A,B,C,D,E,H,L
  1026  001106' 001000  000315          14940   MUL10:  CALL    MOVRF           ;GET NUMBER IN REGISTERS
  1027  001107' 000000  001240'
  1028  001110' 000000  001104'
  1029  001111' 001000  000170          14960           MOV     A,B             ;GET EXPONENT
  1030  001112' 001000  000267          14980           ORA     A               ;RESULT IS ZERO IF ARG IS ZERO
  1031  001113' 001000  000310          15000           RZ                      ;IT IS
  1032  001114' 001000  000306          15020           ADI     2               ;MULTIPLY BY 4 BY ADDING 2 TO EXPONENT
  1033  001115' 000000  000002
  1034  001116' 001000  000332          15040           JC      OVERR           ;OVERFLOW!!
  1035  001117' 000000  000267'
  1036  001120' 000000  001107'
  1037  001121' 001000  000107          15060           MOV     B,A             ;RESTORE EXPONENT


-- PAGE 220 --------------------------------------------------------------


MATHPK FOR BASIC MCS 8080  GATES/ALLEN/DAVIDOFF MACRO 47(113) 06:09 27-AUG-75 PAGE 4-7
F4      MAC     23-AUG-64 06:08         FLOATING MULTIPLICATION AND DIVISION

  1038  001122' 001000  000315          15080           CALL    FADD            ;ADD IN ORIGINAL NUMBER TO GET 5 TIMES IT
  1039  001123' 000000  000025'
  1040  001124' 000000  001117'
  1041  001125' 001000  000041          15100           LXI     H,FAC           ;ADD 1 TO EXPONENT TO MULTIPLY NUMBER BY
  1042  001126' 000000  001044*
  1043  001127' 000000  001123'
  1044  001130' 001000  000064          15120           INR     M               ; 2 TO GET 10 TIMES ORIGINAL NUMBER
  1045  001131' 001000  000300          15140           RNZ                     ;ALL DONE IF NO OVERFLOW
  1046  001132' 001000  000303          15160           JMP     OVERR           ;OVERFLOW
  1047  001133' 000000  000267'
  1048  001134' 000000  001126'
  1049                                  15180   PAGE


-- PAGE 221 --------------------------------------------------------------


MATHPK FOR BASIC MCS 8080  GATES/ALLEN/DAVIDOFF MACRO 47(113) 06:09 27-AUG-75 PAGE 5
F4      MAC     23-AUG-64 06:08         SIGN, SGN, FLOAT, NEG AND ABS

  1050                                  15200   SUBTTL  SIGN, SGN, FLOAT, NEG AND ABS
  1051                                  15220           ;PUT SIGN OF FAC IN A
  1052                                  15240           ;ALTERS A ONLY
  1053                                  15260           ;LEAVES FAC ALONE
  1054                                  15280           ;NOTE: TO TAKE ADVANTAGE OF THE RST INSTRUCTIONS TO SAVE BYTES,
  1055                                  15300           ;FSIGN IS DEFINED TO BE AN RST.  "FSIGN" IS EQUIVALENT TO "CALL SIGN"
  1056                                  15320           ;THE FIRST FEW INSTRUCTIONS OF SIGN (THE ONES BEFORE SIGNC) ARE DONE
  1057                                  15340           ;IN THE 8 BYTES AT THE RST LOCATION.
  1058                                  15360   REPEAT  0,<                     ;FSIGN IS ALWAYS AN RST
  1059                                  15380   SIGN:   LDA     FAC             ;CHECK IF THE NUMBER IS ZERO
  1060                                  15400           ORA     A
  1061                                  15420           RZ>                     ;IT IS, A IS ZERO
  1062  001135' 001000  000072          15440   SIGNC:  LDA     FAC-1           ;GET SIGN OF FAC, IT IS NON-ZERO
  1063  001136' 777777  777777*
  1064  001137' 000000  001133'
  1065  001140' 001000  000376          15460           XWD     1000,376        ;"CPI" AROUND NEXT BYTE
  1066  001141' 001000  000057          15480   FCOMPS: CMA                     ;ENTRY FROM FCOMP, COMPLEMENT SIGN
  1067  001142' 001000  000027          15500   ICOMPS: RAL                     ;ENTRY FROM ICOMP, PUT SIGN BIT IN CARRY
  1068  001143' 001000  000237          15520   SIGNS:  SBB     A               ;A=0 IF CARRY WAS 0, A=377 IF CARRY WAS 1
  1069  001144' 001000  000300          15540           RNZ                     ;RETURN IF NUMBER WAS NEGATIVE
  1070  001145' 001000  000074          15560   INRART: INR     A               ;PUT ONE IN A IF NUMBER WAS POSITIVE
  1071  001146' 001000  000311          15580           RET                     ;ALL DONE
  1072
  1073
  1074                                  15640           ;SGN FUNCTION
  1075                                  15660           ;ALTERS A,B,C,D,E,H,L
  1076                                  15680   IFN     LENGTH-2,<
  1077  001147' 001000  000357          15700   SGN:    FSIGN>                  ;GET SIGN OF FAC IN A
  1078                                  15720                                   ;FALL INTO FLOAT
  1079
  1080
  1081                                  15780           ;FLOAT THE SIGNED INTEGER IN A
  1082                                  15800           ;ALTERS A,B,C,D,E,H,L
  1083  001150' 001000  000006          15820   FLOAT:  MVI     B,210           ;SET EXPONENT CORRECTLY
  1084  001151' 000000  000210
  1085  001152' 001000  000021          15840           LXI     D,$CODE         ;ZERO D,E
  1086  001153' 000000  000601*
  1087  001154' 000000  001136'
  1088                                  15860                                   ;FALL INTO FLOATR
  1089
  1090
  1091                                  15920           ;FLOAT THE SIGNED NUMBER IN B,A,D,E
  1092                                  15940           ;ALTERS A,B,C,D,E,H,L
  1093  001155' 001000  000041          15960   FLOATR: LXI     H,FAC           ;GET POINTER TO FAC
  1094  001156' 000000  001126*
  1095  001157' 000000  001153'
  1096  001160' 001000  000117          15980           MOV     C,A             ;PUT HO IN C
  1097  001161' 001000  000160          16000           MOV     M,B             ;PUT EXPONENT IN THE FAC
  1098  001162' 001000  000006          16020           MVI     B,0             ;ZERO OVERFLOW BYTE
  1099  001163' 000000  000000
  1100  001164' 001000  000043          16040           INX     H               ;POINT TO SIGN
  1101  001165' 001000  000066          16060           MVI     M,200           ;ASSUME A POSITIVE NUMBER
  1102  001166' 000000  000200


-- PAGE 222 --------------------------------------------------------------


MATHPK FOR BASIC MCS 8080  GATES/ALLEN/DAVIDOFF MACRO 47(113) 06:09 27-AUG-75 PAGE 5-1
F4      MAC     23-AUG-64 06:08         SIGN, SGN, FLOAT, NEG AND ABS

  1103  001167' 001000  000027          16080           RAL                     ;PUT SIGN IN CARRY
  1104  001170' 001000  000303          16100           JMP     FADFLT          ;GO AND FLOAT THE NUMBER
  1105  001171' 000000  000143'
  1106  001172' 000000  001156'
  1107
  1108
  1109                                  16160           ;ABSOLUTE VALUE OF FAC
  1110                                  16180           ;ALTERS A,H,L
  1111  001173'                         16200   ABS:
  1112                                  16220   IFE     LENGTH-2,<
  1113                                  16240           CPI     2               ;IS THE ARGUMENT AN INTEGER?
  1114                                  16260           JZ      IABS>           ;YES, USE THE INTEGER ABSOLUTE VALUE
  1115  001173' 001000  000357          16280           FSIGN                   ;GET THE SIGN OF FAC
  1116  001174' 001000  000360          16300           RP                      ;ALL DONE IF IT IS POSITIVE
  1117                                  16320                                   ;FALL INTO NEG
  1118
  1119
  1120                                  16380           ;NEGATE NUMBER IN THE FAC
  1121                                  16400           ;ALTERS A,H,L
  1122                                  16420           ;NOTE: THE NUMBER MUST BE PACKED
  1123  001175' 001000  000041          16440   NEG:    LXI     H,FAC-1         ;GET POINTER TO SIGN
  1124  001176' 777777  777777*
  1125  001177' 000000  001171'
  1126  001200' 001000  000176          16460           MOV     A,M             ;GET SIGN
  1127  001201' 001000  000356          16480           XRI     200             ;COMPLEMENT SIGN BIT
  1128  001202' 000000  000200
  1129  001203' 001000  000167          16500           MOV     M,A             ;SAVE IT
  1130  001204' 001000  000311          16520           RET                     ;ALL DONE
  1131
  1132
  1133                                  16580   IFE     LENGTH-2,<
  1134                                  16600           ;NEGATE ANY TYPE VALUE IN THE FAC
  1135                                  16620           ;ALTERS A,B,C,D,E,H,L
  1136                                  16640   VNEG:   LDA     VALTYP          ;SEE WHAT KIND OF NUMBER WE HAVE
  1137                                  16660           CPI     2
  1138                                  16680           JZ      INEG            ;WE HAVE AN INTEGER, NEGATE IT THAT WAY
  1139                                  16700           JM      TMERR           ;SLOW UP ON STRINGS
  1140                                  16720           JMP     NEG             ;NEGATE SNG AND DBL THE SAME
  1141                                  16740
  1142                                  16760
  1143                                  16780           ;SGN FUNCTION
  1144                                  16800           ;ALTERS A,H,L
  1145                                  16820   SGN:    CALL    VSIGN           ;GET THE SIGN OF THE FAC IN A
  1146                                  16840           MOV     L,A             ;PUT IT IN THE LO POSITION
  1147                                  16860           RAL                     ;EXTEND THE SIGN TO THE HO
  1148                                  16880           SBB     A
  1149                                  16900           MOV     H,A
  1150                                  16920           JMP     CONISS          ;RETURN THE RESULT AND SET VALTYP
  1151                                  16940
  1152                                  16960
  1153                                  16980           ;GET THE SIGN OF THE VALUE IN THE FAC IN A
  1154                                  17000           ;ASSUMES A HAS THE VALTYP WHEN CALLED
  1155                                  17020           ;ALTERS A,H,L


-- PAGE 223 --------------------------------------------------------------


MATHPK FOR BASIC MCS 8080  GATES/ALLEN/DAVIDOFF MACRO 47(113) 06:09 27-AUG-75 PAGE 5-2
F4      MAC     23-AUG-64 06:08         SIGN, SGN, FLOAT, NEG AND ABS

  1156                                  17040   VSIGN:  CPI     2               ;IS THE ARGUMENT AN INTEGER?
  1157                                  17060           JNZ     SIGN            ;NO, SINGLE AND DOUBLE PREC. WORK THE SAME
  1158                                  17080           LHLD    FACLO           ;GET THE INTEGER ARGUMENT
  1159                                  17100           MOV     A,H             ;GET ITS SIGN
  1160                                  17120           ORA     L               ;CHECK IF THE NUMBER IS ZERO
  1161                                  17140           RZ                      ;IT IS, WE ARE DONE
  1162                                  17160           MOV     A,H             ;IT ISN'T SIGN IS THE SIGN OF H
  1163                                  17180           JMP     ICOMPS>         ;GO SET A CORRECTLY
  1164                                  17200   PAGE


-- PAGE 224 --------------------------------------------------------------


MATHPK FOR BASIC MCS 8080  GATES/ALLEN/DAVIDOFF MACRO 47(113) 06:09 27-AUG-75 PAGE 6
F4      MAC     23-AUG-64 06:08         FLOATING POINT MOVEMENT ROUTINES

  1165                                  17220   SUBTTL  FLOATING POINT MOVEMENT ROUTINES
  1166                                  17240           ;PUT FAC ON STACK
  1167                                  17260           ;ALTERS D,E
  1168  001205' 001000  000353          17280   PUSHF:  XCHG                    ;SAVE (HL)
  1169  001206' 001000  000052          17300           LHLD    FACLO           ;GET LO'S
  1170  001207' 000000  000555*
  1171  001210' 000000  001176'
  1172  001211' 001000  000343          17320           XTHL                    ;SWITCH LO'S AND RET ADDR
  1173  001212' 001000  000345          17340           PUSH    H               ;PUT RET ADDR BACK ON STACK
  1174  001213' 001000  000052          17360           LHLD    FAC-1           ;GET HO'S
  1175  001214' 777777  777777*
  1176  001215' 000000  001207'
  1177  001216' 001000  000343          17380           XTHL                    ;SWITCH HO'S AND RET ADDR
  1178  001217' 001000  000345          17400           PUSH    H               ;PUT RET ADDR BACK ON STACK
  1179  001220' 001000  000353          17420           XCHG                    ;GET OLD (HL) BACK
  1180  001221' 001000  000311          17440           RET                     ;ALL DONE
  1181
  1182
  1183                                  17500           ;MOVE NUMBER FROM MEMORY [(HL)] TO FAC
  1184                                  17520           ;ALTERS B,C,D,E,H,L
  1185                                  17540           ;AT EXIT NUMBER IS IN B,C,D,E
  1186                                  17560           ;AT EXIT (HL):=(HL)+4
  1187  001222' 001000  000315          17580   MOVFM:  CALL    MOVRM           ;GET NUMBER IN REGISTERS
  1188  001223' 000000  001243'
  1189  001224' 000000  001214'
  1190                                  17600                                   ;FALL INTO MOVFR AND PUT IT IN FAC
  1191
  1192
  1193                                  17660           ;MOVE REGISTERS (B,C,D,E) TO FAC
  1194                                  17680           ;ALTERS D,E
  1195  001225' 001000  000353          17700   MOVFR:  XCHG                    ;GET LO'S IN (HL)
  1196  001226' 001000  000042          17720           SHLD    FACLO           ;PUT THEM WHERE THEY BELONG
  1197  001227' 000000  001207*
  1198  001230' 000000  001223'
  1199  001231' 001000  000140          17740           MOV     H,B             ;GET HO'S IN (HL)
  1200  001232' 001000  000151          17760           MOV     L,C
  1201  001233' 001000  000042          17780           SHLD    FAC-1           ;PUT HO'S WHERE THEY BELONG
  1202  001234' 777777  777777*
  1203  001235' 000000  001227'
  1204  001236' 001000  000353          18000           XCHG                    ;GET OLD (HL) BACK
  1205  001237' 001000  000311          18020           RET                     ;ALL DONE
  1206
  1207
  1208                                  17880           ;MOVE FAC TO REGISTERS (B,C,D,E)
  1209                                  17900           ;ALTERS B,C,D,E,H,L
  1210  001240' 001000  000041          17920   MOVRF:  LXI     H,FACLO         ;GET POINTER TO FAC
  1211  001241' 000000  001227*
  1212  001242' 000000  001234'
  1213                                  17940                                   ;FALL INTO MOVRM
  1214
  1215
  1216                                  18000           ;GET NUMBER IN REGISTERS (B,C,D,E) FROM MEMORY [(HL)]
  1217                                  18020           ;ALTERS B,C,D,E,H,L


-- PAGE 225 --------------------------------------------------------------


MATHPK FOR BASIC MCS 8080  GATES/ALLEN/DAVIDOFF MACRO 47(113) 06:09 27-AUG-75 PAGE 6-1
F4      MAC     23-AUG-64 06:08         FLOATING POINT MOVEMENT ROUTINES

  1218                                  18040           ;AT EXIT (HL):=(HL)+4
  1219  001243' 001000  000136          18060   MOVRM:  MOV     E,M             ;GET LO
  1220  001244' 001000  000043          18080           INX     H               ;POINT TO MO
  1221  001245' 001000  000126          18100           MOV     D,M             ;GET MO
  1222  001246' 001000  000043          18120           INX     H               ;POINT TO HO
  1223  001247' 001000  000116          18140           MOV     C,M             ;GET HO
  1224  001250' 001000  000043          18160           INX     H               ;POINT TO EXPONENT
  1225  001251' 001000  000106          18180           MOV     B,M             ;GET EXPONENT
  1226  001252' 001000  000043          18200   INXHRT: INX     H               ;INC POINTER TO BEGINNING OF NEXT NUMBER
  1227  001253' 001000  000311          18220           RET                     ;ALL DONE
  1228
  1229
  1230                                  18280           ;MOVE NUMBER FROM FAC TO MEMORY[(HL)]
  1231                                  18300           ;ALTERS A,B,D,E,H,L
  1232  001254' 001000  000021          18320   MOVMF:  LXI     D,FACLO         ;GET POINTER TO FAC
  1233  001255' 000000  001241*
  1234  001256' 000000  001241'
  1235                                  18340                                   ;FALL INTO MOVE
  1236
  1237
  1238                                  18400           ;MOVE NUMBER FROM (DE) TO (HL)
  1239                                  18420           ;ALTERS A,B,D,E,H,L
  1240                                  18440           ;EXITS WITH (DE):=(DE)+4
  1241  001257' 001000  000006          18460   MOVE:   MVI     B,4             ;SET COUNTER
  1242  001260' 000000  000004
  1243                                  18480   IFE     LENGTH-2,<
  1244                                  18500           XWD     1000,076        ;"MVI   A" OVER NEXT BYTE
  1245                                  18520   MOVVFM: XCHG>                   ;MOVE NUMBERS INTO THE FAC
  1246  001261' 001000  000032          18540   MOVE1:  LDAX    D               ;GET WORD ENTRY FROM VMOVMF
  1247  001262' 001000  000167          18560           MOV     M,A             ;PUT IT WHERE IT BELONGS
  1248  001263' 001000  000023          18580           INX     D               ;INCREMENT POINTERS TO NEXT WORD
  1249  001264' 001000  000043          18600           INX     H
  1250  001265' 001000  000005          18620           DCR     B               ;SEE IF DONE
  1251  001266' 001000  000302          18640           JNZ     MOVE1
  1252  001267' 000000  001261'
  1253  001270' 000000  001255'
  1254  001271' 001000  000311          18660           RET
  1255
  1256
  1257                                  18720           ;UNPACK THE FAC AND THE REGISTERS
  1258                                  18740           ;ALTERS A,C,H,L
  1259                                  18760           ;WHEN THE NUMBER IN THE FAC IS UNACKED, THE ASSUMED ONE IN THE
  1260                                  18780           ;MANTISSA IS RESTORED, AND THE COMPLEMENT OF THE SIGN IS PLACED
  1261                                  18800           ;IN FAC+1
  1262  001272' 001000  000041          18820   UNPACK: LXI     H,FAC-1         ;POINT TO HO AND SIGN
  1263  001273' 777777  777777*
  1264  001274' 000000  001267'
  1265  001275' 001000  000176          18840           MOV     A,H             ;GET HO AND SIGN
  1266  001276' 001000  000365          18860           PUSH    PSW             ;SAVE SIGN
  1267  001277' 001000  000366          18880           ORI     200             ;RESTORE THE HIDDEN ONE
  1268  001300' 000000  000200
  1269  001301' 001000  000167          18900           MOV     M,A             ;SAVE HO
  1270  001302' 001000  000361          18920           POP     PSW             ;GET SIGN


-- PAGE 226 --------------------------------------------------------------


MATHPK FOR BASIC MCS 8080  GATES/ALLEN/DAVIDOFF MACRO 47(113) 06:09 27-AUG-75 PAGE 6-2
F4      MAC     23-AUG-64 06:08         FLOATING POINT MOVEMENT ROUTINES

  1271  001303' 001000  000256          18940           XRA     M               ;GET COMPLEMENT OF SIGN IN MSB
  1272  001304' 001000  000043          18960           INX     H               ;POINT TO TEMPORARY SIGN BYTE
  1273  001305' 001000  000043          18980           INX     H
  1274  001306' 001000  000167          19000           MOV     M,A             ;SAVE COMPLEMENT OF SIGN
  1275  001307' 001000  000171          19020           MOV     A,C             ;GET HO AND SIGN OF THE REGISTERS
  1276  001310' 001000  000365          19040           PUSH    PSW             ;SAVE SIGN
  1277  001311' 000000  000366          19060           ORI     200             ;RESTORE THE HIDDEN ONE
  1278  001312' 001000  000200
  1279  001313' 001000  000117          19080           MOV     C,A             ;SAVE THE HO
  1280  001314' 001000  000361          19100           POP     PSW             ;GET THE SIGN BACK
  1281  001315' 001000  000256          19120           XRA     M               ;COMPARE SIGN OF FAC AND SIGN OF REGISTERS
  1282  001316' 001000  000311          19140           RET                     ;ALL DONE
  1283
  1284
  1285                                  19200   IFE     LENGTH-2,<
  1286                                  19220   REPEAT  0,<                     ;VPUSHF WILL BE IN-LINE IN F3
  1287                                  19240           ;PUT ANY TYPE VALUE ON THE STACK FROM FAC
  1288                                  19260           ;STRINGS ARE TREATED AS INTEGERS
  1289                                  19280           ;ALTERS A,B,C,H,L
  1290                                  19300   VPUSHF: LDA     VALTYP          ;GET THE VALUE TYPE
  1291                                  19320           CPI     4               ;SET FLAGS ACCORDING TO VALTYP
  1292                                  19340           LXI     H,FACLO         ;GET POINTER TO LO IN FAC
  1293                                  19360           PUSHM                   ;PUSH FACLO+0,1 ON THE STACK
  1294                                  19380           JM      VPUSHD          ;RETURN IF THE DATA WAS AN INTEGER OR A STRING
  1295                                  19400           PUSHM                   ;PUSH FAC-1,0 ON THE STACK
  1296                                  19420           JZ      VPUSHD          ;RETURN IF WE HAD A SINGLE PRECISION NUMBER
  1297                                  19440           LXI     D,DFACLO        ;WE HAVE A DOUBLE PRECISON NUMBER
  1298                                  19460           PUSHM                   ;PUSH ITS 4 LO BYTES ON THE STACK
  1299                                  19480           PUSHM
  1300                                  19500   VPUSHD:>                        ;ALL DONE
  1301                                  19520
  1302                                  19540
  1303                                  19560           ;MOVE ANY TYPE VALUE FROM MEMORY [(HL)] TO FAC
  1304                                  19580           ;ALTERS A,B,D,E,H,L
  1305                                  19600   VMOVFA: LXI     H,ARGLO         ;ENTER FROM DADD, MOVE ARG TO FAC
  1306                                  19620   VMOVFM: LXI     D,MOVVFM        ;GET ADDRESS OF LOCATION THAT DOES
  1307                                  19640           JMP     VMVVFM          ; AN "XCHG" AND FALLS INTO MOVE1:
  1308                                  19660
  1309                                  19680
  1310                                  19700           ;MOVE ANY TYPE VALUE FROM FAC TO MEMORY [(HL)]
  1311                                  19720           ;ALTERS A,B,D,E,H,L
  1312                                  19740   VMOVAF: LXI     H,ARGLO         ;ENTRY FROM FIN, DMUL10, DDIV10
  1313                                  19760                                   ;MOVE FAC TO ARG
  1314                                  19780   VMOVMF: LXI     D,MOVE1         ;GET ADDRESS OF MOVE SUBROUTINE
  1315                                  19800   VMVVFM: PUSH    D               ;SHOVE IT ON THE STACK
  1316                                  19820           LXI     D,FACLO         ;GET FIRST ADDRESS FROM INT, SNG
  1317                                  19840           LDA     VALTYP          ;GET THE VALUE TYPE
  1318                                  19860           ANI     177             ;STRINGS LOOK LIKE REALS
  1319                                  19880           MOV     B,A             ;SET UP THECOUNT
  1320                                  19900           CPI     10              ;DO WE HAVE DBL?
  1321                                  19920           RNZ                     ;WE DO NOT, GO DO THE MOVE
  1322                                  19940           LXI     D,DFACLO        ;WE DO, GET LO ADDR OF THE DBL NUMBER
  1323                                  19960           RET>                    ;GO DO THE MOVE


-- PAGE 227 --------------------------------------------------------------


MATHPK FOR BASIC MCS 8080  GATES/ALLEN/DAVIDOFF MACRO 47(113) 06:09 27-AUG-75 PAGE 6-3
F4      MAC     23-AUG-64 06:08         FLOATING POINT MOVEMENT ROUTINES

  1324                                  19980   PAGE


-- PAGE 228 --------------------------------------------------------------


MATHPK FOR BASIC MCS 8080  GATES/ALLEN/DAVIDOFF MACRO 47(113) 06:09 27-AUG-75 PAGE 7
F4      MAC     23-AUG-64 06:08         COMPARE TWO NUMBERS

  1325                                  20000   SUBTTL  COMPARE TWO NUMBERS
  1326                                  20020           ;COMPARE TWO SINGLE PRECISION NUMBERS
  1327                                  20040           ;A=1 IF ARG .LT. FAC
  1328                                  20060           ;A=0 IF ARG=FAC
  1329                                  20080           ;A=-1 IF ARG .GT. FAC
  1330                                  20100           ;DOREL DEPENDS UPON THE FACT THAT FCOMP RETURNS
  1331                                  20120           ; IFF A HAS 377
  1332                                  20140           ;ALTERS A,H,L
  1333  001317' 001000  000170          20160   FCOMP:  MOV     A,B             ;CHECK IF ARG IS ZERO
  1334  001320' 001000  000267          20180           ORA     A
  1335  001321' 001000  000312          20200           JZ      SIGN
  1336  001322' 000000  000000*
  1337  001323' 000000  001273'
  1338  001324' 001000  000041          20220           LXI     H,FCOMPS        ;WE JUMP TO FCOMPS WHEN WE ARE DONE
  1339  001325' 000000  001141'
  1340  001326' 000000  001322'
  1341  001327' 001000  000345          20240           PUSH    H               ;PUT THE ADDRESS ON THE STACK
  1342  001330' 001000  000357          20260           FSIGN                   ;CHECK IF FAC IS ZERO
  1343  001331' 001000  000171          20280           MOV     A,C             ;IF IT IS, RESULT IS MINUS THE SIGN OF ARG
  1344  001332' 001000  000310          20300           RZ                      ;IT IS
  1345  001333' 001000  000041          20320           LXI     H,FAC-1         ;POINT TO SIGN OF FAC
  1346  001334' 777777  777777*
  1347  001335' 000000  001325'
  1348  001336' 001000  000256          20340           XRA     M               ;SEE IF THE SIGNS ARE THE SAME
  1349  001337' 001000  000171          20360           MOV     A,C             ;IF THEY ARE DIFFERENT, RESULT IS SIGN OF ARG
  1350  001340' 001000  000370          20380           RM                      ;THEY ARE DIFFERENT
  1351  001341' 001000  000315          20400           CALL    FCOMP2          ;CHECK THE REST OF THE NUMBER
  1352  001342' 000000  001347'
  1353  001343' 000000  001334'
  1354  001344' 001000  000037          20420   FCOMPD: RAR                     ;NUMBERS ARE DIFFERENT, CHANGE SIGN IF
  1355  001345' 001000  000251          20440           XRA     C               ; BOTH NUMBERS ARE NEGATIVE
  1356  001346' 001000  000311          20460           RET                     ;GO SET UP A
  1357
  1358  001347' 001000  000043          20500   FCOMP2: INX     H               ;POINT TO EXPONENT
  1359  001350' 001000  000170          20520           MOV     A,B             ;GET EXPONENT OF ARG
  1360  001351' 001000  000276          20540           CMP     M               ;COMPARE THE TWO
  1361  001352' 001000  000300          20560           RNZ                     ;NUMBERS ARE DIFFERENT
  1362  001353' 001000  000053          20580           DCX     H               ;POINT TO HO
  1363  001354' 001000  000171          20600           MOV     A,C             ;GET HO OF ARG
  1364  001355' 001000  000276          20620           CMP     M               ;COMPARE WITH HO OF FAC
  1365  001356' 001000  000300          20640           RNZ                     ;THEY ARE DIFFERENT
  1366  001357' 001000  000053          20660           DCX     H               ;POINT TO MO OF FAC
  1367  001360' 001000  000172          20680           MOV     A,D             ;GET MO OF ARG
  1368  001361' 001000  000276          20700           CMP     M               ;COMPARE WITH MO OF FAC
  1369  001362' 001000  000300          20720           RNZ                     ;THE NUMBERS ARE DIFFERENT
  1370  001363' 001000  000053          20740           DCX     H               ;POINT TO LO OF FAC
  1371  001364' 001000  000173          20760           MOV     A,E             ;GET LO OF ARG
  1372  001365' 001000  000226          20780           SUB     M               ;SUBTRACT LO OF ARG
  1373  001366' 001000  000300          20700           RNZ                     ;NUMBERS ARE DIFFERENT
  1374  001367' 001000  000341          20820           POP     H               ;NUMBERS ARE THE SAME, DON'T SCREW UP STACK
  1375  001370' 001000  000341          20840           POP     H
  1376  001371' 001000  000311          20860           RET                     ;ALL DONE
  1377


-- PAGE 229 --------------------------------------------------------------


MATHPK FOR BASIC MCS 8080  GATES/ALLEN/DAVIDOFF MACRO 47(113) 06:09 27-AUG-75 PAGE 7-1
F4      MAC     23-AUG-64 06:08         COMPARE TWO NUMBERS

  1378                                  20900
  1379                                  20920   IFE     LENGTH-2,<
  1380                                  20940           ;COMPARE TWO INTEGERS
  1381                                  20960           ;A=1 IF (DE) .LT. (HL)
  1382                                  20980           ;A=0 IF (DE)=(HL)
  1383                                  21000           ;A=-1 IF (DE) .GT. (HL)
  1384                                  21020           ;ALTERS A ONLY
  1385                                  21040   ICOMP:  MOV     A,D             ;ARE THE SIGNS THE SAME
  1386                                  21060           XRA     H
  1387                                  21080           MOV     A,H             ;IF NOT, ANSWER IS THE SIGN OF (HL)
  1388                                  21100           JM      ICOMPS          ;THEY ARE DIFFERENT
  1389                                  21120           CMP     D               ;THEY ARE THE SAME, COMPARE THE HO'S
  1390                                  21140           JNZ     SIGNS           ;GO SET UP A
  1391                                  21160           MOV     A,L             ;COMPARE THE LO'S
  1392                                  21180           SUB     E
  1393                                  21200           JNZ     SIGNS           ;GO SET UP A
  1394                                  21220           RET                     ;ALL DONE, THEY ARE THE SAME
  1395                                  21240
  1396                                  21260
  1397                                  21280           ;COMPARE TWO DOUBLE PRECISION NUMBERS
  1398                                  21300           ;A=1 IF ARG .LT. FAC
  1399                                  21320           ;A=0 IF ARG=FAC
  1400                                  21340           ;A=-1 IF ARG .GT. FAC
  1401                                  21360           ;ALTERS A,B,C,D,E,H,L
  1402                                  21380   DCOMPD: LXI     H,ARGLO         ;ENTRY WITH POINTER TO ARG IN (DE)
  1403                                  21400           MVI     B,10            ;SET UP COUNT TO MOVE DBL NUMBERS
  1404                                  21420           CALL    MOVE1           ;MOVE THE ARGUMENT INTO ARG
  1405                                  21440   DCOMP:  LXI     D,ARG           ;GET POINTER TO ARG
  1406                                  21460           LDAX    D               ;SEE IF ARG=0
  1407                                  21480           ORA     A
  1408                                  21500           JZ      SIGN            ;ARG=0, GO SET UP A
  1409                                  21520           LXI     H,FCOMPS        ;PUSH FCOMPS ON STACK SO WE WILL RETURN TO
  1410                                  21540           PUSH    H               ; TO IT AND SET UP A
  1411                                  21560           FSIGN                   ;SEE IF FAC=0
  1412                                  21580           DCX     D               ;POINT TO SIGN OF ARG
  1413                                  21600           LDAX    D               ;GET SIGN OF ARG
  1414                                  21620           MOV     C,A             ;SAVE IT FOR LATER
  1415                                  21640           RZ                      ;FAC=0, SIGN OF RESULT IS SIGN OF ARG
  1416                                  21660           LXI     H,FAC-1         ;POINT TO SIGN OF FAC
  1417                                  21680           XRA     M               ;SEE IF THE SIGNS ARE THE SAME
  1418                                  21700           MOV     A,C             ;IF THEY ARE, GET THE SIGN OF THE NUMBERS
  1419                                  21720           RM                      ;THE SIGNS ARE DIFFERENT, GO SET A
  1420                                  21740           INX     D               ;POINT BACK TO EXPONENT OF ARG
  1421                                  21760           INX     H               ;POINT TO EXPONENT OF FAC
  1422                                  21780           MVI     B,10            ;SET UP A COUNT
  1423                                  21800   DCOMP1: LDAX    D               ;GET A BYTE FROM ARG
  1424                                  21820           SUB     M               ;COMPARE IT WITH THE FAC
  1425                                  21840           JNZ     FCOMPD          ;THEY ARE DIFFERENT, GO SET UP A
  1426                                  21860           DCX     D               ;THEY ARE THE SAME, EXAMINE THE NEXT LOWER
  1427                                  21880           DCX     H               ; ORDER BYTES
  1428                                  21900           DCR     B               ;ARE WE DONE?
  1429                                  21920           JNZ     DCOMP1          ;NO, COMPARE THE NEXT BYTES
  1430                                  21940           POP     B               ;THEY ARE THE SAME, GET FCOMPS OFF STACK


-- PAGE 230 --------------------------------------------------------------


MATHPK FOR BASIC MCS 8080  GATES/ALLEN/DAVIDOFF MACRO 47(113) 06:09 27-AUG-75 PAGE 7-2
F4      MAC     23-AUG-64 06:08         COMPARE TWO NUMBERS

  1431                                  21960           RET>                    ;ALL DONE
  1432                                  21980   PAGE


-- PAGE 231 --------------------------------------------------------------


MATHPK FOR BASIC MCS 8080  GATES/ALLEN/DAVIDOFF MACRO 47(113) 06:09 27-AUG-75 PAGE 8
F4      MAC     23-AUG-64 06:08         CONVERSION ROUTINES BETWEEN INTEGER, SINGLE AND DOUBLE PRECISION

  1433                                  22000   SUBTTL  CONVERSION ROUTINES BETWEEN INTEGER, SINGLE AND DOUBLE PRECISION
  1434                                  22020   IFE     LENGTH-2,<
  1435                                  22040           ;FORCE THE FAC TO BE AN INTEGER
  1436                                  22060           ;ALTERS A,B,C,D,E,H,L
  1437                                  22080   FRCINT: LDA     VALTYP          ;SEE WHAT WE HAVE
  1438                                  22100           CPI     4
  1439                                  22120           LHLD    FACLO           ;GET FACLO+0,1 IN CASE WE HAVE AN INTEGER
  1440                                  22140           RC                      ;WE HAVE AN INTEGER, ALL DONE
  1441                                  22160           JM      TMERR           ;WE HAVE A STRING, THAT IS A "NO-NO"
  1442                                  22180           CNZ     CONSD           ;IF WE HAVE A DBL, CONVERT IT TO A SNG
  1443                                  22200           LXI     H,OVERR         ;PUT OVERR ON THE STACK SO WE WILL GET ERROR
  1444                                  22220           PUSH    H               ; IF NUMBER IS TOO BIG
  1445                                  22240                                   ;FALL INTO CONIS
  1446                                  22260
  1447                                  22280
  1448                                  22300           ;CONVERT SINGLE PRECISION NUMBER TO INTEGER
  1449                                  22320           ;ALTERS A,B,C,D,E,H,K
  1450                                  22340   CONIS:  LDA     FAC             ;GET THE EXPONENT
  1451                                  22360           CPI     220             ;SEE IF IT IS TOO BIG
  1452                                  22380           JNC     CONIS2          ;IT IS, BUT IT MIGHT BE -32768
  1453                                  22400           CALL    QINT            ;IT ISN'T, CONVERT IT TO AN INTEGER
  1454                                  22420           XCHG                    ;PUT IT IN (HL)
  1455                                  22440   CONIS1: POP     D               ;GET ERROR ADDRESS OFF STACK
  1456                                  22460           ;ENTRY FROM SGN, FIN, LINPRT
  1457                                  22480   CONISS: SHLD    FACLO           ;STORE THE NUMBER IN FACLO
  1458                                  22500           MVI     A,2             ;SET VALTYP TO "INTEGER"
  1459                                  22520   CONISD: STA     VALTYP          ;ENTRY FROM CONDS
  1460                                  22540           RET                     ;ALL DONE
  1461                                  22560   CONIS2: MOVRI   220,200,000,000 ;CHECK IF NUMBER IS -32768, ENTRY FROM FIN
  1462                                  22580           CALL    FCOMP
  1463                                  22600           RNZ                     ;ERROR:  IT CAN'T BE CONVERTED TO AN INTEGER
  1464                                  22620           MOV     H,C             ;IT IS -32768, PUT IT IN (HL)
  1465                                  22640           MOV     L,D
  1466                                  22660           JMP     CONIS1          ;STORE IT IN THE FAC AND SET VALTYP
  1467                                  22680
  1468                                  22700
  1469                                  22720           ;FORCE THE FAC TO BE A SINGLE PRECISION NUMBER
  1470                                  22740           ;ALTERS A,B,C,D,E,H,L
  1471                                  22760   FRCSNG: LDA     VALTYP          ;SEE WHAT KIND OF NUMBER WE HAVE
  1472                                  22780           CPI     4
  1473                                  22800           RZ                      ;WE ALREADY HAVE AN INTEGER, ALL DONE
  1474                                  22820           JC      CONSI           ;WE HAVE AN INTEGER, CONVERT IT
  1475                                  22840           JM      TMERR           ;STRINGS!! -- ERROR!!
  1476                                  22860                                   ;DBL PREC -- FALL INTO CONSD
  1477                                  22880
  1478                                  22900
  1479                                  22920           ;CONVERT DOUBLE PRECISION NUMBER TO A SINGLE PRECISION ONE
  1480                                  22940           ;ALTERS A,B,C,D,E,H,L
  1481                                  22960   CONSD:  CALL    MOVRF           ;GET THE HO'S IN THE REGISTERS
  1482                                  22980           MVI     A,4             ;SET VALTYP TO "SINGLE PRECISION"
  1483                                  23000           STA     VALTYP
  1484                                  23020           MOV     A,B             ;CHECK IF THE NUMBER IS ZERO
  1485                                  23040           ORA     A


-- PAGE 232 --------------------------------------------------------------


MATHPK FOR BASIC MCS 8080  GATES/ALLEN/DAVIDOFF MACRO 47(113) 06:09 27-AUG-75 PAGE 8-1
F4      MAC     23-AUG-64 06:08         CONVERSION ROUTINES BETWEEN INTEGER, SINGLE AND DOUBLE PRECISION

  1486                                  23060           RZ                      ;IF IT IS, WE ARE DONE
  1487                                  23080           CALL    UNPACK          ;UNPACK THE NUMBER
  1488                                  23100           LXI     H,FACLO-1       ;GET FIRST BYTE BELOW A SNG NUMBER
  1489                                  23120           MOV     B,M             ;PUT IT IN B FOR ROUND
  1490                                  23140           JMP     ROUND           ;ROUND THE DBL NUMBER UP AND WE ARE DONE
  1491                                  23160
  1492                                  23180
  1493                                  23200           ;CONVERT AN INTEGER TO A SINGLE PRECISION NUMBER
  1494                                  23220           ;ALTERS A,B,C,D,E,H,L
  1495                                  23240   CONSI:  LHLD    FACLO           ;GET THE INTEGER
  1496                                  23260   CONSIH: MVI     A,4             ;SET VALTYP TO "SINGLE PRECISION"
  1497                                  23280           STA     VALTYP
  1498                                  23300           MOV     A,H             ;SET UP REGISTERS FOR FLOATR
  1499                                  23320           MOV     D,L
  1500                                  23340           MVI     E,0
  1501                                  23360           MVI     B,220
  1502                                  23380           JMP     FLOATR          ;GO FLOAT THE NUMBER
  1503                                  23400
  1504                                  23420
  1505                                  23440           ;FORCE THE FAC TO BE A DOUBLE PRECISION NUMBER
  1506                                  23460           ;ALTERS A,B,C,D,E,H,L
  1507                                  23480   FRCDBL: LDA     VALTYP          ;SEE WHAT KIND OF NUMBER WE HAVE
  1508                                  23500           CPI     10
  1509                                  23520           RZ                      ;WE ALREADY HAVE A DBL, WE ARE DONE
  1510                                  23540           JNC     TMERR           ;GIVE AN ERROR IF WE HAVE A STRING
  1511                                  23560           CPI     2               ;SEE IF WE HAVE A SNG OR INT
  1512                                  23580           CZ      CONSI           ;CONVERT TO SNG IF WE HAVE AN INT
  1513                                  23600                                   ;FALL INTO CONDS AND CONVERT TO DBL
  1514                                  23620
  1515                                  23640
  1516                                  23660           ;CONVERT A SINGLE PRECISION NUMBER TO A DOUBLE PRECISION ONE
  1517                                  23680           ;ALTERS A,H,L
  1518                                  23700   CONDS:  LXI     H,$CODE         ;ZERO H,L
  1519                                  23720           SHLD    DFACLO          ;CLEAR THE FOUR LOWER BYTES IN THE DOUBLE
  1520                                  23740           SHLD    DFACLO+2        ; PRECISION NUMBER
  1521                                  23760           MVI     A,10            ;SET VALTYP TO "DOUBLE PRECISION"
  1522                                  23780           JMP     CONISD>         ;GO FOR IT
  1523                                  23800   PAGE


-- PAGE 233 --------------------------------------------------------------


MATHPK FOR BASIC MCS 8080  GATES/ALLEN/DAVIDOFF MACRO 47(113) 06:09 27-AUG-75 PAGE 9
F4      MAC     23-AUG-64 06:08         GREATEST INTEGER FUNCTION

  1524                                  23820   SUBTTL  GREATEST INTEGER FUNCTION
  1525                                  23840           ;QUICK GREATEST INTEGER FUNCTION
  1526                                  23860           ;LEAVES INT(FAC) IN C,D,E (SIGNED)
  1527                                  23880           ;ASSUMES FAC .LT. 2^23 = 8388608
  1528                                  23900           ;ASSUMES THE EXPONENT OF FAC IS IN A
  1529                                  23920           ;ALTERS A,B,C,D,E
  1530  001372' 001000  000107          23940   QINT:   MOV     B,A             ;ZERO B,C,D,E IN CASE THE NUMBER IS ZERO
  1531  001373' 001000  000117          23960           MOV     C,A
  1532  001374' 001000  000127          23980           MOV     D,A
  1533  001375' 001000  000137          24000           MOV     E,A
  1534  001376' 001000  000267          24020           ORA     A               ;SET CONDITION CODES
  1535  001377' 001000  000310          24040           RZ                      ;IT IS ZERO, WE ARE DONE
  1536
  1537                                  24080   ;THE HARD CASE IN QINT IS NEGATIVE NON-INTEGERS.  TO HANDLE THIS, IF THE
  1538                                  24100   ;NUMBER IS NEGATIVE, WE REGARD THE 3-BYTE MANTISSA AS A 3-BYTE INTEGER AND
  1539                                  24120   ;SUBTRACT ONE.  THEN ALL THE FRACTIONAL BITS ARE SHIFTED OUT BY SHIFTING THE
  1540                                  24140   ;MANTISSA RIGHT.  THEN, IF THE NUMBER WAS NEGATIVE, WE ADD ONE.  SO, IF WE
  1541                                  24160   ;HAD A NEGATIVE INTEGER, ALL THE BITS TO THE RIGHT OF THE BINARY POINT WERE
  1542                                  24180   ;ZERO.  SO THE NET EFFECT IS WE HAVE THE ORIGINAL NUMBER IN C,D,E.  IF THE
  1543                                  24200   ;NUMBER WAS A NEGATIVE NON-INTEGER, THERE IS AT LEAST ONE NON-ZERO BIT TO THE
  1544                                  24220   ;RIGHT OF THE BINARY POINT.  SO THE NET EFFECT IS THAT WE GET THE ABSOLUTE
  1545                                  24240   ;VALUE OF INT(FAC) IN C,D,E/  C,D,E IS THEN NEGATED IF THE ORIGINAL NUMBER WAS
  1546                                  24260   ;NEGATIVE SO THE RESULT WILL BE SIGNED.
  1547  001400' 001000  000345          24280           PUSH    H               ;SAVE (HL)
  1548  001401' 001000  000315          24300           CALL    MOVRF           ;GET NUMBER IN THE REGISTERS
  1549  001402' 000000  001240'
  1550  001403' 000000  001342'
  1551  001404' 001000  000315          24320           CALL    UNPACK          ;UNPACK THE NUMBER
  1552  001405' 000000  001272'
  1553  001406' 000000  001402'
  1554  001407' 001000  000256          24340           XRA     M               ;GET SIGN OF NUMBER
  1555  001410' 001000  000147          24360           MOV     H,A             ;DON'T LOSE IT
  1556  001411' 001000  000374          24380           CM      QINTA           ;SUBTRACT 1 FROM LO IF NUMBER IS NEGATIVE
  1557  001412' 000000  001436'
  1558  001413' 000000  001405'
  1559  001414' 001000  000076          24400           MVI     A,230           ;SEE HOW MANY WE HAVE TO SHIFT TO CHANGE
  1560  001415' 000000  000230
  1561  001416' 001000  000220          24420           SUB     B               ; NUMBER TO AN INTEGER
  1562  001417' 001000  000315          24440           CALL    SHIFTR          ;SHIFT NUMBER TO GET RID OF FRACTIONAL BITS
  1563  001420' 000000  000334'
  1564  001421' 000000  001412'
  1565  001422' 001000  000174          24460           MOV     A,H             ;GET SIGN
  1566  001423' 001000  000027          24480           RAL                     ;PUT SIGN IN CARRY SO IT WILL NOT BE CHANGED
  1567  001424' 001000  000334          24500           CC      ROUNDA          ;IF NUMBER WAS NEGATIVE, ADD ONE
  1568  001425' 000000  000255'
  1569  001426' 000000  001420'
  1570  001427' 001000  000006          24520           MVI     B,0             ;FORGET THE BITS WE SHIFTED OUT
  1571  001430' 000000  000000
  1572  001431' 001000  000334          24540           CC      NEGR            ;NEGATE NUMBER IF IT WAS NEGATIVE BECAUSE WE
  1573  001432' 000000  000310'
  1574  001433' 000000  001425'
  1575                                  24560                                   ; WANT A SIGNED MANTISSA
  1576  001434' 001000  000341          24580           POP     H               ;GET OLD (HL) BACK


-- PAGE 234 --------------------------------------------------------------


MATHPK FOR BASIC MCS 8080  GATES/ALLEN/DAVIDOFF MACRO 47(113) 06:09 27-AUG-75 PAGE 9-1
F4      MAC     23-AUG-64 06:08         GREATEST INTEGER FUNCTION

  1577  001435' 001000  000311          24600           RET                     ;ALL DONE
  1578
  1579  001436' 001000  000033          24640   QINTA:  DCX     D               ;SUBTRACT ONE FROM C,D,E
  1580  001437' 001000  000172          24660           MOV     A,D             ;WE HAVE TO SUBTRACT ONE FROM C IF
  1581  001440' 001000  000243          24680           ANA     E               ; D AND E ARE BOTH ALL ONES
  1582  001441' 001000  000074          24700           INR     A               ;SEE IF BOTH WERE -1
  1583  001442' 001000  000300          24720           RNZ                     ;THEY WERE NOT, WE ARE DONE
  1584                                  24740   IFN     LENGTH-2,<
  1585  001443' 001000  000015          24760           DCR     C>              ;THEY WERE, SUBTRACT ONE FROM C
  1586                                  24780   IFE     LENGTH-2,<
  1587                                  24800   DCXBRT: DCX     B>              ;THIS IS FOR BILL.  C WILL NEVER BE ZERO
  1588                                  24820                                   ; (THE MSB WILL ALWAYS BE ONE) SO "DCX  B"
  1589                                  24840                                   ; AND "DCR      A" ARE FUNCTIONALLY EQUIVALENT
  1590  001444' 001000  000311          24860           RET                     ;ALL DONE
  1591
  1592
  1593                                  24920           ;GREATEST INTEGER FUNCTION
  1594                                  24940           ;ALTERS A,B,C,D,E,H,L
  1595                                  24960   IFE     LENGTH-2,<
  1596                                  24980   INTFNC: CPI     4               ;SEE WHAT KIND OF NUMBER WE AHVE
  1597                                  25000           RC                      ;IT IS AN INTEGER, ALL DONE
  1598                                  25020           JNZ     DINT            ;CONVERT THE DOUBLE PRECISION NUMBER
  1599                                  25040           CALL    CONIS>          ;TRY TO CONVERT THE NUMBER TO AN INTEGER
  1600                                  25060                                   ;IF WE CAN'T, WE WILL RETURN HERE TO GIVE A
  1601                                  25080                                   ; SINGLE PRECISION RESULT
  1602  001445' 001000  000041          25100   INT:    LXI     H,FAC           ;GET EXPONENT
  1603  001446' 000000  001156*
  1604  001447' 000000  001432'
  1605  001450' 001000  000176          25120           MOV     A,M
  1606  001451' 001000  000376          25140           CPI     230             ;SEE IF NUMBER HAS ANY FRACTIONAL BITS
  1607  001452' 000000  000230
  1608                                  25160   IFN     EXTFNC,<                ;THE ONLY GUY WHO NEEDS THIS DOESN'T CARE
  1609  001453' 001000  000072          25180           LDA     FACLO>          ; ABOUT THE SIGN
  1610  001454' 000000  001255*
  1611  001455' 000000  001446'
  1612  001456' 001000  000320          25200           RNC                     ;IT DOES NOT
  1613                                  25220   IFN     EXTFNC,<
  1614  001457' 001000  000176          25240           MOV     A,M>            ;GET EXPONENT BACK
  1615  001460' 001000  000315          25260           CALL    QINT            ;IT DOES, SHIFT THEM OUT
  1616  001461' 000000  001372'
  1617  001462' 000000  001454'
  1618  001463' 001000  000066          25280           MVI     M,230           ;CHANGE EXPONENT SO IT WILL BE CORRECT
  1619  001464' 000000  000230
  1620                                  25300                                   ; AFTER NORMALIZATION
  1621                                  25320   IFN     EXTFNC,<
  1622  001465' 001000  000173          25340           MOV     A,E             ;GET LO
  1623  001466' 001000  000365          25360           PUSH    PSW>            ;SAVE IT
  1624  001467' 001000  000171          25380           MOV     A,C             ;NEGATE NUMBER IF IT IS NEGATIVE
  1625  001470' 001000  000027          25400           RAL                     ;PUT SIGN IN CARRY
  1626                                  25420   IFE     EXTFNC,<
  1627                                  25440           JMP     FADFLT>         ;REFLOAT NUMBER
  1628                                  25460   IFN     EXTFNC,<
  1629  001471' 001000  000315          25480           CALL    FADFLT          ;REFLOAT NUMBER


-- PAGE 235 --------------------------------------------------------------


MATHPK FOR BASIC MCS 8080  GATES/ALLEN/DAVIDOFF MACRO 47(113) 06:09 27-AUG-75 PAGE 9-2
F4      MAC     23-AUG-64 06:08         GREATEST INTEGER FUNCTION

  1630  001472' 000000  000143'
  1631  001473' 000000  001461'
  1632  001474' 001000  000361          25500   POPPRT: POP     PSW             ;GET LO BACK
  1633  001475' 001000  000311          25520           RET>                    ;ALL DONE
  1634
  1635
  1636                                  25580   IFE     LENGTH-2,<
  1637                                  25600           ;GREATEST INTEGER FUNCTION FOR DOUBLE PRECISION NUMBERS
  1638                                  25620           ;ALTERS A,B,C,D,E,H,L
  1639                                  25640   DINT:   LXI     H,FAC           ;GET POINTER TO FAC
  1640                                  25660           MOV     A,M             ;GET EXPONENT
  1641                                  25680           CPI     220             ;CAN WE CONVERT IT TO AN INTEGER?
  1642                                  25700           JC      FRCINT          ;THEN DO SO
  1643                                  25720           JNZ     DINT2           ;CHECK FOR -32768
  1644                                  25740           MOV     C,A             ;SAVE EXPONENT IN C
  1645                                  25760           DCX     H               ;GET POINTER TO SIGN AND HO
  1646                                  25780           MOV     A,M             ;GET SIGN AND HO
  1647                                  25800           XRI     200             ;CHECK IF IT IS 200
  1648                                  25820           MVI     B,6             ;SET UP A COUNT TO CHECK IF THE REST OF
  1649                                  25840   DINT1:  DCX     H               ; THE NUMBER IS ZERO, POINT TO NEXT BYTE
  1650                                  25860           ORA     M               ;IF ANY BITS ARE NON-ZERO, A WILL BE NON-ZERO
  1651                                  25880           DCR     B               ;ARE WE DONE?
  1652                                  25900           JNZ     DINT1           ;NO, CHECK THE NEXT LOWER ORDER BYTE
  1653                                  25920           ORA     A               ;IS A NOW ZERO?
  1654                                  25940           LXI     H,200*400+$CODE ;GET -32768 JUST IN CASE
  1655                                  25960           JZ      CONISS          ;A IS ZERO SO WE AHVE -32768
  1656                                  25980           MOV     A,C             ;GET EXPONENT
  1657                                  26000   DINT2:  CPI     270             ;ARE THERE ANY FRACTIONAL BITS?
  1658                                  26020           RNC                     ;NO, THE NUMBER IS ALREADY AN INTEGER
  1659                                  26040   DINTFO: PUSH    PSW             ;ENTRY FROM FOUR, CARRY IS ZERO IF WE COME
  1660                                  26060                                   ; HERE FROM FOUT
  1661                                  26080           CALL    MOVRF           ;GET HO'S OF NUMBER IN REGISTERS FOR UNPACKING
  1662                                  26100           CALL    UNPACK          ;UNPACK IT
  1663                                  26120           XRA     M               ;GET ITS SIGN BACK
  1664                                  26140           DCX     H               ;SET THE EXPONENT TO NORMALIZE CORRECTLY
  1665                                  26160           MVI     M,270
  1666                                  26180           PUSH    PSW             ;SAVE THE SIGN
  1667                                  26200           CM      DINTA           ;SUBTRACT 1 FROM LO IF NUMBER IS NEGATIVE
  1668                                  26220           MVI     A,270           ;GET HOW MANY VITS WE HAVE TO SHIFT OUT
  1669                                  26240           SUB     B
  1670                                  26260           CALL    DSHFTR          ;SHIFT THEM OUT!!
  1671                                  26280           POP     PSW             ;GET THE SIGN BACK
  1672                                  26300           CM      DROUNA          ;IF NUMBER WAS NEGATIVE, ADD ONE
  1673                                  26320           XRA     A               ;PUT A ZERO IN THE EXTRA LO BYTE SO WHEN
  1674                                  26340           STA     DFACLO-1        ; WE NORMALIZE, WE WILL SHIFT IN ZEROS
  1675                                  26360           POP     PSW             ;IF WE WERE CALLED FROM FOUT, DON'T NORMALIZE
  1676                                  26380           RNC                     ; JUST RETURN
  1677                                  26400           JMP     DNORML          ;RE-FLOAT THE INTEGER
  1678                                  26420
  1679                                  26440   DINTA:  LXI     H,DFACLO        ;SUBTRACT ONE FROM FAC, GET POINTER TO LO
  1680                                  26460   DINTA1: MOV     A,M             ;GET A BYTE OF FAC
  1681                                  26480           DCR     M               ;SUBTRACT ONE FROM IT
  1682                                  26500           ORA     A               ;CONTINUE ONLY IF THE BYTE USED TO BE ZERO


-- PAGE 236 --------------------------------------------------------------


MATHPK FOR BASIC MCS 8080  GATES/ALLEN/DAVIDOFF MACRO 47(113) 06:09 27-AUG-75 PAGE 9-3
F4      MAC     23-AUG-64 06:08         GREATEST INTEGER FUNCTION

  1683                                  26520           INX     H               ;INCREMENT POINTER TO NEXT BYTE
  1684                                  26540           JZ      DINTA1          ;CONTINUE IF NECESSARY
  1685                                  26560           RET>                    ;ALL DONE
  1686                                  26580   PAGE


-- PAGE 237 --------------------------------------------------------------


MATHPK FOR BASIC MCS 8080  GATES/ALLEN/DAVIDOFF MACRO 47(113) 06:09 27-AUG-75 PAGE 10
F4      MAC     23-AUG-64 06:08         INTEGER ARITHMETIC ROUTINES

  1687                                  26600   SUBTTL  INTEGER ARITHMETIC ROUTINES
  1688                                  26620   IFN     MULDIM&<LENGTH-2>,<
  1689                                  26640           ;TWO BYTE UNSIGNED INTEGER MULTIPLY
  1690                                  26660           ; (HL):=(BC)*(DE)
  1691                                  26680           ;A,D,E,H,L ARE CHANGED
  1692  001476' 001000  000041          26700   DMULT:  LXI     H,$CODE         ;ZERO PRODUCT REGISTERS
  1693  001477' 000000  001153*
  1694  001500' 000000  001472'
  1695  001501' 001000  000170          26720           MOV     A,B             ;CHECK IF (BC) IS ZERO
  1696  001502' 001000  000261          26740           ORA     C               ;IF SO, JUST RETURN, (HL) IS ALREADY ZERO
  1697  001503' 001000  000310          26760           RZ                      ;THIS IS DONE FOR SPEED
  1698  001504' 001000  000076          26780           MVI     A,20            ;SET UP A COUNT
  1699  001505' 000000  000020
  1700  001506' 001000  000051          26800   DMULT1: DAD     H               ;ROTATE (HL) LEFT ONE
  1701  001507' 001000  000332          26820           JC      BSERR##         ;CHECK FOR OVERFLOW, IF SO,
  1702  001510' 000000  000000*
  1703  001511' 000000  001477'
  1704  001512' 001000  000353          26840           XCHG                    ; BAD SUBSCRIPT (BS) ERROR
  1705  001513' 001000  000051          26860           DAD     H               ;ROTATE (DE) LEFT ONE
  1706  001514' 001000  000353          26880           XCHG
  1707  001515' 001000  000322          26900           JNC     DMULT2          ;ADD IN (BC) IF HO WAS 1
  1708  001516' 000000  001524'
  1709  001517' 000000  001510'
  1710  001520' 001000  000011          26920           DAD     B
  1711  001521' 001000  000332          26940           JC      BSERR           ;CHECK FOR OVERFLOW
  1712  001522' 000000  001510*
  1713  001523' 000000  001516'
  1714  001524' 001000  000075          26960   DMULT2: DCR     A               ;SEE IF DONE
  1715  001525' 001000  000302          26980           JNZ     DMULT1
  1716  001526' 000000  001506'
  1717  001527' 000000  001522'
  1718  001530' 001000  000311          27000           RET>                    ;ALL DONE
  1719
  1720
  1721                                  27060   IFE     LENGTH-2,<
  1722                                  27080   COMMENT %
  1723                                  27100           INTEGER ARITHMETIC CONVENTIONS
  1724                                  27120
  1725                                  27140   INTEGER VARIABLES ARE 2 BYTE, SIGNED NUMBERS
  1726                                  27160           THE LOW BYTE COMES FIRST IN MEMORY
  1727                                  27180
  1728                                  27200   CALLING CONVENTIONS:
  1729                                  27220   FOR ONE ARUGMENT FUNCTIONS:
  1730                                  27240           THE ARGUMENT IS IN (HL), THE RESULT IS LEFT IN (HL)
  1731                                  27260   FOR TWO ARGUMENT OPERATIONS:    ;;
  1732                                  27280           THE FIRST ARGUMENT IS IN (DE)
  1733                                  27300           THE SECOND ARGUMENT IS IN (HL)
  1734                                  27320           THE RESULT IS LEFT IN (HL)
  1735                                  27340   IF OVERFLOW OCCURS, THE ARGUMENTS ARE CONVERTED TO SINGLE PRECISION
  1736                                  27360   WHEN INTEGERS ARE STORED IN THE FAC, THEY ARE STORED AT FACLO+0,1
  1737                                  27380   VALTYP(INTEGER)=2
  1738                                  27400   %
  1739                                  27420


-- PAGE 238 --------------------------------------------------------------


MATHPK FOR BASIC MCS 8080  GATES/ALLEN/DAVIDOFF MACRO 47(113) 06:09 27-AUG-75 PAGE 10-1
F4      MAC     23-AUG-64 06:08         INTEGER ARITHMETIC ROUTINES

  1740                                  27440
  1741                                  27460           ;INTEGER SUBTRACTION    (HL):=(DE)-(HL)
  1742                                  27480           ;ALTERS A,B,C,D,E,H,L
  1743                                  27500   ISUB:   MOV     A,H             ;EXTEND THE SIGN OF (HL) TO B
  1744                                  27520           RAL                     ;GET SIGN IN CARRY
  1745                                  27540           SBB     A
  1746                                  27560           MOV     B,A
  1747                                  27580           CALL    INEGHL          ;NEGATE (HL)
  1748                                  27600           MOV     A,C             ;GET A ZERO
  1749                                  27620           SBB     B               ;NEGATE SIGN
  1750                                  27640           JMP     IADDS           ;GO ADD THE NUMBERS
  1751                                  27660
  1752                                  27680
  1753                                  27700           ;INTEGER ADDITION       (HL):=(DE)+(HL)
  1754                                  27720           ;ALTERS A,B,C,D,E,H,L
  1755                                  27740   IADD:   MOV     A,H             ;EXTEND THE SIGN OF (HL) TO B
  1756                                  27760           RAL                     ;GET SIGN IN CARRY
  1757                                  27780           SBB     A
  1758                                  27800   IADDS:  MOV     B,A             ;SAVE THE SIGN
  1759                                  27820           PUSH    H               ;SAVE THE SECOND ARGUMENT IN CASE OF OVERFLOW
  1760                                  27840           MOV     A,D             ;EXTEND THE SIGN OF (DE) TO A
  1761                                  27860           RAL                     ;GET SIGN IN CARRY
  1762                                  27880           SBB     A
  1763                                  27900           DAD     D               ;ADD THE TWO LO'S
  1764                                  27920           ADC     B               ;ADD THE EXTRA HO
  1765                                  27940           RRC                     ;IF THE LSB OF A IS DIFFERENT FROM THE MSB OF
  1766                                  27960           XRA     H               ; H, THEN OVERFLOW OCCURRED
  1767                                  27980           JP      POPPRT          ;NO OVERFLOW, GET OLD (HL) OFF STACK AND WE
  1768                                  28000                                   ; ARE DONE
  1769                                  28020           PUSH    B               ;OVERFLOW -- SAVE EXTENDED SIGN OF (HL)
  1770                                  28040           XCHG                    ;GET (DE) IN (HL)
  1771                                  28060           CALL    CONSIH          ;FLOAT IT
  1772                                  28080           POP     PSW             ;GET SIGN OF (HL) IN A
  1773                                  28100           POP     H               ;GET OLD (HL) BACK
  1774                                  28120           CALL    PUSHF           ;PUT FIRST ARGUMENT ON STACK
  1775                                  28140           XCHG                    ;PUT SECOND ARGUMENT IN (DE) FOR FLOATR;
  1776                                  28160           CALL    INEGAD          ;FLOAT IT
  1777                                  28180           POPR                    ;GET FIRST ARGUMENT OFF STACK
  1778                                  28200           JMP     FADD            ;ADD THE TWO NUMBERS USING SINGLE PRECISION
  1779                                  28220
  1780                                  28240
  1781                                  28260           ;INTEGER MULTIPLICATION         (HL):=(DE)*(HL)
  1782                                  28280           ;ALTERS A,B,C,D,E,H,L
  1783                                  28300   IMULT:  PUSH    H               ;SAVE SECOND ARGUMENT IN CASE OF OVERFLOW
  1784                                  28320           PUSH    D               ;SAVE FIRST ARGUMENT
  1785                                  28340           CALL    IMULDV          ;FIX UP THE SIGNS
  1786                                  28360           PUSH    B               ;SAVE THE SIGN OF THE RESULT
  1787                                  28380           MOV     B,H             ;COPY SECOND ARGUMENT INTO (BC)
  1788                                  28400           MOV     C,L
  1789                                  28420           LXI     H,$CODE         ;ZERO (HL), THAT IS WHERE THE PRODUCT GOES
  1790                                  28440           MVI     A,20            ;SET UP A COUNT
  1791                                  28460   IMULT1: DAD     H               ;ROTATE PRODUCT LEFT ONE
  1792                                  28480           JC      IMULT5          ;CHECK FOR OVERFLOW


-- PAGE 239 --------------------------------------------------------------


MATHPK FOR BASIC MCS 8080  GATES/ALLEN/DAVIDOFF MACRO 47(113) 06:09 27-AUG-75 PAGE 10-2
F4      MAC     23-AUG-64 06:08         INTEGER ARITHMETIC ROUTINES

  1793                                  28500           XCHG                    ;ROTATE FIRST ARGUMENT LEFT ONE TO SEE IF
  1794                                  28520           DAD     H               ; WE ADD IN (BC) OR NOT
  1795                                  28540           XCHG
  1796                                  28560           JNC     IMULT2          ;DON'T ADD IN ANYTHING
  1797                                  28580           DAD     B               ;ADD IN (BC)
  1798                                  28600           JC      IMULT5          ;CHECK FOR OVERFLOW
  1799                                  28620   IMULT2: DCR     A               ;ARE WE DONE?
  1800                                  28640           JNZ     IMULT1          ;NO, DO IT AGAIN
  1801                                  28660           POP     B               ;WE ARE DONE, GET SIGN OF RESULT
  1802                                  28680           POP     D               ;GET ORIGINAL FIRST ARGUMENT
  1803                                  28700   IMLDIV: MOV     A,H             ;ENTRY FROM IDIV, IS RESULT .GE. 32768?
  1804                                  28720           ORA     A
  1805                                  28740           JM      IMULT3          ;IT IS, CHECK FOR SPECIAL CASE OF -32768
  1806                                  28760           POP     D               ;RESULT IS OK, GET SECOND ARGUMENT OFF STACK
  1807                                  28780           MOV     A,B             ;GET THE SIGN OF RESULT IN A
  1808                                  28800           JMP     INEGA           ;NEGATE THE RESULT IF NECESSARY
  1809                                  28820   IMULT3: XRI     200             ;IS RESULT 32768?
  1810                                  28840           ORA     L               ;NOTE: IF WE GET HERE FROM IDIV, THE RESULT
  1811                                  28860           JZ      IMULT4          ; MUST BE 32768, IT CANNOT BE GREATER
  1812                                  28880           XCHG                    ;IT IS .GT. 32768, WE HAVE OVERFLOW
  1813                                  28900           XWD     1000,001        ;"LXI   B" OVER NEXT 2 BYTES
  1814                                  28920   IMULT5: POP     B               ;GET SIGN OF RESULT OFF STACK
  1815                                  28940           POP     H               ;GET THE ORIGINAL FIRST ARGUMENT
  1816                                  28960           CALL    CONSIH          ;FLOAT IT
  1817                                  28980           POP     H               ;GET THE ORIGINAL SECOND ARGUMENT
  1818                                  29000           CALL    PUSHF           ;SAVE FLOATED FIRST ARUMENT
  1819                                  29020           CALL    CONSIH          ;FLOAT SECOND ARGUMENT
  1820                                  29040   FMULTT: POPR                    ;GET FIRST ARGUMENT OFF STACK, ENTRY FROM POLYX
  1821
  1822                                  29060           JMP     FMULT           ;MULTIPLY THE ARGUMENTS USING SINGLE PRECISION
  1823                                  29080   IMULT4: MOV     A,B             ;IS RESUKT +32768 OR -32768?
  1824                                  29100           ORA     A               ;GET ITS SIGN
  1825                                  29120           POP     B               ;DISCARD ORIGINAL SECOND ARGUMENT
  1826                                  29140           RM                      ;THE RESULT SHOULD BE NEGATIVE, IT IS OK
  1827                                  29160           PUSH    D               ;IT IS POSITIVE, SAVE REMAINDER FOR MOD
  1828                                  29180           CALL    CONSIH          ;FLOAT -32768
  1829                                  29200           POP     D               ;GET MOD'S REMAINDER BACK
  1830                                  29220           JMP     NEG             ;NEGATE -32768 TO GET 32768, WE ARE DONE
  1831                                  29240
  1832                                  29260
  1833                                  29280           ;INTEGER DIVISION       (HL):=(DE)/(HL)
  1834                                  29300           ;REMAINDER IS IN (DE), QUOTIENT IN (HL)
  1835                                  29320           ;ALTERS A,B,C,D,E,H,L
  1836                                  29340   IDIV:   MOV     A,H             ;CHECK FOR DIVISION BY ZERO
  1837                                  29360           ORA     L
  1838                                  29380           JZ      DV0ERR          ;WE HAVE DIVISION BY ZERO!!
  1839                                  29400           CALL    IMULDV          ;FIX UP THE SIGNS
  1840                                  29420           PUSH    B               ;SAVE THE SIGN OF THE RESULT
  1841                                  29440           XCHG                    ;GET DENOMINATOR IN (HL)
  1842                                  29460           CALL    INEGHL          ;NEGATE IT
  1843                                  29480           MOV     B,H             ;SAVE NEGATED DENOMINATOR IN (BC)
  1844                                  29500           MOV     C,L
  1845                                  29520           LXI     H,$CODE         ;ZERO WHERE WE DO THE SUBTRACTION


-- PAGE 240 --------------------------------------------------------------


MATHPK FOR BASIC MCS 8080  GATES/ALLEN/DAVIDOFF MACRO 47(113) 06:09 27-AUG-75 PAGE 10-3
F4      MAC     23-AUG-64 06:08         INTEGER ARITHMETIC ROUTINES

  1846                                  29540           MVI     A,21            ;SET UP A COUNT
  1847                                  29560           PUSH    PSW             ;SAVE IT
  1848                                  29580           ORA     A               ;CLEAR CARRY
  1849                                  29600           JMP     IDIV3           ;GO DIVIDE
  1850                                  29620   IDIV1:  PUSH    PSW             ;SAVE COUNT
  1851                                  29640           PUSH    H               ;SAVE (HL) I.E. CURRENT NUMERATOR
  1852                                  29660           DAD     B               ;SUBTRACT DENOMINATOR
  1853                                  29680           JNC     IDIV2           ;WE SUBTRACTED TOO MUCH, GET OLD (HL) BACK
  1854                                  29700           POP     PSW             ;THE SUBTRACTION WAS GOOD, DISCARD OLD (HL)
  1855                                  29720           STC                     ;NEXT BIT IN QUOTIENT IS A ONE
  1856                                  29740           XWD     1000,076        ;"MVI   A" OVER NEXT BYTE
  1857                                  29760   IDIV2:  POP     H               ;IGNORE THE SUBTRACTION, WE COULDN'T DO IT
  1858                                  29780   IDIV3:  MOV     A,E             ;SHIFT IN THE NEXT QUOTIENT BIT
  1859                                  29800           RAL
  1860                                  29820           MOV     E,A
  1861                                  29840           MOV     A,D             ;SHIFT THE HO
  1862                                  29860           RAL
  1863                                  29880           MOV     D,A
  1864                                  29900           MOV     A,L             ;SHIFT IN THE NEXT BIT OF THE NUMERATOR
  1865                                  29920           RAL
  1866                                  29940           MOV     L,A
  1867                                  29960           MOV     A,H             ;DO THE HO
  1868                                  29980           RAL
  1869                                  30000           MOV     H,A             ;SAVE THE HO
  1870                                  30020           POP     PSW             ;GET COUNT BACK
  1871                                  30040           DCR     A               ;ARE WE DONE?
  1872                                  30060           JNZ     IDIV1           ;NO, DIVIDE AGAIN
  1873                                  30080           XCHG                    ;GET QUOTIENT IN (HL), REMAINDER IN (DE)
  1874                                  30100           POP     B               ;GET SIGN OF RESULT
  1875                                  30120           PUSH    D               ;SAVE REMAINDER SO STACK WILL BE ALRIGHT
  1876                                  30140           JMP     IMLDIV          ;CHECK FOR SPECIAL CASE OF 32768
  1877                                  30160
  1878                                  30180
  1879                                  30200           ;GET READY TO MULTIPLY OR DIVIDE
  1880                                  30220           ;ALTERS A,B,C,D,E,H,L
  1881                                  30240   IMULDV: MOV     A,H             ;GET SIGN OF RESULT
  1882                                  30260           XRA     D
  1883                                  30280           MOV     B,A             ;SAVE IT IN B
  1884                                  30300           CALL    INEGH           ;NEGATE SECOND ARGUMENT IF NECESSARY
  1885                                  30320           XCHG                    ;PUT (DE) IN (HL), FALL IN AND NEGATE FIRST
  1886                                  30340                                   ; ARGUMENT IF NECESSARY
  1887                                  30360
  1888                                  30380
  1889                                  30400           ;NEGATE H,L
  1890                                  30420           ;ALTERS A,C,H,L
  1891                                  30440   INEGH:  MOV     A,H             ;GET SIGN OF (HL)
  1892                                  30460   INEGA:  ORA     A               ;SET CONDITION CODES
  1893                                  30480           RP                      ;WE DON'T HAVE TO NEGATE, IT IS POSITIVE
  1894                                  30500   INEGHL: XRA     A               ;CLEAR A
  1895                                  30520           MOV     C,A             ;STORE A ZERO (WE USE THIS METHOD FOR ISUB)
  1896                                  30540           SUB     L               ;NEGATE LO
  1897                                  30560           MOV     L,A             ;SAVE IT
  1898                                  30580           MOV     A,C             ;GET A ZERO BACK


-- PAGE 241 --------------------------------------------------------------


MATHPK FOR BASIC MCS 8080  GATES/ALLEN/DAVIDOFF MACRO 47(113) 06:09 27-AUG-75 PAGE 10-4
F4      MAC     23-AUG-64 06:08         INTEGER ARITHMETIC ROUTINES

  1899                                  30600           SBB     H               ;NEGATE HO
  1900                                  30620           MOV     H,A             ;SAVE IT
  1901                                  30640           RET                     ;ALL DONE
  1902                                  30660
  1903                                  30680
  1904                                  30700           ;INTEGER ABSOLUTE VALUE
  1905                                  30720           ;ALTERS A,B,C,D,E,H,L
  1906                                  30740   IABS:   LDA     FACLO+1         ;GET SIGN OF INTEGER IN FAC
  1907                                  30760           ORA     A               ;CHECK ITS SIGN
  1908                                  30780           RP                      ;IT IS POSITIVE, LEAVE IT ALONE
  1909                                  30800                                   ;FALL INTO INEG AND NEGATE IT
  1910                                  30820
  1911                                  30840
  1912                                  30860           ;INTEGER NEGATION
  1913                                  30880           ;ALTERS A,B,C,D,E,H,L
  1914                                  30900   INEG:   LHLD    FACLO           ;GET THE INTEGER
  1915                                  30920           CALL    INEGHL          ;NEGATE IT
  1916                                  30940           SHLD    FACLO           ;STORE IT BACK IN THE FAC
  1917                                  30960           XRI     200             ;CHECK FOR SPECIAL CASE OF 32768
  1918                                  30980           ORA     L
  1919                                  31000           RNZ                     ;IT DID NOT OCCUR, EVERYTHING IS FINE
  1920                                  31020           XCHG                    ;WE HAVE IT, FLOAT 32768
  1921                                  31040           MVI     A,4             ;CHANGE VALTYP TO "SINGLE PRECISION"
  1922                                  31060           STA     VALTYP
  1923                                  31080   INEGAD: MVI     B,230           ;ENTRY FROM IADD, SET EXPONENT
  1924                                  31100           JMP     FLOATR          ;GO FLOAT THE NUMBER
  1925                                  31120
  1926                                  31140
  1927                                  31160           ;MOD OPERATOR
  1928                                  31180           ;(HL):=(DE)-(DE)/(HL)*(HL),  (DE)=QUOTIENT
  1929                                  31200           ;ALTERS A,B,C,D,E,H,L
  1930                                  31220   MOD:    PUSH    D               ;SAVE (DE) FOR ITS SIGN
  1931                                  31240           CALL    IDIV            ;DIVIDE AND GET THE REMAINDER
  1932                                  31260           XCHG                    ;PUT REMAINDER IN (DE)
  1933                                  31280           MVI     A,2             ;SET VALTYP TO "INTEGER" IN CASE RESULT OF
  1934                                  31300           STA     VALTYP          ; THE DIVISION WAS 32768
  1935                                  31320           POP     PSW             ;GET THE SIGN OF (DE) BACK
  1936                                  31340           JMP     INEGA>          ;NEGATE THE REMAINDER IF NECESSARY
  1937                                  31360   PAGE


-- PAGE 242 --------------------------------------------------------------


MATHPK FOR BASIC MCS 8080  GATES/ALLEN/DAVIDOFF MACRO 47(113) 06:09 27-AUG-75 PAGE 11
F4      MAC     23-AUG-64 06:08         DOUBLE PRECISION ARITHMETIC ROUTINES

  1938                                  31380   SUBTTL  DOUBLE PRECISION ARITHMETIC ROUTINES
  1939                                  31400   IFE     LENGTH-2,<
  1940                                  31420   COMMENT %
  1941                                  31440           DOUBLE PRECISION ARITHMETIC CONVENTIONS
  1942                                  31460
  1943                                  31480   DOUBLE PRECISION NUMBERS ARE 8 BYTE QUANTITIES
  1944                                  31500   THE LAST 4 BYTES IN MEMORY ARE IN THE SAME FORMAT AS SINGLE PRECISION NUMBERS
  1945                                  31520   THE FIRST 4 BYTES ARE 32 MORE LOW ORDER BITS OF PRECISION
  1946                                  31540   THE LOWEST ORDER BYTE COMES FIRST IN MEMORY
  1947                                  31560
  1948                                  31580   CALLING CONVENTIONS:
  1949                                  31600   FOR ONE ARUGMENT FUNCTIONS:
  1950                                  31620           THE ARGUMENT IS IN THE FAC, THE RESULT IS LEFT IN THE FAC
  1951                                  31640   FOR TWO ARGUMENT OPERATIONS:
  1952                                  31660           THE FIRST ARGUMENT IS IN ARG=7,6,5,4,3,2,1,0  (NOTE: ARGLO=ARG-7)
  1953                                  31680           THE SECOND ARGUMENT IS IN THE FAC
  1954                                  31700           THE RESULT IS LEFT IN THE FAC
  1955                                  31720   VALTYP(DOUBLE PRECISION)=10 OCTAL
  1956                                  31740   %
  1957                                  31760
  1958                                  31780
  1959                                  31800           ;DOUBLE PRECISION SUBTRACTION   FAC:=ARG-FAC
  1960                                  31820           ;ALTERS ALL REGISTERS
  1961                                  31840   DSUB:   CALL    NEG             ;NEGATE THE SECOND ARGUMENT
  1962                                  31860                                   ;FALL INTO DADD
  1963                                  31880
  1964                                  31900
  1965                                  31920           ;DOUBLE PRECISION ADDITION      FAC:=ARG+FAC
  1966                                  31940           ;ALTERS ALL REGISTERS
  1967                                  31960   DADD:   LXI     H,ARG           ;GET  POINTER TO EXPONENT OF FIRST ARGUMENT
  1968                                  31980           MOV     A,H             ;CHECK IF IT IS ZERO
  1969                                  32000           ORA     A
  1970                                  32020           RZ                      ;IT IS, RESULT IS ALREADY IN FAC
  1971                                  32040           MOV     B,A             ;SAVE EXPONENT FOR UNPACKING
  1972                                  32060           DCX     H               ;POINT TO HO AND SIGN
  1973                                  32080           MOV     C,M             ;GET HO AND SIGN FOR UNPACKING
  1974                                  32100           LXI     D,FAC           ;GET POINTER TO EXPONENT OF SECOND ARGUMENT
  1975                                  32120           LDAX    D               ;GET EXPONENT
  1976                                  32140           ORA     A               ;SEE IF IT IS ZERO
  1977                                  32160           JZ      VMOVFA          ;IT IS, MOVE ARG TO FAC AND WE ARE DONE
  1978                                  32180           SUB     B               ;SUBTRACT EXPONENTS TO GET SHIFT COUNT
  1979                                  32200           JNC     DADD2           ;PUT THE SMALLER NUMBER IN FAC
  1980                                  32220           CMA                     ;NEGATE SHIFT COUNT
  1981                                  32240           INR     A
  1982                                  32260           PUSH    PSW             ;SAVE SHIFT COUNT
  1983                                  32280           PUSH    B               ;SAVE HO TO UNPACK LATER
  1984                                  32300           MVI     C,10            ;SWITCH FAC AND ARG, SET UP A COUNT
  1985                                  32320           INX     H               ;POINT TO ARG
  1986                                  32340   DADD1:  LDAX    D               ;GET A BYTE OF THE FAC
  1987                                  32360           MOV     B,M             ;GET A BYTE OF THE ARG
  1988                                  32380           MOV     M,A             ;PUT THE FAC BYTE IN ARG
  1989                                  32400           MOV     A,B             ;PUT THE ARG BYTE IN A
  1990                                  32420           STAX    D               ;PUT THE ARG BYTE IN FAC


-- PAGE 243 --------------------------------------------------------------


MATHPK FOR BASIC MCS 8080  GATES/ALLEN/DAVIDOFF MACRO 47(113) 06:09 27-AUG-75 PAGE 11-1
F4      MAC     23-AUG-64 06:08         DOUBLE PRECISION ARITHMETIC ROUTINES

  1991                                  32440           DCX     D               ;POINT TO THE NEXT LO BYTE OF FAC
  1992                                  32460           DCX     H               ;POINT TO THE NEXT LO BYTE OF ARG
  1993                                  32480           DCR     C               ;ARE WE DONE?
  1994                                  32500           JNZ     DADD1           ;NO, DO THE NEXT LO BYTE
  1995                                  32520           POP     B               ;GET THE HO BACK
  1996                                  32540           POP     PSW             ;GET THE SHIFT COUNT BACK
  1997                                  32560   DADD2:  CPI     71              ;ARE WE WITHIN 56 BITS?
  1998                                  32580           RNC                     ;NO, ALL DONE
  1999                                  32600           PUSH    PSW             ;SAVE SHIFT COUNT
  2000                                  32620           CALL    UNPACK          ;UNPACK THE NUMBERS
  2001                                  32640           MOV     B,A             ;SAVE SUBTRACTION FLAG
  2002                                  32660           MOV     A,C             ;SAVE THE UNPACKED HO
  2003                                  32680           STA     ARG-1
  2004                                  32700           POP     PSW             ;GET SHIFT COUNT
  2005                                  32720           CALL    DSHFTR          ;SHIFT FAC RIGHT THE RIGHT NUMBER OF TIMES
  2006                                  32740           ORA     B               ;GET SUBTRACTION FLAG, HERE A=0
  2007                                  32760           JP      DADD3           ;SUBTRACT NUMBERS IF THEIR SIGNS ARE DIFFERENT
  2008                                  32780           CALL    DADDAA          ;SIGNS ARE THE SAME, ADD THE NUMBERS
  2009                                  32800           JNC     DROUND          ;ROUND THE RESULT IF NO CARRY
  2010                                  32820           INR     M               ;WE HAVE OVERLOW, ADD ONE TO THE EXPONENT
  2011                                  32840           JZ      OVERR           ;CHECK FOR OVERFLOW
  2012                                  32860           MVI     D,1             ;SHIFT NUMBER RIGHT ONE, SHIFT IN CARRY
  2013                                  32880           CALL    DSHFRA
  2014                                  32900           JMP     DROUND          ;ROUND THE RESULT
  2015                                  32920   DADD3:  XWD     1000,076        ;"MVI   A", SUBTRACT THE NUMBER
  2016                                  32940           SBB     M               ;GET THE SUBTRACT INSTRUCTION IN A
  2017                                  32960           CALL    DADDA           ;SUBTRACT THE NUMBERS
  2018                                  32980           INX     H               ;POINT TO THE UNPACKED SIGN
  2019                                  33000           MOV     A,M             ;COMPLEMENT IT, SINCE THE FAC WAS SMALLER
  2020                                  33020           CMA
  2021                                  33040           MOV     M,A
  2022                                  33060           CC      DNEGR           ;NEGATE THE RESULT IF IT WAS NEATIVE
  2023                                  33080                                   ;FALL INTO DNORML
  2024                                  33100
  2025                                  33120
  2026                                  33140           ;NORMALIZE FAC
  2027                                  33160           ;ALTERS A,B,C,D,H,L
  2028                                  33180   DNORML: XRA     A               ;CLEAR SHIFT COUNT
  2029                                  33200   DNORM1: MOV     B,A             ;SAVE SHIFT COUNT
  2030                                  33220           LDA     FAC-1           ;GET HO
  2031                                  33240           ORA     A               ;SEE IF WE CAN SHIFT 8 LEFT
  2032                                  33260           JNZ     DNORM5          ;WE CAN'T, SEE IF NUMBER IS NORMALIZED
  2033                                  33280           LXI     H,DFACLO-1      ;WE CAN, GET POINTER TO LO
  2034                                  33300           MVI     C,10            ;SET UP A COUNT
  2035                                  33320   DNORM2: MOV     D,M             ;GET A BYTE OF FAC
  2036                                  33340           MOV     M,A             ;PUT IN BYTE FROM LAST LOCATION, THE FIRST
  2037                                  33360                                   ; TIME THROUGH A IS ZERO
  2038                                  33380           MOV     A,D             ;PUT THE CURRENT BYTE IN A FOR NEXT TIME
  2039                                  33400           INX     H               ;INCREMENT POINTER TO NEXT HIGHER ORDER
  2040                                  33420           DCR     C               ;ARE WE DONE?
  2041                                  33440           JNZ     DNORM2          ;NO, DO THE NEXT BYTE
  2042                                  33460           MOV     A,B             ;SUBTRACT 0 FROM SHIFT COUNT
  2043                                  33480           SUI     10


-- PAGE 244 --------------------------------------------------------------


MATHPK FOR BASIC MCS 8080  GATES/ALLEN/DAVIDOFF MACRO 47(113) 06:09 27-AUG-75 PAGE 11-2
F4      MAC     23-AUG-64 06:08         DOUBLE PRECISION ARITHMETIC ROUTINES

  2044                                  33500           CPI     300             ;HAVE WE SHIFTED ALL BYTES TO ZERO?
  2045                                  33520           JNZ     DNORM1          ;NO, TRY TO SHIFT 8 MORE
  2046                                  33540           JMP     ZERO            ;YES, THE NUMBER IS ZERO
  2047                                  33560   DNORM3: DCR     B               ;DECREMENT SHIFT COUNT
  2048                                  33580           LXI     H,DFACLO-1      ;GET POINTER TO LO
  2049                                  33600           CALL    DSHFLC          ;SHIFT THE FAC LEFT
  2050                                  33620           ORA     A               ;SEE IF NUMBER IS NORMALIZED
  2051                                  33640   DNORM5: JP      DNORM3          ;SHIFT FAC LEFT ONE IF IT IS NOT NORMALIZED
  2052                                  33660           MOV     A,B             ;GET THE SHIFT COUNT
  2053                                  33680           ORA     A               ;SEE IF NO SHIFTING WAS DONE
  2054                                  33700           JZ      DROUND          ;NONE WAS, PROCEED TO ROUND THE NUMBER
  2055                                  33720           LXI     H,FAC           ;GET POINTER TO EXPONENT
  2056                                  33740           ADD     M               ;UPDATE IT
  2057                                  33760           MOV     M,A             ;SAVE UPDATED EXPONENT
  2058                                  33780           JNC     ZERO            ;UNDERFLOW, THE RESULT IS ZERO
  2059                                  33800           RZ                      ;RESULT IS ALREADY ZERO, WE ARE DONE
  2060                                  33820                                   ;FALL INTO DROUND AND ROUND THE RESULT
  2061                                  33840
  2062                                  33860
  2063                                  33880           ;ROUND FAC2
  2064                                  33900           ;ALTERS A,B,H,L
  2065                                  33920   DROUND: LDA     DFACLO-1        ;GET EXTRA BYTE TO SEE IF WE HAVE TO ROUND
  2066                                  33940   DROUNB: ORA     A               ;ENTRY FROM DDIV
  2067                                  33960           CM      DROUNA          ;ROUND UP IF NECESSARY
  2068                                  33980           LXI     H,FAC+1         ;GET PONTER TO UNPACKED SIGN
  2069                                  34000           MOV     A,M             ;GET SIGN
  2070                                  34020           ANI     200             ;ISOLATE SIGN BIT
  2071                                  34040           DCX     H               ;POINT TO HO
  2072                                  34060           DCX     H
  2073                                  34080           XRA     M               ;PACK SIGN AND HO
  2074                                  34100           MOV     M,A             ;PUT PACKED SIGN AND HO IN FAC
  2075                                  34120           RET                     ;WE ARE DONE
  2076                                  34140
  2077                                  34160
  2078                                  34180           ;SUBROUTINE FOR ROUND: ADD ONE TO FAC
  2079                                  34200   DROUNA: LXI     H,DFACLO        ;GET POINTER TO LO, ENTRY FROM DINT
  2080                                  34220           MVI     B,7             ;SET UP A COUNT
  2081                                  34240   DRONA1: INR     M               ;INCREMENT A BYTE
  2082                                  34260           RNZ                     ;RETURN IF THERE WAS NO CARRY
  2083                                  34280           INX     H               ;INCREMENT POINTER TO NEXT HIGHER ORDER
  2084                                  34300           DCR     B               ;HAVE WE INCREMENT ALL BYTES
  2085                                  34320           JNZ     DRONA1          ;NO, TRY THE NEXT ONE
  2086                                  34340           INR     H               ;YES, INCREMENT THE EXPONENT
  2087                                  34360           JZ      OVERR           ;CHECK FOR OVERFLOW
  2088                                  34380           DCX     H               ;THE NUMBER OVERFLOWED ITS EXPONENT
  2089                                  34400           MVI     M,200           ;PUT 200 IN HO
  2090                                  34420           RET                     ;ALL DONE
  2091                                  34440
  2092                                  34460
  2093                                  34480           ;ADD OR SUBTRACT 2 DBL QUANTITIES
  2094                                  34500           ;ALTERS A,C,D,E,H,L
  2095                                  34520   DADDD:  LXI     H,FBUFFR+^D17   ;ENTRY FROM DDIV
  2096                                  34540           LXI     D,ARGLO         ;ADD OR SUBTRACT FBUFFR+17 AND ARG


-- PAGE 245 --------------------------------------------------------------


MATHPK FOR BASIC MCS 8080  GATES/ALLEN/DAVIDOFF MACRO 47(113) 06:09 27-AUG-75 PAGE 11-3
F4      MAC     23-AUG-64 06:08         DOUBLE PRECISION ARITHMETIC ROUTINES

  2097                                  34560           JMP     DADDS           ;DO THE OPERATION
  2098                                  34580
  2099                                  34600   DADDAA: XWD     1000,076        ;"MVI   A", ENTRY FROM DADD, DMULT
  2100                                  34620           ADC     M               ;SETUP ADD INSTRUCTION FOR LOOP
  2101                                  34640   DADDA:  LXI     H,ARGLO         ;GET POINTER TO ARG, ENTRY FROM DADD
  2102                                  34660   DADDFO: LXI     D,DFACLO        ;GET POINTER TO FAC, ENTRY FROM FOUT
  2103                                  34680   DADDS:  MVI     C,7             ;SET UP A COUNT
  2104                                  34700           STA     DADDOP          ;STORE THE ADD OR SUBTRACT INSTRUCTION
  2105                                  34720           XRA     A               ;CLEAR CARRY
  2106                                  34740   DADDL:  LDAX    D               ;GET A BYTE FROM RESULT NUMBER
  2107                                  34760   DADDOP: NOP                     ;THIS IS EITHER "ADC    ," OR "SBB      M"
  2108                                  34780           STAX    D               ;SAVE THE CHANGED BYTE
  2109                                  34800           INX     D               ;INCREMENT POINTERS TO NEXT HIGHER ORDER BYTE
  2110                                  34820           INX     H
  2111                                  34840           DCR     C               ;ARE WE DONE?
  2112                                  34860           JNZ     DADDL           ;NO, DO THE NEXT HIGHER ORDER BYTE
  2113                                  34880           RET                     ;ALL DONE
  2114                                  34900
  2115                                  34920
  2116                                  34940           ;NEGATE SIGNED NUMBER IN FAC
  2117                                  34960           ;THIS IS USED BY DADD, DINT
  2118                                  34980           ;ALTERS A,B,C,H,L
  2119                                  35000   DNEGR:  MOV     A,H             ;COMPLEMENT SIGN OF FAC
  2120                                  35020           CMA                     ;USE THE UNPACKED SIGN BYTE
  2121                                  35040           MOV     M,A             ;SAVE THE NEW SIGN
  2122                                  35060           LXI     H,DFACLO-1      ;GET POINTER TO LO
  2123                                  35080           MVI     B,10            ;SET UP A COUNT
  2124                                  35100           XRA     A               ;CLEAR CARRY AND GET A ZERO
  2125                                  35120           MOV     C,A             ;SAVE ZERO IN C
  2126                                  35140   DNEGR1: MOV     A,C             ;GET A ZERO
  2127                                  35160           SBB     M               ;NEGATE THE BYTE OF FAC
  2128                                  35180           MOV     M,A             ;UPDATE FAC
  2129                                  35200           INX     H               ;INCREMENT POINTER TO NEXT HIGHER ORDER BYTE
  2130                                  35220           DCR     B               ;ARE WE DONE?
  2131                                  35240           JNZ     DNEGR1          ;NO, NEGATE THE NEXT BYTE
  2132                                  35260           RET                     ;ALL DONE
  2133                                  35280
  2134                                  35300
  2135                                  35320           ;SHIFT DBL FAC RIGHT ONE
  2136                                  35340           ;A = SHIFT COUNT
  2137                                  35360           ;ALTERS A,C,D,E,H,L
  2138                                  35380   DSHFTR: LXI     H,DFACLO-1      ;GET POINTER TO LO
  2139                                  35400           MVI     M,0             ;PUT ZERO IN EXTRA LO ORDER BYTE
  2140                                  35420   DSHFR1: SUI     10              ;SEE IF WE CAN SHIFT 8 RIGHT
  2141                                  35440           JC      DSHFR3          ;WE CAN'T, CHECK IF WE ARE DONE
  2142                                  35460   DSHFRM: LXI     H,FAC-1         ;ENTRY FROM DMULT, GET POINTER TO HO
  2143                                  35480           MVI     E,0             ;SHIFT A ZERO INTO THE HO
  2144                                  35500           MVI     D,10            ;SET UP A COUNT
  2145                                  35520   DSHFR2: MOV     C,M             ;SAVE A BYTE OF FAC
  2146                                  35540           MOV     M,E             ;PUT THE LAST BYTE IN ITS PLACE
  2147                                  35560           MOV     E,C             ;SET UP E FOR NEXT TIME THROUGH THE LOOP
  2148                                  35580           DCX     H               ;POINT TO NEXT LOWER ORDER BYTE
  2149                                  35600           DCR     D               ;ARE WE DONE?


-- PAGE 246 --------------------------------------------------------------


MATHPK FOR BASIC MCS 8080  GATES/ALLEN/DAVIDOFF MACRO 47(113) 06:09 27-AUG-75 PAGE 11-4
F4      MAC     23-AUG-64 06:08         DOUBLE PRECISION ARITHMETIC ROUTINES

  2150                                  35620           JNZ     DSHFR2          ;NO, DO THE NEXT BYTE
  2151                                  35640           JMP     DSHFR1          ;YES, SEE IF WE CAN SHIFT OVER 8 MORE
  2152                                  35660   DSHFR3: ADI     11              ;CORRECT SHIFT COUNT
  2153                                  35680           MOV     D,A             ;SAVE SHIFT COUNT IN D
  2154                                  35700   DSHFR4: XRA     A               ;CLEAR CARRY
  2155                                  35720           DCR     D               ;ARE WE DONE?
  2156                                  35740           RZ                      ;YES
  2157                                  35760   DSHFRA: LXI     H,FAC-1         ;NO, GET POINTER TO LO, ENTRY FROM DADD, DMULT
  2158                                  35780           MVI     E,10            ;SET UP A COUNT, ROTATE FAC ONE LEFT
  2159                                  35800   DSHFR5: MOV     A,M             ;GET A BYTE OF THE FAC
  2160                                  35820           RAR                     ;ROTATE IT LEFT
  2161                                  35840           MOV     M,A             ;PUT THE UPDATED BYTE BACK
  2162                                  35860           DCX     H               ;DECREMENT POINTER TO NEXT LOWER ORDER BYTE
  2163                                  35880           DCR     E               ;ARE WE DONE?
  2164                                  35900           JNZ     DSHFR5          ;NO, ROTATE THE NEXT LOWER ORDER BYTE
  2165                                  35920           JMP     DSHFR4          ;YES, SEE IF WE ARE DONE SHIFTING
  2166                                  35940
  2167                                  35960
  2168                                  35980           ;ROTATE FAC LEFT ONE
  2169                                  36000           ;ALTERS A,C,H,L
  2170                                  36020   DSHFLC: MVI     C,10            ;SET UP A COUNT
  2171                                  36040   DSHFTL: MOV     A,M             ;GET A BYTE OF FAC
  2172                                  36060           RAL                     ;ROTATE IT LEFT ONE
  2173                                  36080           MOV     M,A             ;UPDATE BYTE IN FAC
  2174                                  36100           INX     H               ;INCREMENT POINTER TO NEXT HIGHER ORDER BYTE
  2175                                  36120           DCR     C               ;ARE WE DONE?
  2176                                  36140           JNZ     DSHFTL          ;NO, ROTATE THE NEXT BYTE
  2177                                  36160           RET                     ;ALL DONE
  2178                                  36180
  2179                                  36200
  2180                                  36220           ;DOUBLE PRECISION MULTIPLICATION        FAC:=ARG+FAC
  2181                                  36240           ;ALTERS ALL REGISTERS
  2182                                  36260   DMULT:  FSIGN                   ;CHECK IF WE ARE MULTIPLYING BY ZERO
  2183                                  36280           RZ                      ;YES, ALL DONE, THE FAC IS ZERO
  2184                                  36300           CALL    MULDVA          ;ADD EXPONENTS AND TAKE CARE OF SIGNS
  2185                                  36320           CALL    DMULDV          ;ZERO FAC AND PUT FAC IN FBUFFR
  2186                                  36340           MOV     M,C             ;PUT UNPACKED HO IN ARG
  2187                                  36360           LXI     D,ARGLO         ;GET POINTER TO LO OF ARG
  2188                                  36380           MVI     B,7             ;SET UP A COUNT
  2189                                  36400   DMULT2: LDAX    D               ;GET THE BYTE OF ARG TO MULTIPLY BY
  2190                                  36420           INX     D               ;INCREMENT POINTER TO NEXT HIGHER BYTE
  2191                                  36440           ORA     A               ;CHECK IF WE ARE MULTIPLYING BY ZERO
  2192                                  36460           PUSH    D               ;SAVE POINTER TO ARG
  2193                                  36480           JZ      DMULT5          ;WE ARE
  2194                                  36500           MVI     C,10            ;SET UP A COUNT
  2195                                  36520   DMULT3: PUSH    B               ;SAVE COUNTERS
  2196                                  36540           RAR                     ;ROTATE MULTIPLIER RIGHT
  2197                                  36560           MOV     B,A             ;SAVE IT
  2198                                  36580           CC      DADDAA          ;ADD IN OLD FAC IF BIT OF MULTIPIER WAS ONE
  2199                                  36600           MVI     D,1             ;ROTATE PRODUCT RIGHT ONE
  2200                                  36620           CALL    DSHFRA
  2201                                  36640           MOV     A,B             ;GET MULTIPLIER IN A
  2202                                  36660           POP     B               ;GET COUNTERS BACK


-- PAGE 247 --------------------------------------------------------------


MATHPK FOR BASIC MCS 8080  GATES/ALLEN/DAVIDOFF MACRO 47(113) 06:09 27-AUG-75 PAGE 11-5
F4      MAC     23-AUG-64 06:08         DOUBLE PRECISION ARITHMETIC ROUTINES

  2203                                  36680           DCR     C               ;ARE WE DONE WITHT HIS BYTE OF ARG?
  2204                                  36700           JNZ     DMULT3          ;NO, MULTIPLY BY THE NEXT BIT OF THE MULTIPLIER
  2205
  2206                                  36720   DMULT4: POP     D               ;YES, GET POINTER INTO ARG BACK
  2207                                  36740           DCR     B               ;ARE WE DONE?
  2208                                  36760           JNZ     DMULT2          ;NO, MULTIPLY BY NEXT HIGHER ORDER BY OF ARG
  2209                                  36780           JMP     NORMAL          ;ALL DONE, NORMALIZE AND ROUND RESULT
  2210                                  36800   DMULT5: CALL    DSHFRM          ;SHIFT PRODUCT RIGHT ONE BYTE, WE ARE
  2211                                  36820           JMP     DMULT4          ; MULTIPLYIING BY ZERO
  2212                                  36840
  2213                                  36860
  2214                                  36880           ;CONSTANT FOR DIV10, DDIV10
  2215                                  36900   DTEN:   000     ; 10D0
  2216                                  36920           000
  2217                                  36940           000
  2218                                  36960           000
  2219                                  36980   FTEN:   000     ;10.0
  2220                                  37000           000
  2221                                  37020           040
  2222                                  37040           204
  2223                                  37060
  2224                                  37080           ;DOUBLE PRECISION DIVIDE FAC BY 10
  2225                                  37100           ;ALTERS ALL REGISTERS
  2226                                  37120   DDIV10: CALL    VMOVAF          ;SAVE THE FAC IN ARG
  2227                                  37140           LXI     H,DTEN          ;GET POINTER TO A DOUBLE PRECISION 10
  2228                                  37160           CALL    VMOVFM          ;MOVE TEN INTO THE FAC
  2229                                  37180                                   ;FALL INTO DDIV AND DIVIDE BY TEN
  2230                                  37200
  2231                                  37220
  2232                                  37240           ;DOUBLE PRECISION DIVISION      FAC:=ARG/FAC
  2233                                  37260           ;ALTERS ALL REGISTERS
  2234                                  37280   DDIV:   FSIGN                   ;CHECK FOR DIVISION BY ZERO
  2235                                  37300           JZ      DV0ERR          ;DON'T LET HIM DO IT
  2236                                  37320           CALL    MULDVS          ;SUBTRACT EXPONENTS AND CHECK SIGNS
  2237                                  37340           INR     M               ;ADD TWO TO EXPONENT TO CORRECT SCALING
  2238                                  37360           INR     M
  2239                                  37380           CALL    DMULDV          ;ZERO FAC AND PUT FAC IN FBUFFR
  2240                                  37400           LXI     H,ARG           ;GET POINTE RTO THE EXTRA HO BYTE WE WILL USE
  2241                                  37420           MOV     M,C             ;ZERO IT
  2242                                  37440           MVI     B,0             ;ZERO FLAG TO SEE WHEN WE START DIVIDING
  2243                                  37460   DDIV1:  XWD     1000,076        ;"MVI   A", SUBTRACT FBUFFR FROM ARG
  2244                                  37480           SBB     M               ;GET SUBTRACT INSTRUCTION
  2245                                  37500           CALL    DADDD           ;DO THE SUBTRACTION
  2246                                  37520           LDAX    D               ;SUBTRACT FROM EXTRA HO BYTE
  2247                                  37540           SBB     C               ;HERE C=0
  2248                                  37560           CMC                     ;CARRY=1 IF SUBTRACTION WAS GOOD
  2249                                  37580           JC      DDIV2           ;WAS IT OK?
  2250                                  37600           XWD     1000,076        ;"MVI   A" NO, ADD FBUFFR BACK IN
  2251                                  37620           ADC     M               ;GET ADD INSTRUCTION
  2252                                  37640           CALL    DADDD           ;DO THE ADDITION
  2253                                  37660           XRA     A               ;CLEAR CARRY
  2254                                  37680           XWD     1000,332        ;"JC" OVER NEXT TWO BYTES
  2255                                  37700   DDIV2:  STAX    D               ;STORE THE NEW HIGHEST ORDER BYTE


-- PAGE 248 --------------------------------------------------------------


MATHPK FOR BASIC MCS 8080  GATES/ALLEN/DAVIDOFF MACRO 47(113) 06:09 27-AUG-75 PAGE 11-6
F4      MAC     23-AUG-64 06:08         DOUBLE PRECISION ARITHMETIC ROUTINES

  2256                                  37720           INR     B               ;INCREMENT FLAG TO SHOW WE COULD DIVIDE
  2257                                  37740           LDA     FAC-1           ;CHECK IF WE ARE DONE DIVIDING
  2258                                  37760           INR     A               ;SET SIGN FLAG WITHOUT AFFECTING CARRY
  2259                                  37780           DCR     A
  2260                                  37800           RAR                     ;PUT CARRY IN MSG FOR DROUND
  2261                                  37820           JM      DROUNB          ;WE ARE DONE, WE HAVE 57 BITS OF ACCURACY
  2262                                  37840           RAL                     ;GET OLD CARRY BACK WHERE IT BELONDS
  2263                                  37860           LXI     H,DFACLO        ;GET POINTE RTO LO OF FAC
  2264                                  37880           MVI     C,7             ;SET UP A COUNT, SHIFT FAC LEFT ONE
  2265                                  37900           CALL    DSHFTL          ;SHIFT IN THE NEXT BIT IN THE QUOTIENT
  2266                                  37920           LXI     H,ARGLO         ;GET POINTER TO LO IN ARG
  2267                                  37940           CALL    DSHFLC          ;SHIFT DIVIDEND ONE LEFT
  2268                                  37960           MOV     A,B             ;IS THIS THE FIRST TIME AND WAS THE
  2269                                  37980           ORA     A               ; SUBTRACTION NOT GOOD? (B WILL GET
  2270                                  38000           JNZ     DDIV1           ; CHANGED ON THE FIRST OR SECOND SUBTRACTION)
  2271                                  38020           LXI     H,FAC           ;YES, SUBTRACT ONE FROM EXPONENT TO CORRECT
  2272                                  38040           DCR     M               ; SCALING
  2273                                  38060           JNZ     DDIV1           ;CONTINUE DIVIDING IF NO OVERFLOW
  2274                                  38080           JMP     OVERR           ;WE HAVE OVERFLOW!!
  2275                                  38100
  2276                                  38120
  2277                                  38140           ;TRANSFER FAC TO FBUFFR FOR DMULT AND DDIV
  2278                                  38160           ;ALTERS A,B,C,D,E,H,L
  2279                                  38180   DMULDV: MOV     A,C             ;PUT UNPACKED HO BACK IN ARG
  2280                                  38200           STA     ARG-1
  2281                                  38220           DCX     H               ;POINT TO HO OF FAC
  2282                                  38240           LXI     D,FBUFFR+^D23   ;POINT TO END OF FBUFFR
  2283                                  38260           MVI     B,7             ;SET UP A COUNT
  2284                                  38280           MVI     C,0             ;GET A ZERO TO FILL FAC WITH
  2285                                  38300   DMLDV1: MOV     A,M             ;GET A BYTE FROM FAC
  2286                                  38320           STAX    D               ;PUT IT IN FBUFFR
  2287                                  38340           MOV     M,C             ;PUT A ZERO IN FAC
  2288                                  38360           DCX     D               ;POINT TO NEXT BYTE IN FBUFFR
  2289                                  38380           DCX     H               ;POINT TO NEXT LOWER ORDER BYTE IN FAC
  2290                                  38400           DCR     B               ;ARE WE DONE?
  2291                                  38420           JNZ     DMLDV1          ;NO, TRANSFER THE NEXT BYTE
  2292                                  38440           RET                     ;ALL DONE
  2293                                  38460
  2294                                  38480
  2295                                  38500           ;DOUBLE PRECISION MULTIPLY THE FAC BY 10
  2296                                  38520           ;ALTERS ALL REGISTERS
  2297                                  38540   DMUL10: CALL    VMOVAF          ;SAVE THE FAC IN ARG
  2298                                  38560                                   ;VMOVAF EXITS WITH (DE)=FAC+1
  2299                                  38580           XCHG                    ;GET THE POINTER INTO THE FAC IN (HL)
  2300                                  38600           DCX     H               ;POINT TO THE EXPONENT
  2301                                  38620           MOV     A,M             ;GET THE EXPONENT
  2302                                  38640           ADI     2               ;MULTIPLY FAC BY 4 BY ADDING 2 TO THE EXPONENT
  2303                                  38660           JC      OVERR           ;CHECK FOR OVERFLOW
  2304                                  38680           MOV     M,A             ;SAVE THE NEW EXPONENT
  2305                                  38700           PUSH    H               ;SAVE POINTER TO FAC
  2306                                  38720           CALL    DADD            ;ADD IN THE ORIGINAL FAC TO GET 5 TIMES  FAC
  2307                                  38740           POP     H               ;GET THE POINTER TO FAC BACK
  2308                                  38760           INR     M               ;ADD ONE TO EXPONENT TO GET 10 TIMES FAC


-- PAGE 249 --------------------------------------------------------------


MATHPK FOR BASIC MCS 8080  GATES/ALLEN/DAVIDOFF MACRO 47(113) 06:09 27-AUG-75 PAGE 11-7
F4      MAC     23-AUG-64 06:08         DOUBLE PRECISION ARITHMETIC ROUTINES

  2309                                  38780           RNZ                     ;ALL DONE IF OVERFLOW DID NOT OCCUR
  2310                                  38800           JMP     OVERR>          ;IT DID, GIVE THE APPROPRIATE MESSAGE
  2311                                  38820   PAGE


-- PAGE 250 --------------------------------------------------------------


MATHPK FOR BASIC MCS 8080  GATES/ALLEN/DAVIDOFF MACRO 47(113) 06:09 27-AUG-75 PAGE 12
F4      MAC     23-AUG-64 06:08         FLOATING POINT INPUT ROUTINE

  2312                                  38840   SUBTTL  FLOATING POINT INPUT ROUTINE
  2313                                  38860           ;ALTERS ALL REGISTERS
  2314                                  38880           ;THE NUMBER IS LEFT IN FAC
  2315                                  38900           ;AT ENTRY, (HL) POINTS TO THE FIRST CHARACTER IN A TEXT BUFFER.
  2316                                  38920           ;THE FIRST CHARACTER IS ALSO IN A.  WE PACK THE DIGITS INTO THE FAC
  2317                                  38940           ;AS AN INTEGER AND KEEP TRACK OF WHERE THE DECIMAL POINT IS.
  2318                                  38960           ;C IS 377 IF WE HAVE NOT SEEN A DECIMAL POINT, 0 IF WE HAVE.
  2319                                  38980           ;B IS THE NUMBER OF DIGITS AFTER THE DECIMAL POINT.
  2320                                  39000           ;AT THE END, B AND THE EXPONENT (IN E) ARE USED TO DETERMINE HOW MANY
  2321                                  39020           ;TIMES WE MULTIPLY OR DIVIDE BY TEN TO GET THE CORRECT NUMBER.
  2322  001531'                         39040   FIN:
  2323                                  39060   IFN     STRING,<
  2324                                  39080           ;IF WE ARE CALLED BY VAL, THE SIGNS MAY NOT BE CRUNCHED
  2325  001531' 001000  000376          39100           CPI     "-"             ;SEE IF NUMBER IS NEGATIVE
  2326  001532' 000000  000055
  2327  001533' 001000  000365          39120           PUSH    PSW             ;SAVE SIGN
  2328  001534' 001000  000312          39140           JZ      FIN1            ;IGNORE MINUS SIGN
  2329  001535' 000000  001545'
  2330  001536' 000000  001526'
  2331  001537' 001000  000376          39160           CPI     "+"             ;IGNORE A LEADING SIGN
  2332  001540' 000000  000053
  2333  001541' 001000  000312          39180           JZ      FIN1>
  2334  001542' 000000  001545'
  2335  001543' 000000  001535'
  2336  001544' 001000  000053          39200           DCX     H               ;SET CHARACTER POINTER BACK ONE
  2337  001545'                         39220   FIN1:
  2338                                  39240   IFN     LENGTH-2,<
  2339  001545' 001000  000315          39260           CALL    ZERO            ;CLEAR FAC
  2340  001546' 000000  000173'
  2341  001547' 000000  001542'
  2342  001550' 001000  000107          39280           MOV     B,A             ;CLEAR FLAGS: B=DECIMAL PLACE COUNT
  2343  001551' 001000  000127          39300           MOV     D,A             ;D=SIGN OF EXPONENT
  2344  001552' 001000  000137          39320           MOV     E,A             ;E=EXPONENT
  2345  001553' 001000  000057          39340           CMA
  2346  001554' 001000  000117          39360           MOV     C,A             ;C="." FLAG
  2347                                  39380           ;HERE TO GET THE NEXT DIGIT OF THE NUMBER, A DECIMAL POINT OR AN "E"
  2348  001555' 001000  000327          39400   FINC:   CHRGET                  ;GET A CHARACTER
  2349  001556' 001000  000332          39420           JC      FINDIG          ;DO WE HAVE A DIGIT?
  2350  001557' 000000  001702'
  2351  001560' 000000  001546'
  2352  001561' 001000  000376          39440           CPI     "."             ;TEST FOR DECIMAL POINT
  2353  001562' 000000  000056
  2354  001563' 001000  000312          39460           JZ      FINDP
  2355  001564' 000000  001635'
  2356  001565' 000000  001557'
  2357  001566' 001000  000376          39480           CPI     "E"             ;CHECK FOR BEGINNING OF EXPONENT
  2358  001567' 000000  000105
  2359  001570' 001000  000302          39500           JNZ     FINE            ;"NONE OF THE ABOVE" SO END OF NUMBER
  2360  001571' 000000  001641'
  2361  001572' 000000  001564'
  2362                                  39520           ;HERE TO CHECK FOR THE SIGN OF THE EXPONENT
  2363  001573' 001000  000327          39540           CHRGET                  ;CHECK FOR ITS SIGN
  2364                                  39560   IFN     STRING,<


-- PAGE 251 --------------------------------------------------------------


MATHPK FOR BASIC MCS 8080  GATES/ALLEN/DAVIDOFF MACRO 47(113) 06:09 27-AUG-75 PAGE 12-1
F4      MAC     23-AUG-64 06:08         FLOATING POINT INPUT ROUTINE

  2365  001574' 001000  000345          39580           PUSH    H               ;SAVE TEXT POINTER
  2366  001575' 001000  000041          39600           LXI     H,FINEC         ;PUT FINEC ON STACK SO WE CAN JUMP
  2367  001576' 000000  001621'
  2368  001577' 000000  001571'
  2369  001600' 001000  000343          39620           XTHL>                   ; TO IT IN LESS BYTES
  2370  001601' 001000  000025          39640           DCR     D               ;SET SIGN OF EXPONENT FLAG
  2371  001602' 001000  000376          39660           CPI     MINUTK          ;NEGATIVE EXPONENT?
  2372  001603' 000000  000000*
  2373                                  39680   IFE     STRING,<
  2374                                  39700           JZ      FINEC>
  2375                                  39720   IFN     STRING,<
  2376  001604' 001000  000310          39740           RZ
  2377  001605' 001000  000376          39760           CPI     "-"
  2378  001606' 000000  000055
  2379  001607' 001000  000310          39780           RZ>
  2380  001610' 001000  000024          39800           INR     D               ;NO, RESET FLAG
  2381                                  39820   IFN     STRING,<
  2382  001611' 001000  000376          39840           CPI     "+"
  2383  001612' 000000  000053
  2384  001613' 001000  000310          39860           RZ>
  2385  001614' 001000  000376          39880           CPI     PLUSTK          ;IGNORE "+"
  2386  001615' 000000  000000*
  2387                                  39900   IFE     STRING,<
  2388                                  39920           JZ      FINEC>
  2389                                  39940   IFN     STRING,<
  2390  001616' 001000  000310          39960           RZ
  2391  001617' 001000  000361          39980           POP     PSW>            ;GET FINEC OFF STACK
  2392  001620' 001000  000053          40000           DCX     H               ;CHECK IF LAST CHARACTER A DIGIT
  2393                                  40020           ;HERE TO GET THE NEXT DIGIT OF THE EXPONENT
  2394  001621' 001000  000327          40040   FINEC:  CHRGET                  ;GET NEXT CHARACTER
  2395  001622' 001000  000332          40060           JC      FINEDG          ;IS IT A DIGIT?
  2396  001623' 000000  001742'
  2397  001624' 000000  001576'
  2398  001625' 001000  000024          40080           INR     D               ;NO, EXPONENT ALL IN
  2399  001626' 001000  000302          40100           JNZ     FINE            ;SET ITS SIGN
  2400  001627' 000000  001641'
  2401  001630' 000000  001623'
  2402  001631' 001000  000257          40120           XRA     A
  2403  001632' 001000  000223          40140           SUB     E
  2404  001633' 001000  000137          40160           MOV     E,A
  2405  001634' 001000  000014          40180           INR     C               ;MAKE SURE C IS NOT 377
  2406                                  40200           ;HERE TO CHECK IF WE HAVE SEEN 2 DECIMAL POINTS AND SET THE DECIMAL
  2407                                  40220           ; POINT FLAG
  2408  001635' 001000  000013          40240   FINDP:  INR     C               ;DECIMAL POINTS!! -- SET FLAG
  2409  001636' 001000  000312          40260           JZ      FINC            ;CONTINUE SCANNING CHARACTERS
  2410  001637' 000000  001555'
  2411  001640' 000000  001627'
  2412                                  40280                                   ;WE DON'T WANT TWO SO END OF NUMBER
  2413                                  40300           ;HERE TO MULTIPLY OR DIVIDE BY 10 THE CORRECT NUMBER OF TIMES.
  2414                                  40320           ;WE HAVE ALREADY READ IN ALL THE DIGITS.
  2415  001641' 001000  000345          40340   FINE:   PUSH    H               ;SAVE POINTER FOR LATER
  2416  001642' 001000  000173          40360           MOV     A,E             ;EXPONENT=EXPONENT-# OF DECIMAL PLACES
  2417  001643' 001000  000220          40380           SUB     B


-- PAGE 252 --------------------------------------------------------------


MATHPK FOR BASIC MCS 8080  GATES/ALLEN/DAVIDOFF MACRO 47(113) 06:09 27-AUG-75 PAGE 12-2
F4      MAC     23-AUG-64 06:08         FLOATING POINT INPUT ROUTINE

  2418  001644' 001000  000364          40400   FINE2:  CP      FINMUL          ;MULTIPLY BY THEN IF EXPONENT IS POSITIVE
  2419  001645' 000000  001672'
  2420  001646' 000000  001637'
  2421  001647' 001000  000362          40420           JP      FINE3           ;DIVIDE BY TEN IF EXPONENT IS NEGATIVE
  2422  001650' 000000  001660'
  2423  001651' 000000  001645'
  2424  001652' 001000  000365          40440           PUSH    PSW             ;SAVE EXPONENT
  2425  001653' 001000  000315          40460           CALL    DIV10           ;DIVIDE NUMBER BY TEN
  2426  001654' 000000  000637'
  2427  001655' 000000  001650'
  2428  001656' 001000  000361          40480           POP     PSW             ;GET EXPONENT
  2429  001657' 001000  000074          40500           INR     A               ;INCREMENT IT
  2430  001660' 001000  000302          40520   FINE3:  JNZ     FINE2           ;DO AGAIN IF WE ARE NOT DONE
  2431  001661' 000000  001644'
  2432  001662' 000000  001654'
  2433                                  40540   IFE     STRING,<
  2434                                  40560           POP     H>              ;GET CHARACTER POINTER
  2435                                  40580   IFN     STRING,<
  2436  001663' 001000  000321          40600           POP     D               ;GET CHARACTER POINTER
  2437  001664' 001000  000361          40620           POP     PSW             ;GET SIGN
  2438  001665' 001000  000314          40640           CZ      NEG             ;NEGATE IF NECESSARY
  2439  001666' 000000  001175'
  2440  001667' 000000  001661'
  2441  001670' 001000  000353          40660           XCHG>                   ;GET CHARACTER POINTER IN (HL)
  2442  001671' 001000  000311          40680           RET>                    ;ALL DONE
  2443                                  40700   IFE     LENGTH-2,<
  2444                                  40720           XCHG                    ;SAVE THE TEXT POINTER IN (DE)
  2445                                  40740           LXI     B,377+$CODE     ;CLEAR FLAGS:  B=DECIMAL PLACE COUNT
  2446                                  40760                                   ;C="." FLAG
  2447                                  40780           MOV     H,C             ;ZERO (HL)
  2448                                  40800           MOV     L,C
  2449                                  40820           CALL    CONISS          ;ZERO FAC, SET VALTYP TO "INTEGER"
  2450                                  40840           XCHG                    ;GET THE TEXT POINTER BACK IN (HL)
  2451                                  40860           ;HERE TO CHECK FOR A DIGIT, A DECIMAL POINT, "E" OR "D"
  2452                                  40880   FINC:   CHRGET                  ;GET THE NEXT CHARACTER OF THE NUMBER
  2453                                  40900           JC      FINDIG          ;WE HAVE A DIGIT
  2454                                  40920           CPI     "."             ;CHECK FOR A DECIMAL POINT
  2455                                  40940           JZ      FINDP           ;WE HAVE ONE, I GUESS
  2456                                  40960           CPI     "E"             ;CHECK FOR A SINGLE PRECISION EXPONENT
  2457                                  40980           JZ      FINEX           ;WE HAVE A SINGLE PRECISION NUMBER
  2458                                  40000           CPI     "D"             ;CHECK FOR A DOUBLE PRECISION EXPONENT
  2459                                  41020           JNZ     FINE            ;WE DON'T HAVE ONE, THE NUMBER IS FINISHED
  2460                                  41040           ORA     A               ;DOUBLE PRECISION NUMBER -- TURN OFF ZERO FLAG
  2461                                  41060   FINEX:  CALL    FINFRC          ;FORCE THE FAC TO BE SNG OR DBL
  2462                                  41080           PUSH    H               ;SAVE THE TEXT POINTER
  2463                                  41100           LXI     H,FINEC         ;GET ADDRESS TO JUMP TO, THIS IS TO SAVE BYTES
  2464                                  41120           XTHL                    ;PUT IT ON STACK AND GET TEXT POINTER
  2465                                  41140           ;HERE TO CHECK FOR THE SIGN OF THE EXPONENT
  2466                                  41160           CHRGET                  ;GET THE FIRST CHARACTER OF THE EXPONENT
  2467                                  41180           DCR     D               ;SET SIGN OF EXPONENT TO MINUS
  2468                                  41200           CPI     MINUTK          ;CHECK IF THE EXPONENT IS NEGATIVE
  2469                                  41220           RZ                      ;IT IS
  2470                                  41240           CPI     "-"             ;THIS IS IN CASE WE ARE CALLED BY VAL


-- PAGE 253 --------------------------------------------------------------


MATHPK FOR BASIC MCS 8080  GATES/ALLEN/DAVIDOFF MACRO 47(113) 06:09 27-AUG-75 PAGE 12-3
F4      MAC     23-AUG-64 06:08         FLOATING POINT INPUT ROUTINE

  2471                                  41260           RZ
  2472                                  41280           INR     D               ;EXPONENT IS STILL POSITIVE, RESET FLAG
  2473                                  41300           CPI     PLUSTK          ;IGNORE A LEADING PLUS SIGN
  2474                                  41320           RZ
  2475                                  41340           CPI     "+"
  2476                                  41360           RZ
  2477                                  41380           DCX     H               ;THE FIRST CHARACTER WAS NOT A SIGN, GO BACK
  2478                                  41400                                   ; AND CHECK FOR A DIGIT
  2479                                  41420           POP     PSW             ;POP FINEC OFF THE STACK, WE NO LONGER NEED IT
  2480                                  41440           ;HERE TO GET THE NEXT DIGIT OF THE EXPONENT
  2481                                  41460   FINEC:  CHRGET                  ;GET THE NEXT CHARACTER
  2482                                  41480           JC      FINEDG          ;PACK THE NEXT DIGIT INTO THE EXPONENT
  2483                                  41500           INR     D               ;IT WAS NOT A DIGIT, PUT THE CORRECT SIGN ON
  2484                                  41520           JNZ     FINE            ; THE EXPONENT, IT IS POSITIVE
  2485                                  41540           XRA     A               ;THE EXPONENT IS NEGATIVE
  2486                                  41560           SUB     E               ;NEGATE IT
  2487                                  41580           MOV     E,A             ;SAVE IT AGAIN
  2488                                  41600           ;HERE TO FINISH UP THE NUMBER
  2489                                  41620   FINE:   LDA     VALTYP          ;FINISH UP -- WHAT KIND OF NUMBER IS IT?
  2490                                  41640           CPI     2
  2491                                  41660           JNZ     FINEF           ;IT IS A FLOATING POINT ONE
  2492                                  41680           ;HERE TO FINISH UP AN INTEGER
  2493                                  41700           POP     PSW             ;IT IS AN INTEGER, GET ITS SIGN
  2494                                  41720           XCHG                    ;SAVE THE TEXT POINTER IN (DE)
  2495                                  41740           CZ      INEG            ;NEGATE IT IF NECESSARY
  2496                                  41760           XCHG                    ;GET THE TEXT POINTER BACK IN (HL)
  2497                                  41780           RET                     ;ALL DONE
  2498                                  41800           ;HERE TO FINISH UP A FLOATING POINT NUMBER
  2499                                  41820   FINEF:  PUSH    H               ;SAVE THE TEXT POINTER
  2500                                  41840           MOV     A,E             ;FIND OUT HOW MANY TIMES WE HAVE TO MULTIPLY
  2501                                  41860           SUB     B               ; OR DIVIDE BY TEN
  2502                                  41880           ;HERE TO MULTIPLY OR DIVIDE BY TEN THE CORRECT NUMBER OF TIMES
  2503                                  41900   FINEF2: CP      FINMUL          ;MULTIPLY IF WE HAVE TO
  2504                                  41920           CM      FINDIV          ;DIVIDE IF WE HAVE TO
  2505                                  41940           JNZ     FINEF2          ;MULTIPLY OR DIVIDE AGAIN IF WE ARE NOT DONE
  2506                                  41960           ;HERE TO PUT THE CORRECT SIGN ON THE NUMBER
  2507                                  41980           POP     D               ;GET THE TEXT POINTER
  2508                                  42000           POP     PSW             ;GET THE SIGN
  2509                                  42020           CZ      NEG             ;NEGATE IF NECESSARY
  2510                                  42040           XCHG                    ;GET THE TEXT POINTER IN (HL)
  2511                                  42060           LDA     VALTYP          ;WE WANT -32768 TO BE AN INT, BUT UNTIL NOW
  2512                                  42080           CPI     4               ; IT WOULD BE A SNG
  2513                                  42100           RNZ                     ;IT IS NOT SNG, SO IT IS NOT -32768
  2514                                  42120           PUSH    H               ;WE HAVE A SNG, SAVE TEXT POINTER
  2515                                  42140           LXI     H,POPHRT        ;GET ADDRESS THAT POP'S H OFF STACK BECAUSE
  2516                                  42160           PUSH    H               ; CONIS2 DOES FUNNY THINGS WITH THE STACK
  2517                                  42180           CALL    CONIS2          ;CHECK IF WE HAVE -32768
  2518                                  42200           RET                     ;WE DON'T, POPHRT IS STILL ON THE STACK SO
  2519                                  42220                                   ; WE CAN JUST RETURN
  2520                                  42240
  2521                                  42260           ;HERE TO CHECK IF WE HAVE SEEN 2 DECIMAL POINTS AND SET THE DECIMAL
  2522                                  42280           ; POINT FLAG
  2523                                  42300   FINDP:  INR     C               ;SET THE FLAG


-- PAGE 254 --------------------------------------------------------------


MATHPK FOR BASIC MCS 8080  GATES/ALLEN/DAVIDOFF MACRO 47(113) 06:09 27-AUG-75 PAGE 12-4
F4      MAC     23-AUG-64 06:08         FLOATING POINT INPUT ROUTINE

  2524                                  42320           JNZ     FINEF           ;WE HAD 2 DECIMAL POINTS, NOW WE ARE DONE
  2525                                  42340           CALL    FINFRC          ;THIS IS THE FIRST ONE, CONVERT FAC TO SNG
  2526                                  42360           JMP     FINC            ;CONTINUE LOOKING FOR DIGITS
  2527                                  42380
  2528                                  42400           ;FORCE THE FAC TO BE SNG OR DBL
  2529                                  42420           ;IF THE ZERO FLAG IS ON, THEN FORCE THE FAC TO BE SNG
  2530                                  42440           ;IF THE ZERO FLAG IS OFF, FORCE THE FAC TO BE DBL
  2531                                  42460   FINFRC: PUSH    H               ;SAVE TEXT POINTER
  2532                                  42480           PUSH    D               ;SAVE EXPONENT INFORMATION
  2533                                  42500           PUSH    B               ;SAVE DECIMAL POINT INFORMATION
  2534                                  42520           PUSH    PSW             ;SAVE WHAT WE WANT THE FAC TO BE
  2535                                  42540           CZ      FRCSNG          ;CONVERT TO SNG IF WE HAVE TO
  2536                                  42560           POP     PSW             ;GET TYPE FLAG BACK
  2537                                  42580           CNZ     FRCDBL          ;CONVERT TO DBL IF WE HAVE TO
  2538                                  42600           POP     B               ;GET DECIMAL POINT INFORMATION BACK
  2539                                  42620           POP     D               ;GET EXPONENT INFORMATION BACK
  2540                                  42640           POP     H               ;GET TEXT POINTER BACK
  2541                                  42660           RET>                    ;ALL DONE
  2542
  2543                                  42700           ;THIS SUBROUTINE MULIPLIES BY TEN ONCE.
  2544                                  42720           ;IT IS A SUBROUTINE BECAUSE IT SAVES BYTES WHEN WE CHECK IF A IS ZERO
  2545  001672' 001000  000310          42740   FINMUL: RZ                      ;RETURN IF EXPONENT IS ZERO, ENTRY FROM FOUT
  2546  001673' 001000  000365          42760   FINMLT: PUSH    PSW             ;SAVE EXPONENT, ENTRY FROM FOUT
  2547                                  42780   IFN     LENGTH-2,<
  2548  001674' 001000  000315          42800           CALL    MUL10>          ;MULTIPLY BY TEN
  2549  001675' 000000  001106'
  2550  001676' 000000  001666'
  2551                                  42820   IFE     LENGTH-2,<
  2552                                  42840           LDA     VALTYP          ;SEE WHAT KIND OF NUMBER WE HAVE
  2553                                  42960           CPI     4
  2554                                  42980           PUSH    PSW             ;SAVE THE TYPE
  2555                                  42900           CZ      MUL10           ;WE HAVE A SNG, MULTIPLY BY 10.0
  2556                                  42920           POP     PSW             ;GET THE TYPE BACK
  2557                                  42940           CNZ     DMUL10>         ;WE HAVE A DBL, MULTIPLY BY 1000
  2558  001677' 001000  000361          43960           POP     PSW             ;GET EXPONENT
  2559  001700' 001000  000075          43980   DCRART: DCR     A               ;DECREASE IT
  2560  001701' 001000  000311          43000           RET                     ;ALL DONE
  2561
  2562                                  43040   IFE     LENGTH-2,<
  2563                                  43060   FINDIV: PUSH    PSW             ;WE HAVE TO DIVIDE -- SAVE COUNT
  2564                                  43080           LDA     VALTYP          ;SEE WHAT KIND OF NUMBER WE HAVE
  2565                                  43100           CPI     4
  2566                                  43120           PUSH    PSW             ;SAVE THE TYPE
  2567                                  43140           CZ      DIV10           ;WE HAVE A SNG NUMBER
  2568                                  43160           POP     PSW             ;GET THE TYPE BACK
  2569                                  43180           CNZ     DDIV10          ;WE HAVE A DBL NUMBER
  2570                                  43200           POP     PSW             ;GET COUNT BACK
  2571                                  43220           INR     A               ;UPDATE IT
  2572                                  43240           RET>
  2573
  2574                                  43280           ;HERE TO PACK THE NEXT DIGIT OF THE NUMBER INTO THE FAC
  2575                                  43300           ;WE MULTIPLY THE FAC BY TEN AND ADD IN THE NEXT DIGIT
  2576  001702'                         43320   FINDIG:


-- PAGE 255 --------------------------------------------------------------


MATHPK FOR BASIC MCS 8080  GATES/ALLEN/DAVIDOFF MACRO 47(113) 06:09 27-AUG-75 PAGE 12-5
F4      MAC     23-AUG-64 06:08         FLOATING POINT INPUT ROUTINE

  2577                                  43340   IFN     LENGTH-2,<
  2578  001702' 001000  000325          43360           PUSH    D               ;DIGITS: SAVE EXPONENT INFORMATION
  2579  001703' 001000  000127          43380           MOV     D,A             ;PROTECT DIGIT FROM BELOW
  2580  001704' 001000  000170          43400           MOV     A,B             ;INCREMENT DECIMAL PLACE COUNT
  2581  001705' 001000  000211          43420           ADC     C               ; IF PAST THE DECIMAL POINT
  2582  001706' 001000  000107          43440           MOV     B,A
  2583  001707' 001000  000305          43460           PUSH    B               ;SAVE NECESSARY DATA
  2584  001710' 001000  000345          43480           PUSH    H
  2585  001711' 001000  000325          43500           PUSH    D               ;SAVE DIGIT
  2586  001712' 001000  000315          43520           CALL    MUL10           ;MULTIPLY OLD NUMBER BY 10
  2587  001713' 000000  001106'
  2588  001714' 000000  001675'
  2589  001715' 001000  000361          43540           POP     PSW             ;GET NEXT DIGIT
  2590  001716' 001000  000326          43560           SUI     "0"             ;SUBTRACT OFF ASCII CODE
  2591  001717' 000000  000060
  2592                                  43580   IFE     EXTFNC,<
  2593                                  43600           CALL    PUSHF           ;PUT NUMBER ON STACK
  2594                                  43620           CALL    FLOAT           ;CONVERT TO FLOATING POINT NUMBER
  2595                                  43640           POPR
  2596                                  43660           CALL    FADD>           ;ADD IN NEXT DIGIT
  2597                                  43680   IFN     EXTFNC,<
  2598  001720' 001000  000315          43700           CALL    FINLOG>
  2599  001721' 000000  001731'
  2600  001722' 000000  001713'
  2601  001723' 001000  000341          43720           POP     H               ;RECALL DATA
  2602  001724' 001000  000301          43740           POP     B
  2603  001725' 001000  000321          43760           POP     D
  2604  001726' 001000  000303          43780           JMP     FINC>           ;GET NEXT CHARACTER
  2605  001727' 000000  001555'
  2606  001730' 000000  001721'
  2607                                  43800   IFE     LENGTH-2,<
  2608                                  43820           PUSH    D               ;SAVE EXPONENT INFORMATION
  2609                                  43840           MOV     A,B             ;INCREMENT DECIMAL PLACE COUNT IF WE ARE
  2610                                  43860           ADC     C               ; PAST THE DECIMAL POINT
  2611                                  43880           MOV     B,A
  2612                                  43900           PUSH    B               ;SAVE DECIMAL POINT INFORMATION
  2613                                  43920           PUSH    H               ;SAVE TEXT POINTER
  2614                                  43940           MOV     A,M             ;GET THE DIGIT
  2615                                  43960           SUI     "0"             ;CONVERT IT TO ASCII
  2616                                  43980           PUSH    PSW             ;SAVE THE DIGIT
  2617                                  44000           LDA     VALTYP          ;SEE WHAT KIND OF NUMBER WE HAVE
  2618                                  44020           CPI     4
  2619                                  44040           JNC     FINDGV          ;WE DO NOT HAVE AN INTEGER
  2620                                  44060           ;HERE TO PACK THE NEXT DIGIT OF AN INTEGER
  2621                                  44080           LHLD    FACLO           ;WE HAVE AN INTEGER, GET IT IN (HL)
  2622                                  44100           LXI     D,^D3277+$CODE  ;SEE IF WE WILL OVERFLOW
  2623                                  44120           COMPAR                  ;COMPAR RETURNS WITH CARRY ON IF
  2624                                  44140           JNC     FINDG2          ; (HL) .LT. (DE), SO THE NUMBER IS TOO BIG
  2625                                  44160           MOV     D,H             ;COPY (HL) INTO (DE)
  2626                                  44180           MOV     E,L
  2627                                  44200           DAD     H               ;MULTIPLY (HL) BY 2
  2628                                  44220           DAD     H               ;MULTIPLY (HL) BY 2, (HL) NOW IS 4*(DE)
  2629                                  44240           DAD     D               ;ADD IN OLD (HL) TO GET 5*(DE)


-- PAGE 256 --------------------------------------------------------------


MATHPK FOR BASIC MCS 8080  GATES/ALLEN/DAVIDOFF MACRO 47(113) 06:09 27-AUG-75 PAGE 12-6
F4      MAC     23-AUG-64 06:08         FLOATING POINT INPUT ROUTINE

  2630                                  44260           DAD     H               ;MULTIPLY BY 2 TO GET TEN TIMES THE OLD (HL)
  2631                                  44280           POP     PSW             ;GET THE DIGIT
  2632                                  44300           MOV     C,A             ;SAVE IT SO WE CAN USE DAD, B IS ALREADY ZERO
  2633                                  44320           DAD     B               ;ADD IN THE NEXT DIGIT
  2634                                  44340           MOV     A,H             ;CHECK FOR OVERFLOW
  2635                                  44360           ORA     A               ;OVERFLOW OCCURRED IF THE MSB IS ON
  2636                                  44380           JM      FINDG1          ;WE HAVE OVERFLOW!!
  2637                                  44400           SHLD    FACLO           ;EVERYTHING IS FINE, STORE THE NEW NUMBER
  2638                                  44420   FINDGE: POP     H               ;ALL DONE, GET THE TEXT POINTER BACK
  2639                                  44440           POP     B               ;GET DECIMAL POINT INFORMATION BACK
  2640                                  44460           POP     D               ;GET EXPONENT INFORMATION BACK
  2641                                  44480           JMP     FINC            ;GET THE NEXT CHARACTER
  2642                                  44500           ;HERE TO HANDLE 32768, 32769
  2643                                  44520   FINDG1: MOV     A,C             ;GET THE DIGIT
  2644                                  44540           PUSH    PSW             ;PUT IT BACK ON THE STACK
  2645                                  44560           ;HERE TO CONVERT THE INTEGER DIGITS TO SINGLE PRECISION DIGITS
  2646                                  44580   FINDG2: CALL    CONSI           ;CONVERT THE INTEGER TO SINGLE PRECISION
  2647                                  44600           XRA     A               ;DO NOT TAKE THE FOLLOWING JUMP
  2648                                  44620           ;HERE TO DECIDE IF WE HAVE A SINGLE OR DOUBLE PRECISION NUMBER
  2649                                  44640   FINDGV: JNZ     FINDGD          ;FALL THROUGH IF VALTYP WAS 4 I.E. SNG PREC
  2650                                  44660           MOVRI   224,164,044,000 ;GET 1000000, DO WE HAVE 7 DIGITS ALREADY?
  2651                                  44680           CALL    FCOMP           ;IF SO, FAC .GE. 1000000
  2652                                  44700           JP      FINDG3          ;WE DO, CONVERT TO DOUBLE PRECISION
  2653                                  44720           POP     PSW             ;GET THE NEXT DIGIT
  2654                                  44740           CALL    FINLOG          ;PACK IT INTO THE FAC
  2655                                  44760           JMP     FINDGE          ;GET FLAGS OFF STACK AND WE ARE DONE
  2656                                  44780           ;HERE TO CONVERT A 7 DIGIT SINGLE PRECISION NUMBER TO DOUBLE PRECISION
  2657                                  44800   FINDG3: CALL    CONDS           ;CONVERT SINGLE TO DOUBLE PRECISION
  2658                                  44820           ;HERE TO PACK IN THE NEXT DIGIT OF A DOUBLE PRECISION NUMBER
  2659                                  44840   FINDGD: CALL    DMUL10          ;MULTIPLY THE FAC BY 10
  2660                                  44860           CALL    VMOVAF          ;SAVE THE FAC IN ARG
  2661                                  44880           POP     PSW             ;GET THE NEXT DIGIT
  2662                                  44900           CALL    FLOAT           ;CONVERT THE DIGIT TO SINGLE PRECISION
  2663                                  44920           CALL    CONDS           ;NOW, CONVERT THE DIGIT TO DOUBLE PRECISION
  2664                                  44940           CALL    DADD            ;ADD IN THE DIGIT
  2665                                  44960           JMP     FINDGE>         ;GET THE FLAGS OFF THE STACK AND WE ARE DONE
  2666
  2667                                  45000   IFN     EXTFNC,<
  2668                                  45020           ;SUBROUTINE FOR FIN, LOG
  2669  001731' 001000  000315          45040   FINLOG: CALL    PUSHF           ;SAVE FAC ON STACK
  2670  001732' 000000  001205'
  2671  001733' 000000  001727'
  2672  001734' 001000  000315          45060           CALL    FLOAT           ;CONVERT A TO A FLOATING POINT NUMBER
  2673  001735' 000000  001150'
  2674  001736' 000000  001732'
  2675                                  45080   IFN     LENGTH-2,<
  2676  001737' 001000  000303          45100           JMP     FADDT>          ;ADD IT IN
  2677  001740' 000000  000023'
  2678  001741' 000000  001735'
  2679                                  45120   IFE     LENGTH-2,<
  2680                                  45140           POPR                    ;GET PREVIOUS NUMBER OFF STACK
  2681                                  45160           JMP     FADD>>          ;ADD IT IN
  2682


-- PAGE 257 --------------------------------------------------------------


MATHPK FOR BASIC MCS 8080  GATES/ALLEN/DAVIDOFF MACRO 47(113) 06:09 27-AUG-75 PAGE 12-7
F4      MAC     23-AUG-64 06:08         FLOATING POINT INPUT ROUTINE

  2683                                  45200           ;HERE WE PACK IN THE NEXT DIGIT OF THE EXPONENT
  2684                                  45220           ;WE MULTIPLY THE OLD EXPONENT BY TEN AND ADD IN THE NEXT DIGIT
  2685                                  45240           ;NOTE: EXPONENT OVERFLOW IS NOT CHECKED FOR
  2686  001742' 001000  000173          45260   FINEDG: MOV     A,E             ;EXPONENT DIGIT -- MULTIPLY EXPONENT BY 10
  2687  001743' 001000  000007          45280           RLC                     ;FIRST BY 4
  2688  001744' 001000  000007          45300           RLC
  2689  001745' 001000  000203          45320           ADD     E               ;ADD 1 TO MAKE 5
  2690  001746' 001000  000007          45340           RLC                     ;NOW DOUBLE TO GET 10
  2691  001747' 001000  000206          45360           ADD     M               ;ADD IT IN
  2692  001750' 001000  000326          45380           SUI     "0"             ;SUBTRACT OFF ASCII CODE
  2693  001751' 000000  000060
  2694  001752' 001000  000137          45400           MOV     E,A             ;STORE EXPONENT
  2695  001753' 001000  000303          45420           JMP     FINEC           ;CONTINUE
  2696  001754' 000000  001621'
  2697  001755' 000000  001740'
  2698                                  45440   PAGE


-- PAGE 258 --------------------------------------------------------------


MATHPK FOR BASIC MCS 8080  GATES/ALLEN/DAVIDOFF MACRO 47(113) 06:09 27-AUG-75 PAGE 13
F4      MAC     23-AUG-64 06:08         FLOATING POINT OUTPUT ROUTINE

  2699                                  45460   SUBTTL  FLOATING POINT OUTPUT ROUTINE
  2700                                  45480           ;ENTRY TO LINPRT
  2701  001756' 001000  000345          45500   INPRT:  PUSH    H               ;SAVE LINE NUMBER
  2702  001757' 001000  000041          45520           LXI     H,INTXT##       ;PRINT MESAGE
  2703  001760' 000000  000000*
  2704  001761' 000000  001754'
  2705  001762' 001000  000315          45540           CALL    STROUT
  2706  001763' 000000  000000*
  2707  001764' 000000  001760'
  2708  001765' 001000  000341          45560           POP     H               ;FALL INTO LINPRT
  2709
  2710
  2711                                  45620           ;PRINT THE 2 BYTE NUMBER IN H,L
  2712                                  45640           ;ALTERS ALL REGISTERS
  2713  001766'                         45660   LINPRT:
  2714                                  45700   IFN     LENGTH-2,<
  2715  001766' 001000  000353          45720           XCHG                    ;SET UP REGISTERS FOR FLOATR
  2716  001767' 001000  000257          45740           XRA     A
  2717  001770' 001000  000006          45760           MVI     B,230
  2718  001771' 000000  000230
  2719  001772' 001000  000315          45760           CALL    FLOATR          ;CONVERT TO FLOATING POINT
  2720  001773' 000000  001155'
  2721  001774' 000000  001763'
  2722                                  45780   IFE     LENGTH-2,<
  2723                                  45800           CALL    CONISS          ;PUT THE LINE NUMBER IN THE FAC AS AN INTEGER
  2724                                  45820           XRA     A               ;SET FORMAT TO FREE FORMAT
  2725                                  45840           CALL    FOUINI          ;SET UP THE SIGN
  2726  001775' 001000  000041          45860           LXI     H,STROUI##      ;PUT PRINT STRING ADDRESS ON STACK SO WE WILL
  2727  001776' 000000  000000*
  2728  001777' 000000  001773'
  2729  002000' 001000  000345          45880           PUSH    H               ; RETURN TO IT AND DO AN "INX   H"
  2730                                  45900                                   ;THIS GETS RID OF THE SPACE FOR THE SIGN AT
  2731                                  45920                                   ; THE BEGINNING OF A LINE NUMBER
  2732                                  45940                                   ;FALL INTO FOUT
  2733                                  45960   IFE     LENGTH-2,<
  2734                                  45980           PUSH    B               ;PUT DUMMY FIELD LENGTHS ON STACK
  2735                                  46000           JMP     STROUI##        ;PRINT THE NUMBER
  2736
  2737
  2738                                  46060           ;FLOATING OUTPUT OF FAC
  2739                                  46080           ;ALTERS ALL REGISTERS
  2740                                  46100           ;THE ORIGINAL CONTENTS OF THE FAC IS LOST
  2741                                  46120   IFN     LENGTH-2,<
  2742  002001' 001000  000041          46140   FOUT:   LXI     H,FBUFFR        ;GET BEGINING OF CHARACTER BUFFER
  2743  002002' 000000  000000*
  2744  002003' 000000  001776'
  2745  002004' 001000  000345          46160           PUSH    H               ;SAVE IT FOR WHEN WE RETURN
  2746                                  46180           ;PUT THE SIGN OF THE NUMBER IN THE BUFFER AND MAKE IT POSITIVE
  2747  002005' 001000  000357          46200           FSIGN                   ;GET SIGN OF NUMBER
  2748  002006' 001000  000066          46220           MVI     M," "           ;PRINT SPACE IF POSITIVE
  2749  002007' 000000  000040
  2750  002010' 001000  000362          46240           JP      FOUT1
  2751  002011' 000000  002015'


-- PAGE 259 --------------------------------------------------------------


MATHPK FOR BASIC MCS 8080  GATES/ALLEN/DAVIDOFF MACRO 47(113) 06:09 27-AUG-75 PAGE 13-1
F4      MAC     23-AUG-64 06:08         FLOATING POINT OUTPUT ROUTINE

  2752  002012' 000000  002002'
  2753  002013' 001000  000066          46260           MVI     M,"-"           ;PRINT A MINUS SIGN IF NEGATIVE
  2754  002014' 000000  000055
  2755  002015' 001000  000043          46280   FOUT1:  INX     H               ;INCREMENT POINTER TO NEXT CHRACTER POSIT
  2756  002016' 001000  000066          46300           MVI     M,"0"           ;PUT A ZERO IN BUFFER IN CASE NUMBER=0
  2757  002017' 000000  000060
  2758  002020' 001000  000312          46320           JZ      FOUT19          ;DO IT IF THE NUMBER IS ZERO
  2759  002021' 000000  002266'
  2760  002022' 000000  002011'
  2761  002023' 001000  000345          46340           PUSH    H               ;SAVE BUFFER POINTER
  2762  002024' 001000  000374          46360           CM      NEG             ;NEGATE NUMBER IF NEGATIVE
  2763  002025' 000000  001175'
  2764  002026' 000000  002021'
  2765
  2766                                  46400   ;HERE WE GET THE FAC IN THE RANGE 100000 .LE. FAC .LE. 999999 AND ROUND IT TO
  2767                                  46420   ;AN INTEGER.  WE KEEP A COUNT OF HOW MANY TIMES WE MULTIPLY OR DIVIDE BY TEN
  2768                                  46440   ;SO WE KNOW WHAT THE EXPONENT WILL BE.  THE FAC IS THEN CONVERTED TO AN
  2769                                  46460   ;INTEGER IN C,D,E.  WE USE A TABLE OF POWERS OF TEN TO CALCULATE EACH DIGIT.
  2770                                  46480   ;THIS ALGORITHM IS USED FOR SPEED.
  2771  002027' 001000  000257          46500           XRA     A               ;PUT TEN'S EXPONENT COUNT ON STACK
  2772  002030' 001000  000365          46520           PUSH    PSW
  2773  002031' 001000  000315          46540           CALL    FOUTCB          ;SEE IF NUMBER IS TOO BIG OR TOO SMALL
  2774  002032' 000000  002274'
  2775  002033' 000000  002025'
  2776  002034' 001000  000001          46560   FOUT3:  MOVRI   221,103,117,370 ;IS NUMBER .LE. 99999.9499?  IT IS TOO SMALL
  2777  002035' 000000  000103
  2778  002036' 000000  000221
  2779  002037' 001000  000021
  2780  002040' 000000  000370
  2781  002041' 000000  000117
  2782  002042' 001000  000315          46580           CALL    FCOMP           ;FCOMP RETURNS 377, 0 OR 1 IN A, SO THE
  2783  002043' 000000  001317'
  2784  002044' 000000  002032'
  2785                                  46600                                   ; PARITY WILL BE OFF IFF 1 IS RETURN
  2786  002045' 001000  000342          46620           JPO     FOUT5           ;NO, NUMBER IS IN RANGE
  2787  002046' 000000  002071'
  2788  002047' 000000  002043'
  2789  002050' 001000  000361          46640           POP     PSW
  2790  002051' 001000  000315          46660           CALL    FINMLT          ;YES, MULTIPLY IT BY TEN TO GET
  2791  002052' 000000  001673'
  2792  002053' 000000  002046'
  2793  002054' 001000  000365          46680           PUSH    PSW             ; IT IN RANGE
  2794  002055' 001000  000303          46700           JMP     FOUT3           ;SEE IF NUMBER IS NOW IN RANGE
  2795  002056' 000000  002034'
  2796  002057' 000000  002052'
  2797  002060' 001000  000315          46720   FOUT9:  CALL    DIV10           ;NO, DIVIDE NUMBER BY TEN, IT IS TOO BIG
  2798  002061' 000000  000637'
  2799  002062' 000000  002056'
  2800  002063' 001000  000361          46740           POP     PSW             ;ADD ONE TO EXPONENT
  2801  002064' 001000  000074          46760           INR     A
  2802  002065' 001000  000365          46780           PUSH    PSW
  2803  002066' 001000  000315          46800           CALL    FOUTCB          ;IS NUMBER .LE. 999999.499?
  2804  002067' 000000  002274'


-- PAGE 260 --------------------------------------------------------------


MATHPK FOR BASIC MCS 8080  GATES/ALLEN/DAVIDOFF MACRO 47(113) 06:09 27-AUG-75 PAGE 13-2
F4      MAC     23-AUG-64 06:08         FLOATING POINT OUTPUT ROUTINE

  2805  002070' 000000  002061'
  2806                                  46820                                   ;YES, NUMBER IS IN PRINTING RANGE, I.E.
  2807                                  46840                                   ; ALL DIGITS TO BE PRINTED ARE THE INTEGER PART
  2808
  2809  002071' 001000  000315          46860   FOUT5:  CALL    FADDH           ;ROUND NUMBER TO NEAREST INTEGER
  2810  002072' 000000  000000'
  2811  002073' 000000  002067'
  2812  002074' 001000  000074          46880           INR     A               ;MAKE A NON-ZERO, SINCE NUMBER IS POSITIVE
  2813                                  46900                                   ; AND NON-ZERO, ROUND WILL EXIT WITH THE HO
  2814                                  46920                                   ; IN A, SO THE MSB WILL ALWAYS BE ZERO AND
  2815                                  46940                                   ; ADDING ONE WILL NEVER CAUSE A TO BE ZERO
  2816  002075' 001000  000315          46960           CALL    QINT            ;GET INTEGER PART IN C,D,E
  2817  002076' 000000  001372'
  2818  002077' 000000  002072'
  2819  002100' 001000  000315          46980           CALL    MOVFR           ;SAVE NUMBER IN FAC
  2820  002101' 000000  001225'
  2821  002102' 000000  002076'
  2822                                  47000           ;DECIDE IF THE NUMBER SHOULD BE PRINTED IN FIXED OR FLOATING NOTATION
  2823  002103' 001000  000001          47020           LXI     B,2*400+6+$CODE ;SET DECIMAL POINT COUNT FOR E NOTATION
  2824  002104' 000000  001006*
  2825  002105' 000000  002101'
  2826                                  47040                                   ;C = DIGIT COUNT
  2827  002106' 001000  000361          47060           POP     PSW             ;GET EXPONENT
  2828                                  47080           ADD     C               ;SHOULD THE NUMBER BE PRINTED IN E NOTATION?
  2829  002107' 001000  000201
  2830  002110' 001000  000372          47100           JM      FOUT6           ;YES, IT IS .LT. 1
  2831  002111' 000000  002124'
  2832  002112' 000000  002104'
  2833  002113' 001000  000376          47120           CPI     7
  2834  002114' 000000  000007
  2835  002115' 001000  000322          47140           JNC     FOUT6           ;YES,  IT IS .GT. 999999
  2836  002116' 000000  002124'
  2837  002117' 000000  002111'
  2838  002120' 001000  000074          47160           INR     A
  2839  002121' 001000  000107          47180           MOV     B,A             ;B = DECIMAL POINT COUNT
  2840  002122' 001000  000076          47200           MVI     A,1             ;SET FIXED POINT FLAG, THE EXPONENT IS ZERO
  2841  002123' 000000  000001
  2842                                  47220                                   ; IF WE ARE USING FIXED POINT NOTATION
  2843  002124' 001000  000075          47240   FOUT6:  DCR     A               ;E NOTATION: ADD 5 TO ORIGINAL EXPONENT
  2844  002125' 001000  000341          47260           POP     H               ;GET BUFFER POINTER FROM STACK
  2845  002126' 001000  000365          47280           PUSH    PSW             ;SAVE EXPONENT FOR LATER
  2846                                  47300           ;CALCULATE THE DIGITS OF THE NUMBER
  2847  002127' 001000  000021          47320           LXI     D,FOUTBL        ;STORE LOC OF LARGEST POWER OF TEN
  2848  002130' 000000  002316'
  2849  002131' 000000  002116'
  2850  002132' 001000  000005          47340   FOUT8:  DCR     B               ;SEE IF IT IS TIME TO PRINT A DECIMAL POINT
  2851  002133' 001000  000066          47360           MVI     M,"."           ;PUT A DECIMAL POINT IN THE BUFFER
  2852  002134' 000000  000056
  2853  002135' 001000  000314          47380           CZ      INXHRT          ;INCREMENT THE BUFFER POINTER IF IT IS TIME
  2854  002136' 000000  001252'
  2855  002137' 000000  002130'
  2856  002140' 001000  000305          47400           PUSH    B               ;SAVE FLAGS
  2857  002141' 001000  000345          47420           PUSH    H               ;SAVE CHARCATER POINTER


-- PAGE 261 --------------------------------------------------------------


MATHPK FOR BASIC MCS 8080  GATES/ALLEN/DAVIDOFF MACRO 47(113) 06:09 27-AUG-75 PAGE 13-3
F4      MAC     23-AUG-64 06:08         FLOATING POINT OUTPUT ROUTINE

  2858  002142' 001000  000325          47440           PUSH    D               ;SAVE POWER OF TEN POINTER
  2859  002143' 001000  000315          47460           CALL    MOVRF           ;GET NUMBER IN C,D,E
  2860  002144' 000000  001240'
  2861  002145' 000000  002136'
  2862  002146' 001000  000341          47480           POP     H               ;GET POWER OF TEN POINTER
  2863  002147' 001000  000006          47500           MVI     B, "0"-1        ;B = NEXT DIGIT TO BE PRINTED
  2864  002150' 000000  000057
  2865  002151' 001000  000004          47520   FOUT10: INR     B               ;ADD ONE TO DIGIT
  2866  002152' 001000  000173          47540           MOV     A,E             ;SUBTRACT LO
  2867  002153' 001000  000226          47560           SUB     M
  2868  002154' 001000  000137          47580           MOV     E,A
  2869  002155' 001000  000043          47600           INX     H               ;POINT TO NEXT BYTE OF POWER OF TEN
  2870  002156' 001000  000172          47620           MOV     A,D             ;SUBTRACT MO
  2871  002157' 001000  000236          47640           SBB     M
  2872  002160' 001000  000127          47660           MOV     D,A
  2873  002161' 001000  000043          47680           INX     H
  2874  002162' 001000  000171          47700           MOV     A,C             ;SUBTRACT HO
  2875  002163' 001000  000236          47720           SBB     M
  2876  002164' 001000  000117          47740           MOV     C,A
  2877  002165' 001000  000053          47760           DCX     H               ;POINT TO BEGINNING OF POWER OF TEN
  2878  002166' 001000  000053          47780           DCX     H
  2879  002167' 001000  000322          47800           JNC     FOUT10          ;SUBTRACT AGAIN IF RESULT WAS POSITIVE
  2880  002170' 000000  002151'
  2881  002171' 000000  002144'
  2882  002172' 001000  000315          47820           CALL    FADDA           ;IT WASN'T, ADD POWER OF TEN BACK IN
  2883  002173' 000000  000274'
  2884  002174' 000000  002170'
  2885  002175' 001000  000043          47840           INX     H               ;INCREMENT POINTER TO NEXT POWER OF TEN
  2886  002176' 001000  000315          47860           CALL    MOVFR           ;SAVE C,D,E IN FAC
  2887  002177' 000000  001225'
  2888  002200' 000000  002173'
  2889  002201' 001000  000353          47880           XCHG                    ;GET POWER OF TEN POINTER IN (DE)
  2890  002202' 001000  000341          48900           POP     H               ;GET BUFFER POINTER
  2891  002203' 001000  000160          48920           MOV     M,B             ;PUT CHARACTER IN BUFFER
  2892  002204' 001000  000043          48940           INX     H               ;INCREMENT BUFFER POINTER
  2893  002205' 001000  000301          48960           POP     B               ;GET COUNTERS OFF STACK
  2894  002206' 001000  000015          48980           DCR     C               ;WAS THAT THE LAST DIGIT
  2895  002207' 001000  000302          48000           JNZ     FOUT8           ;DO MORE IF NOT
  2896  002210' 000000  002132'
  2897  002211' 000000  002177'
  2898  002212' 001000  000005          48020           DCR     B               ;SEE IF DECIMAL POINT GOES AFTER LAST DIGIT
  2899  002213' 001000  000312          48040           JZ      FOUT12          ;IT DOES, WE HAVE NO ZEROES TO SUPPRESS
  2900  002214' 000000  002232'
  2901  002215' 000000  002210'
  2902                                  48060           ;SUPPRESS THE TRAILING ZEROS
  2903  002216' 001000  000053          48080   FOUT11: DCX     H               ;GO BACK TO LAST CHARACTER
  2904  002217' 001000  000176          48100           MOV     A,M             ;GET IT
  2905  002220' 001000  000376          48120           CPI     "0"             ;IGNORE TRAILING ZEROS
  2906  002221' 000000  000060
  2907  002222' 001000  000312          48140           JZ      FOUT11
  2908  002223' 000000  002216'
  2909  002224' 000000  002214'
  2910                                  48160           ;SUPPRESS DECIMAL POINT IF WE HAVE AN INTEGER


-- PAGE 262 --------------------------------------------------------------


MATHPK FOR BASIC MCS 8080  GATES/ALLEN/DAVIDOFF MACRO 47(113) 06:09 27-AUG-75 PAGE 13-4
F4      MAC     23-AUG-64 06:08         FLOATING POINT OUTPUT ROUTINE

  2911  002225' 001000  000376          48180           CPI     "."             ;IGNORE DECIMAL POINT BEFORE TRAILING ZEROS
  2912  002226' 000000  000056
  2913  002227' 001000  000304          48200           CNZ     INXHRT          ;IF NO DP, MOVE POINTER TO NEXT POSITION
  2914  002230' 000000  001252'
  2915  002231' 000000  002223'
  2916  002232' 001000  000361          48220   FOUT12: POP     PSW             ;GET DECIMAL EXPONENT
  2917  002233' 001000  000312          48240           JZ      FOUT17          ;RETURN IF NUMBER WAS IN FIXED POINT FORMAT
  2918  002234' 000000  002271'
  2919  002235' 000000  002230'
  2920                                  48260           ;FLOATING POINT NOTATION -- PUT AN "E" IN THE BUFFER
  2921  002236' 001000  000066          48280           MVI     M,"E"           ;PUT AN "E" IN THE BUFFER
  2922  002237' 000000  000105
  2923  002240' 001000  000043          48300           INX     H               ;PUT SIGN OF EXPONENT IN BUFFER
  2924                                  48320           ;PUT IN THE SIGN OF THE EXPONENT
  2925  002241' 001000  000066          48340           MVI     M,"+"           ;A PLUS IF POSITIVE
  2926  002242' 000000  000053
  2927  002243' 001000  000362          48360           JP      FOUT14
  2928  002244' 000000  002252'
  2929  002245' 000000  002234'
  2930  002246' 001000  000066          48380           MVI     M,"-"           ;A MINUS IF NEGATIVE
  2931  002247' 000000  000055
  2932  002250' 001000  000057          48400           CMA                     ;NEGATE EXPONENT
  2933  002251' 001000  000074          48420           INR     A
  2934                                  48440           ;CALCULATE THE TWO DIGIT EXPONENT
  2935  002252' 001000  000006          48460   FOUT14: MVI     B,"0"-1         ;INITIALIZE TEN'S DIGIT COUNT
  2936  002253' 000000  000057
  2937  002254' 001000  000004          48480   FOUT15: INR     B               ;INCREMENT DIGIT
  2938  002255' 001000  000326          48500           SUI     12              ;SUBTRACT TEN
  2939  002256' 000000  000012
  2940  002257' 001000  000322          48520           JNC     FOUT15          ;DO IT AGAIN IF RESULT WAS POSITIVE
  2941  002260' 000000  002254'
  2942  002261' 000000  002244'
  2943  002262' 001000  000306          48540           ADI     "0"+12          ;ADD BACK IN TEN AND CONVERT TO ASCII
  2944  002263' 000000  000072
  2945                                  48560           ;PUT THE EXPONENT IN THE BUFFER
  2946  002264' 001000  000043          48580           INX     H
  2947  002265' 001000  000160          48600           MOV     M,B             ;PUT TEN'S DIGIT OF EXPONENT IN BUFFER
  2948  002266' 001000  000043          48620   FOUT19: INX     H               ;WHEN WE JUMP TO HERE, A IS ZERO
  2949  002267' 001000  000167          48640           MOV     M,A             ;PUT ONE'S DIGIT IN BUFFER
  2950  002270' 001000  000043          48660           INX     H               ;INCREMENT POINTER
  2951  002271' 001000  000161          48680   FOUT17: MOV     M,C             ;PUT ZERO AT END OF BUFFER
  2952  002272' 001000  000341          49700           POP     H               ;EXIT WITH (HL) POINTING TO STRING
  2953  002273' 001000  000311          49720           RET                     ;ALL DONE
  2954
  2955                                  49760           ;SEE IF FAC .LE. 999999.499
  2956  002274' 001000  000001          49780   FOUTCB: MOVRI   224,164,043,367 ;COMPARE NUMBER WITH CONSTANT
  2957  002275' 000000  000164
  2958  002276' 000000  000224
  2959  002277' 001000  000021
  2960  002300' 000000  000367
  2961  002301' 000000  000043
  2962  002302' 001000  000315          49800           CALL    FCOMP
  2963  002303' 000000  001317'


-- PAGE 263 --------------------------------------------------------------


MATHPK FOR BASIC MCS 8080  GATES/ALLEN/DAVIDOFF MACRO 47(113) 06:09 27-AUG-75 PAGE 13-5
F4      MAC     23-AUG-64 06:08         FLOATING POINT OUTPUT ROUTINE

  2964  002304' 000000  002260'
  2965  002305' 001000  000341          48820           POP     H               ;GET RETURN ADDRESS OFF STACK
  2966  002306' 001000  000342          48840           JPO     FOUT9           ;NUMBER TOO BIG, DIVIDE BY TEN
  2967  002307' 000000  002060'
  2968  002310' 000000  002303'
  2969  002311' 001000  000351          48860           PCHL                    ;NUMBER OK, RETURN
  2970
  2971                                  48900           ;CONSTANTS FOR FOUT
  2972  002312' 000000  000000          48920   FHALF:  000     ;1/2
  2973  002313' 000000  000000          48940           000     ;THIS CONSTANT IS ALSO USED BY SQR, SIN, COS
  2974  002314' 000000  000000          48960           000
  2975  002315' 000000  000200          48980           200
  2976                                  49000           ;POWER OF TEN TABLE
  2977  002316' 000000  000240          49020   FOUTBL: 240     ; 100000
  2978  002317' 000000  000206          49040           206
  2979  002320' 000000  000001          49060           001
  2980  002321' 000000  000020          49080           020     ; 10000
  2981  002322' 000000  000047          49100           047
  2982  002323' 000000  000000          49120           000
  2983  002324' 000000  000350          49140           350     ; 1000
  2984  002325' 000000  000003          49160           003
  2985  002326' 000000  000000          49180           000
  2986  002327' 000000  000144          49200           144     ; 100
  2987  002330' 000000  000000          49220           000
  2988  002331' 000000  000000          49240           000
  2989  002332' 000000  000012          49260           012     ; 10
  2990  002333' 000000  000000          49280           000
  2991  002334' 000000  000000          49300           000
  2992  002335' 000000  000001          49320           001     ; 1
  2993  002336' 000000  000000          49340           000
  2994  002337' 000000  000000          49360           000>
  2995                                  49380   IFE     LENGTH-2,<
  2996                                  49400           ;OUTPUT THE VALUE IN THE FAC ACCORDING TO THE FORMAT SPECIFICATIONS
  2997                                  49420           ; IN A,B,C
  2998                                  49440           ;ALL REGISTERS ARE ALTERED
  2999                                  49460           ;THE ORIGINAL CONTENTS OF THE FAC IS LOST
  3000                                  49480
  3001                                  49500           ;THE FORMAT IS SPECIFIED IN A, B AND C AS FOLLOWS:
  3002                                  49520           ;THE BITS OF A MEAN THE FOLLOWING:
  3003                                  49540   ;BIT 7  0 MEANS FREE FORMAT OUTPUT, I.E. THE OTHER BITS OF A MUST BE ZERO,
  3004                                  49560   ;       TRAILING ZEROS ARE SUPPRESSED, A NUMBER IS PRINTED IN FIXED OR FLOATING
  3005
  3006                                  49580   ;       POINT NOTATION ACCORDING TO ITS MAGNITUDE, THE NUMBER IS LEFT
  3007                                  49600   ;       JUSTIFIED IN ITS FIELD, B AND C ARE IGNORED.
  3008                                  49620   ;MD     1 MEANS FIXED FORMAT OUTPUT, I.E. THE OTHER BITS OF A ARE CHECKED FOR
  3009                                  49640   ;MD     FORMATTING INFORMATION, THE NUMBER IS RIGHT JUSTIFIED IN ITS FIELD,
  3010                                  49660   ;MD     TRAILING ZEROS ARE NOT SUPPRESSED.  THIS IS USED FOR PRINT USING.
  3011                                  49680   ;BIT 6  1 MEANS GROUP THE DIGITS IN THE INTEGER PART OF THE NUMBER INTO GROUPS
  3012                                  49700   ;MD     OF THREE AND SEPARATE THE GROUPS BY COMMAS
  3013                                  49720   ;MD     0 MEANS DON'T PRINT THE NUMBER WITH COMMAS
  3014                                  49740   ;BIT 5  1 MEANS FILL THE LEADING SPACES IN THE FIELD WITH ASTERISKS ("*")
  3015                                  49760   ;BIT 4  1 MEANS OUTPUT THE NUMBER WITH A FLOATING DOLLAR SIGN ("$")
  3016                                  49780   ;BIT 3  1 MEANS PRINT THE SIGN OF A POSITIVE NUMBER AS A PLUS SIGN ("+")


-- PAGE 264 --------------------------------------------------------------


MATHPK FOR BASIC MCS 8080  GATES/ALLEN/DAVIDOFF MACRO 47(113) 06:09 27-AUG-75 PAGE 13-6
F4      MAC     23-AUG-64 06:08         FLOATING POINT OUTPUT ROUTINE

  3017                                  49800   ;       INSTEAD OF A SPACE
  3018                                  49820   ;BIT 2  1 MEANS PRINT THE SIGN OF THE NUMBER AFTER THE NUMBER
  3019                                  49840   ;BIT 1  UNUSED
  3020                                  49860   ;BIT 0  1 MEANS PRINT THE NUMBER IN FLOATING POINT NOTATION I.E. "E NOTATION"
  3021                                  49880   ;       IF THIS BIT IS ON, THE COMMA SPECIFICATION (BIT 6) IS IGNORED.
  3022                                  49900   ;MD     0 MEANS PRINT THE NUMBER IN FIXED POINT NOTATION.  NUMBER .GE. 1E16
  3023                                  49920   ;       CANNOT BE PRINTED IN FIXED POINT NOTATION.
  3024                                  49940
  3025                                  49960           ;B AND C TELL HOW BIG THE FIELD IS:
  3026                                  49980   ;B  =   THE NUMBER OF PLACES IN THE FIELD TO THE LEFT OF THE DECIMAL POINT
  3027                                  50000   ;       (B DOES NOT INCLUDE THE DECIMAL POINT)
  3028                                  50020   ;C  =   THE NUMBER OF PLACES IN THE FIELD TO THE RIGHT OF THE DECIMAL POINT
  3029                                  50040   ;MD     (C INCLUDES THE DECIMAL POINT)
  3030                                  50060   ;MD     B AND C DONOT INCLUDE THE 4 POSITIONS FOR THE EXPONENT IF BIT 0 IS ON
  3031                                  50080           ;FOUT ASSUMES B+C .LE. 24 (DECIMAL)
  3032                                  50100
  3033                                  50120           ;ENTRY TO PRINT THE FAC IN FREE FORMAT
  3034                                  50140   FOUT:   XRA     A               ;SET FORMAT FLAGS TO FREE FORMATED OUTPUT
  3035                                  50160           ;ENTRY TO PRINT THE FAC USING THE FORMAT SPECIFICATIONS IN A, B, AND C
  3036                                  50180   PUFOUT: CALL    FOUINI          ;SAVE THE FORMAT SPECIFICATION IN A AND PUT
  3037                                  50200                                   ;A SPACE FOR POSITIVE NUMBERS IN THE BUFFER
  3038                                  50220           PUSH    B               ;SAVE THE FIELD LENGTH SPECIFICATIONS
  3039                                  50240           ANI     10              ;CHECK IF POSITIVE NUMBERS GET A PLUS SIGN
  3040                                  50260           JZ      FOUT1           ;THEY DON'T
  3041                                  50280           MVI     M,"+"           ;THEY DO, PUT IN A PLUS SIGN
  3042                                  50300   FOUT1:  LDA     VALTYP          ;SEE WHAT KIND OF A VALUE WE HAVE
  3043                                  50320           MOV     B,A             ;SAVE IT
  3044                                  50340           XCHG                    ;SAVE BUFFER POINTER
  3045                                  50360           MOV     A,B             ;GET THE SIGN OF THE FAC
  3046                                  50380           XCHG                    ;PUT THE BUFFER POINTER BACK IN (HL)
  3047                                  50400           MOV     A,B             ;GET THE VALTYP BACK
  3048                                  50420           JP      FOUT2           ;IF WE HAVE A NEGATIVE NUMBER, NEGATE IT
  3049                                  50440           MVI     M,"-"           ; AND PUT A MINUS SIGN IN THE BUFFER
  3050                                  50460           PUSH    H               ;SAVE THE BUFFER POINTER
  3051                                  50480           CALL    VNEG            ;NEGATE THE NUMBER
  3052                                  50500           POP     H               ;GET THE BUFFER POINTER BACK
  3053                                  50520   FOUT2:  INX     H               ;POINT TO WHERE THE NEXT CHARACTER GOES
  3054                                  50540           LDA     TEMP3           ;GET THE FORMAT SPECIFICATION
  3055                                  50560           MOV     D,A             ;SAVE IT FOR LATER
  3056                                  50580           RAL                     ;PUT THE FREE FORMAT OR NOT BIT IN THE CARRY
  3057                                  50600           LDA     VALTYP          ;GET THE VALTYP, VNEG COULD HAVE CHANGED THIS
  3058                                  50620                                   ; SINCE -32768 IS INT AND 32768 IS SNG,
  3059                                  50640                                   ; SO B IS NOT ACCURATE
  3060                                  50660           JC      FOUTFX          ;THE MAN WANTS FIXED FORMATTED OUTPUT
  3061                                  50680           ;HERE TO PRINT NUMBERS IN FREE FORMAT
  3062                                  50700           POP     B               ;WE CAN IGNORE THE OLD B AND C
  3063                                  50720           MVI     M,"0"           ;PUT A ZERO IN THE BUFFER IN CASE THE NUMBER
  3064                                  50740           JZ      FOUTZR          ; IS ZERO.  IT IS, FINISH IT UP
  3065                                  50760           CPI     4               ;DECIDE WHAT KIND OF A VALUE WE HAVE
  3066                                  50780           JNC     FOUFRV          ;WE HAVE A SNG OR DBL
  3067                                  50800           ;HERE TO PRINT AN INTEGER IN FREE FORMAT
  3068                                  50820           LXI     B,$CODE         ;SET THE DECIMAL POINT COUNT AND COMMA COUNT
  3069                                  50840                                   ; TO ZERO


-- PAGE 265 --------------------------------------------------------------


MATHPK FOR BASIC MCS 8080  GATES/ALLEN/DAVIDOFF MACRO 47(113) 06:09 27-AUG-75 PAGE 13-7
F4      MAC     23-AUG-64 06:08         FLOATING POINT OUTPUT ROUTINE

  3070                                  50860           CALL    FOUTCI          ;CONVERT THE INTEGER TO DECIMAL
  3071                                  50880                                   ;FALL INTO FOUTZS AND ZERO SUPPRESS THE THING
  3072                                  50900
  3073                                  50920           ;ZERO SUPPRESS THE DIGITS IN FBUFFR
  3074                                  50940           ;ASTERISK FILL AND ZERO SUPPRESS IF NECESSARY
  3075                                  50960           ;SET UP B AND CONDITION CODES IF WE HAVE A TRAILING SIGN
  3076                                  50980   FOUTZS: LXI     H,FBUFFR+1      ;GET POINTER TO THE SIGN
  3077                                  51000           MOV     B,M             ;SAVE THE SIGN IN B
  3078                                  51020           MVI     C," "           ;DEFAULT FILL CHARACTER TO A SPACE
  3079                                  51040           LDA     TEMP3           ;GET FORMAT SPECS TO SEE IF WE AHVE TO
  3080                                  51060           MOV     E,A             ; ASTERISK FILL.  SAVE IT
  3081                                  51080           ANI     40
  3082                                  51100           JZ      FOTZS1          ;WE DON'T
  3083                                  51120           MOV     A,B             ;WE DO, SEE IF THE SIGN WAS A SPACE
  3084                                  51140           CMP     C               ;ZERO FLAG IS SET IF IT WAS
  3085                                  51160           MVI     C,"*"           ;SET FILL CHARACTER TO AN ASTERISK
  3086                                  51180           JNZ     FOTZS1          ;SET THE SIGN TO AN ASTERISK IF IT WAS A SPACE
  3087                                  51200           MOV     B,C             ;B HAS THE SIGN, C THE FILL CHARACTER
  3088                                  51220   FOTZS1: MOV     M,C             ;FILL IN THE ZERO OR THE SIGN
  3089                                  51240           CHRGET                  ;GET THE NEXT CHARACTER IN THE BUFFER
  3090                                  51260                                   ;SINCE THERE ARE NO SPACES, "CHRGET" IS
  3091                                  51280                                   ; EQUIVALENT TO "INX    H"/"MOV A,M"
  3092                                  51300           CPI     "0"             ;DO WE HAVE A ZERO?
  3093                                  51320           JZ      FOTZS1          ;YES, SUPPRESS IT
  3094                                  51340           CPI     54              ;54=","  DO WE HAVE A COMMA?
  3095                                  51360           JZ      FOTZS1          ;YES. SUPPRESS IT
  3096                                  51380           CPI     "."             ;ARE WE AT THE DECIMAL POINT?
  3097                                  51400           JNZ     FOTZS2          ;NO, I GUESS NOT
  3098                                  51420           DCX     H               ;YES, BACK UP AND PUT A ZERO BEFORE IT
  3099                                  51440           MVI     M,"0"
  3100                                  51460   FOTZS2: MOV     A,E             ;GET THE FORMAT SPECS TO CHECK FOR A FLOATING
  3101                                  51480           ANI     20              ; DOLLAR SIGN
  3102                                  51500           JZ      FOTZS3          ;WE DON'T HAVE ONE
  3103                                  51520           DCX     H               ;WE HAVE ONE, BACK UP AND PUT IN THE DOLLAR
  3104                                  51540           MVI     M,"S"           ; SIGN
  3105                                  51560   FOTZS3: MOV     A,E             ;DO WE HAVE A TRAILING SIGN?
  3106                                  51580           ANI     4
  3107                                  51600           RNZ                     ;YES, RETURN; NOTE THE NON-ZERO FLAG IS SET
  3108                                  51620   FOFXIS: DCX     H               ;NO, BACK UP ONE AND PUT THE SIGN BACK IN
  3109                                  51640                                   ;PEOPLE JUMP HERE WHO WANT A "DCX       H" AND
  3110                                  51660                                   ; DON'T CARE ABOUT M
  3111                                  51680           MOV     M,B             ;PUT IN THE SIGN
  3112                                  51700           RET                     ;ALL DONE
  3113                                  51720
  3114                                  51740           ;HERE TO INITIALLY SET UP THE FORMAT SPECS AND PUT A SPACE FOR THE
  3115                                  51760           ;SIGN OF A POSITIVE NUMBER
  3116                                  51780   FOUINI: STA     TEMP3           ;SAVE THE FORMAT SPECIFICATION
  3117                                  51800           LXI     H,FBUFFR+1      ;GET A POINTER INTO BUGGET
  3118                                  51820           MVI     M," "           ;PUT IN A SPACE
  3119                                  51840           RET                     ;ALL DONE
  3120                                  51860
  3121                                  51880           ;HERE TO PRINT A SNG OR DBL IN FREE FORMAT
  3122                                  51900   FOUFRV: PUSH    H               ;SAVE THE BUFFER POINTER


-- PAGE 266 --------------------------------------------------------------


MATHPK FOR BASIC MCS 8080  GATES/ALLEN/DAVIDOFF MACRO 47(113) 06:09 27-AUG-75 PAGE 13-8
F4      MAC     23-AUG-64 06:08         FLOATING POINT OUTPUT ROUTINE

  3123                                  51920           JZ      FOUFRS          ;WE HAVE A SNG
  3124                                  51940           ;HERE TO SET UP THE FLAG TO PRINT A DBL IN FREE FORMAT
  3125                                  51960           MVI     D,20            ;WE HAVE A DBL, SET THE DIGIT COUNT
  3126                                  51980           XWD     1000,001        ;"LXI   B" OVER THE NEXT TWO BYTES
  3127                                  52000           ;HERE TO SET UP THE FLAG TO PRINT A SNG IN FREE FORMAT
  3128                                  52020   FOUFRS: MVI     D,6             ;SET THE DIGIT COUNT
  3129                                  52040           CALL    FOUTNV          ;NORMALIZE THE FAC SO ALL SIGNIFICANT DIGITS
  3130                                  52060                                   ; ARE IN THE INTEGER PART
  3131                                  52080           LXI     B,2*400+$CODE   ;B = DECIMAL POINT COUNT
  3132                                  52100                                   ;C = COMMA COUNT
  3133                                  52120                                   ;SET COMMA COUNT TO ZERO AND DECIMAL POINT
  3134                                  52140                                   ; COUNT FOR E NOTATION
  3135                                  52160           ADD     D               ;SEE IF NUMBER SHOULD BE PRINTED IN E NOTATION
  3136                                  52180           JM      FOFRS1          ;IT SHOULD, IT IS .LT .1
  3137                                  52200           INR     D               ;CHECK IF IT IS TOO BG
  3138                                  52220           CMP     D
  3139                                  52240           JNC     FOFRS1          ;IT IS TOO BIG, IT IS .GT. 10^D-1
  3140                                  52260           INR     A               ;IT IS OK FOR FIXED POINT NOTATION
  3141                                  52280           MOV     B,A             ;SET DECIMAL POINT COUNT
  3142                                  52300           MVI     A,1             ;SET FIXED POINT FLAG, THE EXPONENT IS ZERO
  3143                                  52320                                   ; IF WE ARE USING FIXED POINT NOTATION
  3144                                  52340   FOFRS1: DCR     A               ;E NOTATION: ADD D-1 TO ORIGINAL EXPONENT
  3145                                  52360           POP     H               ;GET THE BUGGER POINTER BACK
  3146                                  52380           PUSH    PSW             ;SAVE THE EXPONENT FOR LATER
  3147                                  52400           CALL    FOUTCV          ;CONVERT THE NUMBER TO DECIMAL DIGITS
  3148                                  52420           ;HERE TO SUPPRESS THE TRAILING ZEROS
  3149                                  52440   FOFRS2: DCX     H               ;MOVE BACK TO THE LAST CHARACTER
  3150                                  52460           MOV     A,M             ;GET IT AND SEE IF IT WAS ZERO
  3151                                  52480           CPI     "0"
  3152                                  52500           JZ      FOFRS2          ;IT WAS, CONTINUE SUPPRESSING
  3153                                  52520           CPI     "."             ;HAVE WE SUPPRESSED ALL THE FRACTIONAL DIGITS?
  3154                                  52540           CNZ     INXHRT          ;YES, IGNORE THE DECIMAL POINT ALSO
  3155                                  52560           POP     PSW             ;GET THE EXPONENT BACK
  3156                                  52580           JZ      FOUTON          ;WE ARE DONE IF WE ARE IN FIXED POINT NOTATION
  3157                                  52600                                   ;FALL IN AND PUT THE EXPONENT IN THE BUFFER
  3158                                  52620
  3159                                  52640           ;HERE TO PUT THE EXPONENT AND "E" OR "D" IN THE BUFFER
  3160                                  52660           ;THE EXPONENT IS IN A
  3161                                  52680   FOFLDN: MOV     B,A             ;SAVE THE EXPONENT
  3162                                  52700           LDA     VALTYP          ;GET THE VALTYP TO DEIDE IF WE PRINT AN "E"
  3163                                  52720           CPI     4               ; ON A "D"
  3164                                  52740           MOV     A,B             ;GET THE EXPONENT BACK
  3165                                  52760           JZ      FOUCEE          ;WE HAVE TO PRINT AN "E"
  3166                                  52780           MVI     M,"D"           ;GET THE "D"
  3167                                  52800           XWD     1000,001        ;"LXI   B" OVER THE NEXT TWO BYTES
  3168                                  52820   FOUCEE: MVI     M,"E"           ;GET AN "E"
  3169                                  52840           INX     H               ;PUT SIGN OF EXPONENT IN BUFFER
  3170                                  52860           ;PUT IN THE SIGN OF THE EXPONENT
  3171                                  52880           MVI     M,"+"           ;A PLUS IF POSITIVE
  3172                                  52900           JP      FOUCE1
  3173                                  52920           MVI     M,"-"           ;A MINUS IF NEGATIVE
  3174                                  52940           CMA                     ;NEGATE EXPONENT
  3175                                  52960           INR     A


-- PAGE 267 --------------------------------------------------------------


MATHPK FOR BASIC MCS 8080  GATES/ALLEN/DAVIDOFF MACRO 47(113) 06:09 27-AUG-75 PAGE 13-9
F4      MAC     23-AUG-64 06:08         FLOATING POINT OUTPUT ROUTINE

  3176                                  52980           ;CALCULATE THE TWO DIGIT EXPONENT
  3177                                  53000   FOUCE1: MVI     B,"0"-1         ;INITIALIZE TEN'S DIGIT COUNT
  3178                                  53020   FOUCE2: INR     B               ;INCREMENT DIGIT
  3179                                  53040           SUI     12              ;SUBTRACT TEN
  3180                                  53060           JNC     FOUCE2          ;DO IT AGAIN IF RESULT WAS POSITIVE
  3181                                  53080           ADI     "0"+12          ;ADD BACK IN TEN AND CONVERT TO ASCII
  3182                                  53100           ;PUT THE EXPONENT IN THE BUFFER
  3183                                  53120           INX     H
  3184                                  53140           MOV     M,B             ;PUT THEN'S DIGIT OF EXPONENT IN BUFFER
  3185                                  53160           INX     H               ;WHEN WE JUMP TO HERE, A IS ZERO
  3186                                  53180           MOV     M,A             ;PUT ONE'S DIGIT IN BUFFER
  3187                                  53200   FOUTZR: INX     H               ;INCREMENT POINTER, HERE TO FINISH UP PRINTING
  3188                                  53220                                   ; A FREE FORMAT ZERO
  3189                                  53240   FOUTDN: MVI     M,0             ;PUT A ZERO AT THE END OF THE NUMBER
  3190                                  53260           XCHG                    ;SAVE THE POINTER TO THE END OF THE NUMBER
  3191                                  53280                                   ; IN (DE) FOR FFXFLV
  3192                                  53300           LXI     H,FBUFFR+1      ;GET A POINTER TO THE BEGINNING
  3193                                  53320           RET                     ;ALL DONE
  3194                                  53340
  3195                                  53360           ;HERE TO PUT A POSSIBLE COMMA COUNT IN C, AND ZERO IF WE ARE NOT
  3196                                  53380           ;USING THE COMMA SPECIFICATION
  3197                                  53400   FOUTCC: MOV     C,A             ;SAVE A POSSIBLE COMMA COUNT
  3198                                  53420   FOUICC: LDA     TEMP3           ;GET THE FORMAT SPECS
  3199                                  53440           ANI     100             ;LOOK AT THE COMMA BIT
  3200                                  53460           RNZ                     ;WE ARE USING COMMAS, JUST RETURN
  3201                                  53480           MOV     C,A             ;WE AREN'T, ZERO THE COMMA COUNT
  3202                                  53500           RET                     ;ALL DONE
  3203                                  53520
  3204                                  53540           ;HERE TO PRINT A NUMBER IN FIXED FORMAT
  3205                                  53560   FOUTFC: CPI     4               ;CHECK WHAT KIND OF VALUE WE HAVE
  3206                                  53580           MOV     A,D             ;GET THE FORMAT SPECS
  3207                                  53600           JNC     FOUFXV          ;WE HAVE A SNG OR A DBL
  3208                                  53620           ;HERE TO PRINT AN INTEGER IN FIXED FORMAT
  3209                                  53640           RAR                     ;CHECK IF WE HAVE TO PRINT IT IN FLOATING
  3210                                  53660           JC      FFXIFL          ; POINT NOTATION
  3211                                  53680           ;HERE TO PRINT AN INTEGER IN FIXED FORMAT-FIXED POINT NOTATION
  3212                                  53700           LXI     B,6*400+3+$CODE ;SET DECIMAL POINT COUNT TO 6 AND
  3213                                  53720                                   ; COMMA COUNT TO 3
  3214                                  53740           CALL    FOICC           ;CHECK IF WE DON'T HAVE TO USE THE COMMAS
  3215                                  53760           POP     D               ;GET THE FIELD LENGTHS
  3216                                  53780           MOV     A,D             ;SEE IF WE HAVE TO PRINT EXTRA SPACES BECAUSE
  3217                                  53800           SUI     5               ; THE FIELD IS TOO BIG
  3218                                  53820           CP      FOTZER          ;WE DO, PUT IN ZEROS, THEY WILL LATER BE
  3219                                  53840                                   ; CONVERTED TO SPACES OR ASTERISKS BY FOUTZS
  3220                                  53860           PUSH    D               ;SAVE THE FIELD LENGTHS AGAIN
  3221                                  53880           CALL    FOUTCI          ;CONVERT THE NUMBER TO DECIMAL DIGITS
  3222                                  53900           POP     D               ;GET THE FIELD LENGTHS BACK
  3223                                  53920           ORA     E               ;DO WE NEED A DECIMAL POINT?  HERE A=0
  3224                                  53940           CZ      FOFXIS          ;WE DON'T, BACKSPACE OVER IT.  AT FOFXIS,
  3225                                  53960                                   ; WE DON'T CARE ABOUT B, WE ONLY WANT THE
  3226                                  53980                                   ; "DCX  H".  LATER ON WE WILL DO A "MVI M,0"
  3227                                  54000                                   ; AND COVER UP WHAT WAS IN B.
  3228                                  54020           CNZ     FOTZER          ;FOFXIS PRESERVED THE CONDITION CODES


-- PAGE 268 --------------------------------------------------------------


MATHPK FOR BASIC MCS 8080  GATES/ALLEN/DAVIDOFF MACRO 47(113) 06:09 27-AUG-75 PAGE 13-10
F4      MAC     23-AUG-64 06:08         FLOATING POINT OUTPUT ROUTINE

  3229                                  54040                                   ;IF WE DO HAVE DECIMAL PLACES, FILL THEM UP
  3230                                  54060                                   ; WITH ZEROS
  3231                                  54080                                   ;FALL IN AND FINISH UP THE NUMBER
  3232                                  54100
  3233                                  54120           ;HERE TO FINISH UP A FIXED FORMAT NUMBER
  3234                                  54140   FOUTTS: PUSH    H               ;SAVE BUFFER POINTER
  3235                                  54160           CALL    FOUTZS          ;ZERO SUPPRESS THE NUMBER
  3236                                  54180           POP     H               ;GET THE BUFFER POINTER BACK
  3237                                  54200           JZ      FFXIX1          ;CHECK IF WE HAVE A TRAILING SIGN
  3238                                  54220           MOV     M,B             ;WE DO, PUT THE SIGN IN THE BUFFER
  3239                                  54240           INX     H               ;INCREMENT THE BUFFER POINTER
  3240                                  54260   FFXIX1: MVI     M,0             ;PUT A ZERO AT THE END OF THE NUMBER
  3241                                  54280
  3242                                  54300           ;HERE TO CHECK IF A FIXED FORMAT-FIXED POINT NUMBER OVERFLOWED ITS
  3243                                  54320           ;FIELD LENGTH
  3244                                  54340           ;D = THE B IN THE FORMAT SPECIFICATION
  3245                                  54360           ;THIS ASSUMES THE LOCATION OF THE DECIMAL POINT IS IN TEMP2
  3246                                  54380           LXI     H,FBUFFR        ;GET A POINTER TO THE BEGINNING
  3247                                  54400   FOUBE1: INX     H               ;INCREMENT POINTER TO THE NEXT CHARACTER
  3248                                  54420   FOUBE5: LDA     TEMP2           ;GET THE LOCATION OF THE DECIMAL POINT
  3249                                  54440           SUB     L               ;FIGURE OUT HOUW MUCH SPACE WE ARE TAKING
  3250                                  54460           SUB     D               ;IS THIS THE RIGHT AMOUNT OF SPACE TO TAKE?
  3251                                  54480           RZ                      ;YES, WE ARE DONE, RETURN FROM FOUT
  3252                                  54500           MOV     A,M             ;NO, WE MUST HAVE TOO MUCH SINCE WE STARTED
  3253                                  54520                                   ; CHECKING FROM THE BEGINNING OF THE BUFFER
  3254                                  54540                                   ; AND THE FIELD MUST BE SMALL ENOUGH TO FIT IN
  3255                                  54560                                   ; THE BUFFER.  GET THE NEXT CHARACTER IN
  3256                                  54580                                   ; THE BUFFER
  3257                                  54600           CPI     " "             ;IF IT IS A SPACE OR AN ASTERISK, WE CAN
  3258                                  54620           JZ      FOUBE1          ; IGNORE IT AND MAKE THE FIELD SHORTER WITH
  3259                                  54640           CPI     "*"             ; NO ILL EFFECTS
  3260                                  54660           JZ      FOUBE1
  3261                                  54680           DCX     H               ;MOVE THE POINTER BACK ONE TO READ THE
  3262                                  54700                                   ; CHARACTER WITH CHRGET
  3263                                  54720           PUSH    H               ;SAVE THE POINTER
  3264                                  54740
  3265                                  54760           ;HERE WE SEE IF WE CAN IGNORE THE LEADING ZERO BEFORE A DECIMAL POINT.
  3266                                  54780           ;THIS OCCURS IF WE SEE THE FOLLOWING: (IN ORDER)
  3267                                  54800           ;       A SIGN (EITHER "-" OR "+")      [OPTIONAL]
  3268                                  54820           ;       A DOLLAR SIGN                   [OPTIONAL]
  3269                                  54840           ;       A ZERO                          [MANDATORY]
  3270                                  54860           ;       A DECIMAL POINT                 [MANDATORY]
  3271                                  54880           ;       ANOTHER DIGIT                   [MANDATORY]
  3272                                  54900           ;IF YOU SEE A LEADING ZERO, IT MUST BE THE ONE BEFORE A DECIMAL POINT
  3273                                  54920           ;PR ELSE FOUTZS WOULD HAVE SUPPRESSED IT, SO WE CAN JUST "INX   H"
  3274                                  54940           ;OVER THE CHARACTER FOLLOWING THE ZERO, AND NOT CHECK FOR THE
  3275                                  54960           ;DECIMAL POINT EXPLICITLY.
  3276                                  54980   FOUBE2: PUSH    PSW             ;PUT THE LAST CHARACTER ON THE STACK.  THE
  3277                                  55000                                   ; ZERO FLAG IS SET.  THE FIRST TIME THE ZERO
  3278                                  55020                                   ; ZERO FLAG IS NOT SET.
  3279                                  55040           LXI     B,FOUBE2        ;GET THE ADDRESS WE GO TO IF WE SEE A CHARACTER
  3280
  3281                                  55060           PUSH    B               ; WE ARE LOOKING FOR


-- PAGE 269 --------------------------------------------------------------


MATHPK FOR BASIC MCS 8080  GATES/ALLEN/DAVIDOFF MACRO 47(113) 06:09 27-AUG-75 PAGE 13-11
F4      MAC     23-AUG-64 06:08         FLOATING POINT OUTPUT ROUTINE

  3282                                  55080           CHRGET                  ;GET THE NEXT CHARACTER
  3283                                  55100           CPI     "-"             ;SAVE IT AND GET THE NEXT CHARACTER
  3284                                  55120           RZ                      ; A MINUS SIGN, A PLUS SIGN OR A DOLLAR SIGN
  3285                                  55140           CPI     "+"
  3286                                  55160           RZ
  3287                                  55180           CPI     "$"
  3288                                  55200           RZ
  3289                                  55220           POP     B               ;IT ISN'T, GET THE ADDRESS OFF THE STACK
  3290                                  55240           CPI     "0"             ;IS IT A ZERO?
  3291                                  55260           JNZ     FOUBE4          ;NO, WE CAN NOT GET RID OF ANOTHER CHARACTER
  3292                                  55280           INX     H               ;SKIP OVER THE DECIMAL POINT
  3293                                  55300           CHRGET                  ;GET THE NEXT CHARACTER
  3294                                  55320           JNC     FOUBE4          ;IT IS NOT A DIGIT, WE CAN'T SHORTEN THE FIELD
  3295                                  55340           DCX     H               ;WE CAN!!!  POINT TO THE DECIMAL POINT
  3296                                  55360           XWD     1000,001        ;"LXI   B" OVER THE NEXT 2 BYTES
  3297                                  55380   FOUBE3: DCX     H               ;POINT BACK ONE CHARACTER
  3298                                  55400           MOV     M,A             ;PUT THE CHARACTER BACK
  3299                                  55420
  3300                                  55440           ;IF WE CAN GET RID OF THE ZERO, WE PUT THE CHARACTERS ON THE STACK
  3301                                  55460           ;BACK INTO THE BUFFER ONE POSITION IN FRONT OF WHERE THEY ORIGINALLY
  3302                                  55480           ;WERE.  NOTE THAT THE MAXIMUM NUMBER OF STACK LEVELS THIS USES IS
  3303                                  55500           ;THREE -- ONE FOR THE LAST ENTRY FLAG, ONE FOR A POSSIBLE SIGN,
  3304                                  55520           ;AND ONE FOR A POSSIBLE DOLLAR SIGN.  WE DON'T HAVE TO WORRY ABOUT
  3305                                  55540           ;THE FIRST CHARACTER BEING IN THE BUFFER TWICE BECAUSE THE POINTER
  3306                                  55560           ;WHEN FOUT EXITS WILL BE POINTING TO THE SECOND OCCURANCE.
  3307                                  55580           POP     PSW             ;GET THE CHARACTER OFF THE STACK
  3308                                  55600           JZ      FOUBE3          ;PUT IT BACK IN THE BUFFER IF IT IS NOT THE
  3309                                  55620                                   ; LAST ONE
  3310                                  55640           POP     B               ;GET THE BUFFER POINTER OFF THE STACK
  3311                                  55660           JMP     FOUBE4          ;SEE IF THE FIELD IS NOW SMALL ENOUGH
  3312                                  55680           ;HERE IF THE NUMBER IS TOO BIG FOR THE FIELD
  3313                                  55700   FOUBE4: POP     PSW             ;GET THE CHARACTERS OFF THE STACK
  3314                                  55720           JZ      FOUBE4          ;LEAVE THE NUMBER IN THE BUFFER ALONE
  3315                                  55740           POP     H               ;GET THE POINTER TO THE BEGINNING OF THE
  3316                                  55760                                   ; NUMBER MINUTE 1
  3317                                  55780           MVI     M,"%"           ;PUT IN A PERCENT SIGN TO INDICATE THE NUMBER
  3318                                  55800                                   ; WAS TOO LARGE FOR THE FIELD
  3319                                  55820           RET                     ;ALL DONE -- RETURN FROM FOUT
  3320                                  55840
  3321                                  55860           ;HERE TO PRINT A SNG OR DBL IN FIXED FORMAT
  3322                                  55880   FOUFXV: PUSH    H               ;SAVE THE BUFFER POINTER
  3323                                  55900           RAR                     ;GET FIXED OR FLOATING NOTATION FLAG IN CARRY
  3324                                  55920           JC      FFXFLV          ;PRINT THE NUMBER IN E-NOTATION
  3325                                  55940           JZ      FFXSFX          ;WE HAVE A SNG
  3326                                  55960           ;HERE TO PRINT A DBL IN FIXED FORMAT--FIXED POINT NOTATION
  3327                                  55980           LXI     D,FFXDXM        ;GET POINTER TO 1D16
  3328                                  56000           CALL    DCOMPD          ;WE CAN'T PRINT A NUMBER .GE. 10^16 IN FIXED
  3329                                  56020                                   ; POINT NOTATION
  3330                                  56040           LXI     D,16*400+$CODE  ;SET D = NUMBER OF DIGITS TO PRINT FOR A DBL
  3331                                  56060                                   ;C = 0 FOR DBL (THIS IS FOR COMMAS)
  3332                                  56080           JM      FFXSDC          ;IF THE FAC WAS SMALL ENOUGH, GO PRINT IT
  3333                                  56100           ;HERE TO PRINT IN FREE FORMAT WITH A PERCENT SIGN A NUMBER .GE. 10^16
  3334                                  56120   FFXSDO: XRA     A               ;SET THE FORMAT SPECS TO FREE FORMAT


-- PAGE 270 --------------------------------------------------------------


MATHPK FOR BASIC MCS 8080  GATES/ALLEN/DAVIDOFF MACRO 47(113) 06:09 27-AUG-75 PAGE 13-12
F4      MAC     23-AUG-64 06:08         FLOATING POINT OUTPUT ROUTINE

  3335                                  56140           STA     TEMP3
  3336                                  56160           POP     H               ;GET THE BUFFER POINTER
  3337                                  56180           DCX     H               ;SET IT UP TO JUMP BACK INTO FOUT
  3338                                  56200                                   ;NOW (HL)=FBUFFR+1
  3339                                  56220           CALL    FOUT1           ;PRINT THE NUMBER IN FREE FORMAT, THE SIGN
  3340                                  56240                                   ; IS ALREADY IN THE BUFFER
  3341                                  56260           DCX     H               ;POINT IN FRONT OF THE NUMBER
  3342                                  56280           MVI     M,"%"           ;PUT IN THE PERCENT SIGN
  3343                                  56300           RET                     ;ALL DONE--RETURN FROM FOUT
  3344                                  56320           ;HERE TO PRINT A SNG IN FIXED FORMAT--FIXED POINT NOTATION
  3345                                  56340   FFXSFX: MOVRI   226,016,033,312 ;GET 1E16, CHECK IF THE NUMBER IS TOO BIG
  3346                                  56360           CALL    FCOMP
  3347                                  56380           JP      FFXSDO          ;IT IS,PRINT IT IN FREE FORMAT WITH A % SIGN
  3348                                  56400           LXI     D,6*400+2+$CODE ;SET UP FLAGS FOR SNG --
  3349                                  56420                                   ;D = NUMBER OF DIGITS TO PRINT IN A SNG
  3350                                  56440                                   ;C = 2 (THIS IS FOR THE COMMAS)
  3351                                  56460           ;HERE TO ACTUALLY PRINT A SNG OR DBL IN E NOTATION
  3352                                  56480   FFXSDC: FSIGN                   ;SEE IF WE HAVE ZERO
  3353                                  56500           CNZ     FOUTNV          ;IF NOT, NORMALIZE THE NUMBER SO ALL DIGITS TO
  3354                                  56520                                   ; BE PRINTED ARE IN THE INTEGER PART
  3355                                  56540           POP     H               ;GET THE BUFFER POINTER
  3356                                  56560           POP     B               ;GET THE FIELD LENGTH SPECS
  3357                                  56580           JM      FFXXVS          ;DO DIFFERENT STUFF IF ??? EXPONENT IS NEGATIVE
  3358
  3359                                  56600           ;HERE TO PRINT A NUMBER WITH NO FRACTIONAL DIGITS
  3360                                  56620           PUSH    B               ;SAVE THE FIELD LENGTH SPECS AGAIN
  3361                                  56640           MOV     C,A             ;SAVE THE EXPONENT
  3362                                  56660           MOV     A,B             ;WE HAVE TO PRINT LEADING ZEROS IF THE FIELD
  3363                                  56780           SUB     D               ; HAS MORE CHARACTERS THAN THERE ARE DIGITS IN
  3364                                  56700           SUB     C               ; THE NUMBER
  3365                                  56720           CP      FOTZER          ;FOUTZS WILL LATER SUPPRESS THEM
  3366                                  56740           MOV     A,C             ;SET UP THE COMMA COUNT
  3367                                  56760           ADD     E
  3368                                  56780           MOV     E,C             ;WE NO LONGER NEED THE NUMBER WE SETUP IN E
  3369                                  56800   FFXXV1: SUI     3               ;REDUCE A MOD 3
  3370                                  56820           JNC     FFXXV1
  3371                                  56840           ADI     5               ;ADD 3 BACK AND ADD IN 2 MORE FOR SCALING
  3372                                  56860           CALL    FOUTCC          ;CHECK IF WE HAVE TO USE COMMAS AT ALL
  3373                                  56880           MOV     A,E             ;SETUP THE DECIMAL POINT COUNT
  3374                                  56900           ADD     D
  3375                                  56920           INR     A
  3376                                  56940           MOV     B,A             ;IT GOES IN B
  3377                                  56960           PUSH    D               ;SAVE SNG OR DBL AND EXPONENT INFORMATION
  3378                                  57980           CALL    FOUTCV          ;CONVERT THE NUMBER TO DECIMAL DIGITS
  3379                                  57000           POP     D               ;GET THE SNG OR DBL AND EXPONENT INFO BACK
  3380                                  57020           ORA     E               ;PUT IN DIGITS AFTER THE NUMBER IF IT
  3381                                  57040                                   ; IS BIG ENOUGH, HERE A=0
  3382                                  57060           CNZ     FOTZRC          ;THERE CAN BE COMMAS IN THESE ZEROS
  3383                                  57080           POP     D               ;GET THE FIELD LENGTH SPECS
  3384                                  57100           ORA     E               ;HERE A=0
  3385                                  57120           CNZ     FOUTDP          ;PRINT A DECIMAL POINT IF NECESSARY
  3386                                  57140           DCR     A               ;SEE IF WE SHOULD PRINT SOME ZEROS TO FILL IN
  3387                                  57160           CP      FOTZER          ; THE DECIMAL PLACES


-- PAGE 271 --------------------------------------------------------------


MATHPK FOR BASIC MCS 8080  GATES/ALLEN/DAVIDOFF MACRO 47(113) 06:09 27-AUG-75 PAGE 13-13
F4      MAC     23-AUG-64 06:08         FLOATING POINT OUTPUT ROUTINE

  3388                                  57180           JMP     FOUTTS          ;GO CHECK THE SIZE, ZERO SUPPRESS, ETC. AND
  3389                                  57200                                   ; FINISH THE NUMBER
  3390                                  57220           ;HERE TO PRINT A SNG OR DBL THAT HAS FRACTIONAL DIGITS
  3391                                  57240   FFXXVS: MOV     E,A             ;SAVE THE EXPONENT, WE DON'T NEED WHAT IS IN E
  3392                                  57260           MOV     A,C             ;DIVIDE BY TEN THE RIGHT NUMBER OF TIMES SO
  3393                                  57280           ORA     A               ; THE RESULT WILL BE ROUNDED CORRECTLY AND
  3394                                  57300           CNZ     DCRART          ; HAVE THE CORRECT NUMBER OF SIGNIFICANT
  3395                                  57320           ADD     E               ; DIGITS
  3396                                  57340           PUSH    PSW             ;SAVE THIS NUMBER FOR LATER
  3397                                  57360   FFXXV2: CM      FINDIV          ;THIS IS THE DIVIDE LOOP
  3398                                  57380           JM      FFXXV2
  3399                                  57400           MOV     A,E             ;WE HAVE TWO CASES DEPENDING ON WHETHER THE
  3400                                  57420           ADD     D               ; THE NUMBER IS .LT. .1 OR NOT
  3401                                  57440           MOV     A,B
  3402                                  57460           JM      FFXXV3
  3403                                  57480           ;HERE TO PRINT NUMBERS .GE. .1
  3404                                  57500           SUB     D               ;PRINT SOME LEADING ZEROS IF THE FIELD IS
  3405                                  57520           SUB     E               ; BIGGER THAN THE NUMBER OF DIGITS WE WILL
  3406                                  57540           CP      FOTZER          ; PRINT
  3407                                  57560           POP     PSW             ;WE DON'T NEED THE NUMBER WE SAVED BEFORE
  3408                                  57580           MOV     B,E             ;GET ALL THE PERTINENT INFO IN B,C
  3409                                  57600           PUSH    B               ;SAVE THE EXPONENT AND "C" IN FIELD SPEC
  3410                                  57620           MOV     A,E             ;SET UP THE DECIMAL POINT COUNT
  3411                                  57640           ADD     D
  3412                                  57660           INR     A
  3413                                  57680           MOV     B,A
  3414                                  57700           MOV     A,D             ;SET UP THE COMMA COUNT
  3415                                  57720           ANI     2               ;THESE 2 INSTRUCTIONS MAP 6 TO 4
  3416                                  57740           ADI     2               ; AND 16 TO 2
  3417                                  57760           ADD     E
  3418                                  57780           CALL    FOUTCC          ;CHECK IF WE HAVE TO DO THE COMMA THING
  3419                                  57800           JMP     FFXXV6          ;CONVERT THE DIGITS AND DO THE TRIMMING UP
  3420                                  57820           ;HERE TO PRINT A NUMBER .LT. 1
  3421                                  57840   FFXXV3: CALL    FOTZER          ;PUT ALL ZEROS BEFORE THE DECIMAL POINT
  3422                                  57860           MOV     A,C             ;SAVE C
  3423                                  57880           CALL    FOUTDP          ;PUT IN A DECIMAL POINT
  3424                                  57900           MOV     C,A             ;RESTORE C
  3425                                  57920           POP     PSW             ;GET THE NUMBER WE SAVED
  3426                                  57940           JM      FFXXV4          ;DECIDE HOW MANY ZEROS TO PRINT BETWEEN THE
  3427                                  57960           XRA     A               ; DECIMAL POINT AND THE FIRST DIGIT WE WILL
  3428                                  57980           SUB     E               ; PRINT.  HERE THE FIELD IS BIG ENOUGH TO
  3429                                  58000           SUB     D               ; HOLD ALL THE DIGITS
  3430                                  58020           JMP     FFXXV5          ;GO PRINT THEM
  3431                                  58040   FFXXV4: MOV     A,C             ;HERE WE HAD TO DIVIDE BY TEN SO THE FIELD
  3432                                  58060           SUB     D               ; IS SMALLER THAN ALL SIGNIFICANT DIGITS IN
  3433                                  58080           DCR     A               ; THE NUMBER
  3434                                  58100   FFXXV5: CALL    FOTZER          ;PRINT THE ZEROS
  3435                                  58120           MOV     B,E             ;SAVE THE EXPONENT IN B
  3436                                  58140           PUSH    B               ;SAVE EXPONENT AND THE "C" IN THE FIELD SPEC
  3437                                  58160           MOV     B,A             ;ZERO THE DECIMAL PLACE COUNT
  3438                                  58180           MOV     C,A             ;ZERO THE COMMA COUNT
  3439                                  58200   FFXXV6: CALL    FOUTCV          ;CONVERT THE NUMBER TO DECIMAL DIGITS
  3440                                  58220           POP     D               ;GET THE EXPONENT AND FIELD SPEC BACK


-- PAGE 272 --------------------------------------------------------------


MATHPK FOR BASIC MCS 8080  GATES/ALLEN/DAVIDOFF MACRO 47(113) 06:09 27-AUG-75 PAGE 13-14
F4      MAC     23-AUG-64 06:08         FLOATING POINT OUTPUT ROUTINE

  3441                                  58240           ORA     E               ;CHECK IF WE HAVE TO PRINT ANY ZEROS AFTER
  3442                                  58260                                   ; THE LAST DIGIT
  3443                                  58280           JZ      FFXXV7          ;CHECK IF THERE WERE ANY DECIMAL PLACES AT ALL
  3444                                  58300           ADD     D               ;PRINTE SOME MORE TRAILING ZEROS
  3445                                  58320           DCR     A
  3446                                  58340           CP      FOTZER
  3447                                  58360           JMP     FOUTTS          ;FINISH UP THE NUMBER
  3448                                  58380           ;THERE WERE NO DECIMAL PLACES, IGNORE ALL DIGITS AFTER THE DECIMAL
  3449                                  58400           ;POINT
  3450                                  58420   FFXXV7: LHLD    TEMP2           ;THE END OF THE NUMBER IS WHERE THE DP IS
  3451                                  58440           JMP     FOUTTS          ;FINISH UP THE NUMBER
  3452                                  58460
  3453                                  58480           ;HERE TO PRINT AN INTEGER IN FIXED FORMAT--FLOATING POINT NOTATION
  3454                                  58500   FFXIFL: PUSH    H               ;SAVE THE BUFFER POINTER
  3455                                  58520           PUSH    D               ;SAVE THE FORMAT SPECS
  3456                                  58540           CALL    CONSI           ;CONVERT THE INTEGER TO A SNG
  3457                                  58560           POP     D               ;GET THE FORMAT SPECS BACK
  3458                                  58580           POP     H               ;GET THE BUFFER POINTER BACK
  3459                                  58600           XRA     A               ;SET FLAGS TO PRINT THE NUMBER AS A SNG
  3460                                  58620                                   ;FALL INTO FFXFLV
  3461                                  58640
  3462                                  58660           ;HERE TO PRINT A SNG OR DBL IN FIXED FORMAT-FLOTATING POINT NOTATION
  3463                                  58680   FFXFLV: JZ      FFXSFL          ;IF WE HAVE A SNG, SET THE RIGHT FLAGS
  3464                                  58700           MVI     E,20            ;WE HAVE A DBL, GET HOW MANY DIGITS WE HAVE
  3465                                  58720           XWD     1000,001        ;"LXI   B" OVER THE NEXT TWO BYTES
  3466                                  58740   FFXSFL: MVI     E,6             ;WE HAVE A DBL, GET HOW MANY DIGITS WE PRINT
  3467                                  58760           FSIGN                   ;SEE IF WE HAVE ZERO
  3468                                  58780           CNZ     FOUTNV          ;IF NOT, NORMALIZE THE NUMBER SO ALL DIGITS TO
  3469                                  58800                                   ; BE PRINTED ARE IN THE INTEGER PART
  3470                                  58820           POP     H               ;GET THE BUFFER POINTER BACK
  3471                                  58840           POP     B               ;GET THE FIELD LENGTH SPECS
  3472                                  58860           PUSH    PSW             ;SAVE THE EXPONENT
  3473                                  58880           MOV     A,C             ;CALCULATE HOW MANY SIGNIFICANT DIGITS WE MUST
  3474                                  58900           ORA     A               ; PRINT
  3475                                  58920           PUSH    PSW             ;SAVE THE "C" FIELD SPEC FOR LATER
  3476                                  58940           CNZ     DCRART
  3477                                  58960           ADD     B
  3478                                  58980           MOV     C,A
  3479                                  59000           MOV     A,D             ;GET THE FIELD SPEC
  3480                                  59020           ANI     4               ;SEE IF THE SIGN IS A TRAILING SIGN
  3481                                  59040           CPI     1               ;SET CARRY IF A IS ZERO
  3482                                  59060           SBB     A               ;SET D=0 IF WE HAVE A TRAILING SIGN,
  3483                                  59080           MOV     D,A             ; D=377 IF WE DO NOT
  3484                                  59100           ADD     C
  3485                                  59120           MOV     C,A             ;SET C=NUMBER OF SIGNIFICANT DIGITS TO PRINT
  3486                                  59140           SUB     E               ;IF WE HAVE LESS THAN E, THEN WE MUST GET RID
  3487                                  59160   FFXLV1: CM      FINDIV          ; OF SOME BY DIVIDING BY TEN AND ROUNDING
  3488                                  59180           JM      FFXLV1
  3489                                  59200           PUSH    B               ;SAVE THE "B" FIELD SPEC AND # OF SIG DIGITS
  3490                                  59220           MOV     A,B             ;SET THE DECIMAL PLACE COUNT
  3491                                  59240           INR     A
  3492                                  59260           SUB     D               ;TAKE INTO ACCOUNT IF THE SIGN IS TRAILING
  3493                                  59280           MOV     B,A


-- PAGE 273 --------------------------------------------------------------


MATHPK FOR BASIC MCS 8080  GATES/ALLEN/DAVIDOFF MACRO 47(113) 06:09 27-AUG-75 PAGE 13-15
F4      MAC     23-AUG-64 06:08         FLOATING POINT OUTPUT ROUTINE

  3494                                  59300           MVI     C,0             ;SET COMMA COUNT TO ZERO, THE COMMA SPEC IS
  3495                                  59320           PUSH    D               ; IGNORED.  SAVE TRAILING SIGN INFO
  3496                                  59340           CALL    FOUTCV          ;CONVERT THE NUMBER TO DECIMAL DIGITS
  3497                                  59360           POP     D               ;GET THE TRAILING SIGN INFO BACK
  3498                                  59380           POP     B               ;GET # OF SIG DIGITS AND "B" FIELD SPEC BACK
  3499                                  59400           MOV     A,C             ;PRINT TRAILING ZEROS IF THE FIELD LENGTH IS
  3500                                  59420           SUB     E               ; LONGER THAN THE NUMBER OF DIGITS WE CAN PRINT
  3501
  3502                                  59440           CP      FOTZRC          ;THE DECIMAL POINT COULD COME OUT IN HERE
  3503                                  59460           POP     PSW             ;GET THE "C" FIELD SPEC BACK
  3504                                  59580           CZ      FOFXIS          ;IF C=0, THE LAST THING WAS A DECIMAL POINT,
  3505                                  59500                                   ; SO IGNORE IT/  ALL WE CARE ABOUT IS THE
  3506                                  59520                                   ; "DCX  H" AND NOT THE "MOV     M,B" AT FOFXIS
  3507                                  59540           POP     PSW             ;GET THE EXPONENT BACK
  3508                                  59560           ADD     E               ;SCALE IT CORRECTLY
  3509                                  59680           SUB     B
  3510                                  59600           SUB     D
  3511                                  59620           PUSH    B               ;SAVE THE "B" FIELD SPEC
  3512                                  59640           CALL    FOFLDN          ;PUT THE EXPONENT IN THE BUFFER
  3513                                  59660           XCHG                    ;GET THE POINTER TO THE END IN (HL)
  3514                                  59680                                   ; IN CASE WE HAVE A TRAILING SIGN
  3515                                  59700           POP     D               ;GET THE "B" FIELD SPEC IN D, PUT ON A POSSIBLE
  3516
  3517                                  59720           JMP     FOUTTS          ; TRAILING SIGN AND WE ARE DONE
  3518                                  59740
  3519                                  59860           ;NORMALIZE THE NUMBER IN THE FAC SO ALL THE DIGITS ARE IN THE INTEGER
  3520                                  59880           ;PART,  RETURN THE BASE 10 EXPONENT IN A
  3521                                  59800           ;D,E ARE LEFT UNALTERED
  3522                                  59820   FOUTNV: PUSH    D               ;SAVE (DE)
  3523                                  59840           LDA     VALTYP          ;GET WHAT KIND OF VALUE WE HAVE
  3524                                  59860           CPI     4
  3525                                  59880           JNZ     FOUTND          ;WE HAVE A DBL
  3526                                  59900           ;NORMALIZE A SNG
  3527                                  59920           XRA     A               ;ZERO THE EXPONENT
  3528                                  59940           PUSH    PSW             ;SAVE IT
  3529                                  59960           CALL    FOUNSC         ;IS THE FAC TOO BIG OR TOO SMALL?
  3530                                  59980   FOUNS1: MOVRI   221,103,117,370 ;GET 99999.9499 TO SEE IF THE FAC IS BIG
  3531                                  60000           CALL    FCOMP           ; ENOUGH YET
  3532                                  60020           JPO     FOUNS3          ;IT IS, WE ARE DONE
  3533                                  60040           POP     PSW             ;IT ISN'T, MULTIPLY BY TEN
  3534                                  60060           CALL    FINMLT
  3535                                  60080           PUSH    PSW             ;SAVE THE EXPONENT AGAIN
  3536                                  60100           JMP     FOUNS1          ;NOW SEE IF IT IS BIG ENOUGH
  3537                                  60120   FOUNS2: POP     PSW             ;THE FAC IS TOO BIG, GET THE EXPONENT
  3538                                  60140           CALL    FINDIV          ;DIVIDE IT BY TEN
  3539                                  60160           PUSH    PSW             ;SAVE THE EXPONENT AGAIN
  3540                                  60180           CALL    FOUNSC          ;SEE IF THE FAC IS SMALL ENOUGH
  3541                                  60200   FOUNS3: POP     PSW             ;WE ARE DONE, GET THE EXPONENT BACK
  3542                                  60220           POP     D               ;GET (DE) BACK
  3543                                  60240           RET                     ;ALL DONE
  3544                                  60260           ;HERE TO SEE IF THE FAC IS SMALL ENOUGH YET
  3545                                  60280   FOUNSC: MOVRI   224,164,043,367 ;GET 999999.499 TO SEE IF THE FAC IS TOO BIG
  3546                                  60300           CALL    FCOMP


-- PAGE 274 --------------------------------------------------------------


MATHPK FOR BASIC MCS 8080  GATES/ALLEN/DAVIDOFF MACRO 47(113) 06:09 27-AUG-75 PAGE 13-16
F4      MAC     23-AUG-64 06:08         FLOATING POINT OUTPUT ROUTINE

  3547                                  60320           POP     H               ;GET THE RETURN ADRESS OFF THE STACK
  3548                                  60340           JPO     FOUNS2          ;IT IS TOO BIG, MAKE IT SMALLER
  3549                                  60360           PCHL                    ;IT IS SMALL ENOUGH, RETURN
  3550                                  60380           ;HERE TO NORMALIZE A DBL NUMBER
  3551                                  60400   >
  3552                                  60420   PAGE


-- PAGE 275 --------------------------------------------------------------


MATHPK FOR BASIC MCS 8080  GATES/ALLEN/DAVIDOFF MACRO 47(113) 06:09 27-AUG-75 PAGE 14
F4      MAC     23-AUG-64 06:08         EXPONENTIATION AND THE SQUARE ROOT FUNCTION

  3553                                  60440   SUBTTL  EXPONENTIATION AND THE SQUARE ROOT FUNCTION
  3554                                  60460   IFE     EXTFNC,<
  3555                                  60480           ;SQUARE ROOT FUNCTION  ---  X=SQR(A)
  3556                                  60500           ;FIRST WE SCALE THE ARUGMENT TO BETWEEN .5 AND 2 BY LOOKING AT THE
  3557                                  60520           ;EXPONENT AND USING SQR(M*2^(2*N))=2^N*SQR(M).  THEN NEWTON'S METHOD
  3558                                  60540           ;IS USED TO COMPUTE SQR(M).  THE EXPONENT IS SAVED TO SCALE THE
  3559                                  60560           ;RESULT AT THE END.
  3560                                  60580           ;NEWTON'S METHOD FOR SQUARE ROOT:
  3561                                  60600           ;  X(0)=A
  3562                                  60620           ;  X(N+1)=(X(N)+A/X(N))/2
  3563                                  60640   SQR:    FSIGN                   ;CHECK FOR ERROR CONDITION
  3564                                  60660           JM      FCERR           ;CAN'T TAKE SQR OF NEGATIVE NUMBER
  3565                                  60680           RZ                      ;  0=SQR(0)
  3566                                  60700           LXI     H,FAC           ;SCALE ARGUMENT TO BETWEEN .5 AND 2
  3567                                  60720           MOV     A,M             ;GET EXPONENT
  3568                                  60740           RAR                     ;GET EXPONENT OF SCALE FACTOR
  3569                                  60760                                   ;USE  SQR(M*2^(2*N))=2^N*SQR(M)
  3570                                  60780           PUSH    PSW             ;SAVE IT
  3571                                  60800           PUSH    H               ;SAVE POINTER TO EXPONENT
  3572                                  60820           MVI     A,100           ;SET EXPONENT OF SCALED DOWN NUMBER
  3573                                  60840           RAL
  3574                                  60860           MOV     M,A             ;REPLACE IT
  3575                                  60880           LXI     H,FBUFFR        ;SAVE A
  3576                                  60900           CALL    MOVMF
  3577                                  60920           MVI     A,4             ;SET ITERATION COUNT
  3578                                  60940   SQR1:   PUSH    PSW             ;SAVE COUNT
  3579                                  60960           CALL    PUSHF           ;SAVE X(N)
  3580                                  60980           LXI     H,FBUFFR        ;COMPUTE A/X(N)
  3581                                  61000           CALL    MOVRM           ;GET A IN THE REGISTERS
  3582                                  61020           CALL    FDIV
  3583                                  61040           POPR
  3584                                  61060           CALL    FADD            ;ADD IN X(N)
  3585                                  61080           LXI     H,FHALF         ;DIVIDE BY 2
  3586                                  61100           CALL    FMULTS
  3587                                  61120           POP     PSW             ;GET COUNT
  3588                                  61140           DCR     A               ;ARE WE DONE?
  3589                                  61160           JNZ     SQR1            ;NO, DO MORE ITERATIONS
  3590                                  61180           POP     H               ;YES, SET EXPONENT OF ANSWER
  3591                                  61200           POP     PSW             ;GET SCALE FACTOR
  3592                                  61220           ADI     300             ;CONVERT TO AN EXPONENT
  3593                                  61240           ADD     M               ;ADD EXPONENT IN
  3594                                  61260           MOV     M,A             ;REPLACE EXPONENT
  3595                                  61280           RET>                    ;ALL DONE
  3596
  3597
  3598                                  61340   IFN     EXTFNC,<
  3599                                  61360           ;SUBROUTINE FOR PPWR, ATN
  3600  002340' 001000  000041          61380   PSHNEG: LXI     H,NEG           ;GET THE ADDRESS OF NEG
  3601  002341' 000000  001175'
  3602  002342' 000000  002307'
  3603  002343' 001000  000343          61400           XTHL                    ;SWITCH RET ADDR AND ADDR OF NEG
  3604  002344' 001000  000351          61420           PCHL                    ;RETURN, THE ADDRESS OF NEG IS ON THE STACK
  3605


-- PAGE 276 --------------------------------------------------------------


MATHPK FOR BASIC MCS 8080  GATES/ALLEN/DAVIDOFF MACRO 47(113) 06:09 27-AUG-75 PAGE 14-1
F4      MAC     23-AUG-64 06:08         EXPONENTIATION AND THE SQUARE ROOT FUNCTION

  3606
  3607                                  61480           ;SQUARE ROOT FUNCTION
  3608                                  61500           ;WE USE SQR(X)=X^.5
  3609  002345' 001000  000315          61520   SQR:    CALL    PUSHF           ;SAVE ARG
  3610  002346' 000000  001205'
  3611  002347' 000000  002341'
  3612  002350' 001000  000041          61540           LXI     H,FHALF         ;GET 1/2
  3613  002351' 000000  002312'
  3614  002352' 000000  002346'
  3615  002353' 001000  000315          61560           CALL    MOVFM           ;  SQR(X)=X^0.5
  3616  002354' 000000  001222'
  3617  002355' 000000  002351'
  3618  002356' 001000  000301          61580   FPWRT:  POPR                    ;GET ARG IN REGISTERS, ENTRY TO FPWR IF
  3619  002357' 001000  000321
  3620                                  61600                                   ; ARGUMENT IS ON STACK.  FALL INTO FPWR
  3621
  3622
  3623                                  61660           ;EXPONENTIATION    ---    X^Y
  3624                                  61680           ;N.B.  0^0=1
  3625                                  61700           ;FIRST WE CHECK IF Y=0, IF SO, THE RESULT IS 1.
  3626                                  61720           ;NEXT, WE CHECK IF X=0, IF SO, THE RESULT IS 0.
  3627                                  61740           ;THEN WE CHECK IF X IS POSITIVE, IF NOT, WE CHECK THAT Y IS A
  3628                                  61760           ;NEGATIVE INTEGER, AND WHETHER IT IS EVEN OR ODD.  IF Y IS A NEGATIVE
  3629                                  61780           ;INTEGER, WE NEGATE X.  IF NOT, LOG WILL GIVE AN FC ERROR WHEN WE CALL
  3630                                  61800           ;IT.  IF X IS NEGATIVE AND Y IS ODD, WE PUSH THE ADDRESS OF NEG ON THE
  3631                                  61820           ;STACK SO WE WILL RETURN TO IT AND GET A NEGATIVE RESULT.  TO COMPUTE
  3632                                  61840           ;THE RESULT WE USE X^Y=EXP(Y*LOG(X))
  3633  002360' 001000  000357          61860   FPWR:   FSIGN                   ;SEE IF Y IS ZERO
  3634  002361' 001000  000312          61880           JZ      EXP             ;IT IS, RESULT IS ONE
  3635  002362' 000000  002452'
  3636  002363' 000000  002354'
  3637  002364' 001000  000170          61900           MOV     A,B             ;SEE IF X IS ZERO
  3638  002365' 001000  000267          61920           ORA     A
  3639  002366' 001000  000312          61940           JZ      ZERO0           ;IT IS, RESULT IS ZERO
  3640  002367' 000000  000174'
  3641  002370' 000000  002362'
  3642  002371' 001000  000325          61960           PUSHR                   ;SAVE X ON STACK
  3643  002372' 001000  000305
  3644  002373' 001000  000171          62980           MOV     A,C             ;CHECK THE SIGN OF X
  3645  002374' 001000  000366          62000           ORI     177             ;TURN THE ZERO FLAG OFF
  3646  002375' 000000  000177
  3647  002376' 001000  000315          62020           CALL    MOVRF           ;GET Y IN THE REGISTERS
  3648  002377' 000000  001240'
  3649  002400' 000000  002367'
  3650  002401' 001000  000362          62040           JP      FPWR1           ;NO PROBLEMS IF X IS POSITIVE
  3651  002402' 000000  002422'
  3652  002403' 000000  002377'
  3653  002404' 001000  000325          62060           PUSHR                   ;SAVE Y
  3654  002405' 001000  000305
  3655  002406' 001000  000315          62080           CALL    INT             ;SEE IF Y IS AN INTEGER
  3656  002407' 000000  001445'
  3657  002410' 000000  002402'
  3658  002411' 001000  000301          62100           POPR                    ;GET Y BACK


-- PAGE 277 --------------------------------------------------------------


MATHPK FOR BASIC MCS 8080  GATES/ALLEN/DAVIDOFF MACRO 47(113) 06:09 27-AUG-75 PAGE 14-2
F4      MAC     23-AUG-64 06:08         EXPONENTIATION AND THE SQUARE ROOT FUNCTION

  3659  002412' 001000  000321
  3660  002413' 001000  000365          62120           PUSH    PSW             ;SAVE LO OF INT FOR EVEN AND ODD INFORMATION
  3661  002414' 001000  000315          62140           CALL    FCOMP           ;SEE IF WE HAVE AN INTEGER
  3662  002415' 000000  001317'
  3663  002416' 000000  002407'
  3664  002417' 001000  000341          62160           POP     H               ;GET EVEN-ODD INFORMATION
  3665  002420' 001000  000174          62180           MOV     A,H             ;PUT EVEN-ODD FLAG IN CARRY
  3666  002421' 001000  000037          62200           RAR
  3667  002422' 001000  000341          62220   FPWR1:  POP     H               ;GET X BACK IN FAC
  3668  002423' 001000  000042          62240           SHLD    FAC-1           ;STORE HO'S
  3669  002424' 777777  777777*
  3670  002425' 000000  002415'
  3671  002426' 001000  000341          62260           POP     H               ;GET LO'S OFF STACK
  3672  002427' 001000  000042          62280           SHLD    FACLO           ;STORE THEM IN FAC
  3673  002430' 000000  001454*
  3674  002431' 000000  002424'
  3675  002432' 001000  000334          62300           CC      PSHNEG          ;NEGATE NUMBER AT END IF Y WAS ODD
  3676  002433' 000000  002340'
  3677  002434' 000000  002430'
  3678  002435' 001000  000314          62320           CZ      NEG             ;NEGATE THE NEGATIVE NUMBER
  3679  002436' 000000  001175'
  3680  002437' 000000  002433'
  3681  002440' 001000  000325          62340   FPWR2:  PUSHR                   ;SAVE Y AGAIN
  3682  002441' 001000  000305
  3683  002442' 001000  000315          62360           CALL    LOG             ;COMPUTE  EXP(Y=LOG(X))
  3684  002443' 000000  000421'
  3685  002444' 000000  002436'
  3686  002445' 001000  000301          62380           POPR                    ;IF X WAS NEGATIVE AND Y NOT AN INTEGER THEN
  3687  002446' 001000  000321
  3688  002447' 001000  000315          62400           CALL    FMULT>          ; LOG WILL BLOW HIM OUT OF THE WATER
  3689  002450' 000000  000517'
  3690  002451' 000000  002443'
  3691                                  62420   ;       JMP     EXP
  3692                                  62440   PAGE


-- PAGE 278 --------------------------------------------------------------


MATHPK FOR BASIC MCS 8080  GATES/ALLEN/DAVIDOFF MACRO 47(113) 06:09 27-AUG-75 PAGE 15
F4      MAC     23-AUG-64 06:08         EXPONENTIAL FUNCTON

  3693                                  62460   SUBTTL  EXPONENTIAL FUNCTON
  3694                                  62480   IFN     EXTFNC,<
  3695                                  62500           ;WE FIRST SAVE THE ORIGINAL ARGUMENT AND MULTIPLY THE FAC BY LOG2(E)
  3696                                  62520           ;THE RESULT IS USED TO DETERMINE IF WE WILL GET OVERFLOW SINCE
  3697                                  62540           ;EXP(X)=2^(X=LOG2(E)) WHERE LOG2(E)=LOG(E) BASE 2. THEN WE SAVE THE
  3698                                  62560           ;INTEGER PART OF THIS TO SCALE THE ANSWER AT THE END, SINCE
  3699                                  62580           ;2^Y=2^INT(Y)*2^(Y-INT(Y)) AND 2*INT(Y) IS EASY TO COMPUTE.  SO WE
  3700                                  62600           ;NOW COMPUTE 2^(X*LOG2(E)-INT(X*LOG2(E))) BY
  3701                                  62620           ;P(LN(2)*(INT(X*LOG2(E))+1)-X) WHERE P IS AN APPROXIMATION
  3702                                  62640           ;POLYNOMIAL.  THE RESULT IS THEN SCALED BY THE POWER OF 2 WE
  3703                                  62660           ;PREVIOUSLY SAVED.
  3704  002452' 001000  000315          62680   EXP:    CALL    PUSHF           ;SAVE ARGUMENT
  3705  002453' 000000  001205'
  3706  002454' 000000  002450'
  3707  002455' 001000  000001          62700           MOVRI   201,070,252,073 ;GET LOG(E) BASE 2,   CALCULATE:
  3708  002456' 000000  000070
  3709  002457' 000000  000201
  3710  002460' 001000  000021
  3711  002461' 000000  000073
  3712  002462' 000000  000252
  3713  002463' 001000  000315          62720           CALL    FMULT           ;   INT(ARG/LN(2)) = INT(ARG*LOG2(E))
  3714  002464' 000000  000517'
  3715  002465' 000000  002453'
  3716  002466' 001000  000072          62740           LDA     FAC             ;CARRY=0 IF FAC IS TOO BIG
  3717  002467' 000000  001446*
  3718  002470' 000000  002464'
  3719  002471' 001000  000376          62760           CPI     210             ; I.E. IF ABS(FAC) .GE. 128
  3720  002472' 000000  000210
  3721  002473' 001000  000322          62780           JNC     MLDVEX          ;IT IS TOO BIG
  3722  002474' 000000  001073'
  3723  002475' 000000  002467'
  3724  002476' 001000  000315          62800           CALL    INT             ;IS ARGUMENT TOO BIG?
  3725  002477' 000000  001445'
  3726  002500' 000000  002474'
  3727  002501' 001000  000306          62820           ADI     200             ;CHECK FOR OVERFLOW
  3728  002502' 000000  000200
  3729  002503' 001000  000306          62840           ADI     2
  3730  002504' 000000  000002
  3731  002505' 001000  000332          62860           JC      MLDVEX          ;WE HAVE OVERFLOW!!
  3732  002506' 000000  001073'
  3733  002507' 000000  002477'
  3734  002510' 001000  000365          62880           PUSH    PSW             ;SAVE SCALE FACTOR
  3735  002511' 001000  000041          62900           LXI     H,FONE          ;ADD ONE TO THE NUMBER
  3736  002512' 000000  000400'
  3737  002513' 000000  002506'
  3738  002514' 001000  000315          62920           CALL    FADDS
  3739  002515' 000000  000003'
  3740  002516' 000000  002512'
  3741  002517' 001000  000315          62920           CALL    MULLN2          ;MULTIPLY BY LN(2)
  3742  002520' 000000  000506'
  3743  002521' 000000  002515'
  3744  002522' 001000  000361          62960           POP     PSW             ;GET SCALE FACTOR OFF STACK
  3745  002523' 001000  000301          62980           POPR                    ;GET ARGUMENT


-- PAGE 279 --------------------------------------------------------------


MATHPK FOR BASIC MCS 8080  GATES/ALLEN/DAVIDOFF MACRO 47(113) 06:09 27-AUG-75 PAGE 15-1
F4      MAC     23-AUG-64 06:08         EXPONENTIAL FUNCTON

  3746  002524' 001000  000321
  3747  002525' 001000  000365          63000           PUSH    PSW             ;;
  3748  002526' 001000  000315          63020           CALL    FSUB            ;;
  3749  002527' 000000  000017'
  3750  002530' 000000  002520'
  3751  002531' 001000  000315          63040           CALL    NEG             ;;
  3752  002532' 000000  001175'
  3753  002533' 000000  002527'
  3754  002534' 001000  000041          63060           LXI     H,EXPCON        ;;
  3755  002535' 000000  002552'
  3756  002536' 000000  002532'
  3757  002537' 001000  000315          63080           CALL    POLY            ;;
  3758  002540' 000000  002632'
  3759  002541' 000000  002535'
  3760  002542' 001000  000021          63100           LXI     D,$CODE         ;;
  3761  002543' 000000  001477*
  3762  002544' 000000  002540'
  3763  002545' 001000  000301          63120           POP     B               ;;
  3764  002546' 001000  000112          63140           MOV     C,D             ;;
  3765  002547' 001000  000303          63160           JMP     FMULT
  3766  002550' 000000  000517'
  3767  002551' 000000  002543'
  3768
  3769                                  63200           ;CONSTANTS FOR EXP
  3770  002552' 000000  000010          63220   EXPCON: 10      ;DEGREE
  3771  002553' 000000  000100          63240           100     ; -.0001413161
  3772  002554' 000000  000056          63260           056
  3773  002555' 000000  000224          63280           224
  3774  002556' 000000  000164          63300           164
  3775  002557' 000000  000160          63320           160     ; .001329882
  3776  002560' 000000  000117          63340           117
  3777  002561' 000000  000056          63360           056
  3778  002562' 000000  000167          63380           167
  3779  002563' 000000  000156          63400           156     ; -.00830136
  3780  002564' 000000  000002          63420           002
  3781  002565' 000000  000210          63440           210
  3782  002566' 000000  000172          63460           172
  3783  002567' 000000  000346          63480           346     ; .04165735
  3784  002570' 000000  000240          63500           240
  3785  002571' 000000  000052          63520           052
  3786  002572' 000000  000174          63540           174
  3787  002573' 000000  000120          63560           120     ; -.1666653
  3788  002574' 000000  000252          63580           252
  3789  002575' 000000  000252          63600           252
  3790  002576' 000000  000176          63620           176
  3791  002577' 000000  000377          63640           377     ; .4999999
  3792  002600' 000000  000377          63660           377
  3793  002601' 000000  000177          63680           177
  3794  002602' 000000  000177          63700           177
  3795  002603' 000000  000000          63720           000     ; -1.0
  3796  002604' 000000  000000          63740           000
  3797  002605' 000000  000200          64760           200
  3798  002606' 000000  000201          64780           201


-- PAGE 280 --------------------------------------------------------------


MATHPK FOR BASIC MCS 8080  GATES/ALLEN/DAVIDOFF MACRO 47(113) 06:09 27-AUG-75 PAGE 15-2
F4      MAC     23-AUG-64 06:08         EXPONENTIAL FUNCTON

  3799  002607' 000000  000000          63800           000     ; 1.0
  3800  002610' 000000  000000          63820           000
  3801  002611' 000000  000000          63840           000
  3802  002612' 000000  000201          63860           201>
  3803                                  63880   PAGE


-- PAGE 281 --------------------------------------------------------------


MATHPK FOR BASIC MCS 8080  GATES/ALLEN/DAVIDOFF MACRO 47(113) 06:09 27-AUG-75 PAGE 16
F4      MAC     23-AUG-64 06:08         POLYNOMIAL EVALUATOR AND THE RANDOM NUMBER GENERATOR

  3804                                  63900   SUBTTL  POLYNOMIAL EVALUATOR AND THE RANDOM NUMBER GENERATOR
  3805                                  63920   IFN     EXTFNC,<
  3806                                  63940           ;EVALUATE P(x^2)*X
  3807                                  63960           ;POINTER TO DEGREE+1 IS IN (HL)
  3808                                  63980           ;THE CONSTANTS FOLLOW THE DEGREE
  3809                                  64000           ;CONSTANTS SHOULD BE STORED IN REVERSE ORDER, FAC HAS X
  3810                                  64020           ;WE COMPUTE:
  3811                                  64040           ; C0*X+C1*X^3+C2*X^5+C3*X^7+...+C(N)*X^(2*N+1)
  3812  002613' 001000  000315          64060   POLYX:  CALL    PUSHF           ;SAVE X
  3813  002614' 000000  001205'
  3814  002615' 000000  002550'
  3815  002616' 001000  000021          64080           LXI     D,FMULTT        ;PUT ADDRESS OF FMULTT ON STACK
  3816  002617' 000000  000515'
  3817  002620' 000000  002614'
  3818  002621' 001000  000325          64100           PUSH    D               ; RETURN WE WILL MULTIPLY BY X
  3819  002622' 001000  000345          64120           PUSH    H               ;SAVE CONSTANT POINTER
  3820  002623' 001000  000315          64140           CALL    MOVRF           ;SQUARE X
  3821  002624' 000000  001240'
  3822  002625' 000000  002617'
  3823  002626' 001000  000315          64160           CALL    FMULT
  3824  002627' 000000  000517'
  3825  002630' 000000  002624'
  3826  002631' 001000  000341          64180           POP     H               ;GET CONSTANT POINTER
  3827                                  64200                                   ;FALL INTO POLY
  3828
  3829
  3830                                  64260           ;POLYNOMIAL EVALUATOR
  3831                                  64280           ;POINTER TO DEGREE+1 IS IN (HL), IT IS UPDATED
  3832                                  64300           ;THE CONSTANTS FOLLOW THE DEGREE
  3833                                  64320           ;CONSTANTS SHOULD BE STORED IN REVERSE ORDER, FAC HAS X
  3834                                  64340           ;WE COMPUTE:
  3835                                  64360           ; C0+C1*X+C2*C^2+C3*X^3+...+C(N-1)*X^(N-1)+C(N)*X^N
  3836  002632' 001000  000315          64380   POLY:   CALL    PUSHF           ;SAVE X
  3837  002633' 000000  001205'
  3838  002634' 000000  002627'
  3839  002635' 001000  000176          64400           MOV     A,M             ;GET DEGREE
  3840  002636' 001000  000043          64420           INX     H               ;INCREMENT POINTER TO FIRST CONSTANT
  3841  002637' 001000  000315          64440           CALL    MOVFM           ;MOVE FIRST CONSTANT TO FAC
  3842  002640' 000000  001222'
  3843  002641' 000000  002633'
  3844  002642' 001000  000006          64460           XWD     1000,006        ;"MVI   B" OVER NEXT BYTE
  3845  002643' 001000  000361          64480   POLY1:  POP     PSW             ;GET DEGREE
  3846  002644' 001000  000301          64500           POPR                    ;GET X
  3847  002645' 001000  000321
  3848  002646' 001000  000075          64520           DCR     A               ;ARE WE DONE?
  3849  002647' 001000  000310          64540           RZ                      ;YES, RETURN
  3850  002650' 001000  000325          64560           PUSHR                   ;NO, SAVE X
  3851  002651' 001000  000305
  3852  002652' 001000  000365          64580           PUSH    PSW             ;SAVE DEGREE
  3853  002653' 001000  000345          64600           PUSH    H               ;SAVE CONSTANT POINTER
  3854  002654' 001000  000315          64620           CALL    FMULT           ;EVALUATE THE POLY, MULTIPLY BY X
  3855  002655' 000000  000517'
  3856  002656' 000000  002640'


-- PAGE 282 --------------------------------------------------------------


MATHPK FOR BASIC MCS 8080  GATES/ALLEN/DAVIDOFF MACRO 47(113) 06:09 27-AUG-75 PAGE 16-1
F4      MAC     23-AUG-64 06:08         POLYNOMIAL EVALUATOR AND THE RANDOM NUMBER GENERATOR

  3857  002657' 001000  000341          64640           POP     H               ;GET LOCATION OF CONSANTS
  3858  002660' 001000  000315          64660           CALL    MOVRM           ;GET CONSTANT
  3859  002661' 000000  001243'
  3860  002662' 000000  002655'
  3861                                  64680           PUSH    H               ;STORE LOCATION OF CONSTANTS SO FADD AND FMULT
  3862  002663' 001000  000345
  3863  002664' 001000  000315          64700           CALL    FADD            ; WILL NOT SCREW THEM UP, ADD IN CONSTANT
  3864  002665' 000000  000025'
  3865  002666' 000000  002661'
  3866  002667' 001000  000341          64720           POP     H               ;MOVE CONSTANT POINTER TO NEXT CONSTANT
  3867  002670' 001000  000303          64740           JMP     POLY1>          ;SEE IF DONE
  3868  002671' 000000  002643'
  3869  002672' 000000  002665'
  3870
  3871
  3872                                  64800           ;PSEUDO-RANDOM NUMBER GENERATOR
  3873                                  64820           ;IF ARG=0, THE LAST RANDOM NUMBER GENERATED IS RETURNED
  3874                                  64840           ;IF ARG .LT. 0, A NEW SEQUENCE OF RANDOM NUMBERS IS STARTED
  3875                                  64860           ; USING THE ARGUMENT    ;;
  3876                                  64880           ;TO FORM THE NEXT RANDOM NUMBER IN THE SEQUENCE, WE MULTIPLY THE
  3877                                  64900           ;PREVIOUS RANDOM NUMBER BY A RANDOM CONSTANT, AND ADD IN ANOTHER
  3878                                  64920           ;RANDOM CONSTANT.  THEN THE HO AND LO BYTES ARE SWITCHED, THE
  3879                                  64940           ;EXPONENT IS PUT WHERE IT WILL BE SHIFTED IN BY NORMAL, AND THE
  3880                                  64960           ;EXPONENT IN THE FAC SET TO 200 SO THE RESULT WILL BE LESS THAN 1.
  3881                                  64980           ;THIS IS THEN NORMALIZED AND SAVED FOR THE NEXT TIME.
  3882                                  65000           ;THE HO AND LO BYTES WERE SWITCHED SO WE HAVE A RANDOM CHANCE OF
  3883                                  65020           ;GETTING A NUMBER LESS THAN OR GREATER THAN .5
  3884  002673'                         65040   RND:
  3885                                  65060   IFN     LENGTH-2,<
  3886  002673' 001000  000357          65080           FSIGN>                  ;GET SIGN OF ARG
  3887                                  65100   IFE     LENGTH-2,<
  3888                                  65120           CALL    VSIGN           ;GET THE SIGN OF THE ARG
  3889                                  65140           PUSH    PSW             ;SAVE THE SIGN
  3890                                  65160           CM      FRCSNG          ;IF IT IS NEGATIVE, FORCE IT TO BE A SNG
  3891                                  65180           MVI     A,4             ; SINCE WE WILL USE IT
  3892                                  65200           STA     VALTYP          ;MAKE SURE THE RESULT IS "SINGLE PRECISION"
  3893                                  65220           POP     PSW>            ;GET THE SIGN BACK
  3894  002674' 001000  000372          65240           JM      RND1            ;START NEW SEQUENCE IF NEGATIVE
  3895  002675' 000000  002725'
  3896  002676' 000000  002671'
  3897  002677' 001000  000041          65260           LXI     H,RNDX          ;GET LAST NUMBER GENERATED
  3898  002700' 000000  002752'
  3899  002701' 000000  002675'
  3900  002702' 001000  000315          65280           CALL    MOVFM
  3901  002703' 000000  001222'
  3902  002704' 000000  002700'
  3903  002705' 001000  000310          65300           RZ                      ;RETURN LAST NUMBER GENERATED IF ZERO
  3904                                  65320   IFE     EXTFNC,<
  3905                                  65340           CALL    FMULTS>         ;MULTIPLY BY CONSTANT A
  3906                                  65360   IFN     EXTFNC,<
  3907  002706' 001000  000315          65380           CALL    MOVRM
  3908  002707' 000000  001243'
  3909  002710' 000000  002703'


-- PAGE 283 --------------------------------------------------------------


MATHPK FOR BASIC MCS 8080  GATES/ALLEN/DAVIDOFF MACRO 47(113) 06:09 27-AUG-75 PAGE 16-2
F4      MAC     23-AUG-64 06:08         POLYNOMIAL EVALUATOR AND THE RANDOM NUMBER GENERATOR

  3910  002711' 001000  000315          65400           CALL    FMULT>
  3911  002712' 000000  000517'
  3912  002713' 000000  002707'
  3913  002714' 001000  000001          65420           MOVRI   150,050,261,106 ;ADD IN CONSTANT OF ORDER 2^(-24)
  3914  002715' 000000  000050
  3915  002716' 000000  000150
  3916  002717' 001000  000021
  3917  002720' 000000  000106
  3918  002721' 000000  000261
  3919  002722' 001000  000315          65440           CALL    FADD
  3920  002723' 000000  000025'
  3921  002724' 000000  002712'
  3922  002725' 001000  000315          65460   RND1:   CALL    MOVRF           ;SWITCH HO AND LO BYTES
  3923  002726' 000000  001240'
  3924  002727' 000000  002723'
  3925  002730' 001000  000173          65480           MOV     A,E             ;GET LO
  3926  002731' 001000  000131          65500           MOV     E,C             ;PUT HO IN LO BYTE
  3927  002732' 001000  000117          65520           MOV     C,A             ;PUT LO IN HO BYTE
  3928  002733' 001000  000066          65540           MVI     M,200           ;MAKE RESULT POSITIVE
  3929  002734' 000000  000200
  3930  002735' 001000  000053          65560           DCX     H               ;GET POINTER TO EXPONENT
  3931  002736' 001000  000106          65580           MOV     B,M             ;PUT EXPONENT IN OVERFLOW POSITION
  3932  002737' 001000  000066          65600           MVI     M,200           ;SET EXP SO RESULT WILL BE BETWEEN 0 AND 1
  3933  002740' 000000  000200
  3934  002741' 000000  000315          65620           CALL    NORMAL          ;NORMALIZE THE RESULT
  3935  002742' 001000  000146'
  3936  002743' 000000  002726'
  3937  002744' 001000  000041          65640           LXI     H,RNDX          ;SAVE RANDOM NUMBER GENERATED FOR NEXT
  3938  002745' 000000  002752'
  3939  002746' 000000  002742'
  3940  002747' 001000  000303          65660           JMP     MOVMF           ; TIME
  3941  002750' 000000  001254'
  3942  002751' 000000  002745'
  3943
  3944                                  65700           ;CONSTANTS AND STORAGE FOR RND
  3945  002752' 000000  000122          65720   RNDX:   122     ;LAST RANDOM NUMBER GENERATED, BETWEEN 0 AND 1
  3946  002753' 000000  000307          65740           307
  3947  002754' 000000  000117          65760           117
  3948  002755' 000000  000200          65780           200
  3949  002756' 000000  000172          65800           172     ;RANDOM NUMBER OF ORDER 2^24
  3950  002757' 000000  000104          65820           104
  3951  002760' 000000  000065          65840           065
  3952  002761' 000000  000230          65860           230
  3953                                  65880   PAGE


-- PAGE 284 --------------------------------------------------------------


MATHPK FOR BASIC MCS 8080  GATES/ALLEN/DAVIDOFF MACRO 47(113) 06:09 27-AUG-75 PAGE 17
F4      MAC     23-AUG-64 06:08         SINE, COSINE AND TANGENT FUNCTIONS

  3954                                  65900   SUBTTL  SINE, COSINE AND TANGENT FUNCTIONS
  3955                                  65920   IFN     EXTFNC,<
  3956                                  65940           ;COSINE FUNCTION
  3957                                  65960           ;IDEA:  USE COS(X)=SIN(X+PI/2)
  3958  002762' 001000  000041          65980   COS:    LXI     H,PI2           ;ADD PI/2 TO FAC
  3959  002763' 000000  003070'
  3960  002764' 000000  002750'
  3961  002765' 001000  000315          66000           CALL    FADDS>
  3962  002766' 000000  000003'
  3963  002767' 000000  002763'
  3964                                  66020                                   ;FALL INTO SIN
  3965
  3966
  3967                                  66080           ;SINE FUNCTION
  3968                                  66100           ;IDEA: USE IDENTITIES TO GET FAC IN QUADRANTS I OR IV
  3969                                  66120           ;THE FAC IS DIVIDED BY 2*PI AND THE INTEGER PART IS IGNORED BECAUSE
  3970                                  66140           ;SIN(X+2*PI)=SIN(X).  THEN THE ARGUMENT CAN BE COMPARED WITH PI/2 BY
  3971                                  66160           ;COMPARING THE RESULT OF THE DIVISION WITH PI/2/(2*PI)=1/4.
  3972                                  66180           ;IDENTITIES ARE THEN USED TO GET THE RESULT IN QUADRANTS I OR IV.
  3973                                  66200           ;AN APPROXIMATION POLYNOMIAL IS THEN USED TO COMPUTE SIN(X).
  3974  002770' 001000  000315          66220   SIN:    CALL    PUSHF           ;DIVIDE FAC BY 2*PI
  3975  002771' 000000  001205'
  3976  002772' 000000  002766'
  3977  002773' 001000  000001          66240           MOVRI   203,111,017,333 ;AFTER DIVIDING BY 2*PI, RESULT IS
  3978  002774' 000000  000111
  3979  002775' 000000  000203
  3980  002776' 001000  000021
  3981  002777' 000000  000333
  3982  003000' 000000  000017
  3983  003001' 001000  000315          66260           CALL    MOVFR           ; BETWEEN 0 AND 1
  3984  003002' 000000  001225'
  3985  003003' 000000  002771'
  3986  003004' 001000  000301          66280           POPR
  3987  003005' 001000  000321
  3988  003006' 001000  000315          66300           CALL    FDIV
  3989  003007' 000000  000655'
  3990  003010' 000000  003002'
  3991  003011' 001000  000315          66320           CALL    PUSHF           ;DISREGARD INTEGER PART SINCE SIN
  3992  003012' 000000  001205'
  3993  003013' 000000  003007'
  3994  003014' 001000  000315          66340           CALL    INT             ; IS PERIODIC WITH PERIOD 2*PI
  3995  003015' 000000  001445'
  3996  003016' 000000  003012'
  3997  003017' 001000  000301          66360           POPR
  3998  003020' 001000  000321
  3999  003021' 001000  000315          66380           CALL    FSUB
  4000  003022' 000000  000017'
  4001  003023' 000000  003015'
  4002                                  66400   IFE     EXTFNC,<
  4003                                  66420           LXI     B,177*400+$CODE ;GET 1/4
  4004                                  66440           MOV     D,C
  4005                                  66460           MOV     E,C
  4006                                  66480           CALL    FSUB>


-- PAGE 285 --------------------------------------------------------------


MATHPK FOR BASIC MCS 8080  GATES/ALLEN/DAVIDOFF MACRO 47(113) 06:09 27-AUG-75 PAGE 17-1
F4      MAC     23-AUG-64 06:08         SINE, COSINE AND TANGENT FUNCTIONS

  4007                                  66500   IFN     EXTFNC,<
  4008  003024' 001000  000041          66520           LXI     H,FR4           ;SEE WHAT QUADRANT WE ARE IN
  4009  003025' 000000  003074'
  4010  003026' 000000  003022'
  4011  003027' 001000  000315          66540           CALL    FSUBS>
  4012  003030' 000000  000011'
  4013  003031' 000000  003025'
  4014  003032' 001000  000357          66560           FSIGN
  4015  003033' 001000  000067          66580           STC                     ;SEE EQUADRANT I FLAG
  4016  003034' 001000  000362          66600           JP      SIN1            ;FIRST QUADRANT, GET BACK ORIGINAL X
  4017  003035' 000000  003044'
  4018  003036' 000000  003030'
  4019  003037' 001000  000315          66620           CALL    FADDH           ;ADD 1/2
  4020  003040' 000000  000000'
  4021  003041' 000000  003035'
  4022  003042' 001000  000357          66640           FSIGN
  4023  003043' 001000  000267          66660           ORA     A               ;CLEAR CARRY
  4024  003044' 001000  000365          66680   SIN1:   PUSH    PSW             ;SAVE QUADRANT FLAG
  4025  003045' 001000  000364          66700           CP      NEG             ;NEGATE IF IN QUADRANTS I, II, OR III
  4026  003046' 000000  001175'
  4027  003047' 000000  003040'
  4028                                  66720   IFE     EXTFNC,<
  4029                                  66740           LXI     B,177*400+$CODE ;GET 1/4
  4030                                  66760           MOV     D,C
  4031                                  66780           MOV     E,C
  4032                                  67800           CALL    FADD>
  4033                                  67820   IFN     EXTFNC,<
  4034  003050' 001000  000041          67840           LXI     H,FR4           ;ADD 1/4.  IN QUADRANTS II, III
  4035  003051' 000000  003074'
  4036  003052' 000000  003046'
  4037                                  67860                                   ; USE THE IDENTITY: SIN(PI-X)=SIN(X)
  4038                                  67880                                   ;IN QUADRANT IV, USE THE IDENTITY:
  4039  003053' 001000  000315          67900           CALL    FADDS>          ;   SIN(X-2*2)=SIN(X)
  4040  003054' 000000  000003'
  4041  003055' 000000  003051'
  4042  003056' 001000  000361          67920           POP     PSW             ;GET QUADRANT FLAG
  4043  003057' 001000  000324          67940           CNC     NEG             ;NEGATE IF IN QUADRANTS II, III OR IV
  4044  003060' 000000  001175'
  4045  003061' 000000  003054'
  4046                                  66960   IFE     EXTFNC,<                ;EVALUATE APPROXIMATION POLYNOMIAL
  4047                                  66980           CALL    PUSHF           ;SAVE X
  4048                                  67000           CALL    MOVRF           ;SQUARE X
  4049                                  67020           CALL    FMULT
  4050                                  67040           CALL    PUSHF           ;SAVE X^W
  4051                                  67060           LXI     H,SINCON
  4052                                  67080           CALL    MOVFM           ;MOVE FIRST CONSTANT INTO FAC
  4053                                  67100           POPR                    ;GET X^2
  4054                                  67120           MVI     A,4             ;GET DEGREE
  4055                                  67140   POLY1:  PUSH    PSW             ;SAVE DEGREE
  4056                                  67160           PUSHR                   ;SAVE X^2
  4057                                  67180           PUSH    H               ;SAVE CONSTANT POINTER
  4058                                  67200           CALL    FMULT           ;EVALUATE THE POLY, MULTIPLY BY X^2
  4059                                  67220           POP     H               ;GET POINTER TO CONSTANTS


-- PAGE 286 --------------------------------------------------------------


MATHPK FOR BASIC MCS 8080  GATES/ALLEN/DAVIDOFF MACRO 47(113) 06:09 27-AUG-75 PAGE 17-2
F4      MAC     23-AUG-64 06:08         SINE, COSINE AND TANGENT FUNCTIONS

  4060                                  67240           CALL    MOVRM           ;GET CONSTANT
  4061                                  67260           PUSH    H               ;SAVE POINTER
  4062                                  67280           CALL    FADD            ;ADD IN CONSTANT
  4063                                  67300           POP     H               ;MOVE POINTER TO NEXT CONSTANT
  4064                                  67320           POPR                    ;GET X^2
  4065                                  67340           POP     PSW             ;GET DEGREE
  4066                                  67360           DCR     A               ;SEE IF DONE
  4067                                  67380           JNZ     POLY1           ;NO, DO NEXT TERM
  4068                                  67400           JMP     FMULTT>         ;MULTIPLY BY X AND WE ARE DONE
  4069                                  67420   IFN     EXTFNC,<
  4070  003062' 001000  000041          67440           LXI     H,SINCON        ;CALCUALTE THE SIN BY EVALUATING
  4071  003063' 000000  003100'
  4072  003064' 000000  003060'
  4073  003065' 001000  000303          67460           JMP     POLYX>          ; THE APPROXIMATION POLYNOMIAL
  4074  003066' 000000  002613'
  4075  003067' 000000  003063'
  4076                                  67480           ;CONSTANTS FOR SIN, COS
  4077                                  67500   IFN     EXTFNC,<
  4078  003070' 000000  000333          67520   PI2:    333     ; PI/2
  4079  003071' 000000  000017          67540           017
  4080  003072' 000000  000111          67560           111
  4081  003073' 000000  000201          67580           201
  4082  003074' 000000  000000          67600   FR4:    000     ; 1/4
  4083  003075' 000000  000000          67620           000
  4084  003076' 000000  000000          67640           000
  4085  003077' 000000  000177          67660           177>
  4086                                  67680   SINCON:
  4087                                  67700   IFN     EXTFNC,<
  4088  003100' 000000  000005          67720           5>      ;DEGREE
  4089  003101' 000000  000272          67740           272     ; 39.701067
  4090  003102' 000000  000327          67760           327
  4091  003103' 000000  000036          67780           036
  4092  003104' 000000  000206          67800           206
  4093  003105' 000000  000144          67820           144     ; -76.57498
  4094  003106' 000000  000046          67840           046
  4095  003107' 000000  000231          67860           231
  4096  003110' 000000  000207          67880           207
  4097  003111' 000000  000130          67900           130     ; 81.60223
  4098  003112' 000000  000064          67920           064
  4099  003113' 000000  000043          67940           043
  4100  003114' 000000  000207          67960           207
  4101  003115' 000000  000340          67980           340     ; -41.34168
  4102  003116' 000000  000135          68000           135
  4103  003117' 000000  000245          68020           245
  4104  003120' 000000  000206          68040           206
  4105  003121' 000000  000332          68060           332     ; 6.283185
  4106  003122' 000000  000017          68080           017
  4107  003123' 000000  000111          68100           111
  4108  003124' 000000  000203          68120           203
  4109
  4110
  4111                                  68180   IFN     EXTFNC,<
  4112                                  68200           ;TANGENT FUNCTION


-- PAGE 287 --------------------------------------------------------------


MATHPK FOR BASIC MCS 8080  GATES/ALLEN/DAVIDOFF MACRO 47(113) 06:09 27-AUG-75 PAGE 17-3
F4      MAC     23-AUG-64 06:08         SINE, COSINE AND TANGENT FUNCTIONS

  4113                                  68220           ;TAN(X)=SIN(X)/COS(X)
  4114  003125' 001000  000315          68240   TAN:    CALL    PUSHF           ;SAVE ARG
  4115  003126' 000000  001205'
  4116  003127' 000000  003066'
  4117  003130' 001000  000315          68260           CALL    SIN             ;   TAN(X)=SIN(X)/COS(X)
  4118  003131' 000000  002770'
  4119  003132' 000000  003126'
  4120  003133' 001000  000301          68280           POP     B               ;GET X OFF STACK
  4121  003134' 001000  000341          68300           POP     H               ;PUSHF SMASHES (DE)
  4122  003135' 001000  000315          68320           CALL    PUSHF
  4123  003136' 000000  001205'
  4124  003137' 000000  003131'
  4125  003140' 001000  000353          68340           XCHG                    ;GET LO'S WHERE THEY BELONG
  4126  003141' 001000  000315          68360           CALL    MOVFR
  4127  003142' 000000  001225'
  4128  003143' 000000  003136'
  4129  003144' 001000  000315          68380           CALL    COS
  4130  003145' 000000  002762'
  4131  003146' 000000  003142'
  4132  003147' 001000  000303          68400           JMP     FDIVT>
  4133  003150' 000000  000653'
  4134  003151' 000000  003145'
  4135                                  68420   PAGE


-- PAGE 288 --------------------------------------------------------------


MATHPK FOR BASIC MCS 8080  GATES/ALLEN/DAVIDOFF MACRO 47(113) 06:09 27-AUG-75 PAGE 18
F4      MAC     23-AUG-64 06:08         ARCTANGENT FUNCTION

  4136                                  68440   SUBTTL  ARCTANGENT FUNCTION
  4137                                  68460   IFN     EXTFNC,<
  4138                                  68480           ;IDEA: USE IDENTITIES TO GET ARG BETWEEN 0 AND 1 AND THEN USE AN
  4139                                  68500           ;AN APPROXIMATION POLYNOMIAL TO COMPUTE ARCTAN(X)
  4140  003152' 001000  000357          68520   ATN:    FSIGN                   ;SEE IF ARG IS NEGATIVE
  4141  003153' 001000  000374          68540           CM      PSHNEG          ;IF ARG IS NEGATIVE, USE:
  4142  003154' 000000  002340'
  4143  003155' 000000  003150'
  4144  003156' 001000  000374          68560           CM      NEG             ;   ARCTAN(X)=-ARCTAN(-X)
  4145  003157' 000000  001175'
  4146  003160' 000000  003154'
  4147  003161' 001000  000072          68580           LDA     FAC             ;SEE IF FAC .GT. 1
  4148  003162' 000000  002467*
  4149  003163' 000000  003157'
  4150  003164' 001000  000376          68600           CPI     201
  4151  003165' 000000  000201
  4152  003166' 001000  000332          68620           JC      ATN2
  4153  003167' 000000  003205'
  4154  003170' 000000  003162'
  4155  003171' 001000  000001          68640           LXI     B,201*400+$CODE ;GET THE CONSTANT 1
  4156  003172' 000000  100400*
  4157  003173' 000000  003167'
  4158  003174' 001000  000121          68660           MOV     D,C
  4159  003175' 001000  000131          68680           MOV     E,C             ;COMPUTE RECIPROCAL TO USE THE IDENTITY:
  4160  003176' 001000  000315          68700           CALL    FDIV            ;  ARCTAN(X)=PI/2-ARCTAN(1/X)
  4161  003177' 000000  000655'
  4162  003200' 000000  003172'
  4163  003201' 001000  000041          68720           LXI     H,FSUBS         ;PUT FSUBS ON THE STACK SO WE WILL RETURN
  4164  003202' 000000  000011'
  4165  003203' 000000  003177'
  4166  003204' 001000  000345          68740           PUSH    H               ; TO IT AND SUBTRACT THE REULT FROM PI/2
  4167  003205' 001000  000041          68760   ATN2:   LXI     H,ATNCON        ;EVALUATE APPROXIMATION POLYNOMIAL
  4168  003206' 000000  003217'
  4169  003207' 000000  003202'
  4170  003210' 001000  000315          68780           CALL    POLYX
  4171  003211' 000000  002613'
  4172  003212' 000000  003206'
  4173  003213' 001000  000041          68800           LXI     H,PI2           ;GET POINTER TO PI/2 IN CASE WE HAVE TO
  4174  003214' 000000  003070'
  4175  003215' 000000  003211'
  4176  003216' 001000  000311          68820           RET                     ; SUBTRACT THE RESULT FROM PI/2
  4177
  4178                                  68860           ;CONSTANTS FOR ATN
  4179  003217' 000000  000011          68880   ATNCON: 11      ;DEGREE
  4180  003220' 000000  000112          68900           112     ; .002866226
  4181  003221' 000000  000327          68920           327
  4182  003222' 000000  000073          68940           073
  4183  003223' 000000  000170          68960           170
  4184  003224' 000000  000002          68980           002     ; -.01616574
  4185  003225' 000000  000156          69000           156
  4186  003226' 000000  000204          69020           204
  4187  003227' 000000  000173          69040           173
  4188  003230' 000000  000376          69060           376     ; .04290961


-- PAGE 289 --------------------------------------------------------------


MATHPK FOR BASIC MCS 8080  GATES/ALLEN/DAVIDOFF MACRO 47(113) 06:09 27-AUG-75 PAGE 18-1
F4      MAC     23-AUG-64 06:08         ARCTANGENT FUNCTION

  4189  003231' 000000  000301          69080           301
  4190  003232' 000000  000057          69100           057
  4191  003233' 000000  000174          69120           174
  4192  003234' 000000  000164          69140           164     ; -.07528964
  4193  003235' 000000  000061          69160           061
  4194  003236' 000000  000232          69180           232
  4195  003237' 000000  000175          69200           175
  4196  003240' 000000  000204          69220           204     ; .1065626
  4197  003241' 000000  000075          69240           075
  4198  003242' 000000  000132          69260           132
  4199  003243' 000000  000175          69280           175
  4200  003244' 000000  000310          69300           310     ; -.142089
  4201  003245' 000000  000177          69320           177
  4202  003246' 000000  000221          69340           221
  4203  003247' 000000  000176          69360           176
  4204  003250' 000000  000344          69380           344     ; .1999355
  4205  003251' 000000  000273          69400           273
  4206  003252' 000000  000114          69420           114
  4207  003253' 000000  000176          69440           176
  4208  003254' 000000  000154          69460           154     ; -.3333315
  4209  003255' 000000  000252          69480           252
  4210  003256' 000000  000252          69500           252
  4211  003257' 000000  000117          69520           177
  4212  003260' 000000  000000          69540           000     ; 1.0
  4213  003261' 000000  000000          69560           000
  4214  003262' 000000  000000          69580           000
  4215  003263' 000000  000201          69600           201>
  4216                                  69620   PAGE


-- PAGE 290 --------------------------------------------------------------


MATHPK FOR BASIC MCS 8080  GATES/ALLEN/DAVIDOFF MACRO 47(113) 06:09 27-AUG-75 PAGE 19
F4      MAC     23-AUG-64 06:08         SYSTEM INITIALIZATION CODE

  4217                                  69640   SUBTTL  SYSTEM INITIALIZATION CODE
  4218                                  69660   RADIX   10              ;IN ALL NON-MATH PACKAGE CODE
  4219                                  69680   ;THIS IS THE SYSTEM INITIALIZATION CODE
  4220                                  69700   ;IT SHOULD BE LOADED AT THE END OF THE BASIC
  4221                                  69720   ;INTERPRETER
  4222
  4223                                  69760   INTERNAL        INIT
  4224
  4225                                  69800   EXTERNAL        CRDO,LINGET,QINLIN,READY,SCRTCH,STROUT,REASON,BUF
  4226                                  69820   EXTERNAL        SNERR,OMERR,ILLFUN
  4227
  4228                  145040          69860   FUNIO==<^D256*^O312>+^O40+$CODE
  4229  003264'                         69880   INITSA: BLOCK   10
  4230  003276' 001000  000041          69900   INITAT: LXI     H,AUTTXT
  4231  003277' 000000  000035'
  4232  003300' 000000  003214'
  4233  003301' 001000  000315          69920           CALL    STROUT
  4234  003302' 000000  001763*
  4235  003303' 000000  003277'
  4236  003304'                         69940   INIT:
  4237                                  69960   IFN     REALIO,<
  4238  003304' 001000  000333          69980           IN      1               ;IGNORE GARBAGE CHARACTER IN INTERFACE
  4239  003305' 000000  000001
  4240  003306' 001000  000333          70000           IN      ^D255           ;SEE WHAT KIND OF I/O HE IS
  4241  003307' 000000  000377
  4242  003310' 001000  000346          70020           ANI     ^O100           ;IS HE FUNNY TTY?
  4243  003311' 000000  000100
  4244  003312' 001000  000312          70040           JZ      NOTSIO
  4245  003313' 000000  003343'
  4246  003314' 000000  003302'
  4247  003315' 001000  000041          70060           LXI     H,FUNIO
  4248  003316' 000000  145040*
  4249  003317' 000000  003313'
  4250  003320' 001000  000042          70080           SHLD    CNLCA2##+2
  4251  003321' 000000  000002*
  4252  003322' 000000  003316'
  4253  003323' 001000  000046          70100           MVI     H,^O310
  4254  003324' 000000  000310
  4255  003325' 001000  000042          70120           SHLD    CNLCA3##+2
  4256  003326' 000000  000002*
  4257  003327' 000000  003321'
  4258                                  70140   IFN     LENGTH,<
  4259  003330' 001000  000046          70160           MVI     H,^O304         ;SUBSTITUE "CNZ"
  4260  003331' 000000  000304
  4261  003332' 001000  000042          70180           SHLD    CNLCA4##+2>
  4262  003333' 000000  000002*
  4263  003334' 000000  003326'
  4264                  145002          70200   FUNIO==$CODE+<^D256*^O312>+2
  4265  003335' 001000  000041          70220           LXI     H,FUNIO
  4266  003336' 000000  145002*
  4267  003337' 000000  003333'
  4268  003340' 001000  000042          70240           SHLD    CNLCA1##+2
  4269  003341' 000000  000002*


-- PAGE 291 --------------------------------------------------------------


MATHPK FOR BASIC MCS 8080  GATES/ALLEN/DAVIDOFF MACRO 47(113) 06:09 27-AUG-75 PAGE 19-1
F4      MAC     23-AUG-64 06:08         SYSTEM INITIALIZATION CODE

  4270  003342' 000000  003336'
  4271  003343' 001000  000333          70260   NOTSIO: IN      ^D255
  4272  003344' 000000  000377
  4273  003345' 001000  000346          70280           ANI     ^O40
  4274  003346' 000000  000040
  4275  003347' 001000  000312          70300           JZ     NOTPIO
  4276  003350' 000000  003400'
  4277  003351' 000000  003341'
  4278                  145002          70320   FUNIO==$CODE+<^D256*^O312>+2
  4279  003352' 001000  000041          70340           LXI     H,FUNIO
  4280  003353' 000000  145002*
  4281  003354' 000000  003350'
  4282  003355' 001000  000042          70360           SHLD    CNLCA2+2
  4283  003356' 000000  000002*
  4284  003357' 000000  003353'
  4285  003360' 001000  000046          70380           MVI     H,^O310
  4286  003361' 000000  000310
  4287  003362' 001000  000042          70400           SHLD    CNLCA3+2
  4288  003363' 000000  000002*
  4289  003364' 000000  003356'
  4290                                  70420   IFN     LENGTH,<
  4291  003365' 001000  000046          70440           MVI     H,^O304
  4292  003366' 000000  000304
  4293  003367' 001000  000042          70460           SHLD    CNLCA4+2>
  4294  003370' 000000  000002*
  4295  003371' 000000  003363'
  4296                  145001          70480   FUNIO==$CODE+<^D256*^O312>+1
  4297  003372' 001000  000041          70500           LXI     H,FUNIO
  4298  003373' 000000  145001*
  4299  003374' 000000  003370'
  4300  003375' 001000  000042          70520           SHLD    CNLCA1+2
  4301  003376' 000000  000002*
  4302  003377' 000000  003373'
  4303                                  70540   NOTPIO:>
  4304  003400' 001000  000041          70560           LXI     H,$CODE+^D65535
  4305  003401' 000000  177777*
  4306  003402' 000000  003376'
  4307  003403' 001000  000042          70580           SHLD    CURLIN##        ;IN CASE OF ERROR
  4308  003404' 000000  000000*
  4309  003405' 000000  003401'
  4310  003406' 001000  000041          70600           LXI     H,TSTACK        ;SET UP TEMP STACK
  4311  003407' 000000  004315'
  4312  003410' 000000  003404'
  4313  003411' 001000  000371          70620           SPHL
  4314  003412' 001000  000042          70640           SHLD    STKTOP##
  4315  003413' 000000  000000*
  4316  003414' 000000  003407'
  4317                                  70660   IFN     CONTRW,<
  4318  003415' 001000  000257          70680           XRA     A
  4319  003416' 001000  000062          70700           STA     CNTWFL##>
  4320  003417' 000000  000000*
  4321  003420' 000000  003413'
  4322  003421' 001000  000315          70720           CALL    CRDO            ;TYPE A CR


-- PAGE 292 --------------------------------------------------------------


MATHPK FOR BASIC MCS 8080  GATES/ALLEN/DAVIDOFF MACRO 47(113) 06:09 27-AUG-75 PAGE 19-2
F4      MAC     23-AUG-64 06:08         SYSTEM INITIALIZATION CODE

  4323  003422' 000000  000000*
  4324  003423' 000000  003417'
  4325                                  70740   IFN     STRING,<
  4326  003424' 001000  000041          70760           LXI     H,TEMPST##
  4327  003425' 000000  000000*
  4328  003426' 000000  003422'
  4329  003427' 001000  000042          70780           SHLD    TEMPPT##>
  4330  003430' 000000  000000*
  4331  003431' 000000  003425'
  4332                                  70800   IFN     REALIO,<
  4333  003432' 001000  000041          70820           LXI     H,MEMORY        ;ASK HOW MUCH MEMORY AVAILABLE
  4334  003433' 000000  004243'
  4335  003434' 000000  003430'
  4336  003435' 001000  000315          70840           CALL    STROUT          ;CALL THE STRING PRINTER
  4337  003436' 000000  003302*
  4338  003437' 000000  003433'
  4339  003440' 001000  000315          70860           CALL    QINLIN          ;GET A LINE OF INPUT
  4340  003441' 000000  000000*
  4341  003442' 000000  003436'
  4342  003443' 001000  000327          70880           CHRGET                  ;GET A CHAR
  4343  003444' 001000  000376          70900           CPI     "A"
  4344  003445' 000000  000101
  4345  003446' 001000  000312          70920           JZ      INITAT
  4346  003447' 000000  003276'
  4347  003450' 000000  003441'
  4348  003451' 001000  000267          70940           ORA     A
  4349  003452' 001000  000302          70960           JNZ     USEDE9          ;NON ZERO, DONT USE DEFAULT
  4350  003453' 000000  003501'
  4351  003454' 000000  003447'
  4352  003455' 001000  000041          70980           LXI     H,LASTWR
  4353  003456' 000000  004257'
  4354  003457' 000000  003453'
  4355  003460' 001000  000043          71000   LOOPMM: INX     H
  4356  003461' 001000  000076          71020           MVI     A,311
  4357  003462' 000000  000467
  4358  003463' 001000  000167          71040           MOV     M,A
  4359  003464' 001000  000276          71060           CMP     M
  4360  003465' 001000  000302          71080           JNZ     USEDEF
  4361  003466' 000000  003515'
  4362  003467' 000000  003456'
  4363  003470' 001000  000075          71100           DCR     A
  4364  003471' 001000  000167          71120           MOV     M,A
  4365  003472' 001000  000276          71140           CMP     M
  4366  003473' 001000  000312          71160           JZ      LOOPMM
  4367  003474' 000000  003460'
  4368  003475' 000000  003466'
  4369  003476' 001000  000303          71180           JMP     USEDEF
  4370  003477' 000000  003515'
  4371  003500' 000000  003474'
  4372  003501' 001000  000041          71200   USEDE9: LXI     H,BUF
  4373  003502' 000000  000000*
  4374  003503' 000000  003477'
  4375  003504' 001000  000315          71220           CALL    LINGET          ;GET DECIMAL AMOUNT OF MEMORY IN [D,E]


-- PAGE 293 --------------------------------------------------------------


MATHPK FOR BASIC MCS 8080  GATES/ALLEN/DAVIDOFF MACRO 47(113) 06:09 27-AUG-75 PAGE 19-3
F4      MAC     23-AUG-64 06:08         SYSTEM INITIALIZATION CODE

  4376  003505' 000000  000000*
  4377  003506' 000000  003502'
  4378  003507' 001000  000267          71240           ORA     A
  4379  003510' 001000  000302          71260           JNZ     SNERR           ;MAKE SURE HE HAS A TERMINATOR
  4380  003511' 000000  000000*
  4381  003512' 000000  003505'
  4382  003513' 001000  000353          71280           XCHG
  4383  003514' 001000  000053          71300           DCX     H
  4384  003515' 001000  000053          71320   USEDEF: DCX     H>
  4385                                  71340   IFE     REALIO,<
  4386                                  71360           LXI     H,$CODE+16190>
  4387  003516' 001000  000345          71380           PUSH    H               ;ALSO SAVE FOR LATER
  4388  003517' 001000  000041          71400   TTYW:   LXI     H,TTYWID
  4389  003520' 000000  004127'
  4390  003521' 000000  003511'
  4391  003522' 001000  000315          71420           CALL    STROUT
  4392  003523' 000000  003436*
  4393  003524' 000000  003520'
  4394  003525' 001000  000315          71440           CALL    QINLIN
  4395  003526' 000000  003441*
  4396  003527' 000000  003523'
  4397  003530' 001000  000327          71460           CHRGET
  4398  003531' 001000  000267          71480           ORA     A
  4399  003532' 001000  000312          71500           JZ      DFLENT
  4400  003533' 000000  003604'
  4401  003534' 000000  003526'
  4402  003535' 001000  000041          71520           LXI     H,BUF
  4403  003536' 000000  003502*
  4404  003537' 000000  003533'
  4405  003540' 001000  000315          71540           CALL    LINGET
  4406  003541' 000000  003505*
  4407  003542' 000000  003536'
  4408  003543' 001000  000172          71560           MOV     A,D
  4409  003544' 001000  000267          71580           ORA     A
  4410  003545' 001000  000302          71600           JNZ     TTYW
  4411  003546' 000000  003517'
  4412  003547' 000000  003541'
  4413  003550' 001000  000173          71620           MOV     A,E
  4414  003551' 001000  000376          71640           CPI     16
  4415  003552' 000000  000020
  4416  003553' 001000  000332          71660           JC      TTYW
  4417  003554' 000000  003517'
  4418  003555' 000000  003546'
  4419  003556' 001000  000062          71680           STA     LINPT1##        ;DECLARE LINPT1 EXTERNAL
  4420  003557' 000000  000000*
  4421  003560' 000000  003554'
  4422                                  71700   IFN     LENGTH,<
  4423  003561' 001000  000062          71720           STA     LINPT2##>
  4424  003562' 000000  000000*
  4425  003563' 000000  003557'
  4426                                  71740   IFN     STRING,<
  4427  003564' 001000  000062          71760           STA     LINPT3##>
  4428  003565' 000000  000000*


-- PAGE 294 --------------------------------------------------------------


MATHPK FOR BASIC MCS 8080  GATES/ALLEN/DAVIDOFF MACRO 47(113) 06:09 27-AUG-75 PAGE 19-4
F4      MAC     23-AUG-64 06:08         SYSTEM INITIALIZATION CODE

  4429  003566' 000000  003562'
  4430  003567' 001000  000326          71780   MORCPS: SUI     14
  4431  003570' 000000  000016
  4432  003571' 001000  000322          71800           JNC     MORCPS
  4433  003572' 000000  003567'
  4434  003573' 000000  003565'
  4435  003574' 001000  000306          71820           ADI     28
  4436  003575' 000000  000034
  4437  003576' 001000  000057          71940           CMA
  4438  003577' 001000  000074          71960           INR     A
  4439  003600' 001000  000203          71980           ADD     E
  4440  003601' 001000  000062          71900           STA     LINPT4##
  4441  003602' 000000  000000*
  4442  003603' 000000  003572'
  4443                                  71920   DFLENT:
  4444                                  71940   IFN     STRING,<                ;SET UP DEFAULT STRING SPACE
  4445  003604' 001000  000021          71960           LXI     D,$CODE+^D65536-^D50+1
  4446  003605' 000000  177717*
  4447  003606' 000000  003602'
  4448  003607' 001000  000341          71980           POP     H
  4449  003610' 001000  000042          72000           SHLD    MEMSIZ##        ;SAVE IN REAL MEMORY SIZE
  4450  003611' 000000  000000*
  4451  003612' 000000  003605'
  4452  003613' 001000  000042          72020           SHLD    FRETOP##        ;STRINGS START FROM HERE DOWN
  4453  003614' 000000  000000*
  4454  003615' 000000  003611'
  4455  003616' 001000  000031          72040           DAD     D               ;CALC STRBOT BY SUBTRACTING 200 FROM STKTOP
  4456  003617' 001000  000322          72060           JNC     OMERR           ;MUST BE POSITIVE
  4457  003620' 000000  000000*
  4458  003621' 000000  003614'
  4459  003622' 001000  000053          72080           DCX     H               ;ONE LOWER IS STKTOP
  4460  003623' 001000  000345          72100           PUSH    H>              ;SAVE IT ON STACK
  4461                                  72120   IFE     EXTFNC,<
  4462                                  72140
  4463                                  72160   ; FUNCTION DELETION ROUTINE FOR 4K MACHINE
  4464                                  72180   ; TO ADD A NEW FUNCTION JUST UPDATE TBLDO
  4465                                  72200
  4466                                  72220   ASKAGN: LXI     H,TBLDO         ;START OF FUNCTION TABLE
  4467                                  72240   LOPASK: PUSHM                   ;PUT ON CANDIDATE FOR START OF FREE MEMORY
  4468                                  72260           LXI     D,TBDASK        ;DONE ASKING?
  4469                                  72280           COMPAR
  4470                                  72300           JZ      FINFUN          ;YES, GET FIRST FREE MEM LOC
  4471                                  72320                                   ;INTO [D,E] AND QUIT
  4472                                  72340           PUSHM                   ;PUT ON MESSAGE LOCATION
  4473                                  72360           XTHL                    ;[H,L]=MESSAGE POINTER
  4474                                  72380                                   ;POINTER INTO TBLDO GOES ON THE STACK
  4475                                  72400           CALL    STROUT          ;PRINT THE MESSAGE
  4476                                  72420           CALL    QINLIN          ;SEE WHAT HE HAS TO SAY
  4477                                  72440           CHRGET                  ;SEE WHAT THE FIRST CHARACTER OF INPUT WAS
  4478                                  72460           POP     H               ;POP OFF POINTER INTO TBLDO
  4479                                  72480           CPI     "Y"
  4480                                  72500   FINFUN: POP     D               ;POP OFF CANDIDATE FOR START OF
  4481                                  72520                                   ;FREE MEMORY


-- PAGE 295 --------------------------------------------------------------


MATHPK FOR BASIC MCS 8080  GATES/ALLEN/DAVIDOFF MACRO 47(113) 06:09 27-AUG-75 PAGE 19-5
F4      MAC     23-AUG-64 06:08         SYSTEM INITIALIZATION CODE

  4482                                  72540           JZ      HAVFNS          ;HE WANTS IT SO WE ARE DONE
  4483                                  72560           CPI     "N"             ;IF A BAD ANSWER
  4484                                  72580           JNZ     ASKAGN          ;MAKE HIM START OVER
  4485                                  72600           PUSHM                   ;PUSH ON FUNCTION CALL
  4486                                  72620                                   ;LOCATION THAT WE FIX UP
  4487                                  72640           XTHL                    ;[H,L]=FIXUP PLACE
  4488                                  72660                                   ;POINTER INTO TBLDO GOES ON THE STACK
  4489                                  72680           LXI     D,ILLFUN        ;THIS IS WHAT WE STORE
  4490                                  72700           MOV     M,E
  4491                                  72720           INX     H
  4492                                  72740           MOV     M,D
  4493                                  72760           POP     H               ;GET TBLDO POINTER
  4494                                  72780           JMP     LOPASK>         ;GO ASK AGAIN FOR ANOTHER FUNCTION
  4495                                  72800   IFN     EXTFNC,<
  4496  003624' 001000  000041          72820   ASKAGN: LXI     H,FNS           ;ASK IF WANTS SIN, COS, ATN
  4497  003625' 000000  004010'
  4498  003626' 000000  003620'
  4499  003627' 001000  000315          72840           CALL    STROUT          ;THE STRING
  4500  003630' 000000  003523*
  4501  003631' 000000  003625'
  4502  003632' 001000  000315          72860           CALL    QINLIN
  4503  003633' 000000  003526*
  4504  003634' 000000  003630'
  4505  003635' 001000  000327          72880           CHRGET
  4506  003636' 001000  000376          72900           CPI     "Y"
  4507  003637' 000000  000131
  4508  003640' 001000  000021          72920           LXI     D,INITSA        ;ASSUME NOT DELETE ANY FNS
  4509  003641' 000000  003264'
  4510  003642' 000000  003633'
  4511  003643' 001000  000312          72940           JZ      HAVFNS          ;YUP.
  4512  003644' 000000  003712'
  4513  003645' 000000  003641'
  4514  003646' 001000  000376          72960           CPI     "A"
  4515  003647' 000000  000101
  4516  003650' 001000  000312          72980           JZ      OKCHAR
  4517  003651' 000000  003660'
  4518  003652' 000000  003644'
  4519  003653' 001000  000376          73000           CPI     "N"
  4520  003654' 000000  000116
  4521  003655' 001000  000302          73020           JNZ     ASKAGN
  4522  003656' 000000  003624'
  4523  003657' 000000  003651'
  4524  003660' 001000  000041          73040   OKCHAR: LXI     H,ILLFUN        ;MAKE SURE BOMBS IF TRIES TO CALL THEM
  4525  003661' 000000  000000*
  4526  003662' 000000  003656'
  4527  003663' 001000  000021          73060           LXI     D,ATN
  4528  003664' 000000  003152'
  4529  003665' 000000  003661'
  4530  003666' 001000  000042          73080           SHLD    ATNFIX##
  4531  003667' 000000  000000*
  4532  003670' 000000  003664'
  4533  003671' 001000  000376          73100           CPI     "A"             ;DELETE ATN BUT NOT SIN, COS?
  4534  003672' 000000  000101


-- PAGE 296 --------------------------------------------------------------


MATHPK FOR BASIC MCS 8080  GATES/ALLEN/DAVIDOFF MACRO 47(113) 06:09 27-AUG-75 PAGE 19-6
F4      MAC     23-AUG-64 06:08         SYSTEM INITIALIZATION CODE

  4535  003673' 001000  000312          73120           JZ      HAVFNS          ;TEST
  4536  003674' 000000  003712'
  4537  003675' 000000  003667'
  4538  003676' 001000  000042          73140           SHLD    COSFIX##
  4539  003677' 000000  000000*
  4540  003700' 000000  003674'
  4541  003701' 001000  000042          73160           SHLD    TANFIX##
  4542  003702' 000000  000000*
  4543  003703' 000000  003677'
  4544  003704' 001000  000042          73180           SHLD    SINFIX##
  4545  003705' 000000  000000*
  4546  003706' 000000  003702'
  4547  003707' 001000  000021          73200           LXI     D,COS>
  4548  003710' 000000  002762'
  4549  003711' 000000  003705'
  4550  003712'                         73220   HAVFNS:                         ;TEXT ALWAYS PRECEDED BY ZERO
  4551  003712' 001000  000353          73240           XCHG                    ;PUT BOTTOM OF MEMORY IN [H,L]
  4552  003713' 001000  000066          73260           MVI     M,0             ;STORE IT
  4553  003714' 000000  000000
  4554  003715' 001000  000043          73280           INX     H               ;INCREMENT POINTER
  4555  003716' 001000  000042          73300           SHLD    TXTTAB##        ;SAVE BOTTOM OF MEMORY
  4556  003717' 000000  000000*
  4557  003720' 000000  003710'
  4558  003721' 001000  000343          73320           XTHL
  4559  003722' 001000  000021          73340           LXI     D,TSTACK
  4560  003723' 000000  004315'
  4561  003724' 000000  003717'
  4562  003725' 001000  000347          73360           COMPAR
  4563  003726' 001000  000332          73380           JC      OMERR
  4564  003727' 000000  003620*
  4565  003730' 000000  003723'
  4566  003731' 001000  000321          73400           POP     D
  4567  003732' 001000  000371          73420           SPHL
  4568  003733' 001000  000042          73440           SHLD    STKTOP
  4569  003734' 000000  003413*
  4570  003735' 000000  003727'
  4571  003736' 001000  000353          73460           XCHG
  4572  003737' 001000  000315          73480           CALL    REASON
  4573  003740' 000000  000000*
  4574  003741' 000000  003734'
  4575  003742' 001000  000173          73500           MOV     A,E             ;SUBTRACT VARTAB FROM STKTOP
  4576  003743' 001000  000225          73520           SUB     L               ;LOW PART
  4577  003744' 001000  000157          73540           MOV     L,A             ;
  4578  003745' 001000  000172          73560           MOV     A,D             ;HIGH PART
  4579  003746' 001000  000234          73580           SBB     H               ;
  4580  003747' 001000  000147          73600           MOV     H,A             ;LEAVE IN [B,C]
  4581  003750' 001000  000001          73620           LXI     B,$CODE+65520
  4582  003751' 000000  177760*
  4583  003752' 000000  003740'
  4584  003753' 001000  000011          74640           DAD     B
  4585  003754' 001000  000315          74660           CALL    CRDO            ;TYPE CRLF
  4586  003755' 000000  003422*
  4587  003756' 000000  003751'


-- PAGE 297 --------------------------------------------------------------


MATHPK FOR BASIC MCS 8080  GATES/ALLEN/DAVIDOFF MACRO 47(113) 06:09 27-AUG-75 PAGE 19-7
F4      MAC     23-AUG-64 06:08         SYSTEM INITIALIZATION CODE

  4588  003757' 001000  000315          73680           CALL    LINPRT          ;PRINT # OF BYTES FREE
  4589  003760' 000000  001766'
  4590  003761' 000000  003755'
  4591  003762' 001000  000041          73700           LXI     H,WORDS         ;TYPE THE HEADING
  4592  003763' 000000  004146'
  4593  003764' 000000  003760'
  4594  003765' 001000  000315          73720           CALL    STROUT          ;"ALTAIR BASIC VERSION-----"
  4595  003766' 000000  003630*
  4596  003767' 000000  003763'
  4597  003770' 001000  000041          73740           LXI     H,STROUT
  4598  003771' 000000  003766*
  4599  003772' 000000  003766'
  4600  003773' 001000  000042          73760           SHLD    REPINI##+1
  4601  003774' 000000  000001*
  4602  003775' 000000  003771'
  4603  003776' 001000  000315          73780           CALL    SCRTCH          ;NOW SET UP EVERYTHING ELSE
  4604  003777' 000000  000000*
  4605  004000' 000000  003774'
  4606                                  73800   IFN     LPTSW,<
  4607                                  73820           MVI     A,4
  4608                                  73840           OUT     2               ;CLEAR THE LPT
  4609                                  73860           XRA     A
  4610                                  73880           STA     PRTFLG##
  4611                                  73900           STA     LPTPOS##>
  4612  004001' 001000  000041          73920   IFE     CONSSW,<LXI     H,READY>
  4613  004002' 000000  000000*
  4614  004003' 000000  003777'
  4615                                  73940   IFN     CONSSW,<
  4616                                  73960           LXI     H,CONSDO##>
  4617  004004' 001000  000042          73980           SHLD    $CODE+2
  4618  004005' 000000  000002*
  4619  004006' 000000  004002'
  4620  004007' 001000  000351          74000           PCHL
  4621
  4622                                  74040   IFE     EXTFNC,<
  4623                                  74060   TBLDO:  ADR(INITSA)
  4624                                  74080           ADR(FNS)
  4625                                  74100           ADR(SINFIX)
  4626                                  74120           ADR(SIN)
  4627                                  74140           ADR(FN2)
  4628                                  74160           ADR(RNDFIX)
  4629                                  74180           ADR(RND)
  4630                                  74200           ADR(FNS3)
  4631                                  74220           ADR(SQRFIX)
  4632                                  74240           ADR(SQR)
  4633                                  74260   TBDASK:                         ;END OF ASK TABLE
  4634                                  74280   FNS:    DC"WANT SIN"
  4635                                  74300           0
  4636                                  74320   FNS2:   DC"WANT RND"
  4637                                  74340           0
  4638                                  74360   FNS3:   DC"WANT SQR"
  4639                                  74380           0>
  4640                                  74400   IFN     EXTFNC,<


-- PAGE 298 --------------------------------------------------------------


MATHPK FOR BASIC MCS 8080  GATES/ALLEN/DAVIDOFF MACRO 47(113) 06:09 27-AUG-75 PAGE 19-8
F4      MAC     23-AUG-64 06:08         SYSTEM INITIALIZATION CODE

  4641  004010' 000000  000127          74420   FNS:    DC"WANT SIN-COS-TAN-ATN"
  4642  004011' 000000  000101
  4643  004012' 000000  000116
  4644  004013' 000000  000124
  4645  004014' 000000  000040
  4646  004015' 000000  000123
  4647  004016' 000000  000111
  4648  004017' 000000  000116
  4649  004020' 000000  000055
  4650  004021' 000000  000103
  4651  004022' 000000  000117
  4652  004023' 000000  000123
  4653  004024' 000000  000055
  4654  004025' 000000  000124
  4655  004026' 000000  000101
  4656  004027' 000000  000116
  4657  004030' 000000  000055
  4658  004031' 000000  000101
  4659  004032' 000000  000124
  4660  004033' 000000  000116
  4661  004033' 000000  000316
  4662  004034' 000000  000000          74440           0>
  4663  004035' 000000  000015          74460   AUTTXT: ACRLF
  4664  004036' 000000  000012
  4665  004037' 000000  000012          74480           ^D10
  4666  004040' 000000  000127          74500           DC"WRITTEN BY BILL GATES & PAUL ALLEN & MONTE DAVIDOFF."
  4667  004041' 000000  000122
  4668  004042' 000000  000111
  4669  004043' 000000  000124
  4670  004044' 000000  000124
  4671  004045' 000000  000105
  4672  004046' 000000  000116
  4673  004047' 000000  000040
  4674  004050' 000000  000102
  4675  004051' 000000  000131
  4676  004052' 000000  000040
  4677  004053' 000000  000102
  4678  004054' 000000  000111
  4679  004055' 000000  000114
  4680  004056' 000000  000114
  4681  004057' 000000  000040
  4682  004060' 000000  000107
  4683  004061' 000000  000101
  4684  004062' 000000  000124
  4685  004063' 000000  000105
  4686  004064' 000000  000123
  4687  004065' 000000  000040
  4688  004066' 000000  000046
  4689  004067' 000000  000040
  4690  004070' 000000  000120
  4691  004071' 000000  000101
  4692  004072' 000000  000125
  4693  004073' 000000  000114


-- PAGE 299 --------------------------------------------------------------


MATHPK FOR BASIC MCS 8080  GATES/ALLEN/DAVIDOFF MACRO 47(113) 06:09 27-AUG-75 PAGE 19-9
F4      MAC     23-AUG-64 06:08         SYSTEM INITIALIZATION CODE

  4694  004074' 000000  000040
  4695  004075' 000000  000101
  4696  004076' 000000  000114
  4697  004077' 000000  000114
  4698  004100' 000000  000105
  4699  004101' 000000  000116
  4700  004102' 000000  000040
  4701  004103' 000000  000046
  4702  004104' 000000  000040
  4703  004105' 000000  000115
  4704  004106' 000000  000117
  4705  004107' 000000  000116
  4706  004110' 000000  000124
  4707  004111' 000000  000105
  4708  004112' 000000  000040
  4709  004113' 000000  000104
  4710  004114' 000000  000101
  4711  004115' 000000  000126
  4712  004116' 000000  000111
  4713  004117' 000000  000104
  4714  004120' 000000  000117
  4715  004121' 000000  000106
  4716  004122' 000000  000106
  4717  004123' 000000  000056
  4718  004123' 000000  000256
  4719  004124' 000000  000015          74520           ACRLF
  4720  004125' 000000  000012
  4721  004126' 000000  000000          74540           0
  4722
  4723  004127' 000000  000124          74580   TTYWID: DC"TERMINAL WIDTH"
  4724  004130' 000000  000105
  4725  004131' 000000  000122
  4726  004132' 000000  000115
  4727  004133' 000000  000111
  4728  004134' 000000  000116
  4729  004135' 000000  000101
  4730  004136' 000000  000114
  4731  004137' 000000  000040
  4732  004140' 000000  000127
  4733  004141' 000000  000111
  4734  004142' 000000  000104
  4735  004143' 000000  000124
  4736  004144' 000000  000110
  4737  004144' 000000  000310
  4738  004145' 000000  000000          74600           0
  4739  004146' 000000  000040          74620   WORDS:  DC" BYTES FREE"
  4740  004147' 000000  000102
  4741  004150' 000000  000131
  4742  004151' 000000  000124
  4743  004152' 000000  000105
  4744  004153' 000000  000123
  4745  004154' 000000  000040
  4746  004155' 000000  000106


-- PAGE 300 --------------------------------------------------------------


MATHPK FOR BASIC MCS 8080  GATES/ALLEN/DAVIDOFF MACRO 47(113) 06:09 27-AUG-75 PAGE 19-10
F4      MAC     23-AUG-64 06:08         SYSTEM INITIALIZATION CODE

  4747  004156' 000000  000122
  4748  004157' 000000  000105
  4749  004160' 000000  000105
  4750  004160' 000000  000305
  4751  004161' 000000  000015          74640           ACRLF
  4752  004162' 000000  000012
  4753  004163' 000000  000015          74660           ACRLF
  4754  004164' 000000  000012
  4755  004165' 000000  000101          74680           DC"ALTAIR BASIC VERSION 3.0"
  4756  004166' 000000  000114
  4757  004167' 000000  000124
  4758  004170' 000000  000101
  4759  004171' 000000  000111
  4760  004172' 000000  000122
  4761  004173' 000000  000040
  4762  004174' 000000  000102
  4763  004175' 000000  000101
  4764  004176' 000000  000123
  4765  004277' 000000  000111
  4766  004200' 000000  000103
  4767  004201' 000000  000040
  4768  004202' 000000  000126
  4769  004203' 000000  000105
  4770  004204' 000000  000122
  4771  004205' 000000  000123
  4772  004206' 000000  000111
  4773  004207' 000000  000117
  4774  004210' 000000  000116
  4775  004211' 000000  000040
  4776  004212' 000000  000063
  4777  004213' 000000  000056
  4778  004214' 000000  000060
  4779  004214' 000000  000260
  4780  004215' 000000  000015          74700           ACRLF
  4781  004216' 000000  000012
  4782                                  74720   IFE     LENGTH,<DC"[FOUR-K VERSION]">
  4783  004217' 000000  000133          74740   IFE     LENGTH-1,<DC"[EIGHT-K VERSION">
  4784  004220' 000000  000105
  4785  004221' 000000  000111
  4786  004222' 000000  000107
  4787  004223' 000000  000110
  4788  004224' 000000  000124
  4789  004225' 000000  000055
  4790  004226' 000000  000113
  4791  004227' 000000  000040
  4792  004230' 000000  000126
  4793  004231' 000000  000105
  4794  004232' 000000  000122
  4795  004233' 000000  000123
  4796  004234' 000000  000111
  4797  004235' 000000  000117
  4798  004236' 000000  000116
  4799  004237' 000000  000135


-- PAGE 301 --------------------------------------------------------------


MATHPK FOR BASIC MCS 8080  GATES/ALLEN/DAVIDOFF MACRO 47(113) 06:09 27-AUG-75 PAGE 19-11
F4      MAC     23-AUG-64 06:08         SYSTEM INITIALIZATION CODE

  4800  004237' 000000  000335
  4801                                  74760   IFE     LENGTH-2,<DC"[BIG VERSION]">
  4802  004240' 000000  000015          74780           ACRLF
  4803  004241' 000000  000012
  4804  004242' 000000  000000          74800           0
  4805
  4806  004243' 000000  000115          74840   MEMORY: DC"MEMORY SIZE"
  4807  004244' 000000  000105
  4808  004245' 000000  000115
  4809  004246' 000000  000117
  4810  004247' 000000  000122
  4811  004250' 000000  000131
  4812  004251' 000000  000040
  4813  004252' 000000  000123
  4814  004253' 000000  000111
  4815  004254' 000000  000132
  4816  004255' 000000  000105
  4817  004255' 000000  000305
  4818  004256' 000000  000000          74860           0
  4819  004257'                         74880   LASTWR::                        ;LAST WORD OF SYSTEM CODE+1
  4820  004257'                         74900           BLOCK   ^D30            ;SPACE FOR TEMP STACK
  4821  004315'                         74920   TSTACK::
  4822                                  74940   IFE     LENGTH,<
  4823                                  74960           BLOCK   ^D13000>
  4824                                  74980   IFN     LENGTH,<
  4825  004315'                         75000           BLOCK   ^D10000>
  4826                  004005'         75020           .C2==:.P
  4827                                  75040   END

NO ERRORS DETECTED

PROGRAM BREAK IS 027735

9K CORE USED


-- PAGE 302 --------------------------------------------------------------


MATHPK FOR BASIC MCS 8080  GATES/ALLEN/DAVIDOFF MACRO 47(113) 06:09 27-AUG-75 PAGE 20
F4      MAC     23-AUG-64 06:08         SYMBOL TABLE

A               000007          DMULT           001476' INT     FMULT3          000632'
ABS             001173' INT     DMULT1          001506'         FMULT4          000571'
AFFF            000105          DMULT2          001524'         FMULT5          000607'
ASKAGN          003624'         DSKFUN          000000  SPD     FMULTA          000605'
ATN             003152' INT     DV0ERR          000657' EXT     FMULTB          000600'
ATN2            003205'         E               000003          FMULTT          000515' INT
ATNCON          003217'         ERROR           000272' EXT     FNS             004010'
ATNFIX          003667' EXT     ERROV           000270' EXT     FONE            000400' INT
AUTTXT          004035'         EXP             002452' INT     FOUT            002001' INT
B               000000          EXPCON          002552'         FOUT1           002015'
BSERR           001522' EXT     EXTFNC          000001  SPD     FOUT10          002151'
BUF             003556' EXT     FAC             003162' EXT     FOUT11          002216'
C               000001          FACLO           002430' EXT     FOUT12          002232'
CASSW           000001  SPD     FADD            000025' INT     FOUT14          002252'
CNLCA1          000000  EXT     FADD1           000057'         FOUT15          002254'
CNLCA2          000000  EXT     FADD3           000125'         FOUT17          002271'
CNLCA3          000000  EXT     FADDA           000274'         FOUT19          002266'
CNLCA4          000000  EXT     FADDH           000000'         FOUT3           002034'
CNTWFL          003417' EXT     FADDS           000003' INT     FOUT5           002071'
CONSSW          000000  SPD     FADDT           000023' INT     FOUT6           002124'
CONTRW          000001  SPD     FADFLT          000143'         FOUT8           002132'
COS             002762  INT     FBUFFR          002002' EXT     FOUT9           002060'
COSFIX          003677' EXT     FCERR           000423' EXT     FOUTBL          002316'
CRDO            003755  EXT     FCOMP           001317' INT     FOUTCB          002274'
CURLIN          003404' EXT     FCOMP2          001347'         FPWR            002360' INT
D               000002          FCOMPD          001344'         FPWR1           002422'
DCRART          001700'         FCOMPS          001141'         FPWR2           002440'
DFLENT          003604'         FDIV            000655' INT     FPWRT           002356' INT
DIV10           000637'         FDIV1           000720'         FR4             003074'
                                FDIV2           000755'         FRETOP          003614' EXT
                                FDIVA           000733'         FSUB            000017' INT
                                FDIVB           000727'         FSUBS           000011'
                                FDIVC           000723'         FSUBT           000015' INT
                                FDIVG           000736'         FUNIO           145001  SPD
                                FDIVT           000653' INT     H               000004
                                FHALF           002312'         HAVFNS          003712'
                                FIN             001531' INT     ICOMPS          001142'
                                FIN1            001545'         ILLFUN          003661' EXT
                                FINC            001555'         INIT            003304' INT
                                FINDIG          001702'         INITAT          003276'
                                FINDP           001635'         INITSA          003264'
                                FINE            001641'         INPRT           001756' INT
                                FINE2           001644'         INRART          001145' INT
                                FINE3           001660'         INT             001445' INT
                                FINEC           001621'         INTXT           001760' EXT
                                FINEDG          001742'         INXHRT          001252' INT
                                FINLOG          001731'
                                FINMLT          001673'
                                FINMUL          001672'
                                FLOAT           001150' INT
                                FLOATR          001155' INT
                                FMULT           000517' INT
                                FMULT2          000557'


-- PAGE 303 --------------------------------------------------------------


MATHPK FOR BASIC MCS 8080  GATES/ALLEN/DAVIDOFF MACRO 47(113) 06:09 27-AUG-75 PAGE 20-1
F4      MAC     23-AUG-64 06:08         SYMBOL TABLE

L               000005          OKCHAR          003660'         SHIFTR          000344'
LASTWR          004257' INT     OMERR           003727' EXT     SHRADD          000362'
LENGTH          000001  SPD     OVERR           000267' INT     SIGN            001322' EXT
LINGET          003541' EXT     PI2             003070'         SIGNC           001135' INT
LINPRT          001766' EXT     PLUSTK          001615' EXT     SIGNS           001143' INT
LINPT1          003557' EXT     POLY            002632'         SIN             002770' INT
LINPT2          003562' EXT     POLY1           002643'         SIN1            003044'
LINPT3          003565' EXT     POLYX           002613'         SINCON          003100'
LINPT4          003602' EXT     POPHRT          000630'         SINFIX          003705' EXT
LOG             000421' INT     POPPRT          001474'         SNERR           003511' EXT
LOGCN2          000404'         PSHNEG          002340'         SQR             002345' INT
LOOPMM          003460'         PSW             000006  SPD     STKTOP          003734' EXT
LPTSW           000000  SPD     PUSHF           001205' INT     STRING          000001  SPD
M               000006  SPD     QINLIN          003633' EXT     STROUI          001776' EXT
MEMORY          004243'         QINT            001372' INT     STROUT          003771' EXT
MEMSIZ          003611' EXT     QINTA           001436'         TAN             003125' INT
MINUTK          001603' EXT     READY           004002' EXT     TANFIX          003702' EXT
MLDVEX          001073'         REALIO          000001  SPD     TEMPPT          003430' EXT
MORCPS          003567'         REASON          003740' EXT     TEMPST          003425' EXT
MOVE            001257' INT     REPINI          000000  EXT     TSTACK          004315' INT
MOVE1           001261'         RND             002673' INT     TTYW            003517'
MOVFM           001222' INT     RND1            002725'         TTYWID          004127'
MOVFR           001225' INT     RNDX            002752'         TXTTAB          003717' EXT
MOVMF           001254' INT     ROUND           000233'         UNPACK          001272'
MOVRF           001240' INT     ROUNDA          000255'         USEDE9          003501'
MOVRM           001243' INT     ROUNDB          000234'         USEDEF          003515'
MUL10           001106'         SCRTCH          003777' EXT     WORDS           004146'
MULDIM          000001  SPD     SGN             001147' INT     ZERO            000173' INT
MULDIV          001035'         SHFTR1          000336'         ZERO0           000174'
MULDV1          001076'         SHFTR2          000353'         $CODE           002543' EXT
MULDV2          001077'         SHFTR3          000356'         .C2             004005' SIN
MULLN2          000506'                                         .P              004005' SPD
NEG             001175' INT
NEGR            000310'
NORM1           000151'
NORM2           000200'
NORM3           000210'
NORMAL          000146'
NOTPIO          003400'


-- PAGE 304 --------------------------------------------------------------


A          212     213     218     231     251     299     301     302     304     306     308     310     312     344
           345     346     347     355     356     372     381     383     384     385     386     390     393     401
           412     416     423     427     472     474     476     478     480     482     492     494     495     496
           496     499     501     502     504     505     507     537     538     544     546     547     549     550
           552     553     555     613     684     709     712     739     740     761     762     764     765     767
           768     770     772     784     827     832     837     866     867     868     869     875     878     879
           882     883     886     887     904     905     906     915     917     918     920     921     923     925
           927     935     966     367     971     977     680     986     993    1000    1029    1030    1037    1068
          1070    1096    1126    1129    1247    1265    1269    1274    1275    1279    1333    1334    1343    1349
          1359    1363    1367    1371    1530    1531    1532    1533    1534    1555    1559    1565    1580    1582
          1605    1614    1622    1624    1695    1698    1714    2342    2343    2344    2346    2402    2404    2416
          2429    2559    2579    2580    2582    2686    2694    2716    2771    2801    2812    2838    2839    2840
          2843    2866    2868    2870    2872    2874    2876    2904    2933    2949    3637    3638    3644    2665
          3829    3848    3925    3927    4023    4318    4348    4356    4358    4363    4364    4378    4398    4408
          4409    4413    4438    4575    4577    4578    4580
ABS         89    1111#
AFFF      4642#   4643#   4644#   4645#   4646#   4647#   4648#   4649#   4650#   4651#   4652#   4653#   4654#   4655#
          4656#   4657#   4658#   4659#   4660#   4661#   4661    4667#   4668#   4669#   4670#   4671#   4672#   4673#
          4674#   4675#   4676#   4677#   4678#   4679#   4680#   4681#   4682#   4683#   4684#   4685#   4686#   4687#
          4688#   4689#   4690#   4691#   4692#   4693#   4694#   4695#   4696#   4697#   4698#   4699#   4700#   4701#
          4702#   4703#   4704#   4705#   4706#   4707#   4708#   4709#   4710#   4711#   4712#   4713#   4714#   4715#
          4716#   4717#   4718#   4718    4724#   4725#   4726#   4727#   4728#   4729#   4730#   4731#   4732#   4733#
          4734#   4735#   4736#   4737#   4737    4740#   4741#   4742#   4743#   4744#   4745#   4746#   4747#   4748#
          4749#   4750#   4750    4756#   4757#   4758#   4759#   4760#   4761#   4762#   4763#   4764#   4765#   4766#
          4767#   4768#   4769#   4770#   4771#   4772#   4773#   4774#   4775#   4776#   4777#   4778#   4779#   4779
          4784#   4785#   4786#   4787#   4788#   4789#   4790#   4791#   4792#   4793#   4794#   4795#   4796#   4797#
          4798#   4799#   4800#   4800    4807#   4808#   4809#   4810#   4811#   4812#   4813#   4814#   4815#   4816#
          4817#   4817
ASKAGN    4496#   4522
ATN         92    4140#   4528
ATN2      4153    4167#
ATNCON    4168    4179#
ATNFIX    4531#   4531
AUTTXT    4231    4663#
B          198     210     212     226     240     300     301     342     345     356     379     390     392     412
           420     497     498     516     527     553     555     620     622     624     628     630     674     692
           695     696     768     770     781     806     864     874     883     886     902     925     927     966
           976     977     979     980    1029    1037    1083    1097    1098    1199    1225    1241    1250    1333
          1359    1530    1561    1570    1695    1710    2342    2417    2580    2582    2583    2602    2717    2823
          2839    2850    2856    2863    2865    2891    2893    2898    2935    2937    2947    3618    3637    3643
          3654    3658    3682    3686    3745    3763    3846    3851    3931    3986    3997    4120    4155    4581
          4584
BSERR     1702#   1702    1712
BUF       4225#   4373    4403
C          311     312     346     352     384     386     426     427     454     456     481     482     506     507
           529     530     544     546     684     740     761     783     784     864     867     904     921     923
           935    1096    1200    1223    1275    1279    1343    1349    1355    1363    1531    1585    1624    1696
          4346    5405    2408    2581    2828    2874    2876    2894    2951    3644    3764    3962    3927    4158
          4159
CASSW        6#
CNLCA1    4269#   4269    4301
CNLCA2    4251#   4251    4283
CNLCA3    4256#   4256    4288


-- PAGE 305 --------------------------------------------------------------


CNLCA4    4262#   4262    4294
CNTWFL    4320#   4320
CONSSW       9#   4612    4615
CONTRW      11#   4317
COS         92    3958#   4130    4548
COSFIX    4539#   4539
CRDO      4225#   4323    4586
CURLIN    4308#   4308
D          199     211     241     307     308     352     353     381     383     452     477     478     503     504
           528     529     547     549     623     629     675     695     739     746     747     750     751     772
           782     783     807     868     918     920     936    1085    1221    1232    1246    1248    1367    1532
          1579    1580    2343    2370    2380    2398    2436    2578    2579    2585    2603    2847    2858    2870
          2872    3619    3642    3653    3659    3681    3687    3746    3760    3764    3815    3818    3847    3850
          3987    3998    4158    4408    4445    4455    4508    4527    4547    4559    4566    4578
DCRART    2559#
DFLENT    4400    4443#
DIV10      790#   2426    2798
DMULT       94    1692#
DMULT1    1700#   1716
DMULT2    1708    1714#
DSKFUN       8#
DV0ERR     106#    815
E          303     304     343     391     450     463     473     474     500     501     527     528     550     552
           696     721     771     781     782     869     915     917     937    1219    1371    1533    1581    1622
          2344    2403    2404    2416    2686    2689    2694    2866    2868    3925    3926    4159    4413    4439
          4575
ERROR      106#    466#
ERROV      106#    161
EXP         92    3635    3704#
EXPCON    3755    3770#
EXTFNC      30#     91     191     580     670     996    1608    1613    1621    1626    1628    2592    2597    2667
          3554    3598    3694    3805    3904    3906    3955    4002    4007    4028    4033    4046    4069    4077
          4087    4111    4137    4461    4495    4622    4640
FAC        106#    216     374     398    414X     490     611     943     973    1042    1063    1094    1124    1175
          1202    1263    1346    1603    3669    3717    4148
FACLO      106#    270     707    1170    1197    1211    1233    1610    3673
FADD        88#    186     212#    626     653    1039    3864    3920
FADD1      228     242#
FADD3      273     299#
FADDA      276     472#   2883
FADDH      179#   2810    4020
FADDS       88     182#   3739    3962    4040
FADDT       98     210#   2677
FADFLT     315#   1105    1630
FBUFFR     106#   2743
FCERR      106#    606
FCOMP       89    1333#   2783    2963    3662
FCOMP2    1352    1358#
FCOMPD    1354#
FCOMPS    1066#   1339
FDIV        88     632     813#   3989    4161
FDIV1      873#    939     948
FDIV2      893     902#


-- PAGE 306 --------------------------------------------------------------


FDIVA      829     884#
FDIVB      834     880#
FDIVC      839     876#
FDIVG      871     887#    896     929     993
FDIVT       98     806#   4133
FHALF      180    2972#   3613
FIN         88    2322#
FIN1      2329    2334    2337#
FINC      2348#   2410    2605
FINDIG    2350    2576#
FINDP     2355    2408#
FINE      2360    2400    2415#
FINE2     2418#   2431
FINE3     2422    2430#
FINEC     2367    2394#   2696
FINEDG    2396    2686#
FINLOG     657    2599    2669#
FINMLT    2546#   2791
FINMUL    2419    2545#
FLOAT       88    1083#   2673
FLOATR      88    1093#   2720
FMULT       88     676#   3689    3714    3766    3824    3855    3911
FMULT2     702     709#
FMULT3     714     781#
FMULT4     735#    774
FMULT5     742     760
FMULTA     686     752#
FMULTB     690     747#
FMULTT      98     674#   3816
FNS       4497    4641#
FONE        92     586#    635    3736
FOUT        88    2742#
FOUT1     2751    2755#
FOUT10    2865#   2880
FOUT11    2903#   2908
FOUT12    2900    2916#
FOUT14    2928    2935#
FOUT15    2937#   2941
FOUT17    2918    2951#
FOUT19    2759    2948#
FOUT3     2776#   2795
FOUT5     2787    2809#
FOUT6     2831    2836    2843#
FOUT8     2850#   2896
FOUT9     2797#   2967
FOUTBL    2848    2977#
FOUTCB    2774    2804    2956#
FPWR        92    3633#
FPWR1     3651    3667#
FPWR2     3681#
FPWRT      100    3618#
FR4       4009    4035    4082#
FRETOP    4453#   4453


-- PAGE 307 --------------------------------------------------------------


FSUB        88     200#   3749    4000
FSUBS      192#    638    4012    4164
FSUBT       98     198#
FUNIO     4228#   4248    4264#   4266    4278#   4280    4296#   4298
H          179     251     268     269     282     305     309     343     353     354     380     391     397     413
           422     475     479     489     610     634     640     697     700     701     704     705     706     710
           716     762     764     778     826     831     836     873     879     882     903     924     941     942
           946     972     994     999    1001    1041    1093    1100    1123    1173    1178    1199    1210    1220
          1222    1224    1226    1249    1262    1272    1273    1338    1341    1345    1358    1362    1366    1370
          1374    1375    1547    1555    1565    1576    1602    1692    1700    1705    2336    2365    2366    2392
          2415    2584    2601    2701    2702    2708    2726    2729    2742    2745    2755    2761    2844    2857
          2862    2869    2873    2877    2878    2885    2890    2892    2903    2923    2946    2948    2950    2952
          2965    3600    3612    3664    3665    3667    3671    3735    3754    3819    3826    3840    3853    3857
          3861    3866    3897    3930    3937    3958    4008    4034    4070    4121    4163    4166    4167    4173
          4230    4247    4253    4259    4265    4279    4285    4291    4297    4301    4310    4326    4333    4352
          4355    4372    4383    4384    4387    4388    4402    4448    4459    4460    4496    4524    4554    4579
          4580    4591    4597    4612
HAVFNS    4512    4536    4550#
ICOMPS    1067#
ILLFUN    4226#   4525
INIT      4223    4236#
INITAT    4230#   4346
INITSA    4229#   4509
INPRT       90    2701#
INRART      90    1070#
INT         89    1602#   3656    3725    3995
INTXT     2703#   2703
INXHRT      90    1226#   2854    2914
L          290     342     354     355     392     496     499     502     505     537     539     678     765     767
           817     875     878     971    1200    4576    4577
LASTWR    4353    4819#
LENGTH       4#     19      29      34      79      93      97      99     101     108     195     197     208     243
           287     289     327     341     433     518     520     541     543     561     672     711     717     719
           736     738    744X    754X     759     776     780     793     803     912     914     957    1002    1015
          1076    1112    1133    1243    1285    1379    1434    1584    1586    1595    1636    1688    1721    1939
          2338    2443    2547    2551    2562    2577    2607    2675    2679    2714    2722    2733    2741    2995
          3885    3887    4258    4290    4422    4782    4783    4801    4822    4824
LINGET    4225#   4376    4406
LINPRT      90    2713#   4589
LINPT1    4420#   4420
LINPT2    4424#   4424
LINPT3    4428#   4428
LINPT4    4441#   4441
LOG         92     604#   3684
LOGCN2     590#    641
LOOPMM    4355#   4367
LPTSW        7#   4606
M          283     302     306     310     400     401     420     423     458     472     476     480     492     494
           613     622     709     822     823     827     832     837     945     975     986     993    1044    1097
          1101    1126    1129    1219    1221    1223    1225    1247    1265    1269    1271    1274    1281    1348
          1360    1364    1368    1372    1554    1605    1614    1618    2691    2748    2753    2756    2851    2867
          2871    2875    2891    2904    2921    2925    2930    2947    2949    2951    3839    3928    3931    3932
          4358    4359    4364    4365    4552


-- PAGE 308 --------------------------------------------------------------


MEMORY    4334    4806#
MEMSIZ    4450#   4450
MINUTK     106#   2372
MLDVEX     997#   3722    3732
MORCPS    4430#   4433
MOVE        88    1241#
MOVE1     1246#   1252
MOVFM       90    1187#   3616    3842    3901
MOVFR       90     220     238     429     801    1195#   2820    2887    3984    4127
MOVMF       90    1232#   3941
MOVRF       90    1027    1210#   1549    2860    3648    3821    3923
MOVRM       90     183     193    1188    1219#   3859    3908
MUL10     1026#   2549    2587
MULDIM      31#     93    1688
MULDIV     681     820     966#
MULDV1     982    1000#
MULDV2     969    1001#
MULLN2     659#   3742
NEG         90     201    1123#   2439    2763    3601    3679    3752    4026    4044    4145
NEGR       316     489#   1573
NORM1      345#    362
NORM2      379#    388
NORM3      349     387#
NORMAL     326#    698    3935
NOTPIO    4276    4303#
NOTSIO    4245    4271#
OKCHAR    4517    4524#
OMERR     4226#   4457    4564
OVERR       89     285     463#    951    1020    1035    1047
PI2       3959    4078#   4174
PLUSTK     106#   2386
POLY      3758    3836#
POLY1     3845#   3868
POLYX      644    3812    4074    4171
POPHRT     778#    988
POPPRT    1632#
PSHNEG    3600#   3676    4142
PSW        247     252     621     655     898     899    1266    1270    1276    1280    1623    1632    2327    2391
          2424    2428    2437    2546    2558    2589    2772    2789    2793    2800    2802    2827    2845    2916
          3660    3734    3744    3747    3845    3852    4024    4042
PUSHF       89     234     791    1168#   2670    3610    3705    3813    3837    3975    3992    4115    4123
QINLIN    4225#   4340    4395    4503
QINT        89    1530#   1616    2817
QINTA     1557    1579#
READY     4225#   4613
REALIO       5      12    4237    4332    4385
REASON    4225#   4573
REPINI    4601#   4601
RND         89    3884#
RND1      3895    3922#
RNDX      3898    3938    3945#
ROUND      279     296     395     412#
ROUNDA     418     450    1568


-- PAGE 309 --------------------------------------------------------------


ROUNDB     413#    909
SCRTCH    4225#   4604
SGN         89    1077#
SHFTR1     521#    533
SHFTR2     524     535#
SHFTR3     538#    557
SHIFTR     254     516#   1563
SHRADD     293     545#
SIGN       106#   1336
SIGNC       89    1062#
SIGNS       96    1068#
SIN         89    3974#   4118
SIN1      4017    4024#
SINCON    4071    4086#
SINFIX    4545#   4545
SNERR     4226#   4380
SQR         89    3609#
STKTOP    4315#   4315    4569
STRING      32#     95    2323    2364    2373    2375    2381    2387    2389    2433    2435    4325    4426    4444
          4664    4720    4752    4754    4781    4803
STROUI    2727#   2727
STROUT    2706    4225#   4234    4337    4392    4500    4595    4598
TAN         92    4114#
TANFIX    4542#   4542
TEMPPT    4330#   4330
TEMPST    4327#   4327
TSTACK    4311    4560    4821#
TTYW      4388#   4411    4417
TTYWID    4389    4723#
TXTTAB    4556#   4556
UNPACK     249     991    1262#   1552
USEDE9    4350    4372#
USEDEF    4361    4370    4384#
WORDS     4592    4739#
ZERO        88     372#    403    1017    2340
ZERO0      373#   3640
$CODE      107#    693     748    1086    1693    2824    3761    4156    4228    4264    4278    4296    4305    4446
          4582    4618
.C2       4826#
.P          86#    181     182#    184     185#    187     188#    194     195#    202     203#    217     218#    221
           222#    229     230#    235     236#    239     240#    250     251#    255     256#    271     272#    274
           275#    277     278#    280     281#    286     287#    294     295#    297     298#    317     318#    350
           351#    363     364#    375     376#    389     390#    396     397#    399     400#    404     405#    415
           416#    419     420#    430     431#    467     468#    491     492#    525     526#    534     535#    558
           559#    607     608#    612     613#    627     628#    633     634#    636     637#    639     640#    642
           643#    645     646#    654     655#    658     659#    682     683#    687     688#    691     692#    694
           695#    699     700#    703     704#    708     709#    715     716#    743     744#    749     750#    775
           776#    792     793#    802     803#    816     817#    821     822#    830     831#    835     836#    840
           841#    872     873#    894     895#    897     898#    910     911#    930     931#    934     935#    940
           941#    944     945#    949     950#    952     953#    970     971#    974     975#    983     984#    989
           990#    992     993#   1018    1019#   1021    1022#   1028    1029#   1036    1037#   1040    1041#   1043
          1044#   1048    1049#   1064    1065#   1087    1088#   1095    1096#   1106    1107#   1125    1126#   1171
          1172#   1176    1177#   1189    1190#   1198    1199#   1203    1204#   1212    1213#   1234    1235#   1253


-- PAGE 310 --------------------------------------------------------------


          1254#   1264    1265#   1337    1338#   1340    1341#   1347    1348#   1353    1354#   1550    1551#   1553
          1554#   1558    1559#   1564    1565#   1569    1570#   1574    1575#   1604    1605#   1611    1612#   1617
          1618#   1631    1632#   1694    1695#   1703    1704#   1709    1710#   1713    1714#   1717    1718#   2330
          2331#   2335    2336#   2341    2342#   2351    2352#   2356    2357#   2361    2362#   2368    2369#   2397
          2398#   2401    2402#   2411    2412#   2420    2421#   2423    2424#   2427    2428#   2432    2433#   2440
          2441#   2550    2551#   2588    2589#   2600    2601#   2606    2607#   2671    2672#   2674    2675#   2678
          2679#   2697    2698#   2704    2705#   2707    2708#   2721    2722#   2728    2729#   2744    2745#   2752
          2753#   2760    2761#   2764    2765#   2775    2776#   2784    2785#   2788    2789#   2792    2793#   2796
          2797#   2799    2800#   2805    2806#   2811    2812#   2818    2819#   2821    2822#   2825    2826#   2832
          2833#   2837    2838#   2849    2850#   2855    2856#   2861    2862#   2881    2882#   2884    2885#   2888
          2889#   2897    2898#   2901    2902#   2909    2910#   2915    2916#   2919    2920#   2929    2930#   2942
          2943#   2964    2965#   2968    2969#   3602    3603#   3611    3612#   3614    3615#   3617    3618#   3636
          3637#   3641    3642#   3649    3650#   3652    3653#   3657    3658#   3663    3664#   3670    3671#   3674
          3675#   3677    3678#   3680    3681#   3685    3686#   3690    3691#   3706    3707#   3715    3716#   3718
          3719#   3723    3724#   3726    3727#   3733    3734#   3737    3738#   3740    3741#   3743    3744#   3750
          3751#   3753    3754#   3756    3757#   3759    3760#   3762    3763#   3767    3768#   3814    3815#   3817
          3818#   3822    3823#   3825    3826#   3838    3839#   3843    3844#   3856    3857#   3860    3861#   3865
          3866#   3869    3870#   3896    3897#   3899    3900#   3902    3903#   3909    3910#   3912    3913#   3921
          3922#   3924    3925#   3936    3937#   3939    3940#   3942    3943#   3960    3961#   3963    3964#   3976
          3977#   3985    3986#   3990    3991#   3993    3994#   3996    3997#   4001    4002#   4010    4011#   4013
          4014#   4018    4019#   4021    4022#   4027    4028#   4036    4037#   4041    4042#   4045    4046#   4072
          4073#   4075    4076#   4116    4117#   4119    4120#   4124    4125#   4128    4129#   4131    4132#   4134
          4135#   4143    4144#   4146    4147#   4149    4150#   4154    4155#   4157    4158#   4162    4163#   4165
          4166#   4169    4170#   4172    4173#   4175    4176#   4232    4233#   4235    4236#   4246    4247#   4249
          4250#   4252    4253#   4257    4258#   4263    4264#   4267    4268#   4270    4271#   4277    4278#   4281
          4282#   4284    4285#   4289    4290#   4295    4296#   4299    4300#   4302    4303#   4306    4307#   4309
          4310#   4312    4313#   4316    4317#   4321    4322#   4324    4325#   4328    4329#   4331    4332#   4335
          4336#   4338    4339#   4341    4342#   4347    4348#   4351    4352#   4354    4355#   4362    4363#   4368
          4369#   4371    4372#   4374    4375#   4337    4378#   4381    4382#   4390    4391#   4393    4394#   4396
          4397#   4401    4402#   4404    4405#   4407    4408#   4412    4413#   4418    4419#   4421    4422#   4425
          4426#   4429    4430#   4434    4435#   4442    4443#   4447    4448#   4451    4452#   4454    4455#   4458
          4459#   4498    4499#   4501    4502#   4504    4505#   4510    44511   4513    4514#   4518    4519#   4423
          4524#   4526    4527#   4529    4530#   4532    4533#   4537    4538#   4540    4541#   4543    4544#   4546
          4547#   4549    4550#   4557    4558#   4561    4562#   4565    4566#   4570    4571#   4574    4575#   4583
          4584#   4587    4588#   4590    4591#   4593    4594#   4596    4597#   4599    4600#   4602    4603#   4605
          4606#   4614    4615#   4619    4620#   4826


-- PAGE 311 --------------------------------------------------------------


ACI        752
ACRLF       48#   4663    4719    4751    4753    4780    4802
ADC        385     447     481    2581
ADO        400     473     976    2689    2691    2828    4439
ADI        535     984    1032    2943    3727    3729    4435
ANA       1581
ANI        424    4242    4273
CALL       182     192     200     233     237     248     253     275     292     625     631     637     643     652
           656     680     790     800     819     990    1026    1038    1187    1351    1548    1551    1562    1615
          1629    2339    2425    2548    2586    2598    2669    2672    2705    2719    2773    2782    2790    2797
          2803    2809    2816    2819    2859    2882    2886    2962    3609    3615    3647    3655    3661    3683
          3688    3704    3713    3724    3738    3741    3748    3751    3757    3812    3820    3823    3836    3841
          3854    3858    3863    3900    3907    3910    3919    3922    3934    3961    3974    3983    3988    3991
          3994    3999    4011    4019    4039    4114    4117    4122    4126    4129    4160    4170    4233    4322
          4336    4339    4375    4391    4394    4405    4499    4502    4572    4585    4588    4594    4603
CC         315    1567    1572    3675
CHRGET      41#   2348    2363    2394    4342    4397    4505
CM         417    1556    2762    4141    4144
CMA        230     493     998    1066    2345    2932    4437
CMC        891
CMP       1360    1364    1368    4359    4365
CNC       4043
CNZ       2913
COMPAR      43#   4562
CP        2418    4025
CPI        244     359    1606    2325    2331    2352    2357    2371    2377    2382    2385    2833    2905    2911
          3719    4150    4343    4414    4506    4514    4519    4533
CZ        2438    2853    3678
DAD        380     750     924    1700    1705    1710    4455    4584
DC        4641    4666    4723    4739    4755    4783    4806
DCR        379     539     771     906     945    1250    1585    1714    2370    2559    2843    2850    2894    2898
          3848    4363
DCX        826     831     836     994    1362    1366    1370    1579    2336    2392    2877    2878    2903    3930
          4383    4384    4459
FSIGN       44#    604     676     813     997    1077    1115    1342    2747    3633    3886    4014    4022    4140
IN        4238    4240    4271
INR       231      283     450     452     454     458     630     822     823     905    1044    1070    1582    2380
          2398    2405    2408    2429    2801    2812    2838    2865    2933    2937    4438
INX        282     305     309     422     475     479     710    1100    1220    1222    1224    1226    1248    1249
          1272    1273    1358    2755    2869    2873    2885    2892    2923    2946    2948    2950    3840    4355
          4554
JC         523    1034    1701    1711    2349    2395    3731    4152    4416    4563
JM         908    2830    3894
JMP        185     295     428     465     532     556     950    1019    1046    1104    2604    2676    2695    2794
          4410    4521
JNC        227     278     402     741     892    1707    2835    2879    2940    3721    4432    4456
JNZ        348     361     773     938     947    1251    1715    2359    2399    2430    2895    4349    4360    4379
          4410    4521
JP         272     387     981    1016    2421    2750    2927    3650    4016
JPE        605
JPO       2786    2966
JZ        219      284     394     713     814     968     987    1335    2328    2333    2354    2409    2758    2899
          2907    2917    3634    3639    4244    4275    4345    4366    4399    4511    4516    4535


-- PAGE 312 --------------------------------------------------------------


LDA        215     928    1062    1609    3716    4147
LDAX      1246
LHLD      1169    1174
LXI        179     269     397     413     489     610     634     640     692     697     701     706     747     942
           972    1041    1085    1093    1123    1210    1232    1262    1338    1345    1602    1692    2366    2702
          2726    2742    2823    2847    3600    3612    3735    3754    3760    3815    3897    3937    3958    4008
          4034    4070    4155    4163    4167    4173    4230    4247    4265    4279    4297    4304    4310    4326
          4333    4352    4372    4388    4402    4445    4496    4508    4524    4527    4547    4559    4581    4591
          4597    4612
MOV        212     251     301     302     304     306     308     310     312     342     343     345     346     352
           353     354     355     356     381     383     384     386     390     391     392     401     412     420
           423     427     472     474     476     478     480     482     492     494     469     498     499     501
           502     504     505     507     527     528     529     537     544     546     547     549     550     552
           553     555     613     622     684     695     696     709     739     740     761     762     764     765
           767     768     770     722     781     782     783     784     827     832     837     864     867     868
           869     875     878     879     882     883     886     904     915     917     918     920     921     923
           925     927     935     966     971     977     980     986     993    1029    1037    1096    1097    1126
          1129    1199    1200    1219    1221    1223    1225    1247    1265    1269    1274    1275    1279    1333
          1343    1349    1359    1363    1367    1371    1530    1531    1532    1533    1555    1565    1580    1605
          1614    1622    1624    1695    2342    2343    2344    2346    2404    2416    2579    2580    2582    2686
          2694    2839    2866    2868    2870    2872    2874    2876    2891    2904    2947    2949    2951    3637
          3644    3665    3764    3839    3925    3926    3927    3931    4158    4159    4358    4364    4408    4413
          4575    4577    4578    4580
MOVRI       57#    614     646     659     794    2776    2956    3707    3913    3977
MVI        290     456     463     516     530     678     721     817     887    1083    1098    1101    1241    1559
          1570    1618    1698    2717    2748    2753    2759    2840    2851    2863    2927    2925    2930    2935
          3928    3932    4253    4259    4285    4291    4356    4552
ORA        213     218     268     347     393     416     712     936     937     967    1000    1030    1334    1534
          1696    3638    4023    4348    4378    4398    4409
ORI       1267    1277    3645
OUTCHR      42#
PCHL      2969    3604    4620
POP        198     199     210     211     240     241     252     628     629     655     674     675     751     778
           806     807     898     899     902     903     946     999    1001    1270    1280    1374    1375    1576
          1632    2391    2428    2436    2437    2558    2589    2601    2602    2603    2780    2789    2800    2827
          2844    2862    2890    2893    2916    2952    2965    3618    3619    3658    3659    3664    3667    3671
          3686    3687    3744    3745    3746    3763    3826    3845    3846    3841    3857    3866    3986    3987
          3997    3998    4042    4120    4121    4448    4566
POPR        54#    198     210     240     628     674     806    3618    3658    3686    3745    3846    3986    3997
PUSH       247     621     623     624     700     704     705     716     746     873     874     941    1173    1178
          1266    1276    1341    1547    1623    2327    2365    2415    2424    2546    2578    2583    2584    2585
          2701    2729    2745    2761    2772    2793    2802    2845    2856    2857    2858    3642    3643    3653
          3654    3660    3681    3682    3734    3747    3818    3819    3850    3851    3852    3853    3861    4024
          4166    4387    4460
PUSHFM      46#
PUSHM       45#
PUSHR       51#    623    3642    3653    3681    3850
RAL        382     911     916     919     922     926     931    1067    1103    1566    1625
RAR        545     548     551     554     735     760     763     766     769     907     978    1354    3666
RET        376     483     508     779     785     995    1071    1130    1180    1205    1227    1254    1282    1356
          1376    1577    1590    1633    1718    2442    2560    2953    417
RLC       2687    2688    2690
RM        1350


-- PAGE 313 --------------------------------------------------------------


RNC        246    1612
RNZ        451     453     455     459    1045    1069    1361    1365    1369    1373    1583
RP        1116
RST        604     676     813     997    1077    1115    1342    2348    2363    2394    2747    3633    3886    4014
          4022    4140    4342    4397    4505    4562
RZ         214     405     540     677    1031    1344    1535    1697    2376    2379    2384    2390    2545    3849
          3903
SBB        303     307     311     500     503     506    1068    2871    2875    4579
SBI        880     884     889
SHLD       689    1196    1201    3668    3672    4250    4255    4261    4268    4282    4287    4293    4300    4307
          4314    4329    4449    4452    4530    4538    4541    4544    4555    4568    4600    4617
SPHL      4313    4567
STA        373     685     828     833     838     870     895     932    4319    4419    4423    4427    4440
STC        900    4015
SUB        226     300     497     620    1372    1561    2403    2417    2867    4576
SUI        357     521     876    2590    2692    2938    4430
SYNCHK      39#
XCHG       232     236     688     720     777     865    1168    1179    1195    1204    1704    1706    2441    2715
          2889    4125    4382    4551    4571
XRA        299     344     372     426     495     538     866     975     979    1271    1281    1348    1355    1554
          2402    2716    2771    4318
XRI       1127
XTHL      1172    1177    2369    3603    4558


-- PAGE 314 --------------------------------------------------------------


SPOOLER RUNTIME 14 SECONDS, 44 KCS, 487 DISK HEADS, 3 DISK WRITES, 118 PAGES
 **END** USER MITS  [6000,6000] JOB  F4 SEQ. 205 DATE 27-AUG-75 07:36:23 MONITOR ALBUQUERQUE SCHOOLS 507A **END**


 **END** USER MITS  [6000,6000] JOB  F4 SEQ. 205 DATE 27-AUG-75 07:36:23 MONITOR ALBUQUERQUE SCHOOLS 507A **END**


 **END** USER MITS  [6000,6000] JOB  F4 SEQ. 205 DATE 27-AUG-75 07:36:23 MONITOR ALBUQUERQUE SCHOOLS 507A **END**


 **END** USER MITS  [6000,6000] JOB  F4 SEQ. 205 DATE 27-AUG-75 07:36:23 MONITOR ALBUQUERQUE SCHOOLS 507A **END**


 **END** USER MITS  [6000,6000] JOB  F4 SEQ. 205 DATE 27-AUG-75 07:36:23 MONITOR ALBUQUERQUE SCHOOLS 507A **END**


 **END** USER MITS  [6000,6000] JOB  F4 SEQ. 205 DATE 27-AUG-75 07:36:23 MONITOR ALBUQUERQUE SCHOOLS 507A **END**


 **END** USER MITS  [6000,6000] JOB  F4 SEQ. 205 DATE 27-AUG-75 07:36:23 MONITOR ALBUQUERQUE SCHOOLS 507A **END**


 **END** USER MITS  [6000,6000] JOB  F4 SEQ. 205 DATE 27-AUG-75 07:36:23 MONITOR ALBUQUERQUE SCHOOLS 507A **END**


 **END** USER MITS  [6000,6000] JOB  F4 SEQ. 205 DATE 27-AUG-75 07:36:23 MONITOR ALBUQUERQUE SCHOOLS 507A **END**


 **END** USER MITS  [6000,6000] JOB  F4 SEQ. 205 DATE 27-AUG-75 07:36:23 MONITOR ALBUQUERQUE SCHOOLS 507A **END**


 **END** USER MITS  [6000,6000] JOB  F4 SEQ. 205 DATE 27-AUG-75 07:36:23 MONITOR ALBUQUERQUE SCHOOLS 507A **END**


 **END** USER MITS  [6000,6000] JOB  F4 SEQ. 205 DATE 27-AUG-75 07:36:23 MONITOR ALBUQUERQUE SCHOOLS 507A **END**


 **END** USER MITS  [6000,6000] JOB  F4 SEQ. 205 DATE 27-AUG-75 07:36:23 MONITOR ALBUQUERQUE SCHOOLS 507A **END**


 **END** USER MITS  [6000,6000] JOB  F4 SEQ. 205 DATE 27-AUG-75 07:36:23 MONITOR ALBUQUERQUE SCHOOLS 507A **END**


 **END** USER MITS  [6000,6000] JOB  F4 SEQ. 205 DATE 27-AUG-75 07:36:23 MONITOR ALBUQUERQUE SCHOOLS 507A **END**


00000000000000000000000000000000000000000000000000000000000000000000000000000000000000000000000000111111111111111111111111111111111
