BASIC MCS 8080  GATES/ALLEN/DAVIDOFF    MACRO 47(113) 03:12 10-SEP-75 PAGE 1
C        6-SEP-64 03:11         COMMON FILE

     1                                  00100   SEARCH  MCS808                  ;THE UNIVERSAL FILE
     2                                  00200   SUBTTL  COMMON FILE
     3                                  00300   SALL
     4                  000002          00400   LENGTH==2                       ; 0 MEANS 4K, 1 MEANS 8K, 2 MEANS 12K
     5                  000001          00500   REALIO==1
     6                  000000          00600   CASSW==0                        ;CASSETTE SWITCH (CSAVE,CLOAD)
     7                  000000          00700   PURE==0                         ;ON FOR PURE CODE
     8                  000000          00800   LPTSW==0
     9                  000000          00900   DSKFUN==0                       ;ON TO READ/WRITE
    10                  000000          01000   CONSSW==0
    11
    12                  000016          01200   CLMWID==^D14                    ;MAKE COMMA COLUMNS FOURTEEN CHARACTERS
    13                  020000          01300   RAMBOT=^O20000                  ;BOTTOM LOCATION OF RAM FOR PURE SWITCH
    14                  000001          01400   CONTRW==1                       ;ALLOW ^O
    15                                  01500   IFE     REALIO,<
    16                                  01600           LPTSW==0                ;SIMULATOR DEFAULTS
    17                                  01700           CASSW==0
    18                                  01800           CONSSW==0
    19                                  01900           DSKFUN==0
    20                                  02000           CONTRW==0>
    21
    22                                  02200   IFE     LENGTH,<
    23                                  02300           EXTFNC==0               ;ON MEANS EXTENDED FUNCTIONS
    24                                  02400           MULDIM==0               ;ON MEANS MULTIPLE DIMENSIONED ARRAYS ALLOWED
    25                                  02500           STRING==0               ;ON MEANS STRINGS ALLOWED
    26                                  02600           CASSW==0
    27                                  02700           LPTSW==0
    28                                  02800           DSKFUN==0
    29                                  02900           CONSSW==0
    30                                  03000           CONTRW==0>
    31
    32                                  03200   IFE     LENGTH-1,<
    33                                  03300           EXTFNC==1
    34                                  03400           MULDIM==1
    35                                  03500           STRING==1>
    36
    37                                  03700   IFE     LENGTH-2,<
    38                  000001          03800           EXTFNC==1
    39                  000001          03900           MULDIM==1
    40                  000001          04000           STRING==1>
    41
    42                                  04200   DEFINE  SYNCHK(A),<RST  1
    43                                  04300                   A>
    44                                  04400   DEFINE  CHRGET,<RST     2>
    45                                  04500   DEFINE  OUTCHR,<RST     3>
    46                                  04600   DEFINE  COMPAR,<RST     4>
    47                                  04700   DEFINE  FSIGN,<RST      5>
    48                                  04800   DEFINE  PUSHM,<RST      6>
    49                                  04900   DEFINE  PUSHFM,<PUSHM
    50                                  05000                   PUSHM>
    51                                  05100   DEFINE  ACLRF,<
    52                                  05200           ^D13
    53                                  05300   IFN     STRING,<^D10>>


-- PAGE 3 --------------------------------------------------------------


BASIC MCS 8080  GATES/ALLEN/DAVIDOFF    MACRO 47(113) 03:12 10-SEP-75 PAGE 1-1
F3       6-SEP-64 03:11         COMMON FILE

    54                                  05400   DEFINE  PUSHR,<
    55                                  05500           PUSH    D
    56                                  05600           PUSH    B>
    57                                  05700   DEFINE  POPR,<
    58                                  05800           POP     B
    59                                  05900           POP     D>
    60                                  06000   DEFINE  MOVRI(B,C,D,E),<
    61                                  06100           XWD     ^O1000,^O001    ;; "LXI B"
    62                                  06200           EXP     C
    63                                  06300           EXP     B
    64                                  06400           XWD     ^O1000,^O021    ;; "LXI D
    65                                  06500           EXP     E
    66                                  06600           EXP     D>
    67
    68                                  06800   IF1,<
    69                                  06900   IFE     LENGTH,<PRINTX  /SMALL/>
    70                                  07000   IFE     LENGTH-1,<PRINTX        /MEDIUM/>
    71                                  07100   IFE     LENGTH-2,<PRINTX        /BIG
    72                                  07200   IFE     REALIO,<PRINTX  /SIMULATE/>
    73                                  07300   IFN     REALIO,<PRINTX  /ON MACHINE/>
    74                                  07400   IFN     CASSW,<PRINTX   /CASSETTE/>
    75                                  07500   IFN     PURE,<PRINTX    /PURE/>
    76                                  07600   IFN     LPTSW,<PRINTX   /LPT/>
    77                                  07700   IFN     DSKFUN,<PRINTX  /DISK/>
    78                                  07800   IFN     CONSSW,<PRINTX  /CONSOLE/>>
    79                                  07900   PAGE


-- PAGE 4 --------------------------------------------------------------


BASIC MCS 8080  GATES/ALLEN/DAVIDOFF    MACRO 47(113) 03:12 10-SEP-75 PAGE 1
F3      MAC      6-SEP-64 03:11         VERSION 3.0 -- MORE FEATURES TO GO

    80                                  00020   SUBTTL  VERSION 3.0 -- MORE FEATURES TO GO
    81                                  00040   TITLE   BASIC MCS 8080  GATES/ALLEN/DAVIDOFF
    82                                  00060   IFNDEF  LENGTH,<PRINTX !!! MUST HAVE COM !!!
    83                                  00080           END>
    84  000000'                         00100   MCSSIM(START)
    85                                  00120   COMMENT *
    86
    87                                  00160   --------- ---- -- ---- ----- --- ---- -----
    88                                  00180   COPYRIGHT 1975 BY BILL GATES AND PAUL ALLEN
    89                                  00200   --------- ---- -- ---- ----- --- ---- -----
    90
    91
    92                                  00260   ORIGINALLY WRITTEN ON THE PDP-10 FROM
    93                                  00280   FEBRUARY 9 TO  APRIL 9
    94
    95                                  00320   BILL GATES WROTE THE RUNTIME STUFF.
    96                                  00340   PAUL ALLEN WROTE THE NON-RUNTIME STUFF.
    97                                  00360   MONTE DAVIDOFF WROTE THE MATH PACKAGE.
    98
    99                                  00400   THINGS TO DO:
   100                                  00420   GOSUB / INPUT BUG  (BUF SMASH)
   101                                  00440   PRINT PUNCTUATION MANDATORY
   102                                  00460   MULTIPLE LET
   103                                  00480   RESTART AT 0 SHOULD  GO THROUGH  STKINI
   104                                  00500   USER DEFINED FUNCTIONS(MULTI-ARG,MULTI-LINE,STRINGS)
   105                                  00520   MAKE STACK BOUNDARY STUFF EXACT
   106                                  00540   PUNCH,RENUMBER...
   107                                  00560   INLINE CONSTANT CONVERSION--MAKE IT WORK
   108                                  00580   *
   109                                  00600   RADIX 10                        ;THROUGHOUT
   110                  000001          00620   .P==0                           ;FOR SIMULATOR FIXUPS
   111                  000025          00640   NUMLEV==17+LENGTH*2             ;NUMBER OF STACK LEVELS RESERVED
   112                                  00660                                   ;WITH AN EXPLICIT CALL TO GETSTK
   113                  000110          00680   LPTLEN==72                      ;WIDTH OF LINE-PRINTER
   114                  000110          00700   LINLEN==72                      ;TELETYPE LINE LENGTH
   115                  000110          00720   BUFLEN==72                      ;INPUT BUFFER SIZE
   116                  000004          00740   STRSIZ==4
   117                  000003          00760   IFE     LENGTH-2,<STRSIZ==3>
   118                  000003          00780   NUMTMP==3                       ;NUMBER OF STRING TEMPORARIES
   119                  000005          00800   IFE     LENGTH-2,<NUMTMP=5>
   120                  000015          00820   CR==13
   121                  000017          00840   CONTW==15                       ;CHARACTER TO SUPRESS OUTPUT
   122                  000200          00860   ODONE==128                      ;BIT FOR OUTPUT DONE
   123                  000001          00880   IDONE==1                        ;BIT FOR INPUT DONE
   124                  000001          00900   TTOCHN==1                       ;TELETYPE OUTPUT CHANNEL
   125                  000001          00920   TTICHN==1                       ;TELETYPE INPUT CHANNEL
   126                  000000          00960   LISTEN==0                       ;ON MEANS LISTEN FOR ^C
   127                  000001          01000   FUNCTS==1                       ;ON MEANS USER FUNCTIONS ALLOWED
   128                                  01020                                   ;! CANNOT BE ON WITH LENGTH=0 (SUBFLG)
   129                                  01040   IFN     REALIO,<
   130                  000001          01060   LISTEN==1>
   131                                  01080   IFE     LENGTH,<
   132                                  01120   FUNCTS==0>


-- PAGE 5 --------------------------------------------------------------


BASIC MCS 8080  GATES/ALLEN/DAVIDOFF    MACRO 47(113) 03:12 10-SEP-75 PAGE 1-1
F3      MAC      6-SEP-64 03:11         VERSION 3.0 -- MORE FEATURES TO GO

   133
   134
   135                                  01200   INTERNAL        .C1,BUF,READY,REASON,SNERR,OMERR,REPINI
   136                                  01220   INTERNAL        STREND,CURLIN,DV0ERR,ERROV
   137                                  01240   IFN     REALIO,<
   138                                  01260   INTERNAL        CNLCA1,CNLCA2,CNLCA3>
   139                                  01280   IFN     EXTFNC,<INTERNAL        ATNFIX,COSFIX,SINFIX,TANFIX
   140                                  01300   EXTERNAL        FPWR,EXP>
   141                                  01320   EXTERNAL        QINT,ZERO,MOVE,FOUT,FIN,FCOMP,FADD,PUSHF,INT,INIT
   142                                  01340   EXTERNAL        MOVFR,MOVRF,MOVRM,INPRT,LINPRT
   143                                  01360   EXTERNAL        MOVFM,MOVMF,TSTACK,FLOATRI,FADDS
   144                                  01380   INTERNAL        ILLFUN,FAC,FACLO,TXTTAB,STROUT,SCRTCH
   145                                  01400   EXTERNAL        INRART,NEG,FLOAT
   146                                  01420   INTERNAL        OUTDO,STROUI
   147                                  01440   INTERNAL        STKTOP,ERROR,FCERR
   148                                  01460   IFN     STRING,<
   149                                  01462   INTERNAL         VALTYP,TEMPPT
   150                                  01464   INTERNAL        TEMPST,STRLIT
   151                                  01466   IFN     LENGTH-2,<
   152                                  01468   INTERNAL        TMERR>
   153                                  01480   INTERNAL        MEMSIZ,FRETOP
   154                                  01500   EXTERNAL        SIGNS>
   155                                  01520   INTERNAL        FBUFFR,MINUTK,PLUSTK,CRDO,LINGET,INTXT,QINLIN
   156                                  01540   IFN     MULDIM,<INTERNAL        BSERR>
   157                                  01560   IFN     MULDIM,<EXTERNAL        UMULT>
   158                                  01580   IFE     LENGTH,<INTERNAL        RNDFIX,SQRFIX,SINFIX>
   159                                  01600   INTERNAL        SIGN
   160                                  01620   EXTERNAL        SIGNC,POPHRT
   161                                  01640   IFN     CONTRW,<
   162                                  01660   INTERNAL        CNTWFL>
   163                                  01680   IFN     LPTSW,<
   164                                  01700           INTERNAL        LPTPOS,PRTFLG>
   165                                  01720   IFE     LENGTH-2,<
   166                                  01730   EXTERNAL        CONSIH,VMOVFA,VMOVAF,ISIGN,FPWRQ,CONIA,GETBCD,VSIGN
   167                                  01740   EXTERNAL        VMOVMF,VMOVFM,FRCINT,FRCSNG,FRCDBL,VNEG,PUFOUT,DCXBRT,IADD
   168                                  01760   EXTERNAL        ISUB,IMULT,IDIV,ICOMP,INEG,DADD,DSUB,DMULT,DDIV,DCOMP,VINT
   169                                  01780   EXTERNAL        TMERR,VMOVE,VALINT,VALSNG,FRCSTR,CHKSTR,MAKINT
   170                                  01800   INTERNAL        DFACLO,ARG,ARGLO,VALTYP,ERRTM,TEMP2,TEMP3,GETYPE>
   171                                  01820   PAGE


-- PAGE 6 --------------------------------------------------------------


BASIC MCS 8080  GATES/ALLEN/DAVIDOFF    MACRO 47(113) 03:12 10-SEP-75 PAGE 2
F3      MAC      6-SEP-64 03:11         SOME EXPLANATION

   172                                  01840   SUBTTL  SOME EXPLANATION
   173
   174                                  01880   COMMENT *
   175
   176                                  01920   ALTAIR BASIC CONFIGURES MEMORY AS FOLLOWS:
   177
   178                                  01960   LOW LOCATIONS
   179
   180                                  02000           RST     SUBROUTINES
   181
   182                                  02040                   0       STARTUP
   183                                  02060                           INITIALLY A JMP TO THE INITIALIZATION CODE
   184                                  02080                           BUT CHANGED TO A JMP TO READY.
   185                                  02100                           RESTARTING THE MACHINE AT 0 DURING PROGRAM
   186                                  02120                           EXECUTION CAN LEAVE THINGS MESSED UP.
   187
   188                                  02160                   1       SYNCHK
   189                                  02180                           A CHECK IS MADE TO MAKE SURE THE
   190                                  02200                           CHARACTER POINTER POINTS AT A SPECIFIC
   191                                  02220                           CHARACTER. IF NOT THE "SYNTAX ERROR"
   192                                  02240                           ROUTINE IS CALLED. IF SO,
   193                                  02260                           THE CHRGET RST IS DROPPED INTO SO
   194                                  02280                           THE CHARACTER AFTER THE MATCHED
   195                                  02300                           ONE WILL BE PUT IN [A] AND
   196                                  02320                           THE CONDITION CODES WILL REFLECT THIS
   197                                  02340                           EXAMPLE: SYNCHK THENTK (THE MATCH CHARACTER IS
   198                                  02360                           GIVEN IN THE LOCATION AFTER THE RST)
   199                                  02380                           WOULD CHECK TO MAKE SURE [H,L] POINTED TO A THENTK
   200                                  02400                           AND IF SO FETCH THE NEXT CHARACTER INTO [A]
   201                                  02420                           IF NOT, A "SYNTAX ERROR" WOULD BE GIVEN.
   202
   203                                  02460                   2       CHRGET
   204                                  02480                           USING [H,L] AS THE TEXT POINTER
   205                                  02500                           THE TEXT POINTER IS INCREMENTED
   206                                  02520                           AND THE NEXT CHARACTER IS FETCHED INTO [A]
   207                                  02540                           IF THE CHARACTER IS A " " IT IS SKIPPED
   208                                  02560                           OVER AND THE NEXT CHARACTER IS FETCHED,
   209                                  02580                           THE STATEMENT TERMINATIONS ":" AND 0
   210                                  02600                           LEAVE THE ZERO FLAG SET.
   211                                  02620                           THE NUMERICS "0" THROUGH "9" LEAVE THE CARRY
   212                                  02640                           FLAG SET. THE CURRENT CHARACTER CAN BE
   213                                  02660                           REFETCHED INTO [A] BY DOING A MOV A,M.
   214                                  02680                           IF THE CONDITION CODES MUST BE SET UP AGAIN
   215                                  02700                           DCX H,CHRGET WILL WORK. IT IS VERY DIFFICULT
   216                                  02720                           TO REEXAMINE THE CHARACTER BEFORE THE CURRENT
   217                                  02740                           ONE SINCE SPACES MAY BE IN-BETWEEN.
   218                                  02760                           DCX H,DCX M,CHRGET WILL NOT ALWAYS WORK.
   219
   220                                  02800                   3       OUTCHR
   221                                  02820                           THE CHARACTER IN [A] IS PRINTED ON
   222                                  02840                           THE USER'S TERMINAL. [A] AND THE
   223                                  02860                           CONDITION CODES ARE PRESERVED
   224


-- PAGE 7 --------------------------------------------------------------


BASIC MCS 8080  GATES/ALLEN/DAVIDOFF    MACRO 47(113) 03:12 10-SEP-75 PAGE 2-1
F3      MAC      6-SEP-64 03:11         SOME EXPLANATION

   225                                  02900                   4       COMPAR
   226                                  02920                           [D,E] AND [H,L] ARE COMPARED AS UNSIGNED
   227                                  02940                           DOUBLE-BYTE INTEGERS. CARRY IS SET IF
   228                                  02960                           [H,L] IS LESS THAN [D,E]. ZERO IS SET IF THEY
   229                                  02980                           ARE EQUAL. [A] IS SMASHED. THE ONLY DEFINITE
   230                                  03000                           THING THAT CAN BE SAID ABOUT [A] ON RETURN
   231                                  03020                           IS THAT IF THE ZERO FLAG IS SET, [A] WILL
   232                                  03040                           EQUAL 0.
   233
   234                                  03080                   5       FSIGN
   235                                  03100                           THE FAC (FLOATING ACCUMULATOR)
   236                                  03120                           WHICH IS USED TO STORE NUMERIC RESULTS
   237                                  03140                           IS CHECKED TO SEE WHAT SIGN ITS
   238                                  03160                           VALUE HAS.
   239
   240                                  03200                   6       PUSHM
   241                                  03220                           A DOUBLE BYTE QUANTITY POINTED
   242                                  03240                           TO BY [H,L] IS PUSHED ONTO THE
   243                                  03260                           STACK, [B,C] IS SET EQUAL TO THE
   244                                  03280                           VALUE PUSHED, [H,L] IS INCREMENTED BY TWO
   245
   246                                  03320                   7       IN THE 4K VERSION RST 7 IS UNUSED AND THE LOCATIONS
   247                                  03340                           ASSOCIATED WITH IT ARE USED TO CONTINUE
   248                                  03360                           THE CODE FOR RST 6. IN THE 8K A JMP IS MADE
   249                                  03380                           AROUND THE FIRST THREE RST 7 LOCATIONS
   250                                  03400                           DURING RST 6 EXECUTION, RST 7 INITIALLY
   251                                  03420                           CONTAINS A RET, BUT THE USER CAN CHANGE IT TO
   252                                  03440                           A JMP TO AN INTERRUPT SERVICE ROUTINE.
   253
   254                                  03480           FUNCTION DISPATCH ADDRESSES
   255                                  03500                   FUNDSP CONTAINS THE ADDRESSES OF THE
   256                                  03520                   FUNCTION ROUTINES IN THE ORDER OF THE
   257                                  03540                   FUNCTION NAMES IN THE CRUNCH LIST.
   258                                  03560                   THE FUNCTIONS THAT TAKE MORE THAN ONE ARGUMENT
   259                                  03580                   ARE AT THE END. SEE THE EXPLANATION AT ISFUN.
   260
   261                                  03620           THE OPERATOR TABLE
   262                                  03640                   THE OPTAB TABLE CONTAINS AN OPERATORS PRECEDENCE
   263                                  03660                   FOLLOWED BY THE ADDRESS OF THE ROUTINE TO PERFORM
   264                                  03680                   THE OPERATION. THE INDEX INTO THE
   265                                  03700                   OPERATOR TABLE IS MADE BY SUBTRACTING OFF THE CRUNCH VALUE
   266                                  03720                   OF THE LOWEST NUMBERED OPERATOR. THE ORDER
   267                                  03740                   OF OPERATORS IN THE CRUNCH LIST AND IN OPTAB IS IDENTICAL.
   268                                  03760                   THE PRECEDENCES ARE ARBITRARY,EXCEPT FOR THEIR
   269                                  03780                   COMPARATIVE SIZES. NOTE THAT THE PRECENDENCE FOR
   270                                  03800                   UNARY OPERATORS SUCH AS NOT AND NEGATION ARE
   271                                  03820                   SETUP SPECIALLY WITHOUT USING A TABLE.
   272
   273                                  03860           THE RESERVED WORD ON CRUNCH LIST
   274                                  03880                   WHEN A COMMAND OR PROGRAM LINE IS TYPED IN
   275                                  03900                   IT IS STORED IN BUF. AS SOON AS THE WHOLE LINE
   276                                  03920                   HAS BEEN TYPED IN (INLIN RETURNS) CRUNCH IS
   277                                  03940                   CALLED TO CONVERT ALL RESERVED WORDS TO THEIR


-- PAGE 8 --------------------------------------------------------------


BASIC MCS 8080  GATES/ALLEN/DAVIDOFF    MACRO 47(113) 03:12 10-SEP-75 PAGE 2-2
F3      MAC      6-SEP-64 03:11         SOME EXPLANATION

   278                                  03960                   CRUNCH VALUES, THIS REDUCES THE SIZE OF THE
   279                                  03980                   PROGRAM AND SPEEDS UP EXECUTION BY ALLOWING
   280                                  04000                   TABLE DISPATCHES TO PERFORM FUNCTIONS,STATEMENTS,
   281                                  04020                   AND OPERATIONS. THIS IS BECAUSE ALL THE STATEMENT
   282                                  04040                   NAMES ARE STORED CONSECUTIVELY IN THE CRUNCH LIST.
   283                                  04060                   WHEN A MATCH IS FOUND BETWEEN A STRING
   284                                  04080                   OF CHARACTERS AND A WORD IN THE CRUNCH LIST
   285                                  04100                   THE ENTIRE TEXT OF THE MATCHED WORD IS TAKEN OUT OF
   286                                  04120                   THE INPUT LINE AND RESERVED WORD TAKEN IS PUT
   287                                  04140                   IN ITS PLACE. A RESERVED WORD TOKEN IS ALWAYS EQUAL
   288                                  04160                   TO OCTAL 200 PLUS THE POSITION OF THE MATCHED WORD
   289                                  04180                   IN THE CRUNCH LIST.
   290
   291                                  04220           STATEMENT DISPATCH ADDRESSES
   292                                  04240                   WHEN A STATEMENT IS TO BE EXECUTED, THE FIRST
   293                                  04260                   CHARACTER OF THE STATEMENT IS EXAMINED
   294                                  04280                   TO SEE IF IT IS LESS THAN THE RESERVED
   295                                  04300                   WORD TOKEN FOR THE LOWEST NUMBERED STATEMENT NAME,
   296                                  04320                   IF SO, THE "LET" CODE IS CALLED TO
   297                                  04340                   TREAT THE STATEMENT AS AN ASSIGNMENT STATEMENT.
   298                                  04360                   OTHERWISE A CHECK IS MADE TO MAKE SURE THE
   299                                  04380                   RESERVED WORD NUMBER IS NOT TOO LARGE TO BE A
   300                                  04400                   STATEMENT TYPE NUMBER. IF NOT THE ADDRESS
   301                                  04420                   TO DISPATCH TO IS FETCHED FROM STMDSP (THE STATEMENT
   302                                  04440                   DISPATCH TABLE) USING THE RESERVED WORD
   303                                  04460                   NUMBER FOR THE STATEMENT TO CALCULATE AN INDEX INTO
   304                                  04480                   THE TABLE.
   305
   306                                  04520           ERROR MESSAGES
   307                                  04540                   WHEN AN ERROR CONDITION IS DETECTED
   308                                  04560                   [E] MUST BE SET UP TO INDICATE WHICH ERROR
   309                                  04580                   MESSAGE IS APPROPRIATE AND A BRANCH MUST BE MADE
   310                                  04600                   TO ERROR. THE STACK WILL BE RESET AND ALL
   311                                  04620                   PROGRAM CONTEXT WILL BE LOST. VARIABLES
   312                                  04640                   VALUES AND THE ACTUAL PROGRAM REMAIN INTACT.
   313                                  04660                   ONLY THE VALUE OF [E] IS IMPORTANT WHEN
   314                                  04680                   THE BRANCH IS MADE TO ERROR, [E] IS USED AS AN
   315                                  04700                   INDEX INTO ERRTAB WHICH GIVES THE TWO
   316                                  04720                   CHARACTER ERROR MESSAGE THAT WILL BE PRINTED ON THE
   317                                  04740                   USER'S TERMINAL.
   318
   319                                  04780           IMPURE STORAGE
   320                                  04800                   ALL TEMPORARIES,FLAGS,POINTERS, THE BUFFER AREA,
   321                                  04820                   THE FLOATING ACCUMULATOR,AND ANYTHING ELSE THAT
   322                                  04840                   IS USED TO STORE A CHANGING VALUE SHOULD BE LOCATED
   323                                  04860                   IN THIS AREA. CARE MUST BE MADE IN MOVING LOCATIONS
   324                                  04880                   IN THIS AREA SINCE THE JUXTAPOSITION OF TWO LOCATIONS
   325                                  04900                   IS OFTEN DEPENDED UPON.
   326
   327                                  04940           TEXTUAL MESSAGES
   328                                  04960                   CONSTANT MESSAGES ARE STORED HERE. UNLESS
   329                                  04980                   THE CODE TO CHECK IF A STRING MUST BE COPIED
   330                                  05000                   IS CHANGED THESE STRINGS MUST BE STORED ABOVE


-- PAGE 9 --------------------------------------------------------------


BASIC MCS 8080  GATES/ALLEN/DAVIDOFF    MACRO 47(113) 03:12 10-SEP-75 PAGE 2-3
F3      MAC      6-SEP-64 03:11         SOME EXPLANATION

   331                                  05020                   DSCTMP, OR ELSE THEY WILL BE COPIED BEFORE
   332                                  05040                   THEY ARE PRINTED.
   333
   334                                  05080           FNDFOR
   335                                  05100                   MOST SMALL ROUTINES ARE FAIRLY SIMPLE
   336                                  05120                   AND ARE DOCUMENTED IN PLACE. FNDFOR IS
   337                                  05140                   USED FOR FINDING "FOR" ENTRIES ON
   338                                  05160                   THE STACK. WHENEVER A "FOR" IS EXECUTED AN
   339                                  05180                   18 BYTE ENTRY IS PUSHED ONTO THE STACK.
   340                                  05200                   BEFORE THIS IS DONE, HOWEVER, A CHECK
   341                                  05220                   MUST BE MADE TO SEE IF THERE
   342                                  05240                   ARE ANY "FOR" ENTRIES ALREADY ON THE STACK
   343                                  05260                   FOR THE SAME LOOP VARIABLE. IF SO, THAT "FOR" ENTRY
   344                                  05280                   AND ALL OTHER "FOR" ENTRIES THAT WERE MADE AFTER IT
   345                                  05300                   ARE ELIMINATED FROM THE STACK. THIS IS SO A
   346                                  05320                   PROGRAM THAT JUMPS OUT OF THE MIDDLE
   347                                  05340                   OF A "FOR" LOOP AND THEN RESTARTS THE LOOP AGAIN
   348                                  05360                   AND AGAIN WON'T USE UP 18 BYTES OF STACK
   349                                  05380                   SPACE EVERY TIME. THE "NEXT" CODE ALSO
   350                                  05400                   CALLS FNDFOR TO SEARCH FOR A "FOR" ENTRY WITH
   351                                  05420                   THE LOOP VARIABLE IN
   352                                  05440                   THE "NEXT". AT WHATEVER POINT A MATCH IS FOUND
   353                                  05460                   THE STACK IS RESET. IF NO MATCH IS FOUND A
   354                                  05480                   "NEXT WITHOUT FOR" ERROR OCCURS. GOSUB EXECUTION
   355                                  05500                   ALSO PUTS A 6 BYTE ENTRY ON STACK.
   356                                  05520                   WHEN A RETURN IS EXECUTED FNDFOR IS
   357                                  05540                   CALLED WITH A VARIABLE POINTER THAT CAN'T
   358                                  05560                   BE MATCHED. WHEN "FNDFOR" HAS RUN
   359                                  05580                   THROUGH ALL THE "FOR" ENTRIES ON THE STACK
   360                                  05600                   IT RETURNS AND THE RETURN CODE MAKES
   361                                  05620                   SURE THE ENTRY THAT WAS STOPPED
   362                                  05640                   ON IS A GOSUB ENTRY. THIS ASSURES THAT
   363                                  05660                   IF YOU GOSUB TO A SECTION OF CODE
   364                                  05680                   IN WHICH A FOR LOOP IS ENTERED BUT NEVER
   365                                  05700                   EXITED THE RETURN WILL STILL BE
   366                                  05720                   ABLE TO FIND THE MOST RECENT
   367                                  05740                   GOSUB ENTRY. THE "RETURN" CODE ELIMINATES THE
   368                                  05760                   "GOSUB" ENTRY AND ALL "FOR" ENTRIES MADE AFTER
   369                                  05780                   THE GOSUB ENTRY.
   370
   371                                  05820           NON-RUNTIME STUFF
   372                                  05840                   THE CODE TO INPUT A LINE,CRUNCH IT, GIVE ERRORS,
   373                                  05860                   FIND SPECIFIC LINE IN THE PROGRAM
   374                                  05880                   PERFORM A "NEW", "CLEAR", AND "LIST" ARE
   375                                  05900                   ALL IN THIS AREA. GIVEN THE EXPLANATION OF
   376                                  05920                   PROGRAM STORAGE GIVEN BELOW THESE ARE
   377                                  05940                   ALL STRAIGHTFORWARD.
   378
   379                                  05980           NEWSTT
   380                                  06000                   WHENEVER A STATEMENT FINISHED EXECUTION IT
   381                                  06020                   DOES A "RET" WHICH TAKES
   382                                  06040                   EXECUTION BACK TO NEWSTT. STATEMENTS THAT
   383                                  06060                   CREATE OR LOOK AT SEMI-PERMANENT STACK ENTRIES


-- PAGE 10 --------------------------------------------------------------


BASIC MCS 8080  GATES/ALLEN/DAVIDOFF    MACRO 47(113) 03:12 10-SEP-75 PAGE 2-4
F3      MAC      6-SEP-64 03:11         SOME EXPLANATION

   384                                  06080                   MUST GET RID OF THE RETURN ADDRESS OF NEWSTT AND
   385                                  06100                   JMP TO NEWSTT WHEN DONE. NEWSTT ALWAYS
   386                                  06120                   CHRGETS THE FIRST CHARACTER AFTER THE STATEMENT
   387                                  06140                   NAME BEFORE DISPATCHING. WHEN RETURNING
   388                                  06160                   BACK TO NEWSTT THE ONLY THING THAT
   389                                  06180                   MUST BE SET UP IS THE TEXT POINTER IN
   390                                  06200                   [H,L]. NEWSTT WILL CHECK TO MAKE SURE
   391                                  06220                   [H,L] IS POINTING TO A STATEMENT TERMINATOR.
   392                                  06240                   IF A STATEMENT SHOULDN'T BE PERFORMED UNLESS
   393                                  06260                   IT IS PROPERLY FORMATTED (I.E "NEW") IT CAN
   394                                  06280                   SIMPLY DO A "RNZ" AFTER READING ALL OF
   395                                  06300                   ITS ARGUMENTS. SINCE THE ZERO FLAG
   396                                  06320                   BEING OFF INDICATES THERE IS NOT
   397                                  06340                   A STATEMENT TERMINATOR NEWSTT WILL
   398                                  06360                   DO THE JMP TO THE "SYNTAX ERROR"
   399                                  06380                   ROUTINE. IF A STATEMENT SHOULD BE STARTED
   400                                  06400                   OVER IT CAN DO LHLD TEMP,RET SINCE THE [H,L]
   401                                  06420                   AT NEWSTT IS ALWAYS STORED IN TEMP. OF COURSE
   402                                  06440                   CARE MUST TAKEN THAT NO ROUTINE
   403                                  06460                   THAT SMASHES TEMP HAS BEEN CALLED.
   404                                  06480                   THE ^C CODE STORES TEMP IN OLDTXT AND CURLIN (THE
   405                                  06500                   CURRENT LINE NUMBER) IN OLDLIN SINCE THE ^C CHECK
   406                                  06520                   IS MADE BEFORE THE STATEMENT POINTED TO IS
   407                                  06540                   EXECUTED. "STOP" AND "END" STORE THE TEXT POINTER
   408                                  06560                   IN [H,L] WHICH POINTERS AT THEIR TERMINATING
   409                                  06580                   CHARACTER IN OLDTXT.
   410
   411                                  06620           STATEMENT CODE
   412                                  06640                   THE INDIVIDUAL STATEMENT CODE COMES
   413                                  06660                   NEXT. THE APPROACH USED IN EXECUTING EACH
   414                                  06680                   STATEMENT IS DOCUMENTED IN THE STATEMENT CODE
   415                                  06700                   ITSELF.
   416
   417                                  06740           FRMEVL, THE FORMULA EVALUATOR
   418                                  06760                   GIVEN AN [H,L] POINTING TO THE STARTING
   419                                  06780                   CHARACTER OF A FORMULA FRMEVL
   420                                  06800                   EVALUATES THE FORMULATE AND LEAVES
   421                                  06820                   THE VALUE IN THE FLOATING ACCUMULATOR (FAC).
   422                                  06840                   [H,L] IS RETURNED POINTING TO THE FIRST CHARACTER
   423                                  06860                   THAT COULD NOT BE INTERPRETED AS PART OF THE
   424                                  06880                   FORMULA. THE ALGORITHM USES THE STACK
   425                                  06900                   TO STORE TEMPORARY RESULTS:
   426
   427                                  06940                           0. PUT A DUMMY PRECEDENCE OF ZERO ON
   428                                  06960                                   THE STACK.
   429                                  06980                           1. READ LEXEME (CONSTANT,FUNCTION,
   430                                  07000                                   VARIABLE,FORMULA IN PARENS)
   431                                  07020                                   AND TAKE THE LAST PRECEDENCE VALUE
   432                                  07040                                   OFF THE STACK
   433                                  07060                           2. SEE IF THE NEXT CHARACTER IS AN OPERATOR
   434                                  07080                                   IF NOT,RETURN. THIS MAY CAUSE
   435                                  07100                                   OPERATOR APPLICATION OR AN ACTUAL
   436                                  07120                                   RETURN FROM FRMEVL


-- PAGE 11 --------------------------------------------------------------


BASIC MCS 8080  GATES/ALLEN/DAVIDOFF    MACRO 47(113) 03:12 10-SEP-75 PAGE 2-5
F3      MAC      6-SEP-64 03:11         SOME EXPLANATION
   437                                  07140                           3. IF IT IS, SEE WHAT PRECEDENCE IT HAS
   438                                  07160                                   AND COMPARE IT TO THE PRECEDENCE
   439                                  07180                                   OF THE LAST OPERATOR ON THE STACK
   440                                  07200                           4. IF = OR LESS REMEMBER THE TEXT
   441                                  07220                                   POINTER AT THE START OF THIS OPERATOR
   442                                  07240                                   AND DO A RETURN TO CAUSE
   443                                  07260                                   APPLICATION OF THE LAST OPERATOR.
   444                                  07280                                   EVENTUALLY RETURN TO STEP 2
   445                                  07300                                   BY RETURNING TO RETAOP.
   446                                  07320                           5. IF GREATER PUT THE LAST PRECEDENCE
   447                                  07340                                   BACK ON, SAVE THE CURRENT
   448                                  07360                                   TEMPORARY RESULT, OPERATOR ADDRESS
   449                                  07380                                   AND PRECEDENCE AND RETURN TO STEP 1.
   450
   451                                  07420                   RELATIONAL OPERATORS ARE ALL HANDLED THROUGH
   452                                  07440                   A COMMON ROUTINE. SPECIAL
   453                                  07460                   CARE IS TAKEN TO DETECT TYPE MISMATCHES SUCH AS 3+"F"
   454
   455                                  07500           EVAL -- THE ROUTINE TO READ A LEXEME
   456                                  07520                   EVAL CHECKS FOR THE DIFFERENT TYPES OF
   457                                  07540                   ENTITIES IT IS SUPPOSED TO DETECT.
   458                                  07560                   LEADING PLUSES ARE IGNORED,
   459                                  07580                   DIGITS AND "." CAUSE FIN (FLOATING INPUT)
   460                                  07600                   TO BE CALLED. FUNCTION NAMES CAUSE THE
   461                                  07620                   FORMULA INSIDE THE PARENTHESES TO BE EVALUATED
   462                                  07640                   AND THE FUNCTION ROUTINE TO BE CALLED. VARIABLE
   463                                  07660                   NAMES CAUSE PTRGET TO BE CALLED TO GET A POINTER
   464                                  07680                   TO THE VALUE, AND THEN THE VALUE IS PUT INTO
   465                                  07700                   THE FAC. AN OPEN PARENTHESIS CAUSES FRMEVL
   466                                  07720                   TO BE CALLED (RECURSIVELY), AND THE ")" TO
   467                                  07740                   BE CHECKED FOR. UNARY OPERATORS (NOT AND
   468                                  07760                   NEGATION)  PUT THEIR PRECEDENCE ON THE STACK
   469                                  07780                   AND ENTER FORMULA EVALUATION AT STEP 1, SO
   470                                  07800                   THAT EVERYTHING UP TO AN OPERATOR GREATER THAN
   471                                  07820                   THEIR PRECEDENCE OR THE END OF THE FORMULA
   472                                  07840                   WILL BE EVALUATED. WHEN FRMEVL DOES A RETURN
   473                                  07860                   BECAUSE IT SEES AN OPERATOR OF HIGHER PRECEDENCE
   474                                  07880                   IT DOES NOT PASS THE TEXT POINTER IN [H,L], SO
   475                                  07900                   AFTER THE UNARY OPERATION HAS BEEN PERFORMED
   476                                  07920                   ON THE FAC THE TEXT POINTER MUST BE FETCHED FROM
   477                                  07940                   A TEMPORARY LOCATION THAT FRMEVL USES AND
   478                                  07960                   A RETURN BACK TO FRMEVL DONE.
   479
   480                                  08000           DIMENSION AND VARIABLE SEARCHING
   481                                  08020                   SPACE IS ALLOCATED FOR VARIABLES AS THEY ARE
   482                                  08040                   ENCOUNTERED. THUS "DIM" STATEMENTS MUST BE
   483                                  08060                   EXECUTED TO HAVE EFFECT. 6 BYTES ARE ALLOCATED
   484                                  08080                   FOR EACH SIMPLE VARIABLE, WHETHER IT IS A STRING,
   485                                  08100                   NUMBER OR USER DEFINED FUNCTION. THE FIRST TWO
   486                                  08120                   BYTES GIVE THE NAME OF THE VARIABLE AND THE LAST FOUR
   487                                  08140                   GIVE ITS VALUE. (VARTAB) GIVES THE FIRST LOCATION
   488                                  08160                   WHERE A SIMPLE VARIABLE NAME IS FOUND AND (ARYTAB)
   489                                  08180                   GIVES THE LOCATION TO STOP SEARCHING FOR SIMPLE


-- PAGE 12 --------------------------------------------------------------


BASIC MCS 8080  GATES/ALLEN/DAVIDOFF    MACRO 47(113) 03:12 10-SEP-75 PAGE 2-6
F3      MAC      6-SEP-64 03:11         SOME EXPLANATION

   490                                  08200                   VARIABLES. A "FOR" ENTRY HAS A TEXT POINTER
   491                                  08220                   AND A POINTER TO A VARIABLE VALUE SO NEITHER
   492                                  08240                   THE PROGRAM OR THE SIMPLE VARIABLES CAN BE
   493                                  08260                   MOVED WHILE THERE ARE ACTIVE "FOR" ENTRIES ON THE STACK
   494                                  08280                   USER DEFINED FUNCTION VALUES ALSO CONTAIN
   495                                  08300                   POINTERS INTO SIMPLE VARIABLE SPACE SO NO USER-DEFINED
   496                                  08320                   FUNCTION VALUES CAN BE RETAINED IF SIMPLE VARIABLES
   497                                  08340                   ARE MOVED. ADDING A SIMPLE VARIABLE
   498                                  08360                   ADDING SIX TO ARYTAB AND STREND, BLOCK TRANSFERING
   499                                  08380                   THE ARRAY VALUES UP BY SIX AND MAKING SURE THE
   500                                  08400                   NEW (STREND) IS NOT TO CLOSE TO THE STACK.
   501                                  08420                   THIS MOVEMENT OF ARRAY VARIABLES MEANS
   502                                  08440                   THAT NO POINTER TO AN ARRAY WILL STAY VALID WHEN
   503                                  08460                   NEW SIMPLE VARIABLES CAN BE ENCOUNTERED. THIS IS
   504                                  08480                   WHY ARRAY VARIABLES ARE NOT ALLOWED "FOR"
   505                                  08500                   LOOP VARIABLES. SETING UP ANEW ARRAY VARIABLE
   506                                  08520                   MERELY INVOLVES BUILDING THE DESCRIPTOR,
   507                                  08540                   UPDATING STREND, AND MAKING SURE THERE IS
   508                                  08560                   STILL ENOUGH ROOM BETWEEN STREND AND THE
   509                                  08580                   STACK. WITHOUT MULTIPLE DIMENSIONS THE FORMAT
   510                                  08600                   OF AN ARRAY VARIABLE IS SIMPLY:
   511                                  08620                           SECOND CHARACTER
   512                                  08640                           FIRST CHARACTER
   513                                  08660                           NUMBER OF BYTES USED BY VALUES
   514                                  08680                           VALUES
   515                                  08700                   THE FORMAT WHEN MULTPLY DIMENSIONED VARIABLES
   516                                  08720                   ARE ALLOWED IS DESCRIBED IN THE "MULDIM" CODE.
   517                                  08740                   PTRGET, THE ROUTINE WHICH RETURNS A POINTER
   518                                  08760                   TO A VARIABLE VALUE, HAS TWO IMPORTANT FLAGS. ONE IS
   519                                  08780                   "DIMFLG" WHICH INDICATED WHETHER "DIM" CALLED PTRGET
   520                                  08800                   OR NOT. IF SO, NO PRIOR ENTRY FOR THE VARIABLE IN
   521                                  08820                   QUESTION SHOULD BE FOUND, AND THE INDEX INDICATED
   522                                  08840                   HOW MUCH SPACE TO SET ASIDE. SIMPLE VARIABLES CAN
   523                                  08860                   BE "DIMENSIONED", BUT THE ONLY EFFECT WILL BE TO
   524                                  08880                   SET ASIDE SPACE FOR THE VARIABLE IF IT HASN'T BEEN
   525                                  08900                   ENCOUNTERED YET. THE OTHER IMPORTANT FLAG IS SUBFLG
   526                                  08920                   WHICH INDICATES WHETHER A SUBSCRIPTED VARIABLE SHOULD BE
   527                                  08940                   ALLOWED IN THE CURRENT CONTEXT. IF SUBFLG IS NON-ZERO
   528                                  08960                   THE OPEN PARENTHESIS FOR A SUBSCRIPTED VARIABLE
   529                                  08980                   WILL NOT BE SCANNED BY PTRGET, AND PTRGET WILL RETURN
   530                                  09000                   WITH A TEXT POINTER POINTING TO THE "(, IF
   531                                  09020                   THERE WAS ONE.
   532                                  09040           STRINGS
   533                                  09060                   IN THE VARIABLE TABLE STRINGS ARE STORED JUST LIKE
   534                                  09080                   NUMBERIC VARIABLES. SIMPLE STRINGS HAVE FOUR VALUE
   535                                  09100                   BYTES WHICH ARE INITIALIZED TO ALL ZEROES (WHICH
   536                                  09120                   REPRESENTS THE NULL STRING). THE ONLY DIFFERENCE
   537                                  09140                   IN HANDLING IS THAT WHEN PTRGET SEES A "$" AFTER THE
   538                                  09160                   NAME OF A VARIABLE, PTRGET SETS VALTYP TO ONE AND TURNS
   539                                  09180                   ON THE MSB (MOST-SIGNIFICANT-BIT) OF THE VALUE OF
   540                                  09200                   THE FIRST CHARACTER OF THE VARIABLE NAME.
   541                                  09220                   HAVING THIS BIT ON IN THE NAME OF THE VARIABLE ENSURES
   542                                  09240                   THAT THE SEARCH ROUTINE WILL NOT MATCH


-- PAGE 13 --------------------------------------------------------------


BASIC MCS 8080  GATES/ALLEN/DAVIDOFF    MACRO 47(113) 03:12 10-SEP-75 PAGE 2-7
F3      MAC      6-SEP-64 03:11         SOME EXPLANATION

   543                                  09260                   'A' WITH 'AS' OR 'A$' WITH 'A'. THE MEANING OF
   544                                  09280                   THE FOUR VALUE BYTES ARE:
   545                                  09300                           LOW
   546                                  09320                                   LENGTH OF THE STRING
   547                                  09340                                   UNUSED
   548                                  09360                                   LOW 8 BITS
   549                                  09380                                   HIGH 8 BITS  OF THE ADDRESS
   550                                  09400                                           OF THE CHARACTERS IN THE
   551                                  09420                                           STRING IF LENGTH,NE.0.
   552                                  09440                                           MEANINGLESS OTHERWISE.
   553                                  09460                           HIGH
   554                                  09480                   THE VALUE OF A STRING VARIABLE (THESE 4 BYTES)
   555                                  09500                   IS CALLED THE STRING DESCRIPTOR TO DISTINGUISH
   556                                  09520                   IT FROM THE ACTUAL STRING DATA. WHENEVER A
   557                                  09540                   STRING CONSTANT IS ENCOUNTERED IN A FORMULA OR AS
   558                                  09560                   PART OF AN INPUT STRING, OR AS PART OF DATA, STRLIT
   559                                  09580                   IS CALLED, CAUSING A DESCRIPTOR TO BE BUILT FOR
   560                                  09600                   THE STRING. IF THE STRING CONSTANT IS IN BUF (WHICH
   561                                  09620                   IT WILL BE IF THE STRING IS BEING "INPUT", OR THE
   562                                  09640                   STRING IS PART OF SOME FORMULA IN A DIRECT STATEMENT)
   563                                  09660                   THE VALUE IS COPIED INTO STRING SPACE SINCE BUF
   564                                  09680                   IS ALWAYS CHANGING. "STRCPY" IS USED TO COPY
   565                                  09700                   STRINGS.
   566
   567                                  09740                   STRING FUNCTIONS AND THE ONE STRING OPERATOR "+"
   568                                  09760                   ALWAYS RETURN THEIR VALUES IN STRING SPACE.
   569                                  09780                   ASSIGNING A STRING A CONSTANT VALUE IN A PROGRAM
   570                                  09800                   THROUGH A "READ" OR ASSIGNMENT STATEMENT
   571                                  09820                   WILL NOT USE ANY STRING SPACE SINCE
   572                                  09840                   THE STRING DESCRIPTOR  WILL POINT INTO THE
   573                                  09860                   PROGRAM ITSELF. IN GENERAL, COPYING IS DONE
   574                                  09880                   WHEN A STRING VALUE IS IN BUF, OR IT IS IN STRING
   575                                  09900                   SPACE AND THERE IS AN ACTIVE POINTER TO IT.
   576                                  09920                   THUS F$=G$ WILL CAUSE COPYING IF G$ HAS ITS
   577                                  09940                   STRING DATA IN STRING SPACE. F$=CHR$(7)
   578                                  09960                   WILL USE ONE BYTE OF STRING SPACE TO STORE THE
   579                                  09980                   NEW ONE CHARACTER STRING CREATED BY "CHR$", BUT
   580                                  10000                   THE ASSIGNMENT ITSELF WILL CAUSE NO COPYING SINCE
   581                                  10020                   THE ONLY POINTER AT THE NEW STRING IS A
   582                                  10040                   TEMPORARY DESCRIPTOR CREATED BY FRMEVL WHICH WILL
   583                                  10060                   GO AWAY AS SOON AS THE ASSIGNMENT IS DONE.
   584                                  10080                   IT IS THE NATURE OF GARBAGE COLLECTION THAT
   585                                  10100                   DISALLOWS HAVING TWO STRING DESCRIPTORS POINT TO THE SAME
   586                                  10120                   AREA IN STRING SPACE. STRING FUNCTIONS AND OPERATORS
   587                                  10140                   MUST PROCEED AS FOLLOWS:
   588                                  10160                           1) FIGURE OUT THE LENGTH OF THEIR RESULT
   589                                  10180                           2) CALL GETSPA TO FIND SPACE FOR THEIR
   590                                  10200                           RESULT. THE ARGUMENTS TO THE FUNCTION
   591                                  10220                           OR OPERATOR MAY CHANGE SINCE GARBAGE COLLECTION
   592                                  10240                           MAY BE INVOLVED. THE ONLY THING THAT CAN
   593                                  10260                           BE SAVED DURING THE CALL TO GETSPA IS A POINTER
   594                                  10280                           TO THE DESCRIPTORS OF THE ARGUMENTS.
   595                                  10300                           3) CONSTRUCT THE RESULT DESCRIPTOR IN DSCTMP.


-- PAGE 14 --------------------------------------------------------------


BASIC MCS 8080  GATES/ALLEN/DAVIDOFF    MACRO 47(113) 03:12 10-SEP-75 PAGE 2-8
F3      MAC      6-SEP-64 03:11         SOME EXPLANATION

   596                                  10320                           GETSPA RETURNS THE LOCATION OF THE AVAILABLE
   597                                  10340                           SPACE.
   598                                  10360                           4) CREATE THE NEW VALUE BY COPYING PARTS
   599                                  10380                           OF THE ARGUMENTS OR WHATEVER.
   600                                  10400                           5) FREE UP THE ARGUMENTS BY CALLING FRETMP.
   601                                  10420                           6) JUMP TO PUTNEW TO GET THE DESCRIPTOR IN
   602                                  10440                           DSCTMP TRANSFERRED INTO A NEW STRING TEMPORARY.
   603
   604                                  10480                   THE REASON FOR STRING TEMPORARIES IS THAT GARBAGE
   605                                  10500                   COLLECTION HAS TO KNOW ABOUT ALL ACTIVE STRING DESCRIPTORS
   606                                  10520                   SO IT KNOWS WHAT IS AND ISN'T IN USE. STRING TEMPORARIES ARE
   607                                  10540                   USED TO STORE THE DESCRIPTORS OF STRING EXPRESSIONS.
   608
   609                                  10580                   INSTEAD OF HAVING AN ACTUAL VALUE STORED IN THE
   610                                  10600                   FAC, AND HAVING THE VALUE OF A TEMPORARY RESULT
   611                                  10620                   BEING SAVED ON THE STACK, AS HAPPENS WITH NUMERIC
   612                                  10640                   VARIABLES, STRINGS HAVE THE POINTER TO A STRING DESCRIPTOR
   613                                  10660                   STORED IN THE FAC, AND IT IS THIS POINTER
   614                                  10680                   THAT GETS SAVED ON THE STACK BY FORMULA EVALUATION.
   615                                  10700                   STRING FUNCTIONS CANNOT FREE THEIR ARGUMENTS UP RIGHT
   616                                  10720                   AWAY SINCE GETSPA MAY FORCE
   617                                  10740                   GARBAGE COLLECTION AND THE ARGUMENT STRINGS
   618                                  10760                   MAY BE OVER-WRITTEN SINCE GARBAGE COLLECTION
   619                                  10780                   WILL NOT BE ABLE TO FIND AN ACTIVE POINTER TO
   620                                  10800                   THEM. FUNCTION AND OPERATOR RESULTS ARE BUILT IN
   621                                  10820                   DSCTMP SINCE STRING TEMPORARIES ARE ALLOCATED
   622                                  10840                   (PUTNEW) AND DEALLOATED (FRETMP) IN A FIFO ORDERING
   623                                  10860                   (I.E. A STACK) SO THE NEW TEMPORARY CANNOT
   624                                  10880                   BE SET UP UNTIL THE OLD ONE(S) ARE FREED. TRYING
   625                                  10900                   TO BUILD A RESULT IN A TEMPORARY AFTER
   626                                  10920                   FREEING UP THE ARGUMENT TEMPORARIES COULD RESULT
   627                                  10940                   IN ONE OF THE ARGUMENT TEMPORARIES BEING OVERWRITTEN
   628                                  10960                   TOO SOON BY THE NEW RESULT.
   629
   630                                  11000                   STRING SPACE IS ALLOCATED AT THE VERY TOP
   631                                  11020                   OF MEMORY. MEMSIZ POINTS BEYOND THE LAST LOCATION OF
   632                                  11040                    STRING SPACE. STRING ARE STORED IN HIGH LOCATIONS
   633                                  11060                   FIRST. WHENEVER STRING SPACE IS ALLOCATED (GETSPA)
   634                                  11080                   FRETOP, WHICH IS INITIALIZED TO [MEMSIZ], IS UPDATED
   635                                  11100                   TO GIVE THE HIGHEST LOCATION IN STRING SPACE
   636                                  11120                   THAT IS NOT IN USE. THE RESULT IS THAT
   637                                  11140                   FRETOP GETS SMALLER AND SMALLER, UNTIL SOME
   638                                  11160                   ALLOCATION WOULD MAKE [FRETOP] LESS THAN OR EQUAL TO
   639                                  11180                   [STKTOP]. THIS MEANS STRING SPACE HAS RUN INTO THE
   640                                  11200                   STACK AND THAT GARBAGE COLLECTION MUST BE CALLED.
   641
   642                                  11240                   GARBAGE COLLECTION:
   643                                  11260                           0. MINPTR=[STKTOP] [FRETOP]=[MEMSIZ]
   644                                  11280                           1. REMMIN=0
   645                                  11300                           2. FOR EACH STRING DESCRIPTOR
   646                                  11320                           (TEMPORARIES, SIMPLE STRINGS, STRING ARRAYS)
   647                                  11340                           IF THE STRING IS NOT NULL AND ITS POINTER IS
   648                                  11360                           .GT.MINPTR AND .LT.FRETOP,


-- PAGE 15 --------------------------------------------------------------


BASIC MCS 8080  GATES/ALLEN/DAVIDOFF    MACRO 47(113) 03:12 10-SEP-75 PAGE 2-9
F3      MAC      6-SEP-64 03:11         SOME EXPLANATION

   649                                  11380                           MINPTR=THIS STRING DESCRIPTOR
   650                                  11400                           REMMIN=POINTER AT THIS STRING DESCRIPTOR
   651                                  11420                           END
   652                                  11440                           3. IF REMMIN.NE.0 (WE FOUND AN UNCOLLECTED STRING)
   653                                  11460                           BLOCK TRANSFER THE STRING DATA POINTED
   654                                  11480                           TO IN THE STRING DESCRIPTOR POINTED TO BY REMMIN
   655                                  11500                           SO THAT THE LAST BYTE OF STRING DATA IS AT
   656                                  11520                           [FRETOP]. UPDATE FRETOP SO THAT IT
   657                                  11540                           POINTS TO THE LOCATION JUST BELOW THE ONE
   658                                  11560                           THE STRING DATA WAS MOVED INTO. UPDATE
   659                                  11580                           THE POINTER IN THE DESCRIPTOR SO IT POINTS
   660                                  11600                           TO THE NEW LOCATION OF THE STRING DATA.
   661                                  11620                           GO TO STEP 1
   662
   663                                  11660                   AFTER CALLING GARBAGE COLLECTION GETSPA AGAIN CHECKS
   664                                  11680                   TO SEE IF [A] CHARACTERS ARE AVAILABLE BETWEEN
   665                                  11700                   [STKTOP] AND [FRETOP] , IF NOT AN "OUT OF STRING"
   666                                  11720                   ERROR IS INVOKED.
   667
   668                                  11760           MATH PACKAGE
   669                                  11780                   THE MATH PACKAGE CONTAINS FLOATING INPUT (FIN),
   670                                  11800                   FLOATING OUTPUT (FOUT) FLOATING COMPARE (FCOMP)
   671                                  11820                   ... AND ALL THE NUMERIC OPERATORS AND FUNCTIONS.
   672                                  11840                   THE FORMATS,CONVENTIONS AND ENTRY POINTS ARE ALL
   673                                  11860                   DESCRIBED IN THE MATH PACKAGE ITSELF.
   674
   675                                  11900           INIT -- THE INITIALIZATION ROUTINE
   676                                  11920                   INITIALIZATION FIRST LOOKS AT THE SWITCH REGISTERS
   677                                  11940                   TO SEE WHAT TYPE OF I/O SHOULD BE DONE.
   678                                  11960                   ANY NON-STANDARD I/O CAUSES LOCATIONS IN BASIC
   679                                  11980                   TO BE CHANGED. THEN THE AMOUNT OF MEMORY,
   680                                  12000                   TERMINAL WIDTH,AND WHICH FUNCTIONS TO BE RETAINED
   681                                  12020                   ARE ASCERTAINED FROM THE USER. A ZERO IS PUT DOWN
   682                                  12040                   AT THE FIRST LOCATION NOT USED BY THE MATH-PACKAGE
   683                                  12060                   AND TXTTAB IS SET UP TO POINT AT THE NEXT LOCATION.
   684                                  12080                   THIS DETERMINES WHERE PROGRAM STORAGE WILL START. THE
   685                                  12100                   HIGHEST MEMORY LOCATION MINUS THE AMOUNT OF DEFAULTED
   686                                  12120                   STRING SPACE (50) GIVES THE FIRST LOCATION USED BY THE
   687                                  12140                   STACK. SPECIAL CHECKS ARE MADE TO MAKE SURE
   688                                  12160                   ALL QUESTIONS IN INIT ARE ANSWERED REASONABLY, SINCE
   689                                  12180                   ONCE INIT FINISHES THE LOCATIONS IT USES ARE
   690                                  12200                   USED FOR PROGRAM STORAGE. THE LAST THING INIT DOES IS
   691                                  12220                   CHANGE LOCATION ZERO TO BE A JUMP TO READY INSTEAD
   692                                  12240                   OF INIT. ONCE THIS IS DONE THERE IS NO WAY TO RESTART
   693                                  12260                   INIT.
   694
   695                                  12300           STORAGE
   696                                  12320                                   A ZERO.
   697                                  12340                   [TXTTAB]        POINTER TO NEXT LINE'S POINTER
   698                                  12360                                   LINE # OF THIS LINE (2 BYTES)
   699                                  12380                                   CHARACTERS ON THIS LINE
   700                                  12400                                   ZERO
   701                                  12420                                   POINTER AT NEXT LINE'S POINTER


-- PAGE 16 --------------------------------------------------------------


BASIC MCS 8080  GATES/ALLEN/DAVIDOFF    MACRO 47(113) 03:12 10-SEP-75 PAGE 2-10
F3      MAC      6-SEP-64 03:11         SOME EXPLANATION

   702                                  12440                                               (POINTED TO BY THE ABOVE POINTER)
   703                                  12460                                   ... REPEATS ...
   704                                  12480                   LAST LINE:      POINTER AT ZERO POINTER
   705                                  12500                                   LINE # OF THIS LINE
   706                                  12520                                   CHARACTERS ON THIS LINE
   707                                  12540                                   ZERO
   708                                  12560                                   DOUBLE ZERO (POINTED TO BY THE ABOVE POINTER)
   709                                  12580                   [VARTAB]        SIMPLE VARIABLES. 6 BYTES PER VALUE.
   710                                  12600                                   2 BYTES GIVE THE NAME, 4 BYTES THE VALUE
   711                                  12620                                   ... REPEATS ...
   712                                  12640                   [ARYTAB]        ARRAY VARIABLES. 2 BYTES NAME, 2 BYTE
   713                                  12660                                   LENGTH, VALUE (EXTRA IF MULDIM ON)
   714                                  12680                                   ... REPEATS  ...
   715                                  12700                   [STREND]        FREE SPACE
   716                                  12720                                   ... REPEATS ...
   717                                  12740                                   MOST RECENT STACK ENTRY
   718                                  12760                                   ... REPEATS ...
   719                                  12780                   [STKTOP]        FIRST STACK ENTRY
   720                                  12800                                   FREE STRING SPACE
   721                                  12820                                   ... REPEATS ...
   722                                  12840                   [FRETOP]        STRING SPACE IN USE
   723                                  12860                                   ... REPEATS ...
   724                                  12880                   [MEMSIZ]        HIGHEST MACHINE LOCATION
   725                                  12900                                   UNUSED EXCEPT BY THE VAL FUNCTION.
   726                                  12920   HIGH LOCATIONS
   727
   728                                  12960   *
   729                                  12980   PAGE


-- PAGE 17 --------------------------------------------------------------


BASIC MCS 8080  GATES/ALLEN/DAVIDOFF    MACRO 47(113) 03:12 10-SEP-75 PAGE 3
F3      MAC      6-SEP-64 03:11         RST ROUTINES

   730                                  13000   SUBTTL  RST ROUTINES
   731  000000'                         13020   RELOC 0
   732  000000' 001000  000363          13040   START:  DI                      ;DISENABLE INTERRUPTS
   733  000001' 001000  000363          13060           JMP     INIT            ;INIT IS THE INITIALIZE ROUTINE
   734  000002' 000000  000000*
   735  000003' 000000  000000
   736                                  13080                                   ;IT SETS UP CERTAIN
   737                                  13100                                   ;LOCATIONS DELETES FUNCTIONS IF
   738                                  13120                                   ;DESIRED AND
   739                                  13140                                   ;CHANGES THIS TO JMP READY
   740                                  13160   IFN     LENGTH-2,<
   741                                  13180           ADR(DEINT)              ;STORE HERE THE ROUTINE
   742                                  13200                                   ;TO TURN THE FAC INTO
   743                                  13220                                   ;A TWO-BYTE SIGNED INTEGER
   744                                  13240           ADR(GIVABF)>            ;STORE HERE THE ADDRESS
   745                                  13260                                   ;OF THE ROUTINE TO CONVERT [A,B]
   746                                  13280                                   ;TO A FLOATING POINT NUMBER IN THE FAC
   747                                  13300   IFE     LENGTH-2,<
   748  000004' 000000  000000*         13320           ADR(FRCINT)             ;TURN FAC INTO AN INTEGER IN [H,L]
   749  000005' 000000  000000'
   750  000006' 000000  000000*         13340           ADR(MAKINT)>            ;TURN [H,L] INTO A VALUE IN THE FAC
   751  000007' 000000  000000'
   752                                  13360                                   ;SET VALTYP FOR INTEGER
   753  000010'                         13380   RELOC 8
   754                                  13400   ;
   755                                  13420   ; SYNCHK LOOKS AT THE CURRENT CHARACTER TO MAKE SURE IT
   756                                  13440   ; IS A SPECIFIC THING (CONTAINED IN THE LOCATION AFTER THE CALL)
   757                                  13460   ; IF NOT IT CALLS THE 'SYNTAX ERROR' ROUTINE, OTHERWISE IT GOBBLES
   758                                  13480   ; THE NEXT CHARACTER AND RETURNS. (BY FALLING INTO CHRGET)
   759                                  13500   ;
   760                                  13520   ; ALL REGISTERS ARE PRESERVED EXCEPT [A]=NEW CHAR
   761                                  13540   ; AND (H,L) ENDS UP POINTING AT THE CHARACTER AFTER THE ONE
   762                                  13560   ; WHICH WAS CHECKED.
   763                                  13580   ;
   764  000010' 001000  000176          13600           MOV     A,M             ;GET THE CURRENT CHARACTER
   765  000011' 001000  000343          13620           XTHL                    ;GET CALL ADDRESS IN TO [H,L]
   766                                  13640                                   ;PUT TEXT POINTER ON STACK
   767  000012' 001000  000276          13660           CMP     M               ;SEE IF [A] =CURRENT CHARACTER
   768                                  13680                                   ;IS THE RIGHT THING.
   769  000013' 001000  000043          13700           INX     H               ;FIX RETURN ADDRESS.
   770  000014' 001000  000343          13720           XTHL                    ;PUT RETURN ADDRESS BACK AND RESTORE
   771                                  13740                                   ;THE TEXT POINTER.
   772  000015' 001000  000302          13760           JNZ     SNERR           ;IF THE CHARACTER WASN'T RIGHT CALL
   773  000016' 000000  002072'
   774  000017' 000000  000006'
   775                                  13780                                   ;THE 'SYNTAX ERROR' ROUTINE
   776                                  13800                                   ;OTHERWISE FALL THROUGH
   777                                  13820                                   ;AND GET ANOTHER CHARACTER.
   778                                  13840   ;
   779                                  13860   ; CHRGET, USING [H,L] AS THE CURRENT TEXT POINTER FETCHES
   780                                  14880   ; A NEW CHARACTER INTO [A] AFTER INCREMENTING [H,L]
   781                                  14900   ; AND SETS CONDITION CODES ACCORDING TO WHATS IT [A]
   782                                  14920   ;       C=       NUMERIC    ("0" THROUGH "9")


-- PAGE 18 --------------------------------------------------------------


BASIC MCS 8080  GATES/ALLEN/DAVIDOFF    MACRO 47(113) 03:12 10-SEP-75 PAGE 3-1
F3      MAC      6-SEP-64 03:11         RST ROUTINES

   783                                  13940   ;       Z=       ":" OR END-OF-LINE (A 0)
   784                                  13960   ;
   785                                  13980   ; ALL REGISTERS SAVED EXCEPT [A]=NEW CHAR
   786                                  14000   ; [H,L]=[H,L]+1
   787                                  14020   ;
   788  000020'                         14040   RELOC 16
   789                                  14060   IFE     LENGTH,<CHRGTR:>
   790  000020' 001000  000043          14080           INX     H               ;UPDATE THE TEXT POINTER
   791  000021' 001000  000176          14100           MOV     A,M             ;GET NEW CHARACTER
   792  000022' 001000  000376          14120           CPI     ":"             ;MAKE ":" HAVE ZERO ON AND
   793  000023' 000000  000072
   794                                  14140                                   ;CARRY OFF
   795                                  14160                                   ;ALL ALPHABETICS & RESERVED
   796                                  14180                                   ;WORDS GET ZERO & CARRY OFF
   797  000024' 001000  000320          14200   RNC                             ;.GT.":" GO BACK
   798  000025' 001000  000303          14220   JMP     CHRCON                  ;NO ROOM FOR WHOLE ROUTINE
   799  000026' 000000  003433'
   800  000027' 000000  000016'
   801                                  14240   ;
   802                                  14260   ; THIS RST ROUTINE OUTPUTS THE CHARACTER IN [A] USING PRTFLG (LPT OR TTY)
   803                                  14280   ; CNTWFL (SUPRESS OUTPUT OR NOT), TTYPOS (PRINT HEAD POSITION),
   804                                  14300   ; TIMING ETC.. NO REGISTERS OR CONDITION CODES ARE CHANGED.
   805                                  14320   ;
   806                                  14340   RELOC 24
   807  000030' 001000  000365          14360   OUTDO:  PUSH    PSW
   808                                  14380   IFN     CONTRW,<
   809  000031' 001000  000072          14400           LDA     CNTWFL          ;GET SUPPRESS FLAG
   810  000032' 000000  001541'
   811  000033' 000000  000026'
   812  000034' 001000  000267          14420           ORA     A>              ;SEE IF IT IS SET
   813                                  14440   IFE     LENGTH!CONTRW!LPTSW,<
   814                                  14460           LDA     TTYPOS>         ;USE RST BYTES, [A]=TTYPOS
   815  000035' 001000  000303          14480           JMP     OUTCON
   816  000036' 000000  003065'
   817  000037' 000000  000032'
   818                                  14500   ;
   819                                  14520   ; COMPAR COMPARES [H,L] WITH [D,E] UNSIGNED
   820                                  14540   ;
   821                                  14560   ;               [H,L] LESS THAN [D,E] SET CARRY
   822                                  14580   ;               [H,L] = [D,E] SET ZERO
   823                                  14600   ;
   824                                  14620   ; [A] IS THE ONLY REGISTER USED
   825                                  14640   ;
   826  000040'                         14660   RELOC 32
   827  000040' 001000  000174          14680           MOV     A,H
   828  000041' 001000  000222          14700           SUB     D
   829  000042' 001000  000300          14720           RNZ
   830  000043' 001000  000175          14740           MOV     A,L
   831  000044' 001000  000223          14760           SUB     E
   832  000045' 001000  000311          14780           RET
   833
   834  000046' 000000  000001          14800   NULCNT: 1                       ;STORE HERE THE NUMBER OF NULLS
   835                                  14820                                   ;TO PRINT AFTER CRLF


-- PAGE 19 --------------------------------------------------------------


BASIC MCS 8080  GATES/ALLEN/DAVIDOFF    MACRO 47(113) 03:12 10-SEP-75 PAGE 3-2
F3      MAC      6-SEP-64 03:11         RST ROUTINES

   836  000047'                         14860   TTYPOS: BLOCK   1               ;STORE TERMINAL POSITION HERE
   837                                  14880   ;
   838                                  14900   ;THE FSIGN  RST RETURNS A=-1 IF FAC IS LESS THAN 0
   839                                  14920   ;       A=0 IF FAC=0
   840                                  14940   ;       A=1 IF FAC GREATER THAN ZERO
   841                                  14960   ; THE CONDITION CODES REFLECT THE VALUE OF [A]
   842                                  14980   ; AND NO OTHER REGISTERS ARE MODIFIED.
   843                                  15000   ; THIS WORKS ONLY WHEN THE FAC IS A SINGLE OR DOUBLE PRECISION NUMBER
   844                                  15020   ; THE 'VSIGN' ROUTINE IS MORE GENERAL SINCE
   845                                  15040   ; IT WILL TAKE THE SIGN OF THE INTEGERS AS WELL
   846                                  15050   ; AND GIVES "TMERR" ON STRINGS.
   847                                  15060   ;
   848                                  15080   RELOC   40
   849  000050' 001000  000072          15100   SIGN:   LDA     FAC
   850  000051' 000000  001642
   851  000052' 000000  000036
   852  000053' 001000  000267          15120           ORA     A
   853  000054' 001000  000302          15140           JNZ     SIGNC
   854  000055' 000000  000000*
   855  000056' 000000  000051'
   856  000057' 001000  000311          15160           RET
   857                                  15180   ;
   858                                  15200   ; THIS IS THE PUSHM RST
   859                                  15220   ; EFFECT IS:
   860                                  15240   ;       MOVE    C,M
   861                                  15260   ;       INX     H
   862                                  15280   ;       MOV     B,M
   863                                  15300   ;       INX     H
   864                                  15320   ;       PUSH    B
   865                                  15340   ; DIFFICULTY COMES IN BECAUSE OF THE
   866                                  15360   ; RETURN ADDRESS.
   867                                  15380   ;
   868  000060'                         15400   RELOC   48
   869  000060' 001000  000343          15420           XTHL                    ;SWITCH [H,L] AND RETURN ADDRESS
   870  000061' 001000  000042          15440           SHLD    PUSHMA+1        ;FIXUP JUMP PLACE TO GO
   871  000062' 000000  000101'
   872  000063' 000000  000055'
   873  000064' 001000  000341          15460           POP     H               ;REGAIN [H,L]
   874                                  15480   IFN     LENGTH,<
   875  000065' 001000  000303          15500           JMP     $CODE+59        ;IN 8K ALLOW USER TO HAVE RST 7
   876  000066' 000000  000073
   877  000067' 000000  000062
   878                                  15520                                   ;FOR INTERRUPT TRAPPING
   879  000070'                         15540   RELOC   56
   880  000070' 001000  000311          15560           RET                     ;INITIALLY NO INTERRUPT
   881                                  15580                                   ;ROUTINE
   882  000071' 001000  000000          15600           NOP
   883  000072' 001000  000000          15620           NOP>
   884  000073' 001000  000116          15640           MOV     C,M             ;GRAB FROM MEMORY
   885  000074' 001000  000043          15660           INX     H
   886  000075' 001000  000106          15680           MOV     B,M
   887  000076' 001000  000043          15700           INX     H
   888  000077' 001000  000305          15720           PUSH    B               ;PUSH [B,C] ONTO THE STACK


-- PAGE 20 --------------------------------------------------------------


BASIC MCS 8080  GATES/ALLEN/DAVIDOFF    MACRO 47(113) 03:12 10-SEP-75 PAGE 3-3
F3      MAC      6-SEP-64 03:11         RST ROUTINES

   889                                  15740                                   ;SINCE IT CONTAINS [M]
   890  000100' 001000  000303          15760   PUSHMA: JMP     PUSHMA          ;RETURN  ADDRESS STORED HERE
   891  000101' 000000  000100'
   892  000102' 000000  000066'
   893
   894                                  15800   PAGE


-- PAGE 21 --------------------------------------------------------------


BASIC MCS 8080  GATES/ALLEN/DAVIDOFF    MACRO 47(113) 03:12 10-SEP-75 PAGE 4
F3      MAC      6-SEP-64 03:11         DISPATCH TABLES,RESERVED WORDS, ERROR TEXT... ALL CONSTANT

   895                                  15820   SUBTTL DISPATCH TABLES,RESERVED WORDS, ERROR TEXT... ALL CONSTANT
   896
   897  000103' 000000  000000*         15860   FUNDSP: ADR(SGN)
   898  000104' 000000  000101'
   899                                  15880   IFN     LENGTH-2,<
   900                                  15900           ADR(INT)>
   901                                  15920   IFE     LENGTH-2,<
   902  000105' 000000  000000*         15940           ADR(VINT)>
   903  000106' 000000  000103'
   904  000107' 000000  000000*         15960           ADR(ABS)
   905  000110' 000000  000105'
   906  000111' 000000  000776'         15980   USRLOC: ADR(ILLFUN)             ;INITIALLY NO USER ROUTINE
   907  000112' 000000  000107'
   908  000113' 000000  007337'         16000   IFN     LENGTH,<ADR(FRE)
   909  000114' 000000  000111'
   910  000115' 000000  010712'         16020           ADR(FNINP)
   911  000116' 000000  000113'
   912                                  16040   IFN     LPTSW,<ADR(LPOS)>
   913  000117' 000000  007406'         16060           ADR(POS)>
   914  000120' 000000  000115'
   915  000121' 000000  000000*         16080   SQRFIX: ADR(SQR)
   916  000122' 000000  000117'
   917  000123' 000000  000000*         16100   RNDFIX: ADR(RND)
   918  000124' 000000  000121'
   919                                  16120   IFN     EXTFNC,<
   920  000125' 000000  000000*         16140           ADR(LOG)
   921  000126' 000000  000123'
   922  000127' 000000  000000*         16160           ADR(EXP)
   923  000130' 000000  000125'
   924  000131' 000000  000000*         16180   COSFIX: ADR(COS)>
   925  000132' 000000  000127'
   926  000133' 000000  000000*         16200   SINFIX: ADR(SIN)
   927  000134' 000000  000131'
   928                                  16220   IFN     EXTFNC,<
   929  000135' 000000  000000*         16240   TANFIX: ADR(TAN)
   930  000136' 000000  000133'
   931  000137' 000000  000000*         16260   ATNFIX: ADR(ATN)>
   932  000140' 000000  000135'
   933                                  16280   IFN     LENGTH,<
   934  000141' 000000  011314'         16300           ADR(PEEK)>
   935  000142' 000000  000137'
   936                                  16320   IFN     DSKFUN,<ADR(DSKI$)>
   937                                  16340   IFN     STRING,<
   938  000143' 000000  010501'         16360           ADR(LEN)
   939  000144' 000000  000141'
   940  000145' 000000  007564'         16380           ADR(STR$)
   941  000146' 000000  000143'
   942  000147' 000000  011042'         16400           ADR(VAL)
   943  000150' 000000  000145'
   944  000151' 000000  000515'         16420           ADR(ASC)
   945  000152' 000000  000147'
   946  000153' 000000  000532'         16440           ADR(CHR$)
   947  000154' 000000  000151'


-- PAGE 22 --------------------------------------------------------------


BASIC MCS 8080  GATES/ALLEN/DAVIDOFF    MACRO 47(113) 03:12 10-SEP-75 PAGE 4-1
F3      MAC      6-SEP-64 03:11         DISPATCH TABLES,RESERVED WORDS, ERROR TEXT... ALL CONSTANT

   948  000155' 000000  010552'         16460           ADR(LEFT$)
   949  000156' 000000  000153'
   950  000157' 000000  010631'         16480           ADR(RIGHT$)
   951  000160' 000000  000155'
   952  000161' 000000  010643'         16500           ADR(MID$)>
   953  000162' 000000  000157'
   954
   955                                  16540   DEFINE ADRP(X),<ADR(X)>
   956                                  16560   IFE     LENGTH-2,<
   957                                  16580   DEFINE ADRP(X),<>>
   958  000163' 000000  000171          16600   OPTAB: 121                      ;OPERATOR TABLE CONTAINS
   959                                  16620                                   ;PRECEDENCE FOLLOWED BY
   960                                  16640                                   ;THE ROUTINE ADDRESS
   961                                  16660           ADRP(FADDT)
   962  000164' 000000  000171          16680           121
   963                                  16700           ADRP(FSUBT)
   964  000165' 000000  000173          16720           123
   965                                  16740           ADRP(FMULTT)
   966  000166' 000000  000173          16760           123
   967                                  16780           ADRP(FDIVT)
   968  000167' 000000  000177          16800   IFN     EXTFNC,<127
   969                                  16820           ADRP(FPWRT)>
   970                                  16840   IFN     LENGTH,<
   971  000170' 000000  000120          16860           80
   972                                  16880           ADRP(AND)
   973  000171' 000000  000106          16900           70
   974                                  16920           ADRP(OR)>
   975
   976                                  16960   ;
   977                                  16980   ; TOKEN FOR RESERVED WORDS ALWAYS HAVE THE MOST
   978                                  17000   ; SIGNIFICANT BIT ON
   979                                  17020   ; THE LIST OF RESERVED WORDS
   980                                  17040   ;
   981                  000177          17060   Q=128-1
   982                                  17080   DEFINE  DCI(A),<Q=Q+1
   983                                  17090           XLIST
   984                                  17100           DC(A)
   985                                  17110           LIST>
   986                  000200          17140           ENDTK==Q
   987                  000201          17180           FORTK==Q
   988                  000203          17240           DATATK==Q
   989                  000210          17360           GOTOTK==Q
   990                  000212          17420           IFTK==Q
   991                  000214          17480           GOSUTK==Q
   992                  000216          17540           REMTK==Q
   993                                  17660   IFE     LENGTH-1,<
   994                  000220          17700           ELSETK==Q
   995                                  17780   IFN     DSKFUN,<DCI"DSKO$">
   996                                  17800   IFN     LPTSW,<DCI"LPRINT">
   997                                  17820   IFN     LENGTH,<
   998                  000231          17880           PRINTK==Q
   999                                  17940   IFE     REALIO,<
  1000                                  17960           DCI"DDT">


-- PAGE 23 --------------------------------------------------------------


BASIC MCS 8080  GATES/ALLEN/DAVIDOFF    MACRO 47(113) 03:12 10-SEP-75 PAGE 4-2
F3      MAC      6-SEP-64 03:11         DISPATCH TABLES,RESERVED WORDS, ERROR TEXT... ALL CONSTANT

  1001                                  18000   IFN     LPTSW,<DCI"LLIST>
  1002                                  18060   IFN     CASSW,<DCI"CLOAD"
  1003                                  18080           DCI"CSAVE">
  1004                                  18100   IFN     CONSSW,<DCI"CONSOLE">
  1005                  000237          18140           SCRATK=Q
  1006                                  18160   ; END OF COMMAND LIST
  1007  000371' 000000  000124          18180           "T"
  1008  000372' 000000  000101          18200           "A"
  1009  000373' 000000  000102          18220           "B"
  1010  000374' 000000  000250          18240           "("+128
  1011                  000240          18260           Q=Q+1
  1012                  000240          18280           TABTK=Q
  1013                  000241          18320           TOTK==Q
  1014                                  18340   IFN     LENGTH,<
  1015  000377' 000000  000123          18360           "S"
  1016  000400' 000000  000120          18380           "P"
  1017  000401' 000000  000103          18400           "C"
  1018  000402' 000000  000250          18420           "("+128                 ;MACRO DOESNT LIKE ('S IN ARGUMENTS
  1019                  000242          18440           Q=Q+1
  1020                  000242          18460           SPCTK==Q>
  1021                  000243          18500           FNTK==Q>
  1022                  000244          18540           USINTK==Q>
  1023                  000245          18580           THENTK=Q
  1024                                  18600   IFN     LENGTH,<
  1025                  000246          18640           NOTTK==Q>
  1026                  000247          18680           STEPTK=Q
  1027                  000250          18720           PLUSTK=Q
  1028                  000251          18760           MINUTK=Q
  1029                  000007          18880           LSTOPK==Q+1-PLUSTK      ; CRUNCH # OF HIGHEST OP+1-PLUSTK
  1030  000437' 000000  000276          18900           190                     ;A GREATER THAN SIGN
  1031                  000257          18920           Q=Q+1
  1032                  000257          18940           GREATK=Q
  1033                  000260          18980           EQULTK=Q
  1034  000441' 000000  000274          19000           188
  1035                  000261          19020           Q=Q+1
  1036                  000261          19040           LESSTK=Q                ;A LESS THAN SIGN
  1037                                  19060   ;
  1038                                  19080   ; NOTE DANGER OF ONE RESERVED WORD BEING A PART
  1039                                  19100   ; OF ANOTHER
  1040                                  19120   ; IE . . IF 2 GREATER THAN F OR T=5 THEN...
  1041                                  19140   ; WILL NOT WORK!!! SINCE "FOR" WILL BE CRUNCHED!!
  1042                                  19160   ; IN ANY CASE MAKE SURE THE SMALLER WORD APPEARS
  1043                                  19180   ; SECOND IN THE RESERVED WORD TABLE ("INP" AND "INPUT")
  1044                                  19190   ; ANOTHER EXAMPLE: IF T OR Q THEN ... "TO" IS CRUNCHED
  1045                                  19200   ;
  1046                  000262          19240           ONEFUN=Q
  1047                                  19360   IFN     LPTSW,<DCI"LPOS">
  1048                  000271          19420           SQRTK==Q
  1049                                  19460   IFN     EXTFNC,<
  1050                  000300          19600           ATNTK==Q>
  1051                                  19620   IFN     LENGTH,<
  1052                                  19660   IFN     DSKFUN,<DCI"DSKI$">
  1053                                  19680   IFN     STRING,<


-- PAGE 24 --------------------------------------------------------------


BASIC MCS 8080  GATES/ALLEN/DAVIDOFF    MACRO 47(113) 03:12 10-SEP-75 PAGE 4-3
F3      MAC      6-SEP-64 03:11         DISPATCH TABLES,RESERVED WORDS, ERROR TEXT... ALL CONSTANT

  1054                  000306          19800   LASNUM==Q                       ;NUMBER OF LAST FUNCTION
  1055                                  19820                                   ;THAT TAKES ONE ARG
  1056  000563' 000000  000000          19900           0                       ;MARKS END OF RESERVED WORD LIST
  1057
  1058  000564' 000000  003474'         19940   STMDSP: ADR(END)
  1059  000565' 000000  000161'
  1060  000566' 000000  003154'         19960           ADR(FOR)
  1061  000567' 000000  000564'
  1062  000570' 000000  005225'         19980           ADR(NEXT)
  1063  000571' 000000  000566'
  1064  000572' 000000  004072'         20000           ADR(DATA)
  1065  000573' 000000  000570
  1066  000574' 000000  004711'         20020           ADR(INPUT)
  1067  000575' 000000  000572'
  1068  000576' 000000  006500'         20040           ADR(DIM)
  1069  000577' 000000  000574'
  1070  000600' 000000  004760'         20060           ADR(READ)
  1071  000601' 000000  000576'
  1072  000602' 000000  004131'         20080           ADR(LET)
  1073  000603' 000000  000600'
  1074  000604' 000000  004010'         20100           ADR(GOTO)
  1075  000605' 000000  000602'
  1076  000606' 000000  003754'         20120           ADR(RUN)
  1077  000607' 000000  000604'
  1078  000610' 000000  004325'         20140           ADR(IF)
  1079  000611' 000000  000606'
  1080  000612' 000000  003446'         20160           ADR(RESTORE)
  1081  000613' 000000  000610'
  1082  000614' 000000  003770'         20180           ADR(GOSUB)
  1083  000615' 000000  000612'
  1084  000616' 000000  004044'         20200           ADR(RETURN)
  1085  000617' 000000  000614'
  1086  000620' 000000  004074'         20220           ADR(REM)
  1087  000621' 000000  000616'
  1088  000622' 000000  003472'         20240           ADR(STOP)
  1089  000623' 000000  000620'
  1090                                  20260   IFE     LENGTH-2,<
  1091  000624' 000000  004074'         20280           ADR(ELSE)
  1092  000625' 000000  000622'
  1093  000626' 000000  003604'         20300           ADR(TON)
  1094  000627' 000000  000624'
  1095  000630' 000000  003605'         20320           ADR(TOFF)
  1096  000631' 000000  000626'
  1097  000632' 000000  000000'         20340           ADR(EDIT)>
  1098  000633' 000000  000630'
  1099  000634' 000000  010725'         20360   IFN     LENGTH,<ADR(FNOUT)
  1100  000635' 000000  000632'
  1101  000636' 000000  004271'         20380           ADR(ONGOTO)
  1102  000637' 000000  000634'
  1103  000640' 000000  003566'         20400           ADR(NULL)
  1104  000641' 000000  000636'
  1105  000642' 000000  010733'         20420           ADR(FNWAIT)>
  1106  000643' 000000  000640'


-- PAGE 25 --------------------------------------------------------------


BASIC MCS 8080  GATES/ALLEN/DAVIDOFF    MACRO 47(113) 03:12 10-SEP-75 PAGE 4-4
F3      MAC      6-SEP-64 03:11         DISPATCH TABLES,RESERVED WORDS, ERROR TEXT... ALL CONSTANT

  1107                                  20440   IFN     DSKFUN,<ADR(DSKO$)>
  1108                                  20460   IFN     LPTSW,<ADR(LPRINT)>
  1109                                  20480   IFN     LENGTH,<
  1110  000644' 000000  011323'         20500           ADR(POKE)
  1111  000645' 000000  000642'
  1112  000646' 000000  004411'         20520           ADR(PRINT)
  1113  000647' 000000  000644'
  1114  000650' 000000  007411'         20540   IFN     FUNCTS,<ADR(DEF)>
  1115  000651' 000000  000646'
  1116
  1117  000652' 000000  003542'         20580   IFN     LENGTH,<ADR(CONT)>
  1118  000653' 000000  000650'
  1119                                  20600   IFE     REALIO, <ADR(OUT)>
  1120  000654' 000000  011072'         20620           ADR(LIST)
  1121  000655' 000000  000652'
  1122                                  20640   IFN     LPTSW,<ADR(LLIST)>
  1123  000656' 000000  011245'         20660   IFE     LENGTH-2,<ADR(DELETE)>
  1124  000657' 000000  000654'
  1125  000660' 000000  003703'         20680           ADR(CLEAR)
  1126  000661' 000000  000656'
  1127                                  20700   IFN     CASSW,<ADR(CLOAD)
  1128                                  20720           ADR(CSAVE)>
  1129                                  20740   IFN     CONSSW,<ADR(CONSOLE)>
  1130  000662' 000000  002421'         20760           ADR(SCRATH)
  1131  000663' 000000  000660'
  1132
  1133                                  20800   IFE     LENGTH-2,<
  1134  000664' 000000  000000*         20820   FRCTBL: ADR(FRCDBL)
  1135  000665' 000000  000662'
  1136  000666' 000000  000004*         20840           ADR(FRCINT)
  1137  000667' 000000  000664'
  1138  000670' 000000  000000*         20860           ADR(FRCSNG)
  1139  000671' 000000  000666'
  1140                                  20880   ;
  1141                                  20900   ; THESE TABLES ARE USED AFTER THE DECISION HAS BEEN MADE
  1142                                  20920   ; TO APPLY AN OPERATOR AND ALL THE NECESSARY CONVERSION HAS
  1143                                  20940   ; BEEN DONE TO MATCH THE TWO ARGUMENT TYPES (APPLOP)
  1144                                  20960   ;
  1145  000672' 000000  000000*         20980   DBLDSP: ADR(DADD)               ;DOUBLE PRECISION ROUTINES
  1146  000673' 000000  000670'
  1147  000674' 000000  000000*         21000           ADR(DSUB)
  1148  000675' 000000  000672'
  1149  000676' 000000  000000*         21020           ADR(DMULT)
  1150  000677' 000000  000674'
  1151  000700' 000000  000000*         21040           ADR(DDIV)
  1152  000701' 000000  000676'
  1153  000702' 000000  000000*         21060           ADR(DCOMP)
  1154  000703' 000000  000700'
  1155  000704' 000000  000000*         21080   SNGDSP: ADR(FADD)               ;SINGLE PRECISION ROUTINES
  1156  000705' 000000  000702'
  1157  000706' 000000  000000*         21100           ADR(FSUB)
  1158  000707' 000000  000704'
  1159  000710' 000000  000000*         21120           ADR(FMULT)


-- PAGE 26 --------------------------------------------------------------


BASIC MCS 8080  GATES/ALLEN/DAVIDOFF    MACRO 47(113) 03:12 10-SEP-75 PAGE 4-5
F3      MAC      6-SEP-64 03:11         DISPATCH TABLES,RESERVED WORDS, ERROR TEXT... ALL CONSTANT

  1160  000711' 000000  000706'
  1161  000712' 000000  000000*         21140           ADR(FDIV)
  1162  000713' 000000  000710'
  1163  000714' 000000  000000*         21160           ADR(FCOMP)
  1164  000715' 000000  000712'
  1165  000716' 000000  000000*         21180   INTDSP: ADR(IADD)               ;INTEGER ROUTINES
  1166  000717' 000000  000714'
  1167  000720' 000000  000000*         21200           ADR(ISUB)
  1168  000721' 000000  000716'
  1169  000722' 000000  000000*         21220           ADR(IMULT)
  1170  000723' 000000  000720'
  1171  000724' 000000  000000*         21240           ADR(IDIV)
  1172  000725' 000000  000722'
  1173  000726' 000000  000000*         21260           ADR(ICOMP)
  1174  000727' 000000  000724'
  1175
  1176
  1177          777777  777776          21320   Q=-2
  1178                                  21340   DEFINE  DCL(X),<>
  1179                                  21360   DEFINE  DCE(X),<Q=Q+2
  1180                                  21370           XLIST
  1181                                  21380           DC(X)
  1182                                  21390           LIST>
  1183
  1184  000730'                         21420   ERRTAB:
  1185                                  21440   IFE     LENGTH-2,<
  1186  000730' 000000  000000          21460           0
  1187                  000000          21480           Q=0
  1188                                  21500           DEFINE  DCE(X),<>
  1189                                  21520           DEFINE  DCL(X),<
  1190                                  21540           Q=Q+1
  1191                                  21560           DC(X)
  1192                                  21580           0>>
  1193                                  21600           DCE"NF"
  1194  000731' 000000  000116          21620           DCL"NEXT WITHOUT FOR"
  1195  000732' 000000  000105
  1196  000733' 000000  000130
  1197  000734' 000000  000124
  1198  000735' 000000  000040
  1199  000736' 000000  000127
  1200  000737' 000000  000111
  1201  000740' 000000  000124
  1202  000741' 000000  000110
  1203  000742' 000000  000117
  1204  000743' 000000  000125
  1205  000744' 000000  000124
  1206  000745' 000000  000040
  1207  000746' 000000  000106
  1208  000747' 000000  000117
  1209  000750' 000000  000122
  1210  000750' 000000  000322
  1211  000751' 000000  000000
  1212                  000001          21640           ERRNF==Q


-- PAGE 27 --------------------------------------------------------------


BASIC MCS 8080  GATES/ALLEN/DAVIDOFF    MACRO 47(113) 03:12 10-SEP-75 PAGE 4-6
F3      MAC      6-SEP-64 03:11         DISPATCH TABLES,RESERVED WORDS, ERROR TEXT... ALL CONSTANT

  1213                                  21660           DCE"SN"
  1214  000752' 000000  000123          21680           DCL"SYNTAX ERROR"
  1215  000753' 000000  000131
  1216  000754' 000000  000116
  1217  000755' 000000  000124
  1218  000756' 000000  000101
  1219  000757' 000000  000130
  1220  000760' 000000  000040
  1221  000761' 000000  000105
  1222  000762' 000000  000122
  1223  000763' 000000  000122
  1224  000764' 000000  000117
  1225  000765' 000000  000122
  1226  000765' 000000  000322
  1227  000766' 000000  000000
  1228                  000002          21700           ERRSN==Q
  1229                                  21720           DCE"RG"
  1230  000767' 000000  000122          21740           DCL"RETURN WITHOUT GOSUB"
  1231  000770' 000000  000105
  1232  000771' 000000  000124
  1233  000772' 000000  000125
  1234  000773' 000000  000122
  1235  000774' 000000  000116
  1236  000775' 000000  000040
  1237  000776' 000000  000127
  1238  000777' 000000  000111
  1239  001000' 000000  000124
  1240  001001' 000000  000110
  1241  001002' 000000  000117
  1242  001003' 000000  000125
  1243  001004' 000000  000124
  1244  001005' 000000  000040
  1245  001006' 000000  000107
  1246  001007' 000000  000117
  1247  001010' 000000  000123
  1248  001011' 000000  000125
  1249  001012' 000000  000102
  1250  001012' 000000  000302
  1251  001013' 000000  000000
  1252                  000003          21760           ERRRG==Q
  1253                                  21780           DCE"OD"
  1254  001014' 000000  000117          21800           DCL"OUT OF DATA"
  1255  001015' 000000  000125
  1256  001016' 000000  000124
  1257  001017' 000000  000040
  1258  001020' 000000  000117
  1259  001021' 000000  000106
  1260  001022' 000000  000040
  1261  001023' 000000  000104
  1262  001024' 000000  000101
  1263  001025' 000000  000124
  1264  001026' 000000  000101
  1265  001026' 000000  000301


-- PAGE 28 --------------------------------------------------------------


BASIC MCS 8080  GATES/ALLEN/DAVIDOFF    MACRO 47(113) 03:12 10-SEP-75 PAGE 4-7
F3      MAC      6-SEP-64 03:11         DISPATCH TABLES,RESERVED WORDS, ERROR TEXT... ALL CONSTANT

  1266  001027' 000000  000000
  1267                  000004          21820           ERROD==Q
  1268                                  21840           DCE"FC"
  1269  001030' 000000  000111          21860           DCL"ILLEGAL FUNCTION CALL"
  1270  001031' 000000  000114
  1271  001032' 000000  000114
  1272  001033' 000000  000105
  1273  001034' 000000  000107
  1274  001035' 000000  000101
  1275  001036' 000000  000114
  1276  001037' 000000  000040
  1277  001040' 000000  000106
  1278  001041' 000000  000125
  1279  001042' 000000  000116
  1280  001043' 000000  000103
  1281  001044' 000000  000124
  1282  001045' 000000  000111
  1283  001046' 000000  000117
  1284  001047' 000000  000116
  1285  001050' 000000  000040
  1286  001051' 000000  000103
  1287  001052' 000000  000101
  1288  001053' 000000  000114
  1289  001054' 000000  000114
  1290  001054' 000000  000314
  1291  001055' 000000  000000
  1292                  000005          21880           ERRFC==Q
  1293                                  21900           DCE"OV"
  1294  001056' 000000  000117          21920           DCL"OVERFLOW"
  1295  001057' 000000  000126
  1296  001060' 000000  000105
  1297  001061' 000000  000122
  1298  001062' 000000  000106
  1299  001063' 000000  000114
  1300  001064' 000000  000117
  1301  001065' 000000  000127
  1302  001065' 000000  000327
  1303  001066' 000000  000000
  1304                  000006          21940           ERROV==Q
  1305                                  21960           DCE"OM"
  1306  001067' 000000  000117          21980           DCL"OUT OF MEMORY"
  1307  001070' 000000  000125
  1308  001071' 000000  000124
  1309  001072' 000000  000040
  1310  001073' 000000  000117
  1311  001074' 000000  000106
  1312  001075' 000000  000040
  1313  001076' 000000  000115
  1314  001077' 000000  000105
  1315  001100' 000000  000115
  1316  001101' 000000  000117
  1317  001102' 000000  000122
  1318  001103' 000000  000131


-- PAGE 29 --------------------------------------------------------------


BASIC MCS 8080  GATES/ALLEN/DAVIDOFF    MACRO 47(113) 03:12 10-SEP-75 PAGE 4-8
F3      MAC      6-SEP-64 03:11         DISPATCH TABLES,RESERVED WORDS, ERROR TEXT... ALL CONSTANT

  1319  001103' 000000  000331
  1320  001104' 000000  000000
  1321                  000007          22000           ERROM==Q
  1322                                  22020           DCE"US"
  1323  001105' 000000  000125          22040           DCL"UNDEFINED STATEMENT"
  1324  001106' 000000  000116
  1325  001107' 000000  000104
  1326  001110' 000000  000105
  1327  001111' 000000  000106
  1328  001112' 000000  000111
  1329  001113' 000000  000116
  1330  001114' 000000  000105
  1331  001115' 000000  000104
  1332  001116' 000000  000040
  1333  001117' 000000  000123
  1334  001120' 000000  000123
  1335  001121' 000000  000101
  1336  001122' 000000  000124
  1337  001123' 000000  000105
  1338  001124' 000000  000115
  1339  001125' 000000  000105
  1340  001126' 000000  000116
  1341  001127' 000000  000124
  1342  001127' 000000  000324
  1343  001130' 000000  000000
  1344                  000010          22060           ERRUS==Q
  1345                                  22080           DCE"BS"
  1346  001131' 000000  000123          22100           DCL"SUBSCRIPT OUT OF RANGE"
  1347  001132' 000000  000125
  1348  001133' 000000  000102
  1349  001134' 000000  000123
  1350  001135' 000000  000103
  1351  001136' 000000  000122
  1352  001137' 000000  000111
  1353  001140' 000000  000120
  1354  001141' 000000  000124
  1355  001142' 000000  000040
  1356  001143' 000000  000117
  1357  001144' 000000  000125
  1358  001145' 000000  000124
  1359  001146' 000000  000040
  1360  001147' 000000  000117
  1361  001150' 000000  000106
  1362  001151' 000000  000040
  1363  001152' 000000  000122
  1364  001153' 000000  000101
  1365  001154' 000000  000116
  1366  001155' 000000  000107
  1367  001156' 000000  000105
  1368  001156' 000000  000305
  1369  001157' 000000  000000
  1370                  000011          23120           ERRBS==Q
  1371                                  23140           DCE"DD"


-- PAGE 30 --------------------------------------------------------------


BASIC MCS 8080  GATES/ALLEN/DAVIDOFF    MACRO 47(113) 03:12 10-SEP-75 PAGE 4-9
F3      MAC      6-SEP-64 03:11         DISPATCH TABLES,RESERVED WORDS, ERROR TEXT... ALL CONSTANT

  1372  001160' 000000  000122          22160           DCL"REDIMENSIONED ARRAY"
  1373  001161' 000000  000105
  1374  001162' 000000  000104
  1375  001163' 000000  000111
  1376  001164' 000000  000115
  1377  001165' 000000  000105
  1378  001166' 000000  000116
  1379  001167' 000000  000123
  1380  001170' 000000  000111
  1381  001171' 000000  000117
  1382  001172' 000000  000116
  1383  001173' 000000  000105
  1384  001174' 000000  000104
  1385  001175' 000000  000040
  1386  001176' 000000  000101
  1387  001177' 000000  000122
  1388  001200' 000000  000122
  1389  001201' 000000  000101
  1390  001202' 000000  000131
  1391  001202' 000000  000331
  1392  001203' 000000  000000
  1393                  000012          22180           ERRDD==Q
  1394                                  22200           DCE"/0"
  1395  001204' 000000  000104          22220           DCL"DIVISION BY ZER0"
  1396  001205' 000000  000111
  1397  001206' 000000  000126
  1398  001207' 000000  000111
  1399  001210' 000000  000123
  1400  001211' 000000  000111
  1401  001212' 000000  000117
  1402  001213' 000000  000116
  1403  001214' 000000  000040
  1404  001215' 000000  000102
  1405  001216' 000000  000131
  1406  001217' 000000  000040
  1407  001220' 000000  000132
  1408  001221' 000000  000105
  1409  001222' 000000  000122
  1410  001223' 000000  000117
  1411  001223' 000000  000317
  1412  001224' 000000  000000
  1413                  000013          22240           ERRDV0==Q
  1414                                  22260           DCE"ID"
  1415  001225' 000000  000111          22280           DCL"ILLEGAL DIRECT"
  1416  001226' 000000  000114
  1417  001227' 000000  000114
  1418  001230' 000000  000105
  1419  001231' 000000  000107
  1420  001232' 000000  000101
  1421  001233' 000000  000114
  1422  001234' 000000  000040
  1423  001235' 000000  000104
  1424  001246' 000000  000111


-- PAGE 31 --------------------------------------------------------------


BASIC MCS 8080  GATES/ALLEN/DAVIDOFF    MACRO 47(113) 03:12 10-SEP-75 PAGE 4-10
F3      MAC      6-SEP-64 03:11         DISPATCH TABLES,RESERVED WORDS, ERROR TEXT... ALL CONSTANT

  1425  001237' 000000  000122
  1426  001240' 000000  000105
  1427  001241' 000000  000103
  1428  001242' 000000  000124
  1429  001242' 000000  000324
  1430  001243' 000000  000000
  1431                  000014          22300           ERRID==Q
  1432                                  22320   IFN     STRING,<
  1433                                  22340           DCE"TM"
  1434  001244' 000000  000124          22360           DCL"TYPE MISMATCH"
  1435  001245' 000000  000131
  1436  001246' 000000  000120
  1437  001247' 000000  000105
  1438  001250' 000000  000040
  1439  001251' 000000  000115
  1440  001252' 000000  000111
  1441  001253' 000000  000123
  1442  001254' 000000  000115
  1443  001255' 000000  000101
  1444  001256' 000000  000124
  1445  001257' 000000  000103
  1446  001260' 000000  000110
  1447  001260' 000000  000310
  1448  001261' 000000  000000
  1449                  000015          22380           ERRTM==Q
  1450                                  22400           DCE"OS"
  1451  001262' 000000  000117          22420           DCL"OUT OF STRING SPACE"
  1452  001263' 000000  000125
  1453  001264' 000000  000124
  1454  001265' 000000  000040
  1455  001266' 000000  000117
  1456  001267' 000000  000106
  1457  001270' 000000  000040
  1458  001271' 000000  000123
  1459  001272' 000000  000124
  1460  001273' 000000  000122
  1461  001274' 000000  000111
  1462  001275' 000000  000116
  1463  001376' 000000  000107
  1464  001377' 000000  000040
  1465  001300' 000000  000123
  1466  001301' 000000  000120
  1467  001302' 000000  000101
  1468  001303' 000000  000103
  1469  001304' 000000  000105
  1470  001304' 000000  000305
  1471  001305' 000000  000000
  1472                  000016          23440           ERRSO==Q
  1473                                  23460           DCE"LS"
  1474  001306' 000000  000123          23480           DCL"STRING TOO LONG"
  1475  001307' 000000  000124
  1476  001310' 000000  000122
  1477  001311' 000000  000111


-- PAGE 32 --------------------------------------------------------------


BASIC MCS 8080  GATES/ALLEN/DAVIDOFF    MACRO 47(113) 03:12 10-SEP-75 PAGE 4-11
F3      MAC      6-SEP-64 03:11         DISPATCH TABLES,RESERVED WORDS, ERROR TEXT... ALL CONSTANT

  1478  001312' 000000  000116
  1479  001313' 000000  000107
  1480  001314' 000000  000040
  1481  001315' 000000  000124
  1482  001316' 000000  000117
  1483  001317' 000000  000117
  1484  001320' 000000  000040
  1485  001321' 000000  000114
  1486  001322' 000000  000117
  1487  001323' 000000  000116
  1488  001324' 000000  000107
  1489  001324' 000000  000307
  1490  001325' 000000  000000
  1491                  000017          22500           ERRLS==Q
  1492                                  22520           DCE"ST"
  1493  001326' 000000  000123          22540           DCL"STRING FORMULA TOO COMPLEX"
  1494  001327' 000000  000124
  1495  001330' 000000  000122
  1496  001331' 000000  000111
  1497  001332' 000000  000116
  1498  001333' 000000  000107
  1499  001334' 000000  000040
  1500  001335' 000000  000106
  1501  001336' 000000  000117
  1502  001337' 000000  000122
  1503  001340' 000000  000115
  1504  001341' 000000  000125
  1505  001342' 000000  000114
  1506  001343' 000000  000101
  1507  001344' 000000  000040
  1508  001345' 000000  000124
  1509  001346' 000000  000117
  1510  001347' 000000  000117
  1511  001350' 000000  000040
  1512  001351' 000000  000103
  1513  001352' 000000  000117
  1514  001353' 000000  000115
  1515  001354' 000000  000120
  1516  001355' 000000  000114
  1517  001356' 000000  000105
  1518  001357' 000000  000130
  1519  001357' 000000  000330
  1520  001360' 000000  000000
  1521                  000020          22560           ERRST==Q>
  1522                                  22580   IFN     LENGTH,<
  1523                                  22600           DCE"CN"
  1524  001361' 000000  000103          22620           DCL"CAN'T CONTINUE"
  1525  001362' 000000  000101
  1526  001363' 000000  000116
  1527  001364' 000000  000047
  1528  001365' 000000  000124
  1529  001366' 000000  000040
  1530  001367' 000000  000103


-- PAGE 33 --------------------------------------------------------------


BASIC MCS 8080  GATES/ALLEN/DAVIDOFF    MACRO 47(113) 03:12 10-SEP-75 PAGE 4-12
F3      MAC      6-SEP-64 03:11         DISPATCH TABLES,RESERVED WORDS, ERROR TEXT... ALL CONSTANT

  1531  001370' 000000  000117
  1532  001371' 000000  000116
  1533  001372' 000000  000124
  1534  001373' 000000  000111
  1535  001374' 000000  000116
  1536  001375' 000000  000125
  1537  001376' 000000  000105
  1538  001376' 000000  000305
  1539  001377' 000000  000000
  1540                  000021          22640           ERRCN==Q>
  1541                                  22660   IFN     FUNCTS,<
  1542                                  22680           DCE"UF"
  1543  001400' 000000  000125          22700           DCL"UNDEFINED USER FUNCTIONS"
  1544  001401' 000000  000116
  1545  001402' 000000  000104
  1546  001403' 000000  000105
  1547  001404' 000000  000106
  1548  001405' 000000  000111
  1549  001406' 000000  000116
  1550  001407' 000000  000105
  1551  001410' 000000  000104
  1552  001411' 000000  000040
  1553  001412' 000000  000125
  1554  001413' 000000  000123
  1555  001414' 000000  000105
  1556  001415' 000000  000122
  1557  001416' 000000  000040
  1558  001417' 000000  000106
  1559  001420' 000000  000125
  1560  001421' 000000  000116
  1561  001422' 000000  000103
  1562  001423' 000000  000124
  1563  001424' 000000  000111
  1564  001425' 000000  000117
  1565  001426' 000000  000116
  1566  001426' 000000  000316
  1567  001427' 000000  000000
  1568                  000022          23720           ERRUF==Q>
  1569
  1570                                  23760   PAGE


-- PAGE 34 --------------------------------------------------------------


BASIC MCS 8080  GATES/ALLEN/DAVIDOFF    MACRO 47(113) 03:12 10-SEP-75 PAGE 5
F3      MAC      6-SEP-64 03:11         LOW SEGMENT -- RAM -- IE THIS STUFF IS NOT CONSTANT

  1571                                  22780   SUBTTL  LOW SEGMENT -- RAM -- IE THIS STUFF IS NOT CONSTANT
  1572                                  22800   ;
  1573                                  22820   ; THIS IS THE "VOLATILE" STORAGE AREA AND NONE OF IT
  1574                                  22840   ; CAN BE KEPT IN ROM, ANY CONSTANTS IN THIS AREA CANNOT
  1575                                  22860   ; BE KEPT IN A ROM, BUT MUST BE LOADED IN BY THE
  1576                                  22880   ; PROGRAM INSTRUCTION IN ROM.
  1577                                  22900   ;
  1578
  1579  001430' 000000  000054          22940   BUFMIN: 44                      ;A COMMA (PRELOAD OR ROM)
  1580                                  22960                                   ;USED BY INPUT STATEMENT SINCE THE
  1581                                  22980                                   ;DATA POINTER ALWAYS STARTS ON A
  1582                                  23000                                   ;COMMA OR TERMINATOR
  1583  001431'                         23020   BUF:    BLOCK   BUFLEN          ;TYPE IN STORED HERE
  1584                                  23040                                   ;DIRECT STATEMENTS EXECUTE OUT OF
  1585                                  23060                                   ;HERE, REMEMBER INPUT SMASHES BUF.
  1586                                  23080                                   ;MUST BE AT A LOWER ADDRESS
  1587                                  23100                                   ;THAN DSCTMP OR ASSIGNMENT OF STRING
  1588                                  23120                                   ;VALUES IN DIRECT STATEMENTS WON'T COPY
  1589                                  23140                                   ;INTO STRING SPACE -- WHICH IT MUST
  1590                                  23160   IFN     LPTSW,<
  1591                                  23180   LPTPOS: BLOCK   1               ;POSITION OF LPT PRINT HEAD
  1592                                  23200   PRTFLG: BLOCK   1>              ;WHETHER OUTPUT GOES TO LPT
  1593                                  23220                                   ;NON-ZERO MEANS SEND OUTPUT TO LPT
  1594                                  23240   IFN     CONTRW,<
  1595  001541'                         23260   CNTWFL: BLOCK   1>              ;SUPRESS OUTPUT FLAG
  1596  001542'                         23280   DIMFLG: BLOCK   1               ;IN GETTING A POINTER TO A VARIABLE
  1597                                  23300                                   ;IT IS IMPORTANT TO REMEMBER WHETHER IT
  1598                                  23320                                   ;IS BEING DONE FOR "DIM" OR NOT
  1599                                  23340                                   ;DIMFLG AND VALTYP MUST BE
  1600                                  23360                                   ;CONSECUTIVE LOCATIONS
  1601                                  23380   IFN     STRING,<
  1602  001543'                         23400   VALTYP: BLOCK   1               ;THE TYPE INDICATOR
  1603                                  23420                                   ;IN THE 8K 0=NUMERIC 1=STRING
  1604  001544'                         23435   OPRTYP:                         ;USED TO STORE OPERATOR NUMBER
  1605                                  23436                                   ;IN THE EXTENDED MOMENTARILY BEFORE
  1606                                  23437                                   ;OPERATOR APPLICATION
  1607  001544'                         23440   DORES:  BLOCK   1               ;WHETHER CAN OR CAN'T CRUNCH RES'D WORDS
  1608                                  23460                                   ;TURNED ON IN THE 8K WHEN "DATA"
  1609                                  23480                                   ;BEING SCANNED BY CRUNCH SO UNQUOTED
  1610                                  23500                                   ;STRINGS WON'T BE CRUNCHED.
  1611  001545'                         23520   MEMSIZ: BLOCK   2               ;HIGHEST LOCATION IN MEMORY
  1612  001547'                         23540   TEMPPT: BLOCK   2               ;POINTER AT FIRST FREE TEMP DESCRIPTOR
  1613                                  23560                                   ;INITIALIZED TO POINT TO TEMPST
  1614  001551'                         23580   TEMPST: BLOCK   STRSIZ*NUMTMP   ;STORAGE FOR NUMTMP DESCRIPTORS
  1615  001570'                         23600   DSCTMP: BLOCK   STRSIZ          ;STRING FUNCTIONS BUILD ANSWER DESCRIPTOR HERE
  1616  001573'                         23620   FRETOP: BLOCK   2>              ;TOP OF STRING FREE SPACE
  1617                                  23640   IFN     LENGTH!STRING,<
  1618  001575'                         23660   TEMP3:  BLOCK   2>              ;USED TO HOLD VARB # OF HIGH LOC FOUND
  1619                                  23680                                   ;IN GARBAGE COLLECTION
  1620                                  23700                                   ;AND USED MOMENTARILY BY FRMEVL
  1621                                  23720                                   ;USED IN EXTENDED BY FOUT
  1622                                  23740                                   ;ARRAY VARIABLE HANDLING TEMPORARY
  1623                                  23760   IFN     LENGTH,<


-- PAGE 35 --------------------------------------------------------------


BASIC MCS 8080  GATES/ALLEN/DAVIDOFF    MACRO 47(113) 03:12 10-SEP-75 PAGE 5-1
F3      MAC      6-SEP-64 03:11         LOW SEGMENT -- RAM -- IE THIS STUFF IS NOT CONSTANT

  1624  001577'                         23780   DATLIN: BLOCK   2               ;DATA LINE # -- REMEMBER FOR ERRORS
  1625  001601'                         23800   SUBFLG: BLOCK   1>              ;FLAG WHETHER SUBSCRIPTED VARIABLE ALLOWED
  1626                                  23820                                   ;"FOR" AND USER-DEFINED FUNCTION
  1627                                  23840                                   ;POINTER FETCHING TURN
  1628                                  23860                                   ;THIS ON BEFORE CALLING PTRGET
  1629                                  23880                                   ;SO ARRAYS WON'T BE DETECTED.
  1630                                  23900                                   ;STKINI AND PTRGET CLEAR IT.
  1631  001602'                         23920   FLGINP: BLOCK   1               ;FLAGS WHETHER WE ARE DOING INPUT
  1632                                  23940                                   ;OR A READ
  1633  001603'                         23960   TEMP:   BLOCK   2               ;TEMPORARY FOR STATEMENT CODE
  1634                                  23980                                   ;NEWSTT SAVES [H,L] HERE FOR INPUT AND ^C
  1635                                  24000                                   ;"LET" SAVED NUMBERIC VARIABLE
  1636                                  24020                                   ;POINTERS HERE FOR "FOR"
  1637                                  24040                                   ;"NEXT" SAVES ITS TEXT POINTER HERE
  1638                                  24060                                   ;CLEARC SAVE [H,L] HERE
  1639  001605'                         24080   TEMP2:  BLOCK   2               ;FORMULA EVALUATOR TEMP
  1640                                  24100                                   ;MUST BE PRESERVED BY OPERATORS
  1641                                  24120                                   ;USED IN EXTENDED BY FOUT
  1642                                  24140                                   ;ARRAY VARIABLE HANDLER TEMPORARY
  1643  001607'                         24160   CURLIN: BLOCK   2               ;CURRENT LINE #
  1644                                  24180                                   ;SET TO 65535 WHEN DIRECT STATEMENTS EXECUTE
  1645                                  24200   IFN     LENGTH,<
  1646  001611'                         24220   OLDLIN: BLOCK   2               ;OLD LINE NUMBER
  1647  001613'                         24240   OLDTXT: BLOCK   2>              ;OLD TEXT POINTER
  1648                                  24260                                   ;POINTS AT STATEMENT TO BE EXECUTED NEXT
  1649  001615'                         24280   STKTOP: BLOCK   2               ;TOP LOCATION TO USE FOR THE STACK
  1650                                  24300                                   ;INITIALLY SET UP BY INIT
  1651                                  24320                                   ;ACCORDING TO MEMORY SIZE
  1652                                  24340                                   ;TO ALLOW FOR 50 BYTES OF STRING SPACE.
  1653                                  24360                                   ;CHANGED BY A CLEAR COMMAND WITH
  1654                                  24380                                   ;AN ARGUMENT.
  1655  001617'                         24400   TXTTAB: BLOCK   2               ;POINTER TO BEGINNING OF TEXT
  1656                                  24420                                   ;DOESN'T CHANGE AFTER BEING
  1657                                  24440                                   ;SETUP BY INIT.
  1658  001621'                         24460   VARTAB: BLOCK   2               ;POINTER TO START OF SIMPLE
  1659                                  24480                                   ;VARIABLE SPACE
  1660                                  24500                                   ;UPDATED WHENEVER THE SIZE OF THE
  1661                                  24520                                   ;PROGRAM CHANGES, SET TO [TXTTAB]
  1662                                  24540                                   ;BY SCRATCH ("NEW").
  1663  001623'                         24560   ARYTAB: BLOCK   2               ;POINTER TO BEGINNING OF ARRAY
  1664                                  24580                                   ;TABLE
  1665                                  24600                                   ;INCREMENTED BY 6 WHENEVER
  1666                                  24620                                   ;A NEW SIMPLE VARIABLE IS FOUND, AND
  1667                                  24640                                   ;SET TO [VARTAB] BY CLEARC.
  1668  001625'                         24660   STREND: BLOCK   2               ;END OF STORAGE IN USE
  1669                                  24680                                   ;INCREASED WHENEVER A NEW ARRAY
  1670                                  24700                                   ;OR SIMPLE VARIABLE IS ENCOUNTERED
  1671                                  24720                                   ;SET TO [VARTAB] BY CLEARC.
  1672  001627'                         24740   DATPTR: BLOCK   2               ;POINTER TO DATA. INITIALIZED TO POINT
  1673                                  24760                                   ;AT THE ZERO IN FRONT OF [TXTTAB]
  1674                                  24780   IFE     LENGTH-2,<
  1675  001631'                         24800   TRCFLG: BLOCK   1>              ;0 MEANS NO TRACE IN PROGRESS
  1676


-- PAGE 36 --------------------------------------------------------------


BASIC MCS 8080  GATES/ALLEN/DAVIDOFF    MACRO 47(113) 03:12 10-SEP-75 PAGE 5-2
F3      MAC      6-SEP-64 03:11         LOW SEGMENT -- RAM -- IE THIS STUFF IS NOT CONSTANT

  1677                                  24840   ;THE FLOATING ACCUMULATOR
  1678                                  24860   IFE     LENGTH-2,<
  1679  001632'                         24880           BLOCK   1               ;[TEMPORARY LEAST SIGNIFICANT BYTE]
  1680  001633'                         24900   DFACLO: BLOCK   4>              ;[FOUR LOWEST ORDERS FOR DOUBLE PRECISION]
  1681  001637'                         24920   FACLO:  BLOCK   3               ;[LOW ORDER OF MANTISSA]
  1682                                  24940                                   ;[MIDDLE ORDER OF MANTISSA]
  1683                                  24960                                   ;[HIGH ORDER OF MANTISSA]
  1684  001642'                         24980   FAC:    BLOCK   2               ;[EXPONENT]
  1685                                  25000                                   ;[TEMPORARY COMPLEMENT OF SIGN IN MSB]
  1686                                  25020   IFE     LENGTH-2,<
  1687  001644'                         25030           BLOCK   1               ;[TEMPORARY LEAST SIGNIFICANT BYTE]
  1688  001645'                         25040   ARGLO:  BLOCK   7               ;[LOCATION OF SECOND ARGUMENT FOR DOUBLE
  1689  001654'                         25060   ARG:    BLOCK   1>              ; PRECISION]
  1690  001655'                         25080   FBUFFR: BLOCK   13              ;BUFFER FOR FOUT
  1691  001672'                         25100   IFE     LENGTH-2,<BLOCK 35-13>
  1692                                  25120   PAGE


-- PAGE 37 --------------------------------------------------------------


BASIC MCS 8080  GATES/ALLEN/DAVIDOFF    MACRO 47(113) 03:12 10-SEP-75 PAGE 6
F3      MAC      6-SEP-64 03:11         TEXT CONSTANTS FOR PRINT OUT

  1693                                  25140   SUBTTL  TEXT CONSTANTS FOR PRINT OUT
  1694                                  25160   ;
  1695                                  25180   ; NEEDED FOR MESSAGES IN ALL VERSIONS
  1696                                  25200   ; MUST BE STORED ABOVE DSCTMP OR ELSE STRLIT
  1697                                  25220   ; WILL COPY THEM BEFORE STRPRT PRINTS THEM. THIS IS BAD, SINCE IF THE
  1698                                  25240   ; USER IS OUT OF STRING SPACE BASIC WILL LOOP GETTING "OUT OF STRING SPACE"
  1699                                  25260   ; ERRORS.
  1700                                  25280   ;
  1701                                  25300   IFN     LENGTH-2,<
  1702                                  25320   ERR:    DC" ERROR"
  1703                                  25340           0>
  1704  001720' 000000  000040          25360   INTXT:  DC" IN "
  1705  001721' 000000  000111
  1706  001722' 000000  000116
  1707  001723' 000000  000040
  1708  001723' 000000  000240
  1709  001724' 000000  000000          25380           0
  1710  001725' 000000  000015          25400   REDDY:  ACRLF
  1711  001726' 000000  000012
  1712  001727' 000000  000117          25420           DC"OK"
  1713  001730' 000000  000113
  1714  001730' 000000  000313
  1715  001731' 000000  000015          25440           ACRLF
  1716  001732' 000000  000012
  1717  001733' 000000  000000          25460           0
  1718                                  25480   IFN     LENGTH,<
  1719  001734' 000000  000015          25500   BRKTXT: ACRLF
  1720  001735' 000000  000012
  1721  001736' 000000  000102          25520           DC"BREAK"
  1722  001737' 000000  000122
  1723  001740' 000000  000105
  1724  001741' 000000  000101
  1725  001742' 000000  000113
  1726  001742' 000000  000313
  1727  001743' 000000  000000          25540           0>
  1728
  1729                                  25580   PAGE


-- PAGE 38 --------------------------------------------------------------


BASIC MCS 8080  GATES/ALLEN/DAVIDOFF    MACRO 47(113) 03:12 10-SEP-75 PAGE 7
F3      MAC      6-SEP-64 03:11         GENERAL STORAGE MANAGEMENT ROUTINES

  1730                                  25600   SUBTTL  GENERAL STORAGE MANAGEMENT ROUTINES
  1731                                  25620   ;
  1732                                  25640   ; FIND A FOR ENTRY ON THE STACK WITH THE VARIABLE POINTER
  1733                                  25660   ; PASSED IN [D,E].
  1734                                  25680   ;
  1735  001744' 001000  000041          25700   FNDFOR: LXI     H,4+$CODE       ;IGNORING EVERYONES "NEWSTT"
  1736  001745' 000000  000004'
  1737  001746' 000000  000726'
  1738                                  25720                                   ;AND THE RETURN ADDRESS OF THIS
  1739  001747' 001000  000071          25740           DAD     SP              ;SUBROUTINE, SET [H,L]=SP
  1740  001750' 001000  000176          25760   LOOPER: MOV     A,M             ;SEE WHAT TYPE OF THING IS ON THE STACK
  1741  001751' 001000  000043          25780           INX     H
  1742  001752' 001000  000376          25800           CPI     FORTK           ;IS THIS STACK ENTRY A FOR?
  1743  001753' 000000  000201
  1744  001754' 001000  000300          25820   RNZ                             ;NO SO OK
  1745                                  25840   IFE     LENGTH,<
  1746                                  25860           PUSHM                   ;GET VARIABLE NAME
  1747                                  25880           XTHL>
  1748                                  25900   IFN     LENGTH,<
  1749  001755' 001000  000116          25920           MOV     C,M
  1750  001756' 001000  000043          25940           INX     H               ;DO EQUIVALENT OF PUSHM / XTHL
  1751  001757' 001000  000106          25960           MOV     B,M
  1752  001760' 001000  000043          25980           INX     H
  1753  001761' 001000  000345          26000           PUSH    H               ;PUT H  ON
  1754  001762' 001000  000151          26020           MOV     L,C             ;PUSH B / XTHL IS SLOWER
  1755  001763' 001000  000140          26040           MOV     H,B
  1756  001764' 001000  000172          26060           MOV     A,D             ;FOR THE "NEXT" STATEMENT WITHOUT AN ARGUMENT
  1757  001765' 001000  000263          26080           ORA     E               ;WE MATCH ON ANYTHING
  1758  001766' 001000  000353          26100           XCHG                    ;MAKE SURE WE RETURN (D,E)
  1759  001767' 001000  000312          26120           JZ      POPGOF          ;POINTING TO THE VARIABLE
  1760  001770' 000000  001774'
  1761  001771' 000000  001745'
  1762  001772' 001000  000353          26140           XCHG>
  1763  001773' 001000  000347          26160           COMPAR
  1764  001774' 001000  000001          26180   POPGOF: LXI     B,$CODE+13      ;TO WIPE OUT A FOR ENTRY
  1765  001775' 000000  000015'
  1766  001776' 000000  001770'
  1767  001777' 001000  000341          26200           POP     H
  1768  002000' 001000  000310          26220           RZ                      ;IF FOR MATCHES GOOD
  1769  002001' 001000  000011          26240           DAD     H
  1770  002002' 001000  000303          26260           JMP     LOOPER          ;TRY THE NEXT ONE
  1771  002003' 000000  001750'
  1772  002004' 000000  001775'
  1773                                  26280   ;
  1774                                  26300   ; THIS IS THE BLOCK TRANSFER ROUTINE
  1775                                  26320   ; IT MAKES SPACE BY SHOVING EVERYTHING FORWARD
  1776                                  26340   ;
  1777                                  26360   ; [H,L] = DESTINATION OF HIGH ADDRESS
  1778                                  26380   ; [D,E] = LOW ADDRESS TO BE TRANSFERRED
  1779                                  26400   ; [B,C] = HIGH ADDRESS TO BE TRANSFERRED
  1780                                  26420   ;
  1781                                  26440   ; A CHECK IS MADE TO MAKE SURE A REASONABLE AMOUNT
  1782                                  26460   ; OF SPACE REMAINS BETWEEN THE TOP OF THE STACK AND THE HIGHEST LOCATION


-- PAGE 39 --------------------------------------------------------------


BASIC MCS 8080  GATES/ALLEN/DAVIDOFF    MACRO 47(113) 03:12 10-SEP-75 PAGE 7-1
F3      MAC      6-SEP-64 03:11         GENERAL STORAGE MANAGEMENT ROUTINES

  1783                                  26480   ; TRANSFERRED INTO
  1784                                  26500   ;
  1785                                  26520   ; ON EXIT [H,L]=[D,E]=LOW [B,C]=LOCATION LOW WAS MOVED INTO
  1786                                  26540   ;
  1787
  1788  002005' 001000  000315          26580   BLTU:   CALL    REASON          ;CHECK DESINTATION TO MAKE
  1789  002006' 000000  002045'
  1790  002007' 000000  002003'
  1791                                  26600                                   ;SURE THE STACK WON'T BE OVERRUN
  1792  002010' 001000  000305          26620   BLTUC:  PUSH    B               ;EXCHANGE [B,C] AND [H,L]
  1793  002011' 001000  000343          26640           XTHL
  1794  002012' 001000  000301          26660           POP     B
  1795  002013' 001000  000347          26680   BLTLOP: COMPAR                  ;SEE IF WE ARE DONE
  1796  002014' 001000  000176          26700           MOV     A,M             ;GET THE WORD TO TRANSFER
  1797  002015' 001000  000002          26720           STAX    B               ;TRANSFER IT
  1798  002016' 001000  000310          26740           RZ
  1799  002017' 001000  000013          26760           DCX     B
  1800  002020' 001000  000053          26780           DCX     H               ;BACKUP FOR NEXT GUY
  1801  002021' 001000  000303          26800           JMP     BLTLOP
  1802  002022' 000000  002013'
  1803  002023' 000000  002006'
  1804                                  26820   ;
  1805                                  26840   ; THIS ROUTINE IS USED TO MAKE SURE A CERTAIN NUMBER
  1806                                  26860   ; OF LOCATIONS REMAIN AVAILABLE FOR THE
  1807                                  26880   ; STACK. THE CALL IS :
  1808                                  26900   ;       CALL    GETSTK
  1809                                  26920   ;       NUMBER OF 2 BYTE ENTRIES NECESSARY
  1810                                  26940   ;
  1811                                  26960   ; THIS ROUTINE MUST BE CALLED BY ANY ROUTINE WHICH PUTS
  1812                                  26980   ; AN ARBITRARY AMOUNT OF STUFF ON THE STACK
  1813                                  27000   ; (I.E. ANY RECURSIVE ROUTINE LIKE FRMEVL)
  1814                                  27020   ; IT IS ALSO CALLED BY ROUTINES SUCH AS GOSUB AND FOR
  1815                                  27040   ; WHICH MAKE PERMANENT ENTRIES ON THE STACK
  1816                                  27060   ;
  1817                                  27080   ;
  1818                                  27100   ; ROUTINES WHICH MERELY USE AND FREE UP THE GUARANTEED
  1819                                  27120   ; NUMLEV STACK LOCATIONS NEED NOT CALL THIS
  1820                                  27140   ;
  1821  002024' 001000  000343          27160   GETSTK: XTHL
  1822  002025' 001000  000116          27180           MOV     C,M             ;GET ARUGMENT INTO [C]
  1823
  1824  002026' 001000  000043          27220           INX     H
  1825  002027' 001000  000343          27240           XTHL                    ;PUT BACK RETURN ADDRESS
  1826  002030' 001000  000345          27260           PUSH    H               ;SAVE [H,L]
  1827  002031' 001000  000052          27280           LHLD    STREND
  1828  002032' 000000  001625'
  1829  002033' 000000  002022'
  1830  002034' 001000  000006          27300           MVI     B,0
  1831  002035' 000000  000000
  1832  002036' 001000  000011          27320           DAD     B
  1833  002037' 001000  000011          27340           DAD     B               ;SEE IF WE CAN HAVE THIS MANY
  1834  002040' 001000  000315          27360           CALL    REASON
  1835  002041' 000000  002045'


-- PAGE 40 --------------------------------------------------------------


BASIC MCS 8080  GATES/ALLEN/DAVIDOFF    MACRO 47(113) 03:12 10-SEP-75 PAGE 7-2
F3      MAC      6-SEP-64 03:11         GENERAL STORAGE MANAGEMENT ROUTINES

  1836  002042' 000000  002032'
  1837  002043' 001000  000341          27380           POP     H               ;RESTORE [H,L]
  1838  002044' 001000  000311          27400           RET
  1839
  1840                                  27440   ;
  1841                                  27460   ; [H,L]= SOME ADDRESS
  1842                                  27480   ; [H,L] IS EXAMINED TO MAKE SURE AT LEAST NUMLEV
  1843                                  27500   ; LOCATIONS REMAIN BETWEEN IT AND THE TOP OF THE STACK
  1844                                  27520   ;
  1845
  1846  002045' 001000  000325          27560   REASON: PUSH    D               ;SAVE [D,E]
  1847  002046' 001000  000353          27580           XCHG                    ;PUT [H,L] IN [D,E]
  1848  002047' 001000  000041          27600           LXI     H,$CODE+65536-2*NUMLEV  ;SETUP OFFSET OF GUARANTEED
  1849  002050' 000000  177726'
  1850  002051' 000000  002041'
  1851                                  27620                                   ;LOCATIONS
  1852  002052' 001000  000071          27640           DAD     SP              ;[H,L]=STACK POINTER + OFFSET
  1853  002053' 001000  000347          27660           COMPAR                  ;SEE IF THIS IS .GT. ENTERING [H,L]
  1854  002054' 001000  000353          27680           XCHG                    ;RESTORE [H,L] FROM [D,E]
  1855  002055' 001000  000321          27700           POP     D               ;GET [D,E] BACK
  1856  002056' 001000  000320          27720           RNC                     ;WAS OK?
  1857  002057' 001000  000036          27740   OMERR:  MVI     E,ERROM         ;"OUT OF MEMORY"
  1858  002060' 000000  000007
  1859                                  27760   IFE     LENGTH,<
  1860                                  27780           XWD     ^O1000,1>       ;"LXI B," OVER THE NEXT 2
  1861                                  27800   IFN     LENGTH,<
  1862  002061' 001000  000303          27820           JMP     ERROR>
  1863  002062' 000000  002102'
  1864  002063' 000000  002050'
  1865                                  27840   PAGE


-- PAGE 41 --------------------------------------------------------------


BASIC MCS 8080  GATES/ALLEN/DAVIDOFF    MACRO 47(113) 03:12 10-SEP-75 PAGE 8
F3      MAC      6-SEP-64 03:11         ERROR HANDLER, READY, COMPACTIFICATION, NEW, CLEAR, MAIN

  1866                                  27860   SUBTTL ERROR HANDLER, READY, COMPACTIFICATION, NEW, CLEAR, MAIN
  1867                                  27880   IFN     LENGTH,<
  1868  002064' 001000  000052          27900   DATSNE: LHLD    DATLIN          ;GET DATA LINE
  1869  002065' 000000  001577'
  1870  002066' 000000  002062'
  1871  002067' 001000  000042          27920           SHLD    CURLIN>         ;MAKE IT CURRENT LINE
  1872  002070' 000000  001607'
  1873  002071' 000000  002065'
  1874  002072' 001000  000036          27940   SNERR:  MVI     E,ERRSN         ;"SYNTAX ERROR"
  1875  002073' 000000  000002
  1876  002074' 001000  000001          27960           XWD     ^O1000,1        ;"LXI B," OVER THE NEXT 2
  1877  002075' 001000  000036          27980   DV0ERR: MVI     E,ERRDV0        ;DIVISION BY ZERO
  1878  002076' 000000  000013
  1879                                  28000   IFN     LENGTH,<
  1880  002077' 001000  000001          28020           XWD     ^O1000,1        ;SKIP NEXT TWO
  1881  002100' 001000  000036          28040   NFERR:  MVI     E,ERRNF>        ;"NEXT WITHOUT FOR" ERROR
  1882  002101' 000000  000001
  1883  002102' 001000  000315          28060   ERROR:  CALL    STKINI          ;RESET THE STACK AND FLAGS
  1884  002103' 000000  002470'
  1885  002104' 000000  002070'
  1886                                  28080   IFN     CONTRW,<
  1887  002105' 001000  000257          28100           XRA     A
  1888  002106' 001000  000062          28120           STA     CNTWFL>         ;FORCE OUTPUT
  1889  002107' 000000  001541'
  1890  002110' 000000  002103'
  1891  002111' 001000  000315          28140           CALL    CRDO            ;CRLF
  1892  002112' 000000  004523'
  1893  002113' 000000  002107'
  1894  002114' 001000  000041          28220           LXI     H,ERRTAB        ;GET START OF ERROR TABLE
  1895  002115' 000000  000730'
  1896  002116' 000000  002112'
  1897                                  28240   IFE     LENGTH-2,<
  1898  002117' 001000  000315          28260   LEPSKP: CALL    REM             ;SKIP AN ERROR MESSAGE
  1899  002120' 000000  004074'
  1900  002121' 000000  002115'
  1901  002122' 001000  000035          28280           DCR     E               ;DECREMENT ERROR COUNT
  1902  002123' 001000  000043          28282           INX     H               ;SKIP OVER THIS ERROR MESSAGE
  1903  002124' 001000  000302          28300           JNZ     LEPSKP>         ;SKIP SOME MORE
  1904  002125' 000000  002117'
  1905  002126' 000000  002120'
  1906                                  28320   IFN     LENGTH-2,<
  1907                                  28322           MOV     D,A             ;GET ZERO INTO D
  1908                                  28324           MVI     A,"?"           ;START OF ERROR MESSAGE
  1909                                  28326           OUTCHR                  ;TYPE IT
  1910                                  28340           DAD     D               ;ADD IN ERROR CODE
  1911                                  28360           MOV     A,M             ;GET FIRST ERROR CHARACTER
  1912                                  28380           OUTCHR                  ;TYPE IT
  1913                                  28400           CHRGET                  ;GET 2ND CHARACTER OF ERROR CODE
  1914                                  28420           OUTCHR                  ;TYPE IT
  1915                                  28440           LXI     H,ERR>          ;GET POINTER TO " ERROR"
  1916  002127' 001000  000315          28460   ERRFIN: CALL    STROUT          ;TYPE IT
  1917  002130' 000000  007743'
  1918  002131' 000000  002125'


-- PAGE 42 --------------------------------------------------------------


BASIC MCS 8080  GATES/ALLEN/DAVIDOFF    MACRO 47(113) 03:12 10-SEP-75 PAGE 8-1
F3      MAC      6-SEP-64 03:11         ERROR HANDLER, READY, COMPACTIFICATION, NEW, CLEAR, MAIN

  1919  002132' 001000  000052          28480           LHLD    CURLIN          ;CURRENT LINE #
  1920  002133' 000000  001607'
  1921  002134' 000000  002130'
  1922  002135' 001000  000174          28500           MOV     A,H             ;SEE IF IN DIRECT MODE
  1923  002136' 001000  000245          28520           ANA     L
  1924  002137' 001000  000074          28530           INR     A               ;ZERO SAYS DIRECT MODE
  1925  002140' 001000  000304          28560           CNZ     INPUT           ;PRINT LINE NUMBER IN [H,L]
  1926  002141' 000000  000000*
  1927  002142' 000000  002133'
  1928                                  28580   IFE     LENGTH,<
  1929                                  28600           XWD     ^O1000,1        ;"LXI B," OVER THE NEXT 2
  1930                                  28620   END:
  1931                                  28640   STOP:   RNZ                     ;MAKE SURE HE TERMINATED IT
  1932                                  28660   STPEND: POP     B               ;GET RID OF "NEWSTT" RETURN ADDRESS
  1933                                  28680   ENDCON:>
  1934                                  28682   IFE     LENGTH-2,<
  1935                                  28684   ;
  1936                                  28686   ; FOR "LIST" COMMAND STOPPING
  1937                                  28688   ;
  1938  002143' 001000  000076          28890           XWD     ^O1000,^O76             ;SKIP THE NEXT BYTE
  1939  002144' 001000  000301          28892   STPRDY: POP     B>
  1940                                  28700   READY:  IFN     LPTSW,<
  1941                                  28720           CALL    FINLPT>         ;PRINT ANY LEFT OVERS
  1942                                  28740   IFN     CONTRW,<
  1943  002145' 001000  000257          28760           XRA     A
  1944  002146' 001000  000062          28780           STA     CNTWFL>         ;FORCE OUTPUT
  1945  002147' 000000  001541'
  1946  002150' 000000  002141'
  1947  002151' 001000  000041          28800           LXI     H,$CODE+65535
  1948  002152' 000000  177777'
  1949  002153' 000000  002147'
  1950  002154' 001000  000042          28820           SHLD    CURLIN          ;SETUP CURLIN FOR DIRECT MODE
  1951  002155' 000000  001607'
  1952  002156' 000000  002152'
  1953  002157' 001000  000041          28840           LXI     H,REDDY         ;"READY" CRLF CRLF
  1954  002160' 000000  001725'
  1955  002161' 000000  002155'
  1956  002162' 001000  000315          28860   REPINI: CALL    INIT            ;PRINT IT. REPLACED BY CALL STROUT
  1957  002163' 000000  000002*
  1958  002164' 000000  002160'
  1959                                  28880                                   ;BY THE INIT CODE. THIS IS HERE SO AFTER
  1960                                  28900                                   ;ERRORS DURING INIT. INIT IS RESTARTED
  1961  002165' 001000  000315          28920   MAIN:   CALL    INLIN           ;GET A LINE FROM TTY
  1962  002166' 000000  002776'
  1963  002167' 000000  002163'
  1964  002170' 001000  000327          28940           CHRGET                  ;GET THE FIRST
  1965  002171' 001000  000074          28960           INR     A               ;SEE IF 0 SAVING THE CARRY FLAG
  1966  002172' 001000  000075          28980           DCR     A
  1967  002173' 001000  000312          29000           JZ      MAIN            ;IF SO, A BLANK LINE WAS INPUT
  1968  002174' 000000  002165'
  1969  002175' 000000  002166'
  1970  002176' 001000  000365          29020           PUSH    PSW             ;SAVE STATUS INDICATOR FOR 1ST CHARACTER
  1971  002177' 001000  000315          29040           CALL    LINGET          ;READ IN A LINE #


-- PAGE 43 --------------------------------------------------------------


BASIC MCS 8080  GATES/ALLEN/DAVIDOFF    MACRO 47(113) 03:12 10-SEP-75 PAGE 8-2
F3      MAC      6-SEP-64 03:11         ERROR HANDLER, READY, COMPACTIFICATION, NEW, CLEAR, MAIN

  1972  002200' 000000  003642'
  1973  002201' 000000  002174'
  1974  002202' 001000  000325          29060           PUSH    D               ;SAVE LINE #
  1975  002203' 001000  000315          29080           CALL    CRUNCH          ;CRUNCH THE LINE DOWN
  1976  002204' 000000  002533'
  1977  002205' 000000  002200'
  1978  002206' 001000  000107          29100           MOV     B,A             ;A=0 AFTER CRUNCH, [B,C]=CHAR COUNT FOR NODEL
  1979  002207' 001000  000321          29120           POP     D               ;RESTORE LINE #
  1980  002210' 001000  000361          29140           POP     PSW             ;WAS THERE A LINE #?
  1981  002211' 001000  000322          29160           JNC     GONE            ;IF NOT ITS A DIRECT STATEMENT
  1982  002212' 000000  003370'
  1983  002213' 000000  002204'
  1984  002214' 001000  000325          29180           PUSH    D
  1985  002215' 001000  000305          29200           PUSH    B               ;SAVE LINE # AND CHARACTER COUNT
  1986  002216' 001000  000327          29220           CHRGET                  ;REMEMBER IF THIS LINE IS
  1987  002217' 001000  000365          29240           PUSH    PSW             ;BLANK SO WE DON'T INSERT IT
  1988  002220' 001000  000315          29260           CALL    FNDLIN          ;GET A POINTER TO THE LINE
  1989  002221' 000000  002371'
  1990  002222' 000000  002212'
  1991  002223' 001000  000305          29280           PUSH    B               ;SAVE THE POINTER
  1992                                  29300   IFE     LENGTH-2,<
  1993  002224' 001000  000334          29320           CC      DEL>            ;DELETE THE LINE
  1994  002225' 000000  011271'
  1995  002226' 000000  002221'
  1996                                  29340   IFN     LENGTH-2,<
  1997                                  29360           JNC     NODEL           ;NO MATCH SO DON'T DELETE
  1998                                  29380           XCHG                    ;[D,E] NOW HAS THE POINTER TO THE LINE
  1999                                  29400                                   ;BEYOND THIS ONE
  2000                                  29420           LHLD    VARTAB          ;COMPACTIFYING TO VARTAB
  2001                                  29440   MLOOP:  LDAX    D
  2002                                  29460           STAX    B               ;SHOVING DOWN TO ELIMINATE A LINE
  2003                                  29480           INX     B
  2004                                  29500           INX     D
  2005                                  29520           COMPAR
  2006                                  29540           JNC     MLOOP           ;DONE COMPACTIFYING?
  2007                                  29560           MOV     H,B
  2008                                  29580           MOV     L,C
  2009                                  29600           INX     H               ;NEW VARTAB
  2010                                  29620           SHLD    VARTAB>
  2011  002227' 001000  000321          29640   NODEL:  POP     D               ;POP POINTER AT PLACE TO INSERT
  2012  002230' 001000  000361          29660           POP     PSW             ;SEE IF THIS LINE HAD
  2013                                  29680                                   ;ANYTHING ON IT
  2014  002231' 001000  000312          29700           JZ      FINI            ;IF NOT DON'T INSERT
  2015  002232' 000000  002276'
  2016  002233' 000000  002225'
  2017  002234' 001000  000052          29720           LHLD    VARTAB          ;CURRENT END
  2018  002235' 000000  001621'
  2019  002236' 000000  002232'
  2020  002237' 001000  000343          29740           XTHL                    ;[H,L]=CHARACTER COUNT, VARTAB
  2021                                  29760                                   ;ONTO THE STACK
  2022  002240' 001000  000301          29780           POP     B               ;[B,C]=OLD VARTAB
  2023  002241' 001000  000011          29800           DAD     B
  2024  002242' 001000  000345          29820           PUSH    H               ;SAVE NEW VARTAB


-- PAGE 44 --------------------------------------------------------------


BASIC MCS 8080  GATES/ALLEN/DAVIDOFF    MACRO 47(113) 03:12 10-SEP-75 PAGE 8-3
F3      MAC      6-SEP-64 03:11         ERROR HANDLER, READY, COMPACTIFICATION, NEW, CLEAR, MAIN

  2025  002243' 001000  000315          29840           CALL    BLTU
  2026  002244' 000000  002005'
  2027  002245' 000000  002235'
  2028  002246' 001000  000341          29860           POP     H               ;POP OFF VARTAB
  2029  002247' 001000  000042          29880           SHLD    VARTAB          ;UPDATE VARTAB
  2030  002250' 000000  001621'
  2031  002251' 000000  002244'
  2032  002252' 001000  000353          29900           XCHG
  2033  002253' 001000  000164          29920           MOV     M,H             ;FOOL CHEAD WITH NON-ZERO LINK
  2034  002254' 001000  000043          29940           INX     H               ;SO IT DOESN'T THINK
  2035                                  29960                                   ;THIS LINK IS THE
  2036                                  29980                                   ;END OF THE PROGRAM
  2037  002255' 001000  000043          30000           INX     H
  2038  002256' 001000  000321          30020           POP     D               ;GET LINE # OFF STACK
  2039  002257' 001000  000163          30040           MOV     M,E
  2040  002260' 001000  000043          30060           INX     H               ;PUT DOWN LINE #
  2041  002261' 001000  000162          30080           MOV     M,D
  2042  002262' 001000  000043          30100           INX     H
  2043
  2044  002263' 001000  000021          30140           LXI     D,BUF           ;MOVE LINE FROM BUF TO PROGRAM AREA
  2045  002264' 000000  001431'
  2046  002265' 000000  002250'
  2047  002266' 001000  000032          30160   MLOOPR: LDAX    D               ;NOW TRANSFERING LINE
  2048                                  30180                                   ;IN FROM BUF
  2049  002267' 001000  000167          30200           MOV     M,A
  2050  002270' 001000  000043          30220           INX     H
  2051  002271' 001000  000023          30240           INX     D
  2052  002272' 001000  000267          30260           ORA     A               ;ZERO MARKS THE END
  2053  002273' 001000  000302          30280           JNZ     MLOOPR
  2054  002274' 000000  002266'
  2055  002275' 000000  002264'
  2056  002276' 001000  000315          30300   FINI:   CALL    RUNC            ;DO CLEAR & SET UP STACK
  2057  002277' 000000  002437'
  2058  002300' 000000  002274'
  2059                                  30320                                   ;ALSO SETS [H,L] TO [TXTTAB]-1
  2060  002301' 001000  000043          30340           INX     H
  2061                                  30360   ;
  2062                                  30380   ; CHEAD GOES THROUGH PROGRAM STORAGE AND FIXES
  2063                                  30400   ; UP ALL THE LINKS. THE END OF EACH
  2064                                  30420   ; LINE IS FOUND BY SEARCHING FOR THE ZERO AT THE END.
  2065                                  30440   ; THE DOUBLE ZERO LINK IS USED TO DETECT THE END OF THE PROGRAM
  2066                                  30460   ;
  2067  002302' 001000  000124          30480   CHEAD:  MOV     D,H             ;[D,E]=[H,L]
  2068  002303' 001000  000135          30500           MOV     E,L
  2069  002304' 001000  000176          30520           MOV     A,M             ;SEE IF END OF CHAIN
  2070  002305' 001000  000043          30540           INX     H               ;BUMP POINTER
  2071  002306' 001000  000266          30560           ORA     M               ;2ND BYTE
  2072  002307' 001000  000312          30580           JZ      MAIN            ;DONE
  2073  002310' 000000  002165'
  2074  002311' 000000  002277'
  2075  002312' 001000  000043          30600           INX     H               ;FIX H TO START OF TEXT
  2076  002313' 001000  000043          30620           INX     H
  2077  002314' 001000  000043          30640           INX     H


-- PAGE 45 --------------------------------------------------------------


BASIC MCS 8080  GATES/ALLEN/DAVIDOFF    MACRO 47(113) 03:12 10-SEP-75 PAGE 8-4
F3      MAC      6-SEP-64 03:11         ERROR HANDLER, READY, COMPACTIFICATION, NEW, CLEAR, MAIN

  2078  002315' 001000  000000          30660           XRA     A               ;SEARCHING FOR A ZERO IN MEMORY
  2079  002316' 001000  000000          30680   CZLOOP: CMP     M               ;TO MARK THE END OF THIS LINK
  2080  002317' 001000  000000          30700           INX     H               ;BUMP POINTER
  2081  002320' 001000  000000          30720           JNZ     CZLOOP          ;END OF LINE
  2082  002321' 000000  000000'
  2083  002322' 000000  000000'
  2084  002323' 001000  000000          30740           XCHG                    ;SWITCH TEMP
  2085  002324' 001000  000000          30760           MOV     M,E             ;DO FIRST BYTE OF FIXUP
  2086  002325' 001000  000000          30780           INX     H               ;ADVANCE POINTER
  2087  002326' 001000  000000          30800           MOV     M,D             ;2ND BYTE OF FIXUP
  2088  002327' 001000  000000          30820           XCHG                    ;AND BACK AGAIN
  2089  002330' 001000  000000          30840           JMP     CHEAD           ;KEEP CHAINING TIL DONE
  2090  002331' 000000  000000'
  2091  002332' 000000  000000'
  2092                                  30860   IFE     LENGTH-2,<
  2093                                  30880   ;
  2094                                  30900   ; SCNLIN SCANS A LINE RANGE OF
  2095                                  30920   ; THE FORM #-# OR # OR #- OR -# OR BLANK
  2096                                  31940   ; AND THEN FINDS THE FIRST LINE IN THE RANGE
  2097                                  31960   ;
  2098  002333' 001000  000021          31980   SCNLIN: LXI     D,$CODE         ;ASSUME START OF LIST AT ZERO
  2099  002334' 000000  000000'
  2100  002335' 000000  002331'
  2101  002336' 001000  000325          31000           PUSH    D               ;SAVE INITIAL ASSUMPTION
  2102  002337' 001000  000312          31020           JZ      ALLLST          ;IF FINISHED, LIST IT ALL
  2103  002340' 000000  002354'
  2104  002341' 000000  002354'
  2105  002342' 001000  000321          31040           POP     D               ;WE ARE GOING TO GRAB A #
  2106  002343' 001000  000315          31060           CALL    LINGET          ;GET A LINE #, IF NONE, RETURNS ZERO
  2107  002344' 000000  003642'
  2108  002345' 000000  002340'
  2109  002346' 001000  000325          31080           PUSH    D               ;SAVE FIRST
  2110  002347' 001000  000312          31100           JZ      ONELIN          ;IF ONLY # THEN DONE.
  2111  002350' 000000  002365'
  2112  002351' 000000  002344'
  2113  002352' 001000  000317          31120           SYNCHK  MINUTK          ;MUST BE A DASH.
  2114  002353' 000000  000251
  2115  002354' 001000  000021          31140   ALLLST: LXI     D,$CODE+^D65529 ;ASSUME MAX END OF RANGE
  2116  002355' 000000  177771'
  2117  002356' 000000  002350'
  2118  002357' 001000  000304          31160           CNZ     LINGET          ;GET THE END OF RANGE
  2119  002360' 000000  003642'
  2120  002361' 000000  002355'
  2121  002362' 001000  000302          31180           JNZ     SNERR           ;MUST BE TERMINATOR
  2122  002363' 000000  002072'
  2123  002364' 000000  002360'
  2124  002365' 001000  000353          31200   ONELIN: XCHG                    ;[H,L] = FINAL
  2125  002366' 001000  000321          31220           POP     D               ;GET INITIAL IN [D,E]
  2126  002367' 001000  000343          31240           XTHL                    ;PUT MAX ON STACK, RETURN ADDR TO [H,L]
  2127  002370' 001000  000345          31260           PUSH    H>              ;SAVE RETURN ADDRESS BACK
  2128                                  31280   ;
  2129                                  31300   ; FNDLIN SEARCHES THE PROGRAM TEXT FOR THE LINE
  2130                                  31320   ; WHOSE LINE # IS PASSED IN [D,E]. [D,E] IS PRESERVED.


-- PAGE 46 --------------------------------------------------------------


BASIC MCS 8080  GATES/ALLEN/DAVIDOFF    MACRO 47(113) 03:12 10-SEP-75 PAGE 8-5
F3      MAC      6-SEP-64 03:11         ERROR HANDLER, READY, COMPACTIFICATION, NEW, CLEAR, MAIN

  2131                                  31340   ; THERE ARE THREE POSSIBLE RETURNS:
  2132                                  31360   ;
  2133                                  31380   ;       1) ZERO FLAG SET. CARRY NOT SET. LINE NOT FOUND.
  2134                                  31400   ;          NO LINE IN PROGRAM GREATER THAN ONE SOUGHT.
  2135                                  31420   ;          [B,C] POINTS TO TWO ZERO BYTES AT END OF PROGRAM.
  2136                                  31440   ;          [H,L]=[B,C]
  2137                                  31460   ;
  2138                                  31480   ;       2) ZERO, CARRY SET.
  2139                                  31500   ;          [B,C] POINTS TO THE LINK FIELD IN THE LINK
  2140                                  31520   ;          WHICH IS THE LINE SEARCHED FOR.
  2141                                  31540   ;          [H,L] POINTS TO THE LINK FIELD IN THE NEXT LINE.
  2142                                  31560   ;
  2143                                  31580   ;       3) NON-ZERO, CARRY NOT SET.
  2144                                  31600   ;          LINE NOT FOUND. [B,C]  POINTS TO LINE IN PROGRAM
  2145                                  31620   ;          GREATER THAN ONE SEARCHED FOR.
  2146                                  31640   ;          [H,L] POINTS TO THE LINK FIELD IN THE NEXT LINE.
  2147                                  31660   ;
  2148  002371' 001000  000052          31680   FNDLIN: LHLD    TXTTAB          ;GET POINTER TO START OF TEXT
  2149  002372' 000000  001617'
  2150  002373' 000000  002363'
  2151  002374' 001000  000104          31700   LOOP:   MOV     B,H             ;IF EXITING BECAUSE OF END OF PROGRAM,
  2152                                  31720                                   ;SET [B,C] TO POINT TO DOUBLE ZEROES.
  2153  002375' 001000  000115          31740           MOV     C,L
  2154  002376' 001000  000176          31760           MOV     A,M             ;GET WORD POINTER TO
  2155  002377' 001000  000043          31780           INX     H               ;BUMP POINTER
  2156  002400' 001000  000266          31800           ORA     M               ;GET 2ND BYTE
  2157  002401' 001000  000053          31820           DCX     H               ;GO BACK
  2158  002402' 001000  000310          31840           RZ                      ;IF ZERO THEN DONE
  2159  002403' 001000  000305          31860           PUSH    B
  2160  002404' 001000  000367          31880           PUSHM                   ;PUSH LINK
  2161  002405' 001000  000367          31900           PUSHM                   ;PUSH BINARY LINE #
  2162  002406' 001000  000341          31920           POP     H               ;POP HERE
  2163  002407' 001000  000347          31940           COMPAR                  ;COMPARE [D,E] TO [H,L]
  2164  002410' 001000  000341          31960           POP     H               ;GET LINK
  2165  002411' 001000  000301          31980           POP     B               ;GET POINTER TO THIS LINE IN [B,C]
  2166  002412' 001000  000077          32000           CMC                     ;TURN CARRY ON
  2167  002413' 001000  000310          32020           RZ                      ;EQUAL RETURN
  2168  002414' 001000  000077          32040           CMC                     ;MAKE CARRY ZERO
  2169  002415' 001000  000320          32060           RNC                     ;NO MATCH RETURN (GREATER)
  2170  002416' 001000  000303          32080           JMP     LOOP            ;KEEP LOOKING
  2171  002417' 000000  002374'
  2172  002420' 000000  002372'
  2173                                  32100   ;
  2174                                  32120   ; THE "NEW" COMMAND CLEARS THE PROGRAM TEXT AS WELL
  2175                                  32140   ; AS VARIABLE SPACE
  2176                                  32160   ;
  2177  002421' 001000  000300          32180   SCRATH: RNZ                     ;MAKE SURE THERE IS A TERMINATOR
  2178  002422' 001000  000052          32200   SCRTCH: LHLD    TXTTAB
  2179  002423' 000000  001617'
  2180  002424' 000000  002417'
  2181                                  32220   IFN     LENGTH-2,<
  2182                                  32240           XRA     A>
  2183                                  32260   IFE     LENGTH-2,<


-- PAGE 47 --------------------------------------------------------------


BASIC MCS 8080  GATES/ALLEN/DAVIDOFF    MACRO 47(113) 03:12 10-SEP-75 PAGE 8-6
F3      MAC      6-SEP-64 03:11         ERROR HANDLER, READY, COMPACTIFICATION, NEW, CLEAR, MAIN

  2184  002425' 001000  000315          32280           CALL    TOFF>           ;TURN OFF TRACE. SET [A]=0
  2185  002426' 000000  003605'
  2186  002427' 000000  002423'
  2187  002430' 001000  000167          32300           MOV     M,A             ;SAVE AT END OFF TEXT
  2188  002431' 001000  000043          32320           INX     H               ;BUMP POINTER
  2189  002432' 001000  000167          32340           MOV     M,A             ;SAVE ZERO
  2190  002433' 001000  000043          32360           INX     H               ;BUMP POINTER
  2191  002434' 001000  000042          32380           SHLD    VARTAB          ;NEW START OF VARIABLE
  2192  002435' 000000  001621'
  2193  002436' 000000  002426'
  2194                                  32400   IFE     LENGTH,<
  2195                                  32420   RUN:    RNZ>                    ;CHECK FOR A TERMINATOR
  2196  002437' 001000  000052          32440   RUNC:   LHLD    TXTTAB          ;POINT AT THE START OF TEXT
  2197  002440' 000000  001617'
  2198  002441' 000000  002435'
  2199  002442' 001000  000053          32460           DCX     H
  2200                                  32480   ;
  2201                                  32500   ; CLEARC IS A SUBROUTINE WHICH INITIALIZES THE VARIABLE AND
  2202                                  32520   ; ARRAY SPACE BY RESETING ARYTAB (THE END OF SIMPLE VARIABLE SPACE)
  2203                                  32540   ; AND STREND (THE END OF ARRAY STORAGE). IT FALLS INTO STKINI
  2204                                  32560   ; WHICH RESETS THE STACK. [H,L] IS PRESERVED.
  2205                                  32580   ;
  2206                                  32600   IFE     STRING,<CLEAR:>
  2207  002443' 001000  000042          32620   CLEARC: SHLD    TEMP            ;SAVE [H,L] IN TEMP
  2208  002444' 000000  001603'
  2209  002445' 000000  002440'
  2210                                  32640   IFN     STRING,<
  2211  002446' 001000  000052          32660           LHLD    MEMSIZ
  2212  002447' 000000  001545'
  2213  002450' 000000  002444'
  2214  002451' 001000  000042          32680           SHLD    FRETOP>         ;FREE UP STRING SPACE
  2215  002452' 000000  001543'
  2216  002453' 000000  002447'
  2217  002454' 001000  000315          32700           CALL    RESTORE         ;RESTORE DATA
  2218  002455' 000000  003446'
  2219  002456' 000000  002452'
  2220  002457' 001000  000052          32720           LHLD    VARTAB          ;GET START OF VARIABLE SPACE
  2221  002460' 000000  001621'
  2222  002461' 000000  002455'
  2223  002462' 001000  000042          32740           SHLD    ARYTAB          ;SAVE IN START OF ARRAY SPACE
  2224  002463' 000000  001623'
  2225  002464' 000000  002460'
  2226  002465' 001000  000042          32760           SHLD    STREND          ;AND END OF VARIABLE STORAGE
  2227  002466' 000000  001625'
  2228  002467' 000000  002463'
  2229                                  32780   ;
  2230                                  32800   ; STKINI RESETS THE STACK POINTER ELIMINATING
  2231                                  32820   ; GOSUB & FOR CONTEXT.  STRING TEMPORARIES ARE FREED
  2232                                  32840   ; UP, SUBFLG IS RESET, CONTINUING IS DISALLOWED,
  2233                                  32860   ; AND A DUMMY ENTRY IS PUT ON THE STACK. THIS IS SO
  2234                                  32880   ; FNDFOR WILL ALWAYS FIND A NON-"FOR" ENTRY AT THE BOTTOM
  2235                                  32900   ; OF THE STACK. [A]=0 AND [D,E] IS PRESERVED
  2236                                  32920   ;


-- PAGE 48 --------------------------------------------------------------


BASIC MCS 8080  GATES/ALLEN/DAVIDOFF    MACRO 47(113) 03:12 10-SEP-75 PAGE 8-7
F3      MAC      6-SEP-64 03:11         ERROR HANDLER, READY, COMPACTIFICATION, NEW, CLEAR, MAIN

  2237  002470' 001000  000301          32940   STKINI: POP     B               ;GET RETURN ADDRESS HERE
  2238  002471' 001000  000052          32960           LHLD    STKTOP          ;[H,L] POINTER TO END OF MEMORY
  2239  002472' 000000  001615'
  2240  002473' 000000  002466'
  2241  002474' 001000  000371          32980           SPHL                    ;INITIALIZE STACK
  2242                                  33000   IFN     STRING,<
  2243  002475' 001000  000041          33020           LXI     H,TEMPST
  2244  002476' 000000  001551'
  2245  002477' 000000  002472'
  2246  002500' 001000  000042          33040           SHLD    TEMPPT>         ;INITIALIZE STRING TEMPORARIES
  2247  002501' 000000  001547'
  2248  002502' 000000  002476'
  2249  002503' 001000  000041          33060           LXI     H,$CODE         ;PUT ZERO (NON NEXT, FOR GOSUB TOKEN)
  2250  002504' 000000  000000'
  2251  002505' 000000  002501'
  2252  002506' 001000  000345          33080           PUSH    H               ;ON STACK
  2253  002507' 001000  000042          33100   IFN     LENGTH,<SHLD    OLDTXT> ;MAKE CONTINUING ILLEGAL
  2254  002510' 000000  001613'
  2255  002511' 000000  002504'
  2256                                  33120   IFN     LPTSW,<
  2257                                  33140           CALL    FINLPT>
  2258  002512' 001000  000052          33160           LHLD    TEMP            ;GET SAVED [H,L]
  2259  002513' 000000  001603'
  2260  002514' 000000  002510'
  2261                                  33180   IFN     LENGTH,<
  2262                                  33200   IFE     CONTRW,<XRA     A>
  2263  002515' 001000  000062          33220           STA     SUBFLG>         ;ALLOW SUBSCRIPTS
  2264  002516' 000000  001601'
  2265  002517' 000000  002513'
  2266  002520' 001000  000305          33240           PUSH    B               ;PUT RETURN ADDRESS BACK ON
  2267  002521' 001000  000311          33260           RET                     ;GO BACK
  2268
  2269  002522' 001000  000076          33300   QINLIN: MVI     A,"?"           ;GET A QMARK
  2270  002523' 000000  000077
  2271  002524' 001000  000337          33320           OUTCHR                  ;TYPE IT
  2272  002525' 001000  000076          33340           MVI     A," "           ;SPACE
  2273  002526' 000000  000040
  2274  002527' 001000  000337          33360           OUTCHR                  ;TYPE IT TOO
  2275                                  33380   IFE     STRING,<CALL    INLIN   ;IN THE NON-STRING VERSION ALL
  2276                                  33400                                   ;INPUT IS CRUNCHED
  2277                                  33420           INX     H>              ;GET A LINE OF INPUT FROM TTY
  2278  002530' 001000  000303          33440   IFN     STRING,<JMP     INLIN>  ;NO CRUNCHING IN THIS CASE
  2279  002531' 000000  002776'
  2280  002532' 000000  002516'
  2281                                  33460   ;
  2282                                  33520   ; ALL "RESERVED" WORDS ARE TRANSLATED INTO SINGLE
  2283                                  33540   ; BYTES WITH THE MSB ON. THIS SAVES SPACE AND TIME
  2284                                  33560   ; BY ALLOWING FOR TABLE DISPATCH DURING EXECUTION.
  2285                                  33580   ; THEREFORE ALL STATEMENTS APPEAR TOGETHER IN THE
  2286                                  33600   ; RESERVED WORD LIST IN THE SAME
  2287                                  33620   ; ORDER THEY APPEAR IN IN STMDSP.
  2288                                  33640   ;
  2289  002533'                         33700   CRUNCH: IFN     STRING,<


-- PAGE 49 --------------------------------------------------------------


BASIC MCS 8080  GATES/ALLEN/DAVIDOFF    MACRO 47(113) 03:12 10-SEP-75 PAGE 8-8
F3      MAC      6-SEP-64 03:11         ERROR HANDLER, READY, COMPACTIFICATION, NEW, CLEAR, MAIN

  2290  002533' 001000  000257          33720           XRA     A
  2291  002534' 001000  000062          33740           STA     DORES>          ;ALLOW CRUNCHING
  2292  002535' 000000  001544'
  2293  002536' 000000  002531'
  2294  002537' 001000  000016          33760           MVI     C,5             ;COUNT OF CHARS AT LEAST 5
  2295  002540' 000000  000005
  2296  002541' 001000  000021          33780           LXI     D,BUF           ;SETUP DESTINATION POINTER
  2297  002542' 000000  001431'
  2298  002543' 000000  002535'
  2299  002544' 001000  000176          33800   KLOOP:  MOV     A,M             ;GET CHARACTER FROM BUF
  2300  002545' 001000  000376          33820           CPI     " "             ;IS IT A SPACE WE WANT TO SAVE
  2301  002546' 000000  000040
  2302  002547' 001000  000312          33840           JZ      STUFFH          ;YES, STUFF IN DESTINATION LINE.
  2303  002550' 000000  002667'
  2304  002551' 000000  002542'
  2305  002552' 001000  000107          33860           MOV     B,A             ;GET A CHARACTER FROM THE LINE
  2306                                  33880                                   ;SETUP B WITH A QUOTE IF IT IS A STRING
  2307  002553' 001000  000376          33900           CPI     34              ;QUOTE SIGN?
  2308  002554' 000000  000042
  2309  002555' 001000  000312          33920           JZ      STRNG           ;YES, GO TO SPECIAL STRING HANDLING
  2310  002556' 000000  002727'
  2311  002557' 000000  002550'
  2312  002560' 001000  000267          33940           ORA     A               ;END OF LINE?
  2313  002561' 000000  000312          33960           JZ      CRDONE          ;YES, DONE CRUNCHING
  2314  002562' 000000  002753'
  2315  002563' 000000  002556'
  2316                                  33980   IFN     STRING,<
  2317  002564' 001000  000072          34000           LDA     DORES           ;IN DATA STATEMENT AND NO CRUNCH?
  2318  002565' 000000  001544'
  2319  002566' 000000  002562'
  2320  002567' 001000  000267          34020           ORA     A
  2321  002570' 001000  000107          34040           MOV     B,A             ;INITIALIZE RESERVED WORD COUNT
  2322  002571' 001000  000176          34060           MOV     A,M             ;GET THE CHARACTER AGAIN
  2323  002572' 001000  000302          34080           JNZ     STUFFH>         ;IF NO CRUNCHING JUST STORE
  2324  002573' 000000  002667'
  2325  002574' 000000  002565'
  2326                                  34100                                   ;THE CHARACTER
  2327                                  34120   IFN     LENGTH,<                ;NOT FOR 4K VERSION
  2328  002575' 001000  000376          34140           CPI     "?"             ;A QMARK?
  2329  002576' 000000  000077
  2330  002577' 001000  000076          34160           MVI     A,PRINTK
  2331  002600' 000000  000231
  2332  002601' 001000  000312          34180           JZ      STUFFH          ;THEN USE A "PRINT" TOKEN
  2333  002602' 000000  002667'
  2334  002603' 000000  002573'
  2335  002604' 001000  000176          34200           MOV     A,M
  2336  002605' 001000  000376          34220           CPI     "0"             ;SKIP NUMERICS
  2337  002606' 000000  000060
  2338  002607' 001000  000332          34240           JC      MUSTCR          ;SINCE CRUNCHING IS SLOW
  2339  002610' 000000  002617'
  2340  002611' 000000  002602'
  2341  002612' 001000  000376          34260           CPI     60              ;":" ALSO PUT IN QUICKLY
  2342  002613' 000000  000074


-- PAGE 50 --------------------------------------------------------------


BASIC MCS 8080  GATES/ALLEN/DAVIDOFF    MACRO 47(113) 03:12 10-SEP-75 PAGE 8-9
F3      MAC      6-SEP-64 03:11         ERROR HANDLER, READY, COMPACTIFICATION, NEW, CLEAR, MAIN

  2343  002614' 001000  000332          34280           JC      STUFFH
  2344  002615' 000000  002667'
  2345  002616' 000000  002610'
  2346                                  34300   MUSTCR: >
  2347  002617' 001000  000325          34320           PUSH    D               ;SAVE STORE POINTER
  2348                                  34340   IFE     STRING,<
  2349                                  34460           MVI     B,0>            ;INIT RESERVED WORD COUNT
  2350  002620' 001000  000021          34480           LXI     D,RESLST-1      ;INIT TO RESERVED WORD LIST
  2351  002621' 000000  000171'
  2352  002622' 000000  002615'
  2353  002623' 001000  000345          34400           PUSH    H               ;SAVE IN BUF POINTER
  2354  002624' 001000  000076          34420           XWD     ^O1000,^O76     ;"MVI" AROUND CHRGET
  2355  002625' 001000  000327          34440   NXTRES: CHRGET                  ;GET CHAR FROM LINE
  2356  002626' 001000  000023          34460           INX     D               ;BUMP DEPOSIT POINTER
  2357  002627' 001000  000032          34480   RESER:  LDAX    D               ;GET A BYTE FROM RESERVED WORD LIST
  2358  002630' 001000  000346          34500           ANI     127             ;GET RID OF SIGN BIT
  2359  002631' 000000  000177
  2360  002632' 001000  000312          34520           JZ      TABEND          ;END OF RESERVED WORD TABLE
  2361  002633' 000000  002653'
  2362  002634' 000000  002621'
  2363  002635' 001000  000276          34540           CMP     M               ;TWO CHARS THE SAME?
  2364  002636' 001000  000302          34560           JNZ     NTHIS           ;NO, DIFFERENT
  2365  002637' 000000  002736'
  2366  002640' 000000  002633'
  2367  002641' 001000  000032          34580           LDAX    D               ;GET RESERVED WORD BYTE
  2368  002642' 001000  000267          34600           ORA     A               ;SET CONDITION CODES
  2369  002643' 001000  000362          34620           JP      NXTRES          ;IF SIGN SET, RESERVED WORD FOUND
  2370  002644' 000000  002625'
  2371  002645' 000000  002637'
  2372  002646' 001000  000361          34640   FOUND:  POP     PSW             ;TAKE OFF GARBAGE ORIG POINTER
  2373  002647' 001000  000170          34660           MOV     A,B             ;GET RESERVED WORD #
  2374  002650' 001000  000366          34680           ORI     128             ;SET MSB TO FLAG AS RESERVED WORD
  2375  002651' 000000  000200
  2376  002652' 001000  000362          34700           XWD     ^O1000,^O362    ;"JP" AROUND THE POP H AND MOV A,M
  2377  002653' 001000  000341          34720   TABEND: POP     H               ;GET BACK ORIG POINTER
  2378  002654' 001000  000176          34740           MOV     A,M             ;GET BACK ORIG CHAR
  2379  002655' 001000  000321          34760           POP     D               ;GET STUFF POINTER BACK
  2380                                  34780   IFE     LENGTH-2,<
  2381  002656' 001000  000353          34800           XCHG                    ;[H,L]=STUFF POINTER
  2382  002657' 001000  000376          34820           CPI     ELSETK          ;HAVE TO PUT A HIDDEN
  2383  002660' 000000  000220
  2384                                  34840                                   ;COLON IN FRONT OF "ELSE"S
  2385  002661' 001000  000066          34860           MVI     M,":"           ;STORE IT
  2386  002662' 000000  000072
  2387  002663' 001000  000314          34880           CZ      INXHRT##        ;ADVANCE POINTER ON "ELSE"
  2388  002664' 000000  000000*
  2389  002665' 000000  002644'
  2390                                  34900                                   ;SO ONLY ON "ELSE" THE COLON IS NOT OVERWRITTEN
  2391
  2392  002666' 001000  000353          34920           XCHG>                   ;[D,E]=STUFF POINTER
  2393  002667' 001000  000043          34940   STUFFH: INX     H               ;ENTRY TO BUMP [H,L]
  2394  002670' 001000  000022          34960           STAX    D               ;SAVE CHARACTER IN CRUNCHED LINE
  2395  002671' 001000  000023          34980           INX     D               ;BUMP SAVE POINTER


-- PAGE 51 --------------------------------------------------------------


BASIC MCS 8080  GATES/ALLEN/DAVIDOFF    MACRO 47(113) 03:12 10-SEP-75 PAGE 8-10
F3      MAC      6-SEP-64 03:11         ERROR HANDLER, READY, COMPACTIFICATION, NEW, CLEAR, MAIN

  2396  002672' 001000  000014          35000           INR     C               ;BUMP CRUNCHED CHARACTER COUNT
  2397                                  35020   IFN     STRING,<
  2398  002673' 001000  000326          35040           SUI     ":"             ;SEE IF IT IS A COLON
  2399  002674' 000000  000072
  2400  002675' 001000  000312          35060           JZ      COLIS           ;IF SO ALLOW CRUNCHING AGAIN
  2401  002676' 000000  002705'
  2402  002677' 000000  002664'
  2403  002700' 001000  000376          35080           CPI     DATATK-":"
  2404  002701' 000000  000111
  2405  002702' 001000  000302          35100           JNZ     NODATT          ;SEE IF IT IS A DATA TOKEN
  2406  002703' 000000  002710'
  2407  002704' 000000  002676'
  2408  002705' 001000  000062          35120   COLIS:  STA     DORES           ;SETUP FLAG
  2409  002706' 000000  001544'
  2410  002707' 000000  002703'
  2411  002710' 001000  000326          35140   NODATT: SUI     REMTK-":">
  2412  002711' 000000  000124
  2413                                  35160   IFE     STRING,<SUI     REMTK>  ;WAS IT A REM STATEMENT
  2414  002712' 001000  000302          35180           JNZ     KLOOP           ;KEEP LOOPING
  2415  002713' 000000  002544'
  2416  002714' 000000  002706'
  2417  002715' 001000  000107          35200           MOV     B,A             ;REM DOESN'T STOP ON ":", ONLY ON A ZERO
  2418  002716' 001000  000176          35220   STR1:   MOV     A,M             ;GET A CHAR
  2419  002717' 001000  000267          35240           ORA     A               ;SET CONDITION CODES
  2420  002720' 001000  000312          35260           JZ      CRDONE          ;IF END OF LINE THEN DONE
  2421  002721' 000000  002753'
  2422  002722' 000000  002713'
  2423  002723' 001000  000270          35280           CMP     B               ;END OF GOBBLE
  2424  002724' 001000  000312          35300           JZ      STUFFH          ;IF YES, DONE WITH STRING
  2425  002725' 000000  002667'
  2426  002726' 000000  002721'
  2427  002727' 001000  000043          35320   STRNG:  INX     H               ;INCREMENT TEXT POINTER
  2428  002730' 001000  000022          35340           STAX    D               ;STORE CHAR
  2429  002731' 001000  000014          35360           INR     C               ;BUMP COUNT
  2430  002732' 001000  000023          35380           INX     D               ;AND POINTER
  2431  002733' 001000  000303          35400           JMP     STR1            ;KEEP LOOPING
  2432  002734' 000000  002716'
  2433  002735' 000000  002725'
  2434
  2435  002736' 001000  000341          35440   NTHIS:  POP     H               ;RESTORE TEXT STRING
  2436  002737' 001000  000345          35460           PUSH    H               ;AND SAVE IT BACK
  2437  002740' 001000  000004          35480           INR     B               ;INCREMENT RESERVED WORD #
  2438  002741' 001000  000353          35500           XCHG                    ;RESLST POINTER INTO [H,L]
  2439  002742' 001000  000266          35520   NTHIS1: ORA     M               ;TEST BITS IN THE RESERVED WORD LIST
  2440  002743' 001000  000043          35540           INX     H
  2441  002744' 001000  000262          35560           JP      NTHIS1          ;SKIP MORE
  2442  002745' 000000  002742'
  2443  002746' 000000  002734'
  2444  002747' 001000  000353          35580           XCHG                    ;RESLST POINTER INTO [D,E]
  2445                                  35600                                   ;TEXT POINTER INTO [H,L]
  2446  002750' 001000  000303          35620           JMP     RESER           ;DONE, MOVE TO NEXT RESERVED WORD
  2447  002751' 000000  002627'
  2448  002752' 000000  002745'


-- PAGE 52 --------------------------------------------------------------


BASIC MCS 8080  GATES/ALLEN/DAVIDOFF    MACRO 47(113) 03:12 10-SEP-75 PAGE 8-11
F3      MAC      6-SEP-64 03:11         ERROR HANDLER, READY, COMPACTIFICATION, NEW, CLEAR, MAIN

  2449  002753' 001000  000041          35640   CRDONE: LXI     H,BUFMIN        ;LEAVE WITH [H,L] POINTER TO START OF LINE
  2450  002754' 000000  001430'
  2451  002755' 001000  002751'
  2452  002756' 001000  000022          35660           STAX    D               ;NEED THREE 0'S ON THE END
  2453  002757' 001000  000023          35680           INX     D               ;ONE FOR END-OF-LINE
  2454  002760' 001000  000022          35700           STAX    D               ;AND 2 FOR A ZERO LINK
  2455  002761' 001000  000023          35720           INX     D               ;SINCE IF THIS IS A DIRECT STATEMENT
  2456  002762' 001000  000022          35740           STAX    D               ;ITS END MUST LOOK LIKE THE END OF A PROGRAM
  2457  002763' 001000  000011          35760           RET                     ;END OF CRUNCHING
  2458                                  35780   ;
  2459                                  35800   ; THIS IS THE LINE INPUT ROUTINE
  2460                                  35820   ; IT READS CHARACTERS INTO BUF USING _ AS THE
  2461                                  35840   ; CHARACTER DELETE CHARACTER AND # AS THE LINE DELETE CHARACTER
  2462                                  35860   ; IF MORE THAN BUFLEN CHARACTER ARE TYPED, NO ECHOING
  2463                                  35880   ; IS DONE UNTIL A  _ # OR CARRIAGE-RETURN IS TYPED.
  2464                                  35900   ; CONTROL-G WILL BE TYPED FOR EACH EXTRA CHARACTER.
  2465                                  35920   ; THE ROUTINE IS ENTERED AT INLIN
  2466                                  35940   ;
  2467  002764' 001000  000005          35960   LINLIN: DCR     B               ;BACK ARROW SO DECREMENT COUNT
  2468  002765' 001000  000054          35980           DCX     H               ;BACK UP POINTER
  2469                                  36000   IFN     REALIO,<
  2470  002766' 001000  000337          36020           OUTCHR>
  2471  002767' 001000  000302          36040           JNZ     INLINC          ;NOT TOO MANY SO CONTINUE
  2472  002770' 000000  003003'
  2473  002771' 000000  002754'
  2474  002772'                         36060   INLINN: IFN     REALIO,<
  2475  002772' 001000  000337          36080           OUTCHR>                 ;PRINT THE #, OR A SECOND _ IF THERE
  2476                                  36100                                   ;WERE TOO MANY
  2477  002773' 001000  000315          36120           CALL    CRDO            ;TYPE A CRLF
  2478  002774' 000000  004523'
  2479  002775' 000000  002770'
  2480  002776' 001000  000041          36140   INLIN:  LXI     H,BUF
  2481  002777' 000000  001431'
  2482  003000' 000000  002774'
  2483  003001' 001000  000006          36160           MVI     B,1             ;CHARACTER COUNT
  2484  003002' 000000  000001
  2485  003003' 001000  000315          36180   INLINC: CALL    INCHR           ;GET A CHARACTER
  2486  003004' 000000  003126'
  2487  003005' 000000  002777'
  2488                                  36182   IFN     LENGTH,<
  2489  003006' 001000  000376          36184           CPI     7               ;IS IT BOB ALBRECHT RINGING THE BELL
  2490  003007' 000000  000007
  2491  003010' 001000  000312          36186           JZ      GOODCH>         ;FOR SCHOOL KIDS?
  2492  003011' 000000  003044'
  2493  003012' 000000  003004'
  2494  003013' 001000  000376          36200           CPI     13              ;IS IT A CARRIAGE RETURN?
  2495  003014' 000000  000015
  2496  003015' 001000  000312          36220           JZ      FININL          ;IF SO FINISH UP
  2497  003016' 000000  004516'
  2498  003017' 000000  003011'
  2499  003020' 001000  000376          36240           CPI     32              ;CHECK FOR FUNNY CHARACTERS
  2500  003021' 000000  000040
  2501  003022' 001000  000332          36260           JC      INLINC


-- PAGE 53 --------------------------------------------------------------


BASIC MCS 8080  GATES/ALLEN/DAVIDOFF    MACRO 47(113) 03:12 10-SEP-75 PAGE 8-12
F3      MAC      6-SEP-64 03:11         ERROR HANDLER, READY, COMPACTIFICATION, NEW, CLEAR, MAIN

  2502  003023' 000000  003003'
  2503  003024' 000000  003016'
  2504  003025' 001000  000376                          CPI     125
  2505  003026' 000000  000175
  2506  003027' 001000  000322          36300           JNC     INLINC          ;BIG ONES BAD TOO
  2507  003030' 000000  003003'
  2508  003031' 000000  003023'
  2509  003032' 001000  000376          36320           CPI     "#"             ;LINE DELETE?
  2510  003033' 000000  000100
  2511  003034' 001000  000312          36340           JZ      INLINN
  2512  003035' 000000  002772'
  2513  003036' 000000  003030'
  2514  003037' 001000  000376          36360           CPI     "_"             ;CHARACTER DELETE
  2515  003040' 000000  000137
  2516  003041' 001000  000312          36380           JZ      LINLIN
  2517  003042' 000000  002764'
  2518  003043' 000000  003035'
  2519  003044' 001000  000117          36400   GOODCH: MOV     C,A
  2520  003045' 001000  000170          36420           MOV     A,B
  2521  003046' 001000  000376          36440           CPI     BUFLEN
  2522  003047' 000000  000110
  2523  003050' 001000  000076          36460           MVI     A,7             ;GET A BELL IN CASE LINE TOO LONG.
  2524  003051' 000000  000007
  2525  003052' 001000  000322          36480           JNC     OUTBEL          ;LINE TOO LONG, RING BELL.
  2526  003053' 000000  003061'
  2527  003054' 000000  003042'
  2528  003055' 001000  000171          36500           MOV     A,C
  2529  003056' 001000  000161          36520           MOV     M,C             ;STORE THIS CHARACTER
  2530  003057' 001000  000043          36540           INX     H
  2531  003060' 001000  000004          36560           INR     B
  2532  003061'                         36580   OUTBEL:
  2533                                  36660   IFN     REALIO,<
  2534  003061' 001000  000337          36620           OUTCHR>
  2535  003062' 001000  000303          36640           JMP     INLINC
  2536  003063' 000000  003003'
  2537  003064' 000000  003053'
  2538  003065'                         36660   OUTCON:
  2539                                  36680   IFN     CONTRW,<
  2540  003065' 001000  000302          36700           JNZ     PPSWRT>         ;NO, DO OUTPUT
  2541  003066' 000000  010024'
  2542  003067' 000000  003063'
  2543                                  36720   IFN     REALIO,<                ;MITS I/O
  2544                                  36740   IFN     LPTSW,<
  2545                                  36760           LDA     PRTFLG          ;SEE IF WE WANT TO TALK TO LPT
  2546                                  36780           ORA     A               ;TEST BITS
  2547                                  36800           JZ      TTYCHR          ;IF ZERO THEN NOT
  2548                                  36820           POP     PSW             ;GET CHARACTER WE WANT TO PRINT
  2549                                  36840           PUSH    PSW
  2550                                  36860           CPI     13              ;IS IT CARRIAGE RETURN?
  2551                                  37880           CZ      PRINTW          ;FORCE OUT A LINE
  2552                                  37900           JC      PPSWRT          ;IF FUNNY CONTROL CHARACTER (LF) DO NOTHING
  2553                                  37920           LDA     LPTPOS          ;WHERE ARE WE?
  2554                                  37940           CPI     LPTLEN          ;AT THE END?


-- PAGE 54 --------------------------------------------------------------


BASIC MCS 8080  GATES/ALLEN/DAVIDOFF    MACRO 47(113) 03:12 10-SEP-75 PAGE 8-13
F3      MAC      6-SEP-64 03:11         ERROR HANDLER, READY, COMPACTIFICATION, NEW, CLEAR, MAIN

  2555                                  36960           CNC     PRINTW          ;YES, START OVER
  2556                                  36980           INR     A
  2557                                  37000           STA     LPTPOS
  2558                                  37020   LPTWAT: IN      2
  2559                                  37040           ANI     2
  2560                                  37060           JZ      LPTWAT
  2561                                  37080           POP     PSW
  2562                                  37100           OUT     3               ;SEND OUT CHAR
  2563                                  37120           RET                     ;RETURN
  2564                                  37140   PATLPT: BLOCK   20
  2565                                  37160   FINLPT: XRA     A               ;RESET PRINT FLAG SO OUTPUT
  2566                                  37180           STA     PRTFLG          ;GOES TO THE TERMINAL
  2567                                  37200           LDA     LPTPOS          ;SEE IF ANY LEFTOVERS MUST BE
  2568                                  37220           ORA     A               ;FORCED OUT
  2569                                  37240           RZ                      ;BY LOOKING AT LPTPOS
  2570                                  37260   PRINTW: IN      2               ;MAKE SURE LAST PRINT
  2571                                  37280           ANI     2               ;FINISHED BY TESTING DONE
  2572                                  37300           JZ      PRINTW          ;BIT
  2573                                  37320   ;SEE IF BUFFER MUST BE EMPTIED
  2574                                  37340           LDA     LPTPOS
  2575                                  37360           ORA     A               ;CHARACTERS IN THE BUFFER?
  2576                                  37380           JNZ     PRINTR          ;IF SO DON'T CLEAR THE BUFFER
  2577                                  37400           MVI     A,4             ;OTHERWISE BUFFER MUST BE EMPTIED
  2578                                  37420           OUT     2               ;CLEAR THE BUFFER
  2579                                  37440                                   ;TO PRINT A BLANK LINE
  2580                                  37460   PRINTR: MVI     A,1             ;TELL LPT TO PRINT
  2581                                  37480           OUT     2               ;STATUS REG
  2582                                  37500           DCR     A               ;[A]=0
  2583                                  37520           STA     LPTPOS          ;RESET LINE PRINT POSITION
  2584                                  37540           RET>
  2585  003070'                         37560   TTYCHAR:>
  2586                                  37580   IFN     STRING,<
  2587  003070' 001000  000361          37600           POP     PSW             ;GET THE CHARACTER
  2588  003071' 001000  000365          37620           PUSH    PSW             ;AND SAVE IT AGAIN
  2589  003072' 001000  000376          37640           CPI     32              ;IS THIS A MEANINGFUL CHARACTER?
  2590  003073' 000000  000040
  2591  003074' 001000  000332          37660           JC      TRYOUT>         ;IF IT'S A NON-PRINTING CHARACTER
  2592  003075' 000000  003113'
  2593  003076' 000000  003066'
  2594                                  37680                                   ;DON'T INCLUDE IT IN TTYPOS
  2595                                  37700   IFN     LENGTH!CONTRW!LPTSW,<
  2596  003077' 001000  000072          37720           LDA     TTYPOS>         ;SEE IF PRINT READ IS AT THE END OF THE LINE
  2597  003100' 000000  000047'
  2598  003101' 000000  003075'
  2599                                  37740           CPI     LINLEN          ;MODIFIED BY "TERMINAL WIDTH?" QUESTION IN INIT
  2600  003102' 001000  000376
  2601  003103' 000000  000110
  2602                  003103'         37760   LINPT1==:.-1
  2603  003104' 001000  000314          37780           CZ      CRDO            ;TYPE CRLF AND SET TTYPOS AND [A]=O IF SO
  2604  003105' 000000  004523'
  2605  003106' 000000  003100'
  2606  003107' 001000  000074          37800           INR     A               ;INCREMENT TTYPOS SINCE WE'RE
  2607                                  38820                                   ;GOING TO PRINT A CHARACTER.


-- PAGE 55 --------------------------------------------------------------


BASIC MCS 8080  GATES/ALLEN/DAVIDOFF    MACRO 47(113) 03:12 10-SEP-75 PAGE 8-14
F3      MAC      6-SEP-64 03:11         ERROR HANDLER, READY, COMPACTIFICATION, NEW, CLEAR, MAIN

  2608  003110' 001000  000062          37840           STA     TTYPOS          ;STORE NEW PRINT HEAD POSITION
  2609  003111' 000000  000047'
  2610  003112' 000000  003105'
  2611  003113'                         37860   TRYOUT:
  2612                                  37880   IFN     REALIO,<
  2613  003113' 001000  000333          37900   NOPRIN: IN      0               ;GET STATUS
  2614  003114' 000000  000000
  2615                  003114'         37920   CNLCA1==.-1                     ;CONSOLE COMMAND CHANGE LOC
  2616  003115' 001000  000346          37940           ANI     ODONE           ;OK TO SEND CHAR
  2617  003116' 000000  000200
  2618  003117' 001000  000302          37960           JNZ     NOPRIN>         ;KEEP LOOKING
  2619  003120' 000000  003113'
  2620  003121' 000000  003111'
  2621  003122' 001000  000361          37980           POP     PSW             ;GET CHARACTER BACK
  2622  003123' 001000  000323          38000           OUT     TTOCHN          ;SEND OUT THE CHAR
  2623  003124' 000000  000001
  2624                  003124'         38020   CNLCB1==.-1                     ;CONSOLE COMMAND CHANGE LOC
  2625  003125' 001000  000311          38040           RET                     ;RETURN FROM OUTCHR
  2626
  2627
  2628  003126'                         38100   INCHR:  IFN     REALIO,<
  2629  003126' 001000  000333          38120   TRYIN:  IN      0               ;GET STATUS
  2630  003127' 000000  000000
  2631                  003127'         38140   CNLCA2==.-1                     ;CONSOLE COMMAND CHANGE LOC
  2632  003130' 001000  000346          38160           ANI     IDONE           ;TEST BIT
  2633  003131' 000000  000001
  2634  003132' 001000  000302          38180           JNZ     TRYIN>          ;GO BACK & DO IT AGAIN
  2635  003133' 000000  003126'
  2636  003134' 000000  003120'
  2637  003135' 001000  000333          38200           IN      TTICHN          ;GET A CHAR
  2638  003136' 000000  000001
  2639                  003136'         38220   CNLCB2==.-1                     ;CONSOLE COMMAND CHANGE LOC
  2640  003137' 001000  000346          38240           ANI     127             ;GET RID OF PARITY BIT
  2641  003140' 000000  000177
  2642                                  38260   IFN     CONTRW,<
  2643  003141' 001000  000376          38280           CPI     CONTW           ;IS IT SUPRESS OUTPUT?
  2644  003142' 000000  000017
  2645  003143' 001000  000300          38300           RNZ
  2646  003144' 001000  000072          38320           LDA     CNTWFL
  2647  003145' 000000  001541'
  2648  003146' 000000  003133'
  2649  003147' 001000  000057          38340           CMA                     ;COMPLEMENT ITS STATE
  2650  003150' 001000  000062          38360           STA     CNTWFL>         ;SAVE BACK
  2651  003151' 000000  001541'
  2652  003152' 000000  003145'
  2653  003153' 001000  000311          38380           RET
  2654                                  38400   PAGE


-- PAGE 56 --------------------------------------------------------------


BASIC MCS 8080  GATES/ALLEN/DAVIDOFF    MACRO 47(113) 03:12 10-SEP-75 PAGE 9
F3      MAC      6-SEP-64 03:11         THE "LIST" COMMAND

  2655                                  38420   SUBTTL  THE "LIST" COMMAND
  2656
  2657                                  38460   IFN     LENGTH-2,<
  2658                                  38480   IFN     LPTSW,<
  2659                                  38500   LLIST:  MVI     A,1             ;GET NON ZERO VALUE
  2660                                  38520           STA     PRTFLG>         ;SAVE IN I/O FLAG
  2661                                  38540   LIST:   CALL    LINGET          ;GET LINE NUMBER INTO [D,E]
  2662                                  38560           RNZ                     ;MUST BE A TERMINATOR OR ERROR
  2663                                  38580           POP     B               ;GET RID OF NEWSTT RETURN ADDR
  2664                                  38600           CALL    FNDLIN          ;FIND LINE GREATER THAN OR EQUAL TO [D,E]
  2665                                  38620           PUSH    B               ;SAVE START POINTER
  2666                                  38640   LIST4:  POP     H               ;GET POINTER TO LINE
  2667                                  38660           PUSHM                   ;PUSH LINK
  2668                                  38680           POP     B               ;TAKE OFF FOR A SECOND
  2669                                  38700           MOV     A,B             ;SEE IF END OF CHAIN
  2670                                  38720           ORA     C
  2671                                  38740           JZ      READY
  2672                                  38760   IFN     LISTEN,<
  2673                                  38780           CALL    ISCNTC>         ;CHECK FOR CONTROL-C
  2674                                  38800           PUSH    B               ;PUT BACK ON
  2675                                  38820           CALL    CRDO            ;DO CRLF TO START OUT
  2676                                  38840           PUSHM                   ;PUSH LINE #
  2677                                  38860           XTHL                    ;GET LINE # INTO [H,L]
  2678                                  38880                                   ;AND WE WANT [H,L] ON THE STACK
  2679                                  38900           CALL    LINPRT          ;PRINT AS INT WITOUT LEADING SPACE
  2680                                  38920           MVI     A," "
  2681                                  38940   PRIT4:  POP     H               ;RESTORE POINTER TO START OF TEXT
  2682                                  38960   PLOOP:  OUTCHR                  ;ALWAYS A SPACE AFTER THE LINE #
  2683                                  38980           MOV     A,M             ;GET A CHARACTER FROM LINE.
  2684                                  39000           ORA     A               ;IS IT A RESERVED WORD
  2685                                  39020           INX     H               ;INCREMENT POINTER INTO TEXT
  2686                                  39040           JZ      LIST4           ;ZERO, END OF LINE, GET NEXT LINE
  2687                                  39060           JP      PLOOP           ;REGULAR CHAR, JUST PRINT IT
  2688                                  39080           SUI     127             ;GET RID OF SIGN BIT AND ADD ONE
  2689                                  39100           MOV     C,A             ;GET RESERVED WORD # IN C
  2690                                  39120           PUSH    H               ;SAVE CURRENT POSIT
  2691                                  39140           LXI     D,RESLST        ;GET RESLST POINTER.
  2692                                  39160   RESRCH: PUSH    D               ;SAVE
  2693                                  39180
  2694                                  39200   RESCR1: LDAX    D               ;GET CHARACTER FROM RESLST
  2695                                  39220           INX     D               ;BUMP RESLST POINTER
  2696                                  39240           ORA     A               ;TEST BITS
  2697                                  39260           JP      RESCR1          ;NOT AT END OF RESERVED WORD YET
  2698                                  39280           DCR     C               ;DECREMENT CHAR
  2699                                  39300           POP     H               ;POP START POINTER HERE
  2700                                  39320           JNZ     RESRCH          ;NOT AT END OF RESLST YET.
  2701                                  39340   ;HERE WHEN FOUND RIGHT RESERVED WORD
  2702                                  39360   PRIT3:  MOV     A,M             ;GET A CHARACTER FROM RESERVED WORD
  2703                                  39380           ORA     A               ;SET CONDITION CODES
  2704                                  39400           JM      PRIT4
  2705                                  39420           OUTCHR
  2706                                  39440           INX     H               ;BUMP RESLST POINTER
  2707                                  39460           JMP     PRIT3>          ;PRINT THE REST


-- PAGE 57 --------------------------------------------------------------


BASIC MCS 8080  GATES/ALLEN/DAVIDOFF    MACRO 47(113) 03:12 10-SEP-75 PAGE 9-1
F3      MAC      6-SEP-64 03:11         THE "LIST" COMMAND

  2708
  2709
  2710                                  39520   PAGE


-- PAGE 58 --------------------------------------------------------------


BASIC MCS 8080  GATES/ALLEN/DAVIDOFF    MACRO 47(113) 03:12 10-SEP-75 PAGE 10
F3      MAC      6-SEP-64 03:11         "FOR" STATEMENT

  2711                                  39540   SUBTTL  "FOR" STATEMENT
  2712                                  39560   ;
  2713                                  39580   ; NOTE:
  2714                                  39600   ;
  2715                                  39620   ; A FOR ENTRY ON THE STACK HAS THE FOLLOWING FORMAT:
  2716                                  39640   ;
  2717                                  39680   ;
  2718                                  39700   ; LOW ADDRESS
  2719                                  39720   ;       TOKEN (FORTK IN HIGH BYTE)  1 BYTE
  2720                                  39740   ;       A POINTER TO THE LOOP VARIABLE  2 BYTES
  2721                                  39760   ;       A BYTE REFLECTING THE SIGN OF THE INCREMENT 1 BYTE
  2722                                  39780   ;       THE STEP 4 BYTES
  2723                                  39800   ;       THE UPPER VALUE 4 BYTES
  2724                                  39820   ;       THE LINE # OF THE "FOR" STATEMENT 2 BYTES
  2725                                  39840   ;       A TEXT POINTER INTO THE "FOR" STATEMENT 2 BYTES
  2726                                  39860   ; HIGH ADDRESS
  2727                                  39880   ;
  2728                                  39900   ; TOTAL 16 BYTES
  2729                                  39920   ;
  2730
  2731  003154'                         39960   FOR:    IFN     LENGTH,<
  2732  003154' 001000  000076          39980           MVI     A,100
  2733  003155' 000000  000144
  2734  003156' 001000  000062          40000           STA     SUBFLG>         ;DONT RECOGNIZE SUBSCRIPTED VARIABLES
  2735  003157' 000000  001601'
  2736  003160' 000000  003151'
  2737  003161' 001000  000315          40020           CALL    LET             ;READ THE VARIABLE AND ASSIGN IT
  2738  003162' 000000  004131'
  2739  003163' 000000  003157'
  2740                                  40040                                   ;THE CORRECT INTIAL VALUE
  2741                                  40060                                   ;AND STORE A POINTER
  2742                                  40080                                   ;TO THE VARIABLE IN [TEMP]
  2743  003164' 001000  000343          40100           XTHL                    ;SAVE TEXT PTR ON THE STACK
  2744  003165' 001000  000315          40120           CALL    FNDFOR          ;MUST HAVE VARIABLE POINTER IN [D,E]
  2745  003166' 000000  001744'
  2746  003167' 000000  003162'
  2747  003170' 001000  000321          40140           POP     D               ;[D,E]=TEXT POINTER
  2748  003171' 001000  000302          40160           JNZ     NOTOL           ;IF NO MATCHING ENTRY, DON'T
  2749  003172' 000000  003176'
  2750  003173' 000000  003166'
  2751                                  40180                                   ;ELIMINATE ANYTHING
  2752  003174' 001000  000011          40200           DAD     B               ;IN THE CASE OF "FOR"
  2753                                  40220                                   ;WE ELIMINATE THE MATCHING ENTRY
  2754                                  40240                                   ;AS WELL AS EVERYTHING AFTER IT
  2755  003175' 001000  000371          40260           SPHL                    ;DO THE ELIMINATION
  2756                                  40280                                   ;SINCE A MATCHING ENTRY WAS FOUND
  2757  003176' 001000  000353          40300   NOTOL:  XCHG                    ;[H,L]=TEXT POINTER
  2758  003177' 001000  000315          40320           CALL    GETSTK
  2759  003200' 000000  002024'
  2760  003201' 000000  003172'
  2761  003202' 000000  000010          40340           8                       ;MAKE SURE 16 BYTES ARE AVAILABLE
  2762                                  40360                                   ;OFF OF THE STACK
  2763  003203' 001000  000345          40380           PUSH    H               ;REALLY SAVE THE TEXT POINTER


-- PAGE 59 --------------------------------------------------------------


BASIC MCS 8080  GATES/ALLEN/DAVIDOFF    MACRO 47(113) 03:12 10-SEP-75 PAGE 10-1
F3      MAC      6-SEP-64 03:11         "FOR" STATEMENT

  2764  003204' 001000  000315          40400           CALL    DATA            ;GET AN [H,L] THAT POINTS
  2765  003205' 000000  004072'
  2766  003206' 000000  003200'
  2767                                  40420                                   ;JUST BEYOND THE TERMINATOR
  2768  003207' 001000  000343          40440           XTHL                    ;PUT [H,L] POINTER TO TERMINATOR ON THE STACK
  2769                                  40460                                   ;AND RESTORE [H,L] AS TEXT POINTER AT
  2770                                  40480                                   ;VARIABLE NAME
  2771  003210' 001000  000345          40500           PUSH    H               ;PUSH THE TEXT POINTER ONTO THE STACK
  2772  003211' 001000  000052          40520           LHLD    CURLIN          ;[H,L] GET THE CURRENT LINE #
  2773  003212' 000000  001607'
  2774  003213' 000000  003205'
  2775  003214' 001000  000343          40540           XTHL                    ;NOW THE CURRENT LINE # IS ON THE STACK AND
  2776                                  40560                                   ;[H,L] IS THE TEXT POINTER
  2777                                  40580   IFN     LENGTH-2,<
  2778                                  40600   IFN     STRING,<CALL    CHKNUM>>
  2779  003215' 001000  000317          40620           SYNCHK  TOTK            ;"TO" IS NECESSARY
  2780  003216' 000000  000241
  2781                                  40640   IFN     LENGTH-2,<              ;READ FINAL VALUE
  2782                                  40660           CALL    FRMNUM>
  2783                                  40680   IFE     LENGTH-2,<
  2784  003217' 001000  000315          40700           CALL    FRCSNG>
  2785  003220' 000000  005336'
  2786  003221' 000000  003212'
  2787  003222' 001000  000345          40720           PUSH    H               ;SAVE THE TEXT POINTER
  2788                                  40740   IFE     LENGTH-2,<
  2789  003223' 001000  000315          40760           CALL    FRCSNG>
  2790  003224' 000000  000670*
  2791  003225' 000000  003220'
  2792  003226' 001000  000315          40780           CALL    MOVRF           ;GET THE STUFF
  2793  003227' 000000  000000*
  2794  003230' 000000  003224'
  2795  003231' 001000  000341          40800           POP     H               ;REGAIN TEXT POINTER
  2796  003232' 001000  000305          40820           PUSH    B               ;OPPOSITE OF PUSHR
  2797  003233' 001000  000325          40840           PUSH    D               ;SAVE THE SIGN OF THE INCREMENT
  2798  003234' 001000  000001          40860           LXI     B,$CODE+^O201*256
  2799  003235' 000000  100400'
  2800  003236' 000000  003227'
  2801  003237' 001000  000121          40880           MOV     D,C
  2802  003240' 001000  000132          40900           MOV     E,D             ;GET 1.0 IN THE REGISTERS
  2803  003241' 001000  000176          40920           MOV     A,M             ;GET TERMINATING CHARACTER
  2804  003242' 001000  000376          40940           CPI     STEPTK          ;DO WE HAVE "STEP" ?
  2805  003243' 000000  000247
  2806  003244' 001000  000076          40960           MVI     A,1             ;SETUP DEFAULT SIGN
  2807  003245' 000000  000001
  2808  003246' 001000  000302          40980           JNZ     ONEON           ;PUSH SOME CONSTANTS ON IF NOT
  2809  003247' 000000  003265'
  2810  003250' 000000  003235'
  2811                                  41000   IFN     LENGTH-2,<
  2812                                  41020   IFN     STRING,<
  2813                                  41040           CHRGET
  2814                                  41060           CALL    FRMNUM>>        ;READ THE STEP
  2815                                  41080   IFE     <LENGTH-2>&STRING,<
  2816  003251' 001000  000315          41100           CALL    FRMCHK>         ;DON'T NEED TO CHECK THE TYPE


-- PAGE 60 --------------------------------------------------------------


BASIC MCS 8080  GATES/ALLEN/DAVIDOFF    MACRO 47(113) 03:12 10-SEP-75 PAGE 10-2
F3      MAC      6-SEP-64 03:11         "FOR" STATEMENT

  2817  003252' 000000  005337'
  2818  003253' 000000  003247'
  2819  003254' 001000  000345          41120           PUSH    H
  2820                                  41140   IFE     LENGTH-2,<
  2821  003255' 001000  000315          41160           CALL    FRCSNG>
  2822  003256' 000000  003224*
  2823  003257' 000000  003252'
  2824  003260' 001000  000315          41180           CALL    MOVRF           ;SET UP THE REGISTERS
  2825  003261' 000000  003227*
  2826  003262' 000000  003256'
  2827  003263' 001000  000341          41200           POP     H
  2828  003264' 001000  000357          41220           FSIGN                   ;GET THE SIGN OF THE INCREMENT
  2829  003265' 001000  000305          41240   ONEON:  PUSH    B               ;PUT VALUE ON BACKWARDS
  2830  003266' 001000  000325          41260           PUSH    D               ;OPPOSITE OF PUSHR
  2831  003267' 001000  000365          41280   IFORDN: PUSH    PSW             ;SAVE THE SIGN OF THE INCREMENT
  2832  003270' 001000  000063          41300           INX     SP              ;A ONE BYTE ENTRY ONLY
  2833  003271' 001000  000345          41320           PUSH    H
  2834  003272' 001000  000052          41340           LHLD    TEMP            ;GET THE POINTER TO THE VARIABLE BACK
  2835  003273' 000000  001603'
  2836  003274' 000000  003261'
  2837  003275' 001000  000343          41360           XTHL                    ;PUT THE POINTER TO THE VARIABLE
  2838                                  41380                                   ;ONTO THE STACK AND RESTORE THE TEXT POINTER
  2839  003276' 001000  000006          41400   NXTCON: MVI     B,FORTK         ;PUT A "FOR" TOKEN ONTO THE STACK
  2840  003277' 000000  000201
  2841  003300' 001000  000305          41420           PUSH    B
  2842  003301' 001000  000063          41440           INX     SP              ;THE "TOKEN" ONLY TAKES ONE BYTE OF
  2843                                  41460                                   ;STACK SPACE
  2844                                  41480   ;       JMP     NEWSTT          ;ALL DONE
  2845                                  41500   PAGE


-- PAGE 61 --------------------------------------------------------------


BASIC MCS 8080  GATES/ALLEN/DAVIDOFF    MACRO 47(113) 03:12 10-SEP-75 PAGE 11
F3      MAC      6-SEP-64 03:11         NEW STATEMENT FETCHER

  2846                                  41520   SUBTTL NEW STATEMENT FETCHER
  2847                                  41540   ;
  2848                                  41560   ;
  2849                                  41580   ;
  2850                                  41600   ;
  2851                                  41620   ;
  2852                                  41640   ;
  2853  003302'                         41660   NEWSTT:
  2854                                  41680   IFN     LISTEN,<
  2855                                  41700   IFN     LENGTH,<
  2856  003302' 001000  000333          41720           IN      0               ;CHECK FOR A CHARACTER WITHOUT
  2857  003303' 000000  000000
  2858                                  41740                                   ;DOING A "CALL" FOR SPEED
  2859                  003303'         41760   CNLCA4==:.-1
  2860  003304' 001000  000346          41780           ANI     IDONE           ;CHARACTER THERE?
  2861  003305' 000000  000001
  2862  003306' 001000  000314          41800           CZ      CNTCCN>         ;SEE IF IT'S A CONTROL-C
  2863  003307' 000000  003465'
  2864  003310' 000000  003273'
  2865                                  41820   IFE     LENGTH,<
  2866                                  41840           CALL    ISCNTC>>
  2867                                  41860   IFN     LENGTH,<
  2868  003311' 001000  000042          41880           SHLD    TEMP>           ;USED BY CONTINUE AND INPUT AND CLEAR
  2869  003312' 000000  001603'
  2870  003313' 000000  003307'
  2871                                  41900                                   ;TO REMEMBER HOW TO RESTART THIS
  2872                                  41920                                   ;STATEMENT
  2873                                  41940   IFN     LPTSW,<XRA      A       ;FOR PRINT TO GO TO TTY AFTER LPRINT
  2874                                  41960           STA     PRTFLG>
  2875  003314' 001000  000176          41980           MOV     A,M             ;GET CURRENT CHARACTER
  2876                                  42000                                   ;WHICH TERMINATED THE LAST STATEMENT
  2877  003315' 001000  000376          42020           CPI     ":"             ;IS IT A COLON
  2878  003316' 000000  000072
  2879  003317' 001000  000312          42040           JZ      GONE
  2880  003320' 000000  003370'
  2881  003321' 000000  003312'
  2882  003322' 001000  000267          42060           ORA     A
  2883  003323' 001000  000302          42080           JNZ     SNERR           ;MUST BE ZERO
  2884  003324' 000000  002072'
  2885  003325' 000000  003320'
  2886  003326' 001000  000043          42100           INX     H
  2887  003327' 001000  000176          42120           MOV     A,M             ;CHECK POINTER TO SEE IF
  2888                                  42140                                   ;IT IS ZERO, IF SO WE ARE AT THE
  2889                                  42160                                   ;END OF THE PROGRAM
  2890  003330' 001000  000043          42180           INX     H
  2891  003331' 001000  000266          42200           ORA     M               ;OR IN HIGH PART
  2892  003332' 001000  000043          42220           INX     H
  2893  003333' 001000  000312          42240           JZ      ENDCON          ;RAN OFF THE END -- OK
  2894  003334' 000000  003501'
  2895  003335' 000000  003324'
  2896  003336' 001000  000136          42260           MOV     E,M
  2897  003337' 001000  000043          42280           INX     H
  2898  003340' 001000  000126          42300           MOV     D,M             ;GET LINE # IN [D,E]


-- PAGE 62 --------------------------------------------------------------


BASIC MCS 8080  GATES/ALLEN/DAVIDOFF    MACRO 47(113) 03:12 10-SEP-75 PAGE 11-1
F3      MAC      6-SEP-64 03:11         NEW STATEMENT FETCHER

  2899  003341' 001000  000353          42320           XCHG                    ;[H,L]=LINE #
  2900  003342' 001000  000042          42340           SHLD    CURLIN          ;SETUP CURLIN WITH THE CURRENT LINE #
  2901  003343' 000000  001607'
  2902  003344' 000000  003334'
  2903                                  42360   IFE     LENGTH-2,<              ;TRACE FEATURE
  2904  003345' 001000  000072          42380           LDA     TRCFLG          ;SEE IF TRACE IT ON
  2905  003346' 000000  001631'
  2906  003347' 000000  003343'
  2907  003350' 001000  000267          42400           ORA     A               ;NON-ZERO MEANS YES
  2908  003351' 001000  000312          42420           JZ      NOTTRC          ;SKIP THIS PRINTING
  2909  003352' 000000  003367'
  2910  003353' 000000  003346'
  2911  003354' 001000  000325          42440           PUSH    D               ;SAVE THE TEXT POINTER
  2912  003355' 001000  000076          42460           MVI     A,"["           ;FORMAT THE LINE NUMBER
  2913  003356' 000000  000133
  2914  003357' 001000  000337          42480           OUTCHR                  ;OUTPUT IT
  2915  003360' 001000  000315          42500           CALL    LINPRT          ;PRINT THE LINE # IN [H,L]
  2916  003361' 000000  000000*
  2917  003362' 000000  003352'
  2918  003363' 001000  000076          42520           MVI     A,"]"           ;SOME MORE FORMATING
  2919  003364' 000000  000135
  2920  003365' 001000  000337          42540           OUTCHR
  2921  003366' 001000  000321          42560           POP     D               ;[D,E]=TEXT POINTER
  2922  003367'                         42580   NOTTRC:>
  2923  003367' 001000  000353          42600           XCHG                    ;RESTORE THE TEXT POINTER
  2924  003370' 001000  000327          42620   GONE:   CHRGET                  ;GET THE STATEMENT TYPE
  2925  003371' 001000  000021          42640           LXI     D,NEWSTT        ;PUSH ON A RETURN ADDRESS OF NEWSTT
  2926  003372' 000000  003302'
  2927  003373' 000000  003361'
  2928  003374' 001000  000325          42660           PUSH    D               ;STATEMENT
  2929  003375' 001000  000310          42680   GONE3:  RZ                      ;IF A TERMINATOR TRY AGAIN
  2930                                  42700                                   ;"IF" COMES HERE
  2931  003376' 001000  000326          42720   GONE2:  SUI     ENDTK           ;"ON ... GOTO" AND "ON ... GOSUB"
  2932  003377' 000000  000200
  2933  003400' 001000  000332          42740           JC      LET             ;MUST BE A LET
  2934  003401' 000000  004131'
  2935  003402' 000000  003372'
  2936                  000040          42760   NUMCMD=SCRATK-ENDTK+1
  2937  003403' 001000  000376          42780           CPI     NUMCMD
  2938  003404' 000000  000040
  2939  003405' 001000  000322          42800           JNC     SNERR           ;SOME RESERVED WORD,BUT NOT
  2940  003406' 000000  002072'
  2941  003407' 000000  003401'
  2942                                  42820                                   ;A STATEMENT RESERVED WORD
  2943  003410' 001000  000007          42840           RLC                     ;MULTIPLY BY 2
  2944  003411' 001000  000117          42860           MOV     C,A
  2945  003412' 001000  000006          42880           MVI     B,0
  2946  003413' 000000  000000
  2947  003414' 001000  000353          42900           XCHG
  2948  003415' 001000  000041          42920           LXI     H,STMDSP        ;STATEMENT DISPATCH TABLE
  2949  003416' 000000  000564'
  2950  003417' 000000  003406'
  2951  003420' 001000  000011          42940           DAD     B               ;ADD ON OFFSET


-- PAGE 63 --------------------------------------------------------------


BASIC MCS 8080  GATES/ALLEN/DAVIDOFF    MACRO 47(113) 03:12 10-SEP-75 PAGE 11-2
F3      MAC      6-SEP-64 03:11         NEW STATEMENT FETCHER

  2952  003421' 001000  000116          42960           MOV     C,M             ;PUSH THE ADDRESS TO GO TO ONTO
  2953  003422' 001000  000043          42980           INX     H               ;THE STACK
  2954  003423' 001000  000106          43000           MOV     B,M             ;PUSHM SAVES BYTES BUT NOT SPEED
  2955  003424' 001000  000305          43020           PUSH    B
  2956  003425' 001000  000353          43040           XCHG                    ;RESTORE THE TEXT POINTER
  2957                                  43060   IFE     LENGTH,<
  2958                                  43080           CHRGET                  ;EAT THE FIRST CHARACTER
  2959                                  43100           RET>                    ;GO DO THE STATEMENT
  2960                                  43120   IFN     LENGTH,<
  2961  003426' 001000  000043          43140   CHRGTR: INX     H               ;DUPLICATION OF CHRGET RST FOR SPEED
  2962  003427' 001000  000176          43160           MOV     A,M             ;SEE CHRGET RST FOR EXPLANATION
  2963  003430' 001000  000376          43180           CPI     ":"
  2964  003431' 000000  000072
  2965  003432' 001000  000320          43200           RNC>
  2966                                  43220   ;
  2967                                  43240   ; CHRCON IS THE CONTINUATION OF THE CHRGET RST
  2968                                  43260   ;
  2969  003433' 001000  000376          43280   CHRCON: CPI     " "             ;MUST SKIP SPACES
  2970  003434' 000000  000040
  2971  003435' 001000  000312          43300           JZ      CHRGTR          ;GET ANOTHER CHARACTER
  2972  003436' 000000  003426'
  2973  003437' 000000  003416'
  2974  003440' 001000  000376          43320           CPI     "0"             ;ALL CHARACTERS GREATER THAN
  2975  003441' 000000  000060
  2976                                  43340                                   ;"9" HAVE RETURNED, SO SEE IF NUMERIC
  2977  003442' 001000  000077          43360           CMC                     ;MAKE NUMERICS HAVE CARRY ON
  2978  003443' 001000  000074          43380           INR     A               ;SET ZERO IF [A]=0
  2979  003444' 001000  000075          43400           DCR     A
  2980  003445' 001000  000311          43420           RET
  2981                                  43440   PAGE


-- PAGE 64 --------------------------------------------------------------


BASIC MCS 8080  GATES/ALLEN/DAVIDOFF    MACRO 47(113) 03:12 10-SEP-75 PAGE 12
F3      MAC      6-SEP-64 03:11         RESTORE,STOP,END,LINGET,CHRCON

  2982                                  43460   SUBTTL RESTORE,STOP,END,LINGET,CHRCON
  2983
  2984  003446' 001000  000353          43500   RESTOR: XCHG                    ;SAVE [H,L] IN [D,E]
  2985  003447' 001000  000052          43520           LHLD    TXTTAB
  2986  003450' 000000  001617'
  2987  003451' 000000  003436'
  2988  003452' 001000  000053          43540           DCX     H               ;INITIALIZE DATPTR TO [TXTTAB]-1
  2989  003453' 001000  000042          43560   RESFIN: SHLD    DATPTR          ;READ FINISHES COME TO RESFIN
  2990  003454' 000000  001627'
  2991  003455' 000000  003450'
  2992  003456' 001000  000353          43580           XCHG                    ;GET THE TEXT POINTER BACK
  2993  003457' 001000  000311          43600           RET
  2994
  2995                                  43640   IFN     LISTEN,<
  2996  003460' 001000  000333          43660   ISCNTC: IN      0
  2997  003461' 000000  000000
  2998                  003461'         43680   CNLCA3==.-1                     ;CONSOLE COMMAND CHANGE LOC
  2999  003462' 001000  000346          43700           ANI     IDONE
  3000  003463' 000000  000001
  3001  003464' 001000  000300          43720           RNZ                     ;IF NO CHARACTERS THAN NO ^C
  3002  003465' 001000  000315          43740   CNTCCN: CALL    INCHR
  3003  003466' 000000  003126'
  3004  003467' 000000  003454'
  3005  003470' 001000  000376          43760           CPI     3               ;STOP CHARACTER IS ^C
  3006  003471' 000000  000003
  3007                                  43780   IFE     LENGTH,<
  3008                                  43800           JMP     STOP>>
  3009                                  43820   IFN     LENGTH,<
  3010  003472' 001000  000300          43840   STOP:   RNZ                     ;RETURN IF NOT CONTROL-C AND MAKE
  3011                                  43860                                   ;SURE "STOP" STATEMENTS HAVE A TERMINATOR
  3012  003473' 001000  000366          43880           XWD     ^O1000,^O366    ;SETUP [A] AS A FLAG WHETHER
  3013                                  43900                                   ;TO TYPE THE BREAK MESSAGE
  3014  003474' 001000  000300          43920   END:    RNZ                     ;MAKE SURE "END" STATEMENTS HAVE A TERMINATOR
  3015  003475' 001000  000042          43940           SHLD    TEMP            ;SAVE FOR "CONTINUE"
  3016  003476' 000000  001603'
  3017  003477' 000000  003466'
  3018  003500' 001000  000301          43960   STPEND: POP     B               ;POP OFF NEWSTT ADDRESS
  3019  003501' 001000  000365          43980   ENDCON: PUSH    PSW             ;SAVE THE MESSAGE FLAG
  3020                                  44000                                   ;ZERO MEANS DON'T PRINT "BREAK"
  3021  003502' 001000  000052          44020           LHLD    CURLIN          ;SAVE CURLIN
  3022  003503' 000000  001607'
  3023  003504' 000000  003476'
  3024  003505' 001000  000175          44040           MOV     A,L
  3025  003506' 001000  000244          44060           ANA     H               ;SEE IF IT WAS DIRECT
  3026  003507' 001000  000074          44080           INR     A
  3027  003510' 001000  000213          44100           JZ      DIRIS           ;IF NOT SET UP FOR CONTINUE
  3028  003511' 000000  003524'
  3029  003512' 000000  003503'
  3030  003513' 001000  000042          44120           SHLD    OLDLIN          ;SAVE OLD LINE #
  3031  003514' 000000  001611'
  3032  003515' 000000  003511'
  3033  003516' 001000  000052          44140           LHLD    TEMP            ;GET POINTER TO START OF STATEMENT
  3034  003517' 000000  001603'


-- PAGE 65 --------------------------------------------------------------


BASIC MCS 8080  GATES/ALLEN/DAVIDOFF    MACRO 47(113) 03:12 10-SEP-75 PAGE 12-1
F3      MAC      6-SEP-64 03:11         RESTORE,STOP,END,LINGET,CHRCON

  3035  003520' 000000  003514'
  3036  003521' 001000  000042          44160           SHLD    OLDTXT          ;SAVE IT
  3037  003522' 000000  001613'
  3038  003523' 000000  003517'
  3039  003524'                         44180   DIRIS:
  3040                                  44200   IFN     CONTRW,<
  3041  003524' 001000  000257          44220           XRA     A
  3042  003525' 001000  000062          44240           STA     CNTWFL>         ;FORCE OUTPUT
  3043  003526' 000000  001541'
  3044  003527' 000000  003522'
  3045  003530' 001000  000361          44280           POP     PSW             ;GET BACK ^C FLAG
  3046  003531' 001000  000041          44300           LXI     H,BRKTXT        ;"BREAK"
  3047  003532' 000000  001734'
  3048  003533' 000000  003526'
  3049  003534' 001000  000302          44320           JNZ     ERRFIN          ;CALL STROUT AND FALL INTO READY
  3050  003535' 000000  002127'
  3051  003536' 000000  003532'
  3052  003537' 001000  000303          44340           JMP     READY>          ;TYPE "READY"
  3053  003540' 000000  002145'
  3054  003541' 000000  003535'
  3055                                  44360   IFE     REALIO,<
  3056                                  44380   DDT:    POP     B
  3057                                  44400           HRRZ    14,JOBDDT##
  3058                                  44420           JRST    0(14)>
  3059
  3060                                  44460   IFN     LENGTH,<
  3061  003542' 001000  000300          44480   CONT:   RNZ                     ;MAKE SURE THERE IS A TERMINATOR
  3062  003543' 001000  000036          44500           MVI     E,ERRCN
  3063  003544' 000000  000021
  3064  003545' 001000  000052          44520           LHLD    OLDTXT          ;A STORED TEXT POINTER OF
  3065  003546' 000000  001613'
  3066  003547' 000000  003540'
  3067                                  44540                                   ;ZERO IS SETUP BY STKINI
  3068                                  44560                                   ;AND INDICATES THERE IS NOTHING
  3069                                  44580                                   ;TO CONTINUE
  3070  003550' 001000  000174          44600           MOV     A,H             ;"STOP","END",TYPING CRLF
  3071  003551' 001000  000265          44620           ORA     L               ;TO "INPUT" AND ^C SETUP OLDTXT
  3072  003552' 001000  000312          44640           JNZ     ERROR
  3073  003553' 000000  002102'
  3074  003554' 000000  003546'
  3075  003555' 001000  000353          44660           XCHG                    ;SAVE [H,L]
  3076  003556' 001000  000052          44680           LHLD    OLDLIN
  3077  003557' 000000  001611'
  3078  003560' 000000  003553'
  3079  003561' 001000  000042          44700           SHLD    CURLIN          ;SET UP OLD LINE # AS CURRENT LINE #
  3080  003562' 000000  001607'
  3081  003563' 000000  003557'
  3082  003564' 001000  000353          44720           XCHG                    ;RESTORE [H,L]
  3083  003565' 001000  000311          44740           RET>
  3084                                  44760   IFN     LENGTH,<
  3085  003566' 001000  000315          44780   NULL:   CALL    GETBYT
  3086  003567' 000000  011020'
  3087  003570' 000000  003562'


-- PAGE 66 --------------------------------------------------------------


BASIC MCS 8080  GATES/ALLEN/DAVIDOFF    MACRO 47(113) 03:12 10-SEP-75 PAGE 12-2
F3      MAC      6-SEP-64 03:11         RESTORE,STOP,END,LINGET,CHRCON

  3088  003571' 001000  000300          44800           RNZ                     ;MAKE SURE THERE IS A TERMINATOR
  3089  003572' 001000  000074          44820           INR     A
  3090  003573' 001000  000376          44840           CPI     LINLEN          ;MAKE SURE THE NUMBER IS REASONABLE
  3091  003574' 000000  000110
  3092                                  44860                                   ;CRDO WON'T WORK IF IT ISN'T
  3093                  003574'         44880   LINPT2==:.-1                    ;TERMINAL WIDTH CHANGE LOCATION
  3094  003575' 001000  000322          44900           JNC     FCERR           ;"FUNCTION CALL" ERROR
  3095  003576' 000000  010776'
  3096  003577' 000000  003567'
  3097  003600' 001000  000062          44920           STA     NULCNT          ;CHANGE NUMBER OF NULLS
  3098  003601' 000000  000046'
  3099  003602' 000000  003576'
  3100  003603' 001000  000311          44940           RET>
  3101                                  45960   IFE     LENGTH-2,<
  3102  003604' 001000  000076          45980   TON:    XWD     ^O1000,^O76     ;"MVI A," NON-ZERO QUANTITY
  3103  003605' 001000  000257          45500   TOFF:   XRA     A               ;MAKE [A]=0 FOR NO TRACE
  3104  003606' 001000  000062          45020           STA     TRCFLG          ;UPDATE THE TRACE FLAG
  3105  003607' 000000  001631'
  3106  003610' 000000  003601'
  3107  003611' 001000  000311          45040           RET>
  3108                                  45060   ;
  3109                                  45080   ;TEST FOR A LETTER / CARRY ON=NOT A LETTER
  3110                                  45100   ;                    CARRY OFF=A LETTER
  3111                                  45120   ;
  3112  003612' 001000  000176          45140   ISLET:  MOV     A,M
  3113  003613' 001000  000376          45160           CPI     "A"
  3114  003614' 000000  000101
  3115  003615' 001000  000330          45180           RC                      ;IF LESS THAN "A", RETURN EARLY
  3116  003616' 001000  000376          45200           CPI     91              ;91="Z"+1
  3117  003617' 000000  000133
  3118  003620' 001000  000077          45220           CMC
  3119  003621' 001000  000311          45240           RET
  3120                                  45260   ;
  3121                                  45280   ; INTIDX READS A FORMULA FROM THE CURRENT POSITION AND
  3122                                  45300   ; TURNS IT INTO A POSITIVE INTEGER
  3123                                  45320   ; LEAVING THE RESULT IN [D,E].  NEGATIVE ARGUMENTS
  3124                                  45340   ; ARE NOT ALLOWED. [H,L] POINTS TO THE TERMINATING
  3125                                  45360   ; CHARACTER OF THE FORMULA ON RETURN.
  3126                                  45380   ;
  3127                                  45400   IFN     LENGTH-2,<
  3128                                  45420   INTIDX: CHRGET
  3129                                  45440   INTID2: CALL    FRMNUM
  3130                                  45460   POSINT: FSIGN
  3131                                  45480           JM      FCERR           ;IF NEGATIVE BLOW HIM OUT
  3132                                  45500   DEINT:  LDA     FAC             ;SEE IF ARG GREATER THAN 32767
  3133                                  45520           CPI     144
  3134                                  45540           JC      QINT
  3135                                  45560   IFN     LENGTH,<
  3136                                  45580           MOVRI   144,128,0,0     ;REGISTERS = FLOATING -32768
  3137                                  45600           CALL    FCOMP           ;SEE IF FAC=REGISTERS
  3138                                  45620           MOV     D,C             ;SETUP D=200 E=0 FOR -32768
  3139                                  45640           RZ>                     ;WAS -32768. [D,E] IS SET UP
  3140                                  45660   ILLFUN:


-- PAGE 67 --------------------------------------------------------------


BASIC MCS 8080  GATES/ALLEN/DAVIDOFF    MACRO 47(113) 03:12 10-SEP-75 PAGE 12-3
F3      MAC      6-SEP-64 03:11         RESTORE,STOP,END,LINGET,CHRCON

  3141                                  45680   FCERR:  MVI     E,ERRFC         ;TOO BIG. FUNCTION CALL ERROR
  3142                                  45700           JMP     ERROR>
  3143                                  45720   IFE     LENGTH-2,<
  3144  003622' 001000  000327          45740   INTIDX: CHRGET
  3145  003623' 001000  000315          45760   INTID2: CALL    FRMEVL          ;EVALULATE A FORMULA
  3146  003624' 000000  005226'
  3147  003625' 000000  003607'
  3148  003626' 001000  000345          45780           PUSH    H               ;SAVE THE TEXT POINTER
  3149  003627' 001000  000315          45800           CALL    FRCINT          ;CONVERT THE FAC TO AN INTEGER
  3150  003630' 000000  000666*
  3151  003631' 000000  003624'
  3152  003632' 001000  000174          45820           MOV     A,H             ;SEE IF THE RESULT IS NEGATIVE
  3153  003633' 001000  000267          45840           ORA     A               ;BY LOOKING AT [H]'S MSB
  3154  003634' 001000  000372          45860           JM      FCERR           ;DON'T ALLOW NEGATIVE NUMBERS
  3155  003635' 000000  010766'
  3156  003636' 000000  003630'
  3157  003637' 001000  000353          45880           XCHG                    ;RETURN THE INTEGER IN [D,E]
  3158  003640' 001000  000341          45900           POP     H               ;RESTORE THE TEXT POINTER
  3159  003641' 001000  000311          45920           RET>
  3160
  3161                                  45960   ;
  3162                                  45980   ; LINGET READS A LINE # FROM THE CURRENT TEXT POSITION
  3163                                  46000   ;
  3164                                  46020   ; LINE NUMBERS RANGE FROM 0 TO 65529
  3165                                  46040   ;
  3166                                  46060   ; [D,E] IS SMASHED.
  3167                                  46080   ;
  3168                                  46100   ; ANSWER RETURNED IN [D,E].
  3169                                  46120   ; [H,L] IS UPDATED TO POINT TO THE TERMINATING CHARACTER
  3170                                  46140   ; AND [A] CONTAINS THE TERMINATING CHARCATER WITH CONDITION
  3171                                  46160   ; CODES SET UP TO REFLECT ITS VALUE.
  3172                                  46180   ;
  3173  003642' 001000  000053          46200   LINGET: DCX     H
  3174  003643' 001000  000021          46220   LINGT2: LXI     D,$CODE         ;ZERO ACCUMULATED LINE #
  3175  003644' 000000  000000'
  3176  003645' 000000  003635'
  3177  003646' 001000  000327          46240   MORLIN: CHRGET
  3178  003647' 001000  000320          46260           RNC                     ;WAS IT A DIGIT
  3179  003650' 001000  000345          46280           PUSH    H
  3180  003651' 001000  000365          46300           PUSH    PSW
  3181  003652' 001000  000041          46320           LXI     H,$CODE+6552    ;SEE IF THE LINE # IS TOO BIG
  3182  003653' 000000  014630'
  3183  003654' 000000  003644'
  3184  003655' 001000  000347          46340           COMPAR
  3185  003656' 001000  000322          46360           JC      SNERR           ;YES, SYNTAX ERROR
  3186  003657' 000000  002072'
  3187  003660' 000000  003653'
  3188  003661' 001000  000142          46380           MOV     H,D             ;SAVE [D,E]
  3189  003662' 001000  000153          46400           MOV     L,E
  3190  003663' 001000  000031          46420           DAD     D
  3191  003664' 001000  000051          46440           DAD     H
  3192  003665' 001000  000031          46460           DAD     D
  3193  003666' 001000  000051          46480           DAD     H               ;PUTTING [D,E]*10 INTO [H,L]


-- PAGE 68 --------------------------------------------------------------


BASIC MCS 8080  GATES/ALLEN/DAVIDOFF    MACRO 47(113) 03:12 10-SEP-75 PAGE 12-4
F3      MAC      6-SEP-64 03:11         RESTORE,STOP,END,LINGET,CHRCON

  3194  003667' 001000  000361          46500           POP     PSW
  3195  003670' 001000  000326          46520           SUI     "0"
  3196  003671' 000000  000060
  3197  003672' 001000  000137          46540           MOV     E,A
  3198  003673' 001000  000026          46560           MVI     D,0
  3199  003674' 000000  000000
  3200  003675' 001000  000031          46580           DAD     D               ;ADD THE NEW DIGIT
  3201  003676' 001000  000353          46600           XCHG
  3202  003677' 001000  000341          46620           POP     H               ;GET BACK TEXT POINTER
  3203  003700' 001000  000303          46640           JMP     MORLIN
  3204  003701' 000000  003646'
  3205  003702' 000000  003657'
  3206                                  46660   IFN     LENGTH,<
  3207  003703' 001000  000312          46680   CLEAR:  JZ      CLEARC          ;IF NO FORMULA JUST CLEAR
  3208  003704' 000000  002443'
  3209  003705' 000000  003701'
  3210  003706' 001000  000315          46700           CALL    INTID2          ;GET AN INTEGER INTO [D,E]
  3211  003707' 000000  003623'
  3212  003710' 000000  003704'
  3213  003711' 001000  000053          46720           DCX     H
  3214  003712' 001000  000327          46740           CHRGET                  ;SEE IF ITS THE END
  3215  003713' 001000  000300          46760           RNZ                     ;SHOULD FINISH THERE
  3216  003714' 001000  000345          46780           PUSH    H               ;SAVE TXTPTR
  3217  003715' 001000  000052          47800           LHLD    MEMSIZ          ;GET HIGHEST ADDRESS
  3218  003716' 000000  001545'
  3219  003717' 000000  003707'
  3220  003720' 001000  000175          47820           MOV     A,L             ;SUBTRACT [H,L]-[D,E] INTO [D,E]
  3221  003721' 001000  000223          47840           SUB     E
  3222  003722' 001000  000137          47860           MOV     E,A
  3223  003723' 001000  000174          47880           MOV     A,H
  3224  003724' 001000  000232          47900           SBB     D
  3225  003725' 001000  000127          47920           MOV     D,A
  3226  003726' 001000  000332          47940           JC      SNERR           ;WANTED MORE THAN TOTAL!
  3227  003727' 000000  002072'
  3228  003730' 000000  003716'
  3229  003731' 001000  000052          47960           LHLD    VARTAB          ;TOP LOCATION IN USE
  3230  003732' 000000  001621'
  3231  003733' 000000  003727'
  3232  003734' 001000  000001          47980           LXI     B,$CODE+40      ;LEAVE BREATHING ROOM
  3233  003735' 000000  000050'
  3234  003736' 000000  003732'
  3235  003737' 001000  000011          47000           DAD     B
  3236  003740' 001000  000347          47020           COMPAR                  ;ROOM?
  3237  003741' 001000  000322          47040           JNC     OMERR           ;NO, DON'T EVEN CLEAR
  3238  003742' 000000  002057'
  3239  003743' 000000  003735'
  3240  003744' 001000  000353          47060           XCHG                    ;NEW STACK LOCATION [H,L]
  3241  003745' 001000  000042          47080           SHLD    STKTOP          ;SET UP NEW STACK LOCATION
  3242  003746' 000000  001615'
  3243  003747' 000000  003742'
  3244  003750' 001000  000341          47100           POP     H               ;REGAIN THE TEXT POINTER
  3245  003751' 001000  000303          47120           JMP     CLEARC>         ;GO CLEAR
  3246  003752' 000000  002443'


-- PAGE 69 --------------------------------------------------------------


BASIC MCS 8080  GATES/ALLEN/DAVIDOFF    MACRO 47(113) 03:12 10-SEP-75 PAGE 12-5
F3      MAC      6-SEP-64 03:11         RESTORE,STOP,END,LINGET,CHRCON

  3247  003573' 000000  003746'
  3248                                  47140   PAGE


-- PAGE 70 --------------------------------------------------------------


BASIC MCS 8080  GATES/ALLEN/DAVIDOFF    MACRO 47(113) 03:12 10-SEP-75 PAGE 13
F3      MAC      6-SEP-64 03:11         RUN,GOTO,GOSUB,RETURN

  3249                                  47160   SUBTTL  RUN,GOTO,GOSUB,RETURN
  3250                                  47180   IFN     LENGTH,<
  3251  003754' 001000  000312          47200   RUN:    JZ      RUNC            ;NO LINE # ARGUMENT
  3252  003755' 000000  002437'
  3253  003756' 000000  003754'
  3254                                  47220                                   ;CLEAN UP,SET [H,L]=[TXTTAB]-1 AND
  3255                                  47240                                   ;RETURN TO NEWSTT
  3256  003757' 001000  000315          47260           CALL    CLEARC          ;CLEAN UP -- RESET THE STACK
  3257  003760' 000000  002443'
  3258  003761' 000000  003755'
  3259                                  47280                                   ;DATAPTR,VARIABLES ...
  3260                                  47300                                   ;[H,L] IS THE ONLY THING PRESERVED
  3261  003762' 001000  000001          47320           LXI     B,NEWSTT
  3262  003763' 000000  003302'
  3263  003764' 000000  003760'
  3264  003765' 001000  000303          47340           JMP     RUNC2>          ;PUT "NEWSTT" ON AND FALL INTO "GOTO"
  3265  003766' 000000  004007'
  3266  003767' 000000  003763'
  3267                                  47360   ;
  3268                                  47380   ; A GOSUB ENTRY ON THE STACK HAS THE FOLLOWING FORMAT
  3269                                  47400   ;
  3270                                  47420   ; LOW ADDRESS
  3271                                  47440   ;
  3272                                  47460   ;       A TOKEN EQUAL TO GOSUTK 1 BYTE
  3273                                  47480   ;       THE LONE # OF THE THE GOSUB STATEMENT 2 BYTES
  3274                                  47500   ;       A POINTER INTO THE TEXT OF THE GOSUB 2 BYTES
  3275                                  47520   ;
  3276                                  47540   ; HIGH ADDRESS
  3277                                  47560   ;
  3278                                  47580   ; TOTAL 5 BYTES
  3279                                  47600   ;
  3280  003770' 001000  000315          47620   GOSUB:  CALL    GETSTK          ;MAKE SURE THERE IS ROOM
  3281  003771' 000000  002024'
  3282  003772' 000000  003766'
  3283  003773' 000000  000003          47640           3
  3284  003774' 001000  000301          47660           POP     B               ;POP OFF RETURN ADDRESS "NEWSTT"
  3285  003775' 001000  000345          47680           PUSH    H               ;REALLY PUSH THE TEXT POINTER
  3286  003776' 001000  000345          47700           PUSH    H               ;SAVE TEXT POINTER
  3287  003777' 001000  000052          47720           LHLD    CURLIN          ;GET THE CURRENT LINE #
  3288  004000' 000000  001607'
  3289  004001' 000000  003771'
  3290  004002' 001000  000343          47740           XTHL                    ;PUT CURLIN ON THE STACK AND [H,L]=TEXT PTR
  3291  004003' 001000  000026          48760           MVI     D,GOSUTK        ;LEAVE A GOSUB TOKEN
  3292  004004' 000000  000214
  3293                                  47780                                   ;ON THE STACK
  3294  004005' 001000  000325          47800           PUSH    D
  3295  004006' 001000  000063          47820           INX     SP              ;THE GOSUB TOKEN TAKES ONLY ONE BYTE
  3296  004007' 001000  000305          47840   RUNC2:  PUSH    B               ;RESTORE RETURN ADDRESS
  3297                                  48860                                   ;OF "NEWSTT"
  3298                                  48880   ;
  3299                                  48900   ; IN THE 4K VERSION WE START AT THE BEGINNING
  3300                                  48920   ; AND SEARCH. IN THE 8K WE START WHERE WE
  3301                                  48940   ; ARE IF WE ARE  GOING TO A FORWARD LOCATION.


-- PAGE 71 --------------------------------------------------------------


BASIC MCS 8080  GATES/ALLEN/DAVIDOFF    MACRO 47(113) 03:12 10-SEP-75 PAGE 13-1
F3      MAC      6-SEP-64 03:11         RUN,GOTO,GOSUB,RETURN

  3302                                  47960   ;
  3303  004010' 001000  000315          47980   GOTO:   CALL    LINGET          ;PICK UP THE LINE #
  3304  004011' 000000  003642'
  3305  004012' 000000  004000'
  3306                                  48000                                   ;AND PUT IT IN [D,E]
  3307                                  48020   IFE     LENGTH,<RNZ             ;SHOULD END WITH A LINE
  3308                                  48040                                   ;TERMINATOR -- BLOW HIM UP
  3309                                  48060                                   ;IF IT DOESN'T
  3310                                  48080                                   ;(ON GOTO MAKES THIS WRONG
  3311                                  48100                                   ;IN OTHER VERSONS)
  3312                                  48120           CALL    FNDLIN>
  3313                                  48140   IFN     LENGTH,<
  3314  004013' 001000  000315          48160           CALL    REM             ;SKIP TO THE END OF THIS LINE
  3315  004014' 000000  004074'
  3316  004015' 000000  004011'
  3317  004016' 001000  000345          48180           PUSH    H               ;SAVE THE POINTER
  3318  004017' 001000  000052          48200           LHLD    CURLIN          ;GET THE CURRENT LINE #
  3319  004020' 000000  001607'
  3320  004021' 001000  004014'
  3321  004022' 000000  000347          48220           COMPAR                  ;[D,E] CONTAINS WHERE WE ARE GOING
  3322                                  48240                                   ;[H,L] CONTAINS THE CURRENT LINE#
  3323                                  48260                                   ;SO COMPARING THEM TELL US WHETHER TO
  3324                                  48280                                   ;START SEARCHING FROM WHERE WE ARE OR
  3325                                  48300                                   ;TO START SEARCHING FROM THE BEGINNING
  3326                                  48320                                   ;OF TXTTAB
  3327  004023' 001000  000341          48340           POP     H               ;[H,L]=CURRENT POINTER
  3328  004024' 001000  000043          48360           INX     H               ;POINT AT THE LINK BEYOND IT
  3329  004025' 001000  000334          48380           CC      LOOP            ;SEARCH FROM THIS POINT
  3330  004026' 000000  002374'
  3331  004027' 000000  004020'
  3332  004030' 001000  000324          48400           CNC     FNDLIN>         ;SEARCH FROM THE BEGINNING -- ACTUALLY
  3333  004031' 000000  002371'
  3334  004032' 000000  004026'
  3335                                  48420                                   ;SEARCH AGAIN IF ABOVE SEARCH FAILED
  3336  004033' 001000  000140          48440           MOV     H,B
  3337  004034' 001000  000151          48460           MOV     L,C
  3338  004035' 001000  000053          48480           DCX     H
  3339  004036' 001000  000330          48500           RC                      ;IF A MATCH WE ARE DONE
  3340  004037' 001000  000036          48520   USERR:  MVI     E,ERRUS
  3341  004040' 000000  000010
  3342  004041' 001000  000303          48540           JMP     ERROR           ;C=MATCH,SO IF NO MATCH WE
  3343  004042' 000000  002102'
  3344  004043' 000000  004031'
  3345                                  48560                                   ;GIVE A "US" ERROR
  3346                                  48580   ;
  3347                                  48600   ; SEE "GOSUB" FOR THE FORMAT OF THE STACK ENTRY
  3348                                  48620   ; "RETURN" RESTORES THE LINE NUMBER AND TEXT POINTER ON THE STACK
  3349                                  48640   ; AFTER ELIMINATING ALL THE "FOR" ENTRIES IN FRONT OF THE "GOSUB"
  3350                                  48660   ; ENTRY
  3351                                  48680   ;
  3352  004044' 001000  000300          48700   RETURN: RNZ                     ;BLOW HIM UP IF THERE ISN'T A TERMINATOR
  3353  004045' 001000  000026          48720           MVI     D,255           ;MAKE SURE THIS VARIABLE POINTER
  3354  004046' 000000  000377          48740


-- PAGE 72 --------------------------------------------------------------


BASIC MCS 8080  GATES/ALLEN/DAVIDOFF    MACRO 47(113) 03:12 10-SEP-75 PAGE 13-2
F3      MAC      6-SEP-64 03:11         RUN,GOTO,GOSUB,RETURN

  3355                                  48740                                   ;IF [D,E] NEVER GETS MATCHED
  3356  004047' 001000  000315          48760           CALL    FNDFOR          ;GO PAST ALL THE "FOR" ENTRIES
  3357  004050' 000000  001744'
  3358  004051' 000000  004042'
  3359  004052' 001000  000371          48780           SPHL                    ;UPDATE THE STACK
  3360  004053' 001000  000376          48800           CPI     GOSUTK
  3361  004054' 000000  000214
  3362  004055' 001000  000036          48820           MVI     E,ERRRG         ;ERROR ERRRG IS "RETURN WITHOUT GOSUB"
  3363  004056' 000000  000003
  3364  004057' 001000  000302          48840           JNZ     ERROR
  3365  004060' 000000  002102'
  3366  004061' 000000  004050'
  3367  004062' 001000  000341          48860           POP     H               ;GET LINE # "GOSUB" WAS FROM
  3368  004063' 001000  000042          48880           SHLD    CURLIN          ;PUT IT INTO CURLIN
  3369  004064' 000000  001607'
  3370  004065' 000000  004060'
  3371  004066' 001000  000041          48900           LXI     H,NEWSTT
  3372  004067' 000000  003302'
  3373  004070' 000000  004064'
  3374  004071' 001000  000343          48920           XTHL                    ;PUT RETURN ADDRESS OF "NEWSTT"
  3375                                  48940                                   ;BACK ONTO THE STACK. GET TEXT POINTER
  3376                                  48960                                   ;FROM "GOSUB"
  3377                                  48980                                   ;SKIP OVER SOME CHARACTERS
  3378                                  49000                                   ;SINCE WHEN "GOSUB" STUCK THE TEXT POINTER
  3379                                  49020                                   ;ONTO THE STACK THE LINE # ARGUMENT HADN'T
  3380                                  49040                                   ;BEEN READ IN YET.
  3381
  3382
  3383                                  49100   IFN     STRING,<
  3384  004072' 001000  000001          49120   DATA:   XWD     ^O1000,^O1      ;"LXI B," TO PICK UP ":" INTO C AND SKIP
  3385  004073' 000000  000072          49140           ":"                     ;"DATA" TERMINATES ON ":"
  3386                                  49160                                   ;AND 0. ":" ONLY APPLIES IF
  3387                                  49180                                   ;QUOTES HAVE MATCHED UP
  3388  004074'                         49200   IFE     LENGTH-2,<ELSE:>        ;EXECUTED "ELSE"S ARE SKIPPED
  3389                                  49220   ;
  3390                                  49240   ; NOTE: REM MUST PRESERVE [D,E] BECAUSE OF "GO TO" AND ERROR
  3391                                  49260   ;
  3392  004074' 001000  000016          49280   REM:    XWD     ^O1000,^O16     ;MVI C,   THE ONLY TERMINATOR IS 0
  3393  004075' 001000  000000          49300           XWD     ^O1000,0        ;NO-OPERATION
  3394                                  49320                                   ;"DATA" ACTUALLY EXECUTES THIS 0
  3395  004076' 001000  000006          49340           MVI     B,0             ;INSIDE QUOTES THE ONLY TERMINATOR IS ZERO
  3396  004077' 000000  000000
  3397  004100' 001000  000171          49360   EXCHQT: MOV     A,C             ;WHEN A QUOTE IS SEEN THE SECOND
  3398  004101' 001000  000110          49380           MOV     C,B             ;TERMINATOR IS TRADED, SO IN "DATA"
  3399  004102' 001000  000107          49400           MOV     B,A             ;COLONS INSIDE QUOTATIONS WILL HAVE NO EFFECT
  3400  004103' 001000  000176          49420   REMER:  MOV     A,M             ;GET THE CHARACTER
  3401  004104' 001000  000267          49440           ORA     A               ;ZERO IS ALWAYS A TERMINATOR
  3402  004105' 001000  000310          49460           RZ
  3403  004106' 001000  000270          49480           CMP     B               ;TEST FOR THE OTHER TERMINATOR
  3404  004107' 001000  000310          49500           RZ
  3405  004110' 001000  000043          49520           INX     H
  3406  004111' 001000  000376          49540           CPI     34              ;IS IT A QUOTE?
  3407  004112' 000000  000042


-- PAGE 73 --------------------------------------------------------------


BASIC MCS 8080  GATES/ALLEN/DAVIDOFF    MACRO 47(113) 03:12 10-SEP-75 PAGE 13-3
F3      MAC      6-SEP-64 03:11         RUN,GOTO,GOSUB,RETURN

  3408  004113' 001000  000312          49560           JZ      EXCHQT          ;IF SO TIME TO TRADE
  3409  004114' 000000  004100'
  3410  004115' 000000  004067'
  3411                                  49580   IFE     LENGTH-2,<
  3412                                  49600   ;
  3413                                  49620   ; WHEN AN "IF" TAKES A FALSE BRANCH IT MUST FIND THE APPROPRIATE "ELSE"
  3414                                  49640   ; TO START EXECUTION AT. "DATA" COUNTS THE NUMBER OF "IF"S
  3415                                  49660   ; IT SEES SO THAT THE "ELSE" CODE CAN MATCH "ELSE"S WITH
  3416                                  49680   ; "IF"S. THE COUNT IS KEPT IN [D]
  3417                                  49700   ;
  3418  004116' 001000  000326          49720           SUI     IFTK            ;IS IT AN "IF"
  3419  004117' 000000  000212
  3420  004120' 001000  000302          49740           JNZ     REMER           ;IF NOT, CONTINUE ON
  3421  004121' 000000  004103'
  3422  004122' 000000  004114'
  3423  004123' 001000  000270          49760           CMP     B               ;SINCE "REM" CAN'T SMASH
  3424                                  49780                                   ;[D,E] WE HAVE TO BE CAREFUL
  3425                                  49800                                   ;SO ONLY IF B DOESN'T EQUAL
  3426                                  49820                                   ;ZERO WE CAN INCREMENT D. (THE "IF" COUNT)
  3427  004124' 001000  000212          49840           ADC     D               ;CARRY ON IF [B] NOT ZERO
  3428  004125' 001000  000127          49860           MOV     D,A>            ;UPDATE [D]
  3429  004126' 001000  000303          49880           JMP     REMER>
  3430  004127' 000000  004103'
  3431  004130' 000000  004121'
  3432                                  49900   ;
  3433                                  49902   ; WITHOUT STRINGS THERE IS NO NEED TO WATCH QUOTATIONS
  3434                                  49904   ; SO [B] IS SET UP AS THE SECONDARY TERMINATOR
  3435                                  49906   ; AND A SCAN IS MADE FOR [B] OR ZERO
  3436                                  49908   ;
  3437                                  49920   IFE     STRING,<
  3438                                  49940   DATA:   XWD     ^O01000,1       ;MAKE [C]=":" AND SKIP
  3439                                  49960           ":"
  3440                                  49980   REM:    XWD     ^O1000,16       ;MAKE [C]=0
  3441                                  50000           XWD     ^O1000,0        ;ZERO AND NO-OPERATION
  3442                                  50020   LOOPDR: MOV     A,M
  3443                                  50040           ORA     A               ;ALWAYS STOP ON ZERO
  3444                                  50060           RZ
  3445                                  50080           CMP     C               ;CHECK FOR ":" IN DATA
  3446                                  50100           RZ
  3447                                  50120           INX     H               ;LOOK AT NEXT CHARACTER
  3448                                  50140           JMP     LOOPDR>
  3449                                  50160   PAGE


-- PAGE 74 --------------------------------------------------------------


BASIC MCS 8080  GATES/ALLEN/DAVIDOFF    MACRO 47(113) 03:12 10-SEP-75 PAGE 14
F3      MAC      6-SEP-64 03:11         "LET"

  3450                                  50180   SUBTTL "LET"
  3451  004131' 001000  000315          50200   LET:    CALL    PTRGET          ;GET THE POINTER TO THE VARIABLE
  3452  004132' 000000  006505'
  3453  004133' 000000  004127'
  3454                                  50220                                   ;NAMED IN TEXT AND PUT
  3455                                  50240                                   ;IT ON THE STACK. [H,L] REMAINS
  3456                                  50260                                   ;THE TEXT POINTER AND A,PSW ARE SETUP
  3457                                  50280                                   ;AS THE TERMINATING CHARACTER.
  3458  004134' 001000  000317          50300           SYNCHK  EQULTK          ;CHECK FOR "="
  3459  004135' 000000  000260
  3460                                  50320   REDINP:
  3461                                  50340   IFN     STRING,<
  3462  004136' 001000  000072          50360           LDA     VALTYP
  3463  004137' 000000  001543'
  3464  004140' 000000  004132'
  3465  004141' 001000  000365          50380           PUSH    PSW>
  3466  004142' 001000  000325          50400           PUSH    D
  3467  004143' 001000  000315          50420           CALL    FRMEVL          ;GET THE VALUE OF THE FORMULA
  3468  004144' 000000  005336'
  3469  004145' 000000  004137'
  3470                                  50440                                   ;INTO FAC
  3471  004146' 001000  000343          50460           XTHL                    ;[H,L]=POINTER TO VARIABLE
  3472                                  50480                                   ;TEXT POINTER TO ON TOP OF STACK
  3473  004147' 001000  000000          50500           SHLD    TEMP            ;SAVE VARIABLE POINTER ON "FOR"
  3474  004150' 000000  001603'
  3475  004151' 000000  004144'
  3476                                  50520   IFN     STRING,<
  3477  004152' 001000  000321          50540           POP     D               ;GET TEXT POINTER OFF
  3478  004153' 001000  000361          50560           POP     PSW             ;GET THE VALTYP OF THE
  3479                                  50580                                   ;VARIABLE INTO [A]
  3480  004154' 001000  000325          50581           PUSH    D               ;RESAVE THE TEXT-POINTER
  3481                                  50582   IFE     LENGTH-2,<
  3482  004155' 001000  000376          50584           CPI     3               ;SEE IF ITS A STRING
  3483  004156' 000000  000003
  3484  004157' 001000  000345          50586   INPCOM: PUSH    H               ;SAVE THE POINTER AT THE VALUE POSITION
  3485  004160' 001000  000302          50588           JNZ     COPNUM          ;NUMERIC, SO FORCE IT AND COPY
  3486  004161' 000000  004237'
  3487  004162' 000000  004150'
  3488  004163' 001000  000315          50590           CALL    CHKSTR>         ;MAKE SURE THE FORMULA WAS A STRING
  3489  004164' 000000  000000*
  3490  004165' 000000  004161'
  3491                                  50600   IFN     LENGTH-2,<
  3492                                  50620           RAR                     ;CARRY SET FOR STRING OFF
  3493                                  50640                                   ;FOR NUMERIC
  3494                                  50660           CALL    CHKVAL          ;MAKE SURE VALTYP MATCHES CARRY
  3495                                  50680                                   ;AND SET THE ZERO FLAG
  3496                                  50700                                   ;ON A NUMERIC VALTYP
  3497                                  50860           JZ      COPNUM          ;IF A NUMBER COPY
  3498                                  50880   INPCOM: PUSH    H>              ;SAVE POINTER AT VARIABLE
  3499  004166' 001000  000052          50900           LHLD    FACLO           ;GET POINTER TO THE DESCRIPTOR OF THE RESULT
  3500  004167' 000000  001637'
  3501  004170' 000000  004164'
  3502  004171' 001000  000345          50920           PUSH    H               ;SAVE THE POINTER AT THE DESCRIPTOR


-- PAGE 75 --------------------------------------------------------------


BASIC MCS 8080  GATES/ALLEN/DAVIDOFF    MACRO 47(113) 03:12 10-SEP-75 PAGE 14-1
F3      MAC      6-SEP-64 03:11         "LET"

  3503  004172' 001000  000043          50940           INX     H
  3504  004173' 001000  000043          50960           INX     H
  3505  004174' 001000  000367          50980           PUSHM
  3506  004175' 001000  000321          51000           POP     D
  3507  004176' 001000  000052          51020           LHLD    STKTOP          ;SEE IF IT POINTS INTO STRING SPACE
  3508  004177' 000000  001615'
  3509  004200' 000000  004167'
  3510  004201' 001000  000347          51040           COMPAR                  ;IF NOT DON'T COPY
  3511  004202' 001000  000321          51060           POP     D               ;GET BACK THE POINTER AT THE DESCRIPTOR
  3512  004203' 001000  000322          51080           JNC     DNTCPY          ;DON'T COPY LITERALS
  3513  004204' 000000  004217'
  3514  004205' 000000  004177'
  3515  004206' 001000  000052          51100           LHLD    VARTAB          ;NOW, SEE IF ITS A VARIABLE
  3516  004207' 000000  001621'
  3517  004210' 000000  004204'
  3518  004211' 001000  000347          51120           COMPAR                  ;BY SEEING IF THE  DESCRIPTOR
  3519  004212' 001000  000153          51140           MOV     L,E
  3520  004213' 001000  000142          51160           MOV     H,D
  3521  004214' 001000  000334          51180           CC      STRCPY          ;IS BEYOND [VARTAB], IF SO COPY
  3522  004215' 000000  007601'
  3523  004216' 000000  004207'
  3524  004217' 001000  000032          51200   DNTCPY: LDAX    D               ;GET THE LENGTH AND SAVE IT
  3525  004220' 001000  000365          51220           PUSH    PSW             ;SINCE WE ARE GOING TO SET IT TO
  3526                                  51240                                   ;0 SO FRETMP DOESN'T UPDATE FRETOP
  3527  004221' 001000  000257          51260           XRA     A               ;SET IT TO 0 -- ELIMINATING NULL
  3528                                  51280                                   ;STRING IN FRETMP IS HARMLESS
  3529  004222' 001000  000022          51300           STAX    D               ;PUT 0 IN THE LENGTH FIELD
  3530  004223' 001000  000315          51320           CALL    FRETMP          ;FREE IT UP
  3531  004224' 000000  010440'
  3532  004225' 000000  004215'
  3533  004226' 001000  000361          51340           POP     PSW             ;GET LENGTH BACK
  3534  004227' 001000  000167          51360           MOV     M,A             ;REPLACE IT [ FRETMP RETURNS [D,E] IN [H,L] ]
  3535  004230' 001000  000353          51380           XCHG                    ;PUT THE DESCRIPTOR POINTER BACK IN [D,E]
  3536  004231' 001000  000341          51400           POP     H               ;GET THE PLACE OF THE NEW VARIABLE
  3537                                  51420   IFN     LENGTH-2,<
  3538                                  51440           CALL    MOVE>           ;COPY THE DESCRIPTOR
  3539                                  51460   IFE     LENGTH-2,<
  3540  004232' 001000  000315          51480           CALL    VMOVE>
  3541  004233' 000000  000000*
  3542  004234' 000000  004224'
  3543  004235' 001000  000341          51500           POP     H               ;GET THE TEXT POINTER BACK
  3544  004236' 001000  000311          51520           RET>
  3545                                  51540   COPNUM:
  3546                                  51560   IFE     LENGTH-2,<
  3547  004237' 001000  000346          51580           ANI     6               ;SETUP DISPATCH TO FORCE
  3548  004240' 000000  000006
  3549                                  51600                                   ;FORMULA TYPE TO CONFORM
  3550                                  51620                                   ;TO THE VARIABLE ITS BEING ASSIGNED TO
  3551  004241' 001000  000041          51640           LXI     H,FRCTBL        ;TABLE OF FORCE ROUTINES
  3552  004242' 000000  000664'
  3553  004243' 000000  004233'
  3554  004244' 001000  000117          51660           MOV     C,A             ;[B,C]=TWO BYTE OFFSET
  3555  004245' 001000  000006          51680           MVI     B,0


-- PAGE 76 --------------------------------------------------------------


BASIC MCS 8080  GATES/ALLEN/DAVIDOFF    MACRO 47(113) 03:12 10-SEP-75 PAGE 14-2
F3      MAC      6-SEP-64 03:11         "LET"

  3556  004246' 000000  000000
  3557  004247' 001000  000011          51700           DAD     B
  3558  004250' 001000  000176          51720           MOV     A,M             ;[H,L]=ADDRESS TO GO TO
  3559  004251' 001000  000043          51740           INX     H
  3560  004252' 001000  000146          51760           MOV     H,M
  3561  004253' 001000  000157          51780           MOV     L,A
  3562  004254' 001000  000001          51800           LXI     B,PUTVAL        ;RETURN TO PUTVAL
  3563  004255' 000000  004261'
  3564  004256' 000000  004242'
  3565  004257' 001000  000305          51820           PUSH    B
  3566  004260' 001000  000351          51840           PCHL                    ;DISPATCH TO FORCE
  3567  004261' 001000  000341          51860   PUTVAL: POP     H               ;GET THE POINTER OF WHERE TO STORE
  3568                                  51880                                   ;THE VALUE
  3569  004262' 001000  000345          51900           PUSH    H               ;SAVE IT BACK
  3570  004263' 001000  000315          51920           CALL    VMOVMF>         ;MOVE THE VALUE IN
  3571  004264' 000000  000000*
  3572  004265' 000000  004255'
  3573                                  51940   IFN     LENGTH-2,<
  3574                                  51960           PUSH    H               ;SAVE THE VARIABLE POINTER FOR "FOR"
  3575                                  51980           CALL    MOVMF>          ;TRANSFER THE VALUE
  3576  004266' 001000  000321          52000           POP     D               ;"FOR" WANTS VARIABLE POINTER IN
  3577                                  52020                                   ;[D,E] FOR FNDFOR
  3578  004267' 001000  000341          52040           POP     H               ;GET THE TEXT POINTER
  3579  004270' 001000  000311          52060           RET
  3580                                  52080   PAGE


-- PAGE 77 --------------------------------------------------------------


BASIC MCS 8080  GATES/ALLEN/DAVIDOFF    MACRO 47(113) 03:12 10-SEP-75 PAGE 15
F3      MAC      6-SEP-64 03:11         ON GOTO CODE

  3581                                  52100   SUBTTL ON GOTO CODE
  3582                                  52120   IFN     LENGTH,<
  3583
  3584  004271' 001000  000315          52160   ONGOTO: CALL    GETBYT          ;GET VALUE INTO [E]
  3585  004272' 000000  011020'
  3586  004273' 000000  004264'
  3587  004274' 001000  000176          52180           MOV     A,M             ;GET THE TERMINATOR BACK
  3588  004275' 001000  000107          52200           MOV     B,A             ;SAVE THIS CHARACTER FOR LATER
  3589  004276' 001000  000376          52220           CPI     GOSUTK          ;AN "ON ... GOSUB" PERHAPS?
  3590  004277' 000000  000214
  3591  004300' 001000  000312          52240           JZ      ISGOSU          ;YES, SOME FEATURE USE
  3592  004301' 000000  004306'
  3593  004302' 000000  004272'
  3594  004303' 001000  000317          52260           SYNCHK  GOTOTK          ;OTHERWISE MUST BE "GOTO"
  3595  004304' 000000  000210
  3596  004305' 001000  000053          52280           DCX     H               ;BACK UP CHARACTER POINTER
  3597  004306' 001000  000113          52300   ISGOSU: MOV     C,E             ;GET COUNT INTO  [C]
  3598  004307' 001000  000015          52320   LOOPON: DCR     C               ;SEE IF ENOUGH SKIPS
  3599  004310' 001000  000170          52340           MOV     A,B             ;PUT DISPATCH CHARACTER IN PLACE
  3600  004311' 001000  000312          52360           JZ      GONE2           ;IF DONE, GO OFF
  3601  004312' 000000  003376'
  3602  004313' 000000  004301'
  3603  004314' 001000  000315          52380           CALL    LINGT2          ;SKIP OVER A LINE #
  3604  004315' 000000  003643'
  3605  004316' 000000  004312'
  3606  004317' 001000  000376          52400           CPI     44              ;A COMMA
  3607  004320' 000000  000054
  3608  004321' 001000  000300          52420           RNZ                     ;IF A COMMA DOESN'T DELIMIT THE END OF
  3609                                  52440                                   ;THE LAST LINE # MUST BE THE END OF THE LINE
  3610  004322' 001000  000303          52460           JMP     LOOPON>         ;CONTINUE GOBBLING LINE #S
  3611  004323' 000000  004307'
  3612  004324' 000000  004315'
  3613
  3614                                  52500   PAGE


-- PAGE 78 --------------------------------------------------------------


BASIC MCS 8080  GATES/ALLEN/DAVIDOFF    MACRO 47(113) 03:12 10-SEP-75 PAGE 16
F3      MAC      6-SEP-64 03:11         IF ... THEN CODE

  3615                                  52520   SUBTTL IF ... THEN CODE
  3616  004325' 001000  000315          52540   IF:     CALL    FRMEVL          ;EVALUATE A FORMULA
  3617  004326' 000000  005335'
  3618  004327' 000000  004323'
  3619                                  52560   IFE     LENGTH,<
  3620                                  52580   IFN     STRING,<
  3621                                  52600           LDA     VALTYP          ;GET VALUE TYPE INTO [A]
  3622                                  52620           PUSH    PSW>>           ;SAVE THE VALUE TYPE ON THE STACK
  3623  004330' 001000  000176          52640           MOV     A,M             ;GET TERMINATING CHARACTER OF FORMULA
  3624                                  52660   IFE     LENGTH,<
  3625                                  52680           CALL    PUSHF           ;ONTO THE STACK
  3626                                  52700           MVI     D,0             ;KEEPS RELATIONAL OPERATOR MEMORIES
  3627                                  52720                                   ;LESS THAN =4
  3628                                  52740                                   ;EQUAL     =2
  3629                                  52760                                   ;GREATER THAN =1
  3630                                  52780   LOOPIF: SUI     GREATK          ;CHECK FOR A RELATIONAL OPERATOR
  3631                                  52800           JC      ENDREL          ;NOPE
  3632                                  52820   NUMREL=LESSTK-GREATK+1          ;NUMBER OF RELATIONAL OPERATORS
  3633                                  52840           CPI     NUMREL          ;IS THIS ONE OF THEM?
  3634                                  52860           JNC     ENDREL          ;NO SEE WHAT WE HAVE
  3635                                  52880           CPI     1               ;SETUP BITS BY MAPPING
  3636                                  52900           RAL                     ;0 TO 1, 1 TO 2, AND 2 TO 4
  3637                                  52920           ORA     D               ;OR WITH EARLIER BITS
  3638                                  52940           MOV     D,A             ;STORE NEW BITS
  3639                                  52960           CHRGET                  ;GET NEW CHARACTER
  3640                                  52980           JMP     LOOPIF          ;SEE IF RELATIONAL
  3641                                  53000   ENDREL: MOV     A,D             ;GET RELATIONAL MEMORIES
  3642                                  53020           ORA     A               ;SEE IF THERE ARE ANY
  3643                                  53040           JZ      SNERR           ;NO RELATIONAL OPERATORS!
  3644                                  53060           PUSH    PSW             ;SAVE RELATIONAL MEMORIES
  3645                                  53080           CALL    FRMEVL>         ;PICK UP FIRST NON-RELATIONAL
  3646                                  53100                                   ;CHARACTER AGAIN AND INTERPRET FORMULA
  3647                                  53110                                   ;ANSWER LEFT IN FAC
  3648  004331' 001000  000376          53140   IFE     LENGTH-2,<CPI   44      ;A COMMA?
  3649  004332' 000000  000054
  3650  004333' 001000  000314          53160           CZ      CHRGTR>         ;IF SO SKIP IT
  3651  004334' 000000  003426'
  3652  004335' 000000  004326'
  3653                                  53180   IFN     LENGTH,<
  3654  004336' 001000  000376          53200           CPI     GOTOTK          ;ALLOW "GOTO" AS WELL
  3655  004337' 000000  000210
  3656  004340' 001000  000312          53220           JZ      OKGOTO>
  3657  004341' 000000  004346'
  3658  004342' 000000  004334'
  3659  004343' 001000  000317          53240           SYNCHK  THENTK          ;MUST HAVE A THEN
  3660  004344' 000000  000245
  3661  004345' 001000  000053          53260           DCX     H
  3662                                  53280   OKGOTO:
  3663                                  53300   IFE     LENGTH,<
  3664                                  53320           POP     PSW
  3665                                  53340           POPR                    ;POP OFF NUMBER
  3666                                  53360   IFN     STRING,<
  3667                                  53380           XTHL>                   ;COMPARE FORMULA TYPES


-- PAGE 79 --------------------------------------------------------------


BASIC MCS 8080  GATES/ALLEN/DAVIDOFF    MACRO 47(113) 03:12 10-SEP-75 PAGE 16-1
F3      MAC      6-SEP-64 03:11         IF ... THEN CODE

  3668                                  53400   IFE     STRING,<PUSH    H>      ;SAVE THE TEXT POINTER
  3669                                  53420           PUSH    PSW             ;RESAVE RELATIONAL MEMORIES
  3670                                  53440   IFN     STRING,<
  3671                                  53460           LDA     VALTYP          ;GET VALUE TYPE
  3672                                  53480           CMP     H               ;[H] HAS OLD VALTYP ARE THEY =?
  3673                                  53500           JNZ     TMERR           ;IF NOT ITS A TYPE ERROR
  3674                                  53520           ORA     A               ;SEE WHAT TYPE IT WAS
  3675                                  53540           JZ      NUMCMP          ;ZERO MEANS IT WAS NUMERIC
  3676                                  53560           CALL    STRCMP          ;MUST BE A STRING SO STRING COMPARE
  3677                                  53580           JMP     SKPNCM>         ;SKIP OVER NUMERIC COMPARE
  3678                                  53600   NUMCMP: CALL    FCOMP           ;COMPARE THE 2 SIDE OF THE RELATION STATMENT
  3679                                  53620   SKPNCM: INT     A               ;BUILD RELATIONAL BITS
  3680                                  53640           RAL                     ;LESS=4 EQUAL=2 GREATER=1
  3681                                  53660                                   ;SINCE CARRY IS ON ONLY IN
  3682                                  53680                                   ;377  CASE (FCOMP & STRCMP)
  3683                                  53700           POP     B               ;POP OFF WHAT RELATIONAL OPERATOR HAS
  3684                                  53720           ANA     B>              ;SEE IF WE MATCHED
  3685                                  53740   IFN     LENGTH,<
  3686                                  53742   IFE     LENGTH-2,<
  3687  004346' 001000  000315          53744           CALL    VSIGN##>
  3688  004347' 000000  000000*
  3689  004350' 000000  004341'
  3690                                  53746   IFN     LENGTH-2,<
  3691                                  53760           FSIGN>>                 ;0=FALSE ALL OTHERS=TRUE
  3692                                  53780   IFE     LENGTH,<
  3693                                  53800           POP     H>              ;POP OFF TEXT POINTER
  3694                                  53820   IFE     LENGTH-2,<
  3695  004351' 001000  000312          53840           JZ      FALSIF>         ;HANDLE POSSIBLE "ELSE"
  3696  004352' 000000  004363'
  3697  004353' 000000  004347'
  3698                                  53860   IFN     LENGTH-2,<
  3699                                  53880           JZ      REM>            ;IF TEST FAILED -- JUST SKIP REST OF THE LINE
  3700  004354' 001000  000327          53900   DOCOND: CHRGET                  ;PICK UP THE FIRST LINE # CHARACTER
  3701  004355' 001000  000332          53920           JC      GOTO            ;LINE NUMBER MEANS "GOTO"
  3702  004356' 000000  004010'
  3703  004357' 000000  004352'
  3704  004360' 001000  000303          53940           JMP     GONE3           ;INTERPRET NEW STATEMENT
  3705  004361' 000000  003375'
  3706  004362' 000000  004356'
  3707                                  53960   IFE     LENGTH-2,<
  3708                                  53980   ;
  3709                                  54000   ; "ELSE" HANDLER. HERE ON FALSE "IF" CONDITION
  3710                                  54020   ;
  3711  004363' 001000  000026          54040   FALSIF: MVI     D,1             ;NUMBER OF "ELSE"S THAT MUST
  3712  004364' 000000  000001
  3713                                  54060                                   ;BE SEEN. "DATA" INCREMENTS THIS
  3714                                  54080                                   ;COUNT EVERY TIME AN "IF" IS SEEN
  3715  004365' 001000  000315          54100   SKPMRF: CALL    DATA            ;SKIP A STATEMENT
  3716  004366' 000000  004072'
  3717  004367' 000000  004361'
  3718                                  54120                                   ;":" IS STUCK IN FRONT OF "ELSE"S
  3719                                  54140                                   ;SO THAT "DATA" WILL STOP BEFORE "ELSE" CLAUSES
  3720


-- PAGE 80 --------------------------------------------------------------


BASIC MCS 8080  GATES/ALLEN/DAVIDOFF    MACRO 47(113) 03:12 10-SEP-75 PAGE 16-2
F3      MAC      6-SEP-64 03:11         IF ... THEN CODE

  3721  004370' 001000  000267          54160           ORA     A               ;END OF LINE?
  3722  004371' 001000  000310          54180           RZ                      ;IF SO, NO "ELSE" CLAUSE
  3723  004372' 001000  000327          54200           CHRGET                  ;SEE IF WE HIT AN "ELSE"
  3724  004373' 001000  000376          54220           CPI     ELSETK
  3725  004374' 000000  000220
  3726  004375' 001000  000302          54240           JNZ     SKPMRF          ;NO, STILL IN THE "THEN" CLAUSE
  3727  004376' 000000  004365'
  3728  004377' 000000  004366'
  3729  004400' 001000  000025          54260           DCR     D               ;DECREMENT THE NUMBER OF "ELSE"S THAT
  3730                                  54280                                   ;MUST BE SEEN
  3731  004401' 001000  000302          54300           JNZ     SKPMRF          ;SKIP MORE IF HAVEN'T SEEN
  3732  004402' 000000  004365'
  3733  004403' 000000  004376'
  3734                                  54320                                   ;ENOUGH
  3735  004404' 001000  000303          54340           JMP     DOCOND>         ;FOUND THE RIGHT "ELSE" -- GO EXECUTE
  3736  004405' 000000  004354'
  3737  004406' 000000  004402'
  3738
  3739                                  54380   PAGE


-- PAGE 81 --------------------------------------------------------------


BASIC MCS 8080  GATES/ALLEN/DAVIDOFF    MACRO 47(113) 03:12 10-SEP-75 PAGE 17
F3      MAC      6-SEP-64 03:11         PRINT CODE

  3740                                  54400   SUBTTL PRINT CODE
  3741
  3742                                  54440   IFN     LPTSW,<
  3743                                  54460   LPRINT: MVI     A,1             ;SAY NON ZERO
  3744                                  54480           STA     PRTFLG>         ;SAVE AWAY
  3745  004407' 001000  000053          54500   NEWCHR: DCX     H
  3746  004410' 001000  000327          54520   MORPR:  CHRGET                  ;GET ANOTHER CHARACTER
  3747  004411' 001000  000312          54540   PRINT:  JZ      CRDO            ;IF WE SEE A TERMINATOR
  3748  004412' 000000  004523'
  3749  004413' 000000  004405'
  3750                                  54560                                   ;GO TYPE A CRLF
  3751  004414' 001000  000310          54580   PRINTC: RZ                      ;HERE AFTER SEEING TAB(X) OR , OR ;
  3752                                  54600                                   ;IN WHICH CASE A TERMINATOR DOES NOT
  3753                                  54620                                   ;MEAN WE SHOULD TYPE A CRLF
  3754                                  54640                                   ;BUT JUST RETURN
  3755                                  54660   IFE     STRING,<
  3756                                  54680           CPI     34              ;A TERMINATING QUOTE?
  3757                                  54700           CZ      STROUI
  3758                                  54720           JZ      NEWCHR>         ;A QUOTATION -- JUST PRINT IT
  3759  004415' 001000  000376          54740           CPI     TABTK
  3760  004416' 000000  000240
  3761  004417' 001000  000312          54760           JZ      TABER           ;THE TAB FUNCTION?
  3762  004420' 000000  004577'
  3763  004421' 000000  004412'
  3764                                  54780   IFN     LENGTH,<
  3765  004422' 001000  000376          54800           CPI     SPCTK
  3766  004423' 000000  000242
  3767  004424' 001000  000312          54820           JZ      TABER>          ;THE SPC FUNCTION?
  3768  004425' 000000  004577'
  3769  004426' 000000  004420'
  3770  004427' 001000  000345          54840           PUSH    H               ;SAVE THE TEXT POINTER
  3771  004430' 001000  000376          54860           CPI     44
  3772  004431' 000000  000054
  3773  004432' 001000  000312          54880           JZ      COMPRT          ;IS IT A COMMA?
  3774  004433' 000000  004553'
  3775  004434' 000000  004452'
  3776  004435' 001000  000376          54900           CPI     59              ;IS IT A ";"
  3777  004436' 000000  000073
  3778  004437' 001000  000312          54920           JZ      NOTABR
  3779  004440' 000000  004637'
  3780  004441' 000000  004633'
  3781  004442' 001000  000301          54940           POP     B               ;GET RID OF OLD TEXT POINTER
  3782  004443' 001000  000315          54960           CALL    FRMEVL          ;BACK UP ONE CHARACTER AND READ THAT ONE
  3783  004444' 000000  005335'
  3784  004445' 000000  004440'
  3785                                  55980                                   ;AGAIN SO THE CONDITION CODES ARE RIGHT
  3786                                  55000                                   ;EVALUATE THE FORMULA
  3787  004446' 001000  000053          55020           DCX     H               ;BACKUP FROM TERMINATOR
  3788  004447' 001000  000345          55040           PUSH    H               ;SAVE TEXT POINTER
  3789                                  55060   IFN     STRING,<
  3790                                  55062   IFE     LENGTH-2,<
  3791  004450' 001000  000315          55064           CALL    GETYPE          ;SEE IF WE HAVE A STRING
  3792  004451' 000000  006307'


-- PAGE 82 --------------------------------------------------------------


BASIC MCS 8080  GATES/ALLEN/DAVIDOFF    MACRO 47(113) 03:12 10-SEP-75 PAGE 17-1
F3      MAC      6-SEP-64 03:11         PRINT CODE

  3793  004452' 000000  004444'
  3794  004453' 001000  000312          55066           JZ      STRDON>         ;IF SO, PRINT SPECIALY
  3795  004454' 000000  004507'
  3796  004455' 000000  004451'
  3797                                  55068   IFN     LENGTH-2,<
  3798                                  55080           LDA     VALTYP
  3799                                  55100           ORA     A
  3800                                  55120           JNZ     STRDON>>        ;WAS IT A STRING FORMULA?
  3801  004456' 001000  000315          55140           CALL    FOUT            ;MAKE A NUMBER INTO A STRING
  3802  004457' 000000  000000*
  3803  004460' 000000  004454'
  3804                                  55160   IFE     STRING,<CALL    STROUT> ;IF STRINGS OFF JUST OUTPUT IT
  3805                                  55180   IFN     STRING,<
  3806  004461' 001000  000315          55200           CALL    STRLIT          ;MAKE IT  A STRING
  3807  004462' 000000  007637'
  3808  004463' 000000  004457'
  3809  004464' 001000  000052          55220           LHLD    FACLO           ;GET THE POINTER
  3810  004465' 000000  001637'
  3811  004466' 000000  004462'
  3812                                  55240   IFN     LPTSW,<
  3813                                  55260           LDA     PRTFLG
  3814                                  55280           ORA     A
  3815                                  55300           JZ      ISTTY           ;LPT OR TTY?
  3816                                  55320           LDA     LPTPOS
  3817                                  55340           ADD     M
  3818                                  55360           CPI     LPTLEN          ;WILL THIS NUMBER OVERLAP?
  3819                                  55380           JMP     LINCHK
  3820                                  55400   ISTTY:>
  3821  004467' 001000  000072          55420           LDA     TTYPOS          ;SEE WHERE WE ARE
  3822  004470' 000000  000047'
  3823  004471' 000000  004465'
  3824  004472' 001000  000206          55440           ADD     M               ;ADD THIS LENGTH
  3825  004473' 001000  000376          55460           CPI     LINLEN          ;SEE IF GREATER THAN THE LINE LENGTH
  3826  004474' 000000  000110
  3827                  004474'         55480   LINPT3==:.-1
  3828  004475' 001000  000324          55500   LINCHK: CNC     CRDO            ;IF SO CRLF
  3829  004476' 000000  004523'
  3830  004477' 000000  004470'
  3831  004500' 001000  000315          55520           CALL    STRPRT>         ;PRINT THE NUMBER
  3832  004501' 000000  007746'
  3833  004502' 000000  004476'
  3834  004503' 001000  000076          55540           MVI     A," "           ;ALWAYS END WITH A SPACE
  3835  004504' 000000  000040
  3836  004505' 001000  000337          55560           OUTCHR
  3837                                  55580   IFN     STRING,<
  3838                                  55590   IFE     LENGTH-2,<
  3839  004506' 001000  000267          55595           ORA     A               ;TURN OFF THE ZERO FLAG
  3840  004507' 001000  000314          55597   STRDON: CZ      STRPRT>
  3841  004510' 000000  007746'
  3842  004511' 000000  004501'
  3843                                  55598   IFN     LENGTH-2,<
  3844                                  55599           XRA     A
  3845                                  55600   STRDON: CNZ     STRPRT>>        ;JUST PRINT STRINGS


-- PAGE 83 --------------------------------------------------------------


BASIC MCS 8080  GATES/ALLEN/DAVIDOFF    MACRO 47(113) 03:12 10-SEP-75 PAGE 17-2
F3      MAC      6-SEP-64 03:11         PRINT CODE

  3846  004512' 001000  000341          55620           POP     H
  3847  004513' 001000  000303          55640           JMP     MORPR           ;PRINT SOME MORE
  3848  004514' 000000  004410'
  3849  004515' 000000  004510'
  3850  004516' 001000  000066          55660   FININL: MVI     M,0             ;PUT A ZERO AT THE END OF BUF
  3851  004517' 000000  000000
  3852  004520' 001000  000041          55680           LXI     H,BUFMIN        ;SETUP POINTER
  3853  004521' 000000  001430'
  3854  004522' 000000  004514'
  3855                                  55700   CRDO:   IFN      LPTSW, <
  3856                                  55720           LDA     PRTFLG
  3857                                  55740           ORA     A
  3858                                  55760           JNZ     PRINTW>
  3859  004523' 001000  000076          55780           MVI     A,13
  3860  004524' 000000  000015
  3861  004525' 001000  000062          55800           STA     TTYPOS          ;MAKE TTYPOS LESS THAN LINE LENGTH
  3862  004526' 000000  000047'
  3863  004527' 000000  004521'
  3864                                  55820                                   ;SO CRDO DOESN'T GET CALLED AGAIN
  3865  004530' 001000  000337          55840           OUTCHR
  3866  004531' 001000  000076          55860           MVI     A,10
  3867  004532' 000000  000012
  3868  004533' 001000  000337          55880           OUTCHR
  3869  004534' 001000  000072          55900   CRFIN:  LDA     NULCNT          ;GET NUMBER OF NULLS
  3870  004535' 000000  000046'
  3871  004536' 000000  004526'
  3872  004537' 001000  000075          55920   PRTNUL: DCR     A
  3873  004540' 001000  000062          55940           STA     TTYPOS          ;EVENTUALLY SETUP TTYPOS=0
  3874  004541' 000000  000047'
  3875  004542' 000000  004535'
  3876  004543' 001000  000310          55960           RZ                      ;ALL NULLS DONE [A]=0
  3877                                  55980                                   ;SOME ROUTINES DEPEND ON CRDO
  3878                                  56000                                   ;AND CRFINS RETURN [A]=0 AND Z  TRUE
  3879  004544' 001000  000365          56020           PUSH    PSW             ;SAVE THE COUNT
  3880  004545' 001000  000257          56040           XRA     A               ;[A]= A NULL
  3881  004546' 001000  000337          56060           OUTCHR                  ;SEND IT OUT
  3882  004547' 001000  000361          56080           POP     PSW             ;RESTORE THE COUNT
  3883  004550' 001000  000303          56100           JMP     PRTNUL          ;LOOP PRINTING NULLS
  3884  004551' 000000  004537'
  3885  004552' 000000  004541'
  3886                                  56120   IFE     STRING,<
  3887                                  56140   STROUI: INX     H
  3888                                  56160   STROUT: MOV     A,M
  3889                                  56180           ORA     A               ;CHECK FOR END OF LINE
  3890                                  56200           RZ                      ;LET IT END THAT WAY
  3891                                  56220           INX     H
  3892                                  56240           CPI     34              ;A TERMINATING QUOTE?
  3893                                  56260           RZ                      ;DONE IF SO
  3894                                  56280           OUTCHR                  ;PRINT THE CHARACTER IN [A]
  3895                                  56300           CPI     CR              ;IF IT'S A CARRIAGE RETURN
  3896                                  56320           CZ      CRDO            ;TYPE LINE-FEED AND SET [TTYPOS]=0
  3897                                  56340           JMP     STROUT>         ;PRINT MORE CHARACTERS
  3898


-- PAGE 84 --------------------------------------------------------------


BASIC MCS 8080  GATES/ALLEN/DAVIDOFF    MACRO 47(113) 03:12 10-SEP-75 PAGE 17-3
F3      MAC      6-SEP-64 03:11         PRINT CODE

  3899                                  56380   COMPRT: IFN     LPTSW,<
  3900                                  56400           LDA     PRTFLG          ;OUTPUT TO THE LINE PRINTER?
  3901                                  56420           ORA     A               ;NON-ZERO MEANS YES
  3902                                  56440           JZ      ISCTTY          ;NO, DO TELETYPE COMMA
  3903                                  56460           LDA     LPTPOS          ;GET LINE PRINTER POSITION
  3904                                  56480   NLPPOS==<<<LPTLEN/CLMWID>-1>*CLMWID>;POSITION BEYOND WHICH THERE ARE
  3905                                  56500                                   ;NO MORE COMMA FIELDS, SO
  3906                                  56520           CPI     NLPPOS          ;COMMA JUST DOES A "CRDO"
  3907                                  56540           JMP     CHKCOM          ;USE TELETYPE CHECK
  3908                                  56560   ISCTTY:>
  3909  004553' 001000  000072          56580           LDA     TTYPOS          ;GET TELETYPE POSITION
  3910  004554' 000000  000047'
  3911  004555' 000000  004551'
  3912                  000070          56600   NUTPOS==<<<LINLEN/CLMWID>-1>*CLMWID>;POSITION BEYOND WHICH THERE ARE
  3913                                  56620                                   ;NO MORE COMMA FIELDS
  3914  004556' 001000  000376          56640           CPI     NUTPOS          ;SO ALL COMMA DOES IS A "CRDO"
  3915  004557' 000000  000070
  3916                  004557'         56660   LINPT4==:.-1                    ;FIXED UP BY "TERMINAL WIDTH" QUESTION
  3917  004560' 001000  000324          56680   CHKCOM: CNC     CRDO            ;TYPE CRLF
  3918  004561' 000000  004523'
  3919  004562' 000000  004554'
  3920  004563' 001000  000322          56700           JNC     NOTABR          ;AND QUIT IF BEYOND THE LAST COMMA FIELD
  3921  004564' 000000  004637'
  3922  004565' 000000  004561'
  3923  004566' 001000  000326          56720   MORCOM: SUI     CLMWID          ;GET [A] MODULUS CLMWID
  3924  004567' 000000  000016
  3925  004570' 001000  000322          56740           JNC     MORCOM
  3926  004571' 000000  004566'
  3927  004572' 000000  004564'
  3928  004573' 001000  000057          56760           CMA                     ;WE WANT TO  FILL
  3929                                  56780                                   ;THE PRINT POSITION OUT
  3930                                  56800                                   ;TO AN EVEN CLMWID, SO
  3931                                  56820                                   ;WE PRINT CLMWID=[A] MOD CLMWID SPACES
  3932  004574' 001000  000303          56840           JMP     ASPA2           ;GO PRINT [A]+1 SPACES
  3933  004575' 000000  004626'
  3934  004576' 000000  004571'
  3935
  3936  004577'                         56880   TABER:
  3937  004577' 001000  000365          56900   IFN     LENGTH,<PUSH    PSW>    ;REMEMBER IF [A]=SPCTK OR TABTK
  3938                                  56920   IFE     LENGTH,<
  3939                                  56940           CALL    INTIDX>         ;INTEGERIZE A FORMULA INTO [D,E]
  3940                                  56960   IFN     LENGTH,<
  3941  004600' 001000  000315          56980           CALL    GTBYTC>         ;GET VALUE INTO [E]
  3942  004601' 000000  011017'
  3943  004602' 000000  004575'
  3944  004603' 001000  000317          57000           SYNCHK  ")"
  3945  004604' 000000  000051
  3946  004605' 001000  000053          57020           DCX     H
  3947                                  57040   IFN     LENGTH,<
  3948  004606' 001000  000361          57060           POP     PSW             ;GET BACK SPCTK OR TABTK
  3949  004607' 001000  000376          57080           CPI     SPCTK>          ;WAS IT SPCTK?
  3950  004610' 000000  000242
  3951  004611' 001000  000345          57100           PUSH    H               ;SAVE THE TEXT POINTER


-- PAGE 85 --------------------------------------------------------------


BASIC MCS 8080  GATES/ALLEN/DAVIDOFF    MACRO 47(113) 03:12 10-SEP-75 PAGE 17-4
F3      MAC      6-SEP-64 03:11         PRINT CODE

  3952                                  57120   IFN     LENGTH,<
  3953  004612' 001000  000173          57140           MOV     A,E             ;FOR "SPC" PUT THE FORMULA
  3954  004613' 001000  000312          57160           JZ      ASPAC>          ;VALUE IN [A]
  3955  004614' 000000  004627'
  3956  004615' 000000  004601'
  3957                                  57180   IFN     LPTSW,<
  3958                                  57200           LDA     PRTFLG          ;LINE PRINTER OR TTY?
  3959                                  57220           ORA     A               ;NON-ZERO MEANS LPT
  3960                                  57240           JZ      TTYIST
  3961                                  57260           LDA     LPTPOS          ;GET LINE PRINTER POSITION
  3962                                  57280           JMP     DOSIZT>
  3963  004616' 001000  000072          57300   TTYIST: LDA     TTYPOS          ;GET TELETYPE PRINT POSITION
  3964  004617' 000000  000047'
  3965  004620' 000000  004614'
  3966  004621' 001000  000057          57320   DOSIZT: CMA                     ;PRINT [E]-[A] SPACES
  3967  004622' 001000  000203          57340           ADD     E
  3968  004623' 001000  000322          57360           JNC     NOTABR          ;IF NEGATIVE, DON'T PRINT ANY
  3969  004624' 000000  004637'
  3970  004625' 000000  004617'
  3971                                  57380                                   ;SPACES
  3972  004626' 001000  000074          57400   ASPA2:  INR     A
  3973  004627' 001000  000107          57420   ASPAC:  MOV     B,A             ;[B]=NUMBER OF SPACES TO PRINT
  3974  004630' 001000  000076          57440           MVI     A," "           ;[A]=SPACE
  3975  004631' 000000  000040
  3976  004632' 001000  000337          57460   REPOUT: OUTCHR                  ;PRINT [A]
  3977  004633' 001000  000005          57480           DCR     B               ;DECREMENT THE COUNT
  3978  004634' 001000  000302          57500           JNZ     REPOUT
  3979  004635' 000000  004632'
  3980  004636' 000000  004624'
  3981  004637' 001000  000341          57520   NOTABR: POP     H               ;PICK UP TEXT POINTER
  3982  004640' 001000  000327          57540           CHRGET                  ;AND THE NEXT CHARACTER
  3983  004641' 001000  000303          57560           JMP     PRINTC          ;AND SINCE WE JUST PRINTED
  3984  004642' 000000  004414'
  3985  004643' 000000  004635'
  3986                                  57580                                   ;SPACES, DON'T CALL CRDO
  3987                                  57600                                   ;IF IT'S THE END OF THE LINE
  3988                                  57620   PAGE


-- PAGE 86 --------------------------------------------------------------


BASIC MCS 8080  GATES/ALLEN/DAVIDOFF    MACRO 47(113) 03:12 10-SEP-75 PAGE 18
F3      MAC      6-SEP-64 03:11         INPUT AND READ CODE

  3989                                  57640   SUBTTL INPUT AND READ CODE
  3990                                  57660   IFN     LENGTH,<
  3991  004644' 000000  000077          57680   TRYAGN: DC"?REDO FROM START"
  3992  004645' 000000  000122
  3993  004646' 000000  000105
  3994  004647' 000000  000104
  3995  004650' 000000  000117
  3996  004651' 000000  000040
  3997  004652' 000000  000106
  3998  004653' 000000  000122
  3999  004654' 000000  000117
  4000  004655' 000000  000115
  4001  004656' 000000  000040
  4002  004657' 000000  000123
  4003  004660' 000000  000124
  4004  004661' 000000  000101
  4005  004662' 000000  000122
  4006  004663' 000000  000124
  4007  004663' 000000  000324
  4008  004664' 000000  000015          57700           ACRLF
  4009  004665' 000000  000012
  4010  004666' 000000  000000          57720           0
  4011                                  57740   ;
  4012                                  57760   ; HERE WHEN THE DATA THAT WAS TYPED IN OR IN "DATA" STATEMENTS
  4013                                  57780   ; IS IMPROPERLY FORMATTED. FOR "INPUT" WE START AGAIN.
  4014                                  57800   ; FOR "DATA" WE GIVE A SYNTAX ERROR AT THE DATA LINE
  4015                                  57820   ;
  4016  004667' 001000  000072          57840   TRMNOK: LDA     FLGINP          ;WAS IT READ OR INPUT?
  4017  004670' 000000  001602'
  4018  004671' 000000  004642'
  4019  004672' 001000  000267          57860           ORA     A               ;ZERO=INPUT
  4020  004673' 001000  000302          57880           JNZ     DATSNE          ;GIVE ERROR AT DATA LINE
  4021  004674' 000000  002064'
  4022  004675' 000000  004670'
  4023                                  57900           POP     B               ;GET RID OF THE POINTER INTO THE VARIABLE LIST
  4024  004676' 001000  000301
  4025  004677' 001000  000041          57920           LXI     H,TRYAGN
  4026  004700' 000000  004644'
  4027  004701' 000000  004674'
  4028  004702' 001000  000315          57940           CALL    STROUT          ;PRINT "?REDO FROM START"
  4029  004703' 000000  007743'
  4030  004704' 000000  004700'
  4031  004705' 001000  000052          57960           LHLD    TEMP            ;START ALL OVER BY GOING BACK
  4032  004706' 000000  001603'
  4033  004707' 000000  004703'
  4034  004710' 001000  000311          57980           RET>                    ;TO NEWSTT POINTING AT THE START OF
  4035                                  57982                                   ;OF THE "INPUT" STATEMENT
  4036  004711'                         58000   INPUT:
  4037                                  58020   IFN     LENGTH,<
  4038  004711' 001000  000376          58040           CPI     34              ;IS IT A QUOTE?
  4039  004712' 000000  000042
  4040                                  58060   IFN     CONTRW,<
  4041  004713' 001000  000076          58080           MVI     A,0             ;BE TALKATIVE


-- PAGE 87 --------------------------------------------------------------


BASIC MCS 8080  GATES/ALLEN/DAVIDOFF    MACRO 47(113) 03:12 10-SEP-75 PAGE 18-1
F3      MAC      6-SEP-64 03:11         INPUT AND READ CODE

  4042  004714' 000000  000000
  4043  004715' 001000  000062          58100           STA     CNTWFL>         ;FORCE OUTPUT
  4044  004716' 000000  001541'
  4045  004717' 000000  004706'
  4046  004720' 001000  000302          58120           JNZ     NOTQTI          ;IF NOT NO MESSAGE
  4047  004721' 000000  004735'
  4048  004722' 000000  004716'
  4049                                  58140   IFN     STRING,<
  4050  004723' 001000  000315          58160           CALL    STRLTI          ;MAKE THE MESSAGE A STRING
  4051  004724' 000000  007640'
  4052  004725' 000000  004721'
  4053  004726' 001000  000317          58180           SYNCHK  59              ;MUST END WITH SEMI-COLON
  4054  004727' 000000  000073
  4055  004730' 001000  000345          58200           PUSH    H               ;REMEMBER WHERE IT ENDED
  4056  004731' 001000  000315          58220           CALL    STRPRT          ;PRINT IT OUT
  4057  004732' 000000  007746'
  4058  004733' 000000  004724'
  4059  004734' 001000  000341          58240           POP     H>
  4060                                  58260   IFE     STRING,<
  4061                                  58280           CALL    STROUI
  4062                                  58300           SYNCHK  59>>            ;ENDS WITH SEMI-COLON
  4063  004735' 001000  000345          58320   NOTQTI: PUSH    H
  4064                                  58340   IFE     FUNCTS,<
  4065                                  58360           LHLD    CURLIN          ;IS IT DIRECT?
  4066                                  58380           MVI     E,ERRID         ;IF SO "ILLEGAL DIRECT" ERROR
  4067                                  58400           INX     H               ;DIRECT MEANS THAT
  4068                                  58420           MOV     A,L             ;CURLIN=65535
  4069                                  58440           ORA     H               ;ADDED ONE AND GOT 0?
  4070                                  58460           JZ      ERROR>          ;IF SO,GO COMPLAIN
  4071                                  58480   IFN     FUNCTS,<
  4072  004736' 001000  000315          58500           CALL    ERRDIR>         ;USE COMMON ROUTINE SINCE DEF
  4073  004737' 000000  007532'
  4074  004740' 000000  004732'
  4075                                  58520                                   ;DIRECT IS ALSO ILLEGAL
  4076  004741' 001000  000315          58540   GETAGN: CALL    QINLIN          ;TYPE '?' AND INPUT A LINE OF TEXT
  4077  004742' 000000  002522'
  4078  004743' 000000  004737'
  4079  004744' 001000  000043          58560   IFN     LENGTH,<INX     H       ;IF NO INPUT WE QUIT
  4080  004745' 001000  000176          58580           MOV     A,M
  4081  004746' 001000  000267          58600           ORA     A
  4082  004747' 001000  000053          58620           DCX     H
  4083  004750' 001000  000301          58640           POP     B               ;TAKE OFF SINCE MAYBE LEAVING
  4084  004751' 001000  000312          58660           JZ      STPEND          ;IF EMPTY LEAVE
  4085  004752' 000000  003500'
  4086  004753' 000000  004742'
  4087  004754' 001000  000305          58680           PUSH    B>              ;PUT BACK SINCE DIDN'T LEAVE
  4088  004755' 001000  000303          58700           JMP     INPCON
  4089  004756' 000000  004765'
  4090  004757' 000000  004752'
  4091  004760' 001000  000345          58720   READ:   PUSH    H               ;SAVE THE TEXT POINTER
  4092  004761' 001000  000052          58740           LHLD    DATPTR          ;GET LAST DATA LOCATION
  4093  004762' 000000  001627'
  4094  004763' 000000  004756'


-- PAGE 88 --------------------------------------------------------------


BASIC MCS 8080  GATES/ALLEN/DAVIDOFF    MACRO 47(113) 03:12 10-SEP-75 PAGE 18-2
F3      MAC      6-SEP-64 03:11         INPUT AND READ CODE

  4095  004764' 001000  000366          58760           XWD     ^O1000,^O366    ;"ORI" TO SET [A] NON-ZERO
  4096  004765' 001000  000257          58780   INPCON: XRA     A               ;SET FLAG THAT THIS IS AN INPUT
  4097  004766' 001000  000062          58800           STA     FLGINP          ;STORE THE FLAG
  4098  004767' 000000  001602'
  4099  004770' 000000  004762'
  4100                                  58820   ;
  4101                                  58840   ; IN THE PROCESSING OF DATA AND READ STATEMENTS:
  4102                                  58860   ; ONE POINTER POINTS TO THE DATA (IE THE NUMBERS BEING FETCHED)
  4103                                  58880   ; AND ANOTHER POINTS TO THE LIST OF VARIABLES
  4104                                  58900   ;
  4105                                  58920   ; THE POINTER INTO THE DATA ALWAYS STARTS POINTING TO A
  4106                                  58940   ; TERMINATOR -- A, :, OR END-OF-LINE
  4107                                  58960   ;
  4108  004771' 001000  000343          58980           XTHL                    ;[H,L]=VARIABLE LIST POINTER
  4109                                  58982                                   ;DATA POINTER GOES ON THE STACK
  4110  004772' 001000  000001          59000           XWD     ^O1000,1        ;"LXI B," OVER THIS CHECK
  4111  004773' 001000  000317          59020   LOPDT2: SYNCHK  44              ;MAKE SURE THERE IS A ","
  4112  004774' 000000  000054
  4113  004775' 001000  000315          59040           CALL    PTRGET          ;READ THE VARIABLE LIST
  4114  004776' 000000  000505'
  4115  004777' 000000  000767'
  4116                                  59060                                   ;AND GET THE POINTER TO A VARIABLE INTO [D,E]
  4117  005000' 001000  000343          59080           XTHL                    ;PUT THE VARIABLE LIST POINTER ONTO THE
  4118                                  59100                                   ;STACK AND TAKE THE
  4119                                  59120                                   ;DATA LIST POINTER OFF
  4120                                  59140   ;
  4121                                  59160   ; NOTE AT THIS POINT WE HAVE A VARIABLE WHICH WANTS DATA
  4122                                  59180   ; AND SO WE MUST GET DATA OR COMPLAIN
  4123                                  59200   ;
  4124  005001' 001000  000325          59220           PUSH    D               ;SAVE THE POINTER TO THE VARIABLE WE
  4125                                  59240                                   ;ARE ABOUT TO SET UP WITH A VALUE
  4126  005002' 001000  000176          59260           MOV     A,M             ;SINCE THE DATA LIST POINTER ALWAYS POINTS
  4127                                  59280                                   ;AT A TERMINATOR LETS READ THE
  4128                                  59300                                   ;TERMINATOR INTO [A] AND SEE WHAT
  4129                                  59320                                   ;IT IS
  4130  005003' 001000  000376          59340           CPI     44
  4131  005004' 000000  000054
  4132  005005' 001000  000312          59360           JZ      DATBK           ;A COMMA SO A VALUE MUST FOLLOW
  4133  005006' 000000  005025'
  4134  005007' 000000  004776'
  4135                                  59380   IFE     LENGTH,<
  4136                                  59400           ORA     A               ;IN THE 4K VERSION
  4137                                  59420           JNZ     SNERR>          ;DATA MUST BE ALONE ON A LINE
  4138  005010' 001000  000072          59440           LDA     FLGINP          ;SEE WHAT TYPE OF STATEMENT THIS WAS
  4139  005011' 000000  001602'
  4140  005012' 000000  005006'
  4141  005013' 001000  000267          59460           ORA     A
  4142                                  59480   IFE     LENGTH,<
  4143                                  59500           INX     H               ;POINT AT POINTER TO THE NEXT LINE
  4144                                  59520           JNZ     DATFND>         ;IF IT IS A READ GO
  4145                                  59540                                   ;SEARCH FOR ANOTHER DATA STATEMENT
  4146  005014' 001000  000302          59560   IFN     LENGTH,<JNZ     DATLOP>
  4147  005015' 000000  005163'


-- PAGE 89 --------------------------------------------------------------


BASIC MCS 8080  GATES/ALLEN/DAVIDOFF    MACRO 47(113) 03:12 10-SEP-75 PAGE 18-3
F3      MAC      6-SEP-64 03:11         INPUT AND READ CODE

  4148  005016' 000000  005011'
  4149  005017' 001000  000076          59580           MVI     A,"?"
  4150  005020' 000000  000077
  4151  005021' 001000  000337          59600           OUTCHR                  ;DOUBLE PROMPT WHEN WE NEED MORE INPUT
  4152  005022' 001000  000315          59620           CALL    QINLIN          ;GET A WHOLE LINE AFTER TYPING "?"
  4153  005023' 000000  002522'
  4154  005024' 000000  005015'
  4155                                  59640                                   ;THE DATA NOW STARTS AT THE BEGINNING
  4156                                  59660                                   ;OF THE BUFFER
  4157                                  59680                                   ;AND QINLIN LEAVES [H,L]=BUF
  4158  005025'                         59700   DATBK:
  4159                                  59720   IFE     LENGTH,<POP     D       ;POP OFF POINTER TO THE VARIABLE
  4160                                  59740           INX     H               ;FUDGE CHARACTER POINTER
  4161                                  59760           CALL    REDINP>         ;READ A VALUE USING "LET" CODE
  4162                                  59780   IFN     LENGTH,<
  4163                                  59800   IFN     STRING,<
  4164  005025' 001000  000072          59820           LDA     VALTYP          ;SEE IF ITS NUMERIC OR STRING
  4165  005026' 000000  001543'
  4166  005027' 000000  005023'
  4167                                  59840   IFE     LENGTH-2,<
  4168  005030' 001000  000376          59860           CPI     3               ;IS IT A STRING ?
  4169  005031' 000000  000003
  4170  005032' 001000  000365          59880           PUSH    PSW             ;SAVE THE TYPE INFORMATION
  4171  005033' 001000  000302          59900           JNZ     NUMINS>         ;IF NUMERIC,USE FIN TO GET IT
  4172  005034' 000000  005070'
  4173  005035' 000000  005026'
  4174                                  59920   IFN     LENGTH-2,<
  4175                                  59940           ORA     A
  4176                                  59960           JZ      NUMINS>         ;INPUT A NUMBER IF NUMERIC
  4177                                  59980                                   ;ONLY THE VARIABLE TYPE IS
  4178                                  60000                                   ;CHECKED SO AN UNQUOTED STRING
  4179                                  60020                                   ;CAN BE ALL DIGITS
  4180  005036' 001000  000327          60040           CHRGET
  4181  005037' 001000  000127          60060           MOV     D,A             ;ASSUME QUOTED STRING
  4182  005040' 001000  000107          60080           MOV     B,A             ;SETUP TERMINATORS
  4183  005041' 001000  000376          60100           CPI     34              ;QUOTE ?
  4184  005042' 000000  000042
  4185  005043' 001000  000312          60120           JZ      NOWGET          ;TERMINATORS OK
  4186  005044' 000000  005053'
  4187  005045' 000000  005034'
  4188  005046' 001000  000026          60140           MVI     D,":"           ;UNQUOTED STRING TERINATORS
  4189  005047' 000000  000072
  4190  005050' 001000  000006          60160           MVI     B,44            ;ARE COLON AND COMMA
  4191  005051' 000000  000054
  4192                                  60180           DCX     H               ;BACKUP SINCE START CHARACTER MUST BE INCLUDED
  4193  005052' 001000  000053
  4194                                  60200                                   ;IN THE QUOTES STRING CASE WE DON'T WANT TO
  4195                                  60220                                   ;INCLUDE THE STARTING OR ENDING QUOTE
  4196  005053' 001000  000315          60240   NOWGET: CALL    STRLT2          ;MAKE A STRING DESCRIPTOR FOR THE VALUE
  4197  005054' 000000  007643'
  4198  005055' 000000  005044'
  4199                                  60242                                   ;AND COPY IF NECESSARY
  4200                                  60260   IFE     LENGTH-2,<


-- PAGE 90 --------------------------------------------------------------


BASIC MCS 8080  GATES/ALLEN/DAVIDOFF    MACRO 47(113) 03:12 10-SEP-75 PAGE 18-4
F3      MAC      6-SEP-64 03:11         INPUT AND READ CODE

  4201  005056' 001000  000361          60280   DOASIG: POP     PSW>            ;POP OFF THE TYPE INFORMATION
  4202  005057' 001000  000353          60320           XCHG                    ;[D,E]=TEXT POINTER
  4203  005060' 001000  000041          60340           LXI     H,STRDN2        ;RETURN LOC
  4204  005061' 000000  005077'
  4205  005062' 000000  005054'
  4206  005063' 001000  000343          60360           XTHL                    ;[H,L]=PLACE TO STORE VARIABLE VALUE
  4207  005064' 001000  000325          60380           PUSH    D               ;TEXT POINTER GOES ON
  4208  005065' 001000  000303          60400           JMP     INPCOM>         ;DO ASSIGNMENT
  4209  005066' 000000  004157'
  4210  005067' 000000  005061'
  4211  005070' 001000  000327          60420   NUMINS: CHRGET
  4212  005071' 001000  000315          60440           CALL    FIN
  4213  005072' 000000  000000*
  4214  005073' 000000  005066'
  4215                                  60460   IFE     LENGTH-2,<
  4216  005074' 001000  000303          60480           JMP     DOASIG>         ;ASSIGNMENT IS COMPLICATED
  4217  005075' 000000  005056'
  4218  005076' 000000  005072'
  4219                                  60500                                   ;EVEN FOR NUMERICS SO USE THE "LET" CODE
  4220                                  60520   IFN     LENGTH-2,<
  4221                                  60540           XTHL                    ;[H,L] GET POINTER AT VARIABLE
  4222                                  60560           CALL    MOVMF           ;DO THE ASSIGNMENT
  4223                                  60580           POP     H>>             ;GET BACK THE TEXT POINTER
  4224                                  60600   STRDN2:
  4225                                  60620   IFN     LENGTH,<
  4226  005077' 001000  000053          60640           DCX     H
  4227  005100' 001000  000327          60660           CHRGET
  4228  005101' 001000  000312          60680           JZ      TRMOK
  4229  005102' 000000  005111'
  4230  005103' 000000  005075'
  4231  005104' 001000  000376          60700           CPI     44
  4232  005105' 000000  000054
  4233  005106' 001000  000302          60720           JNZ     TRMNOK          ;ENDED PROPERLY?
  4234  005107' 000000  004667'
  4235  005110' 000000  005102'
  4236  005111' 001000  000343          60740   TRMOK:  XTHL
  4237  005112' 001000  000053          60760           DCX     H               ;LOOK AT TERMINATOR
  4238  005113' 001000  000327          60780           CHRGET                  ;AND SET UP CONDITION CODES
  4239  005114' 001000  000302          60800           JNZ     LOPDT2          ;NOT ENDING, CHECK FOR COMMA
  4240  005115' 000000  004773'
  4241  005116' 000000  005107'
  4242                                  60820                                   ;AND GET ANOTHER VARIABLE
  4243                                  60840                                   ;TO FILL WITH DATA
  4244
  4245  005117' 001000  000321          60880           POP     D               ;POP OFF THE POINTER INTO DATA
  4246  005120' 001000  000072          60900           LDA     FLGINP          ;FETCH THE STATEMENT TYPE FLAG
  4247  005121' 000000  001602'
  4248  005122' 000000  005115'
  4249  005123' 001000  000267          60920           ORA     A
  4250                                  60940   IFE     LENGTH,<RZ>             ;DON'T UPDATE DATPTR IF IT WAS AN
  4251                                  60960                                   ;INPUT STATEMENT
  4252  005124' 001000  000353          60980           XCHG
  4253  005125' 001000  000302          61000           JNZ     RESFIN          ;UPDATE DATPTR


-- PAGE 91 --------------------------------------------------------------


BASIC MCS 8080  GATES/ALLEN/DAVIDOFF    MACRO 47(113) 03:12 10-SEP-75 PAGE 18-5
F3      MAC      6-SEP-64 03:11         INPUT AND READ CODE

  4254  005126' 000000  003453'
  4255  005127' 000000  005121'
  4256                                  61020   IFN     LENGTH,<
  4257  005130' 001000  000266          61040           ORA     M               ;COULD HAVE ENDED WITH COMMA OR
  4258                                  61060                                   ;COLON, BUT SHOULD BE A ZERO
  4259  005131' 001000  000041          61080           LXI     H,EXIGNT        ;TEXT FOR "EXTRA"
  4260  005132' 000000  005142'
  4261  005133' 000000  005126'
  4262  005134' 001000  000325          61100           PUSH    D               ;SAVE THE TEXT POINTER
  4263  005135' 001000  000304          61120           CNZ     STROUT          ;IF WASN'T REAL END SAY SOMETHING
  4264  005136' 000000  007743'
  4265  005137' 000000  005132'
  4266  005140' 001000  000341          61140           POP     H               ;GET BACK THE TEXT POINTER
  4267  005141' 001000  000311          61160           RET
  4268  005142' 000000  000077          61180   EXIGNT: DC"?EXTRA IGNORED"
  4269  005143' 000000  000105
  4270  005144' 000000  000130
  4271  005145' 000000  000124
  4272  005146' 000000  000122
  4273  005147' 000000  000101
  4274  005150' 000000  000040
  4275  005151' 000000  000111
  4276  005152' 000000  000107
  4277  005153' 000000  000116
  4278  005154' 000000  000117
  4279  005155' 000000  000122
  4280  005156' 000000  000105
  4281  005157' 000000  000104
  4282  005167' 000000  000304
  4283  005160' 000000  000015          61200           ACRLF
  4284  005161' 000000  000012
  4285  005162' 000000  000000          61220           0>
  4286                                  61240   ;
  4287                                  61260   ; SUBROUTINE TO FIND DATA
  4288                                  61280   ; IN THE 4K "DATA" MUST BE AT THE START OF THE LINE
  4289                                  61300   ; SO THE SEARCH IS MADE USING THE LINKS AT THE START OF EACH LINE.
  4290                                  61320   ;
  4291                                  61340   ; IN THE 8K AND EXTENDED THE SEARCH IS MADE BY USING THE EXECUTION CODE
  4292                                  61360   ; FOR DATA TO SKIP OVER STATEMENTS. THE START WORD OF EACH STATEMENT
  4293                                  61380   ; IS COMPARED WITH DATATK. EACH NEW LINE NUMBER
  4294                                  61400   ; IS STORED IN DATLIN SO THAT IF AN ERROR OCCURS WHILE READING
  4295                                  61420   ; DATA THE ERROR MESSAGE WILL GIVE THE LINE NUMBER OF THE
  4296                                  61440   ; ILL-FORMATTED DATA
  4297                                  61460   ;
  4298  005163' 001000  000315          61480   DATLOP: IFN     LENGTH,<CALL    DATA>
  4299  005164' 000000  004072'
  4300  005165' 000000  005136'
  4301                                  61500           IFE     LENGTH,<POP     H>
  4302                                  61520   DATFND: IFN     LENGTH,<
  4303  005166' 001000  000267          61540           ORA     A
  4304  005167' 001000  000302          61560           JNZ     NOWLIN>
  4305  005170' 000000  005214'
  4306  005171' 000000  005164'


-- PAGE 92 --------------------------------------------------------------


BASIC MCS 8080  GATES/ALLEN/DAVIDOFF    MACRO 47(113) 03:12 10-SEP-75 PAGE 18-6
F3      MAC      6-SEP-64 03:11         INPUT AND READ CODE

  4307                                  61580   IFN     LENGTH,<
  4308  005172' 001000  000043          61600           INX     H>
  4309  005173' 001000  000367          61620           PUSHM                   ;SAVE POINTER TO THE NEXT STATEMENT
  4310  005174' 001000  000171          61640           MOV     A,C             ;SEE IF WE ARE AT THE END
  4311  005175' 001000  000260          61660           ORA     B
  4312  005176' 001000  000036          61680           MVI     E,ERROD         ;NO DATA IS ERROR ERROD
  4313  005177' 000000  000004
  4314  005200' 001000  000312          61700           JZ      ERROR           ;IF SO COMPLAIN
  4315  005201' 000000  002102'
  4316  005202' 000000  005170'
  4317                                  61720   IFE     LENGTH,<INX     H>      ;SKIP PAST LINE #
  4318  005203' 001000  000301          61740   IFN     LENGTH,<POP     B>
  4319  005204' 001000  000136          61760           MOV     E,M             ;GET DATA LINE #
  4320  005205' 001000  000043          61780           INX     H
  4321  005206' 001000  000126          61800           MOV     D,M
  4322  005207' 001000  000353          61820           XCHG
  4323  005210' 001000  000042          61840           SHLD    DATLIN
  4324  005211' 000000  001577'
  4325  005212' 000000  005201'
  4326  005213' 001000  000353          61860           XCHG>                   ;RESTORE TEXT POINTER
  4327  005214' 001000  000327          61880   NOWLIN: CHRGET                  ;GET THE STATEMENT TYPE
  4328  005215' 001000  000376          61900           CPI     DATATK          ;IS IS "DATA"?
  4329  005216' 000000  000203
  4330  005217' 001000  000302          61920           JNZ     DATLOP          ;NOT DATA SO LOOK SOME MORE
  4331  005220' 000000  005163'
  4332  005221' 000000  005211'
  4333                                  61940   IFE     LENGTH,<POP     B>
  4334  005222' 001000  000303          61960           JMP     DATBK           ;CONTINUE READING
  4335  005223' 000000  005025'
  4336  005224' 000000  005220'
  4337
  4338
  4339
  4340                                  62040   PAGE


-- PAGE 93 --------------------------------------------------------------


BASIC MCS 8080  GATES/ALLEN/DAVIDOFF    MACRO 47(113) 03:12 10-SEP-75 PAGE 19
F3      MAC      6-SEP-64 03:11         NEXT CODE

  4341                                  62060   SUBTTL NEXT CODE
  4342                                  62080   ;
  4343                                  62100   ; NOTE:
  4344                                  62120   ;
  4345                                  62140   ;
  4346                                  62160   ; A FOR ENTRY ON THE STACK HAS THE FOLLOWING FORMAT:
  4347                                  62180   ;
  4348                                  62200   ;
  4349                                  62220   ; LOW ADDRESS
  4350                                  62240   ;       TOKEN (FORTK IN HIGH BYTE)  1 BYTES
  4351                                  62260   ;       A POINTER TO THE LOOP VARIABLE  2 BYTES
  4352                                  62280   ;       A BYTE REFLECTING THE SIGN OF THE INCREMENT 1 BYTE
  4353                                  62300   ;       THE STEP 4 BYTES
  4354                                  62320   ;       THE UPPER VALUE 4 BYTES
  4355                                  62340   ;       THE LINE # OF THE "FOR" STATEMENT 2 BYTES
  4356                                  62360   ;       A TEXT POINTER INTO THE "FOR" STATEMENT 2 BYTES
  4357                                  62380   ; HIGH ADDRESS
  4358                                  62400   ;
  4359                                  62420   ; TOTAL 16 BYTES
  4360                                  62440   ;
  4361  005225'                         62460   NEXT:
  4362  005225' 001000  000021          62480   IFN     LENGTH,<LXI     D,$CODE>;FOR THE "NEXT"
  4363  005226' 000000  000000'
  4364  005227' 000000  005223'
  4365                                  62500                                   ;STATEMENT WITHOUT ANY ARGS
  4366                                  62520                                   ;WE CALL FNDFOR WITH [D,E]=0
  4367                                  62540   NEXTC:
  4368                                  62560   IFE     LENGTH,<
  4369                                  62580           CALL    PTRGET>         ;MUST HAVE A VARIABLE
  4370                                  62600   IFN     LENGTH,<
  4371  005230' 001000  000304          62620           CNZ     PTRGET>         ;GET A POINTER TO THE
  4372  005231' 000000  006505'
  4373  005232' 000000  005226'
  4374                                  62640                                   ;LOOP VARIABLE INTO [D,E]
  4375  005233' 001000  000042          62660           SHLD    TEMP            ;PUT THE TEXT POINTER
  4376  005234' 000000  001744'
  4377  005235' 000000  005234'
  4378                                  62680                                   ;IN A TEMP LOCATION
  4379                                  62700                                   ;IN CASE THE LOOP TERMINATES
  4380  005236' 001000  000302          62720           CALL    FNDFOR          ;TRY TO FIND A FOR ENTRY
  4381  005237' 000000  001744'
  4382  005240' 000000  005234'
  4383                                  62740                                   ;ON THE STACK WHOSE VARIABLE NAME
  4384                                  62760                                   ;MATCHES THIS ONES
  4385                                  62780   IFN     LENGTH,<
  4386  005241' 001000  000302          62800           JNZ     NFERR>          ;"NEXT WITHOUT FOR"
  4387  005242' 000000  002100'
  4388  005243' 000000  005237'
  4389  005244' 001000  000371          62820           SPHL                    ;SETUP STACK POINTER BY CHOPPING
  4390                                  62840                                   ;AT THIS POINT
  4391  005245' 001000  000325          62860           PUSH    D               ;PUT THE VARIABLE PTR BACK ON
  4392  005246' 001000  000176          62880           MOV     A,M             ;STEP ONTO THE STACK
  4393  005247' 001000  000043          62900           INX     H


-- PAGE 94 --------------------------------------------------------------


BASIC MCS 8080  GATES/ALLEN/DAVIDOFF    MACRO 47(113) 03:12 10-SEP-75 PAGE 19-1
F3      MAC      6-SEP-64 03:11         NEXT CODE

  4394  005250' 001000  000365          62920           PUSH    PSW
  4395  005251' 001000  000325          62940           PUSH    D               ;PUT THE POINTER TO THE LOOP
  4396                                  62960                                   ;VARIABLE ONTO THE STACK
  4397                                  62980   IFE     LENGTH,<
  4398                                  63000           MVI     E,ERRNF
  4399                                  63020           JNZ     ERROR>
  4400  005252' 001000  000315          63040           CALL    MOVFM           ;STEP VALUE INTO THE FAC
  4401  005253' 000000  000000*
  4402  005254' 000000  005242'
  4403  005255' 001000  000343          63060           XTHL                    ;PUT THE POINTER INTO THE
  4404                                  63080                                   ;FOR ENTRY ONTO THE STACK
  4405  005256' 001000  000345          63100           PUSH    H               ;PUT THE POINTER TO THE LOOP
  4406                                  63120                                   ;VARIABLE BACK ONTO THE STACK
  4407  005257' 001000  000315          63140           CALL    FADDS           ;ADD THE STEP AND LOOP VARIABLE
  4408  005260' 000000  000000*
  4409  005261' 000000  005253'
  4410  005262' 001000  000341          63160           POP     H               ;POP OFF THE POINTER TO
  4411                                  63180                                   ;THE LOOP VARIABLE
  4412  005263' 001000  000315          63200           CALL    MOVMF           ;MOV FAC INTO LOOP VARIABLE
  4413  005264' 000000  000000*
  4414  005265' 000000  005260'
  4415  005266' 001000  000341          63220           POP     H               ;GET THE ENTRY POINTER
  4416  005267' 001000  000315          63240           CALL    MOVRM           ;GET THE FINAL INTO THE REGISTERS
  4417  005270' 000000  000000*
  4418  005271' 000000  005264'
  4419  005272' 001000  000345          63260           PUSH    H               ;SAVE THE ENTRY POINTER
  4420  005273' 001000  000315          63280           CALL    FCOMP           ;COMPARE THE NUMBERS
  4421  005274' 000000  000714*
  4422  005275' 000000  005270'
  4423  005276' 001000  000341          63300           POP     H               ;STILL POINTING TO THE FINAL VALUE
  4424  005277' 001000  000301          63320           POP     B               ;GET THE SIGN  OF THE INCREMENT
  4425  005300' 001000  000220          63340           SUB     B               ;SUBTRACT THE INCREMENTS SIGN FROM THAT
  4426                                  63360                                   ;OF (CURRENT VALUE-FINAL VALUE)
  4427  005301' 001000  000315          63380           CALL    MOVRM           ;GET LINE # OF "FOR" INTO [D,E]
  4428  005302' 000000  005270*
  4429  005303' 000000  005274'
  4430                                  63400                                   ;GET TEXT POINTER OF "FOR" INTO [B,C]
  4431  005304' 001000  000312          63420           JZ      LOOPON          ;IF SIGN(FINAL-CURRENT)+SIGN(STEP)=0
  4432  005305' 000000  005320'
  4433  005306' 000000  005302'
  4434                                  63440                                   ;THEN THE LOOP IS FINISHED
  4435  005307' 001000  000353          63460           XCHG
  4436  005310' 001000  000042          63480           SHLD    CURLIN          ;STORE THE LINE #
  4437  005311' 000000  001607'
  4438  005312' 000000  005305'
  4439  005313' 001000  000151          63500           MOV     L,C             ;SETUP THE TEXT POINTER
  4440  005314' 001000  000140          63520           MOV     H,B
  4441  005315' 001000  000303          63540           JMP     NXTCON
  4442  005316' 000000  003276'
  4443  005317' 000000  005311'
  4444
  4445  005320' 001000  000371          63580   LOOPON: SPHL                    ;ELIMINATE THE FOR ENTRY
  4446                                  63600                                   ;SINCE [H,L] MOVED ALL


-- PAGE 95 --------------------------------------------------------------


BASIC MCS 8080  GATES/ALLEN/DAVIDOFF    MACRO 47(113) 03:12 10-SEP-75 PAGE 19-2
F3      MAC      6-SEP-64 03:11         NEXT CODE

  4447                                  63620                                   ;THE WAY DOWN THE ENTRY
  4448  005321' 001000  000052          63640           LHLD    TEMP            ;RESTORE THE TEXT POINTER
  4449  005322' 000000  001603'
  4450  005323' 000000  005316'
  4451                                  63660   IFE     LENGTH,<JMP     NEWSTT>
  4452                                  63680   IFN     LENGTH,<
  4453  005324' 001000  000176          63700           MOV     A,M             ;IS THERE A COMMA AT THE END
  4454  005325' 001000  000376          63720           CPI     44              ;IF SO LOOK AT ANOTHER
  4455  005326' 000000  000054
  4456  005327' 001000  000302          63740           JNZ     NEWSTT          ;VARIABLE NAME TO "NEXT"
  4457  005330' 000000  003302'
  4458  005331' 000000  005322'
  4459  005332' 001000  000327          63760           CHRGET                  ;READ FIRST CHARACTER
  4460  005333' 001000  000315          63780           CALL    NEXTC>          ;DO NEXT, BUT DON'T ALLOW
  4461  005334' 000000  005230'
  4462  005335' 000000  005330'
  4463                                  63800                                   ;BLANK VARIABLE NAME [D,E]=STK PTR
  4464                                  63820                                   ;AND WILL NEVER MATCH ANY VARPTR
  4465                                  63840                                   ;USE CALL TO PUT DUMMY "NEWSTT" ENTRY ON
  4466
  4467                                  63880   PAGE


-- PAGE 96 --------------------------------------------------------------


BASIC MCS 8080  GATES/ALLEN/DAVIDOFF    MACRO 47(113) 03:12 10-SEP-75 PAGE 20
F3      MAC      6-SEP-64 03:11         NEXT CODE

  4468
  4469


-- PAGE 97 --------------------------------------------------------------


BASIC MCS 8080  GATES/ALLEN/DAVIDOFF    MACRO 47(113) 03:12 10-SEP-75 PAGE 21
F3      MAC      6-SEP-64 03:11         FORMULA EVALUATION CODE

  4470                                  00020   SUBTTL FORMULA EVALUATION CODE
  4471
  4472                                  00060   IFN     LENGTH-2,<
  4473                                  00080   IFN     STRING,<
  4474                                  00100   ;
  4475                                  00120   ; THESE ROUTINES CHECK FOR A CERTAIN VALTYP
  4476                                  00140   ; [A] IS NOT PRESERVED
  4477                                  00160   ;
  4478                                  00180   FRMNUM: CALL    FRMEVL          ;EVALUATE A FORMULA
  4479                                  00200   CHKNUM: XWD     ^O1000,^O366    ;TURN CARRY OFF WITH ORI
  4480                                  00220   CHKSTR: STC                     ;SET CARRY
  4481                                  00240   CHKVAL: LDA     VALTYP          ;0 MEANS NUMERIC 1 MEANS STRING
  4482                                  00260           ADC     A               ;RESULT SHOULD BE 0 OR 3
  4483                                  00280                                   ;BAD RESULTS ARE 2 AND 1
  4484                                  00300           RPE                     ;RETURN IF CORRECT RESULT
  4485                                  00320   TMERR:  MVI     E,ERRTM         ;"TYPE MISMATCH ERROR"
  4486                                  00340           JMP     ERROR>>
  4487                                  00360   ;
  4488                                  00380   ; THE FORMULA EVALUATOR STARTS WITH
  4489                                  00400   ; [H,L] POINTING TO THE FIRST CHARACTER OF THE FORMULA.
  4490                                  00420   ; AT THE END [H,L] POINTS TO THE TERMINATOR.
  4491                                  00440   ; THE RESULT IS LEFT IN THE FAC.
  4492                                  00460   ;
  4493                                  00480   ; THE FORMULA EVALUATOR USES THE OPERATOR TABLE (OPTAB)
  4494                                  00500   ; TO DETERMINE PRECEDENCE AND DISPATCH ADDRESSES FOR
  4495                                  00520   ; EACH OPERATOR.
  4496                                  00540   ; A TEMPORARY RESULT ON THE STACK HAS THE FOLLOWING FORMAT
  4497                                  00560   ;
  4498                                  00580   ; THE ADDRESS OF "RETAOP" -- THE PLACE TO RETURN ON COMPLETION
  4499                                  00600   ; OF OPERATOR APPLICATION
  4500                                  00620   ;
  4501                                  00640   ; THE FLOATING POINT TEMPORARY RESULT
  4502                                  00660   ;
  4503                                  00680   ; THE ADDRESS OF THE OPERATOR ROUTINE
  4504                                  00700   ;
  4505                                  00720   ; THE PRECEDENCE OF THE OPERATOR
  4506                                  00740   ;
  4507                                  00760   ; TOTAL 10 BYTES
  4508                                  00780   ;
  4509                                  00800   IFE     STRING,<FRMNUM:>
  4510  005336' 001000  000053          00820   FRMEVL: DCX     H               ;BACK UP CHARACTER POINTER
  4511  005337' 001000  000026          00840   FRMCHK: MVI     D,0             ;INITIAL DUMMY PRECEDENCE IS 0
  4512  005340' 000000  000000
  4513  005341' 001000  000325          00860   LPOPER: PUSH    D               ;SAVE PRECEDENCE
  4514  005342' 001000  000315          00880           CALL    GETSTK          ;MAKE SURE THERE IS ROOM FOR RECURSIVE CALLS
  4515  005343' 000000  002024'
  4516  005344' 000000  005334'
  4517  005345' 000000  000001          00900           1
  4518  005346' 001000  000315          00920           CALL    EVAL            ;EVALUATE SOMETHING
  4519  005347' 000000  006061'
  4520  005350' 000000  005343'
  4521  005351' 001000  000042          00940           SHLD    TEMP2           ;SAVE TEXT POINTER
  4522  005352' 000000  001605'


-- PAGE 98 --------------------------------------------------------------


BASIC MCS 8080  GATES/ALLEN/DAVIDOFF    MACRO 47(113) 03:12 10-SEP-75 PAGE 21-1
F3      MAC      6-SEP-64 03:11         FORMULA EVALUATION CODE

  4523  005353' 000000  005347'
  4524  005354' 001000  000052          00960   RETAOP: LHLD    TEMP2           ;RESTORE TEXT PTR
  4525  005355' 000000  001605'
  4526  005356' 000000  005352'
  4527  005357' 001000  000301          00980   TSTOP:  POP     B               ;POP OFF THE PRECEDENCE
  4528                                  01000   IFN     LENGTH-2,<
  4529                                  01020   IFN     STRING,<
  4530                                  01040           MOV     A,B             ;LOOK AT PRECEDENCE
  4531                                  01060           CPI     120             ;IF ITS SOME ARITHMETIC
  4532                                  01080                                   ;TYPE THING WE SHOULDN'T
  4533                                  01100                                   ;SEE STRINGS
  4534                                  01120           CNC     CHKNUM>>        ;TYPE MISMATCH ERROR IF NOT NUMERIC
  4535  005360' 001000  000176          01140   NOTSTV: MOV     A,M             ;GET NEXT CHARACTER
  4536                                  01160   IFN     LENGTH,<
  4537  005361' 001000  000026          01180           MVI     D,0             ;ASSUME NO RELATION OPS
  4538  005362' 000000  000000
  4539  005363' 001000  000326          01200   LOPREL: SUI     GREATK          ;IS THIS ONE RELATION?
  4540  005364' 000000  000257
  4541  005365' 001000  000332          01220           JC      ENDREL          ;RELATIONS ALL THROUGH
  4542  005366' 000000  005415'
  4543  005367' 000000  005355'
  4544                  000003          01240   NMREL==LESSTK-GREATK+1
  4545  005370' 001000  000376          01260           CPI     NMREL           ;IS IT REALLY RELATIONAL?
  4546  005371' 000000  000003
  4547  005372' 001000  000322          01280           JNC     ENDREL          ;NO JUST BIG
  4548  005373' 000000  005415'
  4549  005374' 000000  005366'
  4550  005375' 001000  000376          01300           CPI     1               ;SET UP BITS BY MAPPING
  4551  005376' 000000  000001
  4552  005377' 001000  000027          01320           RAL                     ;0 TO 1 1 TO 2 AND 2 TO 4
  4553  005400' 001000  000252          01340           XRA     D               ;BRING IN THE OLD BITS
  4554  005401' 001000  000272          01360           CMP     D               ;MAKE SURE RESULT IS BIGGER
  4555  005402' 001000  000127          01380           MOV     D,A             ;SAVE THE MASK
  4556  005403' 001000  000332          01400           JC      SNERR           ;DON'T ALLOW TWO OF THE SAME
  4557  005404' 000000  002072'
  4558  005405' 000000  005373'
  4559  005406' 001000  000042          01420           SHLD    TEMP3           ;SAVE CHARACTER POINTER
  4560  005407' 000000  001575'
  4561  005410' 000000  005404'
  4562  005411' 001000  000327          01440           CHRGET                  ;GET THE NEXT CANDIDATE
  4563  005412' 001000  000303          01460           JMP     LOPREL
  4564  005413' 000000  005363'
  4565  005414' 000000  005407'
  4566  005415' 001000  000172          01480   ENDREL: MOV     A,D             ;GET THE MASK
  4567  005416' 001000  000267          01500           ORA     A               ;WERE THERE ANY?
  4568  005417' 001000  000302          01520           JNZ     FINREL          ;IF SO, HANDLE AS A SPECIAL OP
  4569  005420' 000000  005605'
  4570  005421' 000000  005413'
  4571  005422' 001000  000176          01540           MOV     A,M             ;GET THE CHARACTER AGAIN
  4572  005423' 001000  000042          01560           SHLD    TEMP3>          ;SAVE UPDATED CHARACTER POINTER
  4573  005424' 000000  001575'
  4574  005425' 000000  005420'
  4575  005426' 001000  000326          01580           SUI     PLUSTK          ;AN OPERATOR?


-- PAGE 99 --------------------------------------------------------------


BASIC MCS 8080  GATES/ALLEN/DAVIDOFF    MACRO 47(113) 03:12 10-SEP-75 PAGE 21-2
F3      MAC      6-SEP-64 03:11         FORMULA EVALUATION CODE

  4576  005427' 000000  000250
  4577  005430' 001000  000330          01600           RC                      ;RETURN IF NOT
  4578                                  01620                                   ;THIS CAN RESULT IN OPERATOR
  4579                                  01640                                   ;APPLICATION OR ACTUAL RETURN
  4580  005431' 001000  000376          01660           CPI     LSTOPK          ;HIGHER THAN THE LAST OP?
  4581  005432' 000000  000007
  4582  005433' 001000  000320          01680           RNC
  4583  005434' 001000  000137          01700           MOV     E,A             ;MUST MUTIPLY BY 3 SINCE
  4584                                  01720                                   ;OPTAB ENTRIES ARE 3 LONG
  4585                                  01740   IFN     STRING,<
  4586  005435' 001000  000072          01760           LDA     VALTYP          ;SEE IF LEFT PART IS STRING
  4587  005436' 000000  001543'
  4588  005437' 000000  005424'
  4589                                  01780   IFE     LENGTH-2,<
  4590  005440' 001000  000376          01800           CPI     3>              ;SEE IF ITS A STRING
  4591  005441' 000000  000003
  4592                                  01820   IFN     LENGTH-2,<
  4593                                  01840           DCR     A>
  4594  005442' 001000  000263          01860           ORA     E               ;SET CONDITION CODES
  4595                                  01880   IFN     LENGTH-2,<
  4596                                  01900           MOV     A,E>            ;REFETCH OP-VALUE
  4597  005443' 001000  000312          01920           JZ      CAT>            ;MUST BE CAT
  4598  005444' 000000  010320'
  4599  005445' 000000  005436'
  4600                                  01940   IFN     LENGTH-2,<
  4601                                  01960           RLC                     ;A=ORIGINAL A*2
  4602                                  01980           ADD     E               ;ADD IN ORIGINAL A
  4603                                  02000           MOV     E,A>            ;CREATE TWO BYTE VALUE
  4604                                  02020   IFE     LENGTH,<
  4605                                  02040           MVI     D,0>            ;HIGH ORDER #0
  4606  005446' 001000  000041          02060           LXI     H,OPTAB         ;CREATE INDEX INTO OPTAB
  4607  005447' 000000  000163'
  4608  005450' 000000  005444'
  4609  005451' 001000  000031          02080           DAD     D               ;ADD IN CALCULATED OFFSET
  4610  005452' 001000  000170          02100           MOV     A,B             ;[A] GETS OLD PRECEDENCE
  4611  005453' 001000  000126          02120           MOV     D,M             ;REMEMBER NEW PRECEDENCE
  4612  005454' 001000  000272          02140           CMP     D               ;OLD-NEW
  4613  005455' 001000  000320          02160           RNC                     ;MUST APPLY OLD OP
  4614                                  02180                                   ;IF HAS GREATER OR = PRECEDENCE
  4615                                  02200   IFN     LENGTH-2,<
  4616                                  02220           INX     H               ;NOW POINTING AT ROUTINE ADDRESS
  4617                                  02240   IFN     STRING,<CALL    CHKNUM> ;CAN'T BE STRING HERE
  4618                                  02260                                   ;SINCE THE ONLY STRING OPERATOR
  4619                                  02280                                   ;IS PLUS AND RELATIONALS
  4620                                  02300                                   ;DON'T COME THROUGH HERE
  4621                                  02320   DOPREC: PUSH    B               ;SAVE OLD PRECEDENCE
  4622                                  02340           LXI     B,RETAOP        ;OPERATOR RETURN ADDRESS
  4623                                  02360           PUSH    B               ;FIRST PART OF "TEMP" ENTRY
  4624                                  02380   IFN     LENGTH,<
  4625                                  02400           MOV     B,E>            ;SAVE SECOND BYTE OF PRECEDENCE
  4626                                  02420                                   ;SINCE FOR RELATIONAL OPERATORS
  4627                                  02440                                   ;IT GIVES THE VALUE TYPE OF
  4628                                  02460                                   ;THE LEFT SIDE AND IT TELLS


-- PAGE 100 --------------------------------------------------------------


BASIC MCS 8080  GATES/ALLEN/DAVIDOFF    MACRO 47(113) 03:12 10-SEP-75 PAGE 21-3
F3      MAC      6-SEP-64 03:11         FORMULA EVALUATION CODE

  4629                                  02480                                   ;WHICH RELATIONAL-OPERATOR
  4630                                  02500                                   ;IT WAS
  4631                                  02520           MOV     C,D
  4632                                  02540           CALL    PUSHF
  4633                                  02560   IFN     LENGTH,<
  4634                                  02580           MOV     E,B>            ;GET SECOND BYTE OF PRECEDENCE AGAIN
  4635                                  02600           MOV     D,C             ;[D] GETS PRECEDENCE
  4636                                  02620           PUSHM                   ;PUT ROUTINE ADDRESS ON THE STACK
  4637                                  02640   IFN     LENGTH,<
  4638                                  02660           LHLD    TEMP3>
  4639                                  02680   IFE     LENGTH,<
  4640                                  02700           LHLD    TEMP2>          ;IF WE DON'T HAVE "LENGTH"
  4641                                  02720                                   ;ON OPERATORS CAN ONLY
  4642                                  02740                                   ;BE ONE CHARACTER SO TO "REREAD"
  4643                                  02760                                   ;AN OPERATOR THAT WE LOOKED
  4644                                  02780                                   ;AT BEFORE AND DECIDED NOT TO
  4645                                  02800                                   ;APPLY WE JUST "DCX H"
  4646                                  02820                                   ;IF LENGTH IS ON WE HAVE TO
  4647                                  02840                                   ;REMEMBER THE TEXT POINTER BEFORE
  4648                                  02860                                   ;THE OPERATOR AND AFTER SO WE CAN
  4649                                  02880                                   ;EITHER RESCAN THE OPERATOR
  4650                                  02900                                   ;LATER IF IT DOESN'T GET APPLIED
  4651                                  02920                                   ;OR GO BEYOND IT WHEN IT DOES
  4652                                  02940           JMP     LPOPER>         ;PUT ON PRECEDENCE AND LOOK AT A
  4653                                  02960                                   ;NEW OPERATOR
  4654
  4655                                  03000   IFE     LENGTH-2,<
  4656  005456' 001000  000305          03020           PUSH    B               ;SAVE THE OLD PRECEDENCE
  4657  005457' 001000  000001          03040           LXI     B,RETAOP        ;PUT ON THE ADDRESS OF THE
  4658  005460' 000000  005354'
  4659  005461' 000000  005447'
  4660                                  03060           PUSH    B               ;PLACE TO RETURN TO AFTER OPERATOR APPLICATION
  4661  005462' 001000  000305
  4662  005463' 001000  000172          03080           MOV     A,D             ;SEE IF THE OPERATOR IS EXPONENTIATION
  4663  005464' 001000  000376          03100           CPI     127             ;WHICH HAS PRECEDENCE 127
  4664  005465' 000000  000177
  4665                                  03120           JZ      EXPSTK          ;IF SO, "FRCSNG" AND MAKE A SPECIAL STACK ENTRY
  4666  005466' 001000  000312
  4667  005467' 000000  005553'
  4668  005470' 000000  005460'
  4669  005471' 001000  000376          03140           CPI     81              ;SEE IF THE OPERATOR IS "AND" OR "OR"
  4670  005472' 000000  000121
  4671  005473' 001000  000332          03160           JC      ANDORD          ;AND IF SO "FRCINT" AND
  4672  005474' 000000  005571'
  4673  005475' 000000  005467'
  4674                                  03162                                   ;MAKE A SPECIAL STACK ENTRY
  4675                                  03200   ;
  4676                                  03220   ; THIS CODE PUSHES THE CURRENT VALUE IN THE FAC
  4677                                  03240   ; ONTO THE STACK, EXCEPT IN THE CASE OF STRINGS IN WHICH IT CALLS
  4678                                  03260   ; TYPE MISMATCH ERROR. [D] AND [E] ARE PRESERVED.
  4679                                  03280   ;
  4680  005476' 001000  000072          03300   NUMREL: LDA     VALTYP          ;GET THE VALUE TYPE
  4681  005477' 000000  001543'


-- PAGE 101 --------------------------------------------------------------


BASIC MCS 8080  GATES/ALLEN/DAVIDOFF    MACRO 47(113) 03:12 10-SEP-75 PAGE 21-4
F3      MAC      6-SEP-64 03:11         FORMULA EVALUATION CODE

  4682  005500' 000000  005474'
  4683  005501' 001000  000376          03302           CPI     3               ;AND SET THE CONDITION CODES BASED ON IT
  4684  005502' 000000  000003
  4685  005503' 001000  000312          03320           JZ      TMERR           ;BLOW UP ON STRINGS
  4686  005504' 000000  000000*
  4687  005505' 000000  005477'
  4688  005506' 001000  000041          03340           LXI     H,FACLO         ;GET POINTER TO LO IN FAC
  4689  005507' 000000  001637'
  4690  005510' 000000  005504'
  4691  005511' 001000  000116          03342           MOV     C,M
  4692  005512' 001000  000043          03344           INX     H
  4693  005513' 001000  000106          03346           MOV     B,M
  4694  005514' 001000  000043          03348           INX     H
  4695  005515' 001000  000305          03360           PUSH    B               ;PUSH FACLO+0,1 ON THE STACK
  4696  005516' 001000  000372          03380           JM      VPUSHD          ;ALL DONE IF THE DATA WAS AN INTEGER
  4697  005517' 000000  005536'
  4698  005520' 000000  005507'
  4699  005521' 001000  000116          03382           MOV     C,M
  4700  005522' 001000  000043          03384           INX     H
  4701  005523' 001000  000106          03386           MOV     B,M
  4702  005524' 001000  000043          03388           INX     H
  4703  005525' 001000  000305          03400           PUSH    B               ;PUSH FAC-1,0 ON THE STACK
  4704  005526' 001000  000342          03420           JPO     VPUSHD          ;ALL DONE IF WE HAD A SNG
  4705  005527' 000000  005536'
  4706  005530' 000000  005517'
  4707  005531' 001000  000041          03440           LXI     H,DFACLO        ;WE HAVE A DOUBLE PRECISON NUMBER
  4708  005532' 000000  001633'
  4709  005533' 000000  005527'
  4710  005534' 001000  000367          03460           PUSHM                   ;PUSH ITS 4 LO BYTES ON THE STACK
  4711  005535' 001000  000367          03480           PUSHM
  4712  005536' 001000  000113          03520   VPUSHD: MOV     C,E             ;[C]=OPERATOR NUMBER
  4713  005537' 001000  000107          03560           MOV     B,A             ;[B]TYPE OF VALUE ON THE STACK
  4714  005540' 001000  000305          03580           PUSH    B               ;SAVE THESE THINGS FOR APPLOP
  4715  005541' 001000  000001          03600           LXI     B,APPLOP        ;GENERAL OPERATOR APPLICATION
  4716  005542' 000000  005642'
  4717  005543' 000000  005532'
  4718                                  03620                                   ;ROUTINE -- DOES TYPE CONVERSIONS
  4719  005544' 001000  000305          03640   FINTMP: PUSH    B               ;SAVE PLACE TO GO
  4720  005545' 001000  000052          03660           LHLD    TEMP3           ;REGET THE TEXT POINTER
  4721  005546' 000000  001575'
  4722  005547' 000000  005542'
  4723  005550' 001000  000303          03680           JMP     LPOPER          ;PUSH ON THE PRECEDENCE AND READ MORE
  4724  005551' 000000  005341'
  4725  005552' 000000  005546'
  4726                                  03700                                   ;FORMULA
  4727                                  03720   ;
  4728                                  03740   ; FOR EXPONENTIATION WE WANT TO FORCE THE CURRENT VALUE IN THE FAC
  4729                                  03760   ; TO BE SINGLE PRECISION. WHEN APPLICATION TIME COMES WE FORCE
  4730                                  03780   ; THE RIGHT HAND OPERAND TO SINGLE PRECISION AS WELL
  4731                                  03800   ;
  4732  005553' 001000  000315          03820   EXPSTK: CALL    FRCSNG          ;COERCE LEFT HAND OPERAND
  4733  005554' 000000  003256*
  4734  005555' 000000  005551'


-- PAGE 102 --------------------------------------------------------------


BASIC MCS 8080  GATES/ALLEN/DAVIDOFF    MACRO 47(113) 03:12 10-SEP-75 PAGE 21-5
F3      MAC      6-SEP-64 03:11         FORMULA EVALUATION CODE

  4735  005556' 001000  000315          03840           CALL    PUSHF           ;PUT IT ON THE STACK
  4736  005557' 000000  000000*
  4737  005560' 000000  005554'
  4738  005561' 001000  000001          03860           LXI     B,FPWRQ##       ;PLACE TO COERCE RIGHT HAND
  4739  005562' 000000  000000*
  4740  005563' 000000  005557'
  4741                                  03880                                   ;OPERAND AND DO EXPONENTIATION
  4742  005564' 001000  000026          03900           MVI     D,127           ;RESTORE THE PRECEDENCE
  4743  005565' 000000  000177
  4744  005566' 001000  000303          03920           JMP     FINTMP          ;FINISH ENTRY AND EVALUATE MORE FORMULA
  4745  005567' 000000  005544'
  4746  005570' 000000  005562'
  4747                                  03940   ;
  4748                                  03960   ; FOR "AND" AND "OR" WE WANT TO FORCE THE CURRENT VALUE IN THE
  4749                                  03980   ; FAC TO BE AN INTEGER, AND AT APPLICATION TIME FORCE THE RIGHT
  4750                                  04000   ; HAND OPERAND TO BE AN INTEGER
  4751                                  04020   ;
  4752  005571' 001000  000325          04040   ANDORD: PUSH    D               ;SAVE THE PRECEDENCE (70 OR 80)
  4753  005572' 001000  000315          04060           CALL    FRCINT
  4754  005573' 000000  003630*
  4755  005574' 000000  005567'
  4756  005575' 001000  000321          04080           POP     D               ;[D]=PRECEDENCE
  4757  005576' 001000  000345          04100           PUSH    H               ;PUSH THE LEFT HAND OPERAND
  4758  005577' 001000  000001          04120           LXI     B,DANDOR        ;"AND" AND "OR" DOER
  4759  005600' 000000  006437'
  4760  005601' 000000  005573'
  4761  005602' 001000  000303          04140           JMP     FINTMP          ;PUSH ON THIS ADDRESS,PRECEDENCE
  4762  005603' 000000  005544'
  4763  005604' 000000  005600'
  4764                                  04160                                   ;AND CONTINUE EVALUATION
  4765                                  04180   ;
  4766                                  04200   ; HERE TO BUILD AN ENTRY FOR A RELATIONAL OPERATOR
  4767                                  04220   ; STRINGS ARE TREATED SPECIALLY. NUMERIC COMPARES ARE DIFFERENT
  4768                                  04240   ; FROM MOST OPERATOR ENTRIES ONLY IN THE FACT THAT AT THE
  4769                                  04260   ; BOTTOM INSTEAD OF HAVING RETAOP, DOCMP AND THE RELATIONAL
  4770                                  04280   ; BITS ARE STORED. STRINGS HAVE STRCMP,THE POINTER AT THE STRING DESCRIPTOR,
  4771                                  04300   ; DOCMP AND THE RELATIONAL BITS.
  4772                                  04320   ;
  4773  005605' 001000  000170          04340   FINREL: MOV     A,B             ;[A]=OLD PRECEDENCE
  4774  005606' 001000  000376          04360           CPI     100             ;RELATIONALS HAVE PREDENCE 100
  4775  005607' 000000  000144
  4776  005610' 001000  000320          04380           RNC                     ;APPLY EARLIER OPERATOR IF IT HAS
  4777                                  04400                                   ;HIGHER PRECEDENCE
  4778  005611' 001000  000305          04420           PUSH    B               ;SAVE THE OLD PRECEDENCE
  4779  005612' 001000  000325          04440           PUSH    D               ;SAVE [D]=RELATIONAL BITS
  4780  005613' 001000  000021          04460           LXI     D,$CODE+25604   ;[D]=PRECEDENCE=100
  4781  005614' 000000  062004'
  4782  005615' 000000  005603'
  4783                                  04480                                   ;[E]=DISPATCH OFFSET FOR
  4784                                  04500                                   ;COMPARES IN APPLOP=4
  4785                                  04520                                   ;IN CASE THIS IS A NUMERIC COMPARE
  4786  005616' 001000  000041          04540           LXI     H,DOCMP         ;ROUTINE TO TAKE COMPARE ROUTINE RESULT
  4787  005617' 000000  006375'


-- PAGE 103 --------------------------------------------------------------


BASIC MCS 8080  GATES/ALLEN/DAVIDOFF    MACRO 47(113) 03:12 10-SEP-75 PAGE 21-6
F3      MAC      6-SEP-64 03:11         FORMULA EVALUATION CODE

  4788  005620' 000000  005614'
  4789                                  04560                                   ;AND RELATIONAL BITS AND RETURN THE ANSWER
  4790  005621' 001000  000345          04580           PUSH    H               ;DOES A JMP TO RETAOP WHEN DONE
  4791  005622' 001000  000315          04600           CALL    GETYPE          ;SEE IF WE HAVE A NUMERIC COMPARE
  4792  005623' 000000  006307'
  4793  005624' 000000  005617'
  4794  005625' 001000  000302          04620           JNZ     NUMREL          ;YES, BUILD AN APPLOP ENTRY
  4795  005626' 000000  005476'
  4796  005627' 000000  005623'
  4797  005630' 001000  000052          04640           LHLD    FACLO           ;GET THE POINTER AT THE STRING DESCRIPTOR
  4798  005631' 000000  001637'
  4799  005632' 000000  005626'
  4800  005633' 001000  000345          04660           PUSH    H               ;SAVE IT FOR STRCMP
  4801  005634' 001000  000001          04680           LXI     B,STRCMP        ;STRING COMPARE ROUTINE
  4802  005635' 000000  006320'
  4803  005636' 000000  005631'
  4804  005637' 001000  000303          04700           JMP     FINTMP          ;PUSH THE ADDRESS, REGET THE TEXT POINTER
  4805  005640' 000000  005544'
  4806  005641' 000000  005635'
  4807                                  04720                                   ;SAVE THE PRECEDENCE AND SCAN
  4808                                  04722                                   ;MORE OF THE FORMULA
  4809                                  04740   ;
  4810                                  04760   ; APPLOP IS RETURNED TO WHEN IT IS TIME TO APPLY AN ARITHMETIC
  4811                                  04762   ; OR NUMERIC COMPARISON OPERATION.
  4812                                  04764   ; THE STACK HAS A DOUBLE BYTE ENTRY WITH THE OPERATOR
  4813                                  04766   ; NUMBER AND THE VALTYP OF THE VALUE ON THE STACK.
  4814                                  04768   ; APPLOP DECIDES WHAT VALUE LEVEL THE OPERATION
  4815                                  04770   ; WILL OCCUR AT, AND CONVERTS THE ARGUMENTS. APPLOP
  4816                                  04772   ; USES DIFFERENT CALLING CONVENTIONS FOR EACH VALUE TYPE.
  4817                                  04776   ; INTEGERS: LEFT IN [D,E] RIGHT IN [H,L]
  4818                                  04778   ; SINGLES:  LEFT IN [B,C,D,E] RIGHT IN THE FAC
  4819                                  04780   ; DOUBLES:  LEFT IN FAC   RIGHT IN ARG
  4820                                  04798   ;
  4821  005642' 001000  000301          04800   APPLOP: POP     B               ;[B]=STACK OPERAND VALUE TYPE
  4822                                  04820                                   ;[C]=OPERATOR OFFSET
  4823  005643' 001000  000171          04840           MOV     A,C             ;SAVE IN MEMORY SINCE THE STACK WILL BE BUSY
  4824  005644' 001000  000062          04860           STA     OPRTYP          ;A RAM LOCATION
  4825  005645' 000000  001544'
  4826  005646' 000000  005640'
  4827  005647' 001000  000170          04880           MOV     A,B             ;CHECK FOR DOUBLE
  4828  005650' 001000  000376          04900           CPI     8               ;PRECISION ENTRY ON THE STACK
  4829  005651' 000000  000010
  4830  005652' 001000  000312          04920           JZ      STKDBL          ;FORCE FAC TO DOUBLE
  4831  005653' 000000  005725'
  4832  005654' 000000  005645'
  4833  005655' 001000  000072          04940           LDA     VALTYP          ;SEE IF THE FAC IS DOUBLE PRECISION
  4834  005656' 000000  001543'
  4835  005657' 000000  005653'
  4836  005660' 001000  000376          04960           CPI     8               ;AND IF SO, CONVERT THE STACK OPERAND
  4837  005661' 000000  000010
  4838  005662' 001000  000312          04980           JZ      FACDBL          ;TO DOUBLE PRECISION
  4839  005663' 000000  005775'
  4840  005664' 000000  005656'


-- PAGE 104 --------------------------------------------------------------


BASIC MCS 8080  GATES/ALLEN/DAVIDOFF    MACRO 47(113) 03:12 10-SEP-75 PAGE 21-7
F3      MAC      6-SEP-64 03:11         FORMULA EVALUATION CODE

  4841  005665' 001000  000127          05000           MOV     D,A             ;SAVE THE VALUE TYPE OF THE FAC
  4842  005666' 001000  000170          05020           MOV     A,B             ;SEE IF THE STACK ENTRY IS SINGLE
  4843  005667' 001000  000376          05040           CPI     4               ;PRECISION AND IF SO, CONVERT
  4844  005670' 000000  000004
  4845  005671' 001000  000312          05060           JZ      STKSNG          ;THE FAC TO SINGLE PRECISION
  4846  005672' 000000  006021'
  4847  005673' 000000  005663'
  4848  005674' 001000  000172          05080           MOV     A,D             ;SEE IF THE FACT IS SINGLE PRECISION
  4849  005675' 001000  000376          05100           CPI     3               ;AND IF SO CONVERT THE STACK TO SINGLE
  4850  005676' 000000  000003
  4851  005677' 001000  000322          05120           JNC     FACSNG          ;PRECISION
  4852  005700' 000000  006034'
  4853  005701' 000000  005672'
  4854                                  05140                                   ;NOTE: THE STACK MUST BE INTEGER AT THIS POINT
  4855  005702' 001000  000312          05160           JZ      TMERR           ;BLUE UP ON RIGHT HAND STRING OPERAND
  4856  005703' 000000  005504*
  4857  005704' 000000  005700'
  4858  005705' 001000  000041          05180           LXI     H,INTDSP        ;INTEGER INTEGER CASE
  4859  005706' 000000  000716'
  4860  005707' 000000  005703'
  4861  005710' 001000  000006          05200           MVI     B,0             ;SPECIAL DISPATCH FOR SPEED
  4862  005711' 000000  000000
  4863  005712' 001000  000011          05220           DAD     B               ;[H,L] POINTS TO THE ADDRESS TO GO TO
  4864  005713' 001000  000011          05240           DAD     B
  4865  005714' 001000  000116          05260           MOV     C,M             ;[B,C]=ROUTINE ADDRESS
  4866  005715' 001000  000043          05280           INX     H
  4867  005716' 001000  000106          05300           MOV     B,M
  4868  005717' 001000  000321          05320           POP     D               ;[D,E]=LEFT HAND OPERAND
  4869  005720' 001000  000052          05340           LHLD    FACLO           ;[H,L]=RIGHT HAND OPERAND
  4870  005721' 000000  001637'
  4871  005722' 000000  005706'
  4872  005723' 001000  000305          05360           PUSH    B               ;DISPATCH
  4873  005724' 001000  000311          05380           RET
  4874                                  05400   ;
  4875                                  05420   ; THE STACK OPERAND IS DOUBLE PRECISION, SO
  4876                                  05440   ; THE FAC MUST BE FORCED TO DOUBLE PRECISION, MOVED INTO ARG
  4877                                  05460   ; AND THE STACK VALUE POPED INTO THE FAC
  4878                                  05480   ;
  4879  005725' 001000  000315          05500   STKDBL: CALL    FRCDBL          ;MAKE THE FAC DOUBLE PRECISION
  4880  005726' 000000  000664*
  4881  005727' 000000  005721'
  4882  005730' 001000  000315          05520           CALL    VMOVAF          ;MOVE THE FAC INTO ARG
  4883  005731' 000000  000000*
  4884  005732' 000000  005726'
  4885  005733' 001000  000341          05540           POP     H               ;POP OFF THE STACK OPERAND INTO THE FAC
  4886  005734' 001000  000042          05560           SHLD    DFACLO+2
  4887  005735' 000000  001635'
  4888  005736' 000000  005731'
  4889  005737' 001000  000341          05580           POP     H
  4890  005740' 001000  000042          05600           SHLD    DFACLO          ;STORE LOW BYTES AWAY
  4891  005741' 000000  001633'
  4892  005742' 000000  005735'
  4893  005743' 001000  000301          05620   SNGDBL: POPR                    ;POP OFF A FOUR BYTE VALUE


-- PAGE 105 --------------------------------------------------------------


BASIC MCS 8080  GATES/ALLEN/DAVIDOFF    MACRO 47(113) 03:12 10-SEP-75 PAGE 21-8
F3      MAC      6-SEP-64 03:11         FORMULA EVALUATION CODE

  4894  005744' 001000  000321
  4895  005745' 001000  000315          05640           CALL    MOVFR           ;INFO THE FAC
  4896  005746' 000000  000000*
  4897  005747' 000000  005741'
  4898  005750' 001000  000315          05660   SETDBL: CALL    FRCDBL          ;MAKE SURE THE LEFT OPERAND IS
  4899  005751' 000000  005726*
  4900  005752' 000000  005746'
  4901                                  05680                                   ;DOUBLE PRECISION
  4902  005753' 001000  000041          05700           LXI     H,DBLDSP        ;DISPATCH TO A DOUBLE PRECISION ROUTINE
  4903  005754' 000000  000672'
  4904  005755' 000000  005751'
  4905  005756' 001000  000072          05720   DODSP:  LDA     OPRTYP          ;RECALL WHICH OPERAND IT WAS
  4906  005757' 000000  001544'
  4907  005760' 000000  005754'
  4908  005761' 001000  000007          05740           RLC                     ;CREATE A DISPATCH OFFSET, SINCE
  4909                                  05760                                   ;TABLE ADDRESSES ARE TWO BYTES
  4910  005762' 001000  000305          05780           PUSH    B               ;SAVE [B,C] FOR SINGLE PRECISION
  4911  005763' 001000  000117          05800           MOV     C,A             ;DOUBLE BYTE OFFSET
  4912  005764' 001000  000006          05820           MVI     B,0             ;INTO [B,C]
  4913  005765' 000000  000000
  4914  005766' 001000  000011          05840           DAD     B               ;CALCULATE LOCATION OF ROUTINE TO GO TO
  4915  005767' 001000  000301          05860           POP     B               ;GET BACK [B,C] FOR SINGLE PRECISION
  4916  005770' 001000  000176          05880           MOV     A,M             ;GET THE ADDRESS
  4917  005771' 001000  000043          05900           INX     H
  4918  005772' 001000  000146          05920           MOV     H,M
  4919  005773' 001000  000157          05940           MOV     L,A
  4920  005774' 001000  000351          05960           PCHL                    ;AND PERFORM THE OPERATION, RETURNING
  4921                                  05980                                   ;TO RETAOP, EXCEPT FOR COMPARES WHICH
  4922                                  06000                                   ;RETURN TO DOCMP
  4923                                  06020   ;
  4924                                  06040   ; THE FAC IS DOUBLE PRECISION AND THE STACK IS EITHER
  4925                                  06060   ; INTEGER OR SINGLE PRECISION AND MUST BE CONVERTED
  4926                                  06080   ;
  4927  005775' 001000  000305          06100   FACDBL: PUSH    B               ;SAVE THE STACK VALUE TYPE
  4928  005776' 001000  000315          06120           CALL    VMOVAF          ;MOVE THE FAC INTO ARG
  4929  005777' 000000  005731*
  4930  006000' 000000  005757'
  4931  006001' 001000  000361          06140           POP     PSW             ;POP THE STACK VALUE TYPE INTO [A]
  4932  006002' 001000  000062          06160           STA     VALTYP          ;PUT IT IN VALTYP FOR THE FORCE
  4933  006003' 000000  001543'
  4934  006004' 000000  005777'
  4935                                  06180                                   ;ROUTINE
  4936  006005' 001000  000376          06200           CPI     4               ;SEE IF ITS SINGLE, SO WE KNOW
  4937  006006' 000000  000004
  4938                                  06220                                   ;HOW TO POP THE VALUE OFF
  4939  006007' 001000  000312          06240           JZ      SNGDBL          ;IT'S SINGLE PRECISION
  4940  006010' 000000  005743'
  4941  006011' 000000  006003'
  4942                                  06260                                   ;SO DO A POPR / CALL MOVFR
  4943  006012' 001000  000341          06280           POP     H               ;POP OFF THE INTEGER VALUE
  4944  006013' 001000  000042          06300           SHLD    FACLO           ;SAVE IT FOR CONVERSION
  4945  006014' 000000  001637'
  4946  006015' 000000  006010'


-- PAGE 106 --------------------------------------------------------------


BASIC MCS 8080  GATES/ALLEN/DAVIDOFF    MACRO 47(113) 03:12 10-SEP-75 PAGE 21-9
F3      MAC      6-SEP-64 03:11         FORMULA EVALUATION CODE

  4947  006016' 001000  000303          06320           JMP     SETDBL          ;SET IT UP
  4948  006017' 000000  005750'
  4949  006020' 000000  006014'
  4950                                  06340   ;
  4951                                  06360   ; THIS IS THE CASE WHERE THE STACK IS SINGLE PRECISION
  4952                                  06380   ; AND THE FAC IS EITHER SINGLE PRECISION OR INTEGER
  4953                                  06400   ;
  4954  006021' 001000  000315          06420   STKSNG: CALL    FRCSNG          ;CONVERT THE FAC IF NECESSARY
  4955  006022' 000000  005554*
  4956  006023' 000000  006017'
  4957  006024' 001000  000301          06440           POPR                    ;PUT THE LEFT HAND OPERAND IN THE REGISTERS
  4958  006025' 001000  000321
  4959  006026' 001000  000041          06460   SNGDO:  LXI     H,SNGDSP        ;SETUP THE DISPATCH ADDRESS
  4960  006027' 000000  000704'
  4961  006030' 000000  006022'
  4962                                  06480                                   ;FOR THE SINGLE PRECISION OPERATOR ROUTINES
  4963  006031' 001000  000303          06500           JMP     DODSP           ;DISPATCH
  4964  006032' 000000  005756'
  4965  006033' 000000  006027'
  4966                                  06520   ;
  4967                                  06540   ; THIS IS THE CASE WHERE THE FAC IS SINGLE PRECISION AND THE STACK
  4968                                  06560   ; IS AN INTEGER
  4969                                  06580   ;
  4970  006034' 001000  000341          06600   FACSNG: POP     H               ;POP OFF THE INTEGER ON THE STACK
  4971  006035' 001000  000315          06620           CALL    PUSHF           ;SAVE THE FAC ON THE STACK
  4972  006036' 000000  005557*
  4973  006037' 000000  006032'
  4974  006040' 001000  000315          06640           CALL    CONSIH          ;CONVERT [H,L] TO A SINGLE PRECISION
  4975  006041' 000000  000000*
  4976  006042' 000000  006036'
  4977                                  06660                                   ;NUMBER IN THE FAC
  4978  006043' 001000  000315          06680           CALL MOVRF              ;PUT THE LEFT HAND OPERAND IN THE REGISTERS
  4979  006044' 000000  003261*
  4980  006045' 000000  006041'
  4981  006046' 001000  000341          06700           POP     H               ;RESTORE THE FAC
  4982  006047' 001000  000042          06720           SHLD    FAC-1           ;FROM THE STACK
  4983  006050' 000000  001641'
  4984  006051' 000000  006044'
  4985  006052' 001000  000341          06740           POP     H
  4986  006053' 001000  000042          06760           SHLD    FACLO
  4987  006054' 000000  001637'
  4988  006055' 000000  006050'
  4989  006056' 001000  000303          06700           JMP     SNGDO>          ;PERFORM THE OPERATION
  4990  006057' 000000  006026'
  4991  006060' 000000  006054'
  4992
  4993  006061'                         06820   EVAL:
  4994                                  06840   IFN     LENGTH-2,<
  4995                                  06860   IFN     STRING,<
  4996                                  06880           XRA     A
  4997                                  06900           STA     VALTYP>>        ;ASSUME THE VALUE WILL BE NUMERIC
  4998  006061' 001000  000327          06820           CHRGET
  4999  006062' 001000  000332          06840           JC      FIN             ;IF NUMERIC, INTERPRET CONSTANT


-- PAGE 107 --------------------------------------------------------------


BASIC MCS 8080  GATES/ALLEN/DAVIDOFF    MACRO 47(113) 03:12 10-SEP-75 PAGE 21-10
F3      MAC      6-SEP-64 03:11         FORMULA EVALUATION CODE

  5000  006063' 000000  005072*
  5001  006064' 000000  006057'
  5002  006065' 001000  000315          06960           CALL    ISLET           ;VARIABLE NAME?
  5003  006066' 000000  003612'
  5004  006067' 000000  006063'
  5005  006070' 001000  000322          06980           JNC     ISVAR           ;AN ALPHABETIC CHARACTER MEANS YES
  5006  006071' 000000  006164'
  5007  006072' 000000  006066'
  5008  006073' 001000  000376          07000           CPI     PLUSTK          ;IGNORE "+"
  5009  006074' 000000  000250
  5010  006075' 001000  000312          07020           JZ      EVAL
  5011  006076' 000000  006061'
  5012  006077' 000000  006071'
  5013  006100' 001000  000376          07040           CPI     "."             ;"." AS LEADING CHARACTER OF A
  5014  006101' 000000  000056
  5015                                  07060                                   ;CONSTANT?
  5016  006102' 001000  000312          07080           JZ      FIN
  5017  006103' 000000  006063*
  5018  006104' 000000  006076'
  5019  006105' 001000  000376          07100           CPI     MINUTK          ;NEGATION?
  5020  006106' 000000  000251
  5021  006107' 001000  000312          07120           JZ      DOMIN
  5022  006110' 000000  006146'
  5023  006111' 000000  006103'
  5024                                  07140   IFN     STRING,<
  5025  006112' 001000  000376          07160           CPI     34              ;STRING CONSTANT?
  5026  006113' 000000  000042
  5027  006114' 001000  000312          07180           JZ      STRLTI>         ;IF SO BUILD A DESCRIPTOR IN A TEMPORARY
  5028  006115' 000000  007640'
  5029  006116' 000000  006110'
  5030                                  07200                                   ;DESCRIPTOR LOCATION AND PUT A POINTER TO THE
  5031                                  07220                                   ;DESCRIPTOR IN FACLO
  5032                                  07240   IFN     LENGTH,<
  5033  006117' 001000  000376          07260           CPI     NOTTK           ;CHECK FOR "NOT" OPERATOR
  5034  006120' 000000  000246
  5035  006121' 001000  000312          07280           JZ      NOTER>
  5036  006122' 000000  006412'
  5037  006123' 000000  006115'
  5038                                  07300   IFN     FUNCTS,<
  5039  006124' 001000  000376          07320           CPI     FNTK            ;USER-DEFINED FUNCTION?
  5040  006125' 000000  000243
  5041  006126' 001000  000312          07340           JZ      FNDOER>
  5042  006127' 000000  007443'
  5043  006130' 000000  006122'
  5044  006131' 001000  000326          07360           SUI     ONEFUN          ;IS IT A FUNCTION NAME?
  5045  006132' 000000  000262
  5046  006133' 001000  000322          07380           JNC     ISFUN           ;FUNCTIONS ARE THE HIGHEST
  5047  006134' 000000  006204'
  5048  006135' 000000  006127'
  5049                                  07400                                   ;NUMBERED CHARACTERS ALLOWED
  5050                                  07420                                   ;SO THERE IS NO NEED TO CHECK
  5051                                  07440                                   ;THE UPPER BOUND
  5052  006136' 001000  000317          07460   PARCHK: SYNCHK  "("             ;ONLY POSSIBILITY LEFT


-- PAGE 108 --------------------------------------------------------------


BASIC MCS 8080  GATES/ALLEN/DAVIDOFF    MACRO 47(113) 03:12 10-SEP-75 PAGE 21-11
F3      MAC      6-SEP-64 03:11         FORMULA EVALUATION CODE

  5053  006137' 000000  000050
  5054                                  07480                                   ;IS A FORMULA IN PARENTHESES
  5055  006140' 001000  000315          07500           CALL    FRMEVL          ;RECURSIVELY EVALUATE THE FORMULA
  5056  006141' 000000  005336'
  5057  006142' 000000  006134'
  5058  006143' 001000  000317          07520           SYNCHK  ")"
  5059  006144' 000000  000051
  5060  006145' 001000  000311          07540           RET
  5061                                  07560   DOMIN:
  5062                                  07580   IFE     EXTFNC,<
  5063                                  07600           CALL    EVAL>           ;NO ^ OPERATOR IN THIS CASE
  5064                                  07620   IFN     EXTFNC,<
  5065  006146' 001000  000026          07640           MVI     D,125           ;A PRECEDENCE BELOW ^
  5066  006147' 000000  000175
  5067                                  07660                                   ;BUT ABOVE ALL ELSE
  5068  006150' 001000  000315          07680           CALL    LPOPER          ;SO ^ GREATER THAN UNARY MINUS
  5069  006151' 000000  005341'
  5070  006152' 000000  006141'
  5071  006153' 001000  000052          07700           LHLD    TEMP2>          ;GET TEXT POINTER
  5072  006154' 000000  001605'
  5073  006155' 000000  006151'
  5074  006156' 001000  000345          07720           PUSH    H
  5075                                  07740   IFE     LENGTH-2,<
  5076  006157' 001000  000315          07760           CALL    VNEG>
  5077  006160' 000000  000000*
  5078  006161' 000000  006154'
  5079                                  07780   IFN     LENGTH-2,<
  5080                                  07800           CALL    NEG>            ;NEGATE THE FAC.
  5081  006162'                         07820   LABBCK:                         ;FUNCTIONS THAT DON'T RETURN
  5082                                  07840                                   ;STRING VALUES COME BACK HERE
  5083                                  07860   IFN     LENGTH-2,<
  5084                                  07880   IFN     STRING,<
  5085                                  07900           CALL    CHKNUM>>
  5086  006162' 001000  000341          07920           POP     H
  5087  006163' 001000  000311          07940           RET
  5088  006164' 001000  000315          07960   ISVAR:  CALL    PTRGET          ;GET A POINTER TO THE
  5089  006165' 000000  006505'
  5090  006166' 000000  006160'
  5091                                  07980                                   ;VARIABLE IN [D,E]
  5092  006167' 001000  000345          08000           PUSH    H               ;SAVE THE TEXT POINTER
  5093                                  08020   IFE     STRING,<
  5094                                  08040           XCHG                    ;TRANSFER THE POINTER AT THE VALUE
  5095                                  08060                                   ;INTO [H,L]
  5096                                  08080           CALL    MOVFM>          ;SETUP FAC WITH VARIABLE VALUE
  5097                                  08100   IFN     STRING,<
  5098  006170' 001000  000353          08120           XCHG                    ;PUT THE POINTER TO THE VARIABLE VALUE
  5099                                  08140                                   ;INTO [H,L]. IN THE CASE OF A STRING
  5100                                  08160                                   ;THIS IS A POINTER TO A DESCRIPTOR AND NOT
  5101                                  08180                                   ;AN ACTUAL VALUE
  5102  006171' 001000  000042          08200           SHLD    FACLO           ;IN CASE IT'S STRING STORE THE POINTER
  5103  006172' 000000  001637'
  5104  006173' 000000  006165'
  5105                                  08220                                   ;TO THE DESCRIPTOR IN FACLO


-- PAGE 109 --------------------------------------------------------------


BASIC MCS 8080  GATES/ALLEN/DAVIDOFF    MACRO 47(113) 03:12 10-SEP-75 PAGE 21-12
F3      MAC      6-SEP-64 03:11         FORMULA EVALUATION CODE

  5106                                  08240   IFE     LENGTH-2,<
  5107  006174' 001000  000315          08260           CALL    GETYPE          ;FOR STRINGS WE JUST LEAVE
  5108  006175' 000000  006307'
  5109  006176' 000000  006172'
  5110  006177' 001000  000304          08280           CNZ     VMOVFM>         ;A POINTER IN THE FAC
  5111  006200' 000000  000000*
  5112  006201' 000000  006175'
  5113                                  08300   IFN     LENGTH-2,<
  5114                                  08320           LDA     VALTYP
  5115                                  08340           ORA     A
  5116                                  08360           CZ      MOVFM>>         ;IF NOT,ACTUALLY TRANSFER THE VALUE INTO
  5117                                  08380                                   ;THE FAC USING [H,L] AS THE POINTER.
  5118  006202' 001000  000341          08400           POP     H               ;RESTORE THE TEXT POINTER
  5119  006203' 001000  000311          08420           RET
  5120  006204' 001000  000006          08440   ISFUN:  MVI     B,0
  5121  006205' 000000  000000
  5122  006206' 001000  000007          08460           RLC                     ;MULTIPLY BY 2
  5123  006207' 001000  000117          08480           MOV     C,A
  5124  006210' 001000  000305          08500           PUSH    B               ;SAVE THE FUNCTION # ON THE STACK
  5125  006211' 001000  000327          08520           CHRGET
  5126                                  08540   IFN     STRING,<
  5127  006212' 001000  000171          08560           MOV     A,C             ;LOOK AT FUNCTION #
  5128                  000051          08580   NUMGFN==2*LASNUM-2*ONEFUN+1
  5129  006213' 001000  000376          08600           CPI     NUMGFN          ;IS IT PAST LASNUM?
  5130  006214' 000000  000051
  5131  006215' 001000  000332          08620           JC      OKNORM          ;NO,MUST BE NORMAL FUNCTION
  5132  006216' 000000  006251'
  5133  006217' 000000  006200'
  5134                                  08640   ;
  5135                                  08660   ; MOST FUNCTIONS TAKE A SINGLE ARGUMENT.
  5136                                  08680   ; THE RETURN ADDRESS OF THESE FUNCTIONS IS A SMALL ROUTINE
  5137                                  08700   ; THAT CHECKS TO MAKE SURE VALTYP IS 0 (NUMERIC) AND POPS OFF
  5138                                  08720   ; THE TEXT POINTER. SO NORMAL FUNCTIONS THAT RETURN STRING RESULTS (I.E. CHR$)
  5139                                  08740   ; MUST POP OFF THE RETURN ADDRESS OF LABBCK, AND POP OFF THE
  5140                                  08760   ; TEXT POINTER AND THEN RETURN TO FRMEVL.
  5141                                  08780   ;
  5142                                  08800   ; THE SO CALLED "FUNNY" FUNCTIONS CAN TAKE MORE THAN ONE ARGUMENT.
  5143                                  08820   ; THE FIRST OF WHICH MUST BE STRING AND THE SECOND OF WHICH
  5144                                  08840   ; MUST BE A NUMBER BETWEEN 0 AND 256. THE TEXT POINTER IS
  5145                                  08860   ; PASSED TO THESE FUNCTIONS SO ADDITIONAL ARGUMENTS
  5146                                  08880   ; CAN BE READ. THE TEXT POINTER IS PASSED IN [D,E].
  5147                                  08900   ; THE CLOSE PARENTHESIS MUST BE CHECKED AND RETURN IS DIRECTLY
  5148                                  08920   ; TO FRMEVL WITH [H,L] SETUP AS THE TEXT POINTER POINTING BEYOND THE ")".
  5149                                  08940   ; THE POINTER TO THE DESCRIPTOR OF THE STRING ARGUMENT
  5150                                  08960   ; IS STORED ON THE STACK UNDERNEATH THE VALUE OF THE INTEGER
  5151                                  08980   ; ARGUMENT (2 BYTES)
  5152                                  09000   ;
  5153  006220' 001000  000317          09020           SYNCHK  "("             ;FIRST ARGUMENT ALWAYS
  5154  006221' 000000  000050
  5155                                  09040                                   ;STRING -- SECOND INTEGER
  5156  006222' 001000  000315          09060           CALL    FRMEVL          ;EAT OPEN PAREN AND FIRST ARG
  5157  006223' 000000  005336'
  5158  006224' 000000  006216'


-- PAGE 110 --------------------------------------------------------------


BASIC MCS 8080  GATES/ALLEN/DAVIDOFF    MACRO 47(113) 03:12 10-SEP-75 PAGE 21-13
F3      MAC      6-SEP-64 03:11         FORMULA EVALUATION CODE

  5159  006225' 001000  000317          09080           SYNCHK  44              ;TWO ARGS SO COMMA MUST DELIMIT
  5160  006226' 000000  000054
  5161  006227' 001000  000315          09100           CALL    CHKSTR          ;MAKE SURE THE FIRST ONE WAS STRING
  5162  006230' 000000  004164*
  5163  006231' 000000  006223'
  5164  006232' 001000  000353          09120           XCHG                    ;[D,E]=TXTPTR
  5165  006233' 001000  000052          09140           LHLD    FACLO           ;GET PTR AT STRING DESCRIPTOR
  5166  006234' 000000  001637'
  5167  006235' 000000  006230'
  5168  006236' 001000  000343          09160           XTHL                    ;GET FUNCTION #
  5169                                  09180                                   ;SAVE THE STRING PTR
  5170  006237' 001000  000345          09200           PUSH    H               ;PUT THE FUNCTION # ON
  5171  006240' 001000  000353          09220           XCHG                    ;[H,L]=TXTPTR
  5172  006241' 001000  000315          09240           CALL    GETBYT          ;[E]=VALUE OF FORMULA
  5173  006242' 000000  011020'
  5174  006243' 000000  006234'
  5175  006244' 001000  000353          09260           XCHG                    ;TEXT POINTER INTO [D,E]
  5176                                  09280                                   ;[H,L]=INT VALUE OF SECOND ARGUMENT
  5177  006245' 001000  000343          09300           XTHL                    ;SAVE INT VALUE OF SECOND ARG
  5178                                  09320                                   ;[H,L]=FUNCTION NUMBER
  5179  006246' 001000  000303          09340           JMP     FINGO>          ;DISPATCH TO FUNCTION
  5180  006247' 000000  006276'
  5181  006250' 000000  006242'
  5182  006251' 001000  000315          09360   OKNORM: CALL    PARCHK          ;MAKE SURE ITS THERE.
  5183  006252' 000000  006136'
  5184  006253' 000000  006247'
  5185                                  09380                                   ;READ THE FORMULA INSIDE
  5186                                  09400                                   ;AND MAKE SURE ITS FOLLOWED BY ")"
  5187  006254' 001000  000343          09420           XTHL                    ;[H,L]=FUNCTION # AND SAVE TEXT POINTER
  5188                                  09440   IFE     LENGTH-2,<
  5189                                  09460   ;
  5190                                  09480   ; CHECK IF SPECIAL COERCION MUST BE DONE FOR ONE OF THE TRANSCENDENTAL
  5191                                  09500   ; FUNCTIONS (RND, SQR, COS, SIN, TAN, ATN, LOG, AND EXP)
  5192                                  09520   ;
  5193  006255' 001000  000175          09540           MOV     A,L             ;[A]=FUNCTION NUMBER
  5194                  000016          09550   BOTCON==<SQRTK-ONEFUN>*2
  5195  006256' 001000  000376          09560           CPI     BOTCON          ;LESS THAN SQUARE ROOT?
  5196  006257' 000000  000016
  5197  006260' 001000  000332          09580           JC      NOTFRF          ;DON'T FORCE THE ARGUMENT
  5198  006261' 000000  006272'
  5199  006262' 000000  006252'
  5200                  000035          09590   TOPCON==<ATNTK-ONEFUN>*2+1
  5201  006263' 001000  000376          09600           CPI     TOPCON          ;BIGGER THAN ARC-TANGENT?
  5202  006264' 000000  000035
  5203  006265' 001000  000345          09620           PUSH    H               ;SAVE THE FUNCTION NUMBER
  5204  006266' 001000  000334          09640           CC      FRCSNG          ;IF NOT, FORCE FAC TO SINGLE-PRECISION
  5205  006267' 000000  006022*
  5206  006270' 000000  006261'
  5207  006271' 001000  000341          09660           POP     H               ;RESTORE THE FUNCTION NUMBER
  5208                                  09680   NOTFRF: >
  5209  006272' 001000  000021          09700           LXI     D,LABBCK        ;RETURN ADDRESS
  5210  006273' 000000  006162'
  5211  006274' 000000  006267'


-- PAGE 111 --------------------------------------------------------------


BASIC MCS 8080  GATES/ALLEN/DAVIDOFF    MACRO 47(113) 03:12 10-SEP-75 PAGE 21-14
F3      MAC      6-SEP-64 03:11         FORMULA EVALUATION CODE

  5212  006275' 001000  000325          09720           PUSH    D               ;MAKE THEM REALLY COME BACK
  5213  006276' 001000  000001          09740   FINGO:  LXI     B,FUNDSP        ;FUNCTION DISPATCH TABLE
  5214  006277' 000000  000103'
  5215  006300' 000000  006273'
  5216  006301' 001000  000011          09760           DAD     B               ;ADD ON THE OFFSET
  5217                                  09780   IFE     LENGTH,<
  5218                                  09800           PUSHM
  5219                                  09820           RET>                    ;GO TO THE ADDRESS POINTED TO BY [H,L]
  5220                                  09840   IFN     LENGTH,<
  5221  006302' 001000  000116          09860           MOV     C,M             ;FASTER THAN PUSHM
  5222  006303' 001000  000043          09880           INX     H
  5223  006304' 001000  000146          09900           MOV     H,M
  5224  006305' 001000  000151          09920           MOV     L,C
  5225  006306' 001000  000351          09940           PCHL>                   ;GO PERFORM THE FUNCTION
  5226                                  09960   IFE     LENGTH-2,<
  5227                                  09980   ;
  5228                                  10000   ; GET THE VALTYP AND SET CONDITION CODES AS FOLLOWS:
  5229                                  10020   ; CONDITION CODE        TRUE SET        FALSE SET
  5230                                  10030   ;
  5231                                  10040   ; SIGN                  INT=2           STR,SNG,DBL
  5232                                  10060   ; ZERO                  STR=3           INT,SNG,DBL
  5233                                  10080   ; ODD PARITY            SNG=4           INT,STR,DBL
  5234                                  10100   ; NO CARRY              DBL=10          INT,STR,SNG
  5235                                  10120   ;
  5236  006307' 001000  000072          10140   GETYPE: LDA     VALTYP          ;GET THE VALTYP
  5237  006310' 000000  001543'
  5238  006311' 000000  006277'
  5239  006312' 001000  000376          10160           CPI     8               ;SET CARRY CORRECTLY
  5240  006313' 000000  000010
  5241  006314' 001000  000075          10180           DCR     A               ;SET THE OTHER CONDITION CODE CORRECTLY
  5242  006315' 001000  000075          10200           DCR     A               ; WITHOUT AFFECTING CARRY
  5243  006316' 001000  000075          10220           DCR     A
  5244  006317' 001000  000311          10240           RET>
  5245
  5246                                  10280   IFN     LENGTH-2,<
  5247                                  10300   IFN     LENGTH,<
  5248                                  10320   OR:     XWD     ^O1000,^O366    ;"ORI" , FLAG AS "OR"
  5249                                  10340                                   ;AND USE COMMON "AND" CODE
  5250                                  10360   AND:    XRA     A               ;FLAG AS "AND"
  5251                                  10380   ANDCON:
  5252                                  10400           PUSH    PSW
  5253                                  10420   IFN     STRING,<CALL    CHKNUM>
  5254                                  10440           CALL    DEINT           ;GET [D,E]=INT VALUE AND CHECK SIZE
  5255                                  10460           POP     PSW
  5256                                  10480           XCHG                    ;[H,L]=INT VALUE
  5257                                  10500           POP     0               ;GET HIGH ORDER OFF
  5258                                  10520           XTHL                    ;PUT INT VALUE ON
  5259                                  10540                                   ;GET LOW OF SECOND ARG OFF
  5260                                  10560           XCHG                    ;[D,E]=LOW OF SECOND ARG
  5261                                  10580           CALL    MOVFR
  5262                                  10600           PUSH    PSW
  5263                                  10620           CALL    DEINT           ;GET [D,E]=INT VALUE
  5264                                  10640           POP     PSW


-- PAGE 112 --------------------------------------------------------------


BASIC MCS 8080  GATES/ALLEN/DAVIDOFF    MACRO 47(113) 03:12 10-SEP-75 PAGE 21-15
F3      MAC      6-SEP-64 03:11         FORMULA EVALUATION CODE

  5265                                  10660                                   ;OF FIRST ARG AND CHECK SIZE
  5266                                  10680           POP     B               ;[B,C]=INT VALUE OF SECOND ARG
  5267                                  10700           MOV     A,C             ;[A]=LOW OF SECOND ARG
  5268                                  10720           LXI     H,GIVACF        ;SETUP JUMP ADDRESS
  5269                                  10740           JNZ     ORFIN           ;IT WAS "OR" SO FINISH UP
  5270                                  10760           ANA     E               ;AND TWO LOW ORDERS
  5271                                  10780           MOV     C,A             ;SAVE ANSWER IN [C]
  5272                                  10800           MOV     A,B             ;[A]=HIGH ORDER SECOND ARG
  5273                                  10820           ANA     D               ;[A]=HIGH ORDER OF ANSWER
  5274                                  10840           PCHL                    ;FLOAT [A,C] AS ANSWER
  5275                                  10860   ORFIN:  ORA     E               ;OR TWO LOW ORDERS
  5276                                  10880           MOV     C,A             ;SAVE ANSWER LOW ORDER IN [C]
  5277                                  10900           MOV     A,B             ;[A]=HIGH ORDER SECOND ARG
  5278                                  10920           ORA     D               ;OR TWO HIGH ORDERS
  5279                                  10940                                   ;[A]=HIGH ORDER OF ANSWER
  5280                                  10960           PCHL                    ;FLOAT [A,C] AS ANSWER
  5281                                  10980   FINREL: LXI     H,PTDORL        ;MAKE [H,L] POINT AT OPERATOR ADDRESS
  5282                                  11000   IFN     STRING,<
  5283                                  11020           LDA     VALTYP          ;STORE VALUE TYPE AS LOW
  5284                                  11040           RAR                     ;ORDER BIT OF [E]
  5285                                  11060           MOV     A,D             ;GET RELATIONAL MEMORIES IN [A]
  5286                                  11080           RAL                     ;MOVE CARRY BIT IN
  5287                                  11100           MOV     E,A>            ;KEEP THIS BYTE IN [E]
  5288                                  11120   IFE     STRING,<MOV    E,D>
  5289                                  11140           MVI     D,100           ;PRECEDENCE OF ALL RELATIONAL
  5290                                  11160                                   ;OPERATORS IS 100
  5291                                  11180           MOV     A,B             ;[A]=PRECEDENCE OF OLD OPERATOR
  5292                                  11200           CMP     D               ;SEE WHETHER TO APPLY OLD OPERATOR
  5293                                  11220           RNC                     ;IF OLD OPERATOR HAS EQUAL OR GREATER
  5294                                  11240                                   ;PRECEDENCE THAN IT MUST BE APPLIED
  5295                                  11260           JMP     DOPREC          ;SEE IF TIME TO APPLY
  5296                                  11280                                   ;AND IF NOT SAVE INFO ON THE STACK
  5297                                  11300
  5298                                  11320   PTDORL: ADR(DOREL)              ;ADDRESS OF RELATIONAL
  5299                                  11340                                   ;OPERATOR APPLICATION
  5300                                  11360                                   ;ROUTINE
  5301                                  11380   ;
  5302                                  11400   ; TIME TO PERFORM A RELATIONAL OPERATOR
  5303                                  11420   ; [C] CONTAINS THE BITS AS TO WHICH RELATIONAL
  5304                                  11440   ; OPERATOR IT WAS (IF STRINGS ON
  5305                                  11460   ; LOW ORDER BIT SAYS WHETHER IT WAS STRING OR NOT)
  5306                                  11480   ;
  5307                                  11500   DOREL:  MOV     A,C             ;GET MEMORIES INTO [A]
  5308                                  11520   IFN     STRING,<
  5309                                  11540           ORA     A
  5310                                  11560           RAR>                    ;CARRY=WHETHER WAS STRING OR NOT
  5311                                  11580           POPR                    ;POP OFF LEFT RESULT
  5312                                  11600           PUSH    PSW             ;SAVE WHICH OPERATOR IT WAS
  5313                                  11620   IFE     STRING,<
  5314                                  11640           CALL    FCOMP>          ;DO A NUMERIC COMPARE
  5315                                  11660   IFN     STRING,<
  5316                                  11680           CALL    CHKVAL          ;SEE IF VALTYP MATCHES
  5317                                  11700                                   ;CARRY AND SET ZERO IN THE


-- PAGE 113 --------------------------------------------------------------


BASIC MCS 8080  GATES/ALLEN/DAVIDOFF    MACRO 47(113) 03:12 10-SEP-75 PAGE 21-16
F3      MAC      6-SEP-64 03:11         FORMULA EVALUATION CODE

  5318                                  11720                                   ;NUMERIC CASE
  5319                                  11740           LXI     H,DOCMP         ;COME BACK TO COMPARE
  5320                                  11760           PUSH    H
  5321                                  11780           JZ      FCOMP           ;DO NUMERIC COMPARE
  5322                                  11800           XRA     A               ;SET VALUE TYPE AS NUMERIC
  5323                                  11820           STA     VALTYP>>>
  5324                                  11840   IFN     STRING,<
  5325                                  11860   ;
  5326                                  11880   ; THE FOLLOWING ROUTINE COMPARES TWO STRINGS
  5327                                  11900   ; ONE WITH DESC IN [D,E] OTHER WITH DESC. IN [FACLO, FACLO+1]
  5328                                  11920   ; A=0 IF STRINGS EQUAL
  5329                                  11940   ; A=377 IF B,C,D,E POINTER FACLO
  5330                                  11960   ; A=1 IF B,C,D,E .LT. FACLO
  5331                                  11980   ;
  5332                                  12000   IFN     LENGTH-2,<
  5333                                  12020   STRCMP: PUSH    D               ;SAVE DESC. POINTER TO FIRST STR.
  5334                                  12040           CALL    FREFAC          ;FREE THE FACLO STR
  5335                                  12060           POP     D               ;RESTORE 1ST DESC. POINTER
  5336                                  12080           PUSHM                   ;SAVE LENGTH
  5337                                  12100           PUSHM                   ;SAVE POINTER
  5338                                  12120           CALL    FRETMP          ;FREES 1ST DESC. POINTER
  5339                                  12140           CALL    MOVRM           ;[B,C] POINT AT FIRST CHAR
  5340                                  12160                                   ;[E] HAS THE LENGTH
  5341                                  12180           POP     H               ;GET 2ND CHARACTER POINTER IN H
  5342                                  12200           XTHL                    ;GET 2ND CHARACTER COUNTER IN L
  5343                                  12220           MOV     D,L>            ;SAVE IN D
  5344                                  12240   IFE     LENGTH-2,<
  5345  006320' 001000  000315          12260   STRCMP: CALL    FRESTR          ;FREE UP THE FAC STRING, AND GET THE
  5346  006321' 000000  010431'
  5347  006322' 000000  006310'
  5348                                  12280                                   ;POINTER TO THE FAC DESCRIPTOR IN [H,L]
  5349  006323' 001000  000176          12300           MOV     A,M             ;SAVE THE LENGTH OF THE FAC STRING IN [A]
  5350  006324' 001000  000043          12320           INX     H
  5351  006325' 001000  000116          12340           MOV     C,M             ;SAVE THE POINTER AT THE FAC STRING
  5352                                  12342                                   ;DATA IN [B,C]
  5353  006326' 001000  000043          12360           INX     H
  5354  006327' 001000  000106          12380           MOV     B,M
  5355  006330' 001000  000321          12400           POP     D               ;GET THE STACK STRING POINTER
  5356  006331' 001000  000305          12420           PUSH    B               ;SAVE THE POINTER AT THE FAC STRING DATA
  5357  006332' 001000  000365          12440           PUSH    PSW             ;SAVE THE FAC STRING LENGTH
  5358  006333' 001000  000315          12460           CALL    FRETMP          ;FREE UP THE STACK STRING AND RETURN
  5359  006334' 000000  010440'
  5360  006335' 000000  006321'
  5361                                  12480                                   ;THE POINTER TO THE STACK STRING DESCRIPTOR
  5362                                  12500                                   ;IN [H,L]
  5363  006336' 001000  000321          12520           POP     D               ;[D]=LENGTH OF FAC STRING
  5364  006337' 001000  000136          12540           MOV     E,M             ;[E]=LENGTH OF STACK STRING
  5365  006340' 001000  000043          12560           INX     H
  5366  006341' 001000  000116          12580           MOV     C,M             ;[B,C]=POINTER AT STACK STRING
  5367  006342' 001000  000043          12600           INX     H
  5368  006343' 001000  000106          12620           MOV     B,M>
  5369  006344' 001000  000341          12640           POP     H               ;GET BACK 2ND CHARACTER POINTER
  5370  006345' 001000  000173          12660   CSLOOP: MOV     A,E             ;BOTH STRINGS ENDED


-- PAGE 114 --------------------------------------------------------------


BASIC MCS 8080  GATES/ALLEN/DAVIDOFF    MACRO 47(113) 03:12 10-SEP-75 PAGE 21-17
F3      MAC      6-SEP-64 03:11         FORMULA EVALUATION CODE

  5371  006346' 001000  000262          12680           ORA     D               ;TEST BY OR'ING THE LENGTHS TOGETHER
  5372  006347' 001000  000310          12700           RZ                      ;IF SO, RETURN WITH A ZERO
  5373  006350' 001000  000172          12720           MOV     A,D             ;GET FACLO STRING LENGTH
  5374  006351' 001000  000267          12740           ORA     A               ;IF IT ENDED, OTHER MUST NOT HAVE
  5375  006352' 001000  000057          12760           CMA                     ;MAKE -1
  5376  006353' 001000  000310          12780           RZ                      ;TEST
  5377  006354' 001000  000257          12800           XRA     A               ;MUST NOT HAVE BEEN ZERO, TEST CASE
  5378  006355' 001000  000273          12820           CMP     E               ;OF B,C,D,E STRING HAVING ENDED FIRST
  5379  006356' 001000  000074          12840           INR     A               ;RETURN WITH A=1
  5380  006357' 001000  000320          12860           RNC                     ;TEST THE CONDITION
  5381                                  12880   ;HERE WHEN NETIHER STRING ENDED
  5382  006360' 001000  000025          12900           DCR     D               ;DECREMENT BOTH CHARACTER COUNTS
  5383  006361' 001000  000035          12920           DCR     E
  5384  006362' 001000  000012          12940           LDAX    B               ;GET CHARACTER FROM B,C,D,E STRING
  5385  006363' 001000  000276          12960           CMP     M               ;COMPARE WITH FACLO STRING
  5386  006364' 001000  000043          12980           INX     H               ;BUMP POINTERS (INX DOESNT CLOBBER CC'S)
  5387  006365' 001000  000003          13000           INX     B
  5388  006366' 001000  000312          13020           JZ      CSLOOP          ;IF BOTH THE SAME, MUST BE MORE TO STRINGS
  5389  006367' 001000  006345'
  5390  006370' 000000  006334'
  5391  006371' 000000  000077          13040           CMC                     ;HERE WHEN STRINGS DIFFER
  5392  006372' 001000  000303          13060           JMP     SIGNS>          ;SET [A] ACCORDING TO CARRY
  5393  006373' 001000  000000*
  5394  006374' 000000  006367'
  5395                                  13080   IFN     LENGTH,<
  5396  006375' 001000  000074          13100   DOCMP:  INR     A               ;SETUP BITS
  5397  006376' 001000  000217          13120           ADC     A               ;4=LESS 2=EQUAL 1=GREATER
  5398  006377' 001000  000301          13140           POP     B               ;WHAT DID HE WANT?
  5399  006400' 001000  000240          13160           ANA     B               ;ANY BITS MATCH?
  5400  006401' 001000  000306          13180           ADI     255             ;MAP 0 TO 0
  5401  006402' 000000  000377
  5402  006403' 001000  000237          13200           SBB     A               ;AND ALL OTHERS TO 377
  5403                                  13220   IFE     LENGTH-2,<
  5404  006404' 001000  000315          13240           CALL    CONIA##         ;CONVERT [A] TO AN INTEGER SIGNED
  5405  006405' 000000  000000*
  5406  006406' 000000  006373'
  5407  006407' 001000  000303          13260           JMP     RETAOP          ;RETURN FROM OPERATOR APPLICATION
  5408  006410' 000000  005354'
  5409  006411' 000000  006405'
  5410                                  13280   IFN     LENGTH-2,<
  5411                                  13300           JMP     FLOAT           ;MAKE FAC=[A] SIGNED
  5412                                  13320                                   ;COULD FALL INTO FLOAT BUT MESSY (SAVES
  5413                                  13340                                   ;TWO BYTES)
  5414                                  13360
  5415                                  13380   NOTER:  MVI     D,90            ;"NOT" HAS PRECEDENCE 90
  5416                                  13400           CALL    LPOPER          ;GO PERFORM
  5417                                  13420   IFN     STRING,<CALL    CHKNUM> ;MAKE SURE ITS INT
  5418                                  13440           CALL    DEINT           ;GET VALUE IN [D,E]
  5419                                  13460           MOV     A,E
  5420                                  13480           CMA                     ;COMPLEMENT
  5421                                  13500           MOV     C,A             ;[C] LOW ORDER OF ANSWER
  5422                                  13520           MOV     A,D
  5423                                  13540           CMA                     ;COMPLEMENT HIGH ORDER TOO


-- PAGE 115 --------------------------------------------------------------


BASIC MCS 8080  GATES/ALLEN/DAVIDOFF    MACRO 47(113) 03:12 10-SEP-75 PAGE 21-18
F3      MAC      6-SEP-64 03:11         FORMULA EVALUATION CODE

  5424                                  13560           CALL    GIVACF          ;FLOAT [A,C] AS RESULT
  5425                                  13580           POP     B               ;TAKE RETURN ADDRESS OF FRMEVL
  5426                                  13600           JMP     RETAOP>>        ;OFF AND RETURN TO THE RIGHT
  5427                                  13620                                   ;PLACE SO THE TEXT POINTER
  5428                                  13640                                   ;WILL GET SET UP TO WHAT IT WAS
  5429                                  13660                                   ;WHEN LPOPER RETURNED.
  5430                                  13680   IFE     LENGTH-2,<
  5431  006412' 001000  002026          13700   NOTER:  MVI     D,90            ;"NOT" HAS PRECEDENCE OF 90, SO
  5432  006413' 000000  000132
  5433  006414' 001000  000315          13720           CALL    LPOPER          ;FORMULA EVALUATION IS ENTERED WITH A DUMMY
  5434  006415' 000000  005341'
  5435  006416' 000000  006410'
  5436                                  13730                                   ;ENTRY OF 90 ON THE STACK
  5437  006417' 001000  000315          13740           CALL    FRCINT          ;COERCE THE ARGUMENT TO INTEGER
  5438  006420' 000000  005573*
  5439  006421' 000000  006415'
  5440  006422' 001000  000175          13760           MOV     A,L             ;COMPLEMENT [H,L]
  5441  006423' 001000  000057          13780           CMA
  5442  006424' 001000  000157          13800           MOV     L,A
  5443  006425' 001000  000174          13820           MOV     A,H
  5444  006426' 001000  000057          13840           CMA
  5445  006427' 001000  000147          13860           MOV     H,A
  5446  006430' 001000  000042          14880           SHLD    FACLO           ;UPDATE THE FAC
  5447  006431' 001000  001637'
  5448  006432' 000000  006420'
  5449  006433' 001000  000301          13900           POP     B               ;FRMEVL, AFTER SEEING THE PRECEDENCE
  5450                                  13910                                   ;OF 90 THINKS IT IS APPLYING AN OPERATOR
  5451                                  13915                                   ;SO IT HAS THE TEXT POINTER IN TEMP2 SO
  5452
  5453  006434' 001000  000303          13920           JMP     RETAOP          ;RETURN TO REFETCH IT
  5454  006435' 000000  005354'
  5455  006436' 000000  006431'
  5456                                  14042   ;
  5457                                  14044   ; DANDOR APPLIES THE "AND" AND "OR" OPERATORS
  5458                                  14046   ; AND SHOULD BE USED TO IMPLEMENT ALL LOGICAL OPERATORS.
  5459                                  14048   ; WHENEVER AN OPERATOR IS APPLIED, ITS PRECEDENCE IS IN [B].
  5460                                  14050   ; THIS FACT IS USED TO DISTINGUISH BETWEEN "AND" AND "OR".
  5461                                  14052   ; THE RIGHT HAND ARGUMENT IS COERCED TO INTEGER, JUST AS
  5462                                  14054   ; THE LEFT HAND ONE WAS WHEN IT WAS PUSHED ON THE STACK.
  5463                                  14056   ;
  5464  006437' 001000  000305          14060   DANDOR: PUSH    B               ;SAVE THE PRECEDENCE "OR"=70
  5465  006440' 001000  000315          14080           CALL    FRCINT          ;COERCE RIGHT HAND ARGUMENT TO INTEGER
  5466  006441' 000000  006420*
  5467  006442' 000000  006435'
  5468  006443' 001000  000361          14100           POP     PSW             ;GET BACK THE PRECEDENCE TO DISTINGUISH
  5469                                  14120                                   ;"AND" AND "OR"
  5470  006444' 001000  000321          14140           POP     D               ;POP OFF THE LEFT HAND ARGUMENT
  5471  006445' 001000  000376          14160           CPI     70              ;SET ZERO FOR "OR"
  5472  006446' 000000  000106
  5473  006447' 001000  000173          14180           MOV     A,E             ;SETUP LOW IN [A]
  5474  006450' 001000  000312          14200           JZ      ORFIN           ;DO "OR" IF PRECEDENCE WAS 70
  5475  006451' 000000  006463'
  5476  006452' 000000  006441'


-- PAGE 116 --------------------------------------------------------------


BASIC MCS 8080  GATES/ALLEN/DAVIDOFF    MACRO 47(113) 03:12 10-SEP-75 PAGE 21-19
F3      MAC      6-SEP-64 03:11         FORMULA EVALUATION CODE

  5477  006453' 001000  000245          14220           ANA     L
  5478  006454' 001000  000157          14240           MOV     L,A
  5479  006455' 001000  000174          14260           MOV     A,H
  5480  006456' 001000  000242          14280           ANA     D
  5481  006457' 001000  000147          14300           MOV     H,A
  5482  006460' 001000  000303          14320           JMP     MAKINT          ;RETURN THE INTEGER [H,L]
  5483  006461' 000000  000006*
  5484  006462' 000000  006451'
  5485                                  14322                                   ; AS THE "AND"ED RESULT
  5486  006463' 001000  000262          14324   ORFIN:  ORA     L
  5487  006464' 001000  000157          14326           MOV     L,A
  5488  006465' 001000  000174          14328           MOV     A,H
  5489  006466' 001000  000262          14330           ORA     D
  5490  006467' 001000  000147          14332           MOV     H,A
  5491  006470' 001000  000303          14334           JMP     MAKINT>         ;RETURN THE INTEGER [H,L]
  5492  006471' 000000  006461*
  5493  006472' 000000  006361'
  5494                                  14336                                   ; AS THE "OR"ED RESULT
  5495                                  14340   PAGE


-- PAGE 117 --------------------------------------------------------------


BASIC MCS 8080  GATES/ALLEN/DAVIDOFF    MACRO 47(113) 03:12 10-SEP-75 PAGE 22
F3      MAC      6-SEP-64 03:11         DIMENSION & VARIABLE SEARCHING

  5496                                  14360   SUBTTL  DIMENSION & VARIABLE SEARCHING
  5497  006473' 001000  000053          14380   DIMCON: DCX     H               ;SEE IF COMMA ENDED THIS VARIABLE
  5498  006474' 001000  000327          14400           CHRGET
  5499  006475' 001000  000310          14420           RZ                      ;IF TERMINATOR, GOOD BYE
  5500  006476' 001000  000317          14440           SYNCHK  44              ;MUST BE COMMA
  5501  006477' 000000  000054
  5502                                  14442   ;
  5503                                  14444   ; THE "DIM" CODE SETS DIMFLG AND THEN FALLS INTO THE VARIABLE
  5504                                  14446   ; SEARCH ROUTINE. THE VARIABLE SEARCH ROUTIME LOOKS AT
  5505                                  14448   ; DIMFLG AT THREE DIFFERENT POINTS:
  5506                                  14450   ;
  5507                                  14452   ;       1) IF AN ENTRY IS FOUND, DIMFLG BEING ON INDICATES
  5508                                  14454   ;               A "DOUBLY DIMENSIONED" VARIABLE
  5509                                  14456   ;       2) WHEN A NEW ENTRY IS BEING BUILT DIMFLG'S BEING ON
  5510                                  14458   ;               INDICATES THE INDICES SHOULD BE USED FOR
  5511                                  14460   ;               THE SIZE OF EACH INDICE. OTHERWISE THE DEFAULT
  5512                                  14462   ;               OF TEN IS USED.
  5513                                  14464   ;       3) WHEN THE BUILD ENTRY CODE FINISHES, ONLY IF DIMFLG IS
  5514                                  14466   ;               OFF WILL INDEXING BE DONE
  5515                                  14468   ;
  5516  006500' 001000  000001          14478   DIM:    LXI     B,DIMCON        ;PLACE TO COME BACK TO
  5517  006501' 000000  006473'
  5518  006502' 000000  006471'
  5519  006503' 001000  000305          14480           PUSH    B
  5520  006504' 001000  000366          14500           XWD     ^O1000,^O366    ;"ORI" NON ZERO THING
  5521                                  14520   ;
  5522                                  14540   ; ROUTINE TO READ THE VARIABLE NAME AT THE CURRENT TEXT POSITION
  5523                                  14560   ; AND PUT A POINTER TO ITS VALUE IN [D,E]. [H,L] IS UPDATED
  5524                                  14580   ; TO POINT TO THE CHARACTER AFTER THE VARIABLE NAME.
  5525                                  14600   ; VALTYP IS SETUP. NOTE THAT EVALUATING SUBSCRIPTS IN
  5526                                  14620   ; A VARIABLE NAME CAN CAUSE RECURSIVE CALLS TO PTRGET SO AT
  5527                                  14640   ; THAT POINT ALL VALUES MUST BE STORED ON THE THE STACK.
  5528                                  15660   ;
  5529  006505' 001000  000257          15680   PTRGET: XRA     A               ;MAKE [A]=0
  5530  006506' 001000  000062          15700           STA     DIMFLG          ;FLAG IT AS SUCH
  5531  006507' 000000  001542'
  5532  006510' 000000  006501'
  5533  006511' 001000  000106          15720           MOV     B,M             ;GET FIRST CHARACTER IN [B]
  5534  006512' 001000  000315          15740   PTRGT2: CALL    ISLET           ;CHECK FOR LETTER
  5535  006513' 000000  003612'
  5536  006514' 000000  006507'
  5537  006515' 001000  000332          15760           JC      SNERR           ;MUST HAVE A LETTER
  5538  006516' 000000  002072'
  5539  006517' 000000  006513'
  5540  006520' 001000  000257          15780           XRA     A
  5541  006521' 001000  000117          15800           MOV     C,A             ;ASSUME NO SECOND CHARACTER
  5542                                  15820   IFN     LENGTH-2,<
  5543                                  15840   IFN     STRING,<
  5544                                  15860           STA     VALTYP>>        ;DEFAULT IS ZERO (NUMERIC)
  5545  006522' 001000  000327          15880           CHRGET                  ;GET THE FOLLOWING CHARACTER
  5546                                  15900   IFE     LENGTH,<
  5547                                  15920           JNC     NOSEC>          ;ONLY NUMBERS ALLOWED
  5548                                  15940   IFN     LENGTH,<


-- PAGE 118 --------------------------------------------------------------


BASIC MCS 8080  GATES/ALLEN/DAVIDOFF    MACRO 47(113) 03:12 10-SEP-75 PAGE 22-1
F3      MAC      6-SEP-64 03:11         DIMENSION & VARIABLE SEARCHING

  5549  006523' 001000  000332          14960           JC      ISSEC           ;CARRY SET BY CHRGET IF CHARACTER IS
  5550  006524' 000000  006534'
  5551  006525' 000000  006516'
  5552                                  14980                                   ;NUMERIC
  5553  006526' 001000  000315          15000           CALL    ISLET           ;SET CARRY IF NOT ALPHABETIC
  5554  006527' 000000  003612'
  5555  006530' 000000  006524'
  5556  006531' 001000  000332          15020           JC      NOSEC>          ;ALLOW ALPHABETICS
  5557  006532' 000000  006547'
  5558  006533' 000000  006527'
  5559  006534' 001000  000117          15040   ISSEC:  MOV     C,A             ;IT IS A NUMBER--SAVE IN C
  5560  006535' 001000  000327          15060   EATEM:  CHRGET                  ;LOOK AT NEXT CHARACTER
  5561                                  15080   IFN LENGTH,<
  5562  006536' 001000  000332          15100           JC      EATEM           ;SKIP NUMERICS
  5563  006537' 000000  006535'
  5564  006540' 000000  006532'
  5565  006541' 001000  000315          15120           CALL    ISLET
  5566  006542' 000000  003612'
  5567  006543' 000000  006537'
  5568  006544' 001000  000322          15140           JNC     EATEM>          ;SKIP ALPHABETICS
  5569  006545' 000000  006535'
  5570  006546' 000000  006542'
  5571  006547'                         15160   NOSEC:
  5572                                  15180   IFE     LENGTH-2,<
  5573  006547' 001000  000021          15200           LXI     D,HAVTYP        ;SAVE JUMPS BY USING RETURN ADDRESS
  5574  006550' 000000  006574'
  5575  006551' 000000  006545'
  5576  006552' 001000  000325          15220           PUSH    D
  5577  006553' 001000  000026          15240           MVI     D,8             ;ASSUME ITS DOUBLE PRECISION
  5578  006554' 000000  000010
  5579  006555' 001000  000376          15260           CPI     "#"             ;CHECK THE CHARACTER
  5580  006556' 000000  000043
  5581  006557' 001000  000310          15280           RZ                      ;WHEN WE MATCH, SETUP VALTYP
  5582  006560' 001000  000026          15300           MVI     D,2             ;CHECK FOR INTEGER
  5583  006561' 000000  000002
  5584  006562' 001000  000376          15320           CPI     "%"
  5585  006563' 000000  000045
  5586  006564' 001000  000310          15340           RZ
  5587  006565' 001000  000024          15360           INR     D               ;CHECK FOR STRING
  5588  006566' 001000  000376          15380           CPI     "$"
  5589  006567' 000000  000044
  5590  006570' 001000  000310          15400           RZ
  5591  006571' 001000  000024          15420           INR     D               ;SINGLE PRECISION IS THE DEFAULT
  5592  006572' 001000  000053          15440           DCX     H               ;NO MARKING CHARACTER
  5593  006573' 001000  000311          15460           RET                     ;GET RID OF RETURN ADDRESS
  5594  006574' 001000  000172          15480   HAVTYP: MOV     A,D             ;SETUP VALTYP
  5595  006575' 001000  000062          15500           STA     VALTYP
  5596  006576' 000000  001543'
  5597  006577' 000000  006550'
  5598  006600' 001000  000327          15520           CHRGET>                 ;READ PAST TYPE MARKER
  5599                                  15540   IFN     LENGTH-2,<
  5600                                  15560   IFN     STRING,<
  5601                                  15580           SUI     "$"             ;IS IT A STRING?


-- PAGE 119 --------------------------------------------------------------


BASIC MCS 8080  GATES/ALLEN/DAVIDOFF    MACRO 47(113) 03:12 10-SEP-75 PAGE 22-2
F3      MAC      6-SEP-64 03:11         DIMENSION & VARIABLE SEARCHING

  5602                                  15600           JNZ     NOTSTR          ;IF NOT VALTYP ALREADY
  5603                                  15620           INR     A               ;[A]=1
  5604                                  15640           STA     VALTYP          ;FLAG THIS AS A STRING
  5605                                  15660           RRC                     ;MAKE [A]=128
  5606                                  15680           ADD     C               ;MAKE [A]=SECOND CHARACTER
  5607                                  15700           MOV     C,A             ;BACK INTO [C] WITH STRING BIT ON
  5608                                  15720           CHRGET                  ;GET CHARACTER AFTER "$"
  5609                                  15740   NOTSTR: >>
  5610                                  15760   IFN     LENGTH,<
  5611  006601' 001000  000072          15780           LDA     SUBFLG          ;GET FLAG WHETHER TO ALLOW ARRAYS
  5612  006602' 000000  001601'
  5613  006603' 000000  006576'
  5614  006604' 001000  000206          15800           ADD     M>              ;ADD ONTO CHARACTER
  5615                                  15820           CPI     "("             ;ARRAY PERHAPS (IF SUBFLG SET NEVER WILL MATCH)
  5616  006605' 001000  000376
  5617  006606' 000000  000050
  5618  006607' 001000  000312          15840           JZ      ISARY           ;IT IS!
  5619  006610' 000000  006745'
  5620  006611' 000000  006602'
  5621                                  15860   IFN     LENGTH,<
  5622  006612' 001000  000257          16880           XRA     A               ;ALLOW PARENS AGAIN
  5623  006613' 001000  000062          15900           STA     SUBFLG>         ;SAVE IN FLAG LOCATION
  5624  006614' 000000  001601'
  5625  006615' 000000  006610'
  5626  006616' 001000  000345          15920           PUSH    H               ;SAVE THE TEXT POINTER
  5627                                  15960   IFE     LENGTH-2,<
  5628  006617' 001000  000172          15980           MOV     A,D             ;VALUE TYPE INTO [A]
  5629  006620' 001000  000052          15990           LHLD    VARTAB          ;[H,L]=PLACE TO START THE SEARCH
  5630  006621' 000000  001621'
  5631  006622' 000000  006614'
  5632  006623' 001000  000365          16000   LOPFND: PUSH    PSW             ;SAVE THE VALUE TYPE
  5633  006624' 001000  000353          16020           XCHG                    ;[D,E]=POINTER INTO SIMPLE VARIABLES
  5634  006625' 001000  000052          16040           LHLD    ARYTAB          ;[H,L]=END OF SIMPLE VARIABLES
  5635  006626' 000000  001623'
  5636  006627' 000000  006621'
  5637  006630' 001000  000347          16060           COMPAR                  ;SEE IF THE END HAS BEEN REACHER
  5638  006631' 001000  000341          16080           POP     H               ;[H]=VALTYP
  5639  006632' 001000  000312          16100           JZ      NOTFNS          ;COULDN'T FIND IT, SO MAKE A NEW ENTRY
  5640  006633' 000000  006671'
  5641  006634' 000000  006626'
  5642  006635' 001000  000032          16120           LDAX    D               ;GET THE VALTYP OF THIS SIMPLE VARIABLE
  5643  006636' 001000  000157          16140           MOV     L,A             ;SAVE SO WE KNOW HOW MUCH TO SKIP
  5644  006637' 001000  000274          16160           CMP     H               ;COMPARE WITH OUT VALTYP
  5645  006640' 001000  000023          16180           INX     D
  5646  006641' 001000  000302          16200           JNZ     NOTIT1          ;NOT RIGHT KIND -- SKIP IT
  5647  006642' 000000  006660'
  5648  006643' 000000  006633'
  5649  006644' 001000  000032          16220           LDAX    D               ;[A]=FIRST CHARACTER OF THIS VARIABLE
  5650  006645' 001000  000271          16240           CMP     C               ;SEE IF OUR VARIABLE MATCHES
  5651  006646' 001000  000302          16260           JNZ     NOTIT1
  5652  006647' 000000  006660'
  5653  006650' 000000  006642'
  5654  006651' 001000  000023          16280           INX     D


-- PAGE 120 --------------------------------------------------------------


BASIC MCS 8080  GATES/ALLEN/DAVIDOFF    MACRO 47(113) 03:12 10-SEP-75 PAGE 22-3
F3      MAC      6-SEP-64 03:11         DIMENSION & VARIABLE SEARCHING

  5655  006652' 001000  000032          16300           LDAX    D               ;SEE IF SECOND CHARACTER MATCHES
  5656  006653' 001000  000270          16320           CMP     B
  5657  006654' 001000  000312          16340           JZ      FINPTR          ;THAT WAS IT, ALL DONE
  5658  006655' 000000  006742'
  5659  006656' 000000  006647'
  5660  006657' 001000  000076          16360           XWD     ^O1000,^O76     ;"MVI A," AROUND THIS INX SINCE THE POINTER
  5661                                  16380                                   ;IS ALREADY INCREMENTED
  5662  006660' 001000  000023          16400   NOTIT1: INX     D
  5663  006661' 001000  000023          16420           INX     D
  5664  006662' 001000  000174          16440           MOV     A,H             ;SKIP OVER THE
  5665                                  16460                                   ;CURRENT VARIABLE SINCE WE DIDN'T MATCH
  5666                                  16480                                   ;SAVE THE VALTYP IN [A]
  5667  006663' 001000  000046          16500           MVI     H,0             ;[H,L]=NUMBER OF BYTES TO SKIP
  5668  006664' 000000  000000
  5669  006665' 001000  000031          16520           DAD     D               ;ADD ON THE POINTER
  5670  006666' 001000  000303          16540           JMP     LOPFND          ;AND SEARCH SOME MORE
  5671  006667' 000000  006623'
  5672  006670' 000000  006655'
  5673  006671' 001000  000305          16560   NOTFNS: PUSH    B               ;SAVE THE LOOKS
  5674  006672' 001000  000114          16580           MOV     C,H             ;[B,C]=LENGTH OF THIS VARIABLE
  5675  006673' 001000  000107          16600           MOV     B,A             ;[B]=0
  5676  006674' 001000  000305          16620           PUSH    B               ;SAVE THE VALTYP ON THE STACK
  5677  006675' 001000  000003          16640           INX     B               ;MAKE THE LENGTH INCLUDE
  5678                                  16660                                   ;THE LOOKS TOO
  5679  006676' 001000  000003          16680           INX     B
  5680  006677' 001000  000003          16700           INX     B>
  5681                                  16720   IFN     LENGTH-2,<
  5682                                  16730           LHLD    ARYTAB          ;PLACE TO STOP SEARCHING
  5683                                  16740           XCHG
  5684                                  16760           LHLD    VARTAB          ;GET THE PLACE TO START
  5685                                  16780   LOPFND: COMPAR                  ;SEE IF WE ARE THERE
  5686                                  16800           JZ      NOTFNS          ;COULDN'T FIND THIS VARIABLE
  5687                                  16820                                   ;SO MAKE ROOM FOR IT
  5688                                  16840           MOV     A,C
  5689                                  16860           SUB     M               ;IS THIS VARIABLE THE ONE?
  5690                                  16880           INX     H
  5691                                  16900           JNZ     NOTIT           ;NOPE
  5692                                  16920           MOV     A,B
  5693                                  16940           SUB     M               ;TRY SECOND CHARACTER MATCHING
  5694                                  16960   NOTIT:  INX     H
  5695                                  16980           JZ      FINPTR          ;THAT WAS IT!
  5696                                  17000           INX     H               ;SKIP OVER THAT ONE--NOT IT
  5697                                  17020           INX     H
  5698                                  17040           INX     H
  5699                                  17060           INX     H
  5700                                  17080           JMP     LOPFND          ;TRY AGAIN
  5701                                  17100   NOTFNS: PUSH    B               ;REMEMBER WHAT THIS
  5702                                  17120                                   ;VARIABLE LOOKS LIKE
  5703                                  17140           LXI     B,6+$CODE>      ;THE AMOUNT TO SHOVE
  5704                                  17160                                   ;EVERYTHING UP BY
  5705  006700' 001000  000052          17180           LHLD    STREND          ;THE CURRENT END OF STORAGE
  5706  006701' 000000  001625'
  5707  006702' 000000  006667'


-- PAGE 121 --------------------------------------------------------------


BASIC MCS 8080  GATES/ALLEN/DAVIDOFF    MACRO 47(113) 03:12 10-SEP-75 PAGE 22-4
F3      MAC      6-SEP-64 03:11         DIMENSION & VARIABLE SEARCHING

  5708  006703' 001000  000345          17200           PUSH    H               ;SAVE THIS #
  5709  006704' 001000  000011          17220           DAD     B               ;ADD ON THE AMOUNT OF SPACE
  5710                                  17240                                   ;EXTRA NOW BEING USED
  5711  006705' 001000  000301          17260           POP     B               ;POP OFF HIGH ADDRESS TO MOVE
  5712  006706' 001000  000345          17280           PUSH    H               ;SAVE NEW CANDDIATE FOR STREND
  5713  006707' 001000  000315          17300           CALL    BLTU            ;BLOCK TRANSFER AND MAKE SURE
  5714  006710' 000000  002005'
  5715  006711' 000000  006701'
  5716                                  17320                                   ;WE ARE NOT OVERFLOWING THE
  5717                                  17340                                   ;STACK SPACE
  5718  006712' 001000  000341          17360           POP     H               ;[H,L]=NEW STREND
  5719  006713' 001000  000042          17380           SHLD    STREND          ;STORE SINCE WAS OK
  5720  006714' 000000  001625'
  5721  006715' 000000  006710'
  5722                                  17400                                   ;THERE WAS ROOM, AND BLOCK TRANSFER
  5723                                  17420                                   ;WAS DONE, SO UPDATE POINTERS
  5724  006716' 001000  000140          17440           MOV     H,B             ;GET BACK [H,L] POINTING AT THE END
  5725  006717' 001000  000151          17460           MOV     L,C             ;OF THE NEW VARIABLE
  5726  006720' 001000  000042          17480           SHLD    ARYTAB          ;UPDATE THE ARRAY TABLE POINTER
  5727  006721' 000000  001623'
  5728  006722' 000000  006714'
  5729  006723' 001000  000053          17500   ZEROER: DCX     H               ;[H,L] IS RETURNED POINTING TO THE
  5730  006724' 001000  000066          17520           MVI     M,0             ;END OF THE VARIABLE SO WE
  5731  006725' 000000  000000
  5732  006726' 000000  000347          17540           COMPAR                  ;ZERO BACKWARDS TO [D,E] WHICH
  5733  006727' 001000  000302          17560           JNZ     ZEROER          ;POINTS TO THE START OF THE VARIABLE
  5734  006730' 001000  006723'
  5735  006731' 000000  006721'
  5736                                  17580   IFE     LENGTH-2,<
  5737  006732' 001000  000321          17600           POP     D               ;[E]=VALTYP
  5738  006733' 001000  000163          17620           MOV     M,E             ;STORE AS PART OF THE LOOKS
  5739  006734' 001000  000043          17640           INX     H>
  5740  006735' 001000  000321          17660           POP     D
  5741  006736' 001000  000163          17680           MOV     M,E             ;PUT DESCRIPTION
  5742  006737' 001000  000043          17700           INX     H
  5743  006740' 001000  000162          17720           MOV     M,D             ;OF THIS VARIABLE
  5744                                  17740                                   ;INTO MEMORY
  5745                                  17760   IFE     LENGTH-2,<
  5746  006741' 001000  000353          17780           XCHG                    ;POINTER AT VARIABLE INTO [D,E]
  5747  006742' 001000  000023          17800   FINPTR: INX     D>              ;POINT AT THE VALUE
  5748                                  17820   IFN     LENGTH-2,<
  5749                                  17840           INX     H
  5750                                  17860   FINPTR: XCHG>                   ;VARIABLE POINTER INTO [D,E]
  5751  006743' 001000  000341          17880           POP     H               ;RESTORE THE TEXT POINTER
  5752  006744' 001000  000311          17900           RET
  5753
  5754                                  17940   IFE     MULDIM,<
  5755                                  17960   ISARY:  PUSH    B               ;REMEMBER WHAT VARIABLE LOOKS
  5756                                  17980                                   ;LIKE
  5757                                  18000   IFN     STRING,<
  5758                                  18020           PUSH    H               ;SAVE THE TXTPTR
  5759                                  18040           LHLD    DIMFLG          ;[L]=DIMFLG [H]=VALTYP
  5760                                  18060           XTHL>                   ;PUT VALTYP AND DIMFLG ON THE STACK


-- PAGE 122 --------------------------------------------------------------


BASIC MCS 8080  GATES/ALLEN/DAVIDOFF    MACRO 47(113) 03:12 10-SEP-75 PAGE 22-5
F3      MAC      6-SEP-64 03:11         DIMENSION & VARIABLE SEARCHING

  5761                                  18080                                   ;AND RESTORE THE TEXT POINTER
  5762                                  18100   IFE     STRING,<
  5763                                  18120           LDA     DIMFLG          ;SINCE THIS CALL IS RECURSIVE
  5764                                  18140           PUSH    PSW>            ;DIMFLG MUST BE SAVED ON THE STACK
  5765                                  18160           CALL    INTIDX          ;EVALUATE THE INDEX INTO [D,E]
  5766                                  18180           SYNCHK  ")"             ;MAKE SURE HE CLOSED IT
  5767                                  18200   IFN     STRING,<
  5768                                  18220           XTHL                    ;[L]=DIMFLG [H]=VALTYP
  5769                                  18240                                   ;TEXT POINTER ONTO THE STACK
  5770                                  18260           SHLD    DIMFLG          ;SAVE BOTH VALUES BACK
  5771                                  18280           POP     H>              ;RESTORE THE TEXT POINTER
  5772                                  18300   IFE     STRING,<
  5773                                  18320           POP     PSW             ;GET DIMFLG OFF THE STACK
  5774                                  18340           STA     DIMFLG>         ;RESTORE IT
  5775                                  18360           XTHL                    ;[H,L] GET VARIABLE DESCRIPTOR
  5776                                  18380                                   ;TEXT POINTER IS PUT ONTO
  5777                                  18400                                   ;THE STACK
  5778                                  18420           XCHG                    ;[D,E]=DESCRIPTOR
  5779                                  18440                                   ;[H,L]=INDEX
  5780                                  18460           DAD     H               ;MULTIPLY BY 4 TO GET
  5781                                  18480           DAD     H               ;BYTE OFFSET
  5782                                  18500           PUSH    H               ;SAVE THE INDEX
  5783                                  18520           LHLD    ARYTAB          ;PLACE TO START SEARCH
  5784                                  18540           XWD     ^O1000,1        ;"LXI B," OVER THE NEXT 2
  5785                                  18560   LOPFD2: POP     B               ;[B,C]=LENGTH OF LAST VARIABLE
  5786                                  18580           DAD     B               ;SKIP OVER LAST VARIABLE BY ADDING ITS
  5787                                  18600                                   ;LENGTH ONTO [H,L]
  5788                                  18620           XCHG                    ;[D,E] GET CURRENT SEARCH POINT
  5789                                  18640           PUSH    H               ;SAVE THE VARIABLE LOOK
  5790                                  18660           LHLD    STREND          ;GET PLACE TO STOP
  5791                                  18680           COMPAR                  ;SEE IF WE ARE THERE
  5792                                  18700           XCHG                    ;[H,L] GETS SEARCH POINT
  5793                                  18720           POP     D               ;POP OFF VARIABLE LOOKS
  5794                                  18740           JZ      NOTFDD          ;COULDN'T FIND IT
  5795                                  18760           PUSHM                   ;PUT ON LOOKS OF VARIABLE
  5796                                  18780                                   ;WE ARE EXAMINING
  5797                                  18800           XTHL                    ;PUT [H,L] ON THE STACK AND
  5798                                  18820                                   ;LOOKS OF VARIABLE WE ARE
  5799                                  18840                                   ;EXAMINING INTO [H,L]
  5800                                  18860           COMPAR                  ;IS THIS THE VARIABLE
  5801                                  18880           POP     H               ;POP OFF SEARCH POINTER
  5802                                  18900           PUSHM                   ;PUSH LENGTH OF VARIABLE
  5803                                  18920                                   ;BEING EXAMINED ONTO THE STACK
  5804                                  18940           JNZ     LOPFD2          ;IF NO MATCH,GO LOOK SOMEMORE
  5805                                  18960           LDA     DIMFLG          ;IS THIS VARIABLE TRYING TO BE
  5806                                  18980                                   ;DIMENSIONED AND ALREADY
  5807                                  19000           ORA     A               ;EXISTS?
  5808                                  19020           MVI     E,ERRDD         ;THATS ERROR ERRDD
  5809                                  19040           JNZ     ERROR
  5810                                  19060   MAKDFN: POP     D               ;POP OFF LENGTH OF THIS VARIABLE
  5811                                  19080           DCX     D               ;DECREMENT LENGTH SO WE CAN
  5812                                  19100                                   ;JUST LOOK AT 'CARRY' AFTER
  5813                                  19120                                   ;CALLING COMPAR


-- PAGE 123 --------------------------------------------------------------


BASIC MCS 8080  GATES/ALLEN/DAVIDOFF    MACRO 47(113) 03:12 10-SEP-75 PAGE 22-6
F3      MAC      6-SEP-64 03:11         DIMENSION & VARIABLE SEARCHING

  5814                                  19140           XTHL                    ;TRADE POINTER AT VARIABLE WITH
  5815                                  19160                                   ;INDEX INTO THE VARIABLE
  5816                                  19180           COMPAR                  ;SEE IF INDEX IS TOO BIG
  5817                                  19200           MVI     E,ERRBS         ;THATS ERROR ERRBS
  5818                                  19220           JNC     ERROR           ;SINCE LENGTH REALLY HAS AN
  5819                                  19240                                   ;EXTRA ONE ADDED TO IT
  5820                                  19260                                   ;IF INDEX-LENGTH DOESN'T CARRY
  5821                                  19280                                   ;HE IS IN TROUBLE
  5822                                  19300           POP     D               ;POP OFF POINTER AT VARIABLE
  5823                                  19320           DAD     D               ;ADD IT TO THE INDEX
  5824                                  19340           POP     D               ;POP OFF TEXT POINTER
  5825                                  19360           XCHG                    ;TEXT POINTER INTO [H,L]
  5826                                  19380           RET                     ;VARIABLE POINTER INTO [D,E]
  5827                                  19400
  5828                                  19420   NOTFDD: MOV     M,E             ;PUT LOOKS DOWN
  5829                                  19440           INX     H
  5830                                  19460           MOV     M,D
  5831                                  19480           INX     H
  5832                                  19500           LXI     D,$CODE+44      ;DEFAULT SIZE IS 10
  5833                                  19520           LDA     DIMFLG          ;ARE WE DIMENSIONING
  5834                                  19540           ORA     A
  5835                                  19560           JZ      NOTDIM
  5836                                  19580           POP     D               ;POP OFF INDEX
  5837                                  19600           PUSH    D               ;PUT INDEX BACK ON
  5838                                  19620           INX     D
  5839                                  19640           INX     D
  5840                                  19660           INX     D
  5841                                  19680           INX     D
  5842                                  19700   NOTDIM: PUSH    D
  5843                                  19720           MOV     M,E             ;PUT LENGTH DOWN
  5844                                  19740           INX     H
  5845                                  19760           MOV     M,D
  5846                                  19780           INX     H
  5847                                  19800           PUSH    H
  5848                                  19820           DAD     D
  5849                                  19840           CALL    REASON          ;MAKE SURE WE'RE NOT RUNNING
  5850                                  19860                                   ;INTO THE STACK
  5851                                  19880           SHLD    STREND          ;SETUP NEW STORAGE END
  5852                                  19900           POP     D
  5853                                  19920   ZERIT2: DCX     H
  5854                                  19940           MVI     M,0
  5855                                  19960           COMPAR
  5856                                  19980           JNZ     ZERIT2
  5857                                  20000           JMP     MAKDFN>         ;FINISH UP
  5858
  5859                                  20040   PAGE


-- PAGE 124 --------------------------------------------------------------


BASIC MCS 8080  GATES/ALLEN/DAVIDOFF    MACRO 47(113) 03:12 10-SEP-75 PAGE 23
F3      MAC      6-SEP-64 03:11         MULTIPLE DIMENSION CODE

  5860                                  20060   SUBTTL  MULTIPLE DIMENSION CODE
  5861
  5862                                  20100   IFN     MULDIM,<
  5863                                  20120   ;
  5864                                  20140   ; FORMAT OF ARRAYS IN CORE
  5865                                  20160   ;
  5866                                  20180   ; DESCRIPTOR
  5867                                  20200   ;       LOW BYTE = SECOND CHARACTER
  5868                                  20220   ;       HIGH BYTE = FIRST CHARACTER
  5869                                  20240   ; LENGTH OF ARRAY IN CORE IN BYTES (DOES NOT INCLUDE DESCRIPTOR)
  5870                                  20260   ; NUMBER OF DIMENSIONS 1 BYTE
  5871                                  20280   ; FOR EACH DIMENSION STARTING WITH THE FIRST A LIST
  5872                                  20300   ; (2 BYTES EACH) OF THE MAX INDICE+1
  5873                                  20320   ; THE VALUES
  5874                                  20340   ;
  5875  006745' 001000  000345          20360   ISARY:  PUSH    H               ;SAVE DIMFLG AND VALTYP FOR RECURSION
  5876  006746' 001000  000052          20380           LHLD    DIMFLG
  5877  006747' 000000  001542'
  5878  006750' 000000  006730'
  5879  006751' 001000  000343          20400           XTHL                    ;TEXT POINTER BACK INTO [H,L]
  5880  006752' 001000  000026          20420           MVI     D,0             ;SET # DIMENSIONS =0
  5881  006753' 000000  000000
  5882  006754' 001000  000325          20440   INDLOP: PUSH    D               ;SAVE NUMBER OF DIMENSIONS
  5883  006755' 001000  000305          20460           PUSH    B               ;SAVE LOOKS
  5884  006756' 001000  000315          20480           CALL    INTIDX          ;EVALUATE INDICE INTO [D,E]
  5885  006757' 000000  003622'
  5886  006760' 000000  006747'
  5887  006761' 001000  000301          20500           POP     B               ;POP OFF THE LOOKS
  5888  006762' 001000  000361          20520           POP     PSW             ;[A] = NUMBER OF DIMENSIONS SO FAR
  5889  006763' 001000  000353          20540           XCHG                    ;[D,E]=TEXT POINTER
  5890                                  20560                                   ;[H,L]=INDICE
  5891  006764' 001000  000343          20580           XTHL                    ;PUT THE INDICE ON THE STACK
  5892                                  20600                                   ;[H,L]=VALTYP & DIMFLG
  5893  006765' 001000  000345          20620           PUSH    H               ;RESAVE VALTYP AND DIMFLG
  5894  006766' 001000  000353          20640           XCHG                    ;[H,L]=TEXT POINTER
  5895  006767' 001000  000074          20660           INR     A               ;INCREMENT # OF DIMENSIONS
  5896  006770' 001000  000127          20680           MOV     D,A             ;[D]=NUMBER OF DIMENSIONS
  5897  006771' 001000  000176          20700           MOV     A,M             ;GET TERMINATING CHARACTER
  5898  006772' 001000  000376          20720           CPI     44              ;A COMMA SO MORE INDICES FOLLOW?
  5899  006773' 000000  000054
  5900  006774' 001000  000312          20740           JZ      INDLOP          ;IF SO, READ MORE
  5901  006775' 000000  006754'
  5902  006776' 000000  006757'
  5903  006777' 001000  000317          20760           SYNCHK  ")"             ;MAKE SURE IT ENDED PROPERLY
  5904  007000' 000000  000051
  5905  007001' 001000  000042          20780           SHLD    TEMP2           ;SAVE THE TEXT POINTER
  5906  007002' 000000  001605'
  5907  007003' 000000  006775'
  5908  007004' 001000  000341          20800           POP     H               ;[H,L]= VALTYP & DIMFLG
  5909  007005' 001000  000042          20820           SHLD    DIMFLG          ;SAVE VALTYP AND DIMFLG
  5910  007006' 000000  001542'
  5911  007007' 000000  007002'
  5912  007010' 001000  000325          20840           PUSH    D               ;SAVE NUMBER OF DIMENSIONS


-- PAGE 125 --------------------------------------------------------------


BASIC MCS 8080  GATES/ALLEN/DAVIDOFF    MACRO 47(113) 03:12 10-SEP-75 PAGE 23-1
F3      MAC      6-SEP-64 03:11         MULTIPLE DIMENSION CODE

  5913                                  20860   ;
  5914                                  20880   ; AT THIS POINT [B,C]=LOOKS. THE TEXT POINTER IS IN TEMP2.
  5915                                  20900   ; THE INDICES ARE ALL ON THE STACK, FOLLOWED BY THE NUMBER OF DIMENSIONS.
  5916                                  20920   ;
  5917  007011' 001000  000052          20940           LHLD    ARYTAB          ;[H,L]=PLACE TO START THE SEARCH
  5918  007012' 000000  001623'
  5919  007013' 000000  007006'
  5920  007014' 001000  000076          20960           XWD     ^O1000,^O76     ;"MVI A," AROUND THE NEXT BYTE
  5921  007015' 001000  000031          20980   LOPFDA: DAD     D               ;SKIP OVER THIS ARRAY SINCE IT'S
  5922                                  21000                                   ;NOT THE ONE
  5923  007016' 001000  000353          21020           XCHG                    ;[D,E]=CURRENT SEARCH POINT
  5924  007017' 001000  000052          21040           LHLD    STREND          ;GET THE PLACE TO STOP INTO [H,L]
  5925  007020' 000000  001625'
  5926  007021' 000000  007012'
  5927  007022' 001000  000353          21050           XCHG                    ;[H,L]=SEARCH POINT
  5928  007023' 001000  000347          21060           COMPAR                  ;STOPPING TIME?
  5929                                  21080   IFE     LENGTH-2,<
  5930  007024' 001000  000072          21100           LDA     VALTYP>
  5931  007025' 000000  001543'
  5932  007026' 000000  007020'
  5933  007027' 001000  000312          21120           JZ      NOTFDD          ;YES,COULDN'T FIND THIS ARRAY
  5934  007030' 000000  007104'
  5935  007031' 000000  007025'
  5936                                  21140   IFE     LENGTH-2,<
  5937  007032' 001000  000276          21160           CMP     M               ;SEE IF THE VALTYPS ARE THE SAME
  5938  007033' 001000  000043          21180           INX     H
  5939  007034' 001000  000302          21200           JNZ     NMARY2>
  5940  007035' 000000  007050'
  5941  007036' 000000  007030'
  5942  007037' 001000  000176          21240           MOV     A,M             ;GET FIRST CHARACTER
  5943  007040' 001000  000271          21260           CMP     C               ;SEE IF IT MATCHES
  5944  007041' 001000  000043          21280           INX     H
  5945  007042' 001000  000302          21300           JNZ     NMARY1          ;NOT THIS ONE
  5946  007043' 000000  007051'
  5947  007044' 000000  007035'
  5948  007045' 001000  000176          21320           MOV     A,M             ;GET SECOND CHARACTER
  5949  007046' 001000  000270          21340           CMP     B               ;ANOTHER MATCH?
  5950                                  21360   IFE     LENGTH-2,<
  5951  007047' 001000  000076          21380           XWD     ^O1000,^O76     ;SKIP THIS INCREMENT WITH "MVI A,"
  5952  007050' 001000  000043          21400   NMARY2: INX     H>
  5953  007051' 001000  000043          21420   NMARY1: INX     H               ;POINT TO SIZE ENTRY
  5954  007052' 001000  000136          21440           MOV     E,M             ;[D,E]=LENGTH
  5955  007053' 001000  000043          21460           INX     H               ;OF THE ARRAY BEING LOOKED AT
  5956  007054' 001000  000126          21480           MOV     D,M
  5957  007055' 001000  000043          21500           INX     H
  5958  007056' 001000  000302          21520           JNZ     LOPFDA          ;IF NO MATCH, SKIP THIS ONE
  5959  007057' 000000  007015'
  5960  007060' 000000  007043'
  5961                                  21540                                   ;AND TRY AGAIN
  5962  007061' 001000  000072          21560           LDA     DIMFLG          ;SEE IF CALLED BY "DIM"
  5963  007062' 000000  001542'
  5964  007063' 000000  007057'
  5965  007064' 001000  000267          21580           ORA     A               ;ZERO MEANS NO


-- PAGE 126 --------------------------------------------------------------


BASIC MCS 8080  GATES/ALLEN/DAVIDOFF    MACRO 47(113) 03:12 10-SEP-75 PAGE 23-2
F3      MAC      6-SEP-64 03:11         MULTIPLE DIMENSION CODE

  5966  007065' 001000  000036          21600           MVI     E,ERRDD         ;"DOUBLY DIMENSIONED" ERROR
  5967  007066' 000000  000012
  5968  007067' 001000  000302          21620           JNZ     ERROR
  5969  007070' 000000  002102'
  5970  007071' 000000  007062'
  5971                                  21640   ;
  5972                                  21660   ; TEMP2=THE TEXT POINTER
  5973                                  21680   ; WE HAVE LOCATED THE VARIABLE WE WERE LOOKING FOR
  5974                                  21700   ; AT THIS POINT [H,L] POINTS BEYOND THE SIZE TO THE NUMBER OF DIMENSIONS
  5975                                  21720   ; THE INDICES ARE ON THE STACK FOLLOWED BY THE NUMBER OF DIMENSIONS
  5976                                  21740   ;
  5977  007072' 001000  000361          21760           POP     PSW             ;[A]=NUMBER OF DIMENSIONS
  5978  007073' 001000  000276          21780           CMP     M               ;MAKE SURE THE NUMBER GIVEN NOW AND
  5979                                  21800                                   ;AND WHEN THE ARRAY WAS SET UP ARE THE
  5980                                  21820                                   ;SAME
  5981  007074' 001000  000312          21840           JZ      GETDEF          ;JUMP OFF AND READ
  5982  007075' 000000  007245'
  5983  007076' 000000  007070'
  5984                                  21860                                   ;THE INDICES...
  5985  007077' 001000  000036          21880   BSERR:  MVI     E,ERRBS         ;"SUBSCRIPT OUT OF RANGE"
  5986  007100' 000000  000011
  5987  007101' 001000  000303          21900           JMP     ERROR
  5988  007102' 000000  002102'
  5989  007103' 000000  007075'
  5990                                  21920   ;
  5991                                  21940   ; HERE WHEN VARIABLE IS NOT FOUND IN THE ARRAY TABLE
  5992                                  21960   ;
  5993                                  21980   ; BUILDING AN ENTRY:
  5994                                  22000   ;
  5995                                  22020   ;       PUT DOWN THE DESCRIPTOR
  5996                                  22040   ;       SETUP NUMER OF DIMENSIONS
  5997                                  22060   ;       MAKE SURE THERE IS ROOM FOR THE NEW ENTRY
  5998                                  22080   ;       REMEMBER VARPTR
  5999                                  22100   ;       TALLY=4 (VALTYP FOR THE EXTENDED)
  6000                                  22120   ;       SKIP 2 LOCS FOR LATER FILL IN -- THE SIZE
  6001                                  22140   ; LOOP: GET AN INDICE
  6002                                  22160   ;       PUT NUMBER +1 DOWN AT VARPTR AND INCREMENT VARPTR
  6003                                  22180   ;       TALLY= TALLY * NUMBER+1
  6004                                  22200   ;       DECREMENT NUMBER-DIMS
  6005                                  22220   ;       JNZ     LOOP
  6006                                  22240   ;       CALL REASON WITH [H,L] REFLECTING LAST LOC OF VARIABLE
  6007                                  22260   ;       UPDATE STREND
  6008                                  22280   ;       ZERO BACKWARDS
  6009                                  22300   ;       MAKE TALLY INCLUDE MAXDIMS
  6010                                  22320   ;       PUT DOWN TALLY
  6011                                  22340   ;       IF CALLED BY DIMENSION, RETURN
  6012                                  22360   ;       OTHERWISE INDEX INTO THE VARIABLE AS IF IT
  6013                                  22380   ;       WERE FOUND ON THE INITIAL SEARCH
  6014                                  22400   ;
  6015  007104'                         22420   NOTFDD:
  6016                                  22440   IFE     LENGTH-2,<
  6017  007104' 010000  000167          22460           MOV     M,A             ;PUT DOWN THE VARIABLE TYPE
  6018  007105' 010000  000043          22480           INX     H


-- PAGE 127 --------------------------------------------------------------


BASIC MCS 8080  GATES/ALLEN/DAVIDOFF    MACRO 47(113) 03:12 10-SEP-75 PAGE 23-3
F3      MAC      6-SEP-64 03:11         MULTIPLE DIMENSION CODE

  6019  007106' 001000  000137          22500           MOV     E,A
  6020  007107' 001000  000026          22520           MVI     D,0>            ;[D,E]-SIZE OF ONE VALUE (VALTYP)
  6021  007110' 000000  000000
  6022                                  22540   IFN     LENGTH-2,<
  6023                                  22560           LXI     D,$CODE+4>      ;INITIALIZE TALLY TO FOUR
  6024  007111' 001000  000161          22580           MOV     M,C             ;PUT DOWN THE DESCRIPTOR
  6025  007112' 001000  000043          22600           INX     H
  6026  007113' 001000  000160          22620           MOV     M,B
  6027  007114' 001000  000043          22640           INX     H
  6028  007115' 001000  000361          22660           POP     PSW             ;[A]=NUMBER OF DIMENSIONS
  6029  007116' 001000  000062          22680           STA     TEMP6           ;SETUP GETSTR CALL
  6030  007117' 000000  007124'
  6031  007120' 000000  007102'
  6032  007121' 001000  000315          22700           CALL    GETSTK          ;GET SPACE FOR DIMENSION ENTRIES
  6033  007122' 000000  002024'
  6034  007123' 000000  007117'
  6035  007124' 001000  000351          22720   TEMP6:  PCHL                    ;PLACE TO STORE NUMBER OF DIMENSIONS
  6036                                  22740                                   ;FOR GETSTK AND LATER RECALL
  6037                                  22760                                   ;!!IMPURE!! PCHL TO CONFUSE DISASSEMBLY
  6038  007125' 001000  000042          22780           SHLD    TEMP3           ;SAVE THE LOCATION TO PUT THE SIZE
  6039  007126' 000000  001575'
  6040  007127' 000000  007122'
  6041                                  22800                                   ;IN
  6042  007130' 001000  000043          22820           INX     H               ;SKIP OVER THE SIZE LOCATIONS
  6043  007131' 001000  000043          22840           INX     H
  6044  007132' 001000  000101          23860           MOV     B,C             ;[B]=NUMBER OF DIMENSIONS
  6045                                  23880                                   ;THIS DEPENDS ON THE FACT THAT GETSTR
  6046                                  23900                                   ;RETURNS ITS ARGUMENT IN [C]
  6047  007133' 001000  000160          23920           MOV     M,B             ;STORE THE NUMBER OF DIMENSIONS
  6048  007134' 001000  000043          23940           INX     H
  6049  007135' 001000  000072          23960   LOPPTA: LDA     DIMFLG          ;CALLED BY DIMENSION?
  6050  007136' 000000  001542'
  6051  007137' 000000  007126'
  6052  007140' 001000  000267          23980           ORA     A
  6053  007141' 001000  000170          23000           MOV     A,B             ;[A]=NUMBER OF DIMENSIONS
  6054  007142' 001000  000001          23020           LXI     B,$CODE+11      ;[ASSUME ITS NOT "DIM"
  6055  007143' 000000  000013'
  6056  007144' 000000  007136'
  6057  007145' 001000  000312          23040           JZ      NOTDIM          ;DEFAULT DIMENSIONS TO TEN
  6058  007146' 000000  007152'
  6059  007147' 000000  007143'
  6060  007150' 001000  000301          23060           POP     B               ;POP OFF AN INDICE INTO [B,C]
  6061  007151' 001000  000003          23080           INX     B               ;ADD ONE TO IT FOR THE ZERO ENTRY
  6062  007152' 001000  000161          23100   NOTDIM: MOV     M,C             ;PUT THE MAXIMUM DOWN
  6063  007153' 001000  000043          23120           INX     H
  6064  007154' 001000  000160          23140           MOV     M,B
  6065  007155' 001000  000043          23160           INX     H
  6066  007156' 001000  000365          23180           PUSH    PSW             ;SAVE THE NUMBER OF DIMENSIONS
  6067  007157' 001000  000345          23200           PUSH    H               ;SAVE THE POINTERS INTO THE NEW ENTRY
  6068  007160' 001000  000315          23220           CALL    UMULT           ;MULTIPLY [B,C]=NEWMAX BY CURTOL=[D,E]
  6069  007161' 000000  000000*
  6070  007162' 000000  007146'
  6071  007163' 001000  000353          23240           XCHG                    ;[D,E]=NEW CURTOL


-- PAGE 128 --------------------------------------------------------------


BASIC MCS 8080  GATES/ALLEN/DAVIDOFF    MACRO 47(113) 03:12 10-SEP-75 PAGE 23-4
F3      MAC      6-SEP-64 03:11         MULTIPLE DIMENSION CODE

  6072  007164' 001000  000341          23260           POP     H               ;GET THE POINTER INTO ENTRY BACK
  6073  007165' 001000  000301          23280           POP     B               ;GET THE NUMBER OF DIMENSIONS BACK
  6074  007166' 001000  000005          23300           DCR     B               ;DECREMENT THE NUMBER OF DIMENSIONS LEFT
  6075  007167' 001000  000302          23320           JNZ     LOPPTA          ;HANDLE THE OTHER INDICES
  6076  007170' 000000  007135'
  6077  007171' 000000  007161'
  6078  007172' 001000  000102          23340           MOV     B,D             ;[B,C]=SIZE
  6079  007173' 001000  000113          23360           MOV     C,E
  6080  007174' 001000  000353          23380           XCHG                    ;[D,E]=START OF VALUES
  6081  007175' 001000  000031          23400           DAD     D               ;[H,L]=END OF VALUES
  6082  007176' 001000  000332          23420           JC      BSERR           ;OUT OF MEMORY POINTER BEING GENERATED?
  6083  007177' 000000  007077'
  6084  007200' 000000  007170'
  6085  007201' 001000  000315          23440           CALL    REASON          ;SEE IF THERE IS ROOM FOR THE VALUES
  6086  007202' 000000  002045'
  6087  007203' 000000  007177'
  6088  007204' 001000  000042          23460           SHLD    STREND          ;UPDATE THE END OF STORAGE
  6089  007205' 000000  001625'
  6090  007206' 000000  007202'
  6091  007207' 001000  000053          23480   ZERITA: DCX     H               ;ZERO THE NEW ARRAY
  6092  007210' 001000  000066          23500           MVI     M,0
  6093  007211' 000000  000000
  6094  007212' 001000  000347          23520           COMPAR                  ;BACK AT THE BEGINNING?
  6095  007213' 001000  000302          23540           JNZ     ZERITA          ;NO,ZERO MORE
  6096  007214' 000000  007207'
  6097  007215' 000000  007205'
  6098  007216' 001000  000003          23560           INX     B               ;ADD ONE TO THE SIZE TO INCLUDE
  6099                                  23580                                   ;THE BYTE FOR THE NUMBER OF DIMENSIONS
  6100  007217' 001000  000147          23600           MOV     H,A             ;[H]=ZERO
  6101  007220' 001000  000072          23620           LDA     DIMFLG
  6102  007221' 000000  001542'
  6103  007222' 000000  007214'
  6104  007223' 001000  000267          23640           ORA     A               ;ARE WE DIMENSIONING ?
  6105  007224' 001000  000072          23660           LDA     TEMP6           ;GET THE NUMBER OF DIMENSIONS
  6106  007225' 000000  007124'
  6107  007226' 000000  007221'
  6108  007227' 001000  000157          23680           MOV     L,A             ;[L]=NUMBER OF DIMENSIONS
  6109  007230' 001000  000051          23700           DAD     H               ;[H,L]=NUMBER OF DIMENSIONS TIMES TWO
  6110  007231' 001000  000011          23720           DAD     B               ;ADD ON THE SIZE
  6111                                  23740                                   ;TO GET THE TOTAL NUMBER OF BYTES USED
  6112  007232' 001000  000353          23760           XCHG                    ;[D,E]=TOTAL SIZE
  6113  007233' 001000  000052          23780           LHLD    TEMP3           ;PLACE TO STORE SIZE
  6114  007234' 000000  001575'
  6115  007235' 000000  007225'
  6116  007236' 001000  000163          23800           MOV     M,E             ;PUT DOWN THE SIZE
  6117  007237' 001000  000043          23820           INX     H
  6118  007240' 001000  000162          23840           MOV     M,D
  6119  007241' 001000  000043          23860           INX     H
  6120  007242' 001000  000302          23880           JNZ     FINNOW
  6121  007243' 000000  007331'
  6122  007244' 000000  007234'
  6123                                  23900   ;
  6124                                  23920   ; AT THIS POINT [H,L] POINTS BEYOND THE SIZE TO THE NUMBER OF DIMENSIONS


-- PAGE 129 --------------------------------------------------------------


BASIC MCS 8080  GATES/ALLEN/DAVIDOFF    MACRO 47(113) 03:12 10-SEP-75 PAGE 23-5
F3      MAC      6-SEP-64 03:11         MULTIPLE DIMENSION CODE

  6125                                  23940   ; STRATEGY:
  6126                                  23960   ;       NUMDIM=NUMBER OF DIMENSIONS
  6127                                  23980   ;       CURTOL=0
  6128                                  24000   ; INLPNM:GET A NEW INDICE
  6129                                  24020   ;       POP NEW MAX INTO CURMAX
  6130                                  24040   ;       MAKE SURE INDICE IS NOT TOO BIG
  6131                                  24060   ;       MULTIPLY CURTOL BY CURMAX
  6132                                  24080   ;       ADD INDICE TO CURTOL
  6133                                  24100   ;       NUMDIM=NUMDIM-1
  6134                                  24120   ;       JNZ     INLPNM
  6135                                  24140   ;       USE CURTOL*4 (VALTYP FOR EXTENDED) AS OFFSET
  6136                                  24160   ;
  6137  007245' 001000  000043          24180   GETDEF: INX     H               ;POINT PAST THE NUMBER OF DIMENSIONS
  6138  007246' 001000  000001          24200           LXI     B,$CODE         ;CURTOL=ZERO
  6139  007247' 000000  000000'
  6140  007250' 000000  007243'
  6141  007251' 001000  000026          24220           XWD     ^O1000,^O26     ;"MVI D," AROUND THE NEXT BYTE
  6142  007252' 001000  000341          24240   INLPNM: POP     H               ;[H,L]= POINTER INTO VARIABLE ENTRY
  6143  007253' 001000  000136          24260           MOV     E,M             ;[D,E]=MAXIMUM FOR THE CURRENT INDICE
  6144  007254' 001000  000043          24280           INX     H
  6145  007255' 001000  000126          24300           MOV     D,M
  6146  007256' 001000  000043          24320           INX     H
  6147  007257' 001000  000343          24340           XTHL                    ;[H,L]=CURRENT INDICE
  6148                                  24360                                   ;POINTER INTO THE VARIABLE GOES ON THE STACK
  6149  007260' 001000  000365          24380           PUSH    PSW             ;SAVE THE NUMBER OF DIMENSIONS
  6150  007261' 001000  000347          24400           COMPAR                  ;SEE IF THE CURRENT INDICE IS TOO BIG
  6151  007262' 001000  000322          24420           JNC     BSERR           ;IF SO "BAD SUBSCRIPT" ERROR
  6152  007263' 000000  007077'
  6153  007264' 000000  007247'
  6154  007265' 001000  000345          24440           PUSH    H               ;SAVE THE CURRENT INDICE
  6155  007266' 001000  000315          24460           CALL    UMULT           ;CURTOL=CURTOL*CURRENT MAXIMUM
  6156  007267' 000000  007161*
  6157  007270' 000000  007263'
  6158  007271' 001000  000321          24480           POP     D               ;INDICE INTO [D,C]
  6159  007272' 001000  000031          24500           DAD     D               ;ADD THE INDICETO CURTOL
  6160  007273' 001000  000361          24520           POP     PSW             ;GET THE NUMBER OF DIMENSIONS IN [A]
  6161  007274' 001000  000075          24540           DCR     A               ;SEE IF ALL THE INDICES HAVE BEEN PROCESSED
  6162  007275' 001000  000104          24560           MOV     B,H             ;[B,C]=CURTOL IN CASE WE LOOP BACK
  6163  007276' 001000  000115          24580           MOV     C,L
  6164  007277' 001000  000302          24600           JNZ     INLPNM          ;PROCESS THE REST OF THE INDICES
  6165  007300' 000000  007252'
  6166  007301' 000000  007267'
  6167                                  24620   IFE     LENGTH-2,<
  6168  007302' 001000  000072          24640           LDA     VALTYP          ;SEE HOW BIG THE VALUES ARE
  6169  007303' 000000  001543'
  6170  007304' 000000  007300'
  6171                                  24660                                   ;AND MULTIPLY BY THAT SIZE
  6172  007305' 001000  000104          24680           MOV     B,H             ;SAVE THE ORIGINAL VALUE FOR MULTIPLYING
  6173  007306' 001000  000115          24700           MOV     C,L             ;BY THREE
  6174  007307' 001000  000051          24720           DAD     H               ;MULTIPLY BY TWO AT LEAST
  6175  007310' 001000  000326          24740           SUI     4               ;FOR INTEGERS AND STRINGS
  6176  007311' 000000  000004
  6177                                  24760                                   ;NO MORE MULTIPLYING BY TWO


-- PAGE 130 --------------------------------------------------------------


BASIC MCS 8080  GATES/ALLEN/DAVIDOFF    MACRO 47(113) 03:12 10-SEP-75 PAGE 23-6
F3      MAC      6-SEP-64 03:11         MULTIPLE DIMENSION CODE

  6178  007312' 001000  000332          24760           JC      SMLVAL
  6179  007313' 000000  007322'
  6180  007314' 000000  007303'
  6181  007315' 001000  000051          24800           DAD     H               ;NOW MULTIPLIED BY FOUR
  6182  007316' 001000  000312          24820           JZ      DONMUL          ;IF SINGLE ALL DONE
  6183  007317' 000000  007326'
  6184  007320' 000000  007313'
  6185  007321' 001000  000051          24840           DAD     H               ;BY EIGHT FOR DOUBLES
  6186  007322' 001000  000342          24860   SMLVAL: JPO     DONMUL          ;FOR STRINGS
  6187  007323' 000000  007236'
  6188  007324' 000000  007317'
  6189  007325' 001000  000011          24880           DAD     B               ;ADD IN THE ORIGINAL
  6190                                  24900   DONMUL:>
  6191                                  24920   IFN     LENGTH-2,<
  6192                                  24940           DAD     H               ;MULTIPLY CURTOL BY FOUR
  6193                                  24960           DAD     H>
  6194  007326' 001000  000301          24980           POP     B               ;POP OFF THE ADDRESS WHERE THE VALUES
  6195                                  25000                                   ;BEGIN
  6196  007327' 001000  000011          25020           DAD     B               ;ADD IT ONTO CURTOL TO GET THE
  6197                                  25040                                   ;PLACE THE VALUE IS STORED
  6198  007330' 001000  000353          25060           XCHG                    ;RETURN THE POINTER IN [D,E]
  6199  007331' 001000  000052          25080   FINNOW: LHLD    TEMP2           ;REGET THE TEXT POINTER
  6200  007332' 000000  001605'
  6201  007333' 000000  007323'
  6202  007334' 001000  000053          25100           DCX     H               ;REREAD THE TERMINATING CHARACTER
  6203  007335' 001000  000327          25120           CHRGET
  6204  007336' 001000  000311          25140           RET>
  6205
  6206                                  25180   PAGE


-- PAGE 131 --------------------------------------------------------------


BASIC MCS 8080  GATES/ALLEN/DAVIDOFF    MACRO 47(113) 03:12 10-SEP-75 PAGE 24
F3      MAC      6-SEP-64 03:11         FRE  FUNCTION AND INTEGER TO FLOATING  ROUTINES

  6207                                  25200   SUBTTL FRE  FUNCTION AND INTEGER TO FLOATING  ROUTINES
  6208                                  25220   IFN     LENGTH,<
  6209  007337' 001000  000052          25240   FRE:    LHLD    STREND          ;GET END OF VARIABLE AND TEXT SPACE
  6210  007340' 000000  001625'
  6211  007341' 000000  007332'
  6212  007342' 001000  000353          25260           XCHG                    ;PUT IT IN [D,E] FOR SUBTRACTION
  6213  007343' 001000  000041          25280           LXI     H,$CODE         ;ZERO [H,L]
  6214  007344' 000000  000000'
  6215  007345' 000000  007340'
  6216  007346' 001000  007350          25300           DAD     SP              ;PUT THE STACK POINTER IN [H,L]
  6217                                  25320   IFN     STRING,<
  6218                                  25340   IFE     LENGTH-2,<
  6219  007347' 001000  000315          25360           CALL    GETYPE
  6220  007350' 000000  000307'
  6221  007351' 000000  007344'
  6222  007352' 001000  000302          25370           JNZ     GIVDBL
  6223  007353' 000000  007372'
  6224  007354' 000000  007350'
  6225                                  25380   IFN     LENGTH-2,<
  6226                                  25400           LDA     VALTYP          ;WAS THE ARGUMENT A STRING?
  6227                                  25420           ORA     A
  6228                                  25440           JZ      GIVDBL>         ;NO, GIVE FREE VARIABLE SPACE
  6229  007355' 001000  000315          25460           CALL    FREFAC          ;FREE UP ARGUMENT AND SETUP
  6230  007356' 000000  010434'
  6231  007357' 000000  007353'
  6232                                  25480                                   ;TO GIVE FREE STRING SPACE
  6233  007360' 001000  000315          25500           CALL    GARBA2          ;DO GARBAGE COLLECTION
  6234  007361' 000000  010042'
  6235  007362' 000000  007356'
  6236  007363' 001000  000052          25520           LHLD    STKTOP          ;BOTTOM OF FREE AREA
  6237  007364' 000000  001615'
  6238  007365' 000000  007361'
  6239  007366' 001000  000353          25540           XCHG
  6240  007367' 001000  000052          25560           LHLD    FRETOP>>        ;TOP OF FREE AREA
  6241  007370' 000000  001573'
  6242  007371' 000000  007364'
  6243                                  25580   ;
  6244                                  25600   ; THIS ROUTINE SUBTRACTS [D,E] FROM [H,L]
  6245                                  25620   ; AND FLOATS THE RESULT LEAVING IT IN FAC.
  6246                                  25640   ;
  6247                                  25660   IFE     LENGTH-1,<
  6248                                  25680   GIVDBL: MOV     A,L             ;DO THE SUBTRACTION
  6249                                  25700           SUB     E
  6250                                  25720           MOV     C,A
  6251                                  25740           MOV     A,H
  6252                                  25760           SBB     D
  6253                                  25780   GIVACF: MOV     B,C>
  6254                                  25790   IFN     LENGTH-2,<
  6255                                  25800   GIVABF: MOV     D,B
  6256                                  25820           MVI     E,0             ;GET ZERO IN LOW
  6257                                  25840   IFN     STRING,<
  6258                                  25860           LXI     H,VALTYP        ;FLAG VALUE TYPE AS NUMERIC
  6259                                  25880           MOV     H,E>


-- PAGE 132 --------------------------------------------------------------


BASIC MCS 8080  GATES/ALLEN/DAVIDOFF    MACRO 47(113) 03:12 10-SEP-75 PAGE 24-1
F3      MAC      6-SEP-64 03:11         FRE  FUNCTION AND INTEGER TO FLOATING  ROUTINES

  6260                                  25900           MVI     B,144           ;SETUP TO FLOAT [B,C]
  6261                                  25920           JMP     FLOATR>
  6262                                  26120   IFE     LENGTH-2,<
  6263  007372' 001000  000175          26140   GIVDBL: MOV     A,L             ;[H,L]=[H,L]-[D,E]
  6264  007373' 001000  000223          26160           SUB     E
  6265  007374' 001000  000157          26180           MOV     L,A
  6266  007375' 001000  000174          26200           MOV     A,H
  6267  007376' 001000  000232          26220           SBB     D
  6268  007377' 001000  000021          26240           XWD     ^O1000,^O21     ;SKIP THE NEXT TWO BYTES WITH "LXI D,"
  6269  007400' 001000  000157          26260   SNGFLT: MOV     L,A             ;MAKE [A] AN UNSIGNED INTEGER
  6270  007401' 001000  000257          26280           XRA     A
  6271  007402' 001000  000147          26300   GIVINT: MOV     H,A
  6272  007403' 001000  000303          26320           JMP     MAKINT>
  6273  007404' 000000  006471*
  6274  007405' 000000  007370'
  6275                                  26322   IFN     LENGTH,<
  6276                                  26324   IFN     LPTSW,<
  6277                                  26326   LPOS:   LDA     LPTPOS
  6278                                  26328           JMP     SNGFLT>
  6279  007406' 001000  000072          26330   POS:    LDA     TTYPOS          ;GET TELETYPE POSITION
  6280  007407' 000000  000047'
  6281  007410' 000000  007404'
  6282                                  26332   IFN     LENGTH-2,<
  6283                                  26334   SNGFLT: MOV     B,A             ;RETURN FLOATING 1 BYTE
  6284                                  26336           XRA     A               ;UNSIGNED FROM A
  6285                                  26338           JMP     GIVABF>>        ;GIVING 0-255
  6286
  6287                                  26360   PAGE


-- PAGE 133 --------------------------------------------------------------


BASIC MCS 8080  GATES/ALLEN/DAVIDOFF    MACRO 47(113) 03:12 10-SEP-75 PAGE 25
F3      MAC      6-SEP-64 03:11         SIMPLE-USER-DEFINED-FUNCTION CODE

  6288                                  26380   SUBTTL  SIMPLE-USER-DEFINED-FUNCTION CODE
  6289                                  26390   IFN     FUNCTS,<
  6290                                  26400   ;
  6291                                  26420   ; NOTE ONLY SINGLE ARGUMENTS ARE ALLOWED TO FUNCTIONS
  6292                                  26440   ; AND FUNCTIONS MUST BE OF THE SINGLE LINE FORM:
  6293                                  26460   ; DEF FNA(X)=X^2+X-2
  6294                                  26480   ; NO STRINGS CAN BE INVOLVED WITH THESE FUNCTIONS
  6295
  6296                                  26520   ; IDEA: CREATE A FUNNY SIMPLE VARIABLE ENTRY
  6297                                  26540   ; WHOSE FIRST CHARACTER (SECOND WORD IN MEMORY)
  6298                                  26560   ; HAS THE 200 BIT SET.
  6299                                  26580   ; THE VALUE WILL BE:
  6300                                  26600   ;
  6301                                  26620   ;       A TXTPTR TO THE FORMULA
  6302                                  26640   ;       A PTR TO THE ARGUMENT VARIABLE
  6303                                  26660   ;
  6304                                  26680   ; FUNCTION NAMES CAN BE LIKE "FNA4"
  6305                                  26700   ;
  6306
  6307  007411' 001000  000315          26780   DEF:    CALL    GETFNM          ;GET A POINTER TO THE
  6308  007412' 000000  007550'
  6309  007413' 000000  007407'
  6310                                  26800                                   ;FUNCTION VARIABLE
  6311  007414' 001000  000001          26820           LXI     B,DATA          ;EVENTUALLY RETURN TO "DATA"
  6312  007415' 000000  004072'
  6313  007416' 000000  007412'
  6314  007417' 001000  000305          26840           PUSH    B               ;AND SKIP THE FORMULA
  6315  007420' 001000  000325          26860           PUSH    D               ;SAVE A POINTER TO IT
  6316  007421' 001000  000315          26880           CALL    ERRDIR          ;DEF IS "ILLEGAL DIRECT"
  6317  007422' 000000  007532'
  6318  007423' 000000  007415'
  6319  007424' 001000  000317          26900           SYNCHK  "("             ;MUST HAVE "("
  6320  007425' 000000  000050
  6321                                  26920                                   ;SINCE WE STORE A TEXT POINTER
  6322  007426' 001000  000315          26940           CALL    PTRGET          ;GET POINTER TO ARGUMENT
  6323  007427' 000000  006505'
  6324  007430' 000000  007422'
  6325                                  26960   IFN     LENGTH-2,<
  6326                                  26980   IFN     STRING,<CALL    CHKNUM>>;STRINGS ILLEGAL
  6327  007431' 001000  000317          27000           SYNCHK  ")"             ;MUST CLOSE IT WITH ")"
  6328  007432' 000000  000051
  6329  007433' 001000  000317          27020           SYNCHK  EQULTK          ;MUST HAVE EQUAL
  6330  007434' 000000  000260
  6331  007435' 001000  000104          27040           MOV     B,H
  6332  007436' 001000  000115          27060           MOV     C,L
  6333  007437' 001000  000343          27080           XTHL                    ;PUT THE TXTPTR ON THE STACK
  6334                                  27100                                   ;[H,L]=PTR TO FUNCTION VARIABLE
  6335                                  27120                                   ;[B,C]=TXTPTR
  6336  007440' 001000  000303          27140           JMP     DEFFIN          ;PUT DOWN THE TEXT-POINTER
  6337  007441' 000000  007521'
  6338  007442' 000000  007427'
  6339                                  27160                                   ;AND ARUGMENT POINTER IN
  6340                                  27180                                   ;MEMORY, RESTORE THE TXTPTR


-- PAGE 134 --------------------------------------------------------------


BASIC MCS 8080  GATES/ALLEN/DAVIDOFF    MACRO 47(113) 03:12 10-SEP-75 PAGE 25-1
F3      MAC      6-SEP-64 03:11         SIMPLE-USER-DEFINED-FUNCTION CODE

  6341                                  27200                                   ;AND GO TO "DATA" SKIPPING THE
  6342                                  27220                                   ;REST OF THE FORMULA
  6343
  6344  007443' 001000  000315          27260   FNDOER: CALL    GETFNM          ;GET A POINTER TO
  6345  007444' 000000  007550'
  6346  007445' 000000  007441'
  6347                                  27280                                   ;THE FUNCTON DEFINITION IN [D,E]
  6348  007446' 001000  000325          27300           PUSH    D               ;SAVE THE POINTER
  6349  007447' 001000  000315          27320           CALL    PARCHK          ;EVALUATE THE VALUE TO BE PASSED
  6350  007450' 000000  006136'
  6351  007451' 000000  007444'
  6352                                  27340   IFN     LENGTH-2,<
  6353                                  27360   IFN     STRING,<CALL    CHKNUM>> ;ARG CANNOT BE STRING
  6354  007452' 001000  000343          27380           XTHL                    ;[H,L]=POINTER TO FUNCTION DEF
  6355                                  27400                                   ;TEXT POINTER GOES ON THE STACK
  6356  007453' 001000  000367          27420           PUSHM                   ;PUSH THE POINTER AT THE FORMULA
  6357                                  27440                                   ;ONTO THE STACK
  6358  007454' 001000  000321          27460           POP     D               ;[D,E]=PTR TO FORMULA
  6359  007455' 001000  000367          27480           PUSHM                   ;PUT A POINTER TO THE
  6360                                  27500                                   ;ARGUMENT ON THE STACK
  6361  007456' 001000  000341          27520           POP     H               ;[H,L]=POINTER TO ARG
  6362  007457' 001000  000367          27540           PUSHFM                  ;SAVE ARGS OLD VALUE ON THE STACK
  6363  007460' 001000  000367
  6364  007461' 001000  000053          27560           DCX     H
  6365  007462' 001000  000053          27580           DCX     H
  6366  007463' 001000  000053          27600           DCX     H               ;POINT TO FRONT OF ARG AGAIN
  6367  007464' 001000  000053          27620           DCX     H
  6368  007465' 001000  000345          27640           PUSH    H               ;SAVE IT
  6369  007466' 001000  000347          27660           COMPAR                  ;SHOULDN'T BE EQUAL UNLESS
  6370                                  27680                                   ;FUNCTION WAS NEVER DEFINED
  6371  007467' 001000  000325          27700           PUSH    D               ;SAVE FORMULA TEXT POINTER
  6372  007470' 001000  000036          27720           MVI     E,ERRUF         ;NOW [D,E] FREE SO CHECK IF (ZERO) SET
  6373  007471' 000000  000022
  6374  007472' 001000  000312          27740           JZ      ERROR
  6375  007473' 000000  002102'
  6376  007474' 000000  007450'
  6377  007475' 001000  000315          27760           CALL    MOVMF           ;PUT CURRENT FAC INTO OUT ARG VARIABLE
  6378  007476' 000000  005264*
  6379  007477' 000000  007473'
  6380                                  27780                                   ;OUT OF FAC INTO [H,L] LOCATION
  6381  007500' 001000  000341          27800           POP     H               ;POP OFF FORMULA TXTPTR
  6382                                  27810   IFN     LENGTH-2,<
  6383                                  27820           CALL    FRMNUM>         ;EVALUATE IT AND MUST SURE ITS NUMERIC
  6384                                  27822   IFE     LENGTH-2,<
  6385  007501' 001000  000315          27824           CALL    FRMEVL
  6386  007502' 000000  005336'
  6387  007503' 000000  007476'
  6388  007504' 001000  000345          27826           PUSH    H
  6389  007505' 001000  000315          27828           CALL    FRCSNG
  6390  007506' 000000  006267*
  6391  007507' 000000  007502'
  6392  007510' 001000  000341          27830           POP     H>
  6393  007511' 001000  000053          27840           DCX     H


-- PAGE 135 --------------------------------------------------------------


BASIC MCS 8080  GATES/ALLEN/DAVIDOFF    MACRO 47(113) 03:12 10-SEP-75 PAGE 25-2
F3      MAC      6-SEP-64 03:11         SIMPLE-USER-DEFINED-FUNCTION CODE

  6394  007512' 001000  000327          27860           CHRGET                  ;SEE IF TERMINATED
  6395  007513' 001000  000302          27880           JNZ     SNERR           ;IF NOT SYNTAX ERROR
  6396  007514' 000000  002072'
  6397  007515' 000000  007506'
  6398                                  27900                                   ;TO BE NICE SHOULD HAVE NEW CURLIN
  6399                                  27920                                   ;BUT VERY MESSY
  6400  007516' 001000  000341          27940           POP     H               ;POP OFF POINTER AT ARG VARIABLE
  6401  007517' 001000  000321          27960           POP     D
  6402  007520' 001000  000301          27980           POP     B>              ;POP OFF OLD VALUE
  6403                                  28000   IFN     MULDIM!STRING!FUNCTS,<
  6404  007521' 001000  000161          28020   DEFFIN: MOV     M,C
  6405  007522' 001000  000043          28040           INX     H               ;STORE THE OLD VALUE
  6406  007523' 001000  000160          28060           MOV     M,B
  6407  007524' 001000  000043          28080   PUTDEI: INX     H
  6408  007525' 001000  000163          28100           MOV     M,E
  6409  007526' 001000  000043          28120           INX     H
  6410  007527' 001000  000162          28140           MOV     M,D
  6411  007530' 001000  000341          28160           POP     H               ;POP OFF OLD TXTPTR
  6412  007531' 001000  000311          28180           RET>                    ;VALUE IS IN FAC -- ALL DONE
  6413                                  28200   IFN     FUNCTS,<
  6414                                  28220   ;
  6415                                  28240   ; SUBROUTINE TO SEE IF WE ARE IN DIRECT MODE AND
  6416                                  28360   ; COMPLAIN IF SO
  6417                                  28380   ;
  6418  007532' 001000  000345          28300   ERRDIR: PUSH    H               ;SAVE THEIR [H,L]
  6419  007533' 001000  000052          28320           LHLD    CURLIN          ;SEE WHAT THE CURRENT LINE IS
  6420  007534' 000000  001607'
  6421  007535' 000000  007514'
  6422  007536' 001000  000043          28340           INX     H               ;DIRECT IS 65,535 SO NOW 0
  6423  007537' 001000  000174          28360           MOV     A,H
  6424  007540' 001000  000265          28380           ORA     L               ;IS IT ZERO NOW?
  6425  007541' 001000  000341          28400           POP     H
  6426  007542' 001000  000300          28420           RNZ                     ;RETURN IF NOT
  6427  007543' 001000  000036          28440           MVI     E,ERRID         ;"ILLEGAL DIRECT" ERROR
  6428  007544' 000000  000014
  6429  007545' 001000  000303          28460           JMP     ERROR
  6430  007546' 000000  002102'
  6431  007547' 000000  007534'
  6432                                  28480   ;
  6433                                  28500   ; SUBROUTINE TO GET A POINTER TO A FUNCTION NAME
  6434                                  28520   ;
  6435  007550' 001000  000317          28540   GETFNM: SYNCHK  FNTK            ;MUST START WITH "FN"
  6436  007551' 000000  000243
  6437  007552' 001000  000076          28560           MVI     A,128           ;DONT ALLOW AN ARRAY
  6438  007553' 000000  000200
  6439  007554' 001000  000062          28580           STA     SUBFLG          ;DON'T RECOGNIZE THE "(" AS
  6440  007555' 000000  001601'
  6441  007556' 000000  007546'
  6442                                  28600                                   ;THE START OF AN ARRAY REFERENCE
  6443  007557' 001000  000266          28620           ORA     M               ;PUT FUNCTION BIT ON
  6444  007560' 001000  000107          28640           MOV     B,A             ;GET FIRST CHARACTER INTO [B]
  6445                                  28660   IFN     LENGTH-2,<
  6446                                  28680   IFN     STRING,<CALL    PTRGT2  ;REALLY GET THE POINTER


-- PAGE 136 --------------------------------------------------------------


BASIC MCS 8080  GATES/ALLEN/DAVIDOFF    MACRO 47(113) 03:12 10-SEP-75 PAGE 25-3
F3      MAC      6-SEP-64 03:11         SIMPLE-USER-DEFINED-FUNCTION CODE

  6447                                  28700           JMP     CHKNUM>>        ;MAKE SURE ITS NOT A STRING NAME
  6448  007561' 001000  000303          28720   IFE     STRING&<LENGTH-2>,<JMP  PTRGT2>>
  6449  007562' 000000  006512'
  6450  007563' 000000  007555'
  6451                                  28740   PAGE


-- PAGE 137 --------------------------------------------------------------


BASIC MCS 8080  GATES/ALLEN/DAVIDOFF    MACRO 47(113) 03:12 10-SEP-75 PAGE 26
F3      MAC      6-SEP-64 03:11         STRING FUNCTIONS

  6452                                  28760   SUBTTL  STRING FUNCTIONS
  6453                                  28780   IFN     STRING,<                ;STRING HANDLING SUBROUTINES
  6454                                  28800   ;
  6455                                  28820   ; THE STR$ FUNCTION TAKES A NUMBER AND GIVES
  6456                                  28840   ; A STRING WITH THE CHARACTERS THE OUTPUT OF THE NUMBER
  6457                                  28860   ; WOULD HAVE GIVEN
  6458                                  28880   ;
  6459  007564'                         28900   STR$:
  6460                                  28920   IFN     LENGTH-2,<
  6461                                  28940           CALL    CHKNUM>         ;MAKE SURE THE ARGUMENT
  6462                                  28960                                   ;IS A NUMERIC
  6463  007564' 001000  000315          28980           CALL    FOUT            ;DO ITS OUTPUT
  6464  007565' 000000  004457*
  6465  007566' 000000  007562'
  6466  007567' 001000  000315          29000           CALL    STRLIT          ;SCAN IT AND TURN IT INTO A STRING
  6467  007570' 000000  007637'
  6468  007571' 000000  007565'
  6469  007572' 001000  000315          29020           CALL    FREFAC          ;FREE UP THE TEMP
  6470  007573' 000000  010434'
  6471  007574' 000000  007570'
  6472  007575' 001000  000001          29040           LXI     B,FINBCK
  6473  007576' 000000  010546'
  6474  007577' 000000  007573'
  6475  007600' 001000  000305          29060           PUSH    B               ;SET UP ANSWER IN NEW TEMP
  6476                                  29080   ;
  6477                                  29100   ; STRCPY CREATES A COPY OF THE STRING
  6478                                  29120   ; WHOSE DESCRIPTOR IS POINTED TO BY [H,L].
  6479                                  29140   ; ON RETURN [D,E] POINTS TO DSCTMP
  6480                                  29160   ; WHICH HAS THE STRING INFO (LENGTH,WHERE COPIED TO)
  6481                                  29180   ;
  6482  007601' 001000  000176          29200   STRCPY: MOV     A,M             ;GET LENGTH
  6483  007602' 001000  000043          29220           INX     H               ;MOVE UP TO THE POINTER
  6484                                  29240   IFN     LENGTH-2,<
  6485                                  29260           INX     H>
  6486  007603' 001000  000345          29280           PUSH    H               ;GET POINTER TO POINTER OF ARG
  6487  007604' 001000  000315          29300           CALL    GETSPA          ;GET THE SPACE
  6488  007605' 000000  007772'
  6489  007606' 000000  007576'
  6490  007607' 001000  000341          29320           POP     H               ;FIND OUT WHERE STRING TO COPY
  6491  007610' 001000  000367          29340           PUSHM                   ;REALLY IS IN [B,C]
  6492  007611' 001000  000301          29360           POP     B
  6493  007612' 001000  000315          29380           CALL    STRAD2          ;SETUP DSCTMP
  6494  007613' 000000  007627'
  6495  007614' 000000  007605'
  6496  007615' 001000  000345          29400           PUSH    H               ;SAVE POINTER TO DSCTMP
  6497  007616' 001000  000157          29420           MOV     L,A             ;GET CHARACTER COUNT INTO [L]
  6498  007617' 001000  000315          29440           CALL    MOVSTR          ;MOVE THE CHARS IN
  6499  007620' 000000  010417'
  6500  007621' 000000  007613'
  6501  007622' 001000  000321          29460           POP     D               ;RESTORE POINTER TO DSCTMP
  6502  007623' 001000  000311          29480           RET                     ;RETURN
  6503
  6504  007624' 001000  000315          29520   STRINI: CALL    GETSPA          ;GET SOME STRING SPACE ([A] CHARS)


-- PAGE 138 --------------------------------------------------------------


BASIC MCS 8080  GATES/ALLEN/DAVIDOFF    MACRO 47(113) 03:12 10-SEP-75 PAGE 26-1
F3      MAC      6-SEP-64 03:11         STRING FUNCTIONS

  6505  007625' 000000  007772'
  6506  007626' 000000  007620'
  6507  007627' 001000  000041          29540   STRAD2: LXI     H,DSCTMP        ;GET DESC. TEMP
  6508  007630' 000000  001570'
  6509  007631' 000000  007625'
  6510  007632' 001000  000345          29560   STRAD1: PUSH    H               ;SAVE DESC. POINTER
  6511  007633' 001000  000167          29580           MOV     M,A             ;SAVE CHARACTER COUNT
  6512                                  29600   IFN     LENGTH-2,<
  6513                                  29620           INX     H>              ;MOVE TO ADDRESS FIELD
  6514  007634' 001000  000303          29640           JMP     PUTDEI          ;USE COMMON CODE TO
  6515  007635' 000000  007524'
  6516  007636' 000000  007630'
  6517                                  29660                                   ;STORE [D,E]=POINTER TO FREE SPACE
  6518                                  29680                                   ;AND RESTORE [H,L] AS THE DESCRIPTOR POINTER
  6519                                  29682   ;
  6520                                  29684   ; STRLT2 TAKES THE STRING LITERAL WHOSE FIRST CHARACTER
  6521                                  29686   ; IS POINTED BY [H,L]+1 AND BUILDS A DESCRIPTOR FOR IT.
  6522                                  29688   ; THE DESCRIPTOR IS INITIALLY BUILT IN DSCTMP, BUT PUTNEW
  6523                                  29690   ; TRANSFERS IT INTO A TEMPORARY AND LEAVES A POINTER
  6524                                  29692   ; AT THE TEMPORARY IN FACLO. THE CHARACTERS OTHER THAN
  6525                                  29694   ; ZERO THAT TERMINATE THE STRING SHOULD BE SET UP IN [B]
  6526                                  29696   ; AND [D]. IT THE TERMINATOR IS A QUOTE, THE QUOTE IS SKIPPED
  6527                                  29697   ; OVER. LEADING QUOTES SHOULD BE SKIPPED BEFORE CALL. ON RETURN
  6528                                  29698   ; THE CHARACTER AFTER THE STRING LITERAL IS POINTED TO
  6529                                  29700   ; BY [H,L] AND IS IN [A], BUT THE CONDITION CODES ARE
  6530                                  29702   ; NOT SET UP.
  6531                                  29704   ;
  6532  007637' 001000  000053          29720   STRLIT: DCX     H
  6533  007640' 001000  000006          29740   STRLTI: MVI     B,34            ;ASSUME STR ENDS ON QUOTE
  6534  007641' 000000  000042
  6535  007642' 001000  000120          29760   STRLT3: MOV     D,B
  6536  007643' 001000  000345          29780   STRLT2: PUSH    H               ;SAVE POINTER TO START OF LITERAL
  6537  007644' 001000  000016          29800           MVI     C,255           ;INITIALIZE CHARACTER COUNT
  6538  007645' 000000  000377
  6539  007646' 001000  000043          29820   STRGET: INX     H
  6540  007647' 001000  000176          29840           MOV     A,M             ;GET CHAR
  6541  007650' 001000  000014          29860           INR     C               ;BUMP CHARACTER COUNT
  6542  007651' 001000  000267          29880           ORA     A               ;IF 0, (END OF LINE) DONE
  6543  007652' 001000  000312          29900           JZ      STRFIN          ;TEST
  6544  007653' 000000  007665'
  6545  007654' 000000  007535'
  6546  007655' 001000  000272          29920           CMP     D
  6547  007656' 001000  000312          29940           JZ      STRFIN
  6548  007657' 000000  007665'
  6549  007660' 000000  007653'
  6550  007661' 001000  000270          29960           CMP     B               ;CLOSING QUOTE
  6551  007662' 001000  000302          29980           JNZ     STRGET          ;NO, GO BACK FOR MORE
  6552  007663' 000000  007646'
  6553  007664' 000000  007657'
  6554  007665' 001000  000376          30000   STRFIN: CPI     34              ;IF QUOTE TERMINATES THE STRING
  6555  007666' 000000  000042
  6556  007667' 001000  000314          30020           CZ      CHRGTR          ;SKIP OVER THE QUOTE
  6557  007670' 000000  003426'


-- PAGE 139 --------------------------------------------------------------


BASIC MCS 8080  GATES/ALLEN/DAVIDOFF    MACRO 47(113) 03:12 10-SEP-75 PAGE 26-2
F3      MAC      6-SEP-64 03:11         STRING FUNCTIONS

  6558  007671' 000000  007663'
  6559  007672' 001000  000343          30040           XTHL
  6560  007673' 001000  000043          30060           INX     H
  6561  007674' 001000  000353          30080           XCHG                    ;GET POINTER TO TEMP
  6562  007675' 001000  000171          30100           MOV     A,C             ;GET CHARACTER COUNT IN A
  6563  007676' 001000  000315          30120           CALL    STRAD2          ;SAVE STR INFO
  6564  007677' 000000  007627'
  6565  007700' 000000  007670'
  6566                                  30140                                   ;COMPARE DESC. POINTER & STR POINTER
  6567  007701' 001000  000347          30160           COMPAR                  ;TO SEE IF STR IN BUF
  6568  007702' 001000  000324          30180           CNC     STRCPY          ;IF IN BUF, MUST COPY IT.
  6569  007703' 000000  007601'
  6570  007704' 000000  007677'
  6571                                  30200                                   ;OTHERWISE STR IN PROGRAM.
  6572                                  30220   ;
  6573                                  30240   ; SOME STRING FUNCTION IS RETURNING A RESULT IN DSCTMP
  6574                                  30260   ; WE WANT TO SETUP A TEMP DESCRIPTOR WITH DSCTMP IN IT
  6575                                  30280   ; PUT A POINTER TO THE DESCRIPTOR IN FACLO AND FLAG THE
  6576                                  30300   ; RESULT AS TYPE STRING
  6577                                  30320   ;
  6578  007705' 001000  000021          30340   PUTNEW: LXI     D,DSCTMP        ;[D,E] POINT AT RESULT DESCRIPTOR
  6579  007706' 000000  001570'
  6580  007707' 000000  007703'
  6581  007710' 001000  000052          30360           LHLD    TEMPPT          ;[H,L]=POINTER TO FIRST FREE TEMP
  6582  007711' 000000  001547'
  6583  007712' 000000  007706'
  6584  007713' 001000  000042          30380           SHLD    FACLO           ;POINTER AT WHERE RESULT DESCRIPTOR WILL BE
  6585  007714' 000000  001637'
  6586  007715' 000000  007711'
  6587                                  30400   IFE     LENGTH-2,<
  6588  007716' 001000  000076          30420           MVI     A,3
  6589  007717' 000000  000003
  6590  007720' 001000  000062          30440           STA     VALTYP          ;FLAG THIS AS A STRING
  6591  007721' 000000  001543'
  6592  007722' 000000  007714'
  6593  007723' 001000  000315          30460           CALL    VMOVE>          ;AND MOVE THE VALUE INTO A TEMPORARY
  6594  007724' 000000  004233*
  6595  007725' 000000  007721'
  6596                                  30480   IFN     LENGTH-2,<
  6597                                  30500           MVI     A,1             ;FLAG RESULT AS STRING
  6598                                  30520           STA     VALTYP          ;STORE IN "VALUE-TYPE" LOCATION
  6599                                  30540           CALL    MOVE>           ;TRANSFER THE DESCRIPTOR IN
  6600  007726' 001000  000347          30560           COMPAR                  ;DSCTMP IS JUST BEYOND THE TEMPS
  6601                                  30580                                   ;AND IF TEMPPT POINTS AT IT THERE
  6602                                  30600                                   ;ARE NO FREE TEMPS
  6603  007727' 001000  000036          30620           MVI     E,ERRST         ;"STRING TEMPORARY" ERROR
  6604  007730' 000000  000020
  6605  007731' 001000  000312          30640           JZ      ERROR           ;GO TELL HIM
  6606  007732' 000000  002102'
  6607  007733' 000000  007724'
  6608  007734' 001000  000042          30660           SHLD     TEMPPT         ;SAVE NEW TEMPORARY POINTER
  6609  007735' 000000  001547'
  6610  007736' 000000  007732'


-- PAGE 140 --------------------------------------------------------------


BASIC MCS 8080  GATES/ALLEN/DAVIDOFF    MACRO 47(113) 03:12 10-SEP-75 PAGE 26-3
F3      MAC      6-SEP-64 03:11         STRING FUNCTIONS

  6611  007737' 001000  000341          30680           POP     H               ;GET THE TEXT POINTER
  6612  007740' 001000  000176          30700           MOV     A,M             ;GET CURRENT CHARACTER INTO [A]
  6613  007741' 001000  000311          30720           RET
  6614                                  30740   ;
  6615                                  30760   ; PRINT THE STRING POINTED TO BY [H,L] WHICH ENDS WITH A ZERO
  6616                                  30780   ; IF THE STRING IS BELOW DSCTMP IT WILL BE COPIED INTO STRING SPACE
  6617                                  30800   ;
  6618  007742' 001000  000043          30820   STROUI: INX     H               ;POINT AT NEXT CHARACTER
  6619  007743' 001000  000315          30840   STROUT: CALL    STRLIT          ;GET A STRING LITERAL
  6620  007744' 000000  007637'
  6621  007745' 000000  007735'
  6622                                  30860   ;
  6623                                  30880   ; PRINT THE STRING WHOSE DESCRIPTOR IS POINTED TO BY FACLO
  6624                                  30900   ;
  6625  007746' 001000  000315          30920   STRPRT: CALL    FREFAC          ;RETURN TEMP POINTER BY FACLO
  6626  007747' 000000  010434'
  6627  007750' 000000  007744'
  6628                                  30940   IFE     LENGTH-2,<
  6629  007751' 001000  000315          30960           CALL    GETBCD          ;[D]=LENGTH [B,C]=POINTER AT DATA
  6630  007752' 000000  000000*
  6631  007753' 000000  007747'
  6632  007754' 001000  000024          30970           INR     D               ;INCREMENT AND DECREMENT EARLY
  6633                                  30980                                   ;TO CHECK FOR NULL STRING
  6634  007755' 001000  000025          30990   STRPR2: DCR     D>              ;DECREMENT THE LENGTH
  6635                                  31060   IFN     LENGTH-2,<
  6636                                  31080           CALL    MOVRM           ;GET LENGTH IN [E]
  6637                                  31100           INR     E               ;AND POINTER TO CHARACTERS IN [B,C]
  6638                                  31120   STRPR2: DCR     E>
  6639  007756' 001000  000310          31140           RZ                      ;ALL DONE
  6640  007757' 001000  000012          31160           LDAX    B               ;GET CHARACTER TO PRINT
  6641  007760' 001000  000337          31180           OUTCHR
  6642  007761' 001000  000376          31200           CPI     CR
  6643  007762' 000000  000015
  6644  007763' 001000  000314          31220           CZ      CRFIN
  6645  007764' 000000  004534'
  6646  007765' 000000  007752'
  6647  007766' 001000  000003          31240           INX     B               ;POINT TO THE NEXT CHARACTER
  6648  007767' 001000  000303          31260           JMP     STRPR2          ;AND PRINT IT...
  6649  007770' 000000  007755'
  6650  007771' 000000  007764'
  6651                                  31280   ;
  6652                                  31300   ; GETSPA - GET SPACE FOR CHARACTER STRING
  6653                                  31320   ; MAY FORCE GARBAGE COLLECTION.
  6654                                  31340   ;
  6655                                  31360   ; # OF CHARS (BYTES) IN [A]
  6656                                  31380   ; RETURNS WITH POINTER IN [D,E] OTHERWISE IF CANT GET SPACE
  6657                                  31400   ; BLOWS OFF TO "OUT OF STRING SPACE" TYPE ERROR.
  6658                                  31420   ;
  6659  007772' 001000  000267          31440   GETSPA: ORA     A               ;MUST BE NON ZERO. SIGNAL NO GARBAG YET
  6660  007773' 001000  000016          31460           XWD     ^O1000,^O016    ;"MVI C" AROUND THE NEXT
  6661  007774' 001000  000361          31480   TRYGI2: POP     PSW             ;IN CASE COLLECTED WHAT WAS LENGTH?
  6662  007775' 001000  000365          31500           PUSH    PSW             ;SAVE IT BACK
  6663  007776' 001000  000052          31520           LHLD    STKTOP          ;GET BOTTOM OF STRING SPACE


-- PAGE 141 --------------------------------------------------------------


BASIC MCS 8080  GATES/ALLEN/DAVIDOFF    MACRO 47(113) 03:12 10-SEP-75 PAGE 26-4
F3      MAC      6-SEP-64 03:11         STRING FUNCTIONS

  6664  007777' 000000  001615'
  6665  010000' 000000  007770'
  6666  010001' 001000  000353          31540           XCHG                    ;IN [D,E]
  6667  010002' 001000  000052          31560           LHLD    FRETOP          ;GET TOP OF FREE SPACE IN [H,L]
  6668  010003' 000000  001573'
  6669  010004' 000000  007777'
  6670  010005' 001000  000057          31580           CMA                     ;-# OF CHARS
  6671  010006' 001000  000117          31600           MOV     C,A             ;IN [B,C]
  6672  010007' 001000  000006          31620           MVI     B,255
  6673  010010' 000000  000377
  6674  010011' 001000  000011          31640           DAD     B               ;SUBTRACT FROM TOP OF FREE
  6675  010012' 001000  000043          31660           INX     H
  6676  010013' 001000  000347          31680           COMPAR                  ;COMPARE THE TWO
  6677  010014' 001000  000332          31700           JC      GARBAG          ;NOT ENOUGH ROOM FOR STRING, OFFAL TIME
  6678  010015' 000000  010026'
  6679  010016' 000000  010003'
  6680  010017' 001000  000042          31720           SHLD    FRETOP          ;SAVE NEW BOTTOM OF MEMORY
  6681  010020' 000000  001573'
  6682  010021' 000000  010015'
  6683  010022' 001000  000043          31740           INX     H               ;MOVE BACK TO POINT TO STRING
  6684  010023' 001000  000353          31760           XCHG                    ;RETURN WITH POINTER IN [D,E]
  6685  010024' 001000  000361          31780   PPSWRT: POP     PSW             ;GET CHARACTER COUNT
  6686  010025' 001000  000311          31800           RET                     ;RETURN FROM GETSPA
  6687
  6688  010026' 001000  000361          31840   GARBAG: POP     PSW             ;HAVE WE COLLECTED BEFORE?
  6689  010027' 001000  000036          32860           MVI     E,ERRSO         ;GET READY FOR OUT OF STRING SPACE ERROR
  6690  010030' 000000  000016
  6691  010031' 001000  000312          32880           JZ      ERROR           ;GO TELL USER HE LOST
  6692  010032' 000000  002102'
  6693  010033' 000000  010020'
  6694  010034' 001000  000277          32900           CMP     A               ;SET ZERO FLAG TO SAY WEVE GARBAGED
  6695  010035' 001000  000365          32920           PUSH    PSW             ;SAVE FLAG BACK ON STACK
  6696  010036' 001000  000001          32940           LXI     B,TRYGI2        ;PLACE FOR GARBAG TO RETURN TO.
  6697  010037' 000000  007774'
  6698  010040' 000000  010032'
  6699  010041' 001000  000305          32960           PUSH    B               ;SAVE ON STACK
  6700  010042' 001000  000052          32980   GARBA2: LHLD    MEMSIZ          ;START FROM TOP DOWN
  6701  010043' 000000  001545'
  6702  010044' 000000  010037'
  6703                                  32000   IFE     REALIO,<
  6704                                  32020           MVI     A,7             ;RING THE BELL ON GARBAGE COLLECTION
  6705                                  32040           OUTCHR>
  6706  010045' 001000  000042          32060   FNDVAR: SHLD    FRETOP          ;LIKE SO
  6707  010046' 000000  001573'
  6708  010047' 000000  010043'
  6709  010050' 001000  000041          32080           LXI     H,$CODE         ;GET DOUBLE ZERO
  6710  010051' 000000  000000'
  6711  010052' 000000  010046'
  6712  010053' 001000  000345          32100           PUSH    H               ;SAY DIDNT SEE VARS THIS PASS
  6713  010054' 001000  000052          32120           LHLD    STKTOP          ;FORCE DVARS TO IGNORE STRINGS
  6714  010055' 000000  001615'
  6715  010056' 000000  010051'
  6716                                  32140                                   ;IN THE PROGRAM TEXT (LITERALS, DATA)


-- PAGE 142 --------------------------------------------------------------


BASIC MCS 8080  GATES/ALLEN/DAVIDOFF    MACRO 47(113) 03:12 10-SEP-75 PAGE 26-5
F3      MAC      6-SEP-64 03:11         STRING FUNCTIONS

  6717  010057' 001000  000345          32160           PUSH    H               ;FORCE FIND HIGH ADDRESS
  6718  010060' 001000  000041          32180           LXI     H,TEMPST        ;GET START OF STRING TEMPS
  6719  010061' 000000  001551'
  6720  010062' 000000  010055'
  6721  010063' 001000  000353          32200   TVAR:   XCHG                    ;SAVE IN [D,E]
  6722  010064' 001000  000052          32220           LHLD    TEMPPT          ;SEE IF DONE
  6723  010065' 000000  001547'
  6724  010066' 000000  010061'
  6725  010067' 001000  000353          32240           XCHG                    ;FLIP
  6726  010070' 001000  000347          32260           COMPAR                  ;TEST
  6727  010071' 001000  000001          32280           LXI     B,TVAR          ;FORCE JUMP TO TVAR
  6728  010072' 000000  010063'
  6729  010073' 000000  010065'
  6730  010074' 001000  000302          32300           JNZ     DVAR2           ;DO TEMP VAR GARBAGE COLLECT
  6731  010075' 000000  010213'
  6732  010076' 000000  010072'
  6733
  6734  010077' 001000  000052          32340   SVARS:  LHLD    VARTAB          ;GET START OF SIMPLE VARIABLES
  6735  010100' 000000  001621'
  6736  010101' 000000  010075'
  6737  010102' 001000  000353          32360   SVAR:   XCHG                    ;GET IN [D,E]
  6738  010103' 001000  000052          32380           LHLD    ARYTAB          ;GET END OF SIMPS
  6739  010104' 000000  001623'
  6740  010105' 000000  010100'
  6741  010106' 001000  000353          32400           XCHG                    ;FLIP
  6742  010107' 001000  000347          32420           COMPAR                  ;SEE IF AT END OF SIMPS
  6743  010110' 001000  000312          32440           JZ      ARYVAR          ;IF YES, DO ARRAY TYPE STRINGS
  6744  010111' 000000  010140'
  6745  010112' 000000  010104'
  6746  010113' 001000  000176          32460           MOV     A,M             ;GET 2ND CHARACTER OF VARIABLE
  6747  010114' 001000  000043          32480           INX     H               ;BUMP POINTER TWICE
  6748  010115' 001000  000043          32500           INX     H               ;
  6749                                  32520   IFE     LENGTH-2,<
  6750  010116' 001000  000043          32540           INX     H               ;POINT AT THE VALUE
  6751  010117' 001000  000376          32560           CPI     3               ;SEE IF ITS A STRING
  6752  010120' 000000  000003
  6753  010121' 001000  000302          32580           JNZ     SKPVAR          ;IF NOT, JUST SKIP AROUND IT
  6754  010122' 000000  010130'
  6755  010123' 000000  010111'
  6756  010124' 001000  000315          32600           CALL    DVARS           ;COLLECT IT
  6757  010125' 000000  010214'
  6758  010126' 000000  010122'
  6759  010127' 001000  000257          32620           XRA     A               ;AND DON'T SKIP ANYTHING MORE
  6760  010130' 001000  000137          32640   SKPVAR: MOV     E,A
  6761  010131' 001000  000026          32660           MVI     D,0             ;[D,E]=AMOUNT TO SKIP
  6762  010132' 000000  000000
  6763  010133' 001000  000031          32680           DAD     D>
  6764                                  32700   IFN     LENGTH-2,<
  6765                                  32720           ORA     A               ;SET CC'S
  6766                                  32740           CALL    DVARS>          ;CALL THE VARIABLE GARB ROUT.
  6767  010134' 001000  000303          32760           JMP     SVAR            ;GET NEXT ONE
  6768  010135' 000000  010102'
  6769  010136' 000000  010125'


-- PAGE 143 --------------------------------------------------------------


BASIC MCS 8080  GATES/ALLEN/DAVIDOFF    MACRO 47(113) 03:12 10-SEP-75 PAGE 26-6
F3      MAC      6-SEP-64 03:11         STRING FUNCTIONS

  6770
  6771  010137' 001000  000301          32800   ARYVA2: POP     B               ;GET RID OF STACK GARBAGE
  6772  010140' 001000  000353          32820   ARYVAR: XCHG                    ;SAVE ARYVAR IN [D,E]
  6773  010141' 001000  000052          32840           LHLD    STREND          ;GET END OF ARRAYS
  6774  010142' 000000  001652'
  6775  010143' 000000  010135'
  6776  010144' 001000  000353          32860           XCHG                    ;FLIP BACK
  6777  010145' 001000  000347          32880           COMPAR                  ;SEE IF DONE WITH ARRAYS
  6778  010146' 001000  000312          32900           JZ      GRBPAS          ;YES, SEE IF DONE COLLECTING
  6779  010147' 000000  010254'
  6780  010150' 000000  010142'
  6781                                  32920   IFE     LENGTH-2,<
  6782  010151' 001000  000176          32940           MOV     A,M             ;GET THE VALUE TYPE INTO [A]
  6783  010152' 001000  000043          32960           INX     H>
  6784  010153' 001000  000315          32980           CALL    MOVRM           ;GET LENGTH OF ARRAY IN [B,C]
  6785  010154' 000000  005302*
  6786  010155' 000000  010146'
  6787                                  33000   IFN     LENGTH-2,<
  6788                                  33020           MOV     A,E>            ;GET 2ND CHAR OF VAR NAME IN A
  6789  010156' 001000  000345          33040           PUSH    H               ;SAVE POINTER TO DIMS
  6790  010157' 001000  000011          33060           DAD     B               ;ADD TO CURRENT POINTER POSITION
  6791                                  33080   IFE     LENGTH-2,<
  6792  010160' 001000  000376          33100           CPI     3               ;SEE IF ITS A STRING
  6793  010161' 000000  000003
  6794  010162' 001000  000302          33120           JNZ     ARYVA2>         ;IF NOT JUST SKIP IT
  6795  010163' 000000  010137'
  6796  010164' 000000  010154'
  6797                                  33140   IFN     LENGTH-2,<
  6798                                  33160           ORA     A               ;SEE IF STRING VAR
  6799                                  33180           JP      ARYVA2>         ;NO, KEEP ON TRUCKIN
  6800  010165' 001000  000042          33200           SHLD    TEMP3           ;SAVE END OF ARRAY
  6801  010166' 000000  001575'
  6802  010167' 000000  010163'
  6803  010170' 001000  000341          33220           POP     H               ;GET BACK CURRENT POSITION
  6804  010171' 001000  000116          33240           MOV     C,M             ;PICK UP NUMBER OF DIMS
  6805  010172' 001000  000006          33260           MVI     B,0             ;MAKE DOUBLE WITH HIGH ZERO
  6806  010173' 000000  000000
  6807  010174' 001000  000011          33280           DAD     B               ;GO PAST DIMS
  6808  010175' 001000  000011          33300           DAD     B               ;BY ADDING ON TWICE #DIMS (2 BYTE GUYS)
  6809  010176' 001000  000043          33320           INX     H               ;ONE MORE TO ACCOUNT FOR #DIMS.
  6810  010177' 001000  000353          33340   ARYSTR: XCHG                    ;SAVE CURRENT POSIT IN [D,E]
  6811  010200' 001000  000052          33360           LHLD    TEMP3           ;GET END OF ARRAY
  6812  010201' 000000  001575'
  6813  010202' 000000  010166'
  6814  010203' 001000  000353          33380           XCHG                    ;FIX [H,L] BACK TO CURRENT
  6815  010204' 001000  000347          33400           COMPAR                  ;SEE IF AT END OF ARRAY
  6816  010205' 001000  000312          33420           JZ      ARYVAR          ;END OF ARRAY, TRY NEXT ARRAY
  6817  010206' 000000  010140'
  6818  010207' 000000  010201'
  6819  010210' 001000  000001          33440           LXI     B,ARYSTR        ;ADDR OF WHERE TO RETURN TO
  6820  010211' 000000  010177'
  6821  010212' 000000  010206'
  6822  010213' 001000  000305          33460   DVAR2:  PUSH    B               ;GOES ON STACK


-- PAGE 144 --------------------------------------------------------------


BASIC MCS 8080  GATES/ALLEN/DAVIDOFF    MACRO 47(113) 03:12 10-SEP-75 PAGE 26-7
F3      MAC      6-SEP-64 03:11         STRING FUNCTIONS

  6823                                  33480   IFE     LENGTH-2,<
  6824  010214'                         33500   DVAR:
  6825  010214' 001000  000257          33520   DVARS:  XRA     A
  6826  010215' 001000  000266          33540           ORA     H               ;SEE IF ITS THE NULL STRING
  6827  010216' 001000  000043          33560           INX     H
  6828  010217' 001000  000136          33580           MOV     E,M
  6829  010220' 001000  000043          33600           INX     H
  6830  010221' 001000  000126          33620           MOV     D,M
  6831  010222' 001000  000043          33640           INX     H>              ;[D,E]=POINTER AT THE VALUE
  6832                                  33660   IFN     LENGTH-2,<
  6833                                  33680   DVAR:   ORI     128             ;FORCE DVAR TO CALL GRBVAR
  6834                                  33700   DVARS:  PUSHM                   ;SAVE LENGTH
  6835                                  33720           PUSHM                   ;SKIP NEXT TWO BYTES
  6836                                  33740           POP     D               ;GET POINTER IN [D,E]
  6837                                  33760           POP     B               ;POP OF STRING LENGTH
  6838                                  33780           RP                      ;IF WASNT A STR, RETURN
  6839                                  33800           MOVE    A,C             ;GET LENGTH OF STRING
  6840                                  33820           ORA     A>              ;SET CONDITION CODES
  6841  010223' 001000  000310          33840           RZ                      ;NULL STRING, RETURN
  6842  010224' 001000  000104          33860           MOV     B,H             ;MOVE [H,L] TO [B,C]
  6843  010225' 001000  000115          33880           MOV     C,L
  6844  010226' 001000  000052          33900           LHLD    FRETOP          ;GET POINTER TO TOP OF STRING FREE SPACE
  6845  010227' 000000  001573'
  6846  010230' 000000  010211'
  6847  010231' 001000  000347          33920           COMPAR                  ;IS THIS STRINGS POINTER .LT. FRETOP
  6848  010232' 001000  000140          33940           MOV     H,B             ;MOVE [B,C] BACK TO [H,L]
  6849  010233' 001000  000151          33960           MOV     L,C
  6850  010234' 001000  000330          33980           RC                      ;IF NOT, NO NEED TO MESS WITH IT FURTHUR
  6851  010235' 001000  000341          34000           POP     H               ;GET RETURN ADDRESS OFF STACK
  6852  010236' 001000  000343          34020           XTHL                    ;GET MAX SEEN SO FAR & SAVE RETURN ADDRESS
  6853  010237' 001000  000347          34040           COMPAR                  ;LETS SEE
  6854  010240' 001000  000343          34060           XTHL                    ;SAVE MAX SEEN & GET RETURN ADDRESS OFF STACK
  6855  010241' 001000  000345          34080           PUSH    H               ;SAVE RETURN ADDRESS BACK
  6856  010242' 001000  000140          34100           MOV     H,B             ;MOVE [B,C] BACK TO [H,L]
  6857  010243' 001000  000151          34120           MOV     L,C
  6858  010244' 001000  000320          34140           RNC                     ;IF NOT, LETS LOOK AT NEXT VAR
  6859  010245' 001000  000301          34160           POP     B               ;GET RETURN ADDR OFF STACK
  6860  010246' 001000  000361          34180           POP     PSW             ;POP OFF MAX SEEN
  6861  010247' 001000  000361          34200           POP     PSW             ;AND VARIABLE POINTER
  6862  010250' 001000  000345          34220           PUSH    H               ;SAVE NEW VARIABLE POINTER
  6863  010251' 001000  000325          34240           PUSH    D               ;AND NEW MAX POINTER
  6864  010252' 001000  000305          34260           PUSH    B               ;SAVE RETURN ADDRESS BACK
  6865  010253' 001000  000311          34280           RET                     ;AND RETURN
  6866                                  34300   ;
  6867                                  34320   ; HERE WHEN MADE ONE COMPLETE PASS THRU STRING VARS
  6868                                  34340   ;
  6869  010254' 001000  000321          34360   GRBPAS: POP     D               ;POP OFF MAX POINTER
  6870  010255' 001000  000341          34380           POP     H               ;AND GET VARIABLE POINTER
  6871  010256' 001000  000175          34400           MOV     A,L             ;GET LOW IN
  6872  010257' 001000  000264          34420           ORA     H               ;SEE IF ZERO POINTER
  6873  010260' 001000  000310          34440           RZ                      ;IF END OF COLLECTION,
  6874                                  34460                                   ;THEN MAYBE RETURN TO GETSPA
  6875  010261' 001000  000053          34480           DCX     H               ;CURRENTLY JUST PAST THE DESCRIPTOR


-- PAGE 145 --------------------------------------------------------------


BASIC MCS 8080  GATES/ALLEN/DAVIDOFF    MACRO 47(113) 03:12 10-SEP-75 PAGE 26-8
F3      MAC      6-SEP-64 03:11         STRING FUNCTIONS

  6876  010262' 001000  000106          34500           MOV     B,M             ;[B]=HIGH BYTE OF DATA POINTER
  6877  010263' 001000  000053          34520           DCX     H
  6878  010264' 001000  000116          34540           MOV     C,M             ;[B,C]=POINTER AT STRING DATA
  6879  010265' 001000  000345          34550           PUSH    H               ;SAVE THIS LOCATION SO THE POINTER
  6880                                  34552                                   ;CAN BE UPDATED AFTER THE STRING IS
  6881                                  34554                                   ;MOVED
  6882  010266' 001000  000053          34560           DCX     H
  6883                                  34580   IFN     LENGTH-2,<
  6884                                  34600           DCX     H>
  6885  010267' 001000  000156          34620           MOV     L,M             ;[L]=STRING LENGTH
  6886  010270' 001000  000046          34640           MVI     H,0             ;[H,L] GET CHARACTER COUNT
  6887  010271' 000000  000000
  6888  010272' 001000  000011          34660           DAD     B               ;[H,L]=POINTER BEYOND STRING
  6889  010273' 001000  000120          34680           MOV     D,B
  6890  010274' 001000  000131          34700           MOV     E,C             ;[D,E]=ORIGINAL POINTER
  6891  010275' 001000  000053          34720           DCX     H               ;DON'T MOVE ONE BEYOND STRING
  6892  010276' 001000  000104          34740           MOV     B,H             ;GET TOP OF STRING IN [B,C]
  6893  010277' 001000  000115          34760           MOV     C,L
  6894  010300' 001000  000052          34780           LHLD    FRETOP          ;GET TOP OF FREE SPACE
  6895  010301' 000000  001573'
  6896  010302' 000000  010227'
  6897  010303' 001000  000315          34800           CALL    BLTUC           ;MOVE STRING
  6898  010304' 000000  002010'
  6899  010305' 000000  010301'
  6900  010306' 001000  000341          34820           POP     H               ;GET BACK POINTER TO DESC.
  6901  010307' 001000  000161          34840           MOV     M,C             ;SAVE FIXED ADDR
  6902  010310' 001000  000043          34860           INX     H               ;MOVE POINTER
  6903  010311' 001000  000160          34880           MOV     M,B             ;HIGH PART
  6904  010312' 001000  000151          34900           MOV     L,C
  6905  010313' 001000  000140          35920           MOV     H,B             ;[H,L]=NEW POINTER
  6906  010314' 001000  000053          35940           DCX     H               ;FIX UP FRETOP
  6907  010315' 001000  000303          35960           JMP     FNDVAR          ;AND TRY TO FIND HIGH AGAIN
  6908  010316' 000000  010045'
  6909  010317' 000000  010304'
  6910
  6911                                  35000   ;
  6912                                  35020   ; THE FOLLOWING ROUTINE CONCATENATES TWO STRINGS
  6913                                  35040   ; THE FACLO CONTAINS THE FIRST ONE AT THIS POINT.
  6914                                  35060   ; [H,L] POINTS BEYOND THE + SIGN AFTER IT
  6915                                  35080   ;
  6916  010320' 001000  000305          35100   CAT:    PUSH    B               ;PUT OLD PRECEDENCE BACK ON
  6917  010321' 001000  000345          35120           PUSH    H               ;SAVE TEXT POINTER
  6918  010322' 001000  000052          35140           LHLD    FACLO           ;GET POINTER TO STRING DESC.
  6919  010323' 000000  001637'
  6920  010324' 000000  010316'
  6921  010325' 001000  000343          35160           XTHL                    ;SAVE ON STACK & GET TEXT POINTER BACK
  6922  010326' 001000  000315          35180           CALL    EVAL            ;EVALUATE REST OF FORMULA
  6923  010327' 000000  006061'
  6924  010330' 000000  010323'
  6925  010331' 001000  000343          35200           XTHL                    ;SAVE TEXT POINTER, GET BACK DESC.
  6926  010332' 001000  000315          35220           CALL    CHKSTR
  6927  010333' 000000  006230*
  6928  010334' 000000  010327'


-- PAGE 146 --------------------------------------------------------------


BASIC MCS 8080  GATES/ALLEN/DAVIDOFF    MACRO 47(113) 03:12 10-SEP-75 PAGE 26-9
F3      MAC      6-SEP-64 03:11         STRING FUNCTIONS

  6929  010335' 001000  000176          35240           MOV     A,M
  6930  010336' 001000  000345          35260           PUSH    H               ;SAVE DESC. POINTER.
  6931  010337' 001000  000052          35280           LHLD    FACLO           ;GET POINTER TO 2ND DESC.
  6932  010340' 000000  001637'
  6933  010341' 000000  010333'
  6934  010342' 001000  000345          35300           PUSH    H               ;SAVE IT
  6935  010343' 001000  000206          35320           ADD     M               ;ADD TWO LENGTHS TOGETHER
  6936  010344' 001000  000036          35340           MVI     E,ERRLS         ;SEE IF RESULT .LT. 256
  6937  010345' 000000  000017
  6938  010346' 001000  000332          35360           JC      ERROR           ;ERROR "LONG STRING"
  6939  010347' 000000  002102'
  6940  010350' 000000  010340'
  6941  010351' 001000  000315          35380           CALL    STRINI          ;GET INITIAL STRING
  6942  010352' 000000  007624'
  6943  010353' 000000  010347'
  6944  010354' 001000  000321          35400           POP     D               ;GET 2ND DESC.
  6945  010355' 001000  000315          35420           CALL    FRETMP
  6946  010356' 000000  010440'
  6947  010357' 000000  010352'
  6948  010360' 001000  000343          35440           XTHL                    ;SAVE POINTER TO IT
  6949  010361' 001000  000315          35460           CALL    FRETM2          ;FREE UP 1ST TEMP
  6950  010362' 000000  010437'
  6951  010363' 000000  010356'
  6952  010364' 001000  000345          35480           PUSH    H               ;SAVE DESC. POINTER (FIRST)
  6953  010365' 001000  000052          35500           LHLD    DSCTMP+2        ;GET POINTER TO FIRST
  6954  010366' 000000  001572'
  6955  010367' 000000  010362'
  6956  010370' 001000  000353          35520           XCHG                    ;IN [D,E]
  6957  010371' 001000  000315          35540           CALL    MOVINS          ;MOVE IN THE FIRST STRING
  6958  010372' 000000  010407'
  6959  010373' 000000  010366'
  6960  010374' 001000  000315          35560           CALL    MOVINS          ;AND THE SECOND
  6961  010375' 000000  010407'
  6962  010376' 000000  010372'
  6963  010377' 001000  000041          35580           LXI     H,TSTOP         ;CAT REENTERS FORMULA EVALUATION AT TSTOP
  6964  010400' 000000  005357'
  6965  010401' 000000  010375'
  6966  010402' 001000  000343          35600           XTHL
  6967  010403' 001000  000345          36620           PUSH    H               ;TEXT POINTER OFF FIRST
  6968  010404' 001000  000303          36640           JMP     PUTNEW          ;THEN RETURN ADDRESS OF TSTOP
  6969  010405' 000000  007705'
  6970  010406' 000000  010400'
  6971
  6972
  6973  010407' 001000  000341          35700   MOVINS: POP     H               ;GET RETURN ADDR
  6974  010410' 001000  000343          35720           XTHL                    ;PUT BACK, BUT GET DESC.
  6975                                  35740   IFE     LENGTH-2,<
  6976  010411' 001000  000176          35760           MOV     A,M             ;[A]=STRING LENGTH
  6977  010412' 001000  000043          35780           INX     H
  6978  010413' 001000  000116          35800           MOV     C,M             ;[B,C]=POINTER AT STRING DATA
  6979  010414' 001000  000043          35820           INX     H
  6980  010415' 001000  000106          35840           MOV     B,M
  6981  010416' 001000  000157          35860           MOV     L,A>            ;[L]=STRING LENGTH


-- PAGE 147 --------------------------------------------------------------


BASIC MCS 8080  GATES/ALLEN/DAVIDOFF    MACRO 47(113) 03:12 10-SEP-75 PAGE 26-10
F3      MAC      6-SEP-64 03:11         STRING FUNCTIONS

  6982                                  35880   IFN     LENGTH-2,<
  6983                                  35900           PUSHM                   ;GET LENGTH ON STACK
  6984                                  35920           PUSHM                   ;AND POINTER
  6985                                  35940           POP     B               ;TEXT POINTER HERE
  6986                                  35960           POP     H>              ;CHARACTER COUNT HERE
  6987  010417' 001000  000054          35980   MOVSTR: INR     L
  6988  010420' 001000  000055          36000   MOVLP:  DCR     L               ;SET CC'S
  6989  010421' 001000  000310          36020           RZ                      ;0 NO BYTE TO MOVE
  6990  010422' 001000  000012          36040           LDAX    B               ;GET CHAR
  6991  010423' 001000  000022          36060           STAX    D               ;SAVE IT
  6992  010424' 001000  000003          36080           INX     B               ;MOVE POINTERS
  6993  010425' 001000  000023          36100           INX     D
  6994  010426' 001000  000303          36120           JMP     MOVLP           ;KEEP DOING IT
  6995  010427' 000000  010420'
  6996  010430' 000000  010405'
  6997                                  36140   ;
  6998                                  36160   ; FRETMP IS PASSED A POINTER TO A STRING DESCRIPTOR IN [D,E]
  6999                                  36180   ; THIS VALUE IS RETURNED IN [H,L]. ALL THE OTHER REGISTERS ARE MODIFIED.
  7000                                  36200   ; A CHECK TO IS MADE TO SEE IF THE STRING DESCRIPTOR [D,E] POINTS
  7001                                  36220   ; TO IS THE LAST TEMPORARY DESCRIPTOR ALLOCATED BY PUTNEW.
  7002                                  36240   ; IF SO, THE TEMPORARY IS FREED UP BY THE UPDATING OF TEMPPT.
  7003                                  36260   ; IF A TEMPORARY IS FREED UP, A FURTHER CHECK IS MADE TO SEE IF THE
  7004                                  36280   ; STRING DATA THAT THAT STRING TEMPORARY POINTED TO IS THE
  7005                                  36300   ; LOWEST PART OF THE STRING SPACE IN USE.
  7006                                  36320   ; IF SO, FRETMP IS UPDATED TO REFLECT THE FACT THAT THAT SPACE IS NO
  7007                                  36340   ; LONGER IS USE. THIS CAUSES DIFFICULTY FOR ASSIGNMENT ("LET") BECAUSE
  7008                                  36360   ; THOUGH A TEMPORARY IS BEING FREED UP, NAMELY THE VALUE TO THE RIGHT
  7009                                  36380   ; OF THE EQUAL SIGN IN THE "LET", THE ACTUAL DATA
  7010                                  36400   ; IS STILL ACTIVE DATA SINCE A VARIABLE IS BEING SET UP TO POINT
  7011                                  36420   ; AT IT. "LET" FOOLS FRETMP BY SETTING THE LENGTH OF THE
  7012                                  36440   ; TEMPORARY TO ZERO TEMPORARILY.
  7013                                  36460   ;
  7014  010431' 001000  000315          36480   FRESTR: CALL    CHKSTR          ;MAKE SURE ITS A STRING
  7015  010432' 000000  010333*
  7016  010433' 000000  010427'
  7017  010434' 001000  000052          36500   FREFAC: LHLD    FACLO
  7018  010435' 000000  001637'
  7019  010436' 000000  010432'
  7020  010437' 001000  000353          36520   FRETM2: XCHG                    ;FREE UP THE TEMP IN THE FACLO
  7021  010440' 001000  000052          36540   FRETMP: LHLD    TEMPPT          ;GET TEMP POINTER
  7022  010441' 000000  001547'
  7023  010442' 000000  010435'
  7024  010443' 001000  000053          36560           DCX     H               ;LOOK AT WHAT IS IN THE LAST TEMP
  7025  010444' 001000  000106          36580           MOV     B,M             ;[B,C]=POINTER AT STRING
  7026  010445' 001000  000053          36600           DCX     H               ;DECREMENT TEMPPT BY STRSIZ
  7027  010446' 001000  000116          36620           MOV     C,M
  7028  010447' 001000  000053          36640           DCX     H
  7029                                  36660   IFN     LENGTH-2,<
  7030                                  36680           DCX     H>
  7031  010450' 001000  000347          36700           COMPAR                  ;SEE IF [D,E] POINT AT THE LAST
  7032  010451' 001000  000353          36720           XCHG                    ;RETURN WITH [H,L]
  7033                                  36740                                   ;POINTING AT CURRENT DESCRIPTOR
  7034  010452' 001000  000300          36760           RNZ                     ;RETURN NOW IF NOW FREEING DONE


-- PAGE 148 --------------------------------------------------------------


BASIC MCS 8080  GATES/ALLEN/DAVIDOFF    MACRO 47(113) 03:12 10-SEP-75 PAGE 26-11
F3      MAC      6-SEP-64 03:11         STRING FUNCTIONS

  7035  010453' 001000  000042          36780           SHLD    TEMPPT          ;UPDATE THE TEMP POINTER SINCE
  7036  010454' 000000  001547'
  7037  010455' 000000  010441'
  7038                                  36800                                   ;ITS BEEN DECREMENTED BY 4
  7039  010456' 001000  000325          36820           PUSH    D               ;SAVE [D,E] TO RETURN IN [H,L]
  7040  010457' 001000  000120          36840           MOV     D,B             ;[D,E]=POINTER AT STRING
  7041  010460' 001000  000131          36860           MOV     E,C
  7042  010461' 001000  000033          36880           DCX     D               ;SUBTRACT ONE
  7043  010462' 001000  000116          36900           MOV     C,M             ;[C]=LENGTH OF THE STRING FREED UP
  7044  010463' 001000  000052          36920           LHLD    FRETOP          ;SEE IF ITS THE FIRST
  7045  010464' 000000  001573'
  7046  010465' 000000  010454'
  7047                                  36940                                   ;ONE IN STRING SPACE
  7048  010466' 001000  000347          36960           COMPAR
  7049  010467' 001000  000302          36980           JNZ     NOTLST          ;NO SO DON'T ADD
  7050  010470' 000000  010477'
  7051  010471' 000000  010464'
  7052  010472' 001000  000107          37000           MOV     B,A             ;MAKE [B]=0
  7053  010473' 001000  000011          37020           DAD     B               ;ADD
  7054  010474' 001000  000042          37040           SHLD    FRETOP          ;AND UPDATE FRETOP
  7055  010475' 000000  001573'
  7056  010476' 000000  010470'
  7057  010477' 001000  000341          37060   NOTLST: POP     H               ;GET POINTER AT CURRENT DESCRIPTOR
  7058  010500' 001000  000311          37080           RET
  7059                                  37100   ;
  7060                                  37120   ; THE FUNCTION LEN($) RETURNS THE LENGTH OF THE
  7061                                  37140   ; STRING PASSED AS AN ARGUMENT
  7062                                  37160   ;
  7063  010501' 001000  000001          37180   LEN:    LXI     B,SNGFLT        ;CALL SNGFLT WHEN DONE
  7064  010502' 000000  007400'
  7065  010503' 000000  010475'
  7066  010504' 001000  000305          37200           PUSH    B               ;LIKE SO
  7067  010505' 001000  000315          37220   LEN1:   CALL    FRESTR          ;FREE UP TEMP POINTED TO BY FACLO
  7068  010506' 000000  010431'
  7069  010507' 000000  010502'
  7070  010510' 001000  000257          37240           XRA     A               ;FORCE NUMERIC FLAG
  7071  010511' 001000  000127          37260           MOV     D,A             ;SET HIGH OF [D,E] TO ZERO FOR VAL
  7072                                  37280   IFN     LENGTH-2,<
  7073                                  37300           STA     VALTYP>
  7074  010512' 001000  000176          37320           MOV     A,M
  7075  010513' 001000  000267          37340           ORA     A               ;SET CONDITION CODES ON LENGTH
  7076  010514' 001000  000311          37360           RET                     ;RETURN
  7077                                  37380   ;
  7078                                  37400   ; THE FOLLOWING IS THE ASC($) FUNCTION. IT RETURNS AN INTEGER
  7079                                  37420   ; WHICH IS THE DECIMAL ASCII EQUIVALENT
  7080                                  37440   ;
  7081  010515' 001000  000315          37460   ASC:    CALL    LEN1            ;SET UP ORIGINAL STR
  7082  010516' 000000  010505'
  7083  010517' 000000  010506'
  7084  010520' 001000  000312          37480           JNZ     FCERR           ;NULL STR, BAD ARG.
  7085  010521' 000000  010776'
  7086  010522' 000000  010516'
  7087  010523' 001000  000043          37500           INX     H               ;BUMP POINTER


-- PAGE 149 --------------------------------------------------------------


BASIC MCS 8080  GATES/ALLEN/DAVIDOFF    MACRO 47(113) 03:12 10-SEP-75 PAGE 26-12
F3      MAC      6-SEP-64 03:11         STRING FUNCTIONS

  7088                                  37520   IFN     LENGTH-2,<
  7089                                  37540           INX     H>              ;BUMP POINTER
  7090  010524' 001000  000367          37560           PUSHM                   ;GET ADDRESS
  7091  010525' 001000  000341          37580           POP     H               ;GET ADDR IN [H,L]
  7092  010526' 001000  000176          37600           MOV     A,M             ;GET FIRST CHAR
  7093  010527' 001000  000303          37620           JMP     SNGFLT          ;SNGFLT IT
  7094  010530' 000000  007400'
  7095  010531' 000000  010521'
  7096                                  37640   ;
  7097                                  37660   ; CHR$(#) CREATES A STRING WHICH CONTAINS AS ITS ONLY
  7098                                  37680   ; CHARACTER THE ASCII EQUIVALENT OF THE INTEGER ARG (#)
  7099                                  37700   ; WHICH MUCH BE .LT. 255.
  7100                                  37720   ;
  7101  010532' 001000  000076          37740   CHR$:   MVI     A,1             ;ONE CHARACTER STR
  7102  010533' 000000  000001
  7103  010534' 001000  000315          37760           CALL    STRINI          ;GET STRING IN DSCTMP
  7104  010535' 000000  007624'
  7105  010536' 000000  010530'
  7106  010537' 001000  000315          37780           CALL    CONINT          ;GET INTEGER IN RANGE
  7107  010540' 000000  011023'
  7108  010541' 000000  010535'
  7109  010542' 001000  000052          37800           LHLD    DSCTMP+2        ;GET ADDR OF STR
  7110  010543' 000000  001572'
  7111  010544' 000000  010540'
  7112  010545' 001000  000163          37820           MOV     M,E             ;SAVE ASCII BYTE
  7113  010546' 001000  000301          37840   FINBCK: POP     B               ;RETURN TO HIGHER LEVEL &
  7114                                  37860                                   ;SKIP THE CHKNUM CALL.
  7115  010547' 001000  000303          37880           JMP     PUTNEW          ;GO CALL PUTNEW
  7116  010550' 000000  007705'
  7117  010551' 000000  010543'
  7118                                  37900   ;
  7119                                  37920   ; THE FOLLOWING IS THE LEFT$($,#) FUNCTION.
  7120                                  37940   ; IT TAKES THE LEFTMOST # CHARS OF THE STR.
  7121                                  37960   ; IF # IS .GR. THAN THE LEN OF THE STR, IT RETURNS THE WHOLE STR.
  7122                                  37980   ;
  7123  010552' 001000  000315          38000   LEFT$:  CALL    PREAM           ;TEST THE PARAMETERS
  7124  010553' 000000  010764'
  7125  010554' 000000  010550'
  7126  010555' 001000  000257          38020           XRA     A               ;LEFT NEVER CHANGES STRING POINTER
  7127  010556' 001000  000343          38040   LEFT3:  XTHL                    ;SAVE THE TEXT POINTER
  7128  010557' 001000  000117          38060           MOV     C,A             ;OFFSET NOW IN [C]
  7129  010560' 001000  000345          38080   LEFT2:  PUSH    H               ;SAVE DESC. FOR  FRETMP
  7130  010561' 001000  000176          38100           MOV     A,M             ;GET STRING LENGTH
  7131  010562' 001000  000270          38120           CMP     B               ;ENTIRE STRING WANTED?
  7132  010563' 001000  000332          38140           JC      ALLSTR          ;IF #CHARS ASKED FOR.GE.LENGTH.YES
  7133  010564' 000000  010570'
  7134  010565' 000000  010553'
  7135  010566' 001000  000170          38160           MOV     A,B             ;GET TRUNCATED LENGTH OF STRING
  7136  010567' 001000  000021          38180           XWD     ^O1000,^O21     ;SKIP OVER MVI USING "LXI D,"
  7137  010570' 001000  000016          38200   ALLSTR: MVI     C,0             ;MAKE OFFSET ZERO
  7138  010571' 000000  000000
  7139  010572' 001000  000305          38220           PUSH    B               ;SAVE OFFSET ON STACK
  7140  010573' 001000  000315          38240           CALL    GETSPA          ;GET SPACE FOR NEW STRING


-- PAGE 150 --------------------------------------------------------------


BASIC MCS 8080  GATES/ALLEN/DAVIDOFF    MACRO 47(113) 03:12 10-SEP-75 PAGE 26-13
F3      MAC      6-SEP-64 03:11         STRING FUNCTIONS

  7141  010574' 000000  007772'
  7142  010575' 000000  010564'
  7143  010576' 001000  000301          38260           POP     B               ;GET BACK OFFSET
  7144  010577' 001000  000341          38280           POP     H               ;GET BACK DESC POINTER.
  7145  010600' 001000  000345          38300           PUSH    H               ;BUT KEEP ON STACK
  7146  010601' 001000  000043          38320           INX     H               ;MOVE TO STRING POINTER FIELD
  7147                                  38340   IFN     LENGTH-2,<
  7148                                  38360           INX     H>
  7149  010602' 001000  000106          38380           MOV     B,M             ;GET POINTER LOW
  7150  010603' 001000  000043          38400           INX     H               ;
  7151  010604' 001000  000146          38420           MOV     H,M             ;POINTER HIGH
  7152  010605' 001000  000150          38440           MOV     L,B             ;GET LOW IN  L
  7153  010606' 001000  000006          38460           MVI     B,0             ;GET READY TO ADD OFFSET TO POINTER
  7154  010607' 000000  000000
  7155  010610' 001000  000011          38480           DAD     B               ;ADD  IT
  7156  010611' 001000  000104          38500           MOV     B,H             ;GET OFFSET POINTER IN [B,C]
  7157  010612' 001000  000000          38520           MOV     C,L
  7158  010613' 001000  000115          38540           CALL    STRAD2          ;SAVE INFO IN DSCTMP
  7159  010614' 000000  007627'
  7160  010615' 000000  010574'
  7161  010616' 001000  000157          38560           MOV     L,A             ;GET#  OF CHARS TO  MOVE IN L
  7162  010617' 001000  000315          38580           CALL    MOVSTR          ;MOVE THEM IN
  7163  010620' 000000  010417'
  7164  010621' 000000  010614'
  7165  010622' 001000  000321          38600           POP     D               ;GET BACK DESC. POINTER
  7166  010623' 001000  000315          38620           CALL    FRETMP          ;FREE IT UP.
  7167  010624' 000000  010440'
  7168  010625' 000000  010620'
  7169  010626' 001000  000303          38640           JMP     PUTNEW          ;PUT TEMP IN TEMP LIST
  7170  010627' 000000  007705'
  7171  010630' 000000  010624'
  7172
  7173  010631' 001000  000315          38680   RIGHT$: CALL    PREAM           ;CHECK ARG
  7174  010632' 000000  010764'
  7175  010633' 000000  010627'
  7176  010634' 001000  000321          38700           POP     D               ;GET DESC. POINTER
  7177  010635' 001000  000325          38720           PUSH    D               ;SAVE BACK FOR LEFT
  7178  010636' 001000  000032          38740           LDAX    D               ;GET PRESENT LEN OF STR
  7179  010637' 001000  000220          38760           SUB     B               ;SUBTRACT 2ND PARM
  7180  010640' 001000  000303          38780           JMP     LEFT3           ;CONTINUE WITH LEFT CODE
  7181  010641' 000000  010556'
  7182  010642' 000000  010632'
  7183                                  38800   ;
  7184                                  38820   ; MID ($,#) RETURNS STR WITH CHARS FROM # POSITION
  7185                                  38840   ; ONWARD. IF # IS GT LEN($) THEN RETURN NULL STRING.
  7186                                  38860   ; MID ($,#,#) RETURNS STR WITH CHARS FROM # POSITION
  7187                                  38880   ; FOR #2 CHARS. IF @2 GOES PAST END OF STRING, RETURN
  7188                                  38900   ; AS MUCH AS POSSIBLE
  7189                                  38920   ;
  7190  010643' 001000  000353          38940   MID$:   XCHG                    ;PUT THE TEXT POINTER IN [H,L]
  7191  010644' 001000  000176          38960           MOV     A,M             ;GET THE FIRST CHARACTER
  7192  010645' 001000  000315          38980           CALL    PREAM2          ;GET OFFSET OFF STACK AND MAKE
  7193  010646' 000000  010767'


-- PAGE 151 --------------------------------------------------------------


BASIC MCS 8080  GATES/ALLEN/DAVIDOFF    MACRO 47(113) 03:12 10-SEP-75 PAGE 26-14
F3      MAC      6-SEP-64 03:11         STRING FUNCTIONS

  7194  010647' 000000  010641'
  7195                                  39000                                   ;SURE DOES NOT = 0
  7196  010650' 001000  000305          39020           PUSH    B               ;PUT OFFSET ON TO THE STACK
  7197  010651' 001000  000036          39040           MVI     E,255           ;IF TWO ARG GUY, TRUNCATE.
  7198  010652' 000000  000377
  7199  010653' 001000  000376          39060           CPI     ")"
  7200  010654' 000000  000051
  7201  010655' 001000  000312          39080           JZ      MID2            ;[E] SAYS USE ALL CHARS
  7202  010656' 000000  010665'
  7203  010657' 000000  010646'
  7204                                  39100                                   ;IF ONE ARGUMENT THIS IS CORRECT
  7205  010660' 001000  000317          39120           SYNCHK  44              ;COMMA? MUST DELINEATE 3RD ARG.
  7206  010661' 000000  000054
  7207  010662' 001000  000315          39140           CALL    GETBYT          ;GET ARGUMENT  IN  [E]
  7208  010663' 000000  011020'
  7209  010664' 000000  010656'
  7210  010665' 001000  000317          39160   MID2:   SYNCHK  ")"             ;MUST BE FOLLOWED BY )
  7211  010666' 000000  000051
  7212  010667' 001000  000361          39180           POP     PSW             ;GET OFFSET BACK IN A
  7213  010670' 001000  000343          39200           XTHL                    ;SAVE TEXT POINTER, GET DESC.
  7214  010671' 001000  000001          39220           LXI     B,LEFT2         ;WHERE TO RETURN TO.
  7215  010672' 000000  010560'
  7216  010673' 000000  010664'
  7217  010674' 001000  000305          39240           PUSH    B               ;GOES ON STACK
  7218  010675' 001000  000075          39260           DCR     A               ;SUB ONE FROM OFFSET
  7219  010676' 001000  000276          39280           CMP     M               ;POINTER PAST END OF STR?
  7220  010677' 001000  000006          39300           MVI     B,0             ;ASSUME NULL LENGTH STR
  7221  010700' 000000  000000
  7222  010701' 001000  000320          39320           RNC                     ;YES, JUST USE NULL STR
  7223  010702' 001000  000117          39340           MOV     C,A             ;SAVE OFFSET OF CHARACTER POINTER
  7224  010703' 001000  000176          39360           MOV     A,M             ;GET PRESENT LEN OF STR
  7225  010704' 001000  000221          39380           SUB     C               ;SUBTRACT INDEX (2ND ARG)
  7226  010705' 001000  000273          39400           CMP     E               ;IS IT TRUNCATION
  7227  010706' 001000  000107          39420           MOV     B,A             ;GET CALCED LENGTH IN B
  7228  010707' 001000  000330          39440           RC                      ;IF NOT USE PARTIAL STR
  7229  010710' 001000  000103          39460           MOV     B,E             ;USE TRUNCATED LENGTH
  7230  010711' 001000  000311          39480           RET>                    ;RETURN TO LEFT2
  7231                                  39500   IFN LENGTH,<
  7232                                  39520   ;
  7233                                  39540   ; THE FOLLOWING FUNCTIONS ALLOW THE
  7234                                  39560   ; USER FULL ACCESS TO THE ALTAIR I/O PORTS
  7235                                  39580   ; INP(CHANNEL#) RETURNS AN INTEGER WHICH IS THE STATUS
  7236                                  39600   ; OF THE CHANNEL. OUT CHANNEL#,VALUE PUTS OUT THE INTEGER
  7237                                  39620   ; VALUE ON CHANNEL #. IT IS A STATEMENT, NOT A FUNCTION.
  7238                                  39640   ;
  7239  010712' 001000  000315          39660   FNINP:  CALL    CONINT          ;GET INTEGER CHANNEL #
  7240  010713' 000000  011023'
  7241  010714' 000000  010672'
  7242  010715' 001000  000062          39680           STA     INPWRD+1        ;GET INP INSTR
  7243  010716' 000000  010721'
  7244  010717' 000000  010713'
  7245  010720' 001000  000333          39700   INPWRD: IN      0               ;THE INP INSTR
  7246  010721' 000000  000000


-- PAGE 152 --------------------------------------------------------------


BASIC MCS 8080  GATES/ALLEN/DAVIDOFF    MACRO 47(113) 03:12 10-SEP-75 PAGE 26-15
F3      MAC      6-SEP-64 03:11         STRING FUNCTIONS

  7247  010722' 001000  000303          39720           JMP     SNGFLT          ;SNGFLT RESULT
  7248  010723' 000000  007400'
  7249  010724' 000000  010716'
  7250                                                                          ;GET READY
  7251  010725' 001000  000315          39760   FNOUT:  CALL    SETIO
  7252  010726' 000000  011003'
  7253  010727' 000000  010723'
  7254  010730' 001000  000323          39780   OUTWRD: OUT     0               ;DO IT
  7255  010731' 000000  000000
  7256  010732' 001000  000311          39800           RET                     ;AND THATS ALL
  7257                                  39820   ;
  7258                                  39840   ; THE WAIT CHANNEL#,MASK,MASK2,WAITS UNTIL THE STATUS
  7259                                  39860   ; RETURNED BY CHANNEL# IS NON ZERO WHEN XORED WITH MASK2
  7260                                  39880   ; AND THEN ANDED WITH MASK. IF MASK2 IS NOT PRESENT IT IS ASSUMED
  7261                                  39900   ; TO BE ZERO
  7262                                  39920   ;
  7263  010733' 001000  000315          39940   FNWAIT: CALL    SETIO           ;SET UP FOR WAIT
  7264  010734' 000000  011003'
  7265  010735' 000000  010726'
  7266  010736' 001000  000365          39960           PUSH    PSW             ;SAVE THE MASK
  7267  010737' 001000  000036          39980           MVI     E,0             ;DEFAULT MASK2 TO ZERO
  7268  010740' 000000  000000
  7269  010741' 001000  000053          40000           DCX     H
  7270  010742' 001000  000327          40020           CHRGET                  ;SEE IF THE STATEMENT ENDED
  7271  010743' 001000  000312          40040           JZ      NOTTHR          ;IF NO THIRD ARGUMENT SKIP THIS
  7272  010744' 000000  010753'
  7273  010745' 000000  010734'
  7274  010746' 001000  000317          40060           SYNCHK  44              ;MAKE SURE THERE IS A ","
  7275  010747' 000000  000054
  7276  010750' 001000  000315          40080           CALL    GETBYT
  7277  010751' 000000  011020'
  7278  010752' 000000  010744'
  7279  010753' 001000  000301          40100   NOTTHR: POP     B               ;REGET THE "AND" MASK
  7280  010754' 001000  000333          40120   STAINP: IN      0               ;THE INPUT INSTR
  7281  010755' 000000  000000
  7282  010756' 001000  000253          40140           XRA     E               ;XOR WITH MASK2
  7283  010757' 001000  000240          40160           ANA     B               ;AND WITH MASK
  7284  010760' 001000  000312          40180           JZ      STAINP          ;LOOP UNTIL RESULT IS NON-ZERO
  7285  010761' 000000  010754'
  7286  010762' 000000  010751'
  7287                                  40200                                   ;NOTE: THIS LOOP CANNOT BE CONTROL-C'ED
  7288                                  40220                                   ;UNLESS THE WAIT IS BEING DONE ON CHANNEL
  7289                                  40240                                   ;ZERO. HOWEVER A RESTART AT 0 IS OK.
  7290  010763' 001000  000311          40260           RET>
  7291                                  40280   IFN     STRING,<
  7292                                  40300   ;USED BY RIGHT$ AND LEFT$ FOR PARAMETER CHECKING AND SETUP
  7293  010764' 001000  000353          40320   PREAM:  XCHG                    ;PUT THE TEXT POINTER IN [H,L]
  7294  010765' 001000  000317          40340           SYNCHK  ")"             ;PARAM LIST SHOULD END
  7295  010766' 000000  000051
  7296                                  40360   ;USED BY MID$ FOR PARAMETER CHECKING AND SETUP
  7297  010767' 001000  000301          40380   PREAM2: POP     B               ;GET RETURN ADDR OFF STACK
  7298  010770' 001000  000321          40400           POP     D               ;GET LENGTH OF ARG OFF STACK
  7299  010771' 001000  000305          40420           PUSH    B               ;SAVE RETURN ADDR BACK ON


-- PAGE 153 --------------------------------------------------------------


BASIC MCS 8080  GATES/ALLEN/DAVIDOFF    MACRO 47(113) 03:12 10-SEP-75 PAGE 26-16
F3      MAC      6-SEP-64 03:11         STRING FUNCTIONS

  7300  010772' 001000  000103          40440           MOV     B,E             ;SAVE INIT LENGTH
  7301  010773' 001000  000004          40460           INR     B
  7302  010774' 001000  000005          40480           DCR     B               ;SEE IF EQUAL TO ZERO
  7303                                  40500   IFE     LENGTH-2,<
  7304  010775' 001000  000300          40520           RNZ
  7305                                  40536   ILLFUN:
  7306  010776' 001000  000036          40540   FCERR:  MVI     E,ERRFC
  7307  010777' 000000  000005
  7308  011000' 001000  000303          40560           JMP     ERROR>
  7309  011001' 000000  002102'
  7310  011002' 000000  010761'
  7311                                  40580   IFN     LENGTH-2,<
  7312                                  40600           JZ      FCERR           ;IT MUST NOT BE 0
  7313                                  40620           RET>
  7314                                  40640   IFN     LENGTH,<
  7315  011003' 001000  000315          40660   SETIO:  CALL    GETBYT          ;GET INTEGER CHANNEL NUMBER IN [A]
  7316  011004' 000000  011020'
  7317  011005' 000000  011001'
  7318  011006' 001000  000062          40680           STA     STAINP+1        ;SETUP "WAIT"
  7319  011007' 000000  010755'
  7320  011010' 000000  011004'
  7321  011011' 001000  000062          40700           STA     OUTWRD+1        ;SETUP "OUT"
  7322  011012' 000000  010731'
  7323  011013' 000000  011007'
  7324  011014' 001000  000317          40720           SYNCHK  44              ;MAKE SURE THERE IS A COMMA
  7325  011015' 000000  000054
  7326  011016' 001000  000006          40740           XWD     ^O1000,6>       ;"MVI B," AROUND THE CHRGET
  7327                                  40760   IFN     STRING!LENGTH,<
  7328  011017' 001000  000327          40780   GTBYTC: CHRGET
  7329                                  40800   IFE     LENGTH-2,<
  7330  011020' 001000  000315          40820   GETBYT: CALL    FRMEVL
  7331  011021' 000000  005336'
  7332  011022' 000000  011012'
  7333  011023' 001000  000345          40840   CONINT: PUSH    H
  7334  011024' 001000  000315          40860           CALL    FRCINT
  7335  011025' 000000  006441*
  7336  011026' 000000  011021'
  7337  011027' 001000  000353          40880           XCHG
  7338  011030' 001000  000341          40900           POP     H>
  7339                                  40920   IFN     LENGTH-2,<
  7340                                  40940   GETBYT: CALL    FRMNUM          ;READ FORMULA INTO THE FAC.
  7341                                  40960   CONINT: CALL    POPINT>         ;CONVERT THE FAC TO A SINGLE BYTE INTEGER
  7342  011031' 001000  000172          40980           MOV     A,D             ;SHOULD BE .LT. 255
  7343  011032' 001000  000267          41000           ORA     A               ;SET CC'S
  7344  011033' 001000  000302          41020           JNZ     FCERR           ;WASN'T ERROR
  7345  011034' 000000  010776'
  7346  011035' 000000  011025'
  7347  011036' 001000  000053          41040           DCX     H               ;ACTUALLY FUNCTIONS CAN GET HERE
  7348                                  41060                                   ;WITH BAD [H,L] BUT NOT SERIOUS
  7349                                  41080                                   ;SET CONDITION CODES ON TERMINATOR
  7350  011037' 001000  000327          41100           CHRGET
  7351  011040' 001000  000173          41120           MOV     A,E             ;RETURN THE RESULT IN [A] AND [E]
  7352  011041' 001000  000311          41140           RET>


-- PAGE 154 --------------------------------------------------------------


BASIC MCS 8080  GATES/ALLEN/DAVIDOFF    MACRO 47(113) 03:12 10-SEP-75 PAGE 26-17
F3      MAC      6-SEP-64 03:11         STRING FUNCTIONS

  7353
  7354                                  41180   IFN     STRING,<
  7355                                  41200   ;
  7356                                  41202   ; THE VAL FUNCTION TAKES A STRING AND TURN IT INTO
  7357                                  41204   ; A NUMBER BY INTERPRETING THE ASCII DIGITS. ETC...
  7358                                  41206   ; EXCEPT FOR THE PROBLEM THAT A TERMINATOR MUST BE SUPPLIED
  7359                                  41208   ; BY REPLACING THE CHARACTER BEYOND THE STRING, VAL
  7360                                  41210   ; IS MERELY A CALL TO FLOATING INPUT (FIN)
  7361                                  41212   ;
  7362  011042' 001000  000315          41220   VAL:    CALL    LEN1            ;DO SETUP, SET RESULT=REAL
  7363  011043' 000000  010505'
  7364  011044' 000000  011034'
  7365  011045' 001000  000312          41240           JZ      ZERO            ;RETURN ZERO IF NULL
  7366  011046' 000000  000000*
  7367  011047' 000000  011043'
  7368  011050' 001000  000137          41260           MOV     E,A             ;GET LENGTH OF STR
  7369                                  41270   IFN     LENGTH-2,<
  7370                                  41280           INX     H>              ;THIS IS ALL A KLUDGE
  7371  011051' 001000  000043          41300           INX     H               ;TO HANDLE THE FACT THE IF
  7372  011052' 001000  000367          41320           PUSHM                   ;TWO STRINGS "1" AND "2"
  7373  011053' 001000  000140          41340           MOV     H,B             ;ARE STORED NEXT TO EACH OTHER
  7374  011054' 001000  000151          41360           MOV     L,C             ;AND FIN IS CALLED POINTING TO
  7375  011055' 001000  000031          41380           DAD     D               ;THE FIRST TWELVE WILL BE RETURNED
  7376  011056' 001000  000106          41400           MOV     B,M             ;THE IDEA IS TO STORE 0 IN THE
  7377  011057' 001000  000162          41420           MOV     M,D             ;STRING BEYOND THE ONE VAL
  7378  011060' 001000  000343          41440           XTHL                    ;IS BEING CALLED ON
  7379  011061' 001000  000305          41460           PUSH    B               ;THE FIRST CHARACTER OF THE NEXT STRING
  7380  011062' 001000  000176          41480           MOV     A,M             ;GET FIRST CHARACTER OF ARGUMENT
  7381  011063' 001000  000315          41500           CALL    FIN             ;TURN IT INTO A NUMBER IN THE FAC
  7382  011064' 000000  006103*
  7383  011065' 000000  011046'
  7384  011066' 001000  000000          41520           POP     B               ;GET THE MODIFIED CHARACTER OF THE NEXT
  7385                                  41540                                   ;STRING INTO [B]
  7386  011067' 001000  000341          41560           POP     H               ;GET THE POINTER TO THE MODIFIED CHARACTER
  7387  011070' 001000  000160          41580           MOV     M,B             ;RESTORE THE CHARACTER
  7388                                  41600                                   ;IF STRING IS THE HIGHEST IN STRING SPACE
  7389                                  41620                                   ;WE ARE MODIFYING [MEMSIZ] AND
  7390                                  41640                                   ;THIS IS WHY [MEMSIZ] CAN'T BE USED TO STORE
  7391                                  41660                                   ;STRING DATA BECAUSE WHAT IF THE
  7392                                  41680                                   ;USER TOOK VAL OFF THAT HIGH STRING
  7393  011071' 001000  000311          41700           RET>
  7394
  7395                                  41740   PAGE


-- PAGE 155 --------------------------------------------------------------


BASIC MCS 8080  GATES/ALLEN/DAVIDOFF    MACRO 47(113) 03:12 10-SEP-75 PAGE 27
F3      MAC      6-SEP-64 03:11         FANCY LIST,DELETE,EDIT,LLIST

  7396                                  41760   SUBTTL  FANCY LIST,DELETE,EDIT,LLIST
  7397                                  41780   IFE     LENGTH-2,<
  7398                                  41800   IFN     LPTSW,<
  7399                                  41820   LLIST:  MVI     A,1             ;GET NON ZERO VALUE
  7400                                  41840           STA     PRTFLG>         ;SAVE IN I/O FLAG
  7401  011072' 001000  000301          41860   LIST:   POP     B               ;GET RID OF NEWSTT RETURN ADDR
  7402  011073' 001000  000315          41880           CALL    SCNLIN          ;SCAN LINE RANGE
  7403  011074' 000000  002333'
  7404  011075' 000000  011064'
  7405  011076' 001000  000305          41900           PUSH    B               ;SAVE POINTER TO 1ST LINE
  7406  011077' 001000  000341          41920   LIST4:  POP     H               ;GET POINTER TO LINE
  7407  011100' 001000  000321          41940           POP     D               ;GET MAX LINE # OFF STACK
  7408  011101' 001000  000367          41960           PUSHM                   ;PUSH LINK
  7409  011102' 001000  000170          41980           MOV     A,B             ;SEE IF END OF CHAIN
  7410  011103' 001000  000261          42000           ORA     C
  7411  011104' 001000  000301          42020           POP     B               ;GET LINK OFF STACK FOR ISCNTC
  7412  011105' 001000  000312          42040           JZ      READY           ;LAST LINE, STOP.
  7413  011106' 000000  002145'
  7414  011107' 000000  011074'
  7415                                  42060   IFN     LISTEN,<
  7416  011110' 001000  000315          42080           CALL    ISCNTC>         ;CHECK FOR CONTROL-C
  7417  011111' 000000  003460'
  7418  011112' 000000  011106'
  7419  011113' 001000  000305          42100           PUSH    B               ;SAVE LINK BACK ON
  7420  011114' 001000  000367          42120           PUSHM                   ;PUSH LINE #
  7421  011115' 001000  000343          42140           XTHL                    ;GET LINE # INTO [H,L]
  7422  011116' 001000  000353          42160           XCHG                    ;GET MAX LINE IN [H,L]
  7423  011117' 001000  000347          42180           COMPAR                  ;PAST LAST LINE IN RANGE?
  7424  011120' 001000  000301          42200           POP     B               ;TEXT POINTER TO [B,C]
  7425  011121' 001000  000332          42260           JC      STPRDY          ;IF PAST, THEN DONE LISTING.
  7426  011122' 000000  003144'
  7427  011123' 000000  011111'
  7428  011124' 001000  000343          42280           XTHL                    ;SAVE MAX ON BOTTOM OF STACK
  7429  011125' 001000  000345          42300           PUSH    H               ;SAVE LINK ON TOP
  7430  011126' 001000  000305          42320           PUSH    B               ;SAVE TEXT POINTER BACK
  7431  011127' 001000  000353          42340           XCHG                    ;GET LINE # IN [H,L]
  7432  011130' 001000  000315          42360           CALL    CRDO            ;DO CRLF TO START OUT
  7433  011131' 000000  004523'
  7434  011132' 000000  011122'
  7435                                  42380                                   ;AND WE WANT [H,L] ON THE STACK
  7436  011133' 001000  000315          42400           CALL    LINPRT          ;PRINT AS INT WITHOUT LEADING SPACE
  7437  011134' 000000  003361*
  7438  011135' 000000  011131'
  7439  011136' 001000  000076          42420           MVI     A," "
  7440  011137' 000000  000040
  7441  011140' 001000  000341          42440           POP     H
  7442  011141' 001000  000337          42460           OUTCHR                  ;PRINT A SPACE AFTER THE LINE #
  7443  011142' 001000  000315          42480           CALL    BUFLIN          ;UNPACK THE LINE INTO BUG
  7444  011143' 000000  011163'
  7445  011144' 000000  011134'
  7446  011145' 001000  000041          42500           LXI     H,BUF-1         ;POINT AT THE START OF THE UNPACKED CHARACTERS
  7447  011146' 000000  001430'
  7448  011147' 000000  011143'


-- PAGE 156 --------------------------------------------------------------


BASIC MCS 8080  GATES/ALLEN/DAVIDOFF    MACRO 47(113) 03:12 10-SEP-75 PAGE 27-1
F3      MAC      6-SEP-64 03:11         FANCY LIST,DELETE,EDIT,LLIST

  7449  011150' 001000  000006          42520           MVI     B,0             ;STOP ON ZERO ONLY
  7450  011151' 000000  000000
  7451  011152' 001000  000315          42540           CALL    STRLT3          ;LITERALIZE THE LINE STRING
  7452  011153' 000000  007642'
  7453  011154' 000000  011146'
  7454  011155' 001000  000315          42560           CALL    STRPRT          ;PRINT OUT THE CHARACTERS
  7455  011156' 000000  007746'
  7456  011157' 000000  011153'
  7457  011160' 001000  000303          42580           JMP     LIST4           ;PRINT ANOTHER LINE
  7458  011161' 000000  011077'
  7459  011162' 000000  011156'
  7460  011163' 001000  000001          42600   BUFLIN: LXI     B,BUF-1
  7461  011164' 000000  001430'
  7462  011165' 000000  011161'
  7463  011166' 001000  000026          42620           XWD     ^O1000,^O26     ;"MVI   D," AROUND THE NEXT BYTE
  7464  011167' 001000  000341          42640   PRIT4:  POP     H               ;RESTORE POINTER TO START OF TEXT
  7465  011170' 001000  000176          42660   PLOOP:  MOV     A,M             ;GET A CHARACTER FROM LINE.
  7466  011171' 001000  000003          42680           INX     B               ;ADVANCE STUFF COUNT
  7467  011172' 001000  000267          42700           ORA     A               ;IS IT A RESERVED WORD
  7468  011173' 001000  000043          42720           INX     H               ;INCREMENT POINTER INTO TEXT
  7469  011174' 001000  000002          42740           STAX    B               ;STORE A ZERO IF THE END
  7470  011175' 001000  000310          42760           RZ                      ;ZERO, END OF LINE.
  7471  011176' 001000  000362          42780           JP      PLOOP           ;REGULAR CHAR, JUST PRINT IT
  7472  011177' 000000  011170'
  7473  011200' 000000  011164'
  7474  011201' 001000  000376          42800           CPI     ELSETK          ;IF ITS "ELSE" DON'T PRINT THE COLON
  7475  011202' 000000  000220
  7476                                  42820                                   ;IN FRONT OF IT
  7477  011203' 001000  000314          42840           CZ      DCXBRT##        ;BACKUP STUFF COUNT TO ELIMINATE
  7478  011204' 000000  000000*
  7479  011205' 000000  011177'
  7480  011206' 001000  000326          42860           SUI     127             ;GET RID OF SIGN BIT AND ADD ONE
  7481  011207' 000000  000177
  7482  011210' 001000  000345          42880           PUSH    H               ;SAVE CURRENT POSIT
  7483  011211' 001000  000021          42900           LXI     D,RESLST        ;GET RESLIST POINTER.
  7484  011212' 000000  000172'
  7485  011213' 000000  011204'
  7486  011214' 001000  000325          42920   RESRCH: PUSH    D
  7487  011215' 001000  000365          42940           PUSH    PSW             ;SAVE THE RESERVED WORD NUMBER
  7488  011216' 001000  000032          42960   RESCR1: LDAX    D               ;GET CHARACTER FROM RESLST
  7489  011217' 001000  000023          42980           INX     D               ;BUMP RESLST POINTER
  7490  011220' 001000  000267          43000           ORA     A               ;TEST BITS
  7491  011221' 001000  000362          43020           JP      RESCR1          ;NOT AT END OF RESERVED WORD YET
  7492  011222' 000000  011216'
  7493  011223' 000000  011212'
  7494  011224' 001000  000361          43040           POP     PSW
  7495  011225' 001000  000075          43060           DCR     A               ;DECREMENT CHAR
  7496  011226' 001000  000341          43080           POP     H               ;POP START POINTER HERE
  7497  011227' 001000  000302          43100           JNZ     RESRCH          ;NOT AT END OF RESLST YET.
  7498  011230' 000000  011214'
  7499  011231' 000000  011222'
  7500                                  43120   ;HERE WHEN FOUND RIGHT RESERVED WORD
  7501  011232' 001000  000176          43140   PRIT3:  MOV     A,M             ;GET A CHARACTER FROM RESERVED WORD


-- PAGE 157 --------------------------------------------------------------


BASIC MCS 8080  GATES/ALLEN/DAVIDOFF    MACRO 47(113) 03:12 10-SEP-75 PAGE 27-2
F3      MAC      6-SEP-64 03:11         FANCY LIST,DELETE,EDIT,LLIST

  7502  011233' 001000  000267          43160           ORA     A               ;SET CONDITION CODES
  7503  011234' 001000  000002          43180           STAX    B
  7504  011235' 001000  000372          43200           JM      PRIT4
  7505  011236' 000000  011167'
  7506  011237' 000000  011230'
  7507  011240' 001000  000003          43220           INX     B
  7508  011241' 001000  000043          43240           INX     H               ;BUMP RESLST POINTER
  7509  011242' 001000  000303          43260           JMP     PRIT3           ;PRINT THE REST
  7510  011243' 000000  011232'
  7511  011244' 000000  011236'
  7512                                  43280   ;
  7513                                  43300   ; THE FOLLOWING CODE IS FOR THE DELETE RANGE
  7514                                  43320   ; COMMAND. BEFORE THE LINES ARE DELETED, 'OK'
  7515                                  43340   ; IS TYPED.
  7516                                  43360   ;
  7517  011245' 001000  000315          43380   DELETE: CALL    SCNLIN          ;SCAN LINE RANGE
  7518  011246' 000000  002333'
  7519  011247' 000000  011243'
  7520  011250' 001000  000321          43400           POP     D               ;POP MAX LINE OFF STACK
  7521  011251' 001000  000305          43420           PUSH    B               ;SAVE POINTER TO START OF 1ST LINE
  7522  011252' 001000  000315          43440           CALL    FNDLIN          ;FIND THE LAST LINE
  7523  011253' 000000  002371'
  7524  011254' 000000  011246'
  7525  011255' 001000  000301          43460           POP     B               ;GET POINTER TO FIRST IN [B,C]
  7526  011256' 001000  000345          43480           PUSH    H               ;SAVE THE POINTER TO THE NEXT LINE
  7527  011257' 001000  000041          43500           LXI     H,REDDY         ;PRINT "OK" PREMATURELY
  7528  011260' 000000  001725'
  7529  011261' 000000  011253'
  7530  011262' 001000  000315          43520           CALL    STROUT
  7531  011263' 000000  007743'
  7532  011264' 000000  011260'
  7533  011265' 001000  000041          43540           LXI     H,FINI          ;GO BACK TO FINI WHEN DONE
  7534  011266' 000000  002276'
  7535  011267' 000000  011263'
  7536  011270' 001000  000343          43560           XTHL                    ;[H,L]=POINTER TO THE NEXT LINE
  7537  011271' 001000  000353          43580   DEL:    XCHG                    ;[D,E] NOW HAVE THE POINTER TO THE LINE
  7538                                  43600                                   ;BEYOND THIS ONE
  7539  011272' 001000  000052          43620           LHLD    VARTAB          ;COMPACTIFYING TO VARTAB
  7540  011273' 000000  001621'
  7541  011274' 000000  011266'
  7542  011275' 001000  000032          43640   MLOOP:  LDAX    D
  7543  011276' 001000  000002          43660           STAX    B               ;SHOVING DOWN TO ELIMINATE A LINE
  7544  011277' 001000  000003          43680           INX     B
  7545  011300' 001000  000023          43700           INX     D
  7546  011301' 001000  000347          43720           COMPAR
  7547  011302' 001000  000322          43740           JNC     MLOOP           ;DONE COMPACTIFYING?
  7548  011303' 000000  011275'
  7549  011304' 000000  011273'
  7550  011305' 001000  000140          43760           MOV     H,B
  7551  011306' 001000  000151          43780           MOV     L,C
  7552  011307' 001000  000043          43800           INX     H               ;NEW VARTAB
  7553  011310' 001000  000042          43820           SHLD    VARTAB
  7554  011311' 000000  001621'


-- PAGE 158 --------------------------------------------------------------


BASIC MCS 8080  GATES/ALLEN/DAVIDOFF    MACRO 47(113) 03:12 10-SEP-75 PAGE 27-3
F3      MAC      6-SEP-64 03:11         FANCY LIST,DELETE,EDIT,LLIST

  7555  011312' 000000  011303'
  7556  011313' 001000  000311          43840           RET>
  7557                                  43860   PAGE


-- PAGE 159 --------------------------------------------------------------


BASIC MCS 8080  GATES/ALLEN/DAVIDOFF    MACRO 47(113) 03:12 10-SEP-75 PAGE 28
F3      MAC      6-SEP-64 03:11         DISK CODE

  7558                                  43880   SUBTTL  DISK CODE
  7559                                  43900   IFN     DSKFUN,<
  7560                                  43920   ;
  7561                                  43940   ; THE STATEMENT DSKO$ STRING,SECTOR WRITES
  7562                                  43960   ; THE STRING (UP TO 132 DECIMAL CHARS
  7563                                  43980   ; ON THE SECTOR SPECIFIED.
  7564                                  44000   ; DSKI$ (SECTOR) IS A STRING FUNCTION THAT
  7565                                  44020   ; RETURNS THE 133 BYTE STRING STORED ON SECTOR.
  7566                                  44040   ;
  7567                                  44060   DSKO$:  CALL    FRMEVL          ;EVALUATE FORMULA
  7568                                  44080           SYNCHK  44              ;FOLLOWED BY COMMA
  7569                                  44100           PUSH    H               ;SAVE TEXT POINTER
  7570                                  44120           CALL    FRESTR          ;FREE UP THE FACLO
  7571                                  44140           XTHL                    ;[H,L]=TXTPTR SAVE POINTER AT
  7572                                  44160                                   ;STRING DESCRIPTOR ON THE STACK
  7573                                  44180           CALL    GETBYT          ;EVALUATE 2ND ARG(SECTOR) IN [E]
  7574                                  44200           XTHL                    ;SAVE TEXT POINTER, GET DESC.
  7575                                  44220           PUSHM                   ;[C]=LENGTH [H,L]=POINTER
  7576                                  44240           PUSHM
  7577                                  44260           POP     H               ;[H,L] GET STRING POINTER
  7578                                  44280           POP     B
  7579                                  44300           MOV     B,A             ;SECTOR NUMBER INTO [B]
  7580                                  44320           MVI     A,^D137
  7581                                  44340           SUB     C
  7582                                  44360           JC      FCERR           ;STRING TOO LONG
  7583                                  44380           INR     A
  7584                                  44400           MOV     E,A             ;NUMBER OF ZEROS+1
  7585                                  44420           MVI     D,64            ;SETUP A MASK
  7586                                  44440           INR     C
  7587                                  44460           MVI     A,4             ;LOAD THE HEAD
  7588                                  44480           OUT     9               ;TO DISK STATUS
  7589                                  44500   SECLP:  IN      ^O11            ;GET SECTOR STATUS
  7590                                  44520           RAR                     ;TEST FOR START OF SECTOR
  7591                                  44540           JNC     SECLP           ;KEEP WAITING
  7592                                  44560           ANI     63              ;START OF SECTOR, RIGHT ONE
  7593                                  44580           CMP     B               ;COMPARE TO FIND OUT
  7594                                  44600           JNZ     SECLP           ;IF NOT
  7595                                  44620           MVI     A,128           ;WRITE ENABLE DISK
  7596                                  44640           OUT     9
  7597                                  44660           MVI     8,255           ;ALL ONE'S ALWAYS WRITTEN FIRST
  7598                                  44680   WRITOK: IN      8               ;GET STATUS
  7599                                  44700           ANA     D               ;WRITE OK
  7600                                  44720           JZ      WRITOK          ;NO, MORE LOOPING.
  7601                                  44740           MOV     A,B             ;GET CHARACTER TO WRITE
  7602                                  44760           OUT     10              ;SEND IT OUT
  7603                                  44780           DCR     C               ;TEST FOR NULL
  7604                                  44800           JZ      ZRLOP
  7605                                  44820   NOTYTD: IN      8               ;POLL
  7606                                  44840           ANA     D               ;MASK TEST
  7607                                  44860           JZ      NOTYTD          ;WAITING
  7608                                  44880           MOV     A,M             ;GET CHARACTER
  7609                                  44900           OUT     10
  7610                                  44920           DCR     C               ;DECREMENT CHARACTER COUNT


-- PAGE 160 --------------------------------------------------------------


BASIC MCS 8080  GATES/ALLEN/DAVIDOFF    MACRO 47(113) 03:12 10-SEP-75 PAGE 28-1
F3      MAC      6-SEP-64 03:11         DISK CODE

  7611                                  44940           INX     H
  7612                                  44960           JNZ     NOTYTD
  7613                                  44980   ZRLOP:  IN      8
  7614                                  45000           ANA     D
  7615                                  45020           JZ      ZRLOP
  7616                                  45040           XRA     A               ;PUT OUT A ZERO
  7617                                  45060           OUT     10
  7618                                  45080           DCR     E
  7619                                  45100           JNZ     ZRLOP
  7620                                  45120   TRUFIN: MVI     A,8             ;UNLOAD THE HEAD
  7621                                  45140           OUT     9
  7622                                  45160           POP     H
  7623                                  45180           RET                     ;DONE
  7624                                  45200
  7625                                  45220   DSKI$:  MVI     A,137           ;A LOT OF CHARACTERS ARE COMING
  7626                                  45240           CALL    STRINI          ;MAKE ROOM!
  7627                                  45260           CALL    CONINT          ;WHERE ARE THEY?
  7628                                  45280                                   ;SECTOR NOW IN [E]
  7629                                  45300           LHLD    DSCTMP+2        ;PLACE TO STORE THEM
  7630                                  45320           MVI     A,4             ;LOAD THE HEAD
  7631                                  45340           OUT     9
  7632                                  45360   SECLP2: IN      9               ;GET SECTOR INFO
  7633                                  45380           ORA     A               ;SEE IF BEGINNING OF SECTOR(READ)
  7634                                  45400           JP      SECLP2          ;IF NOT, KEEP WAITING
  7635                                  45420           RAR                     ;FIX UP SECTOR #
  7636                                  45440           ANI     63              ;GET SECTOR #
  7637                                  45460           CMP     E               ;IS IT THE ONE WE WAITED
  7638                                  45480           JNZ     SECLP2          ;TRY TO FIND IT
  7639                                  45500           MVI     C,137           ;GET # OF CHARS TO READ
  7640                                  45520   READOK: IN      8               ;GET DISK STATUS
  7641                                  45540           ORA     A               ;READY TO READ BYTE
  7642                                  45560           JP      READOK
  7643                                  45580           IN      10              ;READ THE STUFF
  7644                                  45600           MOV     M,A             ;SAVE IN STR
  7645                                  45620           INX     H               ;BUMP DEST POINTER
  7646                                  45640           DCR     C               ;LESS CHARS
  7647                                  45660           JNZ     READOK
  7648                                  45680           MVI     A,8             ;UNLOAD HEAD
  7649                                  45700           OUT     9
  7650                                  45720           JMP     FINBCK          ;USE CHR$ TO FINISH UP
  7651                                  45740
  7652                                  45760   PATCH:  BLOCK   20>
  7653                                  45780   PAGE


-- PAGE 161 --------------------------------------------------------------


BASIC MCS 8080  GATES/ALLEN/DAVIDOFF    MACRO 47(113) 03:12 10-SEP-75 PAGE 29
F3      MAC      6-SEP-64 03:11         CLOAD,CSAVE,CONSOLE

  7654                                  45800   SUBTTL  CLOAD,CSAVE,CONSOLE
  7655                                  45820   ;
  7656                                  45840   ; THE CONSOLE COMMAND ALLOWS THE USER TO CHANGE THE I/O CHANNEL
  7657                                  45860   ; THAT THE USER TERMINAL IS ON. BY GIVING THE COMMAND CONSOLE X
  7658                                  45880   ; WHERE X IS SOME INTEGER THE TERMINAL DEVICE WILL BE POLLED FROM
  7659                                  45900   ; CHANNELS X AND X+1. RESTARTING AT LOCATION ZERO FORCED THE TERMINAL
  7660                                  45920   ; TO BE ON CHANNEL ZERO AGAIN.
  7661                                  45940   ;
  7662                                  45960   IFN     CONSSW,<
  7663                                  45980   INTERNAL        CONSDO
  7664                                  46000   CONSDO: XRA     A               ;FORCE A CHANNEL ZERO CONSOLE
  7665                                  46020           CALL    CONS2           ;ON RESTART AT ZERO
  7666                                  46040           JMP     READY           ;TYPE "OK" AND ACCEPT INPUT
  7667                                  46060   CONSOL: CALL    GETBYT          ;FETCH AN INTEGER INTO [A]
  7668                                  46080           RNZ                     ;CHECK FOR A TERMINATOR
  7669                                  46100   CONS2:
  7670                                  46120   IFN     REALIO,<
  7671                                  46140           STA     CNLCA1          ;CHANGE ALL THE FLAG INPUT CHANNEL
  7672                                  46160           STA     CNLCA2
  7673                                  46180           STA     CNLCA3>
  7674                                  46200   IFN     LENGTH,<
  7675                                  46220           STA     CNLCA4>
  7676                                  46240           INR     A               ;[A]=DATA INPUT CHANNEL
  7677                                  46260           STA     CNLCB1          ;CHANGE ALL THE DATA INPUT CHANNEL
  7678                                  46280           STA     CNLCB2
  7679                                  46300           RET>
  7680                                  46320   IFN     CASSW,<
  7681                                  46340   ;
  7682                                  46360   ; CASIN READS A CHARACTER FROM THE CASSETTE
  7683                                  46380   ; INTO [A] WITHOUT MODIFYING ANYTHING BUT [A] AND THE CONDITION
  7684                                  46400   ; CODES
  7685                                  46420   ;
  7686                                  46440   CASIN:  IN      6               ;ROUTINE TO READ A CHARACTER
  7687                                  46460           ANI     IDONE           ;FROM THE CASSETTE INTO [A]
  7688                                  46480           JNZ     CASIN
  7689                                  46500           IN      7               ;READ THE DATA
  7690                                  46520           RET
  7691                                  46540   ;
  7692                                  46560   ; CASOUT OUTPUTS THE CHARACTER IN [A] TO THE CASSETTE
  7693                                  46580   ; WITHOUT MODIFYING ANYTHING
  7694                                  46600   ;
  7695                                  46620   TWOCSO: CALL    CASOUT          ;DOUBLE OUT OF [A]
  7696                                  46640   CASOUT: PUSH    PSW             ;ROUTINE TO WRITE A CHARACTER IN [A]
  7697                                  46660   CASLK:  IN      6               ;ONTO THE CASSETTE
  7698                                  46680           ANI     ODONE
  7699                                  46700           JNZ     CASLK           ;WAIT TILL CASSETTE IS READY
  7700                                  46720           POP     PSW             ;GET THE CHARACTER BACK
  7701                                  46740           OUT     7               ;OUTPUT THE CHARACTER
  7702                                  46760           RET
  7703                                  46780   ;
  7704                                  46800   ; THE CSAVE COMMAND WRITES A PROGRAM ONTO CASSETTE BY DUMPING
  7705                                  46820   ; BASICS CORE. THE HEADER IS THREE 211'S FOLLOWED BY A ONE
  7706                                  46840   ; CHARACTER FILE NAME. THE END IS THREE ZEROS IN A ROW.


-- PAGE 162 --------------------------------------------------------------


BASIC MCS 8080  GATES/ALLEN/DAVIDOFF    MACRO 47(113) 03:12 10-SEP-75 PAGE 29-1
F3      MAC      6-SEP-64 03:11         CLOAD,CSAVE,CONSOLE

  7707                                  46860   ;
  7708                                  46880   CSAVE:  PUSH    H
  7709                                  46900           MVI     A,211
  7710                                  46920           CALL    CASOUT          ;PUT OUT THE START BYTES
  7711                                  46940           CALL    TWOCSO          ;TWO MORE TIMES
  7712                                  46960           MOV     A,M             ;GET FILENAME
  7713                                  46980           CALL    CASOUT          ;STORE AFTER 211'S
  7714                                  47000           LHLD    TXTTAB          ;START OF PROGRAM
  7715                                  47020           XCHG
  7716                                  47040           LHLD    VARTAB          ;END OF PROGRAM
  7717                                  47060   LOPCSO: LDAX    D               ;GET A BYTE FROM THE PROGRAM
  7718                                  47080           INX     D
  7719                                  47100           CALL    CASOUT          ;SEND IT OUT TO THE CASSETTE
  7720                                  47120           COMPAR                  ;THE END?
  7721                                  47140           JNZ     LOPCSO          ;IF NOT,OUTPUT MORE
  7722                                  47160           CALL    TWOCSO          ;TWO MORE 0'S TO MARK THE END
  7723                                  47180           POP     H               ;RESTORE THE TEXT POINTER
  7724                                  47200           CHRGET                  ;GO PAST THE FILE NAME
  7725                                  47220           RET
  7726                                  47240   ;
  7727                                  47260   ; THE CLOAD COMMAND CLEARS CORE AND THEN READS A PROGRAM
  7728                                  47280   ; FROM CASSETTE. SINCE THE LINKS OF THE FILE ON CASSETTE
  7729                                  47300   ; WILL BE WRONG IF THE FILE WAS SAVED WITH A DIFFERENT VERSION
  7730                                  47320   ; BASIC FINI IS JUMPED TO. A SCRATCH IS DONE AT THE START SO RESTARTS
  7731                                  47340   ; AT 0 WON'T LEAVE THIGNS IN A GARBAGE STATE.
  7732                                  47360   ;
  7733                                  47380   CLOAD:  STA     FACLO           ;SAVE THE FILENAME
  7734                                  47400           CALL    SCRTCH          ;RESET EVERYTHING
  7735                                  47420   LOPCLK: MVI     B,3             ;NUMBER OF START CHARACTERS
  7736                                  47440   LOPCL2: CALL    CASIN           ;GET A CHARACTER
  7737                                  47460           CPI     211             ;START CHARACTER?
  7738                                  47480           JNZ     LOPCLK          ;NO RESET COUNT AND LOOK SOME MORE
  7739                                  47500           DCR     B               ;DECREMENT THE COUNT
  7740                                  47520           JNZ     LOPCL2          ;SEEN THREE YET?
  7741                                  47540           LXI     H,FACLO         ;POINT AT THE FILENAME
  7742                                  47560           CALL    CASIN           ;READ THIS FILENAME
  7743                                  47580           CMP     M               ;THE RIGHT FILE?
  7744                                  47600           JNZ     LOPCLK          ;IF NOT,START COMPLETELY OVER
  7745                                  47620           LHLD    TXTTAB          ;PLACE TO STORE THE PROGRAM
  7746                                  47640   DOCRS:  MVI     B,4             ;NUMBER OF ZEROS TO GET
  7747                                  47660                                   ;BEFORE STOPPING
  7748                                  47680   DOCSMR: CALL    CASIN           ;GET A CHARACTER
  7749                                  47700           MOV     M,A             ;STORE IT
  7750                                  47720           CALL    REASON          ;MAKE SURE THERE IS ROOM
  7751                                  47740           MOV     A,M             ;REGET THE CHARACTER
  7752                                  47760           ORA     A               ;A ZERO?
  7753                                  47780           INX     H
  7754                                  47800           JNZ     DOCRS           ;RESET # OF ZEROES SEEN
  7755                                  47820           DCR     B               ;DECREMENT NUMBER OF ZEROS
  7756                                  47840           JNZ     DOCSMR          ;SEEN FOUR?
  7757                                  47860           SHLD    VARTAB          ;SETUP END OF PROGRAM
  7758                                  47880           LXI     H,REDDY         ;TYPE "OK" PREMATURELY
  7759                                  47900           CALL    STROUT


-- PAGE 163 --------------------------------------------------------------


BASIC MCS 8080  GATES/ALLEN/DAVIDOFF    MACRO 47(113) 03:12 10-SEP-75 PAGE 29-2
F3      MAC      6-SEP-64 03:11         CLOAD,CSAVE,CONSOLE

  7760                                  47920           JMP     FINI>           ;FIX UP THE LINKS AND GO BACK TO MAIN
  7761                                  47940   PAGE


-- PAGE 164 --------------------------------------------------------------


BASIC MCS 8080  GATES/ALLEN/DAVIDOFF    MACRO 47(113) 03:12 10-SEP-75 PAGE 30
F3      MAC      6-SEP-64 03:11         PEEK AND POKE

  7762                                  47960   SUBTTL PEEK AND POKE
  7763                                  47980   IFN     LENGTH,<
  7764                                  48000   IFE     LENGTH-2,<
  7765  011314' 001000  000315          48020   PEEK:   CALL    FRCINT          ;GET AN INTEGER IN [H,L]
  7766  011315' 000000  011025*
  7767  011316' 000000  011311'
  7768  011317' 001000  000176          48040           MOV     A,M>            ;GET THE VALUE TO RETURN
  7769                                  48060   IFN     LENGTH-2,<
  7770                                  48080   PEEK:   CALL    POSINT          ;GET THE VALUE OF FACLO INTO [D,E]
  7771                                  48100           LDAX    D>              ;READ THE VALUE
  7772  011320' 001000  000303          48120           JMP     SNGFLT          ;AND FLOAT IT
  7773  011321' 000000  007400'
  7774  011322' 000000  011315'
  7775                                  48140   IFE     LENGTH-2,<
  7776  011323' 001000  000315          48160   POKE:   CALL    FRMEVL
  7777  011324' 000000  005336'
  7778  011325' 000000  011321'
  7779  011326' 001000  000345          48180           PUSH    H               ;SAVE THE TEXT POINTER
  7780  011327' 001000  000315          48200           CALL    FRCINT          ;GET INTEGER VALUE OF FAC IN [H,L]
  7781  011330' 000000  011315*
  7782  011331' 000000  011324'
  7783  011332' 001000  000343          48220           XTHL>                   ;GET BACK THE TEXT POINTER
  7784                                  48240   IFN     LENGTH-2,<
  7785                                  48260   POKE:   CALL    INTID2          ;READ LOCATION TO POKE
  7786                                  48280           PUSH    D>              ;SAVE THE LOCATION
  7787  011333' 001000  000317          48300           SYNCHK  44              ;CHECK FOR A COMMA
  7788  011334' 000000  000054
  7789  011335' 001000  000315          48320           CALL    GETBYT
  7790  011336' 000000  011020'
  7791  011337' 000000  011330'
  7792  011340' 001000  000321          48340           POP     D               ;GET THE ADDRESS BACK
  7793  011341' 001000  000022          48360           STAX    D               ;STORE IT AWAY
  7794  011342' 001000  000311          48380           RET>                    ;SCANNED EVERYTHING
  7795                                  48400   ;
  7796                                  48420   ; NOTE: IN THE 8K PEEK ONLY ACCEPTS POSITIVE NUMBERS UP TO 32767
  7797                                  48440   ; POKE WILL ONLY TAKE AN ADDRESS UP TO 32767 , NO
  7798                                  48460   ; FUDGING ALLOWED. THE VALUE IS UNSIGNED.
  7799                                  48480   ;
  7800                  011336'         48500   .C1=.P
  7801                                  48520   END

NO ERRORS DETECTED

PROGRAM BREAK IS 011343

10K CORE USED


-- PAGE 165 --------------------------------------------------------------


BASIC MCS 8080  GATES/ALLEN/DAVIDOFF    MACRO 47(113) 03:12 10-SEP-75 PAGE 31
F3      MAC      6-SEP-64 03:11         SYMBOL TABLE

A               000007          CNLCA1          003114' SIN     DCOMP           000702' EXT
ABS             000107' EXT     CNLCA2          003127' SIN     DCXBRT          011204' EXT
AFFF            000104          CNLCA3          003461' SIN     DDIV            000700' EXT
ALLLST          002354'         CNLCA4          003303' SIN     DEF             007411'
ALLSTR          010570'         CNLCB1          003124' SPD     DEFFIN          007521'
ANDORD          005571'         CNLCB2          003136' SPD     DEL             011271'
APPLOP          005642'         CNTCCN          003465'         DELETE          011245'
ARG             001654' INT     CNTWFL          001541' INT     DFACLO          001633' INT
ARGLO           001645' INT     COLIS           002705'         DIM             006500'
ARYSTR          010177'         COMPRT          004553'         DIMCON          006473'
ARYTAB          001623'         CONIA           006405' EXT     DIMFLG          001542'
ARYVA2          010137'         CONINT          011023'         DIRIS           003542'
ARYVAR          010140'         CONSIH          006041' EXT     DMULT           000676' EXT
ASC             010515'         CONSSW          000000  SPD     DNTCPY          004217'
ASPA2           004626'         CONT            003542'         DOASIG          005056'
ASPAC           004627'         CONTRW          000001  SPD     DOCMP           006375'
ATN             000137' EXT     CONTW           000017          DOCOND          004354'
ATNFIX          000137' INT     COPNUM          004237'         DODSP           005756'
ATNTK           000300  SPD     COS             000131' EXT     DOMIN           006146'
B               000000          COSFIX          000131' INT     DONMUL          007326'
BLTLOP          002013'         CR              000015  SPD     DORES           001544'
BLTU            002005'         CRDO            004523' INT     DOSIZT          004621'
BLTUC           002010'         CRDONE          002753'         DSCTMP          001570'
BOTCON          000016  SPD     CRFIN           004534'         DSKFUN          000000  SPD
BRKTXT          001734'         CRUNCH          002533'         DSUB            000674' EXT
BSERR           007077' INT     CSLOOP          006345'         DV0ERR          002075' INT
BUF             001431' INT     CURLIN          001607' INT     DVAR            010214'
BUFLEN          000110  SPD     CZLOOP          002316'         DVAR2           010213'
BUFLIN          011163'         D               000002          DVARS           010214'
BUFMIN          001430'         DADD            000672' EXT     E               000003
C               000001          DANDOR          006437'         EATEM           006535'
CASSW           000000  SPD     DATA            004072'         EDIT            000632' EXT
CAT             010320'         DATATK          000203  SPD     ELSE            007074'
CHEAD           002302'         DATBK           005025'         ELSETK          000220  SPD
CHKCOM          004560'         DATFND          005166'         END             003474'
CHKSTR          010432' EXT     DATLIN          001577'         ENDCON          003501'
CHR$            010532'         DATLOP          005163'         ENDREL          005415'
CHRCON          003433'         DATPTR          001627'         ENDTK           000200  SPD
CHRGTR          003426'         DATSNE          002064'         EQULTK          000260
CLEAR           003703'         DBLDSP          000672'         ERRBS           000011  SPD
CLEARC          002443'                                         ERRCN           000021  SPD
CLMWID          000016  SPD                                     ERRDD           000012  SPD
                                                                ERRDIR          007532'
                                                                ERRDV0          000013  SPD
                                                                ERRFC           000005  SPD
                                                                ERRFIN          002127'
                                                                ERRID           000014  SPD
                                                                ERRLS           000017  SPD
                                                                ERRNF           000001  SPD
                                                                ERROD           000004  SPD


-- PAGE 166 --------------------------------------------------------------


BASIC MCS 8080  GATES/ALLEN/DAVIDOFF    MACRO 47(113) 03:12 10-SEP-75 PAGE 31-1
F3      MAC      6-SEP-64 03:11         SYMBOL TABLE

ERROM           000007  SPD     FPWR            000000  EXT     INCHR           003126'
ERROR           002102' INT     FPWRQ           005562' EXT     INDLOP          006754'
ERROV           000006  SIN     FRCDBL          005751' EXT     INEG            000000  EXT
ERRRG           000003  SPD     FRCINT          011330' EXT     INIT            002163' EXT
ERRSN           000002  SPD     FRCSNG          007506' EXT     INLIN           002776'
ERRSO           000016  SPD     FRCSTR          000000  EXT     INLINC          003003'
ERRST           000020  SPD     FRCTBL          000664'         INLINN          002772'
ERRTAB          000730'         FRE             007337'         INLPNM          007252'
ERRTM           000015  SIN     FREFAC          010434'         INPCOM          004157'
ERRUF           000022  SPD     FRESTR          010431'         INPCON          004765'
ERRUS           000010  SPD     FRETM2          010437'         INPRT           002141' EXT
EVAL            006061'         FRETMP          010440'         INPUT           004711'
EXCHQT          004100'         FRETOP          001573' INT     INPWRD          010720'
EXIGNT          005142'         FRMCHK          005337'         INRART          000000  EXT
EXP             000127' EXT     FRMEVL          005336'         INT             000000  EXT
EXPSTK          005553'         FSUB            000706' EXT     INTDSP          000716'
EXTFNC          000001  SPD     FUNCTS          000001  SPD     INTID2          003623'
FAC             001642' INT     FUNDSP          000103'         INTIDX          003622'
FACDBL          005775'         GARBA2          010042'         INTXT           001720' INT
FACLO           001637' INT     GARBAG          010026'         INXHRT          002664' EXT
FACSNG          006034'         GETAGN          004741'         ISARY           006745'
FADD            000704' EXT     GETBCD          007752' EXT     ISCNTC          003460'
FADDS           005260' EXT     GETBYT          011020'         ISFUN           006204'
FALSIF          004363'         GETDEF          007245'         ISGOSU          004306'
FBUFFR          001655' INT     GETFNM          007550'         ISIGN           000000  EXT
FCERR           010776' INT     GETSPA          007772'         ISLET           003612'
FCOMP           005274' EXT     GETSTK          002024'         ISSEC           006534'
FDIV            000712' EXT     GETYPE          006307' INT     ISUB            000720' EXT
FIN             011064' EXT     GIVDBL          007372'         ISVAR           006164'
FINBCK          010546'         GIVINT          007402'         KLOOP           002544'
FINGO           006276'         GONE            003370'         L               000005
FINI            002276'         GONE2           003376'         LABBCK          006162'
FININL          004516'         GONE3           003375'         LASNUM          000306  SPD
FINNOW          007331'         GOODCH          003044'         LEFT$           010552'
FINPTR          006742'         GOSUB           003770'         LEFT2           010560'
FINREL          005605'         GOSUTK          000214          LEFT3           010556'
FINTMP          005544'         GOTO            004010'         LEN             010501'
FLGINP          001602'         GOTOTK          000210  SPD     LEN1            010505'
FLOAT           000000  EXT     GRBPAS          010254'         LENGTH          000002  SPD
FLOATR          000000  EXT     GREATK          000257          LEPSKP          002117'
FMULT           000710' EXT     GTBYTC          011017'
FNDFOR          001744'         H               000004
FNDLIN          002371'         HAVTYP          006574'
FNDOER          007443'         IADD            000716' EXT
FNDVAR          010045'         ICOMP           000726' EXT
FNINP           010712'         IDIV            000724' EXT
FNOUT           010725'         IDONE           000001
FNTK            000243  SPD     IF              004325'
FNWAIT          010733'         IFORDN          003267'
FOR             003154'         IFTK            000212  SPD
FORTK           000201  SPD     ILLFUN          010776' INT
FOUND           002646'         IMULT           000722' EXT
FOUT            007565' EXT


-- PAGE 167 --------------------------------------------------------------


BASIC MCS 8080  GATES/ALLEN/DAVIDOFF    MACRO 47(113) 03:12 10-SEP-75 PAGE 31-2
F3      MAC      6-SEP-64 03:11         SYMBOL TABLE

LESSTK          000261          MOVRM           010154' EXT     OMERR           002057' INT
LET             004131'         MOVSTR          010417'         ONEFUN          000262
LINCHK          004475'         MULDIM          000001  SPD     ONELIN          002365'
LINGET          003642' INT     MUSTCR          002617'         ONEON           003265'
LINGT2          003643'         NEG             000000  EXT     ONGOTO          004271'
LINLEN          000110  SPD     NEWCHR          004407'         OPRTYP          001544'
LINLIN          002764'         NEWSTT          003302'         OPTAB           000163'
LINPRT          011134' EXT     NEXT            005225'         ORFIN           006463'
LINPT1          003103' SIN     NEXTC           005230'         OUTBEL          003061'
LINPT2          003574' SIN     NFERR           002100'         OUTCON          003065'
LINPT3          004474' SIN     NMARY1          007051'         OUTDO           000030' INT
LINPT4          004557' SIN     NMARY2          007050'         OUTWRD          010730'
LIST            011072'         NMREL           000003  SPD     PARCHK          006136'
LIST4           011077'         NODATT          002710'         PEEK            011314'
LISTEN          000001  SPD     NODEL           002227'         PLOOP           011170'
LOG             000125' EXT     NOPRIN          003113'         PLUSTK          000250  INT
LOOP            002374'         NOSEC           006547'         POKE            011323'
LOOPDN          005320'         NOTABR          004637'         POPGOF          001774'
LOOPER          001750'         NOTDIM          007152'         POPHRT          000000  EXT
LOOPON          004307'         NOTER           006412'         POS             007406'
LOPDT2          004773'         NOTFDD          007104'         PPSWRT          010024'
LOPFDA          007015'         NOTFNS          006671'         PREAM           010764'
LOPFND          006623'         NOTFRF          006272'         PREAM2          010767'
LOPPTA          007135'         NOTIT1          006660'         PRINT           004411'
LOPREL          005363'         NOTLST          010477'         PRINTC          004414'
LPOPER          005341'         NOTOL           003176'         PRINTK          000231  SPD
LPTLEN          000110  SPD     NOTQTI          004735'         PRIT3           011232'
LPTSW           000000  SPD     NOTSTV          005360'         PRIT4           011167
LSTOPK          000007  SPD     NOTTHR          010753'         PRTNUL          004537'
M               000006  SPD     NOTTK           000246  SPD     PSW             000006  SPD
MAIN            002165'         NOTTRC          003367'         PTRGET          006505'
MAKINT          007404' EXT     NOWGET          005053'         PTRGT2          006512'
MEMSIZ          001545' INT     NOWLIN          005214'         PUFOUT          000000  EXT
MID$            010643'         NTHIS           002736'         PURE            000000  SPD
MID2            010665'         NTHIS1          002742'         PUSHF           006036' EXT
MINUTK          000251  INT     NULCNT          000046'         PUSHMA          000100'
MLOOP           011275'         NULL            003566'         PUTDEI          007524'
MLOOPR          002266'         NUMCMD          000040          PUTNEW          007705'
MORCOM          004566'         NUMGFN          000051  SPD     PUTVAL          004261'
MORLIN          003646'         NUMINS          005070'         Q               000022
MORPR           004410'         NUMLEV          000025  SPD     QINLIN          002522' INT
MOVE            000000  EXT     NUMREL          005476'         QINT            000000  EXT
MOVFM           005253' EXT     NUMTMP          000005  SPD
MOVFR           005746' EXT     NUTPOS          000070  SPD
MOVINS          010407'         NXTCON          003276'
MOVLP           010420'         NXTRES          002625'
MOVMF           007476' EXT     ODONE           000200  SPD
MOVRF           006044' EXT     OKGOTO          004346'
                                OKNORM          006251'
                                OLDLIN          001611'
                                OLDTXT          001613'


-- PAGE 168 --------------------------------------------------------------


BASIC MCS 8080  GATES/ALLEN/DAVIDOFF    MACRO 47(113) 03:12 10-SEP-75 PAGE 31-3
F3      MAC      6-SEP-64 03:11         SYMBOL TABLE

RAMBOT          020000          SNGDO           006026'         TABER           004577'
READ            004760'         SNGDSP          000704'         TABTK           000240
READY           002145' INT     SNGFLT          007400'         TAN             000135' EXT
REALIO          000001  SPD     SP              000006          TANFIX          000135' INT
REASON          002045' INT     SPCTK           000242  SPD     TEMP            001603'
REDDY           001725'         SQR             000121' EXT     TEMP2           001605' INT
REDINP          004136'         SQRFIX          000121'         TEMP3           001575' INT
REM             004074'         SQRTK           000271  SPD     TEMP6           007124'
REMER           004103'         STAINP          010754'         TEMPPT          001547' INT
REMTK           000216          START           000000'         TEMPST          001551' INT
REPINI          002162' INT     STEPTK          000247          THENTK          000245
REPOUT          004632'         STKDBL          005725'         TMERR           005703' EXT
RESCR1          011216'         STKINI          002470'         TOFF            003605'
RESER           002627'         STKSNG          006021'         TON             003604'
RESFIN          003453'         STKTOP          001615' INT     TOPCON          000035  SPD
RESLST          000172'         STMDSP          000564'         TOTK            000241  SPD
RESRCH          011214'         STOP            003472'         TRCFLG          001631'
RESTOR          003446'         STPEND          003500'         TRMNOK          004667'
RETAOP          005354'         STPRDY          002144'         TRMOK           005111'
RETURN          004044'         STR$            007564'         TRYAGN          004644'
RIGHT$          010631'         STR1            002716'         TRYGI2          007774'
RND             000123' EXT     STRAD1          007632'         TRYIN           003126'
RNDFIX          000123'         STRAD2          007627'         TRYOUT          003113'
RUN             003754'         STRCMP          006320'         TSTACK          000000  EXT
RUNC            002437'         STRCPY          007601'         TSTOP           005357'
RUNC2           004007'         STRDN2          005077'         TTICHN          000001  SPD
SCNLIN          002333'         STRDON          004507'         TTOCHN          000001  SPD
SCRATH          002421'         STREND          001625' INT     TTYCHR          003070'
SCRATK          000237'         STRFIN          007665'         TTYIST          004616'
SCRTCH          002422' INT     STRGET          007646'         TTYPOS          000047'
SETDBL          005750'         STRING          000001  SPD     TVAR            010063'
SETIO           011003'         STRINI          007624'         TXTTAB          001617' INT
SGN             000103' EXT     STRLIT          007637' INT     UMULT           007267'
SIGN            000050' INT     STRLT2          007643'         USERR           004037'
SIGNC           000055' EXT     STRLT3          007642'         USINTK          000244  SPD
SIGNS           006373' EXT     STRLTI          007640'         USRLOC          000111'
SIN             000133' EXT     STRNG           002727'         VAL             011042'
SINFIX          000133' INT     STROUI          007742' INT     VALINT          000000  EXT
SKPMRF          004365'         STROUT          007743' INT     VALSNG          000000  EXT
SKPVAR          010130'         STRPR2          007755'         VALTYP          001543' INT
SMLVAL          007322'         STRPRT          007746'         VARTAB          001621'
SNERR           002072' INT     STRSIZ          000003  SPD     VINT            000105' EXT
SNGDBL          005743'         STUFFH          002667'         VMOVAF          005777' EXT
                                SUBFLG          001601'         VMOVE           007724' EXT
                                SVAR            010102'         VMOVFA          000000  EXT
                                SVARS           010077'         VMOVFM          006200' EXT
                                TABEND          002653'         VMOVMF          004264' EXT
                                                                VNEG            006160' EXT
                                                                VPUSHD          005536'
                                                                VSIGN           004347' EXT


-- PAGE 169 --------------------------------------------------------------


BASIC MCS 8080  GATES/ALLEN/DAVIDOFF    MACRO 47(113) 03:12 10-SEP-75 PAGE 31-4
F3      MAC      6-SEP-64 03:11         SYMBOL TABLE

ZERITA          007207'
ZERO            011046' EXT
ZEROER          006723'
$CODE           000000' INT


-- PAGE 170 --------------------------------------------------------------


A          764     791     812     827     830     852    1740    1756    1796    1887    1922    1924    1943    1965
          1966    1978    2049    2052    2069    2078    2154    2187    2189    2269    2272    2290    2299    2305
          2312    2320    2321    2322    2330    2335    2368    2373    2378    2417    2418    2419    2519    2520
          2523    2528    2606    2732    2803    2806    2875    2882    2887    2907    2912    2918    2944    2962
          2978    2979    3024    3026    3041    3070    3089    3103    3112    3152    3153    3197    3220    3222
          3223    3225    3397    3399    3400    3401    3428    3527    3534    3554    3558    3561    3587    3588
          3599    3623    3721    3834    3839    3859    3866    3872    3880    3953    3972    3973    3974    4019
          4041    4080    4081    4096    4126    4141    4149    4181    4182    4249    4303    4310    4392    4453
          4535    4555    4566    4567    4571    4583    4610    4662    4713    4773    4823    4827    4841    4842
          4848    4911    4916    4919    5123    5127    5193    5241    5242    5243    5349    5370    5373    5374
          5377    5379    5396    5397    5402    5440    5442    5443    5445    5473    5478    5479    5481    5487
          5488    5490    5529    5540    5541    5559    5594    5622    5628    5643    5664    5675    5895    5896
          5897    5942    5948    5965    6017    6019    6052    6053    6100    6104    6108    6161    6263    6265
          6266    6269    6270    6271    6423    6437    6444    6482    6497    6511    6540    6542    6562    6588
          6612    6659    6671    6694    6746    6759    6760    6782    6825    6871    6929    6976    6981    7052
          7070    7071    7074    7075    7092    7101    7126    7128    7130    7135    7161    7191    7218    7223
          7224    7227    7342    7343    7351    7368    7380    7409    7439    7465    7467    7490    7495    7501
          7502    7768
ABS        904    904#
AFFF       986#    986     987#    987     988#    988     989#    989     990#    990     991#    991     992#    992
           993#    993     994#    994     995#    995     998#    998     999#    999    1001#   1001    1002#   1002
          1005#   1005    1013#   1013    1021#   1021    1022#   1022    1023#   1023    1025#   1025    1026#   1026
          1027#   1027    1028#   1028    1029#   1029    1033#   1033    1046#   1046    1047#   1047    1048#   1048
          1049#   1049    1050#   1050    1052#   1052    1054#   1054    1056#   1056    1195#   1196#   1197#   1198#
          1199#   1200#   1201#   1202#   1203#   1204#   1205#   1206#   1207#   1208#   1209#   1210#   1210    1215#
          1216#   1217#   1218#   1219#   1220#   1221#   1222#   1223#   1224#   1225#   1226#   1226    1231#   1232#
          1233#   1234#   1235#   1236#   1237#   1238#   1239#   1240#   1241#   1242#   1243#   1244#   1245#   1246#
          1247#   1248#   1249#   1250#   1250    1255#   1256#   1257#   1258#   1259#   1260#   1261#   1262#   1263#
          1264#   1265#   1265    1270#   1271#   1272#   1273#   1274#   1275#   1276#   1277#   1278#   1279#   1280#
          1281#   1282#   1283#   1284#   1285#   1286#   1287#   1288#   1289#   1290#   1290    1295#   1296#   1297#
          1298#   1299#   1300#   1301#   1302#   1302    1307#   1308#   1309#   1310#   1311#   1312#   1313#   1314#
          1315#   1316#   1317#   1318#   1319#   1319    1324#   1325#   1326#   1327#   1328#   1329#   1330#   1331#
          1332#   1333#   1334#   1335#   1336#   1337#   1338#   1339#   1340#   1341#   1342#   1342    1347#   1348#
          1349#   1350#   1351#   1352#   1353#   1354#   1355#   1356#   1357#   1358#   1359#   1360#   1361#   1362#
          1363#   1364#   1365#   1366#   1367#   1368#   1368    1373#   1374#   1375#   1376#   1377#   1378#   1379#
          1380#   1381#   1382#   1383#   1384#   1385#   1386#   1387#   1388#   1389#   1390#   1391#   1391    1396#
          1397#   1398#   1399#   1400#   1404#   1402#   1403#   1404#   1405#   1406#   1407#   1408#   1409#   1410#
          1411#   1411    1416#   1417#   1418#   1419#   1420#   1421#   1422#   1423#   1424#   1425#   1426#   1427#
          1428#   1429#   1429    1435#   1436#   1437#   1438#   1439#   1440#   1441#   1442#   1443#   1444#   1445#
          1446#   1447#   1447    1452#   1453#   1454#   1455#   1456#   1457#   1458#   1459#   1460#   1461#   1462#
          1463#   1464#   1465#   1466#   1467#   1468#   1469#   1470#   1470    1475#   1476#   1477#   1478#   1479#
          1480#   1481#   1482#   1483#   1484#   1485#   1486#   1487#   1488#   1489#   1489    1494#   1495#   1496#
          1497#   1498#   1499#   1500#   1501#   1502#   1503#   1504#   1505    1506#   1507#   1508#   1509#   1510#
          1511#   1512#   1513#   1514#   1515#   1516#   1517#   1518#   1519#   1519    1525#   1526#   1527#   1528#
          1529#   1530#   1531#   1532#   1533#   1534#   1535#   1536#   1537#   1538#   1538    1544#   1545#   1546#
          1547#   1548#   1549#   1550#   1551#   1552#   1553#   1554#   1555#   1556#   1557#   1558#   1559#   1560#
          1561#   1562#   1563#   1564#   1565#   1566#   1566    1705#   1706#   1707#   1708#   1708    1713#   1714#
          1714    1722#   1723#   1724#   1725#   1726#   1726    3992#   3993#   3994#   3995#   3996#   3997#   3998#
          3999#   4000#   4001#   4002#   4003#   4004#   4005#   4006#   4007#   4007    4269#   4270#   4271#   4272#
          4273#   4274#   4275#   4276#   4277#   4278#   4279#   4280#   4281#   4282#   4282
ALLLST    2103    2115#
ALLSTR    7133    7137#
ANDORD    4672    4752#


-- PAGE 171 --------------------------------------------------------------


APPLOP    4716    4821#
ARG        170    1689#
ARGLO      170    1688#
ARYSTR    6810#   6820
ARYTAB    1663#   2224    5635    5727    5918    6739
ARYVA2    6771#   6795
ARYVAR    6744    6772#   6817
ASC        944    7081#
ASPA2     3933    3972#
ASPAC     3955    3973#
ATN        931     931#
ATNFIX     139     931#
ATNTK     1050#   5200
B          886     888    1751    1755    1764    1769    1792    1794    1797    1799    1830    1832    1833    1939
          1978    1985    1991    2022    2023    2151    2159    2165    2237    2266    2305    2321    2373    2417
          2423    2437    2467    2483    2520    2531    2752    2796    2798    2829    2839    2841    2945    2951
          2954    2955    3018    3232    3235    3261    3284    3296    3336    3395    3398    3399    3403    3423
          3555    3557    3562    3565    3588    3599    3781    3973    3977    4023    4083    4087    4182    4190
          4311    4318    4424    4425    4440    4527    4610    4656    4657    4660    4693    4695    4701    4703
          4713    4714    4715    4719    4738    4758    4773    4778    4801    4821    4827    4842    4861    4863
          4864    4867    4872    4893    4910    4912    4914    4915    4927    4957    5120    5124    5213    5216
          5354    5356    5368    5384    5387    5398    5399    5449    5464    5516    5519    5533    5656    5673
          5675    5676    5677    5679    5680    5709    5711    5724    5883    5887    5949    6026    6044    6047
          6053    6054    6060    6061    6064    6073    6074    6078    6098    6110    6138    6162    6172    6189
          6194    6196    6311    6314    6331    6402    6406    6444    6472    6475    6492    6533    6535    6550
          6640    6647    6672    6674    6696    6699    6727    6771    6790    6805    6807    6808    6819    6822
          6842    6848    6856    6859    6864    6876    6888    6889    6892    6903    6905    6916    6980    6990
          6992    7025    7040    7052    7053    7063    7066    7113    7131    7135    7139    7143    7149    7152
          7153    7155    7156    7179    7196    7214    7217    7220    7227    7229    7279    7283    7297    7299
          7300    7301    7302    7373    7376    7379    7384    7387    7401    7405    7409    7411    7419    7424
          7430    7449    7460    7466    7469    7503    7507    7521    7525    7543    7544    7550
BLTLOP    1795#   1802
BLTU      1788#   2026    5714
BLTUC     1792#   6898
BOTCON    5194#   5196
BRKTXT    1719#   3047
BSERR      156    5985#   6083    6152
BUF        135    1583#   2045    2297    2481    7447    7461
BUFLEN     115#   1583    2522
BUFLIN    7444    7460#
BUFMIN    1579#   2450    3853
C          884    1749    1754    1822    2153    2294    2396    2429    2519    2528    2529    2801    2944    2952
          3337    3397    3398    3554    3597    3598    4310    4439    4691    4699    4712    4823    4865    4911
          5123    5127    5221    5224    5351    5366    5541    5559    5650    5674    5725    5943    6024    6044
          6062    6079    6163    6173    6332    6404    6537    6541    6562    6671    6804    6843    6849    6857
          6878    6890    6893    6901    6904    6978    7027    7041    7043    7128    7137    7157    7223    7225
          7374    7410    7551
CASSW        6#   1002    1127    7680
CAT       4598    6916#
CHEAD     2067#   2090
CHKCOM    3917#
CHKSTR     169#   3489    5162    6927    7015
CHR$       946    7101#


-- PAGE 172 --------------------------------------------------------------


CHRCON     799    2969#
CHRGTR    2961#   2972    3651    6557
CLEAR     1125    3207#
CLEARC    2207#   3208    3246    3257
CLMWID      12#   3912    3924
CNLCA1     138    2615#
CNLCA2     138    2631#
CNLCA3     138    2998#
CNLCA4    2859#
CNLCB1    2624#
CNLCB2    2639#
CNTCCN    2863    3002#
CNTWFL     162     810    1595#   1889    1945    2647    2651    3043    4044
COLIS     2401    2408#
COMPRT    3774    3899#
CONIA      166#   5405#   5405
CONINT    7107    7240    7333#
CONSIH     166#   4975
CONSSW      10#   1004    1129    7662
CONT      1117    3061#
CONTRW      14#    161     808     813    1594    1886    1942    2262    2539    2595    2642    3040    4040
CONTW      121#   2644
COPNUM    3486    3545#
COS        924     924#
COSFIX     139     924#
CR         120#   6643
CRDO       155    1892    2478    2604    3748    3829    3855#   3918    7433
CRDONE    2314    2421    2449#
CRFIN     3869#   6645
CRUNCH    1976    2289#
CSLOOP    5370#   5389
CURLIN     136    1643#   1872    1920    1951    2773    2901    3022    3080    3288    3319    3369    4437    6420
CZLOOP    2079#   2082
D          828    1756    1846    1855    1951    1979    1984    2011    2038    2041    2044    2047    2051    2067
          2087    2098    2101    2105    2109    2115    2125    2296    2347    2350    2356    2357    2367    2379
          2394    2395    2428    2430    2452    2453    2454    2455    2456    2747    2797    2801    2802    2830
          2898    2911    2921    2925    2928    3174    3188    3190    3192    3198    3200    3224    3225    3291
          3294    3353    3427    3428    3466    3477    3480    3506    3511    3520    3524    3529    3576    3711
          3729    4124    4181    4188    4207    4245    4262    4321    4362    4391    4395    4511    4513    4537
          4553    4554    4555    4566    4609    4611    4612    4662    4742    4752    4756    4779    4780    4841
          4848    4868    4894    4958    5065    5209    5212    5355    5363    5371    5373    5382    5431    5470
          5480    5489    5573    5576    5577    5582    5587    5591    5594    5628    5642    5645    5649    5654
          5655    5662    5663    5669    5737    5740    5743    5747    5880    5882    5896    5912    5921    5956
          6020    6078    6081    6118    6145    6158    6159    6267    6315    6348    6358    6371    6401    6410
          6501    6535    6546    6578    6632    6634    6761    6763    6830    6863    6869    6889    6944    6991
          6993    7039    7040    7042    7071    7165    7176    7177    7178    7298    7342    7375    7377    7407
          7483    7486    7488    7489    7520    7542    7545    7792    7793
DADD       168#   1145
DANDOR    4759    5464#
DATA      1064    2765    3384#   3716    4299    6312
DATATK     988#   2404    4329
DATBK     4133    4158#   4335
DATFND    4302


-- PAGE 173 --------------------------------------------------------------


DATLIN    1624#   1869    4324
DATLOP    4147    4298#   4331
DATPTR    1672#   2990    4093
DATSNE    1868#   4021
DBLDSP    1145#   4903
DCOMP      168#   1153
DCXBRT     167#   7478#   7478
DDIV       168#   1151
DEF       1114    6307#
DEFFIN    6337    6404#
DEL       1994    7537#
DELETE    1123    7517#
DFACLO     170    1680#   4708    4887    4891
DIM       1068    5516#
DIMCON    5497#   5517
DIMFLG    1596#   5531    5877    5910    5963    6050    6102
DIRIS     3028    3039#
DMULT      168#   1149
DNTCPY    3513    3524#
DOASIG    4201#   4217
DOCMP     4787    5396#
DOCOND    3700#   3736
DODSP     4905#   4964
DOMIN     5022    5061#
DONMUL    6183    6187    6190#
DORES     1607#   2292    2318    2409
DOSIZT    3966#
DSCTMP    1615#   6508    6579    6954    7110
DSKFUN       9#    936     995    1052    1107    7559
DSUB       168#   1147
DV0ERR     136    1877#
DVAR      6824#
DVAR2     6731    6822#
DVARS     6757    6825#
E          831    1757    1857    1874    1877    1881    1901    2039    2068    2085    2802    2896    3062    3189
          3197    3221    3222    3340    3362    3519    3597    3953    3967    4312    4319    4583    4594    4712
          5364    5370    5378    5383    5473    5738    5741    5954    5966    5985    6019    6079    6116    6143
          6264    6372    6408    6427    6603    6689    6760    6828    6890    6936    7041    7112    7197    7226
          7229    7267    7282    7300    7306    7351    7368
EATEM     5560#   5563    5569
EDIT      1097    1097#
ELSE      1091    3388#
ELSETK     994#   2383    3725    7475
END       1058    3014#
ENDCON    2894    3019#
ENDREL    4542    4548    4566#
ENDTK      986#   2932    2936
EQULTK    1033#   3459    6330
ERRBS     1370#   5986
ERRCN     1540#   3063
ERRDD     1393#   5967
ERRDIR    4073    6317    6418#
ERRDV0    1413#   1878


-- PAGE 174 --------------------------------------------------------------


ERRFC     1292#   7307
ERRFIN    1916#   3050
ERRID     1431#   6428
ERRLS     1491#   6937
ERRNF     1212#   1882
ERROD     1267#   4313
ERROM     1321#   1858
ERROR      147    1863    1883#   3073    3343    3365    4315    5969    5988    6375    6430    6606    6692    6939
          7309
ERROV     136     1304#
ERRRG     1252#   3363
ERRSN     1228#   1875
ERRSO     1472#   6690
ERRST     1521#   6604
ERRTAB    1184#   1895
ERRTM      170    1449#
ERRUF     1568#   6373
ERRUS     1344#   3341
EVAL      4519    4993#   5011    6923
EXCHQT    3397#   3409
EXIGNT    4260    4268#
EXP        140#    922
EXPSTK    4667    4732#
EXTFNC      38#    139     919     928     968    1029    1049    1050    5062    5064
FAC        144     850    1684#   4983
FACDBL    4839    4927#
FACLO      144    1681#   3500    3810    4689    4798    4870    4945    4987    5103    5166    5447    6585    6919
          6932    7018
FACSNG    4852    4970#
FADD       141#   1155
FADDS      143#   4408
FALSIF    3696    3711#
FBUFFR     155    1690#
FCERR      147    3095    3155    7085    7306#   7345
FCOMP      141#   1163    4421
FDIV      1161    1161#
FIN        141#   4213    5000    5017    7382
FINBCK    6473    7113#
FINGO     5180    5213#
FINI      2015    2056#   7534
FININL    2497    3850#
FINNOW    6121    6199#
FINPTR    5658    5747#
FINREL    4569    4773#
FINTMP    4719#   4745    4762    4805
FLGINP    1631#   4017    4098    4139    4247
FLOAT      145#
FLOATR    143#
FMULT     1159    1159#
FNDFOR    1735#   2745    3357    4381
FNDLIN    1989    2148#   3333    7523
FNDOER    5042    6344#
FNDVAR    6706#   6908


-- PAGE 175 --------------------------------------------------------------


FNINP      910    7239#
FNOUT     1099    7251#
FNTK      1021#   5040    6436
FNWAIT    1105    7263#
FOR       1060    2731#
FORTK      987#   1743    2840
FOUND     2372#
FOUT       141#   3802    6464
FPWR       140#
FPWRQ      166#   4739#   4739
FRCDBL     167#   1134    4880    4899
FRCINT     167#    748    1136    3150    4754    5438    5466    7335    7766    7781
FRCSNG     167#   1138    2790    2822    4733    4955    5205    6390
FRCSTR     169#
FRCTBL    1134#   3552
FRE        908    6209#
FREFAC    6230    6470    6626    7017#
FRESTR    5346    7014#   7068
FRETM2    6950    7020#
FRETMP    3531    5359    6946    7021#   7167
FRETOP     153    1616#   2215    6241    6668    6681    6707    6845    6895    7045    7055
FRMCHK    2817    4511#
FRMEVL    2785    3146    3468    3617    3783    4510#   5056    5157    6386    7331    7777
FSUB      1157    1157#
FUNCTS     127#    999    1021    1114    1541    4064    4071    5038    6289    6403    6413
FUNDSP     897#   5214
GARBA2    6234    6700#
GARBAG    6678    6688#
GETAGN    4076#
GETBCD     166#   6630
GETBYT    3086    3585    5173    7208    7316    7330#   7790
GETDEF    5982    6137#
GETFNM    6308    6345    6435#
GETSPA    6488    6505    6659#   7141
GETSTK    1821#   2759    3281    4515    6033
GETYPE     170    3792    4792    5108    5236#   6220
GIVDBL    6223    6263#
GIVINT    6271#
GONE      1982    2880    2924#
GONE2     2931#   3601
GONE3     2929#   3705
GOODCH    2492    2519#
GOSUB     1082    3280#
GOSUTK     991#   3292    3361    3590
GOTO      1074    3303#   3702
GOTOTK     989#   3595    3655
GRBPAS    6779    6869#
GREATK    1032#   4540    4544
GTBYTC    3942    7328#
H          769     790     827     873     885     887    1735    1741    1750    1752    1753    1755    1767    1800
          1824    1826    1837    1848    1894    1902    1922    1947    1953    2024    2028    2033    2034    2037
          2040    2042    2050    2060    2067    2070    2075    2076    2077    2080    2086    2127    2151    2155
          2157    2162    2164    2188    2190    2199    2243    2249    2252    2353    2377    2393    2427    2435


-- PAGE 176 --------------------------------------------------------------


          2436    2440    2449    2468    2480    2530    2763    2771    2787    2795    2819    2827    2833    2886
          2890    2892    2897    2948    2953    2961    2988    3025    3046    3070    3148    3152    3158    3173
          3179    3181    3188    3191    3193    3202    3213    3216    3223    3244    3285    3286    3317    3327
          3328    3336    3338    3367    3371    3405    3484    3502    3503    3504    3520    3536    3543    3551
          3559    3560    3567    3569    3578    3596    3661    3745    3770    3787    3788    3846    3852    3946
          3951    3981    4025    4055    4059    4063    4079    4082    4091    4192    4203    4226    4237    4259
          4266    4308    4320    4393    4405    4410    4415    4419    4423    4440    4510    4606    4688    4692
          4694    4700    4702    4707    4757    4786    4790    4800    4858    4866    4885    4889    4902    4917
          4918    4943    4959    4970    4981    4985    5074    5086    5092    5118    5170    5203    5207    5222
          5223    5350    5353    5365    5367    5369    5386    5443    5445    5479    5481    5488    5490    5497
          5592    5626    5638    5644    5664    5667    5674    5708    5712    5718    5724    5729    5739    5742
          5751    5875    5893    5908    5938    5944    5952    5953    5955    5957    6018    6025    6027    6042
          6043    6048    6063    6065    6067    6072    6091    6100    6109    6117    6119    6137    6142    6144
          6146    6154    6162    6172    6174    6181    6185    6202    6213    6266    6271    6331    6361    6364
          6365    6366    6367    6368    6381    6388    6392    6393    6400    6405    6407    6409    6411    6418
          6422    6423    6425    6483    6486    6490    6496    6507    6510    6532    6536    6539    6560    6611
          6618    6675    6683    6709    6712    6717    6718    6747    6748    6750    6783    6789    6803    6809
          6827    6829    6831    6842    6848    6851    6855    6856    6862    6870    6872    6875    6877    6879
          6882    6886    6891    6892    6900    6902    6905    6906    6917    6930    6934    6952    6963    6967
          6973    6977    6979    7024    7026    7028    7057    7087    7091    7129    7144    7145    7146    7150
          7151    7156    7269    7333    7338    7347    7371    7373    7386    7406    7429    7441    7446    7464
          7468    7482    7496    7508    7526    7527    7533    7550    7552    7779
HAVTYP    5574    5594#
IADD       167#   1165
ICOMP      168#   1173
IDIV       168#   1171
IDONE      123#   2633    2861    3000
IF        1078    3616#
IFORDN    2831#
IFTK       990#   3419
ILLFUN     144     906    7305#
IMULT      168#   1169
INCHR     2486    2628#   3003
INDLOP    5882#   5901
INEG       168#
INIT       141#    734    1957
INLIN     1962    2279    2480#
INLINC    2472    2485    2502    2507    2536
INLINN    2474#   2512
INLPNM    6142#   6165
INPCOM    3484#   4209
INPCON    4089    4096#
INPRT      142#   1926
INPUT     1066    4036#
INPWRD    7243    7245#
INRART     145#
INT        141#
INTDSP    1165#   4859
INTID2    3145#   3211
INTIDX    3144#   5885
INTXT      155    1704#
INXHRT    2388#   2388
ISARY     5619    5875#


-- PAGE 177 --------------------------------------------------------------


ISCNTC    2996#   7417
ISFUN     5047    5120#
ISGOSU    3592    3597#
ISIGN      166#
ISLET     3112#   5003    5535    5554    5566
ISSEC     5550    5559#
ISUB      168#    1167
ISVAR     5006    5088#
KLOOP     2299    2415
L          830    1754    1923    2068    2153    3024    3071    3189    3220    3337    3519    3561    4439    4919
          5193    5224    5440    5442    5477    5478    5486    5487    5643    5725    6108    6163    6173    6263
          6265    6269    6332    6424    6497    6843    6849    6857    6871    6885    6904    6904    6981    6987
          6988    7152    7157    7161    7374    7551
LABBCK    5081#   5210
LASNUM    1054#   5128
LEFT$      948    7123#
LEFT2     7123#   7215
LEFT3     7127#   7181
LEN        938    7063#
LEN1      7067#   7082    7363
LENGTH       4#     22      32      37      82     111     117     119     131     151     158     165     740     747
           789     813     874     899     901     908     933     956     970     993     995     997     999    1002
          1014    1022    1024    1029    1047    1051    1090    1099    1109    1117    1123    1133    1185    1522
          1617    1623    1645    1674    1678    1686    1691    1701    1718    1745    1748    1859    1861    1867
          1879    1897    1906    1928    1934    1992    1996    2092    2181    2183    2194    2253    2261    2327
          2380    2488    2595    2657    2731    2777    2781    2783    2788    2811    2815    2820    2855    2865
          2867    2903    2957    2960    3007    3009    3060    3084    3101    3127    3143    3206    3250    3307
          3313    3388    3411    3481    3491    3537    3539    3546    3573    3582    3619    3624    3648    3653
          3663    3685    3686    3690    3692    3694    3698    3707    3764    3790    3797    3838    3843    3937
          3938    3940    3947    3952    3990    4037    4079    4135    4142    4146    4159    4162    4167    4174
          4200    4215    4220    4225    4250    4256    4298    4301    4302    4307    4317    4318    4333    4362
          4368    4370    4385    4397    4451    4452    4472    4528    4536    4589    4592    4595    4600    4604
          4615    4655    4994    5032    5075    5079    5083    5106    5113    5188    5217    5220    5226    5246
          5332    5344    5395    5403    5410    5430    5542    5546    5548    5561    5572    5599    5610    5621
          5627    5681    5736    5745    5748    5929    5936    5950    6016    6022    6167    6191    6208    6218
          6225    6247    6254    6262    6275    6282    6325    6352    6382    6384    6445    6448    6460    6484
          6512    6587    6596    6628    6635    6749    6764    6781    6787    6791    6797    6823    6832    6883
          6975    6982    7029    7072    7088    7147    7231    7303    7311    7314    7327    7329    7339    7369
          7397    7763    7764    7769    7775    7784
LEPSKP    1898#   1904
LESSTK    1036#   4544
LET       1072    2738    2934    3451#
LINCHK    3828#
LINGET     155    1972    2107    2119    3173#   3304
LINGT2    3174#   3604
LINLEN     114#   2601    3091    3826    3912
LINLIN    2467#   2517
LINPRT     142#   2916    7437
LINPR1    2602#
LINPT2    3093#
LINPT3    3827#
LINPT4    3916#
LIST      1120    7401#


-- PAGE 178 --------------------------------------------------------------


LIST4     7406#   7458
LISTEN     126#    130#   2854    2995    7415
LOG        920     920#
LOOP      2151#   2171    3330
LOOPDN    4432    4445#
LOOPER    1740#   1771
LOOPON    3598#   3611
LOPDT2    4111#   4240
LOPFDA    5921#   5959
LOPFND    5632#   5671
LOPPTA    6049#   6076
LOPREL    4539#   4564
LPOPER    4513#   4724    5069    5434
LPTLEN     113#
LPTSW        8#    163     813     912     996    1001    1047    1108    1122    1590    1940    2256    2544    2595
          2873    3742    3812    3855    3899    3957    6276    7398
LSTOPK    1029#   4581
M          764     767     791     884     886    1740    1749    1751    1796    1822    2033    2039    2041    2049
          2069    2071    2079    2085    2087    2154    2156    2187    2189    2299    2322    2335    2363    2378
          2385    2418    2439    2529    2803    2875    2887    2891    2896    2898    2952    2954    2962    3112
          3400    3534    3558    3560    3587    3623    3824    3850    4080    4126    4257    4319    4321    4392
          4453    4535    4571    4611    4691    4693    4699    4701    4865    4867    4916    4918    5221    5223
          5349    5351    5354    5364    5366    5368    5385    5533    5614    5730    5738    5741    5743    5897
          5937    4942    5948    5954    5956    5978    6017    6024    6026    6047    6062    6064    6092    6116
          6118    6143    6145    6404    6406    6408    6410    6443    6482    6511    6540    6612    6746    6782
          6804    6826    6828    6830    6876    6878    6885    6901    6903    6929    6935    6976    6978    6980
          7025    7027    7043    7074    7092    7112    7130    7149    7151    7191    7219    7224    7376    7377
          7380    7387    7465    7501    7768
MAIN      1961#   1968    2073
MAKINT     169#   750     5483    5492    6273
MEMSIZ     153    1611#   2212    3218    6701
MID$       952    7190#
MID2      7202    7210#
MINUTK     155    1028#   2114    5020
MLOOP     7542#   7548
MLOOPR    2047#   2054
MORCOM    3923#   3926
MORLIN    3177#   3204
MORPR     3746#   3848
MOVE       141#
MOVFM      143#   4401
MOVFR      142#   4896
MOVINS    6958    6961    6973#
MOVLP     6988#   6995
MOVMF      143#   4413    6378
MOVRF      142#   2793    2825    4979
MOVRM      142#   4417    4428    6785
MOVSTR    6499    6987#   7163
MULDIM      39#    156     157    5754    5862    6403
MUSTCR    2339    2346#
NEG        145#
NEWCHR    3745#
NEWSTT    2853#   2926    3262    3372    4457


-- PAGE 179 --------------------------------------------------------------


NEXT      1062    4361#
NEXTC     4367#   4461
NFERR     1881#   4387
NMARY1    5946    5953#
NMARY2    5940    5952#
NMREL     4544#   4546
NODATT    2406    2411#
NODEL     2011#
NOPRIN    2613#   2619
NOSEC     5557    5571#
NOTABR    3779    3921    3969    3981#
NOTDIM    6058    6062#
NOTER     5036    5431#
NOTFDD    5934    6015#
NOTFNS    5640    5673#
NOTFRF    5198    5208#
NOTIT1    5647    5652    5662#
NOTLST    7050    7057#
NOTOL     2749    2757#
NOTQTI    4047    4063#
NOTSTV    4535#
NOTTHR    7272    7279#
NOTTK     1025#   5034
NOTTRC    2909    2922#
NOWGET    4186    4196#
NOWLIN    4305    4327#
NTHIS     2365    2435#
NTHIS1    2439#   2442
NULCNT     834#   3098    3870
NULL      1103    3085#
NUMCMD    2936#   2938
NUMGFN    5128#   5130
NUMINS    4172    4211#
NUMLEV     111#   1849
NUMREL    4680#   4795
NUMTMP     118#    119#   1614
NUTPOS    3912#   3915
NXTCON    2839    4442
NXTRES    2355#   2370
ODONE      122#   2617
OKGOTO    3657    3662#
OKNORM    5132    5182#
OLDLIN    1646#   3031    3077
OLDTXT    1647#   2254    3037    3065
OMERR      135    1857#   3238
ONEFUN    1046#   5045    5128    5194    5200
ONELIN    2111    2124#
ONEON     2809    2829#
ONGOTO    1101    3584#
OPRTYP    1604#   4825    4906
OPTAB      958#   4607
ORFIN     5475    5486#
OUTBEL    2526    2532#


-- PAGE 180 --------------------------------------------------------------


OUTCON     816    2538#
OUTDO      146     807#
OUTWRD    7254#   7322
PARCHK    5052#   5183    6350
PEEK       934    7765#
PLOOP     7465#   7472
PLUSTK     155    1027#   1029    4576    5009
POKE      1110    7776#
POPGOF    1760    1764#
POPHRT     160#
POS        913    6279#
PPSWRT    2541    6685#
PREAM     7124    7174    7293#
PREAM2    7193    7297#
PRINT     1112    3747#
PRINTC    3751#   3984
PRINTK     998#   2331
PRIT3     7501#   7510
PRIT4     7464#   7505
PRTNUL    3872#   3884
PSW        807    1970    1980    1987    2012    2372    2587    2588    2621    2831    3019    3045    3180    3194
          3465    6478    3525    3533    3879    3882    3937    3948    4170    4201    4394    4931    5357    5468
          5632    5888    5977    6028    6066    6149    6160    6661    6662    6685    6688    6695    6860    6861
          7212    7266    7487    7494
PTRGET    3452    4114    4372    5089    5529#   6323
PTRGT2    5534#   6449
PUFOUT     167#
PURE         7#
PUSHF      141#   4736    4972
PUSHMA     871     890#    891
PUTDEI    6407#   6515
PUTNEW    6578#   6969    7116    7170
PUTVAL    3563    3567#
Q          981#    986     986#    987     987#    988     988#    989     989#    990     990#    991     991#    992
           992#    993     993#    994     994#    995     955#    998     998     999     999#   1001    1001#   1002
          1002#   1005    1005#   1011    1011#   1012    1013    1013#   1019    1019#   1020    1021    1021#   1022
          1022#   1023    1023#   1025    1025#   1026    1026#   1027    1027#   1028    1028#   1029    1029#   1031
          1031#   1032    1033    1033#   1035    1035    1036    1046    1046#   1047    1047#   1048    1048#   1049
          1049#   1050    1050#   1052    1052#   1054    1054#   1056    1056#   1177#   1187#   1194    1194#   1212
          1214    1214#   1228    1230    1230#   1252    1254    1254#   1267    1269    1269#   1292    1294    1294#
          1304    1306    1306#   1321    1323    1323#   1344    1346    1346#   1370    1372    1372#   1393    1395
          1395#   1413    1415    1415#   1431    1434    1434#   1449    1451    1451#   1472    1474    1474#   1491
          1493    1493#   1521    1524    1524#   1540    1543    1543#   1568
QINLIN     155    2269#   4077    4153
QINT       141#
RAMBOT      13#
READ      1070    4091#
READY      135    1940#   3053    7413
REALIO       5#     13     129     137     999    1119    2469    2474    2533    2543    2612    2628    3055    6703
REASON     135    1789    1835    1846#   6086
REDDY     1710    1954    7528
REDINP    3460#
REM       1086    1899    3315    3392#


-- PAGE 181 --------------------------------------------------------------


REMER     3400#   3421    3430
REMTK      992#   2412
REPINI     135    1956#
REPOUT    3976#   3979
RESCR1    7488#   7492
RESER     2357#   2447
RESFIN    2989#   4254
RESLST     986#   2351    7484
RESRCH    7486#   7498
RESTOR    1080    2218    2984#
RETAOP    4524#   4658    5408    5454
RETURN    1084    3352#
RIGHT$     950    7179#
RND        917     917#
RNDFIX     917#
RUN       1076    3251#
RUNC      2057    2196#   3252
RUNC2     3265    3296#
SCNLIN    2098#   7403    7518
SCRATH    1130    2177#
SCRATK    1005#   2936
SCRTCH     144    2178#
SETDBL    4898#   4948
SETIO     7252    7264    7315#
SGN        897     897#
SIGN       159     849#
SIGNC      160#    854
SIGNS      154#   5393
SIN        926     926#
SINFIX     139     926#
SKPMRF    3715#   3727    3732
SKPVAR    6754    6760#
SMLVAL    6179    6186#
SNERR      135     773    1874#   2122    2884    2940    3186    3227    4557    5538    6396
SNGDBL    4893#   4940
SNGDO     4959#   4990
SNGDSP    1155#   4960
SNGFLT    6269#   7064    7094    7248    7773
SP        1739    1852    2832    2842    3295    6216
SPCTK     1020#   3766    3950
SQR        915     915#
SQRFIX     915#
SQRTK     1048#   5194
STAINP    7280#   7285    7319
START       84     732#
STEPTK    1026#   2805
STKDBL    4831    4879#
STKINI    1884    2237#
STKSNG    4846    4954#
STKTOP     147    1649#   2239    3242    3508    6237    6664    6714
STMDSP    1058#   2949
STOP      1088    3010#
STPEND    3018#   4085


-- PAGE 182 --------------------------------------------------------------


STPRDY    1939#   7426
STR$       940    6459#
STRI      2418#   2432
STRAD1    6510#
STRAD2    6494    6507#   6564    7159
STRCMP    4802    5345#
STRCPY    3522    6482#   6569
STRDN2    4204    4224#
STRDON    3795    3840#
STREND     136    1668#   1828    2227    5706    5720    5925    6089    6210    6774
STRFIN    6544    6548    6554#
STRGET    6539#   6552
STRING      40#    148     937    1053    1432    1601    1617    1711    1716    1720    2206    2210    2242    2275
          2278    2289    2316    2348    2397    2413    2586    2815    3383    3437    3461    3476    3755    3789
          3804    3805    3837    3886    4009    4049    4060    4163    4284    4509    4585    5024    5093    5097
          5126    5324    6217    6403    6453    6453    7291    7327    7354
STRINI    6504#   6942    7104
STRLIT     150    3807    6467    6532#   6620
STRLT2    4197    6536#
STRLT3    6535    7452
STRLTI    4051    5028    6533#
STRNG     2310    2427#
STROUI     146    6618#
STROUT     144    1917    4029    4264    6619#   7531
STRPR2    6634#   6649
STRPRT    3832    3841    4057    6625#   7455
STRSIZ     116#    117#   1614    1615
STUFFH    2303    2324    2333    2344    2393#   2425
SUBFLG    1625#   2264    2735    5612    5624    6440
SVAR      6737#   6768
SVARS     6734#
TABEND    2361    2377#
TABER     3762    3768    3936#
TABTK     1012#   3760
TAN        929     929#
TANFIX     139     929#
TEMP      1633#   2208    2259    2835    2869    3016    3034    3474    4032    4376    4449
TEMP2      170    1639#   4522    4525    5072    5906    6200
TEMP3      170    1618#   4560    4573    4721    6039    6114    6801    6812
TEMP6     6030    6035#   6106
TEMPPT     149    1612#   2247    6582    6609    6723    7022    7036
TEMPST     150    1614#   2244    6719
THENTK    1023#   3660
TMERR      169#   4686    4856
TOFF      1095    2185    3103#
TON       1093    3102#
TOPCON    5200#   5202
TOTK      1013#   2780
TRCFLG    1675#   2905    3105
TRMNOK    4016#   4234
TRMOK     4229    4236#
TRYAGN    3991#   4026
TRYGI2    6661#   6697


-- PAGE 183 --------------------------------------------------------------


TRYIN     2629#   2635
TRYOUT    8592    2611#
TSTACK     143#
TSTOP     4527#   6964
TTICHN     125#   2638
TTOCHN     124#   2623
TTYCHR    2585#
TTYIST    3963#
TTYPOS     836#   2597    2609    3822    3862    3874    3910    3964    6280
TVAR      6721#   6728
TXTTAB     144    1655#   2149    2179    2197    2986
UMULT      157#   6069    6156
USERR     3340#
USINTK    1022#
USRLOC     906#
VAL        642    7362#
VALINT     169#
VALSNG     169#
VALTYP     149     170    1602#   3463    4165    4587    4681    4834    4933    5237    5596    5931    6169    6591
VARTAB    1658#   2018    2030    2192    2221    3230    3516    5630    6135    7540    7554
VINT       168#    902
VMOVAF     166#   4883    4929
VMOVE      169#   3541    6594
VMOVFA     166#
VMOVFM     167#   5111
VMOVMF     167#   3571
VNEG       167#   5077
VPUSHD    4697    4705    4712#
VSIGN      166#   3688#   3688
ZERITA    6091#   6096
ZERO       141#   7366
ZEROER    5729#   5734
$CODE       84      84#    876    1736    1765    1849    1948    2099    2116    2250    2799    3175    3182    3233
          4363    4781    6055    6214    6710
SSTART      84#     84
.C1        135    7800#
.P         110#    735     736#    749     750#    751     752#    774     775#    800     801#    811     812#    817
           818#    851     852#    855     856#    872     873#    877     878     892     893#    898     899#    903
           904#    905     906#    907     908#    909     910#    911     912     914     915#    916     917#    918
           919#    921     922#    923     924#    925     926#    927     928#    930     931#    932     933#    935
           936#    939     940#    941     942#    943     944#    945     946#    947     948#    949     950#    951
           952#    953     954#   1059    1060#   1061    1062#   1063    1064#   1065    1066#   1067    1068#   1069
          1070#   1071    1072#   1073    1074#   1075    1076#   1077    1078#   1079    1080#   1081    1082#   1083
          1084#   1085    1086#   1087    1088#   1089    1090#   1992    1093#   1094    1095#   1096    1097#   1098
          1099#   1100    1101#   1102    1103#   1104    1105#   1106    1107#   1111    1112#   1113    1114#   1115
          1116#   1118    1119#   1121    1122#   1124    1125#   1126    1127#   1131    1132#   1135    1136#   1137
          1138#   1139    1140#   1146    1147#   1148    1149#   1150    1151#   1152    1153#   1154    1155#   1156
          1157#   1158    1159#   1160    1161#   1162    1163#   1164    1165#   1166    1167#   1168    1169#   1170
          1171#   1172    1173#   1174    1175#   1737    1738#   1761    1762#   1766    1767#   1772    1773#   1790
          1791#   1803    1804#   1829    1830#   1836    1837#   1850    1851#   1864    1865#   1870    1871#   1873
          1874#   1885    1886#   1890    1891#   1893    1894#   1896    1897#   1900    1901#   1905    1906#   1918
          1919#   1921    1922#   1927    1928#   1946    1947#   1949    1950#   1952    1953#   1955    1956#   1958
          1959#   1963    1964#   1969    1970#   1973    1974#   1977    1978#   1983    1984#   1990    1991#   1995


-- PAGE 184 --------------------------------------------------------------


          1996#   2016    2017#   2019    2020#   2027    2028#   2031    2032#   2046    2047#   2055    2056#   2058
          2059#   2074    2075#   2083    2084#   2091    2092#   2100    2101#   2104    2105#   2108    2109#   2112
          2113#   2117    2118#   2120    2121#   2123    2124#   2150    2151#   2172    2173#   2180    2181#   2186
          2187#   2193    2194#   2198    2199#   2209    2210#   2213    2214#   2216    2217#   2219    2220#   2222
          2223#   2225    2226#   2228    2229#   2240    2241#   2245    2246#   2248    2249#   2251    2252#   2255
          2256#   2260    2261#   2265    2266#   2280    2281#   2293    2294#   2298    2299#   2304    2305#   2311
          2312#   2315    2316#   2319    2320#   2325    2326#   2334    2335#   2340    2341#   2345    2346#   2352
          2353#   2362    2363#   2366    2367#   2371    2372#   2389    2390#   2402    2403#   2407    2408#   2410
          2411#   2416    2417#   2422    2423#   2426    2427#   2433    2434#   2443    2444#   2448    2449#   2451
          2452#   2473    2474#   2479    2480#   2482    2483#   2487    2488#   2493    2494#   2498    2499#   2503
          2504#   2508    2509#   2513    2514#   2518    2519#   2527    2528#   2537    2538#   2542    2543#   2593
          2594#   2598    2599#   2605    2606#   2610    2611#   2620    2621#   2636    2637#   2648    2649#   2652
          2653#   2736    2737#   2739    2740#   2746    2747#   2750    2751#   2760    2761#   2766    2767#   2774
          2775#   2786    2787#   2791    2792#   2794    2795#   2800    2801#   2810    2811#   2818    2819#   2823
          2824#   2826    2827#   2836    2837#   2864    2865#   2870    2871#   2881    2882#   2885    2886#   2895
          2896#   2902    2903#   2906    2907#   2910    2911#   2917    2918#   2927    2928#   2935    2936#   2941
          2942#   2950    2951#   2973    2974#   2987    2988#   2991    2992#   3004    3005#   3017    3018#   3023
          3024#   3029    3030#   3032    3033#   3035    3036#   3038    3039#   3044    3045#   3048    3049#   3051
          3052#   3054    3055#   3066    3067#   3074    3075#   3078    3079#   3081    3082#   3087    3088#   3096
          3097#   3099    3100    3106    3107#   3147    3148#   3151    3152#   3156    3157#   3176    3177#   3183
          3184#   3187    3188#   3205    3206#   3209    3210#   3212    3213#   3219    3220#   3228    3229#   3231
          3232#   3234    3235#   3239    3240#   3243    3244#   3247    3248#   3253    3254#   3258    3259#   3263
          3264#   3266    3267#   3282    3283#   3289    3290#   3305    3306#   3316    3317#   3320    3321#   3331
          3332#   3334    3335#   3344    3345#   3358    3359#   3366    3367#   3370    3371#   3373    3374#   3410
          3411#   3422    3423#   3431    3432#   3453    3454#   3464    3465#   3469    3470#   3475    3476#   3487
          3488#   3490    3491#   3501    3502#   3509    3510#   3514    3515#   3517    3518#   3523    3524#   3532
          3533#   3542    3543#   3553    3554#   3564    3565#   3572    3573#   3586    3587#   3593    3594#   3602
          3603#   3605    3606#   3612    3613#   3618    3619#   3652    3653#   3658    3659#   3689    3690#   3697
          3698#   3703    3704#   3706    3707#   3717    3718#   3728    3729#   3733    3734#   3737    3738#   3749
          3750#   3763    3764#   3769    3770#   3775    3776#   3780    3781#   3784    3785#   3793    3794#   3796
          3797#   3803    3804#   3808    3809#   3811    3812#   3823    3824#   3830    3831#   3833    3834#   3842
          3843#   3849    3850#   3854    3855#   3863    3864#   3871    3872#   3875    3876#   3885    3886#   3911
          3912#   3919    3920#   3922    3923#   3927    3928#   3934    3935#   3943    3944#   3956    3957#   3965
          3966#   3970    3971#   3980    3981#   3985    3986#   4018    4019#   4022    4023#   4027    4028#   4030
          4031#   4033    4034#   4045    4046#   4048    4049#   4052    4053#   4058    4059#   4074    4075#   4078
          4079#   4086    4087#   4090    4091#   4094    4095#   4099    4100#   4115    4116#   4134    4135#   4140
          4141#   4148    4149#   4154    4155#   4166    4167#   4173    4174#   4187    4188#   4198    4199#   4205
          4206#   4210    4211#   4214    4215#   4218    4219#   4230    4231#   4235    4236#   4241    4242#   4248
          4249#   4255    4256#   4261    4262#   4265    4266#   4300    4301#   4306    4307#   4316    4317#   4325
          4326#   4332    4333#   4336    4337#   4364    4365#   4373    4374#   4377    4378#   4382    4383#   4388
          4389#   4402    4403#   4409    4410#   4414    4415#   4418    4419#   4422    4423#   4429    4430#   4433
          4434#   4438    4439#   4443    4444#   4450    4451#   4458    4459#   4462    4463#   4516    4517#   4520
          4521#   4523    4524#   4526    4527#   4543    4544#   4549    4550#   4558    4559#   4561    4562#   4565
          4566#   4570    4571#   4574    4575#   4588    4589#   4599    4600    4608    4609#   4659    4660#   4668
          4669#   4673    4674#   4682    4683#   4687    4688#   4690    4691#   4698    4699#   4706    4707#   4709
          4710#   4717    4718#   4722    4723#   4725    4726#   4734    4735#   4737    4738#   4740    4741#   4746
          4747#   4755    4756#   4760    4761#   4763    4764#   4782    4783#   4788    4789#   4793    4794#   4796
          4797#   4799    4800#   4803    4804#   4806    4807#   4826    4827#   4832    4833#   4835    4836#   4840
          4841#   4847    4848#   4853    4854#   4857    4858#   4860    4861#   4871    4872#   4881    4882#   4884
          4885#   4888    4889#   4892    4893#   4897    4898#   4900    4901#   4904    4905#   4907    4908#   4930
          4931#   4934    4835#   4941    4942#   4946    4947#   4949    4950#   4956    4957#   4961    4962#   4965
          4966#   4973    4974#   4976    4977#   4980    4981#   4984    4985#   4988    4989#   4991    4992#   5001
          5002#   5004    5005#   5007    5008#   5012    5013#   5018    5019#   5023    5024#   5029    5030#   5037


-- PAGE 185 --------------------------------------------------------------


          5038#   5043    5044#   5048    5049#   5057    5058#   5070    5071#   5073    5074#   5078    5079#   5090
          5091#   5104    5105#   5109    5110#   5112    5113#   5133    5134#   5158    5159#   5163    5164#   5167
          5168#   5174    5175#   5181    5182#   5184    5185#   5199    5200#   5206    5207#   5211    5212#   5215
          5216#   5238    5239#   5347    5348#   5360    5361#   5390    5391#   5394    5395#   5406    5407#   5409
          5410#   5435    5436#   5439    5440#   5448    5449#   5455    5456#   5467    5468#   5476    5477#   5484
          5485#   5493    5494#   5518    5519#   5532    5533#   5536    5537#   5539    5540#   5551    5552#   5555
          5556#   5558    5559#   5564    5565#   5567    5568#   5570    5571#   5575    5576#   5597    5598#   5613
          5614#   5620    5621#   5625    5626#   5631    5632#   5636    5637#   5641    5642#   5648    5649#   5653
          5654#   5659    5660#   5672    5673#   5707    5708#   5715    5716#   5721    5722#   5728    5729#   5735
          5736#   5878    5879#   5886    5887#   5902    5903#   5907    5908#   5911    5912#   5919    5920#   5926
          5927#   5932    5933#   5935    5936#   5941    5942#   5947    5948#   5960    5961#   5964    5965#   5970
          5971#   5983    5984#   5989    5990#   6031    6032#   6034    6035#   6040    6041#   6051    6052#   6056
          6057#   6059    6060#   6070    6071#   6077    6078#   6084    6085#   6087    6088#   6090    6091#   6097
          6098#   6103    6104#   6107    6108#   6115    6116#   6122    6123#   6140    6141#   6153    6154#   6157
          6158#   6166    6167#   6170    6171#   6180    6181#   6184    6185#   6188    6189#   6201    6202#   6211
          6212#   6215    6216#   6221    6222#   6224    6225#   6231    6232#   6235    6236#   6238    6239#   6242
          6243#   6274    6275#   6281    6282#   6309    6310#   6313    6314#   6318    6319#   6324    6325#   6338
          6339#   6346    6347#   6351    6352#   6374    6377#   6379    6380#   6387    6388#   6391    6392#   6397
          6398#   6421    6422#   6431    6432#   6441    6442#   6450    6451#   6465    6466#   6468    6469#   6471
          6472#   6474    6475#   6489    6490#   6495    6496#   6500    6501#   6506    6507#   6509    6510#   6516
          6517#   6545    6546#   6549    6550#   6553    6554#   6558    6559#   6565    6566#   6570    6571#   6580
          6581#   6583    6584#   6586    6587#   6592    6593#   6595    6596#   6607    6608#   6610    6611#   6621
          6622#   6627    6628#   6631    6632#   6646    6647#   6650    6651#   6665    6666#   6669    6670#   6679
          6680#   6682    6683#   6693    6694#   6698    6699#   6702    6703#   6708    6709#   6711    6712#   6715
          6716#   6720    6721#   6724    6725#   6729    6730#   6732    6733#   6736    6737#   6740    6741#   6745
          6746#   6755    6756#   6758    6759#   6769    6770#   6775    6776#   6780    6781#   6786    6787#   6796
          6797#   6802    6803#   6813    6814#   6818    6819#   6821    6822#   6846    6847#   6896    6897#   6899
          6900#   6909    6910#   6920    6921#   6924    6925#   6928    6929#   6933    6934#   6940    6941#   6943
          6944#   6947    6948#   6951    6952#   6955    6956#   6959    6960#   6962    6963#   6965    6966#   6970
          6971#   6996    6997#   7016    7017#   7019    7020#   7023    7024#   7037    7038#   7046    7047#   7051
          7052#   7056    7057#   7065    7066#   7069    7070#   7083    7084#   7086    7087#   7095    7096#   7105
          7106#   7108    7109#   7111    7112#   7117    7118#   7125    7126#   7134    7135#   7142    7143#   7160
          7161#   7164    7165#   7168    7169#   7171    7172#   7175    7176#   7182    7183#   7194    7195#   7203
          7204#   7209    7210#   7216    7217#   7241    7242#   7244    7245#   7249    7250#   7253    7254#   7265
          7266#   7273    7274#   7278    7279#   7286    7287#   7310    7311#   7317    7318#   7320    7321#   7323
          7324#   7332    7333#   7336    7337#   7346    7347#   7364    7365#   7367    7368#   7383    7384#   7404
          7405#   7414    7415#   7418    7419#   7427    7428#   7434    7435#   7438    7439#   7445    7446#   7448
          7449#   7453    7454#   7456    7457#   7459    7460#   7462    7463#   7473    7474#   7479    7480#   7485
          7486#   7493    7494#   7499    7500#   7506    7507#   7511    7512#   7519    7520#   7524    7525#   7529
          7530#   7532    7533#   7535    7536#   7541    7542@   7549    7550#   7555    7556#   7767    7768#   7774
          7775#   7778    7779#   7782    7783#   7791    7792#   7800


-- PAGE 186 --------------------------------------------------------------


ACRLF       51#   1710    1715    1719    4008    4283
ADC       3427    5397
ADD       3824    3967    5614    6935
ADI       5400
ADR        748     750     897     902     904     906     908     910     913     915     917     920     922     924
           926     929     931     934     938     940     942     944     946     948     950     952    1058    1060
          1062    1064    1066    1068    1070    1072    1074    1076    1078    1080    1082    1084    1086    1088
          1091    1093    1095    1097    1099    1101    1103    1105    1110    1112    1114    1117    1120    1123
          1125    1130    1134    1136    1138    1145    1147    1149    1151    1153    1155    1157    1159    1161
          1163    1165    1167    1169    1171    1173
ADRP       955#    957#    961     963     965     967     969     972     974
ANA       1923    3025    5399    5477    5480    7283
ANI       2358    2616    2632    2640    2860    2999    3547
CALL      1788    1834    1883    1891    1898    1916    1956    1961    1971    1975    1988    2025    2056    2106
          2184    2217    2477    2485    2737    2744    2758    2764    2784    2789    2792    2816    2821    2824
          2915    3002    3085    3145    3149    3210    3256    3280    3303    3314    3356    3451    3467    3488
          3530    3540    3570    3584    3603    3616    3687    3715    3782    3791    3801    3806    3831    3941
          4028    4050    4056    4072    4076    4113    4152    4196    4212    4298    4380    4400    4407    4412
          4416    4420    4427    4460    4514    4518    4732    4135    4753    4791    4879    4882    4895    4898
          4928    4954    4971    4974    4978    5002    5055    5068    5076    5088    5107    5156    5161    5172
          5182    5345    5358    5404    5433    5437    5465    5534    5553    5565    5713    5884    6032    6068
          6085    6155    6219    6229    6233    6307    6316    6322    6344    6349    6377    6385    6389    6463
          6466    6469    6487    6493    6498    6504    6563    6593    6619    6625    6629    6756    6784    6897
          6922    6926    6941    6945    6949    6957    6960    7014    7067    7081    7103    7106    7123    7140
          7158    7162    7166    7173    7192    7207    7239    7251    7263    7276    7315    7330    7334    7362
          7381    7402    7416    7432    7436    7443    7451    7454    7517    7522    7530    7765    7776    7780
          7789
CC        1993    3329    3521    5204
CHRGET      44#   1964    1986    2355    2924    3144    3177    3214    3700    3723    3746    3982    4180    4211
          4227    4238    4327    4459    4562    4998    5125    5498    5545    5560    5598    6203    6394    7270
          7328    7350
CMA       2649    3928    3966    5375    5441    5444    6670
CMC       2166    2168    2977    3118    5391
CMP        767    2079    2363    2423    3403    3423    4554    4612    5378    5385    5644    5650    5656    5937
          5943    5949    5978    6546    6550    6694    7131    7219    7226
CNC       3332    3828    3917    6568
CNZ       1925    2118    4263    4371    5110
COMPAR      46#   1763    1795    1853    2163    3184    3236    3321    3510    3518    5637    5732    5928    6094
          6150    6369    6567    6600    6676    6726    6742    6777    6815    6847    6853    7031    7048    7423
          7546
CPI        792    1742    2300    2307    2328    2336    2341    2382    2403    2489    2494    2499    2504    2509
          2514    2521    2589    2599    2643    2804    2877    2937    2963    2969    2974    3005    3090    3113
          3116    3360    3406    3482    3589    3606    3648    3654    3724    3759    3765    3771    3776    3825
          3914    3949    4038    4130    4168    4183    4231    4328    4454    4545    4550    4580    4590    4663
          4669    4683    4774    4828    4836    4843    4843    4936    5008    5013    5019    5025    5033    5039
          5129    5195    5201    5239    5471    5579    5584    5588    5615    5898    6554    6642    6751    6792
          7199    7474
CZ        2387    2603    2862    3650    3840    6556    6644    7477
DAD       1739    1769    1832    1833    1852    2023    2752    2951    3190    3191    3192    3193    3200    3235
          3557    4609    4863    4864    4914    5216    5669    5709    5921    6081    3109    6110    6159    6174
          6181    6185    6189    6196    6216    6674    6763    6790    6807    6808    6888    7053    7155    7375
DC         986     987     988     989     990     991     992     993     994     995     998     999    1001    1002
          1005    1013    1021    1022    1023    1025    1026    1027    1028    1029    1033    1046    1047    1048


-- PAGE 187 --------------------------------------------------------------


          1049    1050    1052    1054    1056    1194    1214    1230    1254    1269    1294    1306    1323    1346
          1372    1395    1415    1434    1451    1474    1493    1524    1543    1704    1712    1721    3991    4268
DCE       1179#   1188#   1193    1213    1229    1253    1268    1293    1305    1322    1345    1371    1394    1414
          1433    1450    1473    1492    1523    1542
DCI        982#    986     987     988     989     990     991     992     993     994     995     998     999    1001
          1002    1005    1013    1021    1022    1023    1025    1026    1027    1028    1029    1033    1046    1047
          1048    1049    1050    1052    1054    1056
DCL       1178#   1189#   1194    1214    1230    1254    1269    1294    1306    1323    1346    1372    1395    1415
          1434    1451    1474    1493    1524    1543
DCR       1901    1966    2467    2979    3598    3729    3872    3977    5241    5242    5243    5382    5383    6074
          6161    6634    6988    7218    7302    7495
DCX       1799    1800    2157    2199    2468    2988    3173    3213    3338    3596    3661    3745    3787    3946
          4082    4192    4226    4237    4510    5497    5592    5729    6091    6202    6364    6365    6366    6367
          6393    6532    6875    6877    6882    6891    6906    7024    7026    7028    7042    7269    7347
DI         732
FSIGN      47#    2828
IN        2613    2629    2637    2856    2996    7245    7280
INR       1924    1965    2396    2429    2437    2531    2606    2978    3026    3089    3972    5379    5396    5587
          5591    5895    6541    6632    6987    7301
INX        769     790     885     887    1741    1750    1752    1824    1902    2034    2037    2040    2042    2050
          2051    2060    2070    2075    2076    2077    2080    2086    2155    2188    2190    2356    2393    2395
          2427    2430    2440    2453    2455    2530    2832    2842    2886    2890    2892    2897    2953    2961
          3295    3328    3405    3503    3504    3559    4079    4308    4320    4393    4692    4694    4700    4702
          4866    4917    5222    5350    5333    5365    5367    5386    5387    5645    5654    5662    5663    5677
          5679    5680    5739    5742    5747    5938    5944    5952    5953    5955    5957    6018    6025    6027
          6042    6043    6048    6061    6063    6065    6098    6117    6119    6137    6144    6146    6405    6407
          6409    6422    6483    6539    6560    6618    6647    6675    6683    6747    6748    6150    6783    6809
          6827    6829    6831    6902    6977    6979    6992    6993    7087    7146    7150    7371    7466    7468
          7489    7507    7508    7544    7545    7552
JC        2338    2343    2501    2591    2933    3185    3226    3701    4541    4556    4671    4999    5131    5197
          5537    5549    5556    5562    6082    6178    6677    6938    7132    7425
JM        3154    4696    7504
JMP        733     798     815     875     890    1770    1801    1862    2089    2170    2278    2430    2446    2535
          3052    3203    3245    3264    3342    3429    3610    3704    3735    3847    3883    3932    3983    4088
          4208    4216    4334    4441    4563    4723    4744    4761    4804    4947    4963    4989    5179    5392
          5407    5453    5482    5491    5670    5987    6272    6336    6429    6448    6514    6648    6767    6907
          6968    6994    7093    7115    7169    7180    7247    7308    7457    7509    7772
JNC       1981    2506    2525    2939    3094    3237    3512    3920    3925    3968    4547    4851    5005    5046
          5568    6151    7547
JNZ        772     853    1903    2053    2081    2121    2323    2364    2405    2414    2471    2540    2618    5634
          2748    2808    2883    3049    3364    3420    3485    3726    3731    3978    4020    4046    4146    4171
          4233    4239    4253    4304    4330    4386    4456    4568    4794    5646    5651    5733    5939    5945
          5958    5968    6075    6095    6120    6164    6222    6395    6551    6730    6753    6794    7049    7344
          7497
JP        2369    2441    7471    7491
JPO       4704    6186
JZ        1759    1967    2014    2072    2102    2110    2302    2309    2313    2332    2360    2400    2420    2424
          2491    2496    2511    2516    2879    2893    2908    2971    3027    3072    3207    325X    3408    2591
          3600    3656    3695    3695    3761    3767    3773    3778    3794    3954    4084    4132    4185    4228
          4314    4431    4597    4597    4685    4830    4838    4845    4855    4939    5010    5016    5021    5027
          5035    5041    5388    5388    5618    5639    5657    5900    5933    5981    6057    6182    6374    6543
          6547    6605    6691    6691    6778    6816    7084    7201    7271    7284    7365    7412
LDA        809     849    2317    2317    2646    2904    3462    3821    3869    3909    3963    4016    4138    4164


-- PAGE 188 --------------------------------------------------------------


          4246    4586    4680    4833    4905    5236    5611    5930    5962    6049    6101    6105    6168    6279
LDAX      2047    2357    2367    3524    5384    5642    5649    5655    6640    6990    7178    7488    7542
LHLD      1827    1868    1919    2017    2148    2178    2196    2211    2220    2238    2258    2722    2834    2985
          3021    3033    3064    3076    3217    3229    3287    3318    3499    3507    3515    3809    4031    4092
          4448    4524    4720    4797    4869    5071    5165    5629    5634    5705    5876    5917    5924    6113
          6199    6209    6236    6240    6419    6581    6663    6667    6700    6713    6722    6734    6738    6773
          6811    6844    6894    6918    6931    6953    7017    7021    7044    7109    7539
LXI       1735    1764    1848    1894    1947    1953    2044    2098    2115    2243    2249    2296    2350    2449
          2480    2798    2925    2948    3046    3174    3181    3232    3261    3371    3551    3562    3852    4025
          4203    4259    4362    4606    4657    4688    4707    4715    4738    4758    4780    4786    4801    4858
          4902    4959    5209    5213    5516    5573    6054    6138    6213    6311    6472    6507    6578    6696
          6709    6718    6727    6819    6963    7063    7214    7446    7460    7483    7527    7533
MCSSIM      84
MOV        764     791     827     830     884     886    1740    1749    1751    1754    1755    1756    1796    1822
          1922    1978    2033    2039    2041    2049    2067    2068    2069    2085    2087    2151    2153    2154
          2187    2189    2299    2305    2321    2322    2335    2373    2378    2417    2418    2519    2520    2528
          2529    2801    2802    2803    2875    2887    2896    2898    2944    2952    2954    2962    3024    3070
          3112    3152    3188    3189    3197    3220    3222    3223    3225    3336    3337    3397    3398    3399
          3400    3428    3519    3520    3534    3554    3558    3560    3561    3587    3588    3597    3599    3623
          3953    3973    4080    4126    4181    4182    4310    4319    4321    4392    4439    4440    4453    4535
          4555    4566    4571    4583    4610    4611    4662    4691    4693    4699    4701    4712    4713    4773
          4823    4827    4841    4842    4848    4865    4867    4911    4916    4918    4919    5123    5127    5193
          5221    5223    5224    5349    5351    5354    5364    5366    5368    5370    5373    5440    5442    5443
          5445    5473    5478    5479    5481    5487    5488    5490    5533    5541    5559    5594    5628    5643
          5664    5674    5675    5724    5725    5738    5741    5743    5896    5897    5942    5948    5954    5956
          6017    6019    6024    6026    6044    6047    6053    6062    6064    6078    6079    6100    6108    6116
          6118    6143    6145    6162    6163    6172    6173    6263    6265    6266    6269    6271    6331    6332
          6404    6406    6408    6410    6423    6444    6482    6497    6511    6535    6540    6562    6612    6671
          6746    6760    6782    6804    6828    6830    6842    6843    6848    6849    6856    6857    6871    6876
          6878    6885    6889    6890    6892    6893    6901    6903    6904    6905    6929    6976    6978    6980
          6981    7025    7027    7040    7041    7043    7052    7071    7074    7092    7112    7128    7130    7135
          7149    7151    7152    7156    7157    7161    7191    7223    7224    7227    7229    7300    7342    7351
          7368    7373    7374    7376    7377    7380    7387    7409    7465    7501    7550    7551    7768
MOVRI       60#
MVI       1830    1857    1874    1877    1881    2269    2272    2294    2330    2385    2483    2523    2732    2806
          2839    2912    2918    2945    3062    3198    3291    3340    3353    3362    3395    3555    3711    3834
          3850    3859    3866    3974    4041    4149    4188    4190    4312    4511    4537    4742    4861    4912
          5065    5120    5431    5577    5582    5667    5730    5880    5966    5385    6020    6092    6372    6427
          6437    6533    6537    6588    6603    6672    6689    6761    6805    6886    6936    7101    7137    7153
          7197    7220    7267    7308    7439    7449
NOP        882     883
ORA        812     852    1757    2052    2071    2156    2312    2320    2368    2419    2439    2882    2891    2907
          3071    3153    3401    3721    3839    4019    4081    4141    4249    4257    4303    4311    4567    4594
          5371    5374    5486    5489    5965    6052    6104    6424    6443    6542    6659    6826    6872    7075
          7343    7410    7467    7490    7502
ORI       2374
OUT       2622    7254
OUTCHR      45#   2271    2274    2470    2475    2534    2914    2920    3836    3865    3868    3881    3976    4151
          6641    7442
PCHL      3566    4920    5225    6035
POP        873    1767    1794    1837    1855    1939    1979    1980    2011    2012    2022    2028    2038    2105
          2125    2162    2164    2165    2237    2372    2377    2379    2435    2587    2621    2747    2795    2827
          2921    3018    3045    3158    3194    3202    3244    3284    3327    3367    3477    3478    3506    3511


-- PAGE 189 --------------------------------------------------------------


          3533    3536    3543    3567    3576    3578    3781    3846    3882    3948    3981    4023    4059    4083
          4201    4245    4266    4318    4410    4415    4423    4424    4527    4756    4821    4868    4885    4889
          4893    4894    4915    4931    4943    4957    4958    4970    4981    4985    5086    5118    5207    5355
          5363    5369    5398    5449    5468    5470    5638    5711    5781    5737    5740    5751    5887    5888
          5908    5977    6028    6060    6072    6073    6142    6158    6160    6194    6358    6361    6381    6392
          6400    6401    6402    6411    6425    6490    6492    6501    6611    6661    6685    6688    6771    5803
          6851    6859    6860    6861    6869    6870    6900    6944    6973    7057    7091    7113    7143    7144
          7165    7176    7212    7279    7297    7298    7338    7384    7386    7401    7406    7407    7411    7424
          7441    7464    7494    7496    7520    7525    7792
POPR        57#   4893    4957
PUSH       807     888    1753    1792    1826    1846    1970    1974    1984    1958    1987    1991    2024    2101
          2109    2127    2159    2252    2266    2347    2353    2436    2588    2763    2771    2787    2796    2797
          2819    2829    2830    2831    2833    2841    2911    2928


-- PAGE 190 --------------------------------------------------------------

(BLANK PAGE)


-- PAGE 191 --------------------------------------------------------------


  2955    3019    3148    3179    3180    3216
          3285    3286    3294    3296    3317    3465    3466    3480    3484    3502    3525    3565    3569    3770
          3788    3879    3937    3951    4055    4063    4087    4091    4124    4170    4207    4262    4391    4394
          4395    4406    4419    4513    4656    4660    4695    4703    4714    4719    4752    4757    4778    4779
          4790    4800    4872    4913    4927    5074    5092    5124    5170    5203    5212    5356    5357    5464
          5519    5576    5626    4910    5673    5676    5708    5712    5875    5882    5883    5893    5912    6066
          6067    6149    6154    5632    6315    6348    6368    6371    6388    6418    6475    6486    6496    6510
          6536    6662    6695    6314    6712    6717    6789    6822    6855    6862    6863    6864    6879    6916
          6917    6930    6934    6699    6967    7039    7066    7129    7139    7145    7177    7196    7217    7266
          7299    7333    7379    7405    7419    7429    7430    7482    7486    7487    7521    7526    7779
PUSHFM      49#   6362
PUSHM       48#   2160    2161    3505    4309    4710    4711    6356    6359    6362    6363    6491    7090    7372
          7408    7420
PUSHR       54#
RAL       4552
RC        3115    3339    4577    6850    7228
RET        832     856     880    1838    2267    2457    2625    2653    2980    2993    3083    3100    3107    3119
          3159    3544    3579    4034    4267    4873    5060    5087    5119    5244    5593    5752    6204    6412
          6502    6613    6686    6865    7058    7076    7230    7256    7290    7352    7393    7556    7794
RLC       2943    4908    5122
RNC        797    1856    2169    2965    3178    4852    4613    4776    5380    6858    7222
RNZ        829    1744    2177    2645    3001    3010    3014    3061    3088    3215    3352    3608    6426    7034
          7304
RST       1763    1795    1853    1964    1986    2113    2160    2161    2163    2271    2274    2355    2470    2475
          2534    2779    2828    2914    2920    2924    3144    3177    3184    3214    3236    3321    3458    3505
          3510    3518    3594    3659    3700    3723    3746    3836    3865    3868    3881    3944    3976    3982
          4053    4111    4151    4180    4211    4227    4238    4309    4327    4459    4562    4710    4711    4998
          5052    5058    5125    5153    5159    5498    5500    5545    5560    5598    5637    5732    5903    5928
          6094    6150    6203    6319    6327    6329    6356    6359    6362    6363    6369    6394    6435    6491
          6567    6600    6641    6676    6726    6742    6777    6815    6847    6853    7031    7048    7090    7205
          7210    7270    7274    7294    7324    7328    7350    7372    7408    7420    7423    7442    7546    7787
RZ        1768    1798    2158    2167    2929    3402    3404    3722    3751    3876    5372    5376    5499    5581
          5586    5590    6639    6841    6873    6989    7470
SBB       3224    5402    6267
SHLD       870    1871    1950    2029    2191    2207    2214    2223    2226    2246    2253    2868    2900    2989
          3015    3030    3036    3079    3241    3368    3473    4323    4375    4436    4521    4559    4572    4886
          4890    4944    4982    4986    5102    5446    5719    5726    5905    5909    6038    6088    6584    6608
          6680    6706    6800    7035    7054    7553
SPHL      2241    2755    3359    4389    4445
STA       1888    1944    2263    2291    2408    2608    2650    2734    3042    3097    3104    3861    3873    4043
          4097    4824    4932    5530    5595    5623    6029    6439    6590    7242    7318    7321


-- PAGE 192 --------------------------------------------------------------


STAX      1797    2394    2428    2452    2454    2456    3529    6991    7469    7503    7543    7793
SUB        828     831    3221    4425    6264    7179    7229
SUI       2398    2411    2931    3195    3418    3923    4539    4575    5044    6175    7480
SYNCHK      42#   2113    2779    3458    3594    3659    3944    4053    4111    5052    5058    5153    5159    5500
          5903    6319    6327    6329    6435    7205    7210    7274    7294    7324    7787
XCHG      1758    1762    1847    1854    2032    2084    2088    2124    2381    2392    2438    2444    2757    2899
          2923    2947    2956    2984    2992    3075    3082    3157    3201    3240    3535    4202    4252    4322
          4326    4435    5098    5164    5171    5175    5633    5746    5889    5894    5923    5927    6071    6080
          6112    6198    6212    6239    6561    6666    6684    6721    6725    6737    6741    6772    6776    6810
          6814    6956    7020    7032    7190    7293    7337    7422    7431    7537
XRA       1887    1943    2078    2290    3041    3103    3527    3880    4096    4553    5377    5529    5540    5622
          6270    6759    6825    7070    7126    7282
XTHL       765     770     869    1793    1821    1825    2020    2126    2743    2768    2775    2837    3290    3374
          3471    4108    4117    4206    4236    4403    5168    5177    5187    5879    5891    6147    6333    6354
          6559    6852    6854    6921    6925    6948    6966    6974    7127    7213    7378    7421    7428    7536
          7783


-- PAGE 193 --------------------------------------------------------------


SPOOLER RUNTIME 48 SECONDS, 310 KCS, 1637 DISK HEADS, 123 DISK WRITES, 386 PAGES
**END** USER MITS  [6000,6000] JOB  F3 SEQ. 42 DATE 10-SEP-75 09:22:31 MONITOR ALBUQUERQUE SCHOOLS 5078 **END**


**END** USER MITS  [6000,6000] JOB  F3 SEQ. 42 DATE 10-SEP-75 09:22:31 MONITOR ALBUQUERQUE SCHOOLS 5078 **END**


**END** USER MITS  [6000,6000] JOB  F3 SEQ. 42 DATE 10-SEP-75 09:22:31 MONITOR ALBUQUERQUE SCHOOLS 5078 **END**


**END** USER MITS  [6000,6000] JOB  F3 SEQ. 42 DATE 10-SEP-75 09:22:31 MONITOR ALBUQUERQUE SCHOOLS 5078 **END**


**END** USER MITS  [6000,6000] JOB  F3 SEQ. 42 DATE 10-SEP-75 09:22:31 MONITOR ALBUQUERQUE SCHOOLS 5078 **END**


**END** USER MITS  [6000,6000] JOB  F3 SEQ. 42 DATE 10-SEP-75 09:22:31 MONITOR ALBUQUERQUE SCHOOLS 5078 **END**


**END** USER MITS  [6000,6000] JOB  F3 SEQ. 42 DATE 10-SEP-75 09:22:31 MONITOR ALBUQUERQUE SCHOOLS 5078 **END**


**END** USER MITS  [6000,6000] JOB  F3 SEQ. 42 DATE 10-SEP-75 09:22:31 MONITOR ALBUQUERQUE SCHOOLS 5078 **END**


**END** USER MITS  [6000,6000] JOB  F3 SEQ. 42 DATE 10-SEP-75 09:22:31 MONITOR ALBUQUERQUE SCHOOLS 5078 **END**


**END** USER MITS  [6000,6000] JOB  F3 SEQ. 42 DATE 10-SEP-75 09:22:31 MONITOR ALBUQUERQUE SCHOOLS 5078 **END**


**END** USER MITS  [6000,6000] JOB  F3 SEQ. 42 DATE 10-SEP-75 09:22:31 MONITOR ALBUQUERQUE SCHOOLS 5078 **END**


**END** USER MITS  [6000,6000] JOB  F3 SEQ. 42 DATE 10-SEP-75 09:22:31 MONITOR ALBUQUERQUE SCHOOLS 5078 **END**


**END** USER MITS  [6000,6000] JOB  F3 SEQ. 42 DATE 10-SEP-75 09:22:31 MONITOR ALBUQUERQUE SCHOOLS 5078 **END**


**END** USER MITS  [6000,6000] JOB  F3 SEQ. 42 DATE 10-SEP-75 09:22:31 MONITOR ALBUQUERQUE SCHOOLS 5078 **END**


**END** USER MITS  [6000,6000] JOB  F3 SEQ. 42 DATE 10-SEP-75 09:22:31 MONITOR ALBUQUERQUE SCHOOLS 5078 **END**


00000000000000000000000000000000000000000000000000000000000000000000000000000000000000000000000000111111111111111111111111111111111

-- PAGE 194 --------------------------------------------------------------


FFFFFFFFFFFFFFF      444      444
FFFFFFFFFFFFFFF      444      444
FFFFFFFFFFFFFFF      444      444
FFF                  444      444
FFF                  444      444
FFF                  444      444
FFF                  444      444
FFF                  444      444
FFF                  444      444
FFFFFFFFFFFF         444444444444444
FFFFFFFFFFFF         444444444444444
FFFFFFFFFFFF         444444444444444
FFF                           444
FFF                           444
FFF                           444
FFF                           444
FFF                           444
FFF                           444
FFF                           444
FFF                           444
FFF                           444


LPTSPL VERSION 6(344)  RUNNING ON LPT0
 *START* USER MITS  (6000,6000) JOB  F4 SEQ. 42 DATE 27-AUG-75 07:23:23 MONITOR ALBUQUERQUE SCHOOLS 507A *START*
REQUEST CREATED: 27-AUG-75  06:11:25
FILE: DSK80:F4(6000,6000) CREATED: 10-SEP-75 03:16:00 PRINTED: 27-AUG-75 07:23:30
QUEUE SWITCHES:  /FILE:ASCII /COPIES:1 /SPACING:1 /LIMIT:468 /FORMS:NORMAL
FILE WILL BE DELETED AFTER PRINTING


-- PAGE 195 --------------------------------------------------------------


-- PAGE 196 --------------------------------------------------------------


-- PAGE 197 --------------------------------------------------------------


  2955    3019    3148    3179    3180    3216
          3285    3286    3294    3296    3317    3465    3466    3480    3484    3502    3525    3565    3569    3770
          3788    3879    3937    3951    4055    4063    4087    4091    4124    4170    4207    4262    4391    4394
          4395    4406    4419    4513    4656    4660    4695    4703    4714    4719    4752    4757    4778    4779
          4790    4800    4872    4913    4927    5074    5092    5124    5170    5203    5212    5356    5357    5464
          5519    5576    5626    4910    5673    5676    5708    5712    5875    5882    5883    5893    5912    6066
          6067    6149    6154    5632    6315    6348    6368    6371    6388    6418    6475    6486    6496    6510
          6536    6662    6695    6314    6712    6717    6789    6822    6855    6862    6863    6864    6879    6916
          6917    6930    6934    6699    6967    7039    7066    7129    7139    7145    7177    7196    7217    7266
          7299    7333    7379    7405    7419    7429    7430    7482    7486    7487    7521    7526    7779
PUSHFM      49#   6362
PUSHM       48#   2160    2161    3505    4309    4710    4711    6356    6359    6362    6363    6491    7090    7372
          7408    7420
PUSHR       54#
RAL       4552
RC        3115    3339    4577    6850    7228
RET        832     856     880    1838    2267    2457    2625    2653    2980    2993    3083    3100    3107    3119
          3159    3544    3579    4034    4267    4873    5060    5087    5119    5244    5593    5752    6204    6412
          6502    6613    6686    6865    7058    7076    7230    7256    7290    7352    7393    7556    7794
RLC       2943    4908    5122
RNC        797    1856    2169    2965    3178    4852    4613    4776    5380    6858    7222
RNZ        829    1744    2177    2645    3001    3010    3014    3061    3088    3215    3352    3608    6426    7034
          7304
RST       1763    1795    1853    1964    1986    2113    2160    2161    2163    2271    2274    2355    2470    2475
          2534    2779    2828    2914    2920    2924    3144    3177    3184    3214    3236    3321    3458    3505
          3510    3518    3594    3659    3700    3723    3746    3836    3865    3868    3881    3944    3976    3982
          4053    4111    4151    4180    4211    4227    4238    4309    4327    4459    4562    4710    4711    4998
          5052    5058    5125    5153    5159    5498    5500    5545    5560    5598    5637    5732    5903    5928
          6094    6150    6203    6319    6327    6329    6356    6359    6362    6363    6369    6394    6435    6491
          6567    6600    6641    6676    6726    6742    6777    6815    6847    6853    7031    7048    7090    7205
          7210    7270    7274    7294    7324    7328    7350    7372    7408    7420    7423    7442    7546    7787
RZ        1768    1798    2158    2167    2929    3402    3404    3722    3751    3876    5372    5376    5499    5581
          5586    5590    6639    6841    6873    6989    7470
SBB       3224    5402    6267
SHLD       870    1871    1950    2029    2191    2207    2214    2223    2226    2246    2253    2868    2900    2989
          3015    3030    3036    3079    3241    3368    3473    4323    4375    4436    4521    4559    4572    4886
          4890    4944    4982    4986    5102    5446    5719    5726    5905    5909    6038    6088    6584    6608
          6680    6706    6800    7035    7054    7553
SPHL      2241    2755    3359    4389    4445
STA       1888    1944    2263    2291    2408    2608    2650    2734    3042    3097    3104    3861    3873    4043
          4097    4824    4932    5530    5595    5623    6029    6439    6590    7242    7318    7321


-- PAGE 198 --------------------------------------------------------------


STAX      1797    2394    2428    2452    2454    2456    3529    6991    7469    7503    7543    7793
SUB        828     831    3221    4425    6264    7179    7229
SUI       2398    2411    2931    3195    3418    3923    4539    4575    5044    6175    7480
SYNCHK      42#   2113    2779    3458    3594    3659    3944    4053    4111    5052    5058    5153    5159    5500
          5903    6319    6327    6329    6435    7205    7210    7274    7294    7324    7787
XCHG      1758    1762    1847    1854    2032    2084    2088    2124    2381    2392    2438    2444    2757    2899
          2923    2947    2956    2984    2992    3075    3082    3157    3201    3240    3535    4202    4252    4322
          4326    4435    5098    5164    5171    5175    5633    5746    5889    5894    5923    5927    6071    6080
          6112    6198    6212    6239    6561    6666    6684    6721    6725    6737    6741    6772    6776    6810
          6814    6956    7020    7032    7190    7293    7337    7422    7431    7537
XRA       1887    1943    2078    2290    3041    3103    3527    3880    4096    4553    5377    5529    5540    5622
          6270    6759    6825    7070    7126    7282
XTHL       765     770     869    1793    1821    1825    2020    2126    2743    2768    2775    2837    3290    3374
          3471    4108    4117    4206    4236    4403    5168    5177    5187    5879    5891    6147    6333    6354
          6559    6852    6854    6921    6925    6948    6966    6974    7127    7213    7378    7421    7428    7536
          7783


-- PAGE 199 --------------------------------------------------------------


